:100000000C9417040C9434040C9434040C943404AD
:100010000C9434040C9434040C9434040C94340480
:100020000C9434040C9434040C94962B0C94682C8B
:100030000C9409240C9434040C9434040C9434046B
:100040000C9434040C9434040C9434040C94340450
:100050000C9434040C9471240C9434040C943404E3
:100060000C9434040C9434040C9434040C94340430
:100070000C9434040C9434040C9434040C94340420
:100080000C9434040C9434040C9434040C94340410
:100090000C9434040C9434040C9434040C94340400
:1000A0000C9434040C9434040C9434048C048F04A5
:1000B0009204950498049B049E04C807CB07CE07BE
:1000C000D107D607DB07D907610963096E096509FE
:1000D000670969096B096D097009720974097F095B
:1000E000760978097A097C097E0981095B195B190F
:1000F0008D198D19C419E4194D1BAB1B261AAB1BA6
:10010000D31AD31A441BAB1BAB1BA51BE01AE01A76
:10011000E01AE01AE01AE01AE01AE01AE01AE01A0F
:10012000E01AE01AE01AE01AE01AE01AF11AFE1AD0
:10013000051B0C1B161B381C381C4A1C4A1C411C76
:100140004A1C4A1C4A1C381C381C461C4A1C4A1CA7
:10015000461CD52CFC2CEE2DFC2CEE2D482D6B2DA9
:10016000EE2DC12DD02D07634236B79BD8A71A3983
:10017000685618AEBAAB558C1D3CB7CC5763BD6DF5
:10018000EDFD753EF6177231BF000000803F05A8F7
:100190004CCDB2D44EB93836A9020C50B9918688EC
:1001A000083CA6AAAA2ABE000000803F6572676FBD
:1001B000646F785F657A2F653238373862626462BF
:1001C0006337393761386562303338204020302E4C
:1001D000362E3232302D362D673438346338352D93
:1001E0006469727479000000F0A12E672963D65CFF
:1001F000E104E60000001E00140004001D6134004C
:1002000043001F641A0016001B0035004C002061DB
:1002100008000700060050002800216215000900B0
:1002200019004F004900220017000A0005000000D5
:10023000E2002B024B000000015800004A002B0096
:100240004E000000025800004D0023001C000B006F
:10025000110000000401247218000D00100051006C
:10026000E30025710C000E00360052002C002674AD
:1002700012000F0037002F002A0027001300330060
:1002800038713000450056673163D75CE51403537D
:1002900000002E672963D65CE104E60000003A0006
:1002A0001E0220025561340043003B001F02210260
:1002B00023023500C95C3C002F0226022F005000AB
:1002C000CA5C3D003002270230004F0049003E006A
:1002D0003102350035020000C35C440024020000F6
:1002E000105000004A004500010000001D00000001
:1002F000C25C3F000A000A0222020000E75C4000E4
:10030000090107011C015100E3004100050118012A
:1003100008015200C55C42000B0210020F020100EE
:10032000C65C43005700370056712E0045005667E3
:100330003163D75CE514010000002E672963D65CA9
:10034000E104E60000000100A800AA00E00034007B
:100350004300F900F500F20001003500FA00F60054
:10036000F000F100F600F400FA00FA00F400F300E7
:100370000100F500490001000100A9000100000092
:10038000FA00B20001000000F90000004A00B300CA
:1003900001000000105000004D00010001000100AC
:1003A00001000000B5004A004B00500001000100B0
:1003B000E3004A015200510001000100B6004D0067
:1003C0004E004F0001000100B70001004A014D013D
:1003D00054710100450056673163D75CE514010094
:1003E000000001002963E100E104E60000000100D3
:1003F0000100E100E0000100010001001400040020
:1004000001000100E10001001A0016003D0001009A
:100410002C0001001500070042000100E30001006C
:1004200001000E00010000002B040100010000008B
:1004300001000000070801000100000001000000A9
:100440000708010001000100010000002B04010069
:100450000100010001000100E300010001000100B2
:100460000100010001000100010001000100010084
:100470000100010001000100010001000100010074
:100480000100010001000100000000000000000068
:1004900000002A2B280000000000000000000000DF
:1004A000000000000029000000002C1E3420212242
:1004B00024342627252E362D3738271E1F202122AB
:1004C000232425263333362E37381F040506070824
:1004D000090A0B0C0D0E0F10111213141516171814
:1004E000191A1B1C1D2F3130232D35040506070852
:1004F000090A0B0C0D0E0F101112131415161718F4
:10050000191A1B1C1D2F3130354C00000000000053
:1005100000000000000000000000000000000000DB
:1005200000000000000000000000000101010101C6
:1005300001000101010100000000000000000000B6
:1005400000000000010001000101010101010101A1
:10055000010101010101010101010101010101018B
:100560000101010101000000010100000000000084
:10057000000000000000000000000000000000007B
:100580000000000000010101010000047F3F1F6422
:100590003214643214783C1E1E140A056801F000FF
:1005A000B40078005A0000000000000101010101C0
:1005B000010101010202020202020202020303031C
:1005C00003030303030404040404040505050505EB
:1005D00006060606060707070708080808090909A6
:1005E0000A0A0A0A0B0B0B0C0C0C0D0D0D0E0E0F4C
:1005F0000F0F1010111111121213131414151516D8
:10060000161717181819191A1A1B1C1C1D1D1E1F46
:100610001F20202122222324252526272728292A96
:100620002B2B2C2D2E2F2F303132333435363637BD
:1006300038393A3B3C3D3E3F4041424344464748BF
:10064000494A4B4C4D4F50515253555657585A5B8F
:100650005C5E5F606263646667696A6C6D6E707130
:1006600073747678797B7C7E8081838486888A8B9C
:100670008D8F91929496989A9B9D9FA1A3A5A7A9CF
:10068000ABADAFB1B3B5B7B9BBBDBFC1C4C6C8CAC6
:10069000CCCFD1D3D6D8DADCDFE1E4E6E8EBEDF07D
:1006A000F2F5F7FAFCFF04033000000016034500E2
:1006B000720067006F0044006F0078002000450062
:1006C0005A00000016034500720067006F004400E6
:1006D0006F007800200045005A0000000403090460
:1006E00009023B00020100A0FA0904000001030115
:1006F00001000921110100012240000705810308C2
:10070000000A090401000103000000092111010091
:100710000122C0000705820320000A120110010017
:10072000000008EDFE0713010001020301050109A5
:1007300002A10185020901A1000509190129051578
:10074000002501950575018102950175038101055B
:1007500001093009311581257F9502750881060947
:10076000381581257F950175088106050C0A380228
:100770001581257F950175088106C0C00501098096
:10078000A10185031601002603001A81002A8300B7
:10079000751095018100C0050C0901A101850416A1
:1007A0000100269C021A01002A9C02751095018105
:1007B00000C005010906A1018505050719E029E723
:1007C0001500250195087501810205081901290503
:1007D00095057501910295017503910105071900B1
:1007E00029EF1500250195F075018102C005010969
:1007F00006A101050719E029E715002501950875EF
:1008000001810295017508810105081901290595E5
:1008100005750191029501750391010507190029DC
:10082000FF150026FF00950675088100C000112401
:100830001FBECFEFDAE0DEBFCDBF11E0A0E0B1E038
:10084000E0EEF3E602C005900D92AA3CB107D9F79D
:1008500023E0AAECB1E001C01D92AE3AB207E1F785
:100860000E94B8280C94EE310C94000080B38C7078
:1008700080BB81B3836F81BB089584B1807F84B9CD
:1008800085B1807F85B98AB1837F8AB98BB1837F37
:100890008BB93E9846980895CF93E82F873090F50E
:1008A0008091000190910101892B09F049C0CE2F60
:1008B00064E670E080E40E94CD059093010180938E
:1008C0000001892BD1F464E670E082E10E942406E5
:1008D0009093010180930001892B79F481E090E0ED
:1008E00001C0880FCA95EAF764E670E080950E941F
:1008F0002406909301018093000184E690E0CF915B
:100900000C94790690E0FC013797E730F105C0F4CC
:10091000EA5AFF4F0C949331209A289811C0219ADB
:1009200029980EC0229A2A980BC0239A2B9808C0A7
:10093000529A5A9805C0539A5B9802C03E9A4698BC
:10094000CF910895089508950C94A304CF93DF9355
:100950000E940B0790E090930101809300010E9498
:100960003D040E943604AFE1B2E02BEC31E0EDE251
:10097000F2E04EE04E0F11921D9280E090E0E9010E
:10098000C80FD91F1882019686309105C1F72A5FDA
:100990003F4F4E13F0CFDF91CF910C949A080E94F5
:1009A0000B0790E090930101809300010E943D04A9
:1009B0000E943604EDE2F2E08EE08E0F11928E136B
:1009C000FDCF0895CF93DF93E62FF0E0E15EFD4F7A
:1009D00040814827808386E0689FF0011124E55319
:1009E000FE4F20E030E080E061E070E050E0AAE0FF
:1009F000B22F9081992319F09150908307C0EB0199
:100A0000022E01C0CC0F0A94EAF78C2BEA0102C037
:100A1000D595C795BA95E2F7C0FDA0832F5F3F4FEC
:100A200031962630310521F7DF91CF910895CF938C
:100A3000DF93D82F873008F040C08091000190915B
:100A40000101892B09F042C064E670E080E40E9455
:100A5000CD059093010180930001892B11F0C0E036
:100A600027C064E670E083E10E94240690930101B0
:100A700080930001892B99F764E670E081E40E947D
:100A8000CD059093010180930001892B41F784E605
:100A900090E00E94540697FF05C090930101809357
:100AA0000001DDCFC82FC095109201011092000106
:100AB00084E690E00E9479060AC09FB1CFB1C07F62
:100AC000C695C6959370C92BC09501C0C0E06D2F27
:100AD0008C2F0E94E204282F2095ED2FF0E0E35D9B
:100AE000FD4F908192238C23892BDF91CF91089524
:100AF000EF92FF920F931F93CF93DF9380910001AA
:100B000090910101892B91F08091CA018F5F8093B0
:100B1000CA0181110BC00E940B0790E09093010164
:100B200080930001892B11F40E949D068DE2E82E2E
:100B300082E0F82E04E312E0C0E08C2F0E944C0407
:100B4000D7E0DC0F8D2F0E944C048C2F0E941705DC
:100B5000F70181937F018D2F0E941705F801819382
:100B60008F010E943D04CF5FC73039F70E94A4086F
:100B700081E0DF91CF911F910F91FF90EF90089549
:100B8000E82FF0E0E35DFD4F808108950895109215
:100B9000B9008CE08093B8000895EF92FF920F9314
:100BA0001F93CF93DF93182FEB011092BC0084EAC0
:100BB0008093BC000E943B247C019091BC0097FD77
:100BC0000EC0CF3F8FEFD807C1F30E943B248E1990
:100BD0009F098C179D0788F38EEF9FEF2EC0909191
:100BE000B900987F983041F09091B900987F90318A
:100BF00019F08FEF9FEF21C01093BB0084E8809322
:100C0000BC000E943B248C019091BC0097FD0CC05D
:100C1000CF3F8FEFD807C1F30E943B24801B910B7D
:100C20008C179D0788F3D8CF8091B900887F8831D1
:100C300011F08034F1F680E090E0DF91CF911F91C8
:100C40000F91FF90EF9008950F931F93CF93DF9331
:100C5000EB018093BB0084E88093BC000E943B249E
:100C60008C019091BC0097FD0EC0CF3F8FEFD8074D
:100C7000C1F30E943B24801B910B8C179D0788F3C6
:100C80008EEF9FEF0CC02091B900287F81E090E0AB
:100C9000283211F480E090E0919581959109DF91DF
:100CA000CF911F910F9108950F931F93CF93DF93CF
:100CB000EC0184E88093BC000E943B248C0190915D
:100CC000BC0097FD0EC0CF3F8FEFD807C1F30E9445
:100CD0003B24801B910B8C179D0788F38EEF9FEFB1
:100CE00003C08091BB0090E0DF91CF911F910F91E5
:100CF00008950F931F93CF93DF93EC0184E98093C2
:100D0000BC000E943B248C019091BC0094FF0EC05B
:100D1000CF3F8FEFD807C1F30E943B24801B910B7C
:100D20008C179D0788F38EEF9FEF02C080E090E064
:100D3000DF91CF911F910F91089556985E98259855
:100D40002D9826982E9827982F988FEF90E09093C3
:100D500089008093880090938B0080938A00909301
:100D60008D0080938C00259A2D9A2FEF80E792E0DA
:100D7000215080409040E1F700C00000269A2E9A52
:100D80002FEF80E792E0215080409040E1F700C0D3
:100D90000000279A2F9A2FEF80E792E021508040A1
:100DA0009040E1F700C0000025982D982FEF80E7D4
:100DB00092E0215080409040E1F700C0000026986A
:100DC0002E982FEF80E792E0215080409040E1F78D
:100DD00000C0000027982F9856985E9825982D9867
:100DE00026982E9827982F98089589EA8093800056
:100DF00089E08093810024982C983F988AB18F7C59
:100E00008AB96E98479A8BB180638BB9769A0E94A3
:100E10009D060C94A20480E290E0909301018093DF
:100E2000000180913B0281110EC00E94C70581E044
:100E300080933B022FEF83ED90E321508040904060
:100E4000E1F700C0000064E670E080E40E94CD0598
:100E50009093010180930001892B09F050C064E652
:100E600070E080E00E9424069093010180930001CD
:100E7000892B09F044C064E670E080E00E942406FB
:100E80009093010180930001892BC9F564E670E01D
:100E90008FE30E9424069093010180930001892B27
:100EA00071F584E690E00E94790664E670E080E4E3
:100EB0000E94CD059093010180930001892BF9F4E4
:100EC00064E670E08CE00E94240690930101809318
:100ED0000001892BA1F464E670E080E00E94240602
:100EE0009093010180930001892B49F464E670E03E
:100EF0008FE30E942406909301018093000184E611
:100F000090E00E947906809100010895611108C067
:100F1000FC018281882321F08CEA91E00E949708ED
:100F200080E090E00895863E2CE5920721F0873E10
:100F30009C4541F010C0FB018281882369F00E942A
:100F4000272307C0FB018281882331F081E00E94C2
:100F50007E1180E0089581E00895CF92DF92EF92B4
:100F6000FF926B017C010E94692256985E98259839
:100F70002D9826982E9827982F98482F50E0FA0100
:100F80003197E730F105E0F4E35AFF4F0C949331C9
:100F9000259A2D9A49C0269A2E9A50C0279A2F9AA0
:100FA00057C0259A2D9A269A2E9A5DC0259A2D9A79
:100FB00004C0259A2D9A269A2E9A279A2F9A53C0C2
:100FC000813091F130F08230C9F1833009F440C0B2
:100FD0004AC00E94160F6093540370935503809388
:100FE00056039093570360FF1CC00E9481118091AB
:100FF000540386958F730E947E1180915403881F3D
:101000008827881F90915503292F220F97FB992736
:1010100090F94091570360915603822B0E9414115E
:1010200022C00E94C7111FC00E94BE1181E00E9411
:101030008A114FEF66EB85EC90E013C00E94BE1161
:1010400081E00E948A114FEF62EC82E091E009C0DA
:101050000E94BE1181E00E948A114FEF68EB82E38B
:1010600090E00E941711C701B601FF90EF90DF904A
:10107000CF90089581E008950C949307CF93282F83
:1010800030E0F901E657FB4FC491F901E65FFA4FF2
:101090002491222359F081EE0E948B178C2F0E94FD
:1010A0008B178C2F0E94A91881EE04C08C2F0E94F0
:1010B0008B178C2FCF910C94A9180F931F93CF935C
:1010C000DF93EC01062FFE018491882359F19E01E4
:1010D0002F5F3F4F813041F4E901F9011491812FD5
:1010E0000E948B17812F0DC0823031F4E901F90184
:1010F00084910E948B170AC0833031F4E901F90111
:1011000084910E94A91802C00E943E082196802F57
:101110008823C9F2EFE9FFE03197F1F700C0000042
:101120008150F6CFDF91CF911F910F91089560E02C
:101130000C945D080E94B922811102C00E942723ED
:101140000E94F20D0C94F5060C94A404282F2F7025
:1011500041F0822F90E02A3010F44D9608950697C2
:10116000089587E290E0089508950C94B4080C94D3
:10117000B50808950E94261C0E94B9082FEF84E349
:101180009CE0215080409040E1F700C000000C94AA
:101190009724FF920F931F93CF93DF938C01FC0151
:1011A000C081D18180918502811113C08281882301
:1011B00049F0CE010E945921F82E682FCE010E94DD
:1011C000FC2004C0CE010E942C21F82EBE018F2DE0
:1011D00004C0CE010E945921BE010E94640BEC01A3
:1011E000B8010E943C08882309F466C2B801CE0108
:1011F0000E946D0E882309F45FC2CC3CFCE5DF073A
:1012000041F4F8018281882309F456C20E944E0FEE
:1012100053C2CD3C8CE5D80708F01EC1C43C9CE508
:10122000D90761F4F8018281882309F445C20E943C
:101230002A228272E1F40E947B113EC2C53CECE599
:10124000DE0708F0C7C0C531FCE5DF0798F0C23CF7
:10125000FCE5DF0709F48CC008F492C0F801828134
:10126000882309F429C20E942A22827221F70E944F
:101270006D1122C2C2308CE5D80708F452C0F801C3
:101280008281882309F459C00E94B922811102C0C9
:101290000E9427230E94CC2290E09093A003809389
:1012A0009F03FE01E350FC45E231F10530F4EC59B7
:1012B000FF4F80919F030C94933180919F03816035
:1012C00027C0826025C0846023C0806121C0806205
:1012D0001FC080641DC080681BC08460886018C007
:1012E0008E7F16C08D7F14C08B7F12C08F7E10C082
:1012F0008F7D0EC08F7B0CC08F770AC08B7F877F5E
:1013000007C087FB222720F991E0922790FB87F9FD
:1013100080939F0380919F030E94D0220E94261CED
:10132000CBC1C1159CE5D90781F0C130DC45A9F0DE
:1013300081E08093410280934202C801DF91CF9106
:101340001F910F91FF900C943A08F8018281882335
:1013500009F4B2C10E94BA08AFC1F80182818823A2
:1013600009F4AAC180912403816080932403A4C15D
:10137000F8018281882309F49FC10E94DF119CC17A
:10138000C631DC45A9F60E942A22282FF801828165
:1013900040910F0150911001882379F02A7A91E051
:1013A00009F490E090933C02911102C069E201C0FF
:1013B00065E3CA010E948E230AC080913C0281111C
:1013C00002C069E201C065E3CA010E9499230E943C
:1013D000F72172C1F8018281C83CFCE5DF0731F4D6
:1013E000882309F469C10E94D11066C1C93C9CE5FB
:1013F000D907C8F4C63CECE5DE0731F4882309F4CC
:101400005BC10E94A31058C1C73CDC4530F488235F
:1014100009F452C10E947F104FC1882309F44CC1C6
:101420000E94BA1049C1CA3C9CE5D90731F488230F
:1014300009F442C10E9411113FC1CB3CDC4530F49C
:10144000882309F439C10E94F11036C1882309F4B8
:1014500033C10E94390F30C1C43DFCE5DF0791F470
:10146000F8018281882309F427C10E94300F893155
:1014700028F00E94300F823208F4F9CE89E10E94F0
:101480007E111AC1C53D8CE5D80708F068C0F80187
:101490008281C03DFCE5DF0771F4882309F40CC1AB
:1014A0000E94300F893028F00E94300F8E3008F4EF
:1014B000DECE89E0E4CFC13D9CE5D90740F5CE3CC6
:1014C000ECE5DE0771F4882309F4F6C00E94300FC2
:1014D000823028F00E94300F853008F4C8CE82E0B8
:1014E000CECFCF3CDC4528F4882309F4E5C081E069
:1014F000C6CF882309F4E0C00E94300F863028F060
:101500000E94300F883008F4B2CE86E0B8CFC23DDA
:101510009CE5D90771F4882309F4CEC00E94300FEE
:10152000853128F00E94300F873108F4A0CE85E184
:10153000A6CFC33DDC4570F4882309F4BDC00E94EA
:10154000300F8F3028F00E94300F843108F48FCE96
:101550008FE095CF882309F4AFC088E190CFC83DD4
:10156000FCE5DF0759F5F8018281882361F01092CC
:1015700042020E943B249093400280933F0280E20B
:101580000E94191999C080914202882321F080E2BB
:101590000E94201991C080913F02909140020E94C8
:1015A0004724883C910598F780E20E94201988E240
:1015B0000E948B1788E20E94A9187EC0C93D8CE565
:1015C000D80708F058C0F8018281C63DFCE5DF0766
:1015D00051F5882351F0109241020E943B249093D0
:1015E0003E0280933D0282E0CBCF0E942A2285FFFB
:1015F00005C081E0809341028093420280914102C4
:1016000081110FC080913D0290913E020E944724BB
:10161000883C910530F486E20E948B1786E20E9496
:10162000A91882E0B5CFC73DDC4528F4882309F42A
:1016300043C083E224CF81119ACF0E942A2281FFE6
:1016400005C081E080934102809342028091420272
:1016500081119DCF80913F02909140020E944724CA
:10166000883C910508F093CF87E20E948B1787E2B0
:101670000E94A9188CCFCC3DECE5DE0741F4F801BF
:1016800082818823C9F082E00E94592915C0CD3D8E
:10169000FCE5DF0739F4F8018281882369F00E94B4
:1016A00027230AC0CB3DDC4509F042CEF8018281F8
:1016B000882311F080E0E8CF80E0DF91CF911F9187
:1016C0000F91FF900895089596E0799FF0011124FD
:1016D00094E5899FE00DF11D1124E60FF11DEE0F39
:1016E000FF1FE651FE4F859194910895880F991F31
:1016F000FC01EA51FE4F859194910895CF93DF93B9
:101700000E94640B0E943B0DEC01811520E59207BD
:10171000F0F5811530E4930708F029C1883E910562
:1017200000F5803E910508F0A2C1883A910570F459
:10173000853A910508F0A3C08130910509F497C15D
:1017400008F448C1049708F092C144C18F3B910549
:1017500008F4A0C0803C910508F43CC1805C91096C
:10176000F8C08115904258F4C11581E0D80708F0FF
:101770007EC1C03FD10508F42DC1D06578C1C11527
:1017800090E3D90708F0E9C0CE019F70E2C081154F
:1017900025E5920708F043C0811534E5930708F06A
:1017A000FDC0811542E5940708F5C11581E5D8070C
:1017B00008F0E0C02C2F237081E090E002C0880F79
:1017C000991F2A95E2F79C689E0174E0369527954B
:1017D0007A95E1F72370922BCF70C695C69540E2BB
:1017E000C49FE0011124C82BD92B41C18695869551
:1017F0009E0123703327C115D34508F0C0C040E2D5
:10180000849FC0011124C1E0D0E002C0CC0FDD1FD5
:101810002A95E2F78C2B9D2BEC01DC6828C1811501
:101820002AE5920798F4811539E5930708F0C1C0BD
:101830008115964508F4B7C0C11588E5D80708F4A6
:10184000C9C0DC2FCC27C06FD06A11C1C1159BE580
:10185000D90708F4BFC0C1152CE5D20708F4B7C0FA
:10186000CE0190568115904208F0B4C08D2F8F7133
:101870000E94B80DDD27D0628F71D82BF8C0853A51
:10188000910509F4AAC0863A910509F0A9C0C2E8F9
:10189000D0E4EDC0883A910509F4A5C0893A9105D4
:1018A00009F4A4C08A3A910509F4A3C08B3A9105C2
:1018B00009F4A2C08C3A910509F4A1C08B3B9105B3
:1018C00009F4A0C08C3B910509F49FC08D3A9105A5
:1018D00009F49EC0803B910509F49DC08E3A9105A4
:1018E00009F49CC08F3A910509F49BC0813B910596
:1018F00009F49AC0823B910509F499C0833B910594
:1019000009F498C0843B910509F497C0853B910583
:1019100009F496C0863B910509F495C0873B910573
:1019200009F494C0883B910509F493C0893B910563
:1019300009F492C08D3B910509F491C08E3B91054D
:1019400009F490C08A3B910509F48FC0C0E0D4E44B
:101950008EC00E94760BEC018AC0CE019927D3FF7E
:1019600003C0EC01D86C83C0EC01D06C80C0DF7088
:10197000D06A7DC0DC2FCC27C16FD06A78C040E22E
:10198000849FC0011124C1E0D0E002C0CC0FDD1F54
:101990002A95E2F7C82BD92BDA6869C0D82FCC2753
:1019A000C46FD06A64C0CF71DD27DC2FCC27D06232
:1019B0005EC08F70806E90E0906A24E0D695C795E7
:1019C0002A95E1F7CF709C013C2BE90150C0DD273F
:1019D000D0664DC0C0E0D0E04AC0C1E8D0E447C006
:1019E000C3E8D0E444C0C2EED4E441C0C9EED4E4BC
:1019F0003EC0CAEED4E43BC0C5EBD4E438C0C6EB6D
:101A0000D4E435C0C3EBD4E432C0C4EBD4E42FC07B
:101A1000C7EBD4E42CC0CCECD4E429C0CDECD4E4A6
:101A200026C0C3E8D5E423C0CAE8D5E420C0C2E993
:101A3000D5E41DC0C4E9D5E41AC0C1E2D6E417C09C
:101A4000C3E2D6E414C0C4E2D6E411C0C5E2D6E4D1
:101A50000EC0C6E2D6E40BC0C7E2D6E408C0CFE6AB
:101A6000D4E405C0C0E7D4E402C0CAE2D6E4CE01A3
:101A7000DF91CF9108958238910549F1B0F4813317
:101A8000910509F458C048F48932910509F44EC013
:101A90008A32910509F454C008958533910509F4FB
:101AA00040C08933910599F00895833E910529F14D
:101AB00038F4803E910591F0823E9105A1F00895A1
:101AC000863E9105F9F0873E910531F10895209108
:101AD0009F0320FD3AC021FD38C0089580919F03E7
:101AE00080FD35C032C080919F0382FF32C080915B
:101AF0009F0384FD30C083EE39C080919F0382FD37
:101B000028C0F5CF80919F0383FF27C080919F035A
:101B100084FD21C087EE2AC080919F0383FD1DC0F4
:101B2000F5CF80919F0385FD1AC01BC080919F0354
:101B300085FD17C014C080919F0386FD14C015C099
:101B400080919F0386FD11C00EC080EE0FC089E317
:101B50000DC082EE0BC080E009C086EE07C089E2AE
:101B600005C085E303C08AE201C081E390E00895E7
:101B700090919F0392FF0DC0282F2871283019F4EF
:101B8000877F846006C0282F2471243011F48B7F56
:101B9000886093FF0DC0282F2871283119F4877EA3
:101BA000846106C0282F2471243111F48B7E886152
:101BB00094FD877E0895CF93DF93813020E89207CC
:101BC00068F0FB012281222349F0EC010E94080EFB
:101BD000CE019F770E94500E0E943D0E81E0DF9162
:101BE000CF9108958CE090E00E94A63190E0A0E0B3
:101BF000B0E08093590390935A03A0935B03B09392
:101C00005C030895609159038CE090E00C94BA3124
:101C10000E942A22809343020E943D228091590310
:101C2000813071F048F08230D9F08430F9F486EEDA
:101C30000E94111988E118C082EE0E948B1716C00D
:101C400080EE0E948B1781EE0E948B1788E10E9424
:101C5000111981EE0E94A91880EE0E94A91806C0F1
:101C600082EE0E948B1787E50E9411198FE39CE991
:101C70000197F1F700C00000089580915903813069
:101C800021F038F0823029F007C08CE20E9411194F
:101C900003C082EE0E94A918809143020C943A225C
:101CA0000F931F93CF93DF938C01CCE0D0E0C8015A
:101CB0000C2E02C0969587950A94E2F78F700E94C9
:101CC000A6080E9411192497CC3F8FEFD80779F707
:101CD000DF91CF911F910F9108950F931F93CF9391
:101CE000DF93EC018B01FB018281882319F1C23E55
:101CF000FCE5DF07C1F050F4C03EECE5DE0781F003
:101D0000C13EFCE5DF07B1F481E010C0C33E8CE5C5
:101D1000D80759F0C43EECE5DE0761F484E006C064
:101D20001092590305C082E001C083E080935903FB
:101D30000E94020EB801CE01DF91CF911F910F9149
:101D40000C94DB0DEF92FF920F931F93CF93DF93D1
:101D5000E901662309F44BC0242F30E0EFEFF0E0F7
:101D6000E61BF109B901E69F9001E79F300DF69F50
:101D7000300D1124232F8B01031B11095CE3E52E89
:101D8000F12CB7010E946B31FB01BC01069FC00121
:101D9000079F900D169F900D1124B7010E946B3183
:101DA000E230F105B1F040F4309779F0319711F558
:101DB000832F242F461B21C0E430F105A1F068F0E9
:101DC0003597C1F4842F861B18C0832F262F230F2D
:101DD00014C0862F830FE42F03C0E42FE61B842F4B
:101DE000432F2E2F0AC0842F462F430F06C0842F67
:101DF000242F03C080E020E040E0E42FF0E0EA552B
:101E0000FA4F4491E22FF0E0EA55FA4F9491E82F0F
:101E1000F0E0EA55FA4FE49149839883EA83DF9131
:101E2000CF911F910F91FF90EF90089588E090E07F
:101E30000C94AE31AB01BC0188E090E00C94CC3145
:101E4000E4E5F3E083E08083109255038FEF828313
:101E50008383148260817181828193810C941A0F33
:101E60008091540380FF03C086958F73089580E0AE
:101E700008958091580390E001968430910514F004
:101E800083E090E080935803609154037091550370
:101E900080915603909157030C941A0F8091580328
:101EA00090E0019797FF02C080E090E084309105B8
:101EB00014F083E090E08093580360915403709194
:101EC000550380915603909157030C941A0F8091FB
:101ED000540380FF06C06FE070E08DE593E00C9442
:101EE0009B1580E090E0FC01E35AFC4F11821082C8
:101EF000128204968C339105B1F7EDCF9091540383
:101F000090FF0FC020E030E0F901E35AFC4F8183DD
:101F1000608342832C5F3F4F2C333105A9F70C942B
:101F2000670F0895CF93DF9300D000D0CDB7DEB711
:101F30002091540320FF0AC09E012F5F3F4F0E9453
:101F4000A20E4B8169818A810E947E0F0F900F90B3
:101F50000F900F90DF91CF9108955F926F927F92D3
:101F60008F929F92AF92BF92CF92DF92EF92FF92A9
:101F70000F931F93CF93DF9300D000D0CDB7DEB780
:101F80008C01E62EF42E522E8091540380FF89C0DE
:101F9000982F9E77923061F49E012F5F3F4FC801CA
:101FA0000E94A20E4B8169818A810E947E0F59C0D6
:101FB000E82FE695EF739EE39E0F9F73943018F41D
:101FC000F09057034EC09AE39E0F9F73993068F4C8
:101FD000881F8827881F90915503292F220F022FD1
:101FE000082B97FB112710F93CC087E28E0F8F73E7
:101FF0008A30B8F5F0E07997E0FD02C021E001C039
:102000002FEFEE7FE456FA4F859194916FE070E0E8
:102010000E946B3126034001279F900C1124580128
:1020200088E9A81A8EEFB80A8DE5C82E83E0D82E6D
:1020300098E6692E77247394C501B3010E946B3131
:1020400096014F2D6E2D0E94A20EA80CB91C84E0A3
:10205000C80ED11C89E9C81683E0D80669F70E942A
:10206000670F8091540300FB87F980935403902FEE
:102070009695809155038078892B10FB87F9809382
:102080005503E0925603F0925703552051F06091AA
:1020900054037091550380915603909157030E9409
:1020A0001A0F0F900F900F900F90DF91CF911F910B
:1020B0000F91FF90EF90DF90CF90BF90AF909F90E7
:1020C0008F907F906F905F900895282FE4E5F3E064
:1020D0009081991F9927991F30915503832F880F5D
:1020E000482F492B37FB552750F9CA010C9668E653
:1020F00071E00E947F31438162810C94AD0F81E0D9
:102100000C946510282F90915403991F9927991FBB
:1021100030915503832F880F482F492B37FB5527C4
:1021200050F9CA014C3051051CF4845A9E4F01C02D
:102130000C9768E671E00E947F31409157036091EF
:1021400056030C94AD0F81E00C948210E4E5F3E0AB
:102150003081331F3327331F90915503592F550F6B
:1021600097FB992790F9282F43816FEF852F832BB9
:102170000C94AD0F81E00C94A610E4E5F3E03081FF
:10218000331F3327331F90915503592F550F97FB5A
:10219000992790F9282F438160E0852F832B0C9499
:1021A000AD0F81E00C94BD1040915703242F30E017
:1021B000243F310514F4445F01C04FEF30915403C4
:1021C000331F3327331F90915503592F550F97FB1A
:1021D000992790F9282F60915603852F832B0C9413
:1021E000AD0F81E00C94D41040915703242F30E0C0
:1021F0002C30310514F04C5001C040E030915403B4
:10220000331F3327331F90915503592F550F97FBD9
:10221000992790F9282F60915603852F832B0C94D2
:10222000AD0F81E00C94F41021E00C94AD0F20E090
:102230000C94AD0FCF939091540390FF40C09178D0
:10224000811102C0926007C0853210F0986403C00B
:102250008F73880F982B90935403662351F06091ED
:1022600054037091550380915603909157030E9437
:102270001A0FC09154036C2F66956F7370E04BE09A
:1022800050E084E091E00E949931892B19F010927E
:10229000610203C081E080936102CC1FCC27CC1F78
:1022A00090915503892F880F97FB992790F94091BA
:1022B0005703609156038C2BCF910C941711CF913B
:1022C0000895682F9091540396959F7381E0890F2C
:1022D000853208F081E00C941A1181E00C946111B0
:1022E000682F9091540396959F738FEF890F09F48F
:1022F00084E20C941A1181E00C94701161E00C944A
:102300001A11E4E5F3E080818160808386958F7304
:102310000C947E1160E00C941A118091240381606A
:10232000809324030E94B922811104C00E942723B4
:102330000E94200F0E94160F609354037093550360
:1023400080935603909357036E7761F40E94200F99
:102350000E94160F609354037093550380935603A5
:102360009093570381E0809361028091540380FF32
:1023700004C086958F730C948A110895E4E5F3E008
:1023800080818160808386958F730C948A11E4E547
:10239000F3E080818E7F808360817181828193816F
:1023A0000E941A0F109261022FEF80E792E02150F5
:1023B00080409040E1F700C000000C94670F8091CE
:1023C000540380FD0C94C7110C948111CF93C82F36
:1023D00080915F02909160020E944724EC2FF0E010
:1023E000E856FA4FE491F0E08E179F0708F443C0D7
:1023F0000E943B249093600280935F0260915E0292
:1024000070E080E090E00E946C2F20E030E04FE729
:1024100053E40E948F2E2BED3FE049E450E40E94EC
:1024200095300E9402310E94092F2BE43AE34EE2DC
:102430005FE30E94222E20EF3BEF48ED52E40E9422
:1024400095300E943B2F462F80915403881F882788
:10245000881F90915503292F220F97FB992790F9F8
:1024600060915603822B0E94920F80915E0290E051
:10247000019680935E02CF910895CF93C82F8091EB
:102480005C0290915D020E944724EC2FF0E0EB5635
:10249000FA4FE491F0E08E179F07E8F00E943B248A
:1024A00090935D0280935C024091570360915603C4
:1024B00080915A0290915B020E94920F80915A0281
:1024C00090915B02019668E671E00E946B319093F7
:1024D0005B0280935A02CF910895CF92DF92FF92D0
:1024E0000F931F93CF93DF93F82E80915802909112
:1024F00059020E944724EF2DE695F0E0EE56FA4F80
:10250000E491F0E08E179F07E8F10E943B2490933E
:102510005902809358020DE513E0C0E0D0E088E650
:10252000C82EDD24D39480915602909157028C0FCF
:102530009D1FB6010E946B31980140915703609135
:1025400056030E94A20E68960C5F1F4FC83681E0AA
:10255000D80749F70E94670F209156023091570221
:10256000F0FE0AC0C9010196BE010E946B31909332
:1025700057028093560206C021503109309357020A
:1025800020935602DF91CF911F910F91FF90DF9022
:10259000CF900895AF92BF92CF92DF92EF92FF92C9
:1025A0000F931F93CF93DF93C82F80FF02C01FEFBD
:1025B00001C011E080915402909155020E9447247D
:1025C000C695EC2FF0E0E157FA4FE491F0E08E175A
:1025D0009F0708F466C00E943B24909355028093A5
:1025E00054022DE5C22E23E0D22E3FE5E32E33E048
:1025F000F32EC0E0D0E0F70131971082F60110828F
:10260000F701108294E0A92EB12C00E080915302D2
:10261000800F87FD815F082E000C990BC817D90722
:10262000E9F4809157038A9DA0018B9D500D1124E0
:10263000559547955595479580915403881F882750
:10264000881F90915503592F550F97FB992790F9A3
:10265000960160915603852B0E94A20E010FF1E0B6
:10266000AF1AB10899F6219684E0C80ED11CE4E0B7
:10267000EE0EF11CCF30D10509F0BDCF0E94670FDF
:1026800080915302113031F4811102C08EE007C0F5
:10269000815005C090E00196BE010E947F31809379
:1026A0005302DF91CF911F910F91FF90EF90DF9038
:1026B000CF90BF90AF9008950F931F93CF93DF9368
:1026C000C82F80915102909152020E944724EC2F12
:1026D000F0E0E457FA4FE491F0E08E179F0708F41A
:1026E00064C00E943B24909352028093510280E088
:1026F00090E0FC01E35AFC4F118210821282049692
:102700008C339105B1F7C0E0D0E00FE010E0CE01CE
:10271000B8010E947F31FC0180915002082E000C0C
:10272000990BEE0FFF1FEE0FFF1FC817D907FCF024
:1027300080910301082E000C990B8C179D07BCF0AB
:102740009F01235A3C4F80915403881F8827881F7C
:1027500090915503592F550F97FB992790F9409168
:10276000570360915603852B0E94A20E05C0E35AC1
:10277000FC4F1182108212822196CF30D10539F69A
:102780000E94670F8091020190915002980F9093E0
:10279000500220910301280F20930301121614F414
:1027A0009E301CF0819580930201DF91CF911F91A3
:1027B0000F910895EF92FF920F931F93CF93DF93A2
:1027C00080914E0290914F020E944724883E934090
:1027D000D0F10E943B2490934F0280934E02C0910F
:1027E0004C02D0914D022196C170DD27D0934D024D
:1027F000C0934C028DE5E82E83E0F82E10E008E748
:10280000812F8695FE01E80FF11DCF018170992778
:1028100097014091570360915603FC010E9FC00140
:102820000F9F900D11240E94A20E1F5FF4E0EF0E87
:10283000F11C1F3029F7DF91CF911F910F91FF906D
:10284000EF900C94670FDF91CF911F910F91FF9044
:10285000EF900895CF93DF9300D000D0CDB7DEB7CF
:1028600080914A0290914B020E944724EAE8F5E0E9
:102870002591349182179307C0F18091490281110B
:102880000CC09E012F5F3F4F4FEF6FEF80E090E055
:102890000E94A20E8A81809349020E943B24909359
:1028A0004B0280934A0280914802813051F028F017
:1028B000823061F4409149020AC08091490240E0AF
:1028C00007C06091490240E080E003C040E080E042
:1028D00060E00E947E0F8091480290E0019663E0E4
:1028E00070E00E947F31809348020F900F900F900C
:1028F0000F90DF91CF9108950F931F93CF93DF93A4
:1029000080914602909147020E944724843F914063
:1029100008F448C00E943B249093470280934602EB
:10292000CDE5D3E000E010E0209144023091450273
:102930008091540390915503073011051CF4232B0B
:1029400079F002C0232B61F4881F8827881F592F34
:10295000550F97FB992790F99E01409157030AC0A4
:10296000881F8827881F592F550F97FB992790F9A3
:102970009E0140E060915603852B0E94A20E0F5FDE
:102980001F4F24960F30110579F60E94670F809132
:1029900044029091450201968170992790934502D7
:1029A00080934402DF91CF911F910F910895809100
:1029B00061028823D9F190915403892F86958F73F2
:1029C0002EE3280F2F73243018F482500C94E61154
:1029D0002AE3280F2F73233018F486500C943D12ED
:1029E00027E3280F2F73263018F489500C946D12AA
:1029F00021E3280F2F73263018F48F500C94CA123D
:102A00002BE2280F2F73233018F485510C945C139C
:102A1000892F8E77803311F40C94DA13863411F4F5
:102A20000C942A14883411F40C947C14089588238F
:102A300019F05198599A02C0519A59985098589A39
:102A400095E09A95F1F70000509A589895E09A957C
:102A5000F1F70000882311F0519A599885E08A9582
:102A6000F1F7000008958BB18C7F8BB95098589A7C
:102A70005198599A85E08A95F1F7000008958AB136
:102A80008C7F8AB985E08A95F1F70000519A5998B0
:102A900085E08A95F1F70000509A589885E08A956C
:102AA000F1F7000008955098589A85E08A95F1F75B
:102AB00000005198599A85E08A95F1F70000089531
:102AC000CF93DF93D82FC8E08D2F80780E94171501
:102AD000DD0FC150C9F780E00E94171585E08A9587
:102AE000F1F7000085E08A95F1F7000080E0DF91C2
:102AF000CF9108952BB1342F309523233BB1432B35
:102B00003FB7F894FC01680F791FE617F70789F0C3
:102B1000819198E04BB9000000C087FF2BB9880F66
:102B2000000000C000C000C02BB900C09A9591F70A
:102B3000ECCF3FBF0895AF92BF92CF92DF92EF925A
:102B4000FF920F931F93CF93DF938C01EB01CFB6CE
:102B5000D090BC00F8948091BC008B7F8093BC0027
:102B60000E9433150E943F1584E80E946015CC0F27
:102B7000DD1FCC0FDD1F78015801AC0EBD1EEA141D
:102B8000FB0431F0F70181917F010E946015F7CFBE
:102B90000E945315CFBED092BC00579A40E8BE01A8
:102BA000C801DF91CF911F910F91FF90EF90DF90BF
:102BB000CF90BF90AF900C947A159093670280935A
:102BC00066020895E0916602F0916702309721F065
:102BD0000190F081E02D099480E00895E091660273
:102BE000F0916702309799F020912001222359F04B
:102BF00020919F0327FF07C0DC012C9111962C9395
:102C0000119725E02C930280F381E02D099408951B
:102C1000E0916602F0916702309739F022E0DC0122
:102C20002C930480F581E02D09940895209164028D
:102C3000309165028217930771F09093650280933B
:102C40006402E0916602F0916702309721F00680FD
:102C5000F781E02D0994089520916202309163027A
:102C60008217930771F09093630280936202E09160
:102C70006602F0916702309721F00084F185E02D23
:102C80000994089585B7806885BF85B7806885BF3A
:102C9000089508950E9442160C94491681E0089503
:102CA0000E9432240E94A6040E94C9240C948D1113
:102CB000CF92DF92EF92FF920F931F93CF93DF9308
:102CC000CDB7DEB72B970FB6F894DEBF0FBECDBFE2
:102CD0000E9478050E944E16811111C08FEF8983E2
:102CE0008A831B820E943B248160782F9D838C8382
:102CF00049815A816B818D810E943C1756C089E6BB
:102D0000C82E82E0D82E00E010E0E02E802F0E9436
:102D1000C005F60141916F01F42EF82631F40F5FE2
:102D20001F4F0E30110589F7D9CF9091240391FFE1
:102D300004C08B870E94C6058B8520E030E04F2DB4
:102D400050E0922FBA01022E02C0759567950A9441
:102D5000E2F760FF24C02E83EF8221E030E06901BA
:102D600002C0CC0CDD1C9A95E2F790E08C219D21ED
:102D7000892B09F420E028870E943B248160782F6A
:102D80009A8789874E815F8168858A850E943C1772
:102D9000F801E759FD4F8081C826C08206C02F5F29
:102DA0003F4F2630310569F6BACF0E945C2610915C
:102DB00068020E94E2151817A1F00E94E2158093A4
:102DC00068022B960FB6F894DEBF0FBECDBFDF9121
:102DD000CF911F910F91FF90EF90DF90CF900C94C7
:102DE000B7082B960FB6F894DEBF0FBECDBFDF91AC
:102DF000CF911F910F91FF90EF90DF90CF900895AA
:102E0000DC0111962C9111978C91682F70E041E0B4
:102E100050E001C0440F8A95EAF712968C91129700
:102E200030E0882329F0809187028823E9F006C0EA
:102E3000F901E958FD4F90819423B1F086E0829F1B
:102E4000F001839FF00D1124E60FF71FEE0FFF1F17
:102E5000EF5DFE4F808191818D939C93F901E9583C
:102E6000FD4F8081482B06C0F901E958FD4F409580
:102E70008081482340830895CF93DF93CDB7DEB799
:102E80002B970FB6F894DEBF0FBECDBF942F4F83A4
:102E9000252F588769877A878B874A855B85452BDD
:102EA00021F02F3F09F59F3FF9F4DE01119686E0EE
:102EB000FD0111928A95E9F785E0FE0137960190B0
:102EC0000D928A95E1F749815A816B817C818D81D0
:102ED0009E810E94CD1E2B960FB6F894DEBF0FBECA
:102EE000CDBFDF91CF910895CE0107960E940017C4
:102EF000DCCFFC01808191810E94982192959F7086
:102F0000963041F48091870291E08927809387026F
:102F1000909386020895882309F41AC18238C1F477
:102F20000E94E21581FD14C169E380910F01909127
:102F300010010E948E230E94F7212FEF81EE94E072
:102F4000215080409040E1F700C0000069E319C0C3
:102F50008338F9F40E94E21580FDFAC063E58091A0
:102F60000F01909110010E948E230E94F7212FEFF4
:102F700081EE94E0215080409040E1F700C00000D5
:102F800063E580910F01909110010E9499230C94A8
:102F9000F7218438C1F40E94E21582FDD9C067E4AC
:102FA00080910F01909110010E948E230E94F721C1
:102FB0002FEF81EE94E0215080409040E1F700C077
:102FC000000067E4DECF9CEF980F913A40F4682F41
:102FD00080910F01909110010E948E23D8CF90E232
:102FE000980F983050F4877091E001C0990F8A953E
:102FF000EAF7892F0E942D22CACF9BE5980F9330C4
:1030000070F4853A29F0863A31F083E890E005C003
:1030100081E890E002C082E890E00C94161698E5F2
:10302000980F973108F08EC0883A09F445C0893A64
:1030300009F445C08A3A09F445C08B3A09F445C001
:103040008C3A09F445C08B3B09F445C08C3B09F42C
:1030500045C08D3A09F445C0803B09F445C08E3A1D
:1030600009F445C08F3A09F445C0813B09F445C0D5
:10307000823B09F445C0833B09F445C0843B09F415
:1030800045C0853B09F445C0863B09F445C0873BF4
:1030900009F445C0883B09F445C0893B09F445C0A3
:1030A0008D3B09F445C08E3B09F445C08A3B09F4C9
:1030B00045C080E090E044C082EE90E041C089EEDF
:1030C00090E03EC08AEE90E03BC085EB90E038C0D7
:1030D00086EB90E035C083EB90E032C084EB90E06B
:1030E0002FC087EB90E02CC08CEC90E029C08DECD9
:1030F00090E026C083E891E023C08AE891E020C0F8
:1031000082E991E01DC084E991E01AC081E292E079
:1031100017C083E292E014C084E292E011C085E21D
:1031200092E00EC086E292E00BC087E292E008C017
:103130008FE690E005C080E790E002C08AE292E06E
:103140000C942C16803F20F00E9464250C9451268C
:103150000895882309F464C0823879F40E94E21546
:1031600081FF5EC069E380910F01909110010E9480
:103170008E230E94F72169E310C08338B1F40E94C6
:10318000E21580FF4DC063E580910F019091100121
:103190000E948E230E94F72163E580910F01909198
:1031A00010010E9499230C94F721843879F40E942D
:1031B000E21582FF35C067E480910F019091100104
:1031C0000E948E230E94F72167E4E7CF9CEF980FBF
:1031D000913A10F4682FE1CF90E2980F983050F4B4
:1031E000877091E001C0990F8A95EAF7892F0E94B4
:1031F0003322D9CF9BE5980F933020F480E090E004
:103200000C94161698E5980F973120F480E090E022
:103210000C942C16803F20F00E94CC250C94512653
:103220000895CF93C82F0E948B178C2FCF910C94A9
:10323000A918882321F00E942D220C94F7210895CB
:10324000882321F00E9433220C94F72108958F9255
:103250009F92AF92BF92DF92EF92FF920F931F93D4
:10326000CF93DF937C01D62FC72FFC0105810295F8
:103270000F70128111110E944D220E94F0218823AB
:1032800079F0112369F080E28D0F883048F082E0F8
:103290000E94D9210E94F02191E0D82ED92601C0A8
:1032A000D12CAC2EA2948FE0A822B12CF501EA58C3
:1032B000FF4F0C9493318C2F807FCF70882311F0B7
:1032C000C295C07F112399F0CC2309F4C8C180E2D4
:1032D0008D0F883010F0D11104C08C2F0E942D2248
:1032E00003C08C2F0E9440220E94F721B8C18D2F6D
:1032F0000E94A918CC2309F42EC280E28D0F8830D9
:1033000010F0D11104C08C2F0E94332203C08C2FE7
:103310000E9446220E94F7211EC28C2F807FCF7010
:10332000803211F0C295C07FDD2319F0D130C9F091
:1033300021C0112371F0002341F0013031F40E94CB
:1033400066228C2B0E94602206C20E9466228C2B71
:103350003FC1002319F0013009F4FDC10E9463222E
:1033600011C0112321F0023008F0F5C107C001118E
:10337000F2C108C0112321F0011171C18C2F28C1A5
:1033800001117EC18C2F2AC18C2F86958695837062
:1033900090E0009719F0019761F0DDC1112321F051
:1033A0008D2F9C2F937002C080E090E00E94161633
:1033B000E2C1112321F08D2F9C2F937002C080E079
:1033C00090E00E942C16D7C11123F9F0D53F51F09F
:1033D000D63F71F0D43FA9F48091990390919A035C
:1033E00081600BC08091990390919A03826005C01F
:1033F0008091990390919A03846090939A038093AB
:1034000099038D2F0E9464251EC0D53F51F0D63FF1
:1034100071F0D43FA9F48091990390919A038E7F23
:103420000BC08091990390919A038D7F05C0809184
:10343000990390919A038B7F90939A0380939903B9
:103440008D2F0E94CC250E94512695C18C2F837010
:1034500009F050C011118BC18D2F82958695877010
:10346000880F880F9D2F9F70892E912CA12CB12C35
:10347000082E04C0880C991CAA1CBB1C0A94D2F705
:10348000D4FF14C00FE010E020E030E0B901A80143
:1034900004C0440F551F661F771F8A95D2F7CB01D2
:1034A000BA01609570958095909503C060E070E0DA
:1034B000CB01C695C695C370D0E0C230D10561F08E
:1034C000C330D10581F0682979298A299B29219760
:1034D00071F00E9412204BC1682979298A299B2901
:1034E0000E94242044C10E941220C501B4010E9400
:1034F00000203DC1112319F08C2F817001C08695E9
:10350000882309F434C18D2F829586958770880FA2
:10351000880F9D2F9F70892E912CA12CB12C082EE5
:1035200004C0880C991CAA1CBB1C0A94D2F7D4FFB7
:1035300014C00FE010E020E030E0B901A80104C0A1
:10354000440F551F661F771F8A95D2F7CB01BA012A
:10355000609570958095909503C060E070E0CB0118
:10356000C695C695C3704C2F50E04230510569F0A6
:103570004330510589F0682979298A299B294130EE
:10358000510571F00E94D720F2C0682979298A2953
:103590009B290E94E920EBC00E94D720C501B401FD
:1035A0000E94C520E4C08D2F90E0FC01E05EF1098F
:1035B000E531F10508F04FC0EA57FF4F0C94933105
:1035C000DF708C2F8F71112331F00E945E208D2FC0
:1035D0000E941919C0C00E947F208D2F0E942019BF
:1035E000BAC0112339F00111B6C08C2F8F710E941F
:1035F000A420B1C0023008F0AEC0F7CF112339F0DB
:103600008C2F8F710E945E20A6C01123C9F38C2FCE
:103610008F710E947F209FC0112329F08C2F8F7102
:103620000E94492098C00E94442095C0112349F06F
:10363000CF718C2F0E945E2063E08C2F0E94D021DE
:103640008AC081E00E94D921023008F484C082E05F
:103650000E94D92180C0112331F0002389F28D2FDF
:103660000E948B1778C0002391F2D93349F45FEFA1
:1036700067EE73E0515060407040E1F700C0000019
:103680008D2F0E94A91867C04C2F4F706D2FC70156
:103690000E9486070E94711F6EC0D23FB1F028F4CD
:1036A000D03F49F0D13FF9F028C0D43FB9F058F0ED
:1036B000D53F71F022C0112309F447C090918702D1
:1036C00081E0892708C081E01827109387023DC058
:1036D00011113BC081E08093870237C0111135C0C2
:1036E0001092870232C0112329F08091860288232C
:1036F00029F329C0002311F328C0809186020023FA
:10370000C1F0882341F09091870281E0892780935E
:103710008702109286028D2F112319F00E948B17B9
:1037200014C00E94A91886E0F70111928A95E9F762
:103730000CC0882351F0111108C09091870281E0DC
:10374000892780938702109286024C2F4F706D2F2D
:10375000C7010E94630BF8E0AF16B10441F05CF0C2
:103760004AE0A41AB10852E0A516B10420F40E9460
:10377000E2150E94B708DD20E1F00E94CC2180FD17
:1037800018C0F70112820E94C6210E945E20C70164
:103790000E94E51B0E94C621DF91CF911F910F91DE
:1037A000FF90EF90DF90BF90AF909F908F900C9420
:1037B0007F20DF91CF911F910F91FF90EF90DF90CD
:1037C000BF90AF909F908F9008950F931F93CF93CA
:1037D000DF93EC01888199812B813C81232BB9F007
:1037E0009F3F11F48F3F99F0CE010E94C9088823B2
:1037F00071F0688179818A810E94A3218C010E94E5
:10380000FB200E94FD1FB801CE010E942719DF9105
:10381000CF911F910F9108950E944D220E945D2229
:103820000E94F7210E94F7260E94512680E090E036
:103830000E94161680E090E00C942C1680910F01E7
:10384000909110010E94A4230C940C1C0E943D2214
:103850000C941E1C0E949821E92FE295EF70F0E075
:103860003297EE30F105B0F4E556FF4F0C949331EA
:10387000803F91F018F4803E68F40EC0843F51F40C
:103880000BC0803E48F0813F29F406C093FB882797
:1038900080F9089580E0089581E00895CF93DF9343
:1038A00000D000D01F92CDB7DEB70F900F900F90D1
:1038B0000F900F90DF91CF910895CF93DF9300D0B9
:1038C00000D000D0CDB7DEB726960FB6F894DEBF95
:1038D0000FBECDBFDF91CF9108951F93CF93DF939C
:1038E000C091880216E080918902C81799F0D0E053
:1038F0001C9FF0011D9FF00D1124E657FD4F4081E4
:10390000518162817381848195810E945D1C219621
:10391000C770E9CFDF91CF911F9108954091BA020E
:103920005091BB026091BC027091BD028091BE02B9
:103930009091BF020C945D1C8091BF0282958F70A4
:1039400009F054C08091BC02882309F44FC08091D3
:103950008802A09189026091BA027091BB024091E5
:10396000BD025091BE02B6E08A1709F43FC090E054
:1039700041155105C1F17F3F11F46F3FA1F1B89F8F
:10398000F001B99FF00D1124E657FD4F218172130C
:103990002AC02081621327C02281211124C02381E3
:1039A00034812417350710F421503109241B350BBD
:1039B000283C3105C0F42091BF022F702061209374
:1039C000BF0226E0289FF001299FF00D1124E15746
:1039D000FD4F80818F70806180838AEB92E00E942E
:1039E000E51B0C946D1C01968770BECF0895CF9295
:1039F000DF92EF92FF920F931F93CF93DF93CDB798
:103A0000DEB762970FB6F894DEBF0FBECDBF8C0154
:103A100085E0F801DE011D9601900D928A95E1F78F
:103A2000D8014C9111965C91119712966C91129756
:103A30001396CD90DC9014973091BA027091BB022E
:103A40008091BD029091BE02009709F46BC17F3F47
:103A500019F43F3F09F466C1E090BC02EE2009F47E
:103A6000C0C02091BF02C816D90628F0F601E81B95
:103A7000F90BCF0104C0809590958C0D9D1DFF24FE
:103A8000F394883C910578F0F12C207F09F0C6C0B2
:103A90007C2DD98AC88A89890E944E1C8AEB92E0C3
:103AA0000E94E51BB1C0822F807F09F046C07513CC
:103AB00014C0341312C0611110C02F702061209304
:103AC000BF020E948E1C8AEB92E00E94E51B80914F
:103AD000BF02D80115968C932EC0CD2819F15F3FF7
:103AE00011F44F3FF9F0F62E61111CC0809188024D
:103AF0002091890236E0821709F45AC090E0389F7D
:103B0000F001399FF00D1124E657FD4F71815713D5
:103B100006C07081471303C07281711103C0019602
:103B20008770E9CFF62E662309F427C18091BF0282
:103B300081608093BF02F12C20C1751308C034133B
:103B400006C0611104C08091BF02D801C3C04D8777
:103B50005E878D859E856A8B0E942A1C6A898823D0
:103B6000E1F16623D1F12091BF02822F82958F70FF
:103B700090E0029774F08091BA029091BB0298870E
:103B80008F831986DB86CA862C87CE0107960E9412
:103B9000E51B86E0F801AAEBB2E001900D928A9550
:103BA000E1F70E949C1C0E948E1CFF24F394E5C048
:103BB0004D875E878D859E850E949821292F2295AD
:103BC0002F7030E0223031050CF0CBC09F7009F02F
:103BD000C5C0805E883008F4D0C0C8010E94E51BD3
:103BE000E4CFC816D90608F453C0F601E81BF90B58
:103BF000CF01883C910508F450C0F12C7C2DD98A66
:103C0000C88A89890E944E1CEAEBF2E086E0DF0157
:103C10001D928A95E9F70E948E1CAFC0751314C0DF
:103C2000341312C0611110C08091BF02F801858366
:103C3000C8010E94E51B86E0EAEBF2E0DF011D927D
:103C40008A95E9F7FE2C99C04D875E878D859E8504
:103C50006A8B0E942A1C6A89882309F4BECF6623D6
:103C600009F4BBCF2091BF02822F82958F7090E024
:103C700002970CF48ECF8091BA029091BB029A8386
:103C800089831B82DD82CC822E83CE0101967FCF79
:103C9000809590958C0D9D1DACCFF62E662309F472
:103CA0009CCF75132EC034132CC02091BF0220FD71
:103CB0001FC0822F82958F70D9F0D80115962C9352
:103CC00015978F3049F08F5F982F9295907F822FB4
:103CD0008F70892B15968C93C8010E94E51B86E096
:103CE000F801AAEBB2E001900D928A95E1F793CF2B
:103CF00086E0F801AAEBB2E001900D928A95E1F717
:103D00003CC04D875E878D859E850E942A1C81114F
:103D100040CF8091BF0281608093BF02C8010E94A2
:103D2000E51B2BC0662309F458CF4D875E878D8530
:103D30009E850E942A1CF82E882309F44ECF86E027
:103D4000F801AAEBB2E001900D928A95E1F78AEBB7
:103D500092E00E9479170E949C1C5DCF811139CF9F
:103D60000CC0243031050CF038CF9F7009F431CFEE
:103D7000F8019581907F09F02CCF8F2D62960FB6B8
:103D8000F894DEBF0FBECDBFDF91CF911F910F9191
:103D9000FF90EF90DF90CF9008951F93CF93DF9324
:103DA000CDB7DEB72C970FB6F894DEBF0FBECDBFF0
:103DB0004F83588769877A878B879C87CE010796C0
:103DC0000E94F71C882369F08F8198852A853B859E
:103DD000232BF1F19F3F09F063C08F3F09F060C0D2
:103DE00037C086E0FE013796DE01119601900D92F4
:103DF0008A95E1F76F817885EA85FB85309741F1F7
:103E00007F3F11F46F3F21F12091890230E0C90119
:103E10000196877099274091880250E08417950792
:103E200009F447C069837A83FD83EC8396E0929F0F
:103E3000D001939FB00D1124A657BD4FFE013196BE
:103E400001900D929A95E1F7809389020E946D1C72
:103E500016E080918802909189028917C1F1189F1C
:103E6000C001112486579D4F0E94F71C882379F1C9
:103E7000E09188021E9FF0011124E657FD4F40811A
:103E8000518162817381848195810E945D1C809142
:103E9000880290E001968770992780938802D9CF95
:103EA0004F81588569857A858B859C850E945D1C2C
:103EB000CFCF0E94261C1092890210928802EAEB52
:103EC000F2E086E0DF011D928A95E9F7C1CF2C96DA
:103ED0000FB6F894DEBF0FBECDBFDF91CF911F911B
:103EE0000895EF92FF920F931F93CF93DF938C016E
:103EF000892B09F46CC0F12CEE24E394E80121969F
:103F0000F8018491843740F4843008F051C0813046
:103F100081F0823019F15BC0853709F444C0A8F103
:103F20009CE7980F903708F052C08F770E94A9182D
:103F300041C00E5F1F4FFE01C49180E28C0F88309C
:103F400048F4C7708E2D01C0880FCA95EAF70E9409
:103F5000502214C08C2F0E948B172DC00E5F1F4F54
:103F6000FE01C49180E28C0F883058F4C7708E2D0A
:103F700001C0880FCA95EAF70E9456220E94F721D5
:103F80001AC08C2F0E94A91816C00E5F1F4FFE0189
:103F9000C491CC2381F08FE99FE00197F1F700C035
:103FA0000000C150F6CF0E5F1F4FFE01F49003C01A
:103FB0000E948B178E018F2D882309F49FCFEFE984
:103FC000FFE03197F1F700C000008150F5CFDF919D
:103FD000CF911F910F91FF90EF90089508950C9449
:103FE000EE1F0E94EF1F6093FB027093FC02809310
:103FF000FD029093FE020C940C1C08950C94F11F8A
:104000000F931F930091FB021091FC022091FD027F
:104010003091FE02602B712B822B932B1F910F91FD
:104020000C94F11F0F931F930091FB021091FC025F
:104030002091FD023091FE0260237123822393239D
:104040001F910F910C94F11F0F931F930091FB028E
:104050001091FC022091FD023091FE026027712731
:10406000822793271F910F910C94F11F0C94AD0799
:104070000E9436206093F7027093F8028093F90251
:104080009093FA020C940C1C60E070E0CB010C944D
:1040900038200F931F9341E050E060E070E08A0108
:1040A0009B0104C0000F111F221F331F8A95D2F7F6
:1040B000C901B8011F910F910C9438200F931F93E1
:1040C00041E050E060E070E004C0440F551F661FFF
:1040D000771F8A95D2F78091F7029091F802A0910C
:1040E000F902B091FA028A019B01082B192B2A2BA5
:1040F0003B2BC901B8011F910F910C9438200F93ED
:104100001F9341E050E060E070E004C0440F551F91
:10411000661F771F8A95D2F74095509560957095E8
:104120008091F7029091F802A091F902B091FA0201
:104130008A019B01082319232A233B23C901B801C3
:104140001F910F910C9438200F931F9341E050E082
:1041500060E070E004C0440F551F661F771F8A950A
:10416000D2F78091F7029091F802A091F902B091F4
:10417000FA028A019B01082719272A273B27C90130
:10418000B8011F910F910C9438200F931F93009149
:10419000F7021091F8022091F9023091FA02602B97
:1041A000712B822B932B1F910F910C9438200F931E
:1041B0001F930091F7021091F8022091F9023091BB
:1041C000FA0260237123822393231F910F910C9491
:1041D00038200F931F930091F7021091F80220915D
:1041E000F9023091FA0260277127822793271F91E5
:1041F0000F910C9438200895292F220F920F990FB8
:10420000890FA82FA695A695A695877051E001C0A5
:10421000550F8A95EAF785E0A89FD001112420E088
:1042200030E070E0F901EA0FFB1FE054FD4F4081E0
:10423000CB01022E02C0969587950A94E2F7817011
:104240009927819584278523842780832F5F3F4F7B
:104250002530310539F70895292F220F920F990F34
:10426000890F682F669566956695982F977085E0FB
:10427000689FB001112440E050E080E0FA01E60FB1
:10428000F71FE054FD4F208130E0092E02C0369523
:1042900027950A94E2F721703327042E01C0220FDC
:1042A0000A94EAF7822B4F5F5F4F4530510531F793
:1042B0000895CF92DF92EF92FF920F931F93CF93C7
:1042C000DF938C01C090FB02D090FC02E090FD02D5
:1042D000F090FE028091F7029091F802A091F9020D
:1042E000B091FA02C82AD92AEA2AFB2ACFE1D0E003
:1042F000D701C6010C2E04C0B695A7959795879552
:104300000A94D2F780FF06C0B8018C2F0E947E0B62
:10431000019721F4219760F780E001C08C2FDF9195
:10432000CF911F910F91FF90EF90DF90CF90089564
:10433000CF93DF93EC010E945921BE010E947E0BB6
:10434000DF91CF9108951F93CF93DF93EB0190916D
:104350008502992321F0CB010E94982113C0882364
:1043600049F0CB010E945921182F682FCE010E94DD
:10437000FC2004C0CB010E942C21182FBE01812FEC
:104380000E947E0BDF91CF911F9108958091FF02D3
:1043900085958595859508958091FF02877008958C
:1043A00098E0899F90011124262B2093FF020C9402
:1043B0005E202091FF02809582238093FF02982F38
:1043C000977069F430E0482F082E000C550B241725
:1043D000350729F08595859585950C947F2008955E
:1043E0009091FF02977081E009F480E00895E091D8
:1043F0000F01F0911001809123038083E0910F0160
:10440000F0911001908180912203892B8083E091AB
:104410000F01F0911001908180912103892B8083FD
:1044200080910003882381F0E0910F01F091100149
:104430009081892B808380910F01909110010E94BF
:10444000292381111092000380910F019091100196
:104450000C94EE1580912303089590912303892BEA
:10446000809323030895809590912303892380935B
:10447000230308958093230308951092230308953E
:1044800090912203892B8093220308958095909127
:104490002203892380932203089510922203089512
:1044A00090912103892B8093210308958095909109
:1044B00021038923809321030895109221030895F5
:1044C00080930003089510920003089580910003E3
:1044D0000895CF92DF92EF92FF926C01EE24FF24B9
:1044E000C114D104E104F10421F0C701B60120E1B7
:1044F00001C020E0C72ED82EE92EFF24C114D1041C
:10450000E104F10419F0285FC701B6016B017C01D9
:1045100054E0F694E794D794C7945A95D1F7C11410
:10452000D104E104F10419F02C5FC701B6016B015D
:104530007C0142E0F694E794D794C7944A95D1F76A
:10454000C114D104E104F10419F02E5FC701B601D2
:10455000DC01CB01B695A79597958795892B8A2B7A
:104560008B2B09F02F5F822FFF90EF90DF90CF9081
:10457000089580E090E00E94B43121E08D3E9E4F8E
:1045800009F020E0822F089582E090E00C94A6319B
:1045900083E090E00C94A63184E090E00C94A63186
:1045A000682F84E090E00C94BA31AB01BC018FE03D
:1045B00090E00C94CC31AB01BC0183E190E00C9411
:1045C000CC3160E070E0CB010C94DB2260E070E065
:1045D000CB010E94D5220C94E1226DEE7EEF80E0AB
:1045E00090E00E94D83160E082E090E00E94BA3111
:1045F00060E083E090E00E94BA311092FB021092DA
:10460000FC021092FD021092FE0260E084E090E055
:104610000E94BA3160E085E090E00E94BA3160E02B
:1046200086E090E00E94BA316FEF87E090E00E9450
:10463000BA3140E050E0BA0188E090E00E94CC310D
:1046400060E08DE090E00E94BA310C94E6220C9478
:10465000ED22FC01329680912001882331F0809177
:104660009F0387FF02C09EE101C096E080E0915069
:1046700028F021912223D9F38F5FF9CF08959C016F
:10468000FC0132969FEF80E04191461789F09F3FF1
:1046900019F4411101C0982F8F5F8630A9F79F3F11
:1046A00039F0F901E90FF11D97FDFA95628308953C
:1046B0000895FC01329608962081261301C01082CD
:1046C0003196E817F907C1F70895262F2695269504
:1046D00026952E3168F4FC01E20FF11D677021E090
:1046E00030E001C0220F6A95EAF78281282B2283ED
:1046F0000895262F2695269526952E3170F4FC01D7
:10470000E20FF11D677021E030E001C0220F6A95D1
:10471000EAF72095828128232283089520912001A1
:10472000222329F020919F0327FD0C9465230C94EC
:104730003F2320912001222329F020919F0327FD70
:104740000C9479230C94592320912001FC0132967A
:10475000222331F080919F0387FF02C08EE101C0C8
:1047600086E0DF011D928A95E9F7089508950C947B
:10477000B6230E94B7238091A503843049F110929B
:10478000250320E488E190E00FB6F894A895809383
:1047900060000FBE2093600080E00E94B7080E9476
:1047A000B72383B7817F846083BF83B7816083BF72
:1047B0007894889583B78E7F83BF0FB6F894A895B9
:1047C00080916000886180936000109260000FBE4D
:1047D00008950895CF930E94CF040E9478050E9407
:1047E000E923C0E08C2F0E94C005811104C0CF5F77
:1047F000CE30C1F701C081E0CF91089508950C94A7
:10480000FE230E94261C0E94E2150E94B7080C9409
:10481000FF231F920F920FB60F9211248F939F9335
:10482000AF93BF9380912503811113C080919B03A7
:1048300090919C03A0919D03B0919E034196A11D70
:10484000B11D80939B0390939C03A0939D03B09311
:104850009E03BF91AF919F918F910F900FBE0F90CC
:104860001F90189582E084BD93E095BD9AEF97BDA7
:1048700080936E0008952FB7F89480919B039091D8
:104880009C03A0919D03B0919E032FBF0895CF92EA
:10489000DF92EF92FF920F931F932FB7F8944091FE
:1048A0009B0350919C0360919D0370919E032FBFC9
:1048B0006A017B01EE24FF248C0120E030E0C01669
:1048C000D106E206F30610F4415051099A01281B63
:1048D000390BC9011F910F91FF90EF90DF90CF909E
:1048E000089578941F920F920FB60F9211248F9310
:1048F0009F93AF93BF9380919B0390919C03A09152
:104900009D03B0919E030196A11DB11D80939B0351
:1049100090939C03A0939D03B0939E03BF91AF918E
:104920009F918F910F900FBE0F901F901895F89444
:1049300081E08093E00080E28093D800E9ECF0E031
:1049400010828FE19EE40197F1F700C000001DBACC
:10495000109268001CBC10BE1FBA10927A00109210
:104960006E0010926F00109271001092720010820F
:10497000ECEBF0E0108214B817B81AB81DB810BAF2
:10498000108215B818B81BB81EB811BA0C94003FA5
:1049900008950E94B922811102C00E9427230E941B
:1049A000C422809324030E94CC2290E09093A00321
:1049B00080939F030E94C822682F70E080E090E0FF
:1049C0000C94FE1F8091290380FF0BC0609114019D
:1049D00085E0689FB0011124759567957595679579
:1049E0002BC081FF09C06091140185E0689FB00170
:1049F00011247595679520C082FF07C0609114014E
:104A000085E0689FB001112417C090912A03992373
:104A1000D1F060911301961788F72091140185E079
:104A2000289F90011124929FA001939F500D112463
:104A300070E0CA010E947F316038710540F4611551
:104A4000710539F002C065E070E0862F08958FE7A8
:104A5000089581E008958091290380FF08C0609146
:104A6000120170E0759567957595679521C081FF76
:104A700006C06091120170E07595679519C082FFBC
:104A800004C06091120170E010C090912A03992334
:104A9000C1F0609111019617A0F780911201899FD2
:104AA000C001112470E00E947F316038710528F444
:104AB0006115710521F0862F08958FE7089581E033
:104AC000089561E070E0F4CF803F21F40E94E22479
:104AD000819504C0813F29F40E94E22480932E0333
:104AE0000895823F21F40E94E224819504C0833F0F
:104AF00029F40E94E22480932D030895893F19F43C
:104B00000E942B2505C08A3F31F40E942B258195F8
:104B100080932F0308958B3F21F40E942B258195CC
:104B200004C08C3F29F40E942B2580933003089504
:104B3000843F21F480912C03816017C0853F21F4CC
:104B400080912C03826011C0863F21F480912C0358
:104B500084600BC0873F21F480912C03886005C0DE
:104B6000883F31F480912C03806180932C03089559
:104B70008D3F21F48091290381600BC08E3F21F489
:104B800080912903826005C08F3F29F48091290319
:104B90008460809329030895803F39F480912E0327
:104BA00087FF6CC010922E0369C0813F29F4809169
:104BB0002E031816BCF362C090912D03823F29F496
:104BC00097FF5CC010922D0359C0833F19F419164A
:104BD000CCF354C0893F41F480912F0318160CF098
:104BE0004DC010922F034AC08A3F29F480912F03B1
:104BF00087FF44C0F6CF8B3F39F48091300387FFA5
:104C00003DC0109230033AC08C3F29F480913003AC
:104C10001816BCF333C0843F21F480912C038E7F9F
:104C200017C0853F21F480912C038D7F11C0863FF2
:104C300021F480912C038B7F0BC0873F21F480915E
:104C40002C03877F05C0883F31F480912C038F7E31
:104C500080932C0313C08D3F21F4809129038E7F14
:104C60000BC08E3F21F4809129038D7F05C08F3FBB
:104C700029F4809129038B7F8093290380912D0350
:104C800081110EC080912E0381110AC080912F03E3
:104C9000811106C080913003811102C010922A0355
:104CA00008958BE293E00E9408160E943B249093A3
:104CB00027038093260308951F93CF93DF9380915A
:104CC0002603909127030E944724AC0190912A0368
:104CD000992321F02091150130E006C0209128038E
:104CE0008AE0289F900111244217530708F47BC0E3
:104CF00080912D03C0912E03D0912F03109130038A
:104D0000811107C0C1116BC0D11169C0111167C0F9
:104D10006AC09F3F19F09F5F90932A03181624F4EE
:104D20000E94E22480932D0380912D0387FF05C00C
:104D30000E94E224819580932D031C1624F40E9486
:104D4000E22480932E0380912E0387FF05C00E94EA
:104D5000E224819580932E0330912D033323E1F0DB
:104D600020912E032223C1F045EB3403C00111240E
:104D7000892F990F990B009709F481E080932D03F7
:104D800035EB2303C0011124892F990F990B00974C
:104D900009F481E080932E031D1624F40E942B2534
:104DA00080932F0380912F0387FF05C00E942B253E
:104DB000819580932F03111624F40E942B25809354
:104DC00030038091300387FF05C00E942B25819519
:104DD00080933003DF91CF911F910C9451269F3F18
:104DE00009F099CFA1CFDF91CF911F910895EBE208
:104DF000F3E086E0DF011D928A95E9F710922A031D
:104E00001092290308958091510308950F931F93E1
:104E1000CF93DF9300D01F92CDB7DEB78C010E94F5
:104E20006929823011F0843021F584E089831B8365
:104E30000A8382E08093E9008FEF9091E80081502F
:104E400095FD06C095ED9A95F1F700008111F5CF1B
:104E50008091E80085FF0DC040E050E063E070E025
:104E6000CE0101960E9486298091E8008E7780937A
:104E7000E8000F900F900F90DF91CF911F910F914D
:104E80000895CF93DF9300D01F92CDB7DEB7209166
:104E9000A503243031F523E02983805891099B83B1
:104EA0008A8382E08093E9008FEF9091E80081503F
:104EB00095FD06C095ED9A95F1F700008111F5CFAB
:104EC0008091E80085FF0DC040E050E063E070E0B5
:104ED000CE0101960E9486298091E8008E7780930A
:104EE000E8000F900F900F90DF91CF910895CF932E
:104EF000DF93EC010E946929823011F08430F9F4CB
:104F000082E08093E9009FEF8091E800915085FD59
:104F100006C085ED8A95F1F700009111F5CF8091DB
:104F2000E80085FF0CC040E050E066E070E0CE0194
:104F30000E9486298091E8008E778093E800DF91B7
:104F4000CF910895CF93DF93EC010E9469298230BD
:104F500011F08430D9F580912001882339F08091B7
:104F60009F0387FF03C060E282E002C068E081E047
:104F70008093E9008FEF9091E800815095FD06C085
:104F800095ED9A95F1F700008111F5CF8091E80039
:104F900085FF1CC080912001811105C040E050E0D8
:104FA00068E070E003C070E040E050E0CE010E9495
:104FB00086298091E8008E778093E80080E2FE01E8
:104FC000A1E3B3E001900D928A95E1F7DF91CF91D3
:104FD00008958091A403811109C00E941B2B0E9497
:104FE000782B8091E20084608093E2000895109213
:104FF000A4030895089508950C94012442E061ECFF
:1050000081E00E94952A42E261EC82E00C94952AAC
:105010008091A703833009F453C030F4813071F0DC
:10502000823009F48CC008958A3009F478C08B303E
:1050300009F45EC0893009F09AC020C08091A603AF
:10504000813A09F094C08091E800877F8093E8005E
:105050008091AA039091AB03892B21F460E281E354
:1050600093E003C060E080E090E070E00E94D1290E
:105070008091E8008B778093E80008958091A603E3
:10508000813209F074C08091AA039091AB0302971A
:1050900008F06DC08091E800877F8093E8008091E0
:1050A000E80082FD05C08091A5038111F8CF5FC0A3
:1050B0008091F100809351038091E8008B7753C079
:1050C0008091A603813A09F052C08091AA03909181
:1050D000AB03892B09F04BC08091E800877F809358
:1050E000E8008091E80080FFFCCF8091200136C06D
:1050F0008091A6038132D9F58091AA039091AB03E8
:10510000892BA9F58091E800877F8093E8000E94B1
:10511000CA2A8091A803809320010C94261C8091B8
:10512000A603813221F58091E800877F8093E80013
:105130000E94CA2A8091A903809352030895809106
:10514000A603813AA1F48091E800877F8093E8006C
:105150008091E80080FFFCCF809152038093F100A2
:105160008091E8008E778093E8000C94CA2A089515
:1051700084B7877F84BF0FB6F894A89580916000AC
:10518000886180936000109260000FBE80E8809379
:105190006100109261000E944A160E941B2B0E941F
:1051A000782B8091E20084608093E20078940E94E2
:1051B000072E0E94501686E191E00E94DD15809135
:1051C000A503853069F40E94B9238091A303882345
:1051D000B1F30E94EA23882391F30E947029EFCF54
:1051E0000E9458160E94D714EACF0C94F728292F52
:1051F000332723303105C9F064F42130310581F0C3
:105200002230310509F04CC08BE390E020EE36E00F
:105210004BC02132310521F12232310589F140C0E4
:1052200082E190E02BE137E03FC099278130910582
:1052300071F02CF4892BA1F5ECEDF6E00DC0823075
:10524000910541F0039761F5E6EAF6E005C0E4EC6C
:10525000F6E002C0ECEAF6E0849190E09F0124C001
:105260006115710541F061307105D1F489E090E07C
:105270002BE037E019C089E090E022EF36E014C05F
:105280006115710541F06130710551F480EC90E0D9
:105290002DE237E009C080E490E02DEE37E004C055
:1052A00080E090E020E030E0FA013183208308952F
:1052B0000895CF93C82F0E945829C0935303CF91CC
:1052C00008958091A503843011F081E0089582E073
:1052D000089580915303811102C00C9461290895AF
:1052E00080E189BD82E189BD09B400FEFDCF8091D6
:1052F000D8008F7D8093D8008091E00082608093F9
:10530000E0008091E00081FDFCCF0895CF92DF9214
:10531000EF92FF920F931F93CF93DF93EC018B01DA
:105320006A010E94E92A811133C0C114D10439F005
:10533000F60180819181081B190BC80FD91FE12C40
:10534000F12C0115110519F18091E80085FD16C0B9
:105350008091E8008E778093E800C114D10449F071
:10536000F60180819181E80EF91EF182E08285E0EC
:105370000FC00E94E92A882321F30AC089918093F3
:10538000F10001501109FFEFEF1AFF0ADACF80E0B8
:10539000DF91CF911F910F91FF90EF90DF90CF9011
:1053A00008952091AC033091AD032617370748F0DC
:1053B0006115710539F42091E8002E772093E800FB
:1053C00001C0B90140E061157105A9F12091A50363
:1053D000222309F443C0253009F442C02091E8009B
:1053E00023FD40C02091E80022FD32C02091E8005A
:1053F00020FFE9CF4091F3002091F20030E0342B00
:10540000FC01CF016115710559F02830310540F4D8
:1054100081918093F100615071092F5F3F4FF1CF6F
:1054200041E02830310509F040E02091E8002E7776
:105430002093E800C8CF4111C9CF0AC08091A503CD
:10544000882361F0853061F08091E80083FD0AC017
:105450008091E80082FFF2CF80E0089582E0089515
:1054600083E0089581E008952091AC033091AD036D
:105470002617370748F06115710539F42091E800C7
:105480002E772093E80001C0B901FC0120E06115EE
:10549000710591F18091A503882309F440C08530FE
:1054A00009F43FC08091E80083FD3DC08091E80091
:1054B00082FD2FC08091E80080FFE9CF2091F300AA
:1054C0008091F20090E0922B6115710559F08830BF
:1054D000910540F424912093F100319661507109B7
:1054E0000196F2CF21E0089709F020E08091E800D2
:1054F0008E778093E800CBCF2111CCCF0AC080916A
:10550000A503882361F0853061F08091E80083FD78
:105510000AC08091E80082FFF2CF80E0089582E027
:10552000089583E0089581E00895982F973058F505
:105530009093E900981739F07091EC002091ED00FC
:105540005091F00003C0242F762F50E021FF19C0A6
:105550003091EB003E7F3093EB003091ED003D7FCA
:105560003093ED003091EB0031603093EB0070939D
:10557000EC002093ED005093F0002091EE0027FF07
:1055800007C09F5FD3CF8F708093E90081E00895BB
:1055900080E008958091A60387FF11C08091E80004
:1055A00082FD05C08091A5038111F8CF11C08091C3
:1055B000E8008B770BC08091A503882349F0809188
:1055C000E80080FFF8CF8091E8008E778093E800B4
:1055D00008952091E4003091E50095E64091EC00BB
:1055E000842F817040FF22C08091E80080FD1CC0A4
:1055F0008091A503882391F0853091F08091EB0094
:1056000085FD10C04091E4005091E500421753071A
:1056100029F39A01915011F784E0089582E00895EA
:1056200083E0089581E0089580E008954091E800C6
:1056300042FFDECF08950E94892B0E94912BE0EE5D
:10564000F0E0808181608083E8EDF0E080818F77F9
:10565000808319BCA7EDB0E08C918E7F8C93808104
:105660008F7E80831092A40308950F931F93CF938E
:10567000DF930E94892B0E94912BC8EDD0E0888196
:105680008F77888388818068888388818F7D8883ED
:1056900019BC1092A5031092A1031092A3031092BB
:1056A000A20300EE10E0F80180818B7F8083888167
:1056B0008160888342E060E080E00E94952AE1EE0C
:1056C000F0E080818E7F8083E2EEF0E08081816077
:1056D0008083808188608083F80180818E7F8083D1
:1056E000888180618883DF91CF911F910F91089508
:1056F000E8EDF0E080818F7E8083E7EDF0E080814F
:105700008160808384E082BF81E08093A4030C9455
:10571000352BE8EDF0E080818E7F80831092E200EF
:1057200008951092DA001092E10008951F920F92EE
:105730000FB60F9211242F933F934F935F936F9364
:105740007F938F939F93AF93BF93EF93FF9380913A
:10575000E10082FF0BC08091E20082FF07C08091D0
:10576000E1008B7F8093E1000E94062E8091DA0099
:1057700080FF1FC08091D80080FF1BC08091DA009D
:105780008E7F8093DA008091D90080FF0DC080E188
:1057900089BD82E189BD09B400FEFDCF81E080931F
:1057A000A5030E94E92705C019BC1092A5030E9419
:1057B000F7278091E10080FF19C08091E20080FF0F
:1057C00015C08091E2008E7F8093E2008091E2001C
:1057D00080618093E2008091D80080628093D8003D
:1057E00019BC85E08093A5030E94FB278091E1000E
:1057F00084FF30C08091E20084FF2CC080E189BD2D
:1058000082E189BD09B400FEFDCF8091D8008F7D73
:105810008093D8008091E1008F7E8093E100809199
:10582000E2008F7E8093E2008091E20081608093AD
:10583000E2008091A103882311F084E007C08091E9
:10584000E30087FD02C081E001C083E08093A503EF
:105850000E94FC278091E10083FF29C08091E20033
:1058600083FF25C08091E100877F8093E10082E083
:105870008093A5031092A1038091E1008E7F809315
:10588000E1008091E2008E7F8093E2008091E2004F
:1058900080618093E20042E060E080E00E94952A0F
:1058A0008091F00088608093F0000E94FA27FF91B9
:1058B000EF91BF91AF919F918F917F916F915F9188
:1058C0004F913F912F910F900FBE0F901F90189501
:1058D0001F920F920FB60F9211242F933F934F9365
:1058E0005F936F937F938F939F93AF93BF93CF9368
:1058F000DF93EF93FF93C091E900CF708091EC00AC
:10590000D82FD17080FDD0E81092E9008091F0008E
:10591000877F8093F00078940E94AC2C1092E9006D
:105920008091F00088608093F000CD2BCF70C09301
:10593000E900FF91EF91DF91CF91BF91AF919F91DE
:105940008F917F916F915F914F913F912F910F9028
:105950000FBE0F901F9018951F93CF93DF93CDB775
:10596000DEB7AA970FB6F894DEBF0FBECDBFE6EA4A
:10597000F3E088E08E0F9091F10091938E13FBCFAE
:105980000E9408288091E80083FF28C18091A60327
:105990009091A703492F50E04A30510508F01EC1ED
:1059A000FA01E755FF4F0C949331803821F082388B
:1059B00009F014C108C08091A2039091A303992318
:1059C00089F082600FC08091AA038F70873008F041
:1059D00005C18093E9008091EB0085FB882780F961
:1059E0001092E9009091E800977F9093E8008093EF
:1059F000F1001092F100D0C0282F2D7F09F0EEC0E9
:105A0000882319F0823061F0E9C08091A8038130C9
:105A100009F0E4C0933009F080E08093A3032EC026
:105A20008091A80381112AC08091AA038F702FEF63
:105A3000280F263008F0D2C08093E9002091EB00B7
:105A400020FF1CC0933021F48091EB00806214C0D1
:105A50009091EB0090619093EB0021E030E0A90180
:105A600002C0440F551F8A95E2F74093EA00109256
:105A7000EA008091EB0088608093EB001092E900CF
:105A80008091E800877F8093E8000E94CA2AA6C020
:105A90008111A4C01091A8031F778091E300807842
:105AA000812B8093E3008091E800877F8093E8005A
:105AB0000E94CA2A8091E80080FFFCCF8091E30019
:105AC00080688093E300111102C082E001C083E08E
:105AD0008093A50383C08058823008F07FC08091F6
