:100000000C94D8040C94F5040C94F5040C94F504A9
:100010000C94F5040C94F5040C94F5040C94F5047C
:100020000C94F5040C94F5040C94CD220C94092244
:100030000C943A2A0C94F5040C94F5040C94F504F1
:100040000C94F5040C94F5040C94F5040C94F5044C
:100050000C94F5040C94C8290C94F5040C94F50444
:100060000C94F5040C94F5040C94F5040C94F5042C
:100070000C94F5040C94F5040C94F5040C94F5041C
:100080000C94F5040C94F5040C94F5040C94F5040C
:100090000C94F5040C94F5040C94F5040C94F504FC
:1000A0000C94F5040C94F5040C94F504840687066E
:1000B0008A068D069006930696066D1168117211D8
:1000C0007E11A311B111BF11CB11D611E411F111A1
:1000D000FE11C515C715D215C915CB15CD15CF15F0
:1000E000D115D415D615D815E315DA15DC15DE159E
:1000F000E015E215E51590169016CA16CA162117D6
:100100003F1734198D1981178D197E187E188B1899
:100110008B188B188B188B188B188B188B188B18C7
:100120008B188B188B188B188B188B188B189818AA
:10013000BF18C618CD18E418821A821A951A951A93
:100140008B1A951A951A951A821A821A901A951A6C
:10015000951A901A511B591B541B571B5C1B5F1B94
:10016000641B741BB71BAC1BA11BAC1BB71BAC1BCC
:10017000B71B1A204120E1214120E1218920AC2038
:10018000E121AA21BD2107634236B79BD8A71A39BE
:10019000685618AEBAAB558C1D3CB7CC5763BD6DD5
:1001A000EDFD753EF6177231BF000000803F05A8D7
:1001B0004CCDB2D44EB93836A9020C50B9918688CC
:1001C000083CA6AAAA2ABE000000803F000000004A
:1001D000000101010101010101010202020202020A
:1001E00002020203030303030303030404040404DD
:1001F00004050505050506060606060707070708A0
:100200000808080909090A0A0A0A0B0B0B0C0C0C4E
:100210000D0D0D0E0E0F0F0F1010111111121213E4
:10022000131414151516161717181819191A1A1B5E
:100230001C1C1D1D1E1F1F202021222223242525BA
:1002400026272728292A2B2B2C2D2E2F2F303132F1
:1002500033343536363738393A3B3C3D3E3F404102
:10026000424344464748494A4B4C4D4F50515253E4
:10027000555657585A5B5C5E5F6062636466676997
:100280006A6C6D6E707173747678797B7C7E808118
:10029000838486888A8B8D8F91929496989A9B9D61
:1002A0009FA1A3A5A7A9ABADAFB1B3B5B7B9BBBD6E
:1002B000BFC1C4C6C8CACCCFD1D3D6D8DADCDFE13F
:1002C000E4E6E8EBEDF0F2F5F7FAFCFF6801F00088
:1002D000B40078005A0011500455296F2A6514554E
:1002E00000000354340004003361085565000354D2
:1002F0003600120014000458025418013700080098
:100300000D00035402540701130018000E0002559B
:10031000065301001C000C001B00000001004C05EE
:10032000430000002B04000001000F0865000000DE
:100330002C08000001000100090007000500000072
:10034000010008010A000B001000025507531C01B0
:10035000060017001A0003542C0003541500110066
:10036000190004542B0003540F0016001D7118557A
:10037000055811500455286F2B6514550000105076
:100380000100010001000100000001001400010053
:1003900001000100010001001A0016001B0001000D
:1003A0000100010008000700060001000100010033
:1003B00015000900190001000100010017000A00E2
:1003C0000500000001000100010000000100000024
:1003D0000100010001000000010000000100010017
:1003E0001C000B00110000000100010018000D00AE
:1003F00001000100010001000C000E0036000100A8
:100400000100010012000F0037000100010001008F
:100410001300340001000100010010500100010030
:1004200001000100000001000100010001000100C5
:1004300000000100470001552800010001000100F3
:100440004C00045565000100010001002B00085517
:1004500049010100010001002A0002554902010082
:100460000100010000000553000000000100010030
:100470000100000001000000010001000100000077
:100480000100000001000100000000000000000069
:10049000010001004A0050004E000100010001006F
:1004A000520051004B000100010001004D004F00BF
:1004B0003900010001000100490028001155010028
:1004C00001000100010001000100105000000100C6
:1004D00001000100010001000000010000003102E4
:1004E0000155010001000100160A310064000000FE
:1004F00001550100260223022D02010001550100D1
:100500002702350035020100010001000000000053
:1005100000000000010001000100000001000000D7
:1005200001000100010000000100000001000100C5
:100530000000000000000000010001002F002D005D
:100540002F0201000100010030002E0030020100E6
:1005500001000100460038003200000001000100E7
:1005600027013802115501000100010001000100BE
:100570000100105000000100010001000100010015
:100580000000010042003E003A610100010001004C
:1005900043003F003B0000000155010044004000C3
:1005A0003C00000001550100450041003D000100F4
:1005B000010001005300470000000000010001009D
:1005C0000100000001000000010001000100000026
:1005D0000100000001000100000000000000000018
:1005E00001000100240021001E002762010001001B
:1005F000250022001F002800010001002600230022
:10060000200001000100010025022E022D710100D1
:100610000100010001000100010010500000010074
:10062000010001000100A600000001000000F6002A
:10063000F500010001000100FB00F2006500000070
:10064000F4000100F000F100F9000000F4000100E6
:10065000FC00F300FA0001000100010001000100AC
:10066000A8000000010001000100000001000000DE
:100670000100010001000000010000000100010074
:100680000000000000000000010001004A00F2002C
:100690004E00010001000100F000F1004B000000DD
:1006A000010001004D00F300000000000100010006
:1006B00000002800115501000100010001000100A7
:1006C00001001050000029002B00E100E000E000D4
:1006D00000001E00140004001D00E20001001F00C5
:1006E0001A0016001B003D002C0020000800070027
:1006F00006003D002C0021001500090019003D00F6
:100700000100220017000A0005000000010023007C
:100710002B0000002B000000010034002B00000023
:100720002B000000010023001C000B001100000042
:100730000100240018000D00100035000100250004
:100740000C000E00360031000100260012000F00E0
:100750003700500001002700130033005200510001
:10076000010001002A00280038004F0000000100AD
:10077000010001000100010000000100F65CFB5CCB
:100780000100010001000100F75CFC5C01000100B8
:10079000C25C0100F85CFD5C01000100C25C01006C
:1007A000F95CFE5C0100010001000100FA5CFF5CE5
:1007B0000100000001000100010000000100000034
:1007C0000100010001000000010000000100010023
:1007D000010001000100000001000100C55CC25CD5
:1007E000C95C010001000100C65CC35CCA5C010079
:1007F000010001000100F45C0100010001000100A2
:1008000001000100010001000100010001000100E0
:1008100001001050000005010902A1018502090133
:10082000A100050919012905150025019505750186
:100830008102950175038101050109300931158196
:10084000257F95027508810609381581257F950158
:1008500075088106050C0A38021581257F950175FA
:10086000088106C0C005010980A1018503160100A9
:100870002603001A81002A8300751095018100C0AB
:10088000050C0901A1018504160100269C021A012C
:10089000002A9C02751095018100C005010906A17E
:1008A000018505050719E029E7150025019508755B
:1008B0000181020508190129059505750191029527
:1008C00001750391010507190029EF150025019510
:1008D000F075018102C005010906A101050719E0B3
:1008E00029E7150025019508750181029501750814
:1008F00081010508190129059505750191029501E8
:10090000750391010507190029FF150026FF0095C1
:100910000675088100C009023B00020100A0FA0927
:10092000040000010301010009211101000122401E
:10093000000705810308000A090401000103000003
:100940000009211101000122C000070582032000D7
:100950000A1201100100000008EDFE07130100015A
:100960000203010403300000001603450072006713
:10097000006F0044006F007800200045005A00001E
:100980000016034500720067006F0044006F007896
:1009900000200045005A0000000403090400047F01
:1009A0003F1F643214643214783C1E1E140A050082
:1009B00011241FBECFEFDAE0DEBFCDBF11E0A0E013
:1009C000B1E0E0E3F4E602C005900D92AE3EB1075F
:1009D000D9F723E0AEEEB1E001C01D92A537B20712
:1009E000E1F70E94A6240C9416320C94000008959E
:1009F000EF92FF920F931F93CF93DF93E90166234A
:100A000009F44BC0242F30E0EFEFF0E0E61BF109D2
:100A1000B901E69F9001E79F300DF69F300D11243C
:100A2000232F8B01031B11095CE3E52EF12CB70189
:100A30000E94AE30FB01BC01069FC001079F900DD4
:100A4000169F900D1124B7010E94AE30E230F105DF
:100A5000B1F040F4309779F0319711F5832F242FBE
:100A6000461B21C0E430F105A1F068F03597C1F4D0
:100A7000842F861B18C0832F262F230F14C0862F88
:100A8000830FE42F03C0E42FE61B842F432F2E2F68
:100A90000AC0842F462F430F06C0842F242F03C083
:100AA00080E020E040E0E42FF0E0E453FE4F44918A
:100AB000E22FF0E0E453FE4F9491E82FF0E0E4538E
:100AC000FE4FE49149839883EA83DF91CF911F9190
:100AD0000F91FF90EF9008959091050392FF0DC044
:100AE000282F2871283019F4877F846006C0282FAA
:100AF0002471243011F48B7F886093FF0DC0282F60
:100B00002871283119F4877E846106C0282F24714A
:100B1000243111F48B7E886194FD877E08958823AB
:100B200019F05198599A02C0519A59985098589A68
:100B300095E09A95F1F70000509A589895E09A95AB
:100B4000F1F70000882311F0519A599885E08A95B1
:100B5000F1F700000895CF93DF93D82FC8E08D2FD1
:100B600080780E948F05DD0FC150C9F780E00E9498
:100B70008F0585E08A95F1F7000085E08A95F1F709
:100B8000000080E0DF91CF910895AF92BF92CF92A5
:100B9000DF92EF92FF920F931F93CF93DF931F92F9
:100BA000CDB7DEB7F82E8B01CFB6D090BC00F8944D
:100BB0002091BC002B7F2093BC002BB12C7F2BB944
:100BC0005098589A5198599A85E08A95F1F7000003
:100BD0002AB12C7F2AB9E5E0EA95F1F70000519A95
:100BE0005998F5E0FA95F1F70000509A589885E089
:100BF0008A95F1F7000084E899830E94AB05AF2C39
:100C00009981B92E000F111F000F111F0A0D1B1D16
:100C10007501E016F10631F0F70181917F010E9424
:100C2000AB05F7CF5098589AF5E0FA95F1F7000028
:100C30005198599A85E08A95F1F70000CFBED0927D
:100C4000BC00579A8BB18F779BB190682FB7F894FF
:100C5000A016B10699F0F50131915F0148E09BB90A
:100C6000000000C037FF8BB9330F000000C000C088
:100C700000C08BB900C04A9591F7EACF2FBF0F9003
:100C8000DF91CF911F910F91FF90EF90DF90CF9068
:100C9000BF90AF900895CF93E82F873058F580919B
:100CA000140190911501892B09F042C0CE2F80E4E8
:100CB0000E94B31E9093150180931401892BB1F407
:100CC00082E10E948C1E9093150180931401892B60
:100CD00069F481E090E001C0880FCA95EAF7809539
:100CE0000E948C1E909315018093140184E98093D7
:100CF000BC001EC090E0FC013797E730F105C0F45E
:100D0000EA5AFF4F0C94D630209A289811C0219AA5
:100D100029980EC0229A2A980BC0239A2B9808C0B3
:100D2000529A5A9805C0539A5B9802C03E9A4698C8
:100D3000CF910895CF93DF93873008F047C080911B
:100D4000140190911501892B09F049C080E40E949B
:100D5000B31E9093150180931401892B11F080E04C
:100D600031C083E10E948C1E909315018093140181
:100D7000892BA9F781E40E94B31E909315018093FB
:100D80001401892B61F784E88093BC000E94182A23
:100D9000EC019091BC0097FD0EC00E94182A8C1B9C
:100DA0009D0B84369105A8F38EEF9FEF909315016C
:100DB00080931401D4CF8091BB00809510921501CF
:100DC0001092140194E99093BC000AC09FB18FB1B6
:100DD000807F869586959370892B809501C080E0F1
:100DE000DF91CF910895DF92EF92FF920F931F93BF
:100DF000CF93DF93CDB7DEB767970FB6F894DEBF1A
:100E00000FBECDBFF42E4B8BD52E5C8BE62E6D8B9B
:100E10007E8B8F8B0E891F8901151105B9F12FEF7C
:100E2000521302C0421791F1EF2DF0E041E050E083
:100E30000F2C01C0440F0A94EAF78D2D90E0EE20AC
:100E400019F020914A0205C0DC01AA5CBD4F2C912B
:100E500024232223A1F056E0589F9001599F300D82
:100E60001124E20FF31FEE0FFF1FEB5BFE4FF0802C
:100E7000D180FC01EA5CFD4F9081492B06C0FC014A
:100E8000EA5CFD4F4095808148234083FE013D96FA
:100E900086E0DF011D928A95E9F70E94182A2091C9
:100EA0006003309161038217930798F00E94182A1B
:100EB0002091600330916103821B930B883B9B4020
:100EC000A8F08091620382FD11C082E00E948A2B0B
:100ED0000DC00E94182A2091600330916103209573
:100EE0003095820F931F883B9B4058F70E94FD1955
:100EF00081110E94232BFD86DE86EF86198B088BDD
:100F000086E0FE013D96DE01179601900D928A95CE
:100F1000E1F7CE0107960E94961C811136C086E04B
:100F2000FE013796DE01119601900D928A95E1F748
:100F30007F816885EA85FB85309739F16F3F11F431
:100F40007F3F19F12091510230E0C901019687706D
:100F500099274091820250E08417950779F17983AF
:100F60006A83FD83EC8396E0929FD001939FB00D3E
:100F70001124AE5ABD4FFE01319601900D929A9503
:100F8000E1F7809351020E94311C16E080918202A9
:100F900090915102891711F1189FC00111248E5AA6
:100FA0009D4F0E94961C8823C9F08091820290E098
:100FB00001968770992780938202E8CF1092C2022F
:100FC0000E94601E1092510210928202EBE4F2E045
:100FD00086E0DF011D928A95E9F7D7CF67960FB6B5
:100FE000F894DEBF0FBECDBFDF91CF911F910F915F
:100FF000FF90EF90DF9008952091340230913502F8
:101000008217930771F09093350280933402E09138
:101010000803F0910903309721F00084F185E02D59
:101020000994089520913202309133028217930778
:1010300071F09093330280933202E0910803F091B3
:101040000903309721F00680F781E02D0994089577
:10105000E0910803F0910903309721F00190F081AD
:10106000E02D099480E008950F931F93CF93DF93B1
:10107000C62FD42F022FFC01828110E2160F882385
:10108000B9F0609345020E94182A90933102809330
:101090003002183008F042C0C77081E001C0880FEC
:1010A000CA95EAF7DF91CF911F910F910C947A1EA8
:1010B000183048F481E0962F977001C0880F9A95F8
:1010C000EAF70E94731E809145028C1327C080911D
:1010D0003002909131020E94EE29883C9105F0F493
:1010E000C0E2CD0FC83048F481E09D2F977001C059
:1010F000880F9A95EAF70E947A1E802F0E94841E1C
:10110000C83060F4D77081E001C0880FDA95EAF743
:10111000DF91CF911F910F910C94731EDF91CF91AE
:101120001F910F9108956091380366956F7370E079
:101130004BE050E086E091E00E940932892B19F4DF
:1011400081E080933E030E94182A9093330380939A
:10115000320308958091380380FF06C06FE070E08D
:1011600084EF91E00C94C50580E090E0FC01EC5028
:10117000FE4F11821082128204968C339105B1F7D2
:10118000EDCFEF92FF920F931F93CF93DF937C01EC
:10119000C4EFD1E000E010E0F70184813091380322
:1011A00090913903073011051CF4882381F002C0A7
:1011B00081110DC0832F881F8827881F592F550F35
:1011C00097FB992790F99E0140913B030BC0832F19
:1011D000881F8827881F592F550F97FB992790F94B
:1011E0009E0140E060913A03852B0E94F8040F5F56
:1011F0001F4F24960F30110579F60E94AA08F701B7
:10120000848190E00196817099278483DF91CF914A
:101210001F910F91FF90EF900895EF92FF920F931F
:101220001F93CF93DF93EC012C813D812F5F3F4FC4
:10123000217033273D832C8384EFE82E81E0F82E44
:1012400010E008E7812F8695EC81FD81E80FF11D04
:10125000CF0181709927970140913B0360913A0338
:10126000FC010E9FC0010F9F900D11240E94F804F5
:101270001F5FF4E0EF0EF11C1F3021F7DF91CF91DB
:101280001F910F91FF90EF900C94AA080F931F935A
:10129000CF93DF9380E090E0FC01EC50FE4F118291
:1012A0001082128204968C339105B1F7C0E0D0E031
:1012B0000FE010E0CE01B8010E94C230FC01809125
:1012C000F201082E000C990BEE0FFF1FEE0FFF1F0F
:1012D000C817D907FCF080911201082E000C990B59
:1012E0008C179D07BCF09F012C503E4F8091380316
:1012F000881F8827881F90913903592F550F97FB16
:10130000992790F940913B0360913A03852B0E9405
:10131000F80405C0EC50FE4F118210821282219613
:10132000CF30D10539F60E94AA0880911101909121
:10133000F201980F9093F20120911201280F20934F
:101340001201121614F49E301CF081958093110145
:10135000DF91CF911F910F910895AF92BF92CF92DD
:10136000DF92EF92FF920F931F93CF93DF93FC01D5
:10137000828180FF03C0BB24BA9402C0BB24B39413
:1013800024EFE22E21E0F22E06EF11E0C0E0D0E0E3
:10139000F80131971082F7011082F801108294E071
:1013A000C92ED12CA12C8091F1018A0D87FD815F7E
:1013B000082E000C990BC817D907E9F480913B035C
:1013C0008C9DA0018D9D500D1124559547955595E7
:1013D000479580913803881F8827881F909139038B
:1013E000592F550F97FB992790F9970160913A0370
:1013F000852B0E94F804AB0CF1E0CF1AD10899F6C6
:10140000219684E0E80EF11C0C5F1F4FCF30D10510
:1014100009F0BECF0E94AA088091F10191E0B912B3
:1014200006C0811102C08EE007C0815005C090E067
:101430000196BE010E94C2308093F101DF91CF91ED
:101440001F910F91FF90EF90DF90CF90BF90AF90E2
:101450000895CF92DF92EF92FF920F931F93CF9355
:10146000DF93EC0184EFE82E81E0F82E00E010E03D
:1014700098E6C92EDD24D3948C819D81800F911F25
:10148000B6010E94C230970140913B0360913A033C
:101490000E94F804085E1F4F84E0E80EF11C083635
:1014A00081E0180749F70E94AA088A812C813D81B2
:1014B00080FF06C0C9010196B8010E94C23005C074
:1014C000121613062CF087E691E09D838C8304C0EE
:1014D000215031093D832C83DF91CF911F910F91D2
:1014E000FF90EF90DF90CF9008959091380390FF98
:1014F0000FC020E030E0F901EC50FE4F81836083A3
:1015000042832C5F3F4F2C333105A9F70C94AA0876
:1015100008950F931F93CF93DF9300D000D0CDB7E2
:10152000DEB78C018091F30181110CC09E012F5F09
:101530003F4F4FEF6FEF80E090E00E94F8048A8108
:101540008093F301F8018481813051F028F08230DA
:1015500061F44091F3010AC08091F30140E007C0BB
:101560006091F30140E080E003C040E080E060E093
:101570000E94750AF801248130E0C901019663E0F8
:1015800070E00E94C23084830F900F900F900F90F4
:10159000DF91CF911F910F910895CF93DF9300D0EA
:1015A00000D0CDB7DEB72091380320FF0AC09E01DE
:1015B0002F5F3F4F0E94F8044B8169818A810E940E
:1015C000750A0F900F900F900F90DF91CF910895B3
:1015D000CF93DF93EC01E8E3F3E0438162818C81F8
:1015E0009D810E94CD0A8C819D81019668E671E003
:1015F0000E94C2309D838C83DF91CF910895CF9359
:10160000DF93EC016C8170E080E090E00E94AF2EEF
:1016100020E030E04FE753E40E94D22D2BED3FE075
:1016200049E450E40E94D82F0E9445300E944C2E7D
:101630002BE43AE34EE25FE30E94652D20EF3BEF9F
:1016400048ED52E40E94D82F0E947E2E462FE8E3F8
:10165000F3E08081881F8827881F90913903292F04
:10166000220F97FB992790F96281822B0E94CD0A65
:101670002C8130E02F5F3F4F2C83DF91CF91089575
:101680008091380380FF03C086958F73089580E0B2
:10169000089580913803282F26952F7330E0211567
:1016A000310519F48178826005C02532310524F0B6
:1016B000817888648093380330913803432F441F26
:1016C0004427441F20913903522F550F852F842B17
:1016D00027FB992790F9893641E094077CF068E66A
:1016E00071E00E94C23080FB37F930933803869551
:1016F0002078822B90FB87F9809339030895CF934C
:10170000DF9300D000D0CDB7DEB7AB01BC01498379
:101710005A836B837C830E94490B49815A816B8178
:101720007C8188E090E00F900F900F900F90DF91F8
:10173000CF910C94432D5F926F927F928F929F92E4
:10174000AF92BF92CF92DF92EF92FF920F931F93CF
:10175000CF93DF9300D000D0CDB7DEB78C01E62E5B
:10176000F42E522E8091380380FF8BC0E82FE6952F
:10177000EF73AE2FB0E0A05EBE4F9C9190933D03FF
:10178000282F2E77223061F49E012F5F3F4FC80132
:101790000E94F8044B8169818A810E94750A51C0B8
:1017A000923019F4F0903B034CC0963069F4881FD6
:1017B0008827881F90913903292F220F022F082B89
:1017C00097FB112710F93DC0993089F39931C9F57C
:1017D000E951E0FD02C021E001C02FEFE695F0E005
:1017E000EE0FFF1FE453FD4F859194916FE070E081
:1017F0000E94AE3026034001279F900C112458010F
:1018000088E9A81A8EEFB80A94EFC92E91E0D92E74
:1018100028E6622E77247394C501B3010E94AE308E
:1018200096014F2D6E2D0E94F804A80CB91C84E07F
:10183000C80ED11C80E3C81682E0D80669F70E9462
:10184000AA088091380300FB87F980933803902F12
:101850009695809139038078892B10FB87F98093C6
:101860003903E0923A03F0923B03552051F0609126
:1018700038037091390380913A0390913B030E94A1
:101880007F0B0F900F900F900F90DF91CF911F91D2
:101890000F91FF90EF90DF90CF90BF90AF909F900F
:1018A0008F907F906F905F90089521E00C949B0B38
:1018B000E8E3F3E080818E7F8083608171818281A3
:1018C00093810E947F0B10923E032FEF80E792E0FE
:1018D000215080409040E1F700C000000C94AA081D
:1018E0009091380390FF43C09178811102C09260BB
:1018F00007C0853210F0986403C08F73880F982B4F
:1019000090933803662351F0609138037091390346
:1019100080913A0390913B030E947F0B60913803C2
:1019200066956F7370E04BE050E086E091E00E94B6
:101930000932892B19F010923E0302C00E949308CD
:1019400081E08093350380913803881F8827881FA2
:1019500090913903392F330F97FB992790F920E0A5
:1019600040913B0360913A03832B0C949B0B0895A9
:1019700060E00C94700CE8E3F3E080818160808388
:1019800086958F730C94B80C61E00C94700CE8E3AE
:10199000F3E080818160808386958F730C94C40C02
:1019A0008091380386958F73815009F484E261E059
:1019B0000C94700C8091380386958F738F5F8532FD
:1019C00008F081E061E00C94700CE8E3F3E083E060
:1019D0008083109239038FEF828383831482608126
:1019E0007181828193810C947F0B6091F3028CE072
:1019F00090E00C94312DCF93DF9326E0729FF0019D
:101A0000112434E5839FE00DF11D1124E60FF11D33
:101A1000EE0FFF1FEA52FD4FC591D491CE01C2389F
:101A2000D10549F1B0F4C133D10509F464C048F4DB
:101A3000C932D10509F458C0CA32D10509F462C0CF
:101A400068C0C533D10509F448C0C933D10599F040
:101A500060C0C33ED10541F138F4C03ED10591F0DC
:101A6000C23ED105B1F055C0C63ED10521F1C73EF9
:101A7000D10561F14EC02091050320FD14C221FD66
:101A800012C213C22091050320FF0FC289E390E028
:101A90000CC22091050322FF08C28091050384FD3A
:101AA000B4C183EE90E001C28091050382FFF5CFBF
:101AB00082EE90E0FAC12091050323FFF6C18091E8
:101AC000050384FDA2C187EE90E0EFC1809105037C
:101AD00083FFF5CF86EE90E0E8C12091050325FF56
:101AE000E4C189E290E0E1C12091050325FFDDC159
:101AF00085E390E0DAC12091050326FFD6C18AE292
:101B000090E0D3C12091050326FFCFC181E390E08F
:101B1000CCC1C11520E5D20708F047C0C11530E49B
:101B2000D30708F034C1C83ED10518F5C03ED10531
:101B300008F0BBC1C83AD10570F4C53AD10508F028
:101B4000B0C0C130D10509F4B0C108F45EC124971A
:101B500008F45BC1AAC1CF3BD10508F4ADC0C03CBD
:101B6000D10508F452C1FE01EE0FFF1FE45BFF4FE9
:101B700002C1C11520E2D20760F4C11531E0D307DC
:101B800008F093C1C03FD10508F43FC1CE01906574
:101B90008CC1C11580E3D80708F0F0C0FE01FF70CA
:101BA000EE0FFF1FE453FE4FE6C0C11595E5D907C0
:101BB00008F044C0C11524E5D20708F000C1C115E2
:101BC00032E5D30710F5C11581E5D80708F0E3C069
:101BD0002C2F237081E090E002C0880F991F2A9576
:101BE000E2F79C689E0174E0369527957A95E1F7B7
:101BF0002370922BEC2FEF70E695E69530E2E39F91
:101C0000F00111248E2B9F2B50C18C2F8695869529
:101C1000AE0143705527C115D34508F0C1C090E20D
:101C2000899F9001112481E090E002C0880F991FE4
:101C30004A95E2F7822B932B9C6837C1C1152AE5A0
:101C4000D207A0F4C11539E5D30708F0C6C0C11505
:101C500086E5D80708F4B8C0C11598E5D90708F497
:101C6000D4C09C2F8827806F906A1FC1C1152BE5B7
:101C7000D20708F4CAC0CE01C1153CE5D30708F469
:101C8000C1C090568115904208F0BFC08D2F8F7152
:101C90000E946C05FE01FF27F0628F719F01382BB7
:101CA000AFC0C53AD10509F4B3C0C63AD10509F0B1
:101CB000B2C082E890E4F9C0C83AD10509F4AEC0D8
:101CC000C93AD10509F4ADC0CA3AD10509F4ACC08E
:101CD000CB3AD10509F4ABC0CC3AD10509F4AAC07E
:101CE000CB3BD10509F4A9C0CC3BD10509F4A8C070
:101CF000CD3AD10509F4A7C0C03BD10509F4A6C06F
:101D0000CE3AD10509F4A5C0CF3AD10509F4A4C053
:101D1000C13BD10509F4A3C0C23BD10509F4A2C05F
:101D2000C33BD10509F4A1C0C43BD10509F4A0C04F
:101D3000C53BD10509F49FC0C63BD10509F49EC03F
:101D4000C73BD10509F49DC0C83BD10509F49CC02F
:101D5000C93BD10509F49BC0CD3BD10509F49AC01C
:101D6000CE3BD10509F499C0CA3BD10509F498C00E
:101D700080E094E49AC08591949197C09E013327A6
:101D8000C901D3FF02C0986C90C0906C8EC0CE0188
:101D90009F70906A8AC09C2F8827816F906A85C047
:101DA00090E2899F9001112481E090E002C0880FA9
:101DB000991F4A95E2F7822B932B9A6876C09C2F45
:101DC0008827846F906A71C08C2F0E946C058F7178
:101DD00090E0982F8827906268C08C2F8F700E94A7
:101DE0006C05FE0194E0F695E7959A95E1F7EF70A2
:101DF000F0E0FE2FEE27F06A8F70806E9F01282B97
:101E0000C90153C09927906650C080E090E04DC052
:101E100081E890E44AC083E890E447C082EE94E40D
:101E200044C089EE94E441C08AEE94E43EC085EB60
:101E300094E43BC086EB94E438C083EB94E435C073
:101E400084EB94E432C087EB94E42FC08CEC94E4F0
:101E50002CC08DEC94E429C083E895E426C08AE880
:101E600095E423C082E995E420C084E995E41DC08F
:101E700081E296E41AC083E296E417C084E296E415
:101E800014C085E296E411C086E296E40EC087E2B3
:101E900096E40BC08FE694E408C080E794E405C0A4
:101EA0008AE296E402C080EE90E0DF91CF9108953F
:101EB00080E290E090931501809314018091F001ED
:101EC000811111C01092B9008CE08093B80081E0BC
:101ED0008093F0012FEF83ED90E3215080409040FC
:101EE000E1F700C0000080E40E94B31E909315014A
:101EF00080931401892B09F040C080E00E948C1E61
:101F00009093150180931401892BB9F580E00E940C
:101F10008C1E9093150180931401892B71F58FE32A
:101F20000E948C1E9093150180931401892B29F532
:101F300084E98093BC0080E40E94B31E9093150155
:101F400080931401892BC9F48CE00E948C1E90931D
:101F5000150180931401892B81F480E00E948C1E6E
:101F60009093150180931401892B39F48FE30E941B
:101F70008C1E909315018093140184E98093BC001A
:101F800080911401089556985E9825982D9826986A
:101F90002E9827982F988FEF90E090938900809348
:101FA000880090938B0080938A0090938D0080939B
:101FB0008C00259A2D9A2FEF80E792E021508040E7
:101FC0009040E1F700C00000269A2E9A2FEF80E79C
:101FD00092E0215080409040E1F700C00000279A35
:101FE0002F9A2FEF80E792E0215080409040E1F758
:101FF00000C0000025982D982FEF80E792E0215037
:1020000080409040E1F700C0000026982E982FEF06
:1020100080E792E0215080409040E1F700C000004E
:1020200027982F9856985E9825982D9826982E9840
:1020300027982F98089584B1807F84B985B1807FD7
:1020400085B98AB1837F8AB98BB1837F8BB93E987A
:102050004698089580B38C7080BB81B3836F81BB39
:102060000895AF92BF92CF92DF92EF92FF920F93BB
:102070001F93CF93DF938091140190911501892BC9
:1020800091F08091EF018F5F8093EF0181110BC080
:102090000E94580F90E09093150180931401892BB2
:1020A00011F40E94C30F07EF12E04EEFE42E42E05E
:1020B000F42E6801C0E0B12C37E0A32EAC0E8C2FBB
:1020C0000E944B068A2D0E944B068C2F0E949A0676
:1020D000D6019C91981719F08C93D1E001C0D0E003
:1020E0008A2D0E949A06F7019081981719F0808333
:1020F00081E001C080E0D82BBD2A0E941B10CF5F79
:10210000FFEFCF1ADF0A6FEFE61AF60AC730A1F623
:102110000E94182A6AEF70E00E94AE30782F60911A
:10212000EE01662381F11092EE01E091F102F0914F
:10213000F202DF01AC5ABF4FF12C2BEFE22ECAEFB7
:10214000D0E0AF014A5F5F4F20812B3F99F0C22E54
:10215000D12C721720F09C012C193D0905C09E015D
:102160002C193D09280F391F2530310514F0E08264
:1021700001C0F62E3196E417F50731F7EA17FB0791
:1021800001F7F092EE01BB20A1F14091F1025091D4
:10219000F2026091EE01EBE0F3E0EE24E394F12C27
:1021A0009EE0D92EDE0ED8019D918D018081982769
:1021B000DA0120E030E0E701022E01C0CC0F0A94E2
:1021C000EAF7CC2EC92241F0CC90DBEFBD2ECB102C
:1021D00003C07C938C2761E011962F5F3F4F263020
:1021E000310549F74A5F5F4F8193DE12DCCF609380
:1021F000EE0181E0DF91CF911F910F91FF90EF9061
:10220000DF90CF90BF90AF9008954F925F926F9202
:102210007F928F929F92AF92BF92CF92DF92EF9276
:10222000FF920F931F93CF93DF93CDB7DEB727971E
:102230000FB6F894DEBF0FBECDBFFC01F080118158
:1022400083819481892B11F40C94CB191F3F31F4B5
:1022500044244A94F41411F40C94CB196F0185E0D2
:10226000DE01119601900D928A95E1F7D601129642
:102270002C9189819A81222349F00E94261A082FE5
:10228000682F89819A810E94C61A03C00E94991AF8
:10229000082FB6E01B9FF001112414E5019FE00D0B
:1022A000F11D1124EF0DF11DEE0FFF1FEA52FD4F3E
:1022B00005911491F801E45FFC45D60112968C91CA
:1022C000EC30F10508F01CC1E35AFF4F0C94D630F6
:1022D000882311F40C94CB19C4C0882311F40C94F6
:1022E000CB19DEC0882311F40C94CB190E94C70CC3
:1022F00081E00E94C40C4DEC60E03EC0882311F4E4
:102300000C94CB190E94C70C81E00E94C40C4BEBCB
:102310006CE58DE290E027960FB6F894DEBF0FBE15
:10232000CDBFDF91CF911F910F91FF90EF90DF9084
:10233000CF90BF90AF909F908F907F906F905F9065
:102340004F900C94550C882311F40C94CB190E94D7
:10235000C70C81E00E94C40C4FEF6FEF86E290E063
:10236000DACF882311F40C94CB190E94C70C81E0BA
:102370000E94C40C4FEF6FEF80E090E0CCCF882339
:1023800011F40C94CB190E94C70C81E00E94C40C7C
:1023900049E867ECF1CF882311F40C94CB190E9423
:1023A000C70C81E00E94C40C4FEF0AC0882311F4CF
:1023B0000C94CB190E94C70C81E00E94C40C40E829
:1023C0006FEF8FEF90E0A7CF882309F4E4C70E9456
:1023D000C70C81E00E94C40C4DEB6FEF88E790E0E2
:1023E0009ACF882309F4D7C70E94C70C81E00E94C6
:1023F000C40C4FEF6DED88EB90E08DCF882309F48E
:10240000CAC70E94C70C81E00E94C40C4FEF6FEF57
:1024100080EF90E080CF10924502D60112969C91F9
:102420000A3CBCE51B0709F4D2C208F454C1013DC3
:10243000FCE51F0709F44FC360F1053D2CE51207C9
:1024400009F46FC308F48BC10D3DBCE51B0709F40B
:1024500073C30E3DECE51E0709F089C1992309F409
:102460009AC727960FB6F894DEBF0FBECDBFDF9197
:10247000CF911F910F91FF90EF90DF90CF90BF9081
:10248000AF909F908F907F906F905F904F900C9443
:10249000D12A0D3C3CE5130729F4992309F47BC7A5
:1024A00081E016C00E3C8CE5180708F44EC10F3CC5
:1024B000ECE51E0709F4F9C208F002C3992309F4F8
:1024C0006AC70E94400B8250833008F4FDC182E04D
:1024D00027960FB6F894DEBF0FBECDBFDF91CF9128
:1024E0001F910F91FF90EF90DF90CF90BF90AF9032
:1024F0009F908F907F906F905F904F900C94C40C42
:10250000882309F498C0033EBCE51B07C1F050F4D2
:10251000013EFCE51F0781F0023E2CE51207B9F4ED
:1025200081E010C0043E3CE5130759F0053E8CE500
:10253000180769F484E006C01092F30205C082E037
:1025400001C083E08093F3020E94F50C74C0013057
:1025500090E8190708F46FC07801E894F7F88091C3
:10256000C202809344021092C2028091F302813031
:1025700071F048F08230D9F08430F9F486EE0E9490
:10258000841E88E118C082EE0E94032C16C080EEE3
:102590000E94032C81EE0E94032C88E10E94841E7D
:1025A00081EE0E94A32B80EE0E94A32B06C082EE38
:1025B0000E94032C87E50E94841EAFE3BCE91197BB
:1025C000F1F700C000009CE0A92EB12CC7010A2C35
:1025D00002C0969587950A94E2F7282F2F7041F054
:1025E000822F90E02A3010F44D9604C0069702C066
:1025F00087E290E00E94841EB4E0AB1AB108ECEFD1
:10260000AE16EFEFBE0611F78091F302813039F07C
:1026100040F0823031F0843051F488E206C08CE220
:1026200004C082EE0E94A32B02C00E94841E8091EF
:1026300044028093C202003FFCE51F07E9F190F4D9
:10264000083D3CE51307E1F0093D8CE5180709F466
:102650003FC0073D9CE5190709F0DDCE26E241EEBB
:1026600061EE11C0023FACE51A0771F148F1033F7A
:10267000ECE51E0709F0CFCE27E246EE66EE03C07A
:1026800027E245EE65EEC60127960FB6F894DEBF49
:102690000FBECDBFDF91CF911F910F91FF90EF90B3
:1026A000DF90CF90BF90AF909F908F907F906F9072
:1026B0005F904F900C94340826E240EE60EEE3CF3A
:1026C00027E244EE64EEDFCF26E242EE62EEDBCF9D
:1026D00028E241E0D7CF033CFCE51F0709F4CEC058
:1026E000E0F405313CE5130770F402308CE518077F
:1026F00008F029C20115ACE51A07F1F101301C45BB
:1027000009F47CC0C3C20631ECE51E0709F486C299
:10271000023C1C4509F47BC0B9C2063C2CE51207FB
:1027200009F4FDC050F4043C8CE5180709F4C5C059
:10273000053C1C4509F4E0C0A9C2083CBCE51B07E8
:1027400009F423C108F40DC134C10B3CACE51A07F0
:1027500009F471C10C3C1C4509F475C197C2033DD5
:102760008CE5180709F4CDC108F4C0C1CFC10C3DF8
:102770001C4509F08BC2DAC1992309F40CC61092EA
:10278000C2020E94601E0FEF14E32CE001501040C3
:102790002040E1F700C00000F89481E08093E00061
:1027A00080E28093D8001092C9008FE19EE40197E7
:1027B000F1F700C000001DBA109268001CBC10BEEA
:1027C0001FBA10927A0010926E0010926F00109251
:1027D0007100109272001092C9001092BC0014B8DF
:1027E00017B81AB81DB810BA1092BC0015B818B8AE
:1027F0001BB81EB811BA0C94003FCDC5992309F43B
:10280000CAC580912303816080932303C4C59923A3
:1028100009F4C1C58091380380FF18C027960FB610
:10282000F894DEBF0FBECDBFDF91CF911F910F9106
:10283000FF90EF90DF90CF90BF90AF909F908F90E0
:102840007F906F905F904F900C94580C27960FB626
:10285000F894DEBF0FBECDBFDF91CF911F910F91D6
:10286000FF90EF90DF90CF90BF90AF909F908F90B0
:102870007F906F905F904F900C94C70C992309F450
:102880008AC58091C2028272F9F027960FB6F89439
:10289000DEBF0FBECDBFDF91CF911F910F91FF9093
:1028A000EF90DF90CF90BF90AF909F908F907F90F0
:1028B0006F905F904F900C94D00C992309F46BC5E6
:1028C0008091C202827209F327960FB6F894DEBF98
:1028D0000FBECDBFDF91CF911F910F91FF90EF9071
:1028E000DF90CF90BF90AF909F908F907F906F9030
:1028F0005F904F900C94DA0C992309F44CC5209109
:102900003803221F2227221F30913903432F440FFF
:10291000842F822B37FB992790F90C9618C09923A6
:1029200009F439C520913803221F2227221F309134
:102930003903432F440F842F822B37FB992790F9BB
:102940008C3091051CF4845A9E4F01C00C9768E6A8
:1029500071E00E94C23021E040913B0360913A0354
:1029600052C0992309F417C580913803881F88271E
:10297000881F90913903392F330F97FB992790F9CE
:1029800021E040913B036FEF3DC0992309F403C55B
:1029900080913803881F8827881F90913903392F29
:1029A000330F97FB992790F921E040913B0360E0BA
:1029B00029C0992309F4EFC440913B03842F90E090
:1029C000843F910514F4445F0EC04FEF0CC099236F
:1029D00009F4E1C440913B03842F90E00C9714F07C
:1029E0004C5001C040E080913803881F8827881F21
:1029F00090913903392F330F97FB992790F921E0F4
:102A000060913A03832B27960FB6F894DEBF0FBE72
:102A1000CDBFDF91CF911F910F91FF90EF90DF908D
:102A2000CF90BF90AF909F908F907F906F905F906E
:102A30004F900C949B0B992309F4ADC480913C03F7
:102A400090E001960BC0992309F4A5C480913C0342
:102A500090E0019797FF02C080E090E084309105FC
:102A600014F083E090E080933C0360913803709110
:102A7000390380913A0390913B0327960FB6F8945F
:102A8000DEBF0FBECDBFDF91CF911F910F91FF90A1
:102A9000EF90DF90CF90BF90AF909F908F907F90FE
:102AA0006F905F904F900C947F0B992309F473C43F
:102AB0000E94400B8650823008F406CF86E008CD95
:102AC000992309F468C40E94400B8950853008F4AA
:102AD000FBCE89E0FDCC992309F45DC40E94400B34
:102AE0008F50853008F4F0CE8FE0F2CC992309F4B2
:102AF00052C40E94400B8551823008F4E5CE85E136
:102B0000E7CC992309F447C488E1E2CC992309F47E
:102B100042C40E94400B8951893008F4D5CE89E126
:102B2000D7CC992309F437C483E2D2CC992309F492
:102B300032C410923F032FC4992309F42CC482E0BD
:102B400080933F0328C4992309F4A0C00E94C62A99
:102B5000811102C00E94D12A84E090E00E941D2DC4
:102B600090E09093060380930503F801E350FC4541
:102B7000E231F10530F4E759FF4F809105030C94E1
:102B8000D63080910503816027C0826025C08460B3
:102B900023C0806121C080621FC080641DC0806826
:102BA0001BC08460886018C08E7F16C08D7F14C0E3
:102BB0008B7F12C08F7E10C08F7D0EC08F7B0CC0AC
:102BC0008F770AC08B7F877F07C087FB222720F97A
:102BD00091E0922790FB87F98093050360910503AC
:102BE00084E090E00E94312D1092C20227960FB629
:102BF000F894DEBF0FBECDBFDF91CF911F910F9133
:102C0000FF90EF90DF90CF90BF90AF909F908F900C
:102C10007F906F905F904F900C94601E8091C202E5
:102C2000992389F0982F9A7A81E009F480E08093C3
:102C30004602811102C069E201C065E380E493E0CD
:102C40000E948E2A0BC080914602811102C069E267
:102C500001C065E380E493E00E94632A27960FB6E3
:102C6000F894DEBF0FBECDBFDF91CF911F910F91C2
:102C7000FF90EF90DF90CF90BF90AF909F908F909C
:102C80007F906F905F904F900C94352BF6010081F0
:102C90001181992349F0C8010E94261AF82E682F45
:102CA000C8010E94C61A04C0C8010E94991AF82ED1
:102CB000B8018F2D0E94FB0C8C01282FD601159690
:102CC0009C91159792959F701296FC90F11010921E
:102CD000640380916203877099F0FF2089F080E29D
:102CE000800F883068F082E02F839E830E948A2BB9
:102CF000809162038770EE24E3942F819E8181117D
:102D0000E12CA12EA2948FE0A822B12CBCE0AB163E
:102D1000B10408F002C3F501E558FF4F0C94D6301A
:102D2000812F807F1F70882311F01295107FFF2064
:102D3000B9F0112309F482C280E2800F883010F0CC
:102D4000211106C09091C202192B1093C20205C036
:102D500090916403192B109364030E94352B6EC26B
:102D6000802F2F830E94A32B2F81112309F4D5C21A
:102D7000005E083010F0211104C0812F0E942E2B1C
:102D800006C01095909164031923109364030E9468
:102D9000352BC3C2812F807F1F70803211F01295B6
:102DA000107F222319F02130D9F143C0FF2021F1F7
:102DB0009923F1F0913079F480916703182B8117F2
:102DC00009F4ABC20E94182A9093660380936503AE
:102DD00010936703A2C2933059F40E94232B809171
:102DE000BE0218131093BE02812F0E947A1E95C254
:102DF00080916703812BF9CF992349F0913069F4D1
:102E00008091C202812309F488C20E94201A0E9484
:102E1000232B812F0E94731E80C29330C1F77DC285
:102E2000FF2021F0923008F078C2DECF911175C2F8
:102E3000F0CFFF2019F09923B9F200C2992349F38A
:102E40000FC2812F86958695837090E0009719F0C8
:102E5000019759F062C2FF2019F0C801937002C0B7
:102E600080E090E00E94120866C2FF2019F0C801BD
:102E7000937002C080E090E00E94FC075CC2FF20DB
:102E8000F9F0053F51F0063F71F0043FA9F480913D
:102E900047029091480281600BC080914702909157
:102EA0004802826005C08091470290914802846088
:102EB0009093480280934702802F0E9460291EC091
:102EC000053F51F0063F71F0043FA9F4809147029D
:102ED000909148028E7F0BC08091470290914802EA
:102EE0008D7F05C080914702909148028B7F90931F
:102EF000480280934702802F0E949B280E94242A28
:102F00001AC2812F837009F079C0F11012C2802F8C
:102F1000829586958770880F880F402F4F7050E0FC
:102F200060E070E04A015B01082E04C0880C991C27
:102F3000AA1CBB1C0A94D2F704FF14C04FE050E057
:102F400060E070E02A013B0104C0440C551C661C83
:102F5000771C8A95D2F7B301A201409550956095F0
:102F6000709503C040E050E0BA01169516951370B5
:102F7000812F90E0009168031091690320916A030A
:102F800030916B0382309105A9F083309105E9F00F
:102F9000019759F0482959296A297B29CB01BA019F
:102FA000602371238223932326C0802A912AA22A98
:102FB000B32A1BC0482959296A297B29CB01BA01A8
:102FC000602771278227932716C0CB01BA0160239F
:102FD0007123822393230E94271C40916803509100
:102FE000690360916A0370916B03CB01BA01682990
:102FF00079298A299B290E94271C9BC1FF2019F04F
:10300000812F817001C08695882309F492C1802F99
:10301000829586958770880F880F402F4F7050E0FB
:1030200060E070E04A015B01082E04C0880C991C26
:10303000AA1CBB1C0A94D2F704FF14C04FE050E056
:1030400060E070E02A013B0104C0440C551C661C82
:10305000771C8A95D2F7B301A201409550956095EF
:10306000709503C040E050E0BA01169516951370B4
:10307000812F90E00091BA021091BB022091BC0216
:103080003091BD0282309105A9F083309105E9F0BD
:10309000019759F0482959296A297B29CB01BA019E
:1030A000602371238223932326C0802A912AA22A97
:1030B000B32A1BC0482959296A297B29CB01BA01A7
:1030C000602771278227932716C0CB01BA0160239E
:1030D0007123822393230E94F61A4091BA025091E1
:1030E000BB026091BC027091BD02CB01BA0168299C
:1030F00079298A299B290E94F61A1BC1402F50E08A
:10310000FA01E05EF109E531F10508F092C0E957F6
:10311000FF4F0C94D6300F70812F8F71FF2021F05C
:103120000E94F61B802F61CE0E94D11B802F72CE91
:10313000FF2009F19111F1C01F7181E090E0A0E042
:10314000B0E0AC01BD0104C0440F551F661F771FDE
:103150001A95D2F78091BA029091BB02A091BC025D
:10316000B091BD028A019B01082719272A273B2716
:10317000C901B80126C0923008F0CFC0DDCFFF20D2
:1031800039F0812F8F710E94F61BC7C0FF20C9F351
:10319000812F8F710E94D11BC0C0FF2079F01F7159
:1031A00081E090E0A0E0B0E0BC01CD0104C0660F7A
:1031B000771F881F991F1A95D2F703C060E070E04F
:1031C000CB010E94F61AA9C0FF20E1F08091BE0257
:1031D0009E830E942E2B8091620387709E81843093
:1031E00039F40E94832B812F8F710E94D11BD1C093
:1031F000933008F0CEC01F71812F0E94F61B63E050
:10320000812F10C02091C2028091BE02822B809338
:10321000C202933050F00E94832B0E94201A64E077
:10322000812F8F710E94171CB4C081E00E948A2BED
:10323000B0C0FF2039F0992309F4A3CF802F0E945A
:10324000032C6BC0992309F4A3CF093349F41FEF72
:1032500027EE33E0115020403040E1F700C000007D
:10326000802F0E94A32B59C0223FB1F028F4203FA9
:1032700049F0213FF9F028C0243FB9F058F0253F2C
:1032800071F022C0FF2009F456C090914A0281E0FB
:10329000892708C081E0F826F0924A024CC0F1105C
:1032A0004AC081E080934A0246C0F11044C01092A7
:1032B0004A0241C0FF2029F080914902882329F366
:1032C00029C0992311F337C0809149029923C1F095
:1032D000882341F090914A0281E0892780934A0235
:1032E00010924902802FFF2019F00E94032C23C066
:1032F0000E94A32B86E0D6011D928A95E9F71BC098
:103300008823C9F0F11017C090914A0281E0892703
:1033100080934A02109249020EC0B8E0AB16B10485
:1033200041F04CF0FAE0AF1AB10802E0A016B10487
:1033300010F40E942808EE2071F18091620380FD54
:103340002AC0D60112961C928595859585950E9476
:10335000F61BC6010E940511809162038595859533
:10336000859527960FB6F894DEBF0FBECDBFDF91CF
:10337000CF911F910F91FF90EF90DF90CF90BF9072
:10338000AF909F908F907F906F905F904F900C9434
:10339000D11BE12CCECF27960FB6F894DEBF0FBE1F
:1033A000CDBFDF91CF911F910F91FF90EF90DF90F4
:1033B000CF90BF90AF909F908F907F906F905F90D5
:1033C0004F90089510926403109263030E94352B6E
:1033D000E9E1F3E086E0DF011D928A95E9F71092BA
:1033E0001F03109270030E94242A80E090E00E9444
:1033F000120880E090E00C94FC070E94182A2091AB
:103400006503309166038217930750F00E94182AD3
:103410002091650330916603821B930B9C010AC0C7
:103420000E94182A209165033091660320953095FB
:10343000280F391F81E0283B3B4008F480E00895C5
:103440008091BE0281111092BE020895BF92CF9268
:10345000DF92EF92FF920F931F93CF93DF938C0134
:10346000C0906803D0906903E0906A03F0906B030A
:103470008091BA029091BB02A091BC02B091BD02B2
:10348000C82AD92AEA2AFB2ACFE1D0E0D701C6010F
:103490000C2E04C0B695A795979587950A94D2F7F8
:1034A00080FF07C0BC2EB8018C2F0E94FB0C019737
:1034B00019F4219758F7B12C8B2DDF91CF911F91E3
:1034C0000F91FF90EF90DF90CF90BF900895CF9332
:1034D000DF93EC010E94261ABE010E94FB0CDF91D3
:1034E000CF9108950E94671A292F2F7092959F708F
:1034F000E92FF0E03297EE30F105B8F4E456FF4FD3
:103500000C94D630803F99F018F4803E70F40FC0D0
:10351000843F59F40CC0803E50F0813F31F407C025
:10352000822F869586958695089580E0089581E09E
:103530000895292F220F920F990F890F682F6695F2
:1035400066956695982F977085E0689FB001112465
:1035500040E050E080E0FA01E60FF71FED57FD4F25
:10356000208130E0092E02C0369527950A94E2F7B3
:1035700021703327042E01C0220F0A94EAF7822B10
:103580004F5F5F4F4530510531F70895292F220FC6
:10359000920F990F890FA82FA695A695A6958770CB
:1035A00051E001C0550F8A95EAF785E0A89FD00148
:1035B000112420E030E070E0F901EA0FFB1FED5725
:1035C000FD4F4081CB01022E02C0969587950A944B
:1035D000E2F781709927819584278523842780834A
:1035E0002F5F3F4F2530310539F70895CF92DF9295
:1035F000EF92FF926B017C01AA27BB270097A105E0
:10360000B10511F0E0E103C0D701C601E0E0492FA8
:103610005A2F6B2F7727411551056105710519F058
:10362000E85FDB01CA01AC01BD01F4E07695679566
:1036300057954795FA95D1F74115510561057105E3
:1036400019F0EC5FDB01CA01AC01BD0132E07695F7
:103650006795579547953A95D1F7411551056105FD
:10366000710519F0EE5FDB01CA01B695A795979534
:103670008795892B8A2B8B2B09F0EF5F56985E98E4
:1036800025982D9826982E9827982F988E2F90E081
:10369000FC013197E730F105F0F4E655FF4F0C944B
:1036A000D630259A2D9A63C0279A2F9A4AC0259A18
:1036B0002D9A269A2E9A50C0259A2D9A09C0269A9C
:1036C0002E9A279A2F9A48C0259A2D9A269A2E9A92
:1036D000279A2F9A4CC08830910508F054C0FC01FD
:1036E000EF54FF4F0C94D63088E090E00E94252DD7
:1036F000609338037093390380933A0390933B03AC
:1037000060FF1CC00E94C70C8091380386958F73A0
:103710000E94C40C80913803881F8827881F9091CD
:103720003903292F220F97FB992790F940913B03EA
:1037300060913A03822B0E94550C25C00E94580CC0
:1037400022C00E94BB0C81E00E94B80C20E04FEF29
:103750006FEF88E290E015C00E94BB0C81E00E94F0
:10376000B80C20E04FEF6FEF80E290E00AC00E94BB
:10377000BB0C81E00E94B80C20E04FEF6FEF80E1BE
:1037800090E00E949B0BC092BA02D092BB02E092E2
:10379000BC02F092BD02FF90EF90DF90CF900C94AE
:1037A000E2190F931F9341E050E060E070E004C025
:1037B000440F551F661F771F8A95D2F74095509585
:1037C000609570958091BA029091BB02A091BC0265
:1037D000B091BD028A019B01082319232A233B23B0
:1037E000C901B8011F910F910C94F61A0F931F9302
:1037F00041E050E060E070E004C0440F551F661FD8
:10380000771F8A95D2F78091BA029091BB02A0915E
:10381000BC02B091BD028A019B01082B192B2A2BF7
:103820003B2BC901B8011F910F910C94F61A98E037
:10383000899F90011124262B209362030E94F61B7E
:103840000E94182A90936103809360030895609307
:1038500068037093690380936A0390936B030C94DD
:10386000E2198091820290915102891719F08F5FBD
:103870008770FBCF08958091500282958F7009F078
:1038800054C080914D02882309F44FC08091820278
:10389000A091510260914B0270914C0240914E02F6
:1038A00050914F02B6E08A1709F43FC090E04115ED
:1038B0005105C1F17F3F11F46F3FA1F1B89FF001B5
:1038C000B99FF00D1124EE5AFD4F218172132AC0C9
:1038D0002081621327C02281211124C023813481D9
:1038E0002417350710F421503109241B350B283CCF
:1038F0003105C0F4209150022F70206120935002B6
:1039000026E0289FF001299FF00D1124E95AFD4F70
:1039100080818F70806180838BE492E00E9405112A
:103920000C94311C01968770BECF0895BF92CF9240
:10393000DF92EF92FF920F931F93CF93DF93CDB758
:10394000DEB761970FB6F894DEBF0FBECDBF8C0116
:1039500085E0F801DE011D9601900D928A95E1F750
:10396000D8013C9111962C9111971296EC901297D8
:103970001396CD90DC90149750914B0260914C02BD
:1039800080914E0290914F02009709F44FC16F3F12
:1039900019F45F3F09F44AC1B0904D02BB2009F40D
:1039A000ECC040915002C816D90628F0F601E81B79
:1039B000F90BCF0104C0809590958C0D9D1DFF24BF
:1039C000F394883C910548F0F12C407F09F09FC0AA
:1039D0008BE492E00E94051121C1842F807F09F0C1
:1039E00044C0621312C0531310C0E1100EC04F70D8
:1039F0004061409350028BE492E00E940511809157
:103A00005002D80115968C932EC0CD2819F12F3F66
:103A100011F43F3FF9F0FE2CE1101CC080918202AE
:103A20004091510256E0841709F458C090E0589F25
:103A3000F001599FF00D1124EE5AFD4F61812613BC
:103A400006C06081361303C06281611103C0019614
:103A50008770E9CFFE2CEE2009F421C1809150023D
:103A6000816080935002F12C1AC162130AC0531373
:103A700008C0E11006C080915002D80115968C93C1
:103A8000B0C03D872E878D859E850E94721A88233F
:103A9000D1F1EE20C1F120915002822F82958F70DA
:103AA00090E0029774F080914B0290914C029887BD
:103AB0008F831986DB86CA862C87CE0107960E94E3
:103AC000051186E0F801ABE4B2E001900D928A9511
:103AD000E1F70E943B1CFF24F394E1C03D872E8751
:103AE0008D859E850E94671A292F22952F7030E0C0
:103AF000223031050CF0C7C09F7009F0C1C0805E54
:103B0000883008F4CCC0C8010E940511E4CF6213CC
:103B100014C0531312C0E11010C080915002F8017C
:103B20008583C8010E94051186E0EBE4F2E0DF0125
:103B30001D928A95E9F7FB2CB2C03D872E878D85B3
:103B40009E850E94721A8823F1F2EE20E1F2209104
:103B50005002822F82958F7090E002970CF4B1CFC3
:103B600080914B0290914C029A8389831B82DD8263
:103B7000CC822E83CE010196A2CFC816D90638F08A
:103B8000C81AD90AB8ECCB16D10450F007C08095FA
:103B900090958C0D9D1D883C910510F0F12C3EC038
:103BA000FE2CEE2009F4AFCF621327C0531325C0BB
:103BB0002091500220FD18C0822F82958F70482FCF
:103BC00050E04115510581F0F80125834F30510532
:103BD00041F08F5F982F9295907F822F8F70892B65
:103BE0008583C8010E94051186E0F801ABE4B2E0CC
:103BF00001900D928A95E1F752C03D872E878D8501
:103C00009E850E94721A81115CCF80915002816062
:103C100080935002C8010E94051141C0EBE4F2E01C
:103C200086E0DF011D928A95E9F739C0EE2009F49C
:103C30006ACF3D872E878D859E850E94721AF82E49
:103C4000882309F460CF86E0F801ABE4B2E001908C
:103C50000D928A95E1F780914B0290914C020E945F
:103C6000671A92959F70963041F480914A0291E0D4
:103C7000892780934A02909349020E943B1C0FC0FF
:103C800081113DCF0CC0243031050CF03CCF9F702A
:103C900009F435CFF8019581907F09F030CF8F2D51
:103CA00061960FB6F894DEBF0FBECDBFDF91CF9106
:103CB0001F910F91FF90EF90DF90CF90BF900895EC
:103CC00080911301882331F08091050387FF02C0A2
:103CD0008EE101C086E0E2E4F3E0DF011D928A9507
:103CE000E9F70C94E219882321F00E942E2B0C9402
:103CF000352B0895882339F09091C202892B809347
:103D0000C2020C94352B0895CF93C82F0E94032C28
:103D10008C2FCF910C94A32BCF93DF938093BB0078
:103D200084E88093BC000E94182AEC019091BC00AA
:103D300097FD0AC00E94182A8C1B9D0B84369105A2
:103D4000A8F38EEF9FEF0CC02091B900287F81E08F
:103D500090E0283211F480E090E0919581959109EE
:103D6000DF91CF9108950F931F93CF93DF93C82FC7
:103D70001092BC0084EA8093BC000E94182A8C0137
:103D80009091BC0097FD0AC00E94182A801B910BDD
:103D900084369105A8F38EEF9FEF2AC09091B90069
:103DA000987F983041F09091B900987F903119F048
:103DB0008FEF9FEF1DC0C093BB0084E88093BC00D1
:103DC0000E94182AEC019091BC0097FD08C00E9447
:103DD000182A8C1B9D0B84369105A8F3DCCF8091AB
:103DE000B900887F883111F0803411F780E090E0CD
:103DF000DF91CF911F910F910895CF92DF92FF92A3
:103E00000F931F93CF93DF931F92CDB7DEB7F82E9A
:103E10008B0199830E94B123998181111CC0CF2C01
:103E2000D92E01151105B1F08091E80085FD0AC079
:103E30008091E8008E778093E8000E94B123882368
:103E400081F309C0F60181916F018093F100015067
:103E50001109E7CF80E00F90DF91CF911F910F9173
:103E6000FF90DF90CF9008951F93CF93DF93CDB74E
:103E7000DEB7AA970FB6F894DEBF0FBECDBFE9EE4E
:103E8000F2E088E08E0F9091F10091938E13FBCFBA
:103E90008091EA02833009F460C030F4813071F01F
:103EA000823009F49CC0B3C08A3009F488C08B30DA
:103EB00009F46BC0893009F0AAC020C08091E902E2
:103EC000813A09F0A4C08091E800877F8093E800E0
:103ED0008091ED029091EE02892B21F460E285EC55
:103EE00092E003C060E080E090E070E00E94372440
:103EF0008091E8008B778093E80089C08091E90287
:103F0000813209F084C08091ED029091EE02029717
:103F100008F07DC08091E800877F8093E800809161
:103F2000E80082FD05C08091E7028111F8CF6FC0E3
:103F30002091F3008091F20090E0922B029729F4F7
:103F40008091F1008B7F813021F48091F10080938A
:103F5000C4028091E8008B7756C08091E902813AD3
:103F600009F055C08091ED029091EE02892B09F085
:103F70004EC08091E800877F8093E8008091E80040
:103F800080FFFCCF8091130139C08091E90281321A
:103F9000F1F58091ED029091EE02892BC1F58091AF
:103FA000E800877F8093E8000E94E3238091EB0282
:103FB000809313011092C2020E94601E28C080915B
:103FC000E902813221F58091E800877F8093E80043
:103FD0000E94E3238091EC028093C30218C0809179
:103FE000E902813AA1F48091E800877F8093E8009C
:103FF0008091E80080FFFCCF8091C3028093F100A4
:104000008091E8008E778093E8000E94E3238091FE
:10401000E80083FFD6C18091E9029091EA02492F1E
:1040200050E04A30510508F0CCC1FA01E754FF4F87
:104030000C94D630803821F0823809F0C2C108C013
:104040008091E5029091E602992389F082600FC089
:104050008091ED028F70873008F0B3C18093E90042
:104060008091EB0085FB882780F91092E900909100
:10407000E800977F9093E8008093F1001092F100A0
:1040800074C1282F2D7F09F09CC1882319F082303C
:1040900061F097C18091EB02813009F092C19330B9
:1040A00009F080E08093E6022EC08091EB0281113E
:1040B0002AC08091ED028F702FEF280F263008F074
:1040C00080C18093E9002091EB0020FF1CC0933059
:1040D00021F48091EB00806214C09091EB0090611C
:1040E0009093EB0021E030E0A90102C0440F551F7E
:1040F0008A95E2F74093EA001092EA008091EB0083
:1041000088608093EB001092E9008091E800877F3F
:104110002FC1811156C11091EB021F778091E300EE
:104120008078812B8093E3008091E800877F8093E3
:10413000E8000E94E3238091E80080FFFCCF80919B
:10414000E30080688093E300111102C082E001C0A7
:1041500083E08093E70235C18058823008F031C196
:104160008091EB029091EC028C3D53E0950779F53C
:1041700083E08A838AE289834FB7F894DE0113963D
:1041800020E03EE051E2E32FF0E050935700E4914D
:1041900020FF03C0E295EF703F5FEF708E2F90E03D
:1041A000EA3010F0C79601C0C0968D939D932F5FA3
:1041B000243149F74FBF8091E800877F8093E80062
:1041C0006AE270E0CE0101960E943724BDC04091A2
:1041D000ED025091EE02292F332723303105B9F03B
:1041E0006CF42130310509F4FBC02230310509F0AF
:1041F000E8C08BE390E0E6E1F9E054C021323105FC
:1042000009F433C02232310509F43CC0DAC09927E1
:1042100081309105D1F05CF4892B09F0D2C0E9E935
:10422000F9E0E4918E2F90E0E9E9F9E038C08230BE
:10423000910599F0039709F0C4C0E3E6F9E0E49131
:104240008E2F90E0E3E6F9E02AC0E1E8F9E0E4919E
:104250008E2F90E0E1E8F9E022C0E9E6F9E0E49190
:104260008E2F90E0E9E6F9E01AC04115510509F4F6
:10427000BCC04130510509F0A4C089E090E0E1E400
:10428000F9E010C04115510509F4B4C041305105A1
:1042900009F097C080EC90E0E6E1F8E003C00097F9
:1042A00009F48FC02091E800277F2093E800209137
:1042B000EF023091F0022817390708F4C90140E0F5
:1042C000009789F12091E702222309F43DC02530AF
:1042D000D9F12091E80023FD37C02091E80022FDAC
:1042E0002FC02091E80020FFEBCF4091F3002091F8
:1042F000F20030E0342B009759F02830310540F4BB
:1043000044914093F100319601972F5F3F4FF3CFD7
:1043100041E02830310509F040E02091E8002E7797
:104320002093E800CDCF4111CDCF0AC08091E702A4
:10433000882351F0853041F08091E80083FD04C06E
:104340008091E80082FFF2CF8091E8008B77809324
:10435000E80037C08038A9F58091E800877F809316
:10436000E8008091E8028093F1008091E8008E7768
:104370008093E8000E94E32324C0811122C01091A1
:10438000EB021230F0F48091E800877F8093E80020
:104390001093E8020E94E323111106C08091E3000C
:1043A00087FD02C081E001C084E08093E70242E023
:1043B00061EC81E00E94022442E261EC82E00E9412
:1043C00002248091E80083FF1AC08091E800877F73
:1043D0008093E8008091EB0080628093EB000FC037
:1043E00082E190E0E1E5F9E05DCF89E090E0E8E28C
:1043F000F9E058CF80E490E0E6EDF8E053CFAA96DC
:104400000FB6F894DEBF0FBECDBFDF91CF911F91E5
:1044100008951F920F920FB60F9211242F933F937E
:104420004F935F936F937F938F939F93AF93BF93BC
:10443000CF93DF93EF93FF93C091E900CF7080910A
:10444000EC00D82FD17080FDD0E81092E900809167
:10445000F000877F8093F00078940E94341F1092C0
:10446000E9008091F00088608093F000CD2BCF7040
:10447000C093E900FF91EF91DF91CF91BF91AF9190
:104480009F918F917F916F915F914F913F912F916C
:104490000F900FBE0F901F901895E8EDF0E080810F
:1044A0008E7F80831092E2001092DA001092E10079
:1044B000A0EEB0E08C9181608C9380818F778083B7
:1044C00019BCA7EDB0E08C918E7F8C9380818F7E9C
:1044D00080831092BF020895CF92DF92EF92FF92F5
:1044E0000F931F93CF93DF93C8EDD0E088818F7E29
:1044F0008883E7EDF0E080818160808384E082BF83
:1045000081E08093BF0288818E7F888302EE10E075
:10451000F80110821092DA0081EEC82ED12CF6013B
:10452000108288818F7788838881806888838881DA
:104530008F7D888319BC1092E7021092E8021092D6
:10454000E6021092E50290EEE92EF12CF70180814F
:104550008B7F808388818160888342E060E080E097
:104560000E940224F60180818E7F8083F801808181
:1045700081608083808188608083F70180818E7F65
:104580008083888180618883DF91CF911F910F9113
:10459000FF90EF90DF90CF9008951F920F920FB68B
:1045A0000F9211242F933F934F935F936F937F93B9
:1045B0008F939F93AF93BF93EF93FF938091E1000D
:1045C00082FF09C08091E20082FF05C08091E10076
:1045D0008B7F8093E1008091DA0080FF2AC0809178
:1045E000D80080FF26C08091DA008E7F8093DA00A9
:1045F0008091D90080FF18C080E189BD82E189BD2A
:1046000009B400FEFDCF81E08093E7028091BF02F4
:1046100081110FC00E944D220E946C228091E20005
:1046200084608093E20005C019BC1092E7021092EA
:10463000BF028091E10080FF17C08091E20080FFFF
:1046400013C08091E2008E7F8093E2008091E200AF
:1046500080618093E2008091D80080628093D800CE
:1046600019BC85E08093E7028091E10084FF3DC0A2
:104670008091E20084FF39C080E189BD82E189BD7B
:1046800009B400FEFDCF8091D8008F7D8093D800C3
:104690008091E1008F7E8093E1008091E2008F7E27
:1046A0008093E2008091E20081608093E20080913B
:1046B000E802882311F084E007C08091E30087FDC1
:1046C00002C081E001C083E08093E7021092C20241
:1046D0000E94601E0E9428081092C1028091C002B0
:1046E00081110E94BB0C0E9493088091E10083FF1E
:1046F00027C08091E20083FF23C08091E100877F83
:104700008093E10082E08093E7021092E8028091BA
:10471000E1008E7F8093E1008091E2008E7F8093A4
:10472000E2008091E20080618093E20042E060E07C
:1047300080E00E9402248091F00088608093F00065
:10474000FF91EF91BF91AF919F918F917F916F9169
:104750005F914F913F912F910F900FBE0F901F903F
:1047600018952091E4003091E50095E64091EC0029
:10477000842F817040FF22C08091E80080FD1CC022
:104780008091E702882391F0853091F08091EB00D1
:1047900085FD10C04091E4005091E5004217530799
:1047A00029F39A01915011F784E0089582E0089569
:1047B00083E0089581E0089580E008954091E80045
:1047C00042FFDECF08958091E90287FF11C08091FA
:1047D000E80082FD05C08091E7028111F8CF11C089
:1047E0008091E8008B770BC08091E702882349F025
:1047F0008091E80080FFF8CF8091E8008E77809369
:10480000E8000895982F973058F59093E90098178D
:1048100039F07091EC002091ED005091F00003C050
:10482000242F762F50E021FF19C03091EB003E7FFE
:104830003093EB003091ED003D7F3093ED003091EF
:10484000EB0031603093EB007093EC002093ED00AF
:104850005093F0002091EE0027FF07C09F5FD3CF59
:104860008F708093E90081E0089580E008952091A1
:10487000EF023091F0022617370748F061157105F5
:1048800039F42091E8002E772093E80001C0B901A7
:1048900040E061157105A9F12091E702222309F496
:1048A00043C0253009F442C02091E80023FD40C0F8
:1048B0002091E80022FD32C02091E80020FFE9CFDE
:1048C0004091F3002091F20030E0342BFC01CF0145
:1048D0006115710559F02830310540F481918093BC
:1048E000F100615071092F5F3F4FF1CF41E0283057
:1048F000310509F040E02091E8002E772093E80090
:10490000C8CF4111C9CF0AC08091E702882361F066
:10491000853061F08091E80083FD0AC08091E80055
:1049200082FFF2CF80E0089582E0089583E0089549
:1049300081E0089580913F03811107C08091E702D3
:10494000843011F081E0089582E00895CF93DF93E1
:10495000CDB7DEB72C970FB6F894DEBF0FBECDBF34
:1049600084B7877F84BF0FB6F894A89580916000C4
:10497000886180936000109260000FBE80E8809391
:1049800061001092610085B7806885BF85B7806837
:1049900085BF0E944D220E946C228091E2008460BB
:1049A0008093E20078948091E7028823A1F010912F
:1049B000E9001F709091EC00892F817090FD80E8D4
:1049C000182B1092E9008091E80083FD0E94341FAB
:1049D0001F701093E90082E084BD93E095BD9AEFCB
:1049E00097BD80936E000E94580F90E09093150140
:1049F000809314010E941B100E942A10A7EFB2E0BE
:104A0000EBE0F3E05EE0D52EDE0E11921D92DE1299
:104A1000FCCF84E590E00E94DC30AC019093F20280
:104A20008093F10220E030E08BEFFA01E20FF31FF8
:104A300096E081939150E9F72A5F3F4F2435310585
:104A4000A1F70E94C62A811102C00E94D12A8CE0DF
:104A500090E00E941D2D90E0A0E0B0E08093F30272
:104A60009093F402A093F502B093F60289EA809342
:104A7000800089E08093810024982C983F988AB127
:104A80008F7C8AB96E98479A8BB180638BB9769A7E
:104A90000E94C30F0E94C62A811102C00E94D12A1F
:104AA00082E090E00E941D2D8093230384E090E03B
:104AB0000E941D2D90E0909306038093050383E0F0
:104AC00090E00E941D2D682F70E080E090E00E9431
:104AD000271C80910703811138C0809123038160D6
:104AE000809323030E94C62A811104C00E94D12A08
:104AF0000E94E50C88E090E00E94252D6093380329
:104B00007093390380933A0390933B036E7771F46B
:104B10000E94E50C88E090E00E94252D6093380308
:104B20007093390380933A0390933B030E94490B9F
:104B300010923E038091380380FF04C086958F73E6
:104B40000E94B80C81E08093070386E191E0909386
:104B50000903809308034DE9E42E49E0F42E809187
:104B6000E702853009F065C08091E702843009F4DE
:104B700041C010920A0320E488E190E00FB6F89457
:104B8000A895809360000FBE2093600010923E03B2
:104B90008091C102811117C081E08093C102809190
:104BA0003803982F91709093C0028E7F80933803C2
:104BB0002FEF30E742E0215030404040E1F700C0A5
:104BC00000000E94AA0883B7817F846083BF83B7F7
:104BD000816083BF7894889583B78E7F83BF0FB63B
:104BE000F894A8958091600088618093600010928D
:104BF00060000FBE8091E602882309F4B0CF0E94C6
:104C0000580F90E090931501809314010E941B109F
:104C10000E942A10EBE0F3E01192DE12FDCF0E9419
:104C20003110EBE0F3E08191811185C1DE12FBCF01
:104C300096CF0E943110E4E2F3E0ABE0B3E000E095
:104C400010E0302F2D9141914227B9F180E090E0A2
:104C500050E0682F5A01082E02C0B594A7940A9418
:104C6000E2F7A0FE26C089833A8381E090E05C01F0
:104C700002C0AA0CBB1C6A95E2F7822F90E08A2141
:104C80009B2121E0892B09F420E02B830E94182A24
:104C90008160782F9D838C8349815A816B818D81BE
:104CA0000E94F306F801EC5DFC4F8081A826A082EB
:104CB0001AC001968630910561F60F5F1F4F0E30C6
:104CC000110509F0BECF8FEF8E838F8318860E9467
:104CD000182A8160782F9A8789874E815F8168853D
:104CE0008A850E94F30680912003909121030E94FF
:104CF000EE299C0190911F03992321F02431310565
:104D000008F478C080911B0310911C0381110BC023
:104D1000111127C120911D03211123C120911E03D0
:104D200021111FC167C09F3F19F09F5F90931F0320
:104D3000181624F40E94402980931B0380911B03C2
:104D400087FF05C00E944029819580931B0311169F
:104D500024F40E94402980931C0380911C0387FF48
:104D600005C00E944029819580931C0330911B034C
:104D70003323E1F020911C032223C1F045EB3403DF
:104D8000C0011124892F990F990B009709F481E034
:104D900080931B0335EB2303C0011124892F990F46
:104DA000990B009709F481E080931C0380911D0307
:104DB000181624F40E94202980931D0380911D035E
:104DC00087FF05C00E942029819580931D03809153
:104DD0001E03181624F40E94202980931E0380913C
:104DE0001E0387FF05C00E942029819580931E0322
:104DF0000E94242A109122030E942808181721F0EB
:104E00000E9428088093220380913E03882309F49E
:104E1000A6CE80913D03E0913803E695EF73E81B41
:104E2000E0933403823049F4F0E0E555F64FE49125
:104E30000E2F10E02FEF3AE048C0863049F4F0E042
:104E4000E855F64FE4910E2F10E028EE3AE03DC011
:104E5000893051F4E695F0E0EB55F64FE4910E2FD2
:104E600010E029E23AE031C08F3051F4E695F0E0ED
:104E7000EE55F64FE4910E2F10E02DEA39E025C0F3
:104E8000853149F4F0E0E156F64FE4910E2F10E041
:104E900026E439E01AC0883179F0833231F4F70121
:104EA0000591149129E83AE010C0843251F404EFDE
:104EB00011E021EC38E009C008EE13E02DE039E004
:104EC00004C000ED17E027EF34E08091350388231C
:104ED000A9F0109235032B873C870E94182AA8015D
:104EE00040955095840F951F909333038093320320
:104EF00010923703109236033C852B858091320344
:104F0000909133032B873C870E94EE292B853C85AB
:104F10008017910708F423CEE0913203F091330318
:104F20000E0F1F1F109333030093320382E393E0AD
:104F3000F901099514CE80E189BD82E189BD09B4EA
:104F400000FEFDCF8091D8008F7D8093D8008091A6
:104F5000E00082608093E0008091E00081FDFCCF62
:104F6000FECD9F3F09F0E1CEE9CE8091C4020895C5
:104F7000CF93DF9300D01F92CDB7DEB72091E70229
:104F8000243031F523E02983805891099B838A835B
:104F900082E08093E9008FEF9091E800815095FDC9
:104FA00006C095ED9A95F1F700008111F5CF80913B
:104FB000E80085FF0DC040E050E063E070E0CE0106
:104FC00001960E94FD1E8091E8008E778093E80094
:104FD0000F900F900F90DF91CF9108950F931F9333
:104FE000CF93DF9300D01F92CDB7DEB78C010E9424
:104FF0009A24823011F0843021F584E089831B8368
:105000000A8382E08093E9008FEF9091E80081505D
:1050100095FD06C095ED9A95F1F700008111F5CF49
:105020008091E80085FF0DC040E050E063E070E053
:10503000CE0101960E94FD1E8091E8008E7780933C
:10504000E8000F900F900F90DF91CF911F910F917B
:105050000895CF93DF93EC010E949A24823011F0DF
:105060008430F9F482E08093E9009FEF8091E800BA
:10507000915085FD06C085ED8A95F1F700009111EC
:10508000F5CF8091E80085FF0CC040E050E066E07D
:1050900070E0CE010E94FD1E8091E8008E77809323
:1050A000E800DF91CF910895CF93DF93EC010E9448
:1050B0009A24823011F08430D9F58091130188232D
:1050C00039F08091050387FF03C060E282E002C0EF
:1050D00068E081E08093E9008FEF9091E8008150D3
:1050E00095FD06C095ED9A95F1F700008111F5CF79
:1050F0008091E80085FF1CC080911301811105C0DB
:1051000040E050E068E070E003C070E040E050E054
:10511000CE010E94FD1E8091E8008E778093E8000A
:1051200080E2FE01A5ECB2E001900D928A95E1F7D4
:10513000DF91CF910895803F39F480911C0387FF60
:105140006CC010921C0369C0813F29F480911C033C
:105150001816BCF362C090911B03823F29F497FF9D
:105160005CC010921B0359C0833F19F41916CCF38D
:1051700054C0893F41F480911D0318160CF04DC0B6
:1051800010921D034AC08A3F29F480911D0387FFB6
:1051900044C0F6CF8B3F39F480911E0387FF3DC09A
:1051A00010921E033AC08C3F29F480911E031816FA
:1051B000BCF333C0843F21F480911A038E7F17C063
:1051C000853F21F480911A038D7F11C0863F21F421
:1051D00080911A038B7F0BC0873F21F480911A03C3
:1051E000877F05C0883F31F480911A038F7E8093BA
:1051F0001A0313C08D3F21F4809170038E7F0BC082
:105200008E3F21F4809170038D7F05C08F3F29F47C
:10521000809170038B7F8093700380911B038111B9
:105220000EC080911C0381110AC080911D03811161
:1052300006C080911E03811102C010921F030895C1
:105240008091700380FD18C081FD14C082FD16C0DE
:1052500080911F03882381F0803580F425E0829FB0
:10526000C001112460E570E00E94C230862F672BD8
:1052700019F005C082E0089581E0089585E0089561
:105280008091700380FD14C081FD14C082FD16C0A2
:1052900080911F03882381F0843180F423E2829F70
:1052A000C001112464E170E00E94C230862F08958D
:1052B00088E0089581E1089585E0089583E20895E6
:1052C000803F21F40E944029819504C0813F29F448
:1052D0000E94402980931C030895823F21F40E947C
:1052E0004029819504C0833F29F40E94402980937E
:1052F0001B030895893F19F40E94202905C08A3FA5
:1053000031F40E942029819580931D0308958B3FDD
:1053100021F40E942029819504C08C3F29F40E9429
:10532000202980931E030895843F21F480911A035D
:10533000816017C0853F21F480911A03826011C0FB
:10534000863F21F480911A0384600BC0873F21F4CB
:1053500080911A03886005C0883F31F480911A0358
:10536000806180931A0308958D3F21F4809170032A
:1053700081600BC08E3F21F480917003826005C074
:105380008F3F29F4809170038460809370030895A7
:1053900078941F920F920FB60F9211248F939F93C0
:1053A000AF93BF9380916C0390916D03A0916E03B6
:1053B000B0916F030196A11DB11D80936C03909372
:1053C0006D03A0936E03B0936F03BF91AF919F9154
:1053D0008F910F900FBE0F901F901895CF92DF9274
:1053E000EF92FF920F931F932FB7F89440916C03A5
:1053F00050916D0360916E0370916F032FBF6A012E
:105400007B01EE24FF248C0120E030E0C016D106A1
:10541000E206F30610F4415051099A01281B390B9A
:10542000C9011F910F91FF90EF90DF90CF900895E9
:105430002FB7F89480916C0390916D03A0916E0347
:10544000B0916F032FBF0895E0910803F091090315
:10545000309749F082E0809319030480F581E02DB4
:1054600089E193E009950E94182A90932103809383
:10547000200308951F920F920FB60F9211248F935D
:105480009F93AF93BF9380910A03811113C08091C2
:105490006C0390916D03A0916E03B0916F034196E0
:1054A000A11DB11D80936C0390936D03A0936E03B7
:1054B000B0936F03BF91AF919F918F910F900FBEEB
:1054C0000F901F90189520911301222321F0209115
:1054D000050327FD04C0FC013296089619C0262F4B
:1054E0002695269526952E31C0F4FC01E20FF11D7C
:1054F000677081E090E001C0880F6A95EAF78095B7
:1055000092818923828308953196E817F90729F05B
:1055100020812613F9CF1082F7CF0895209113012F
:10552000222321F02091050327FD05C0FC013296BE
:105530002FEF30E019C0262F2695269526952E317F
:1055400020F5FC01E20FF11D677081E090E001C0E1
:10555000880F6A95EAF79281892B828308952F3FFD
:1055600039F03F5F363041F041914613F8CF0DC01E
:105570004111F7CF232FF5CF2F3F39F0FC01E20F78
:10558000F11D27FDFA9562830895089580E090E06B
:105590000E942B2D21E08D3E9E4F09F020E0822FAE
:1055A00008956DEE7EEF80E090E00E944F2D60E068
:1055B00082E090E00E94312D60E083E090E00E9464
:1055C000312D109268031092690310926A031092B1
:1055D0006B0360E084E090E00E94312D60E085E0A4
:1055E00090E00E94312D60E086E090E00E94312D35
:1055F0006FEF87E090E00E94312D40E050E0BA016B
:1056000088E090E00E94432D60E08DE090E00E94F1
:10561000312D40E050E0BA0188E190E00E94432D36
:1056200060E087E190E00E94312D40E050E0BA0157
:105630008FE090E00E94432D40E050E0BA0183E10A
:1056400090E00C94432D80916703882331F01092F1
:1056500067031092660310926503089580959091F8
:10566000C20289238093C2020895909164038091BD
:10567000C202892B90916303892B80934003809110
:105680006703882321F10E94FD1981110E94232BB9
:105690009091670380914003892B80934003809110
:1056A0001301882331F08091050387FF02C08EE14A
:1056B00001C086E0E2E4F3E090E0815028F021911F
:1056C0002223D9F39F5FF9CF91110E94232BE09100
:1056D0000803F09109033097A9F080911301882302
:1056E00059F08091050387FF07C0809140038093A4
:1056F000410385E0809340030280F381E02D80E444
:1057000093E009940895109262031092610310923D
:105710006003089520916203809582238093620341
:10572000982F977079F430E0482F082E000C550B15
:105730002417350739F08595859585950E94D11BED
:105740000C94832B0895882309F45CC0823869F493
:105750000E94280881FF56C069E380E493E00E941C
:105760008E2A0E94352B69E30EC0833891F40E9483
:10577000280880FF47C063E580E493E00E948E2AFA
:105780000E94352B63E580E493E00E94632A0C9429
:10579000352B843869F40E94280882FF33C067E4FF
:1057A00080E493E00E948E2A0E94352B67E4EBCFC1
:1057B0009CEF980F913A10F4682FE5CF90E2980F84
:1057C000983050F4877091E001C0990F8A95EAF7FC
:1057D000892F0E942E2BDBCF9BE5980F933020F46E
:1057E00080E090E00C94120898E5980F973120F42F
:1057F00080E090E00C94FC07803F20F00E949B2802
:105800000C94242A0895882309F416C18238B1F42F
:105810000E94280881FD10C169E380E493E00E94A2
:105820008E2A0E94352B2FEF41EE54E0215040404C
:105830005040E1F700C0000069E317C08338D9F495
:105840000E94280880FDF8C063E580E493E00E9490
:105850008E2A0E94352B8FEF91EE24E081509040EC
:105860002040E1F700C0000063E580E493E00E947F
:10587000632A0C94352B8438B1F40E94280882FDE9
:10588000DBC067E480E493E00E948E2A0E94352BFF
:105890004FEF51EE84E0415050408040E1F700C0AE
:1058A000000067E4E2CF9CEF980F913A30F4682F44
:1058B00080E493E00E948E2ADCCF90E2980F98302B
:1058C00080F4877021E030E0A90102C0440F551F29
:1058D0008A95E2F7CA019091C202892B8093C20295
:1058E000C8CF9BE5980F933070F4853A29F0863A3B
:1058F00031F083E890E005C081E890E002C082E8E2
:1059000090E00C94120898E5980F973108F08EC03B
:10591000883A09F445C0893A09F445C08A3A09F43D
:1059200045C08B3A09F445C08C3A09F445C08B3B1D
:1059300009F445C08C3B09F445C08D3A09F445C0D3
:10594000803B09F445C08E3A09F445C08F3A09F40A
:1059500045C0813B09F445C0823B09F445C0833B07
:1059600009F445C0843B09F445C0853B09F445C0B2
:10597000863B09F445C0873B09F445C0883B09F4E0
:1059800045C0893B09F445C08D3B09F445C08E3BB9
:1059900009F445C08A3B09F445C080E090E044C06A
:1059A00082EE90E041C089EE90E03EC08AEE90E049
:1059B0003BC085EB90E038C086EB90E035C083EBD0
:1059C00090E032C084EB90E02FC087EB90E02CC0D9
:1059D0008CEC90E029C08DEC90E026C083E891E04B
:1059E00023C08AE891E020C082E991E01DC084E9EB
:1059F00091E01AC081E292E017C083E292E014C005
:105A000084E292E011C085E292E00EC086E292E06C
:105A10000BC087E292E008C08FE690E005C080E707
:105A200090E002C08AE292E00C94FC07803F20F0F4
:105A30000E9460290C94242A0895F999FECF92BD02
:105A400081BDF89A992780B50895A6E1B0E044E0B9
:105A500050E00C94572DA8E1B0E042E050E00C94E7
:105A6000572D262FF999FECF92BD81BDF89A019747
:105A700000B4021639F01FBA20BD0FB6F894FA9A96
:105A8000F99A0FBE08950396272F0E94322D0E9487
:105A9000312D252F0E94322D242F0C94322D01966A
:105AA000272F0E94322D0C94312DDC01CB01FC01FB
:105AB000F999FECF06C0F2BDE1BDF89A319600B467
:105AC0000D9241505040B8F708955058BB27AA276F
:105AD0000E947D2D0C94282F0E941A2F38F00E94CE
