:100000000C9482040C949F040C949F040C949F0401
:100010000C949F040C949F040C949F040C949F04D4
:100020000C949F040C949F040C94AF260C94EB2525
:100030000C940F2A0C949F040C949F040C949F041E
:100040000C949F040C949F040C949F040C949F04A4
:100050000C949F040C949D290C949F040C949F0471
:100060000C949F040C949F040C949F040C949F0484
:100070000C949F040C949F040C949F040C949F0474
:100080000C949F040C949F040C949F040C949F0464
:100090000C949F040C949F040C949F040C949F0454
:1000A0000C949F040C949F040C949F04C905FF04B6
:1000B0000B052C053A0548055405620570057E05BB
:1000C0008C0545074707520749074B074D074F0760
:1000D000510754075607580763075A075C075E071E
:1000E000600762076507F20AF20A300B300B720BE9
:1000F000920B7C0DD50DD40BD50DD10CD10CDE0C93
:10010000DE0CDE0CDE0CDE0CDE0CDE0CDE0CDE0C9F
:10011000DE0CDE0CDE0CDE0CDE0CDE0CDE0CEF0C7E
:10012000170D1E0D250D3D0D680F6B0F6E0F710F16
:10013000740F770F7A0F551E551E681E681E5E1EBF
:10014000681E681E681E551E551E631E681E681EAA
:10015000631E241F271F2A1F2D1F321F371F3C1FFE
:100160004C1F791F841F8F1F8F1F9A1FA51FFC23F1
:100170002324C3252324C3256B248E24C3258C2547
:100180009F2507634236B79BD8A71A39685618AE21
:10019000BAAB558C1D3CB7CC5763BD6DEDFD753EBC
:1001A000F6177231BF000000803F05A84CCDB2D4D5
:1001B0004EB93836A9020C50B9918688083CA6AAD7
:1001C000AA2ABE000000803F2B042B7429643567E7
:1001D000396F00000100140004611D6204580653C9
:1001E00001001A0016001B632302035418010800C3
:1001F00007000600E3000354070115000900190079
:1002000002540100010017000A0005000000045814
:100210004C05A80000004300000001003D04A800B8
:10022000000042000000010001001C000B00110052
:1002300000000458080118000D00100001540100CE
:100240001C010C000E00360050002C0001001200B2
:100250000F00376351002C00010013002A7138721F
:10026000520006512B083174346428674F00000097
:100270000100010001000100E200000001003A005D
:100280001E002D00E000010001003B001F002E00B9
:10029000E100010001003C0020002F00E30001000C
:1002A00001003D00210030006500010001003E001A
:1002B0002200000000000100010001000000010018
:1002C0000000010001000100000001000000010029
:1002D00001003F0023000000000001000100400079
:1002E00024006400010001000100410025003300EA
:1002F000E70001000100420026003700E500010090
:100300000100430027003800E400010001003274BE
:1003100001000100E20000000100010001000100F5
:10032000E2000000010044001E022D02E000010076
:10033000010045001F022E02E100010001006800DB
:1003400020022F02E30001000100690021023002B7
:100350000100010001006A0022020000000001000B
:100360000100010000000100000001000100010087
:10037000000001000000010001006B0023020000EA
:100380000000010001006C0024026400650001000F
:1003900001006D0025023302E700010001006E003C
:1003A00026023700E500010001006F002702380037
:1003B000E40001000100327401000100E2000000CD
:1003C00001000100E20000070100000001002A0016
:1003D000E000E1000100010001002A00E100E1016C
:1003E0000100010001004A0049004900010001002C
:1003F00001004D00490049000100010001001550B5
:1004000000000000000001000100010000000100E8
:1004100000000100010001000000010000000100D7
:1004200001000000000000000000010001002A009F
:1004300050004E00010001000100520051004B002D
:100440000100010001004C004F00E5010100010026
:1004500001004C00E400E500010001000100E6009D
:10046000E2000100010000000100010001000100A4
:100470000100000001004604F500460001000100F3
:100480000100F500F200F900160A01000100F00079
:10049000F100F600010001000100A800F300FA00DD
:1004A000A60001000100A900AA00F400000001005C
:1004B0000100010000000100000001000100010036
:1004C00000000100000001000100A900AA00F400E2
:1004D000000001000100A800F200FA00A7000100DE
:1004E0000100F000F100F600010001000100F5003C
:1004F000F300F9000100010001004604F500460088
:1005000001000100010001000100010001000000E4
:1005100029002B00E100E000105000001E00140034
:1005200004001D00E20001001F001A0016001B005D
:100530003D002C0020000800070006003D002C00B4
:1005400021001500090019001050010022001700B9
:100550000A0005000000010023002B0000002B0012
:100560000000010034002B0000002B0000000100FF
:1005700023001C000B0011000000010024001800E3
:100580000D0010001050010025000C000E00360078
:1005900031000100260012000F0037005000E30078
:1005A00027001300330052005100010010502A00B0
:1005B000280038004F000000105001000100010029
:1005C000010000000100F15CF65C01000100010087
:1005D0000100F25CF75C0100010001000100F35C26
:1005E000F85C0100010001000100F45CF95C01000D
:1005F000010001000100F55CFA5C0100000001004F
:1006000001000100000001000000010001000100E4
:1006100000000100000001000100010001000100D4
:10062000000001000100C55CC25CC95C0100010062
:100630000100C65CC35CCA5C01000100010001004E
:10064000F05C010001000100010001000100010057
:100650000100010010500100010001000100000034
:10066000000000000001010101010101010102027D
:100670000202020202020203030303030303030450
:100680000404040404050505050506060606060718
:10069000070707080808080909090A0A0A0A0B0BCC
:1006A0000B0C0C0C0D0D0D0E0E0F0F0F1010111169
:1006B00011121213131414151516161717181819EA
:1006C000191A1A1B1C1C1D1D1E1F1F20202122224F
:1006D0002324252526272728292A2B2B2C2D2E2F8E
:1006E0002F30313233343536363738393A3B3C3DAA
:1006F0003E3F4041424344464748494A4B4C4D4F98
:1007000050515253555657585A5B5C5E5F60626356
:10071000646667696A6C6D6E707173747678797BE4
:100720007C7E8081838486888A8B8D8F919294963B
:10073000989A9B9D9FA1A3A5A7A9ABADAFB1B3B557
:10074000B7B9BBBDBFC1C4C6C8CACCCFD1D3D6D838
:10075000DADCDFE1E4E6E8EBEDF0F2F5F7FAFCFFD6
:100760006801F000B40078005A001E140A05783CB5
:100770001E6432146432147F3F1F00040501090215
:10078000A10185020901A10005091901290515002A
:10079000250195057501810295017503810105010A
:1007A000093009311581257F9502750881060938C0
:1007B0001581257F950175088106050C0A380215FB
:1007C00081257F950175088106C0C005010980A1BA
:1007D0000185031601002603001A81002A83007593
:1007E0001095018100C0050C0901A10185041601C5
:1007F00000269C021A01002A9C02751095018100B6
:10080000C005010906A1018505050719E029E715BD
:100810000025019508750181020508190129059532
:1008200005750191029501750391010507190029CC
:10083000EF1500250195F075018102C0050109063B
:10084000A101050719E029E71500250195087501A3
:100850008102950175088101050819012905950591
:10086000750191029501750391010507190029FF92
:10087000150026FF00950675088100C009023B009F
:10088000020100A0FA09040000010301010009218E
:10089000110100012240000705810308000A090434
:1008A0000100010300000009211101000122C00024
:1008B0000705820320000A1201100100000008ED64
:1008C000FE071301000102030104033000000016BB
:1008D000034500720067006F0044006F007800203D
:1008E0000045005A00000016034500720067006FC3
:1008F0000044006F007800200045005A000000040A
:100900000309040011241FBECFEFDAE0DEBFCDBF24
:1009100011E0A0E0B1E0E4EDF3E602C005900D9235
:10092000A83CB107D9F723E0A8ECB1E001C01D92C3
:10093000A236B207E1F70E948A180C94E8310C94B1
:1009400000008F929F92AF92BF92CF92DF92EF9270
:10095000FF920F931F93CF93DF93CDB7DEB7289706
:100960000FB6F894DEBF0FBECDBFFC01F080118141
:1009700083819481892B11F40C943D0E1F3F29F43F
:100980000FEFF01611F40C943D0E6F0185E0DE01BF
:10099000119601900D928A95E1F7D60112962C914D
:1009A00089819A81222349F00E94F91D082F682F1E
:1009B00089819A810E94991E03C00E946C1E082F93
:1009C000B6E01B9FF001112414E5019FE00DF11D1D
:1009D0001124EF0DF11DEE0FFF1FE853FE4F05919F
:1009E0001491F801E05FFC45D60112968C91EB3032
:1009F000F10508F09FC0EA5AFF4F0C94A8308823F5
:100A000011F40C943D0E0E944C1381E00E94491396
:100A10004DEC60E03AC0882311F40C943D0E0E9426
:100A20004C1381E00E9449134BEB6CE58DE290E0A2
:100A300028960FB6F894DEBF0FBECDBFDF91CF91E1
:100A40001F910F91FF90EF90DF90CF90BF90AF90EC
:100A50009F908F900C94F212882311F40C943D0E09
:100A60000E944C1381E00E9449134FEF6FEF86E222
:100A700090E0DECF882311F40C943D0E0E944C13BD
:100A800081E00E9449134FEF6FEF80E090E0D0CFFC
:100A9000882311F40C943D0E0E944C1381E00E94B7
:100AA000491349E867ECF1CF882311F40C943D0E0B
:100AB0000E944C1381E00E9449134FEF6FEF84E2D4
:100AC00091E0B6CF882311F40C943D0E0E944C1394
:100AD00081E00E94491340E86FEF8CE291E0A8CFDB
:100AE000882311F40C943D0E0E944C1381E00E9467
:100AF00049134DEB6FEF88E790E09ACF882311F40C
:100B00000C943D0E0E944C1381E00E9449134FEF5C
:100B10006DED88EB90E08CCF882311F40C943D0EA2
:100B20000E944C1381E00E9449134FEF6FEF80EF5A
:100B300090E07ECF882399F1033EBCE51B0709F4C2
:100B40007FC008F073C0013EFCE51F0709F068C0D4
:100B50001092E9010E9485130C3CBCE51B0709F4C7
:100B6000EAC008F419C1043DECE51E0709F494C37A
:100B700008F0EDC3003D2CE5120709F49BC308F013
:100B8000B8C30E3C8CE5180749F108F0A5C3F6017F
:100B90008281882311F40C943D0E81E02DC0013038
:100BA00020E81207C8F20C3CFCE51F0709F4C3C09B
:100BB00008F413C2043D2CE5120709F46DC310F0CC
:100BC0000C941C0E003D8CE5180709F473C308F063
:100BD000B2C30E3CACE51A0709F07AC3D6011296EF
:100BE0008C91882311F40C943D0E0E944311825085
:100BF000833008F40CC182E028960FB6F894DEBF6B
:100C00000FBECDBFDF91CF911F910F91FF90EF905D
:100C1000DF90CF90BF90AF909F908F900C9449132E
:100C2000023E2CE5120791F481E00DC0043E3CE544
:100C3000130741F0053E8CE5180741F484E003C03A
:100C400082E001C083E08093E90184CF013090E825
:100C5000190708F481CF7801E894F7F88091FE0233
:100C60008093C8011092FE028091E901813071F0F9
:100C700048F08230D9F08430F9F486EE0E94662282
:100C800088E118C082EE0E94D52B16C080EE0E942B
:100C9000D52B81EE0E94D52B88E10E94662281EE41
:100CA0000E946E2B80EE0E946E2B06C082EE0E9488
:100CB000D52B87E50E946622AFE3BCE91197F1F7D7
:100CC00000C000005CE0A52EB12CC7010A2C02C0B8
:100CD000969587950A94E2F7282F2F7041F0822F7E
:100CE00090E02A3010F44D9604C0069702C087E2C7
:100CF00090E00E946622B4E0AB1AB108ECEFAE16A9
:100D0000EFEFBE0611F78091E901813039F040F034
:100D1000823031F0843051F488E206C08CE204C0A5
:100D200082EE0E946E2B02C00E9466228091C80152
:100D30008093FE0211CFD60112968C91882309F47C
:100D40009CC78091850290E0019797FF02C080E0E8
:100D500090E08430910514F083E090E08093850268
:100D6000609181027091820280918302909184024D
:100D700028960FB6F894DEBF0FBECDBFDF91CF919E
:100D80001F910F91FF90EF90DF90CF90BF90AF90A9
:100D90009F908F900C948211043CFCE51F07F1F4A6
:100DA000D60112968C91882309F467C78091FE02C0
:100DB000827269F528960FB6F894DEBF0FBECDBFDC
:100DC000DF91CF911F910F91FF90EF90DF90CF9027
:100DD000BF90AF909F908F900C945513053C2CE5DD
:100DE000120708F07BC105313CE5130720F1023CF6
:100DF000BCE51B0709F401C108F4E5C0F6018281D6
:100E0000882309F43AC78091FE02827299F62896E7
:100E10000FB6F894DEBF0FBECDBFDF91CF911F910B
:100E20000F91FF90EF90DF90CF90BF90AF909F9089
:100E30008F900C945F1302308CE5180708F46AC099
:100E4000D60112968C91882309F482C30E949B2AB2
:100E5000811102C00E94A62A84E090E00E94EF2C3B
:100E600090E09093FC018093FB01F801E350FC4576
:100E7000E231F10530F4EF59FF4F8091FB010C9402
:100E8000A8308091FB01816027C0826025C084600A
:100E900023C0806121C080621FC080641DC0806843
:100EA0001BC08460886018C08E7F16C08D7F14C000
:100EB0008B7F12C08F7E10C08F7D0EC08F7B0CC0C9
:100EC0008F770AC08B7F877F07C087FB222720F997
:100ED00091E0922790FB87F98093FB016091FB01E1
:100EE00084E090E00E94032D1092FE0228960FB637
:100EF000F894DEBF0FBECDBFDF91CF911F910F9150
:100F0000FF90EF90DF90CF90BF90AF909F908F9029
:100F10000C943E2201159CE5190709F045C0D60145
:100F200012968C91882309F4A8C61092FE020E94A2
:100F30003E22BFEFE4E3FCE0B150E040F040E1F7D7
:100F400000C00000F89481E08093E00080E280938C
:100F5000D8001092C9008FE19EE40197F1F700C01C
:100F600000001DBA109268001CBC10BE1FBA10927F
:100F70007A0010926E0010926F0010927100109221
:100F800072001092C9001092BC0014B817B81AB8B9
:100F90001DB810BA1092BC0015B818B81BB81EB80E
:100FA00011BA0C94003F69C601301C4581F4D6018A
:100FB00012968C91882309F460C680911902816091
:100FC000809319025AC606311C4509F451C081E0CC
:100FD0008093CE018093CF01BBC2043C3CE5130754
:100FE00009F4DECE08F0CAC005319CE5190708F403
:100FF00015C6023CFCE51F0791F5D60112968C91AF
:10100000882309F43AC68091810280FF14C0289693
:101010000FB6F894DEBF0FBECDBFDF91CF911F9109
:101020000F91FF90EF90DF90CF90BF90AF909F9087
:101030008F900C949E1128960FB6F894DEBF0FBEC9
:10104000CDBFDF91CF911F910F91FF90EF90DF9077
:10105000CF90BF90AF909F908F900C944C13033C17
:101060002CE5120708F0CACE06311C4509F0AFCFB7
:101070009091FE02D60112968C91882381F09A7A83
:1010800081E009F480E08093C901811102C069E226
:1010900001C065E38DE293E00E94632A0BC080915A
:1010A000C901811102C069E201C065E38DE293E0EC
:1010B0000E94382A28960FB6F894DEBF0FBECDBF27
:1010C000DF91CF911F910F91FF90EF90DF90CF9024
:1010D000BF90AF909F908F900C94032B083C2CE511
:1010E0001207B9F4D60112968C91882309F4C5C56C
:1010F00080918102881F8827881F90918202392F52
:10110000330F97FB992790F921E04091840260E02A
:1011100020C0093C3CE5130708F079C0063C8CE58B
:101120001807B9F108F45EC0F6018281882309F43A
:10113000A4C580918102881F8827881F9091820210
:10114000392F330F97FB992790F921E040918402C2
:101150006FEF832B28960FB6F894DEBF0FBECDBF7E
:10116000DF91CF911F910F91FF90EF90DF90CF9083
:10117000BF90AF909F908F900C943A12083C8CE5F2
:10118000180709F4AFCF08F078C0063CACE51A07A1
:1011900029F5D60112968C91882309F46EC5209109
:1011A0008102221F2227221F30918202432F440FE7
:1011B000842F822B37FB992790F98C3091051CF4F2
:1011C000845A9E4F01C00C9768E671E00E949430EB
:1011D00021E04091840260918302BCCF073C1C4512
:1011E00008F0A2CFF6018281882309F446C5209138
:1011F0008102221F2227221F30918202432F440F97
:10120000842F822B37FB992790F90C96DDCF0A3C6F
:10121000ACE51A07F9F4D60112968C91882309F4EB
:101220002CC540918402842F90E00C9714F04C5010
:1012300001C040E080918102881F8827881F90911B
:101240008202392F330F97FB992790F921E06091A3
:1012500083027FCF0B3C1C45A8F4F60182818823D2
:1012600009F40BC540918402842F90E0843F9105DE
:1012700014F4445FDFCF4FEFDDCF0A3CECE51E07EF
:1012800051F258F3F6018281882309F4F6C4809163
:10129000850290E001965DCDD60112968C9188234F
:1012A00009F4EBC40E9443118951893008F4AFCD91
:1012B00089E1A2CCD60112968C91882309F4DDC471
:1012C0000E9443118950853008F4A1CD89E094CC67
:1012D0000F3C1C4508F45BCCF6018281882309F49D
:1012E000CCC40E9443118650823008F490CD86E031
:1012F00083CC023DACE51A0771F4D60112968C91AD
:10130000882309F4BAC40E9443118551823008F43D
:101310007ECD85E171CC033D1C4590F4F6018281C0
:10132000882309F4AAC40E9443118F50853008F421
:101330006ECD8FE061CC023DECE51E07F1F270F35B
:10134000F6018281882309F498C488E155CC093DCF
:10135000ECE51E0709F05EC0F60182818823E9F002
:101360001092CF010E94ED299093CD018093CC0182
:1013700080E228960FB6F894DEBF0FBECDBFDF9196
:10138000CF911F910F91FF90EF90DF90CF90BF9082
:10139000AF909F908F900C945C228091CF01882316
:1013A000A9F080E228960FB6F894DEBF0FBECDBF3D
:1013B000DF91CF911F910F91FF90EF90DF90CF9031
:1013C000BF90AF909F908F900C9451228091CC0150
:1013D0009091CD010E94C329883C910510F780E2CD
:1013E0000E94512288E20E94D52B88E228960FB6EF
:1013F000F894DEBF0FBECDBFDF91CF911F910F914B
:10140000FF90EF90DF90CF90BF90AF909F908F9024
:101410000C946E2B0A3DFCE51F0708F062C0073DE7
:101420002CE5120761F5F6018281882351F01092B4
:10143000CE010E94ED299093CB018093CA0182E0F6
:1014400098CF8091FE0285FF05C081E08093CE0198
:101450008093CF018091CE0181110FC08091CA018C
:101460009091CB010E94C329883C910530F486E21B
:101470000E94D52B86E20E946E2B82E093CF083D1E
:101480003CE5130718F1D60112968C91811168CFB3
:101490008091FE0281FF05C081E08093CE018093A0
:1014A000CF018091CF0181117CCF8091CC019091AF
:1014B000CD010E94C329883C910508F072CF87E2D4
:1014C0000E94D52B87E20E946E2B6BCF053D1C45F9
:1014D00009F07DCDF6018281882309F4CEC383E231
:1014E0008BCB0D3D9CE5190749F4F60182818823D9
:1014F00009F4C3C382E080938702BFC30E3DACE50D
:101500001A07C9F4F6018281882309F4B6C3289624
:101510000FB6F894DEBF0FBECDBFDF91CF911F9104
:101520000F91FF90EF90DF90CF90BF90AF909F9082
:101530008F900C94A62A0C3D1C4509F048CDD6018D
:1015400012968C91882309F498C31092870295C350
:10155000F601828100811181882349F0C8010E942F
:10156000F91DF82E682FC8010E94991E04C0C801F9
:101570000E946C1EF82EB8018F2D0E948B13182F1D
:10158000382FF601258122952F70028101111092CA
:10159000510380914F038770A9F0002399F080E2F6
:1015A000810F883078F082E02F8338879E830E94F5
:1015B000512B80914F038770EE24E3942F8138855F
:1015C0009E818111E12CA92EA2944FE0A422B12C7E
:1015D000FCE0AF16B10408F0E8C2F501ED58FF4F8A
:1015E0000C94A830892F807F9F70F92E882319F0E2
:1015F000F29480EFF8220023B9F0FF2009F466C2CC
:1016000080E2810F883010F0311106C09091FE0207
:10161000F92AF092FE0205C090915103F92AF09246
:1016200051030E94032B52C2812F38870E946E2BD8
:101630003885FF2009F4B9C2105EF094183010F01C
:10164000311106C09091FE02F922F092FE0205C00F
:1016500090915103F922F09251030E94032BA5C2ED
:10166000492F407F892F8F70403211F08295807F03
:10167000332319F0313019F12BC00023B1F09091D0
:101680005403222381F0213071F4182F192B911764
:1016900009F48BC20E94ED29909353038093520367
:1016A0001093540382C2892B91C1222319F0213057
:1016B00009F47BC28E830E94F82A8E818DC100239B
:1016C00021F0223008F071C281C121116EC284C1A3
:1016D000002321F0222309F479C1F8C1222309F45F
:1016E0007BC106C2292F26952695237030E021154F
:1016F000310521F02130310559F057C2002319F08E
:10170000812F937002C080E090E00E94F6105BC2CF
:10171000002319F0812F937002C080E090E00E94B6
:10172000E01051C20023F9F0153F51F0163F71F05F
:10173000143FA9F48091D0019091D10181600BC038
:101740008091D0019091D101826005C08091D0013B
:101750009091D10184609093D1018093D001812F29
:101760000E9435291EC0153F51F0163F71F0143FFD
:10177000A9F48091D0019091D1018E7F0BC080910E
:10178000D0019091D1018D7F05C08091D0019091C1
:10179000D1018B7F9093D1018093D001812F0E9442
:1017A00070280E94F9290FC2892F837009F079C02F
:1017B000011107C2812F829586958770880F880F47
:1017C000412F4F7050E060E070E04A015B01082E4D
:1017D00004C0880C991CAA1CBB1C0A94D2F714FFE5
:1017E00014C04FE050E060E070E08A019B0104C04B
:1017F000000F111F221F331F8A95D2F7B901A801CC
:10180000409550956095709503C040E050E0BA0156
:10181000969596959370892F90E0009155031091BD
:101820005603209157033091580382309105A9F057
:1018300083309105E9F0019759F0482959296A291F
:101840007B29CB01BA01602371238223932326C015
:10185000802A912AA22AB32A1BC0482959296A2919
:101860007B29CB01BA01602771278227932716C0F5
:10187000CB01BA0160237123822393230E940520A8
:10188000409155035091560360915703709158034E
:10189000CB01BA01682979298A299B290E94052050
:1018A00090C1002319F0892F817001C0869588238B
:1018B00009F487C1812F829586958770880F880FDC
:1018C000412F4F7050E060E070E04A015B01082E4C
:1018D00004C0880C991CAA1CBB1C0A94D2F714FFE4
:1018E00014C04FE050E060E070E08A019B0104C04A
:1018F000000F111F221F331F8A95D2F7B901A801CB
:10190000409550956095709503C040E050E0BA0155
:10191000969596959370892F90E00091F902109119
:10192000FA022091FB023091FC0282309105A9F06D
:1019300083309105E9F0019759F0482959296A291E
:101940007B29CB01BA01602371238223932326C014
:10195000802A912AA22AB32A1BC0482959296A2918
:101960007B29CB01BA01602771278227932716C0F4
:10197000CB01BA0160237123822393230E94C91EE5
:101980004091F9025091FA026091FB027091FC02C1
:10199000CB01BA01682979298A299B290E94C91E8D
:1019A00010C1412F50E0FA01E05EF109E531F10587
:1019B00008F087C0E158FF4F0C94A8301F70892FA2
:1019C0008F71002331F00E94E41F812F0E945C225E
:1019D000ECC00E94BF1F812F0E945122E6C000234D
:1019E00011F12111E2C0292F2F7181E090E0A0E0D8
:1019F000B0E0AC01BD0104C0440F551F661F771F46
:101A00002A95D2F78091F9029091FA02A091FB02F7
:101A1000B091FC028A019B01082719272A273B273E
:101A2000C901B80127C0223008F0BFC0DCCF0023B5
:101A300039F0892F8F710E94E41FB7C00023C9F3CA
:101A4000892F8F710E94BF1FB0C0002381F0292F02
:101A50002F7181E090E0A0E0B0E0BC01CD0104C0B6
:101A6000660F771F881F991F2A95D2F703C060E081
:101A700070E0CB010E94C91E98C00023B1F0192F5D
:101A80001F71812F0E94E41F28E0129FC0011124C2
:101A9000836080934F03812F0E94E41F0E94ED29F1
:101AA00090934E0380934D0380C081E02F830E946A
:101AB000512B2F81223008F478C082E00E94512BF4
:101AC00074C0002339F0222309F4B3CF812F0E9480
:101AD000D52B6BC0222309F4B3CF193349F43FEF60
:101AE00087EE93E0315080409040E1F700C0000065
:101AF000812F0E946E2B59C0323FB1F028F4303F45
:101B000049F0313FF9F028C0343FB9F058F0353F83
:101B100071F022C0002309F456C09091890281E03F
:101B2000892708C081E00827009389024CC0011171
:101B30004AC081E08093890246C0011144C01092DE
:101B4000890241C0002329F080918802882329F36B
:101B500029C0222311F337C0809188022223C1F0CB
:101B6000882341F09091890281E08927809389023E
:101B700010928802812F002319F00E94D52B23C0D8
:101B80000E946E2B86E0D6011D928A95E9F71BC054
:101B90008823C9F0011117C09091890281E089273B
:101BA00080938902109288020EC0B8E0AB16B1048F
:101BB00041F04CF0FAE0AF1AB10802E0A016B1040F
:101BC00010F40E940C11EE2009F457C080914F03CD
:101BD00080FD53C0D60112961C92859585958595FA
:101BE0000E94E41FC6010E94A10480914F038595C5
:101BF0008595859528960FB6F894DEBF0FBECDBFAC
:101C0000DF91CF911F910F91FF90EF90DF90CF90D8
:101C1000BF90AF909F908F900C94BF1F0230ACE5A7
:101C20001A0708F00DC90115BCE51B0731F1013099
:101C30001C4509F4BCC9CBC9093D2CE5120709F4C0
:101C40008BCB60F4073D8CE5180709F4ECCB08F06A
:101C50001ACC053D1C4509F43DCCB9C90D3DBCE588
:101C60001B0709F442CC0E3DECE51E0709F44ACCF3
:101C70000C3D1C4509F0ABC962CC28960FB6F89410
:101C8000DEBF0FBECDBFDF91CF911F910F91FF90AF
:101C9000EF90DF90CF90BF90AF909F908F9008957E
:101CA0009091FB0192FF0DC0282F2871283019F464
:101CB000877F846006C0282F2471243011F48B7F25
:101CC000886093FF0DC0282F2871283119F4877E72
:101CD000846106C0282F2471243111F48B7E886121
:101CE00094FD877E0895882319F05198599A02C06F
:101CF000519A59985098589A95E09A95F1F70000A2
:101D0000509A589895E09A95F1F70000882311F0C1
:101D1000519A599885E08A95F1F700000895CF937C
:101D2000DF93D82FC8E08D2F80780E94730EDD0FCF
:101D3000C150C9F780E00E94730E85E08A95F1F7E3
:101D4000000085E08A95F1F7000080E0DF91CF91F7
:101D50000895AF92BF92CF92DF92EF92FF920F93CE
:101D60001F93CF93DF931F92CDB7DEB7F82E8B0171
:101D7000CFB6D090BC00F8942091BC002B7F20936C
:101D8000BC002BB12C7F2BB95098589A5198599A76
:101D900085E08A95F1F700002AB12C7F2AB9E5E0A9
:101DA000EA95F1F70000519A5998F5E0FA95F1F7A4
:101DB0000000509A589885E08A95F1F7000084E871
:101DC00099830E948F0EAF2C9981B92E000F111F9D
:101DD000000F111F0A0D1B1D7501E016F10631F0F1
:101DE000F70181917F010E948F0EF7CF5098589A8A
:101DF000F5E0FA95F1F700005198599A85E08A9537
:101E0000F1F70000CFBED092BC00579A8BB18F770C
:101E10009BB190682FB7F894A016B10699F0F50120
:101E200031915F0148E09BB9000000C037FF8BB9DA
:101E3000330F000000C000C000C08BB900C04A953D
:101E400091F7EACF2FBF0F90DF91CF911F910F91A4
:101E5000FF90EF90DF90CF90BF90AF900895CF9319
:101E6000E82F873058F58091110190911201892B4C
:101E700009F042C0CE2F80E40E9495229093120177
:101E800080931101892BB1F482E10E946E2290931C
:101E9000120180931101892B69F481E090E001C067
:101EA000880FCA95EAF780950E946E2290931201DE
:101EB0008093110184E98093BC001EC090E0FC0176
:101EC0003797E730F105C0F4EC56FF4F0C94A8307B
:101ED000209A289811C0219A29980EC0229A2A98EF
:101EE0000BC0239A2B9808C0529A5A9805C0539A4F
:101EF0005B9802C03E9A4698CF910895CF93DF93A6
:101F0000873008F047C08091110190911201892B10
:101F100009F049C080E40E949522909312018093B9
:101F20001101892B11F080E031C083E10E946E2203
:101F30009093120180931101892BA9F781E40E94EB
:101F400095229093120180931101892B61F784E807
:101F50008093BC000E94ED29EC019091BC0097FD9C
:101F60000EC00E94ED298C1B9D0B84369105A8F3B1
:101F70008EEF9FEF9093120180931101D4CF809147
:101F8000BB008095109212011092110194E9909378
:101F9000BC000AC09FB18FB1807F869586959370F3
:101FA000892B809501C080E0DF91CF910895DF9269
:101FB000EF92FF920F931F93CF93DF93CDB7DEB7CE
:101FC00067970FB6F894DEBF0FBECDBFF42E4B8BD4
:101FD000D52E5C8BE62E6D8B7E8B8F8B0E891F89A9
:101FE00001151105B9F12FEF521302C0421791F1FB
:101FF000EF2DF0E041E050E00F2C01C0440F0A94B7
:10200000EAF78D2D90E0EE2019F02091890205C0AD
:10201000DC01A752BE4F2C9124232223A1F056E0CD
:10202000589F9001599F300D1124E20FF31FEE0FBE
:10203000FF1FE05EFE4FF080D180FC01E752FE4FB3
:102040009081492B06C0FC01E752FE4F40958081EC
:1020500048234083FE013D9686E0DF011D928A956C
:10206000E9F70E94ED2920914D0330914E0382172C
:10207000930798F00E94ED2920914D0330914E0373
:10208000821B930B883E9340A8F080914F0382FD02
:1020900011C082E00E94512B0DC00E94ED292091B9
:1020A0004D0330914E0320953095820F931F883E4B
:1020B000934058F70E94D61D81110E94F82AFD8690
:1020C000DE86EF86198B088B86E0FE013D96DE01E9
:1020D000179601900D928A95E1F7CE0107960E941E
:1020E0007420811136C086E0FE013796DE0111961C
:1020F00001900D928A95E1F77F816885EA85FB85DD
:10210000309739F16F3F11F47F3F19F12091900220
:1021100030E0C9010196877099274091C10250E0D3
:102120008417950779F179836A83FD83EC8396E0C0
:10213000929FD001939FB00D1124AF56BD4FFE0169
:10214000319601900D929A95E1F7809390020E944A
:102150000F2016E08091C10290919002891711F131
:10216000189FC00111248F569D4F0E947420882310
:10217000C9F08091C10290E0019687709927809301
:10218000C102E8CF1092FE020E943E2210929002FD
:102190001092C102EAE8F2E086E0DF011D928A9522
:1021A000E9F7D7CF67960FB6F894DEBF0FBECDBF65
:1021B000DF91CF911F910F91FF90EF90DF900895E5
:1021C0002091D7013091D8018217930771F0909335
:1021D000D8018093D701E091FE01F091FF01309783
:1021E00021F00084F185E02D099408952091D50116
:1021F0003091D6018217930771F09093D6018093A6
:10220000D501E091FE01F091FF01309721F00680A9
:10221000F781E02D09940895E091FE01F091FF010E
:10222000309721F00190F081E02D099480E008952D
:102230008091810280FF06C06FE070E081E492E04F
:102240000C94A90E80E090E0FC01EF5BFD4F118241
:102250001082128204968C339105B1F7EDCF9091E4
:10226000810290FF0FC020E030E0F901EF5BFD4FED
:102270008183608342832C5F3F4F2C333105A9F764
:102280000C94181108958091810280FF03C08695F7
:102290008F73089580E0089580918102282F2695FC
:1022A0002F7330E02115310519F48178826005C063
:1022B0002532310524F08178886480938102309141
:1022C0008102432F441F4427441F20918202522F32
:1022D000550F852F842B27FB992790F9893641E0EC
:1022E00094077CF068E671E00E94943080FB37F937
:1022F0003093810286952078822B90FB87F980931A
:1023000082020895CF93DF9300D000D0CDB7DEB71F
:10231000AB01BC0149835A836B837C830E944C11BF
:1023200049815A816B817C8188E090E00F900F9009
:102330000F900F90DF91CF910C94152DE1E8F2E012
:1023400080818E7F808360817181828193810E94F0
:102350008211109286022FEF80E792E02150804098
:102360009040E1F700C000000C941811E1E8F2E0A1
:1023700083E08083109282028FEF828383831482B2
:1023800060817181828193810C948211EF92FF921E
:102390000F931F93CF93DF93E901662309F44BC09A
:1023A000242F30E0EFEFF0E0E61BF109B901E69FE2
:1023B0009001E79F300DF69F300D1124232F8B01E4
:1023C000031B11095CE3E52EF12CB7010E9480305C
:1023D000FB01BC01069FC001079F900D169F900D49
:1023E0001124B7010E948030E230F105B1F040F4D1
:1023F000309779F0319711F5832F242F461B21C098
:10240000E430F105A1F068F03597C1F4842F861B04
:1024100018C0832F262F230F14C0862F830FE42F7D
:1024200003C0E42FE61B842F432F2E2F0AC0842FD6
:10243000462F430F06C0842F242F03C080E020E0E6
:1024400040E0E42FF0E0E05AF94F4491E22FF0E051
:10245000E05AF94F9491E82FF0E0E05AF94FE491F7
:1024600049839883EA83DF91CF911F910F91FF9069
:10247000EF9008955F926F927F928F929F92AF92AA
:10248000BF92CF92DF92EF92FF920F931F93CF9361
:10249000DF9300D000D0CDB7DEB78C01E62EF42E4E
:1024A000522E8091810280FF89C0982F9E779230B2
:1024B00061F49E012F5F3F4FC8010E94C6114B81FE
:1024C00069818A810E942F1159C0E82FE695EF7328
:1024D0009EE39E0F9F73943018F4F09084024EC0D8
:1024E0009AE39E0F9F73993068F4881F8827881F8E
:1024F00090918202292F220F022F082B97FB112780
:1025000010F93CC087E28E0F8F738A30B8F5F0E087
:102510007997E0FD02C021E001C02FEFEE7FE05A85
:10252000F84F859194916FE070E00E94803026030F
:102530004001279F900C1124580188E9A81A8EEFBA
:10254000B80A81E4C82E82E0D82E98E6692E772456
:102550007394C501B3010E94803096014F2D6E2DFA
:102560000E94C611A80CB91C84E0C80ED11C8DE7CE
:10257000C81682E0D80669F70E941811809181027E
:1025800000FB87F980938102902F969580918202BB
:102590008078892B10FB87F980938202E092830276
:1025A000F0928402552051F0609181027091820274
:1025B00080918302909184020E9482110F900F906B
:1025C0000F900F90DF91CF911F910F91FF90EF909F
:1025D000DF90CF90BF90AF909F908F907F906F9043
:1025E0005F90089521E00C943A12CF93909181026C
:1025F00090FF41C09178811102C0926007C085327E
:1026000010F0986403C08F73880F982B9093810209
:10261000662351F060918102709182028091830261
:10262000909184020E948211C09181026C2F669564
:102630006F7370E04BE050E086E091E00E94DB3188
:10264000892B19F01092860203C081E080938602E4
:10265000CC1FCC27CC1F90918202892F880F97FB2B
:10266000992790F920E040918402609183028C2B9D
:10267000CF910C943A12CF91089560E00C94F5122A
:10268000E1E8F2E080818160808386958F730C940D
:102690003D1361E00C94F512E1E8F2E08081816085
:1026A000808386958F730C9449138091810286955F
:1026B0008F73815009F484E261E00C94F5128091EB
:1026C000810286958F738F5F853208F081E061E02B
:1026D0000C94F512CF93DF9300D000D0CDB7DEB7C6
:1026E0002091810220FF0AC09E012F5F3F4F0E9470
:1026F000C6114B8169818A810E942F110F900F9022
:102700000F900F90DF91CF9108956091E9018CE0D7
:1027100090E00C94032DCF93DF9326E0729FF0019D
:10272000112434E5839FE00DF11D1124E60FF11D06
:10273000EE0FFF1FE853FE4FC591D491CE01C23872
:10274000D10549F1B0F4C133D10509F464C048F4AE
:10275000C932D10509F458C0CA32D10509F462C0A2
:1027600068C0C533D10509F448C0C933D10599F013
:1027700060C0C33ED10541F138F4C03ED10591F0AF
:10278000C23ED105B1F055C0C63ED10521F1C73ECC
:10279000D10561F14EC02091FB0120FD14C221FD45
:1027A00012C213C22091FB0120FF0FC289E390E007
:1027B0000CC22091FB0122FF08C28091FB0184FD25
:1027C000B4C183EE90E001C28091FB0182FFF5CF9E
:1027D00082EE90E0FAC12091FB0123FFF6C18091C7
:1027E000FB0184FDA2C187EE90E0EFC18091FB0167
:1027F00083FFF5CF86EE90E0E8C12091FB0125FF35
:10280000E4C189E290E0E1C12091FB0125FFDDC137
:1028100085E390E0DAC12091FB0126FFD6C18AE270
:1028200090E0D3C12091FB0126FFCFC181E390E06E
:10283000CCC1C11520E5D20708F047C0C11530E46E
:10284000D30708F034C1C83ED10518F5C03ED10504
:1028500008F0BBC1C83AD10570F4C53AD10508F0FB
:10286000B0C0C130D10509F4B0C108F45EC12497ED
:1028700008F45BC1AAC1CF3BD10508F4ADC0C03C90
:10288000D10508F452C1FE01EE0FFF1FE052FB4FCD
:1028900002C1C11520E2D20760F4C11531E0D307AF
:1028A00008F093C1C03FD10508F43FC1CE01906547
:1028B0008CC1C11580E3D80708F0F0C0FE01FF709D
:1028C000EE0FFF1FE05AF94FE6C0C11595E5D90795
:1028D00008F044C0C11524E5D20708F000C1C115B5
:1028E00032E5D30710F5C11581E5D80708F0E3C03C
:1028F0002C2F237081E090E002C0880F991F2A9549
:10290000E2F79C689E0174E0369527957A95E1F789
:102910002370922BEC2FEF70E695E69530E2E39F63
:10292000F00111248E2B9F2B50C18C2F86958695FC
:10293000AE0143705527C115D34508F0C1C090E2E0
:10294000899F9001112481E090E002C0880F991FB7
:102950004A95E2F7822B932B9C6837C1C1152AE573
:10296000D207A0F4C11539E5D30708F0C6C0C115D8
:1029700086E5D80708F4B8C0C11598E5D90708F46A
:10298000D4C09C2F8827806F906A1FC1C1152BE58A
:10299000D20708F4CAC0CE01C1153CE5D30708F43C
:1029A000C1C090568115904208F0BFC08D2F8F7125
:1029B0000E94500EFE01FF27F0628F719F01382B9D
:1029C000AFC0C53AD10509F4B3C0C63AD10509F084
:1029D000B2C082E890E4F9C0C83AD10509F4AEC0AB
:1029E000C93AD10509F4ADC0CA3AD10509F4ACC061
:1029F000CB3AD10509F4ABC0CC3AD10509F4AAC051
:102A0000CB3BD10509F4A9C0CC3BD10509F4A8C042
:102A1000CD3AD10509F4A7C0C03BD10509F4A6C041
:102A2000CE3AD10509F4A5C0CF3AD10509F4A4C026
:102A3000C13BD10509F4A3C0C23BD10509F4A2C032
:102A4000C33BD10509F4A1C0C43BD10509F4A0C022
:102A5000C53BD10509F49FC0C63BD10509F49EC012
:102A6000C73BD10509F49DC0C83BD10509F49CC002
:102A7000C93BD10509F49BC0CD3BD10509F49AC0EF
:102A8000CE3BD10509F499C0CA3BD10509F498C0E1
:102A900080E094E49AC08591949197C09E01332779
:102AA000C901D3FF02C0986C90C0906C8EC0CE015B
:102AB0009F70906A8AC09C2F8827816F906A85C01A
:102AC00090E2899F9001112481E090E002C0880F7C
:102AD000991F4A95E2F7822B932B9A6876C09C2F18
:102AE0008827846F906A71C08C2F0E94500E8F715E
:102AF00090E0982F8827906268C08C2F8F700E947A
:102B0000500EFE0194E0F695E7959A95E1F7EF7087
:102B1000F0E0FE2FEE27F06A8F70806E9F01282B69
:102B2000C90153C09927906650C080E090E04DC025
:102B300081E890E44AC083E890E447C082EE94E4E0
:102B400044C089EE94E441C08AEE94E43EC085EB33
:102B500094E43BC086EB94E438C083EB94E435C046
:102B600084EB94E432C087EB94E42FC08CEC94E4C3
:102B70002CC08DEC94E429C083E895E426C08AE853
:102B800095E423C082E995E420C084E995E41DC062
:102B900081E296E41AC083E296E417C084E296E4E8
:102BA00014C085E296E411C086E296E40EC087E286
:102BB00096E40BC08FE694E408C080E794E405C077
:102BC0008AE296E402C080EE90E0DF91CF91089512
:102BD00080E290E090931201809311018091D401E2
:102BE000811111C01092B9008CE08093B80081E08F
:102BF0008093D4012FEF83ED90E3215080409040EB
:102C0000E1F700C0000080E40E9495229093120139
:102C100080931101892B09F040C080E00E946E2250
:102C20009093120180931101892BB9F580E00E94E5
:102C30006E229093120180931101892B71F58FE31D
:102C40000E946E229093120180931101892B29F525
:102C500084E98093BC0080E40E9495229093120145
:102C600080931101892BC9F48CE00E946E2290930D
:102C7000120180931101892B81F480E00E946E2261
:102C80009093120180931101892B39F48FE30E94F4
:102C90006E22909312018093110184E98093BC000D
:102CA00080911101089556985E9825982D98269840
:102CB0002E9827982F988FEF90E09093890080931B
:102CC000880090938B0080938A0090938D0080936E
:102CD0008C00259A2D9A2FEF80E792E021508040BA
:102CE0009040E1F700C00000269A2E9A2FEF80E76F
:102CF00092E0215080409040E1F700C00000279A08
:102D00002F9A2FEF80E792E0215080409040E1F72A
:102D100000C0000025982D982FEF80E792E0215009
:102D200080409040E1F700C0000026982E982FEFD9
:102D300080E792E0215080409040E1F700C0000021
:102D400027982F9856985E9825982D9826982E9813
:102D500027982F98089584B1807F84B985B1807FAA
:102D600085B98AB1837F8AB98BB1837F8BB93E984D
:102D70004698089580B38C7080BB81B3836F81BB0C
:102D80000895AF92BF92CF92DF92EF92FF920F938E
:102D90001F93CF93DF938091110190911201892BA2
:102DA00091F08091D3018F5F8093D30181110BC08B
:102DB0000E94E81590E09093120180931101892BF5
:102DC00011F40E9453160DEE11E044EFE42E41E0A1
:102DD000F42E6801C0E0B12C37E0A32EAC0E8C2F8E
:102DE0000E942F0F8A2D0E942F0F8C2F0E947E0F82
:102DF000D6019C91981719F08C93D1E001C0D0E0D6
:102E00008A2D0E947E0FF7019081981719F0808318
:102E100081E001C080E0D82BBD2A0E94AB16CF5FB5
:102E2000FFEFCF1ADF0A6FEFE61AF60AC730A1F6F6
:102E30000E94ED296AEF70E00E948030782F609147
:102E4000D201662381F11092D201E091E701F09165
:102E5000E801DF01AC5ABF4FF12C2BEFE22ECAEF95
:102E6000D0E0AF014A5F5F4F20812B3F99F0C22E27
:102E7000D12C721720F09C012C193D0905C09E0130
:102E80002C193D09280F391F2530310514F0E08237
:102E900001C0F62E3196E417F50731F7EA17FB0764
:102EA00001F7F092D201BB20A1F14091E7015091CE
:102EB000E8016091D201E1E0F2E0EE24E394F12C2C
:102EC0009EE0D92EDE0ED8019D918D01808198273C
:102ED000DA0120E030E0E701022E01C0CC0F0A94B5
:102EE000EAF7CC2EC92241F0CC90DBEFBD2ECB10FF
:102EF00003C07C938C2761E011962F5F3F4F2630F3
:102F0000310549F74A5F5F4F8193DE12DCCF609352
:102F1000D20181E0DF91CF911F910F91FF90EF904F
:102F2000DF90CF90BF90AF9008952091E400309152
:102F3000E50095E64091EC00842F817040FF22C0AF
:102F40008091E80080FD1CC080912303882391F0CC
:102F5000853091F08091EB0085FD10C04091E40038
:102F60005091E5004217530729F39A01915011F748
:102F700084E0089582E0089583E0089581E0089553
:102F800080E008954091E80042FFDECF08958091EF
:102F9000250387FF11C08091E80082FD05C0809164
:102FA00023038111F8CF11C08091E8008B770BC00B
:102FB00080912303882349F08091E80080FFF8CFB7
:102FC0008091E8008E778093E8000895982F9730DD
:102FD00058F59093E900981739F07091EC00209122
:102FE000ED005091F00003C0242F762F50E021FF18
:102FF00019C03091EB003E7F3093EB003091ED0033
:103000003D7F3093ED003091EB0031603093EB0069
:103010007093EC002093ED005093F0002091EE00AF
:1030200027FF07C09F5FD3CF8F708093E90081E0B7
:10303000089580E0089520912B0330912C032617EA
:10304000370748F06115710539F42091E8002E77B3
:103050002093E80001C0B90140E061157105A9F1B4
:1030600020912303222309F443C0253009F442C0F0
:103070002091E80023FD40C02091E80022FD32C0ED
:103080002091E80020FFE9CF4091F3002091F20069
:1030900030E0342BFC01CF016115710559F0283067
:1030A000310540F481918093F100615071092F5FE7
:1030B0003F4FF1CF41E02830310509F040E0209149
:1030C000E8002E772093E800C8CF4111C9CF0AC08D
:1030D00080912303882361F0853061F08091E800BE
:1030E00083FD0AC08091E80082FFF2CF80E008955E
:1030F00082E0089583E0089581E008958091870239
:10310000811107C080912303843011F081E008957C
:1031100082E00895CF93DF93CDB7DEB72F970FB638
:10312000F894DEBF0FBECDBF84B7877F84BF0FB6D4
:10313000F894A89580916000886180936000109257
:1031400060000FBE80E8809361001092610085B737
:10315000806885BF85B7806885BF0E942F260E9442
:103160004E268091E20084608093E2007894809102
:1031700023038823A1F01091E9001F709091EC00C7
:10318000892F817090FD80E8182B1092E9008091C2
:10319000E80083FD0E9416231F701093E90082E06F
:1031A00084BD93E095BD9AEF97BD80936E000E9419
:1031B000E81590E090931201809311010E94AB16E4
:1031C0000E94BA16ADEEB1E0E1E0F2E09EE0392EE9
:1031D0003E0E11921D923E12FCCF84E590E00E94BB
:1031E000AE30AC019093E8018093E70120E030E03D
:1031F0008BEFFA01E20FF31F90E081939F5F96300F
:10320000E1F72A5F3F4F2435310599F70E949B2A49
:10321000811102C00E94A62A8CE090E00E94EF2C4F
:1032200090E0A0E0B0E08093E9019093EA01A093E0
:10323000EB01B093EC0189EA8093800089E08093F0
:10324000810024982C983F988AB18F7C8AB96E9817
:10325000479A8BB180638BB9769A0E9453160E946D
:103260009B2A811102C00E94A62A82E090E00E945F
:10327000EF2C8093190284E090E00E94EF2C90E004
:103280009093FC018093FB0183E090E00E94EF2C7F
:10329000682F70E080E090E00E9405208091FD01A1
:1032A000811139C0809119028160809319020E94B6
:1032B0009B2A811104C00E94A62A0E94B61188E0B0
:1032C00090E00E94F72C60938102709382028093B9
:1032D0008302909384026E7771F40E94B61188E0A5
:1032E00090E00E94F72C6093810270938202809399
:1032F0008302909384020E944C1181E080938602A5
:103300008091810280FF04C086958F730E943D13D7
:1033100081E08093FD0185E191E09093FF0180932E
:10332000FE011AE7412E17E0512E0FE0802E912C5E
:1033300088E6A82EBB24B39480912303853009F03E
:1033400047C080912303843021F11092000220E4D1
:1033500088E190E00FB6F894A895809360000FBEC6
:103360002093600083B7817F846083BF83B78160CF
:1033700083BF7894889583B78E7F83BF0FB6F89408
:10338000A895809160008861809360001092600031
:103390000FBE80912203882309F4CECF0E94E81546
:1033A00090E090931201809311010E94AB160E944D
:1033B000BA16E1E0F2E011923E12FDCF0E94C11672
:1033C000E1E0F2E081918111BCC33E12FBCFB4CFAA
:1033D0000E94C116EAE1F2E0A1E0B2E000E010E0F4
:1033E000702F6D9121912627C1F180E090E030E0AF
:1033F000F82EA901082E02C0559547950A94E2F7C8
:1034000040FF27C089837A8381E090E09C0102C05D
:10341000220F331FFA94E2F77901862F90E082237E
:10342000932321E0892B09F420E02B830E94ED29CE
:103430008160782F9D838C8349815A816B818D8136
:103440000E94D70FF801E65EFD4F8081E826E082FA
:103450001AC001968630910559F60F5F1F4F0E3046
:10346000110509F0BDCF8FEF8E838F8318860E94E0
:10347000ED298160782F9A8789874E815F816885E1
:103480008A850E94D70F80911602909117020E94A0
:10349000C3299C0190911502992321F02431310513
:1034A00008F46BC0809111021091120281110BC0BF
:1034B00011115DC320911302211159C320911402EF
:1034C000211155C35AC09F3F19F09F5F9093150279
:1034D000181624F40E94152980931102809111027C
:1034E00087FF05C00E94152981958093110211164E
:1034F00024F40E941529809312028091120287FF02
:1035000005C00E94152981958093120240911102F5
:10351000442379F030911202332359F025EB420312
:10352000A0011124509311023203C0011124909381
:10353000120280911302181624F40E94F528809339
:1035400013028091130287FF05C00E94F528819520
:103550008093130280911402181624F40E94F52817
:10356000809314028091140287FF05C00E94F52801
:103570008195809314020E94F929109118020E94EB
:103580000C11181721F00E940C11809318028091E1
:103590008602882309F4D0CE80918102E82FE69537
:1035A000EF739EE39E0F9F73943008F055C0E25076
:1035B000F0E0E659F84F14918091290290912A0287
:1035C0000E94C329E12FF0E08E179F0708F4B4CEC4
:1035D0000E94ED2990932A0280932902609128028B
:1035E00070E080E090E00E94812E20E030E04FE724
:1035F00053E40E94A42D2BED3FE049E450E40E94E7
:10360000AA2F0E9417300E941E2E2BE43AE34EE2AE
:103610005FE30E94372D20EF3BEF48ED52E40E941C
:10362000AA2F0E94502E462F80918102881F882742
:10363000881F90918202292F220F97FB992790F9DA
:1036400060918302822B0E946A138091280290E08D
:1036500001968093280270CE9AE39E0F9F73933059
:1036600070F5E650F0E0E259F84F149180912D0288
:1036700090912E020E94C329E12FF0E08E179F0740
:1036800008F45ACE0E94ED2990932E0280932D02C9
:10369000409184026091830280912B0290912C02D0
:1036A0000E946A1380912B0290912C020196B50121
:1036B0000E94803090932C0280932B023DCE97E3A2
:1036C0009E0F9F73963008F04DC0B7EFDB2EDE0ED5
:1036D000ED2DE695F0E0EF58F84F1491809131020E
:1036E000909132020E94C329E12FF0E08E179F07CC
:1036F00008F422CE0E94ED29909332028093310289
:10370000A1E4EA2EA2E0FA2E00E010E080912F0260
:1037100090913002800F911FB5010E948030970177
:1037200040918402609183020E94C611085E1F4F7F
:1037300034E0E30EF11C083641E0140739F70E942B
:10374000181180912F0290913002D0FE05C0019691
:10375000B8010E94803001C001979093300280939D
:103760002F02EACD91E39E0F9F73963008F084C03C
:10377000EF50E0FF03C08FEF8F8702C091E09F877B
:10378000E695F0E0EC58F84F149180913402909156
:1037900035020E94C329E12FF0E08E179F0708F43D
:1037A000CBCD0E94ED299093350280933402E1E461
:1037B000CE2EE2E0DE2EF3E4EF2EF2E0FF2E00E06C
:1037C00010E0F70131971082F6011082F7011082A4
:1037D00074E0672E712C212C80913302820D87FDBD
:1037E000815F082E000C990B08171907F1F48091DE
:1037F0008402869DB001879D700D1124AB01559503
:1038000047955595479580918102881F8827881F85
:1038100090918202792F770F97FB992790F9960163
:1038200060918302872B0E94C611FF852F0E21E035
:10383000621A710889F60F5F1F4F34E0C30ED11C66
:1038400044E0E40EF11C0F30110509F0BACF0E94DC
:103850001811809133029F85913041F4811102C08B
:103860008EE001C081508093330266CD90E00196D6
:10387000B8010E949430F7CF9BE29E0F9F73933064
:1038800008F076C0E551F0E0E958F84F14918091C6
:103890003702909138020E94C329E12FF0E08E1781
:1038A0009F0708F449CD0E94ED2990933802809338
:1038B000370280E090E0FC01EF5BFD4F1182108247
:1038C000128204968C339105B1F700E010E0C80134
:1038D000B4010E94943020913602022E000C330B6A
:1038E000FC01EE0FFF1FEE0FFF1F02171307FCF086
:1038F00080911401082E000C990B80179107BCF0E1
:103900009F012F5B3D4F80918102881F8827881F70
:1039100090918202592F550F97FB992790F940916A
:10392000840260918302852B0E94C61105C0EF5B63
:10393000FD4F1182108212820F5F1F4F0F30110551
:1039400031F60E9418118091130190913602980F60
:103950009093360220911401280F2093140112161F
:103960001CF49E300CF4E8CC819580931301E4CCD8
:103970008E77803309F042C080913B0290913C02E7
:103980000E94C329883E934008F4D6CC0E94ED29BA
:1039900090933C0280933B020091390210913A02CD
:1039A0000F5F1F4F0170112710933A0200933902E5
:1039B00081E4C82E82E0D82EF12C98E7E92E8F2DD5
:1039C00086959801280F311DC901817099279601AC
:1039D0004091840260918302FC01EE9EC001EF9E43
:1039E000900D11240E94C611F394F4E0CF0ED11C67
:1039F0002FE0F212E4CF0E9418119ECC863409F019
:103A000046C080913F02909140020E94C329F2017A
:103A1000259134918217930708F48ECC80913E0251
:103A200081110CC09E01255F3F4F4FEF6FEF80E08B
:103A300090E00E94C6118C8580933E020E94ED2981
:103A40009093400280933F0280913D02813051F07B
:103A500028F0823061F440913E020AC080913E021B
:103A600040E007C060913E0240E080E003C040E0DB
:103A700080E060E00E942F1180913D0290E001966D
:103A800063E070E00E94943080933D0255CC88340E
:103A900009F052CC80917F02909180020E94C3294C
:103AA000843F914008F448CC0E94ED299093800215
:103AB00080937F0201E412E0E12CF12C80918102DD
:103AC0009091820220917D0230917E0247E0E416BF
:103AD000F1041CF4232B79F002C0232B61F4881F1E
:103AE0008827881F592F550F97FB992790F9980120
:103AF000409184020AC0881F8827881F592F550FBC
:103B000097FB992790F9980140E060918302852BFB
:103B10000E94C6118FEFE81AF80A0C5F1F4F9FE052
:103B2000E916F10459F60E94181180917D029091D6
:103B30007E0201968170992790937E0280937D0288
:103B4000FBCB80E189BD82E189BD09B400FEFDCFD8
:103B50008091D8008F7D8093D8008091E0008260B2
:103B60008093E0008091E00081FDFCCFE5CB9F3F9A
:103B700009F0ABCCB3CC10925103109250030E94C9
:103B8000032BEFE0F2E086E0DF011D928A95E9F772
:103B90001092150210925D030E94F92980E090E0D6
:103BA0000E94F61080E090E00C94E0100E94ED2955
:103BB00020915203309153038217930750F00E94D3
:103BC000ED292091520330915303821B930B9C01EA
:103BD0000AC00E94ED292091520330915303209591
:103BE0003095280F391F81E0283E334008F480E0EB
:103BF0000895BF92CF92DF92EF92FF920F931F939F
:103C0000CF93DF938C01C0905503D0905603E09082
:103C10005703F09058038091F9029091FA02A09115
:103C2000FB02B091FC02C82AD92AEA2AFB2ACFE17A
:103C3000D0E0D701C6010C2E04C0B695A795979584
:103C400087950A94D2F780FF07C0BC2EB8018C2F4D
:103C50000E948B13019719F4219758F7B12C8B2DE3
:103C6000DF91CF911F910F91FF90EF90DF90CF9058
:103C7000BF900895CF93DF93EC010E94F91DBE0120
:103C80000E948B13DF91CF9108950E943A1E292F35
:103C90002F7092959F70E92FF0E03297EE30F1058A
:103CA000B8F4E556FF4F0C94A830803F99F018F413
:103CB000803E70F40FC0843F59F40CC0803E50F039
:103CC000813F31F407C0822F8695869586950895A9
:103CD00080E0089581E00895292F220F920F990F17
:103CE000890F682F669566956695982F977085E081
:103CF000689FB001112440E050E080E0FA01E60F37
:103D0000F71FEE53FD4F208130E0092E02C036959B
:103D100027950A94E2F721703327042E01C0220F61
:103D20000A94EAF7822B4F5F5F4F4530510531F718
:103D30000895292F220F920F990F890FA82FA6956A
:103D4000A695A695877051E001C0550F8A95EAF7B0
:103D500085E0A89FD001112420E030E070E0F90157
:103D6000EA0FFB1FEE53FD4F4081CB01022E02C034
:103D7000969587950A94E2F7817099278195842713
:103D80008523842780832F5F3F4F2530310539F706
:103D90000895CF92DF92EF92FF926B017C01AA27E8
:103DA000BB270097A105B10511F0E0E103C0D701E1
:103DB000C601E0E0492F5A2F6B2F77274115510597
:103DC0006105710519F0E85FDB01CA01AC01BD01B5
:103DD000F4E07695679557954795FA95D1F7411593
:103DE00051056105710519F0EC5FDB01CA01AC01F9
:103DF000BD0132E076956795579547953A95D1F78D
:103E0000411551056105710519F0EE5FDB01CA012D
:103E1000B695A79597958795892B8A2B8B2B09F0BB
:103E2000EF5F56985E9825982D9826982E9827989B
:103E30002F988E2F90E0FC013197E730F10518F5AF
:103E4000E755FF4F0C94A830259A2D9A52C0269A18
:103E50002E9A5AC0279A2F9A62C0259A2D9A269A8E
:103E60002E9A5DC0259A2D9A279A2F9A63C0269A7A
:103E70002E9A279A2F9A69C0259A2D9A269A2E9AB9
:103E8000279A2F9A6EC08730910508F06AC0FC010E
:103E9000E055FF4F0C94A83088E090E00E94F72C8A
:103EA00060938102709382028093830290938402D4
:103EB00060FF1CC00E944C138091810286958F7315
:103EC0000E94491380918102881F8827881F909142
:103ED0008202292F220F97FB992790F940918402A3
:103EE00060918302822B0E94F2123BC00E949E11BD
:103EF00038C00E94401381E00E943D1320E04FEF44
:103F00006FEF84EB90E02BC00E94401381E00E9491
:103F10003D1320E04FEF6FEF84E291E020C00E945C
:103F2000401381E00E943D1320E04BEB6CE58DE2F5
:103F300090E015C00E94401381E00E943D1320E0F4
:103F40004FEF6FEF80E090E00AC00E94401381E0E5
:103F50000E943D1320E04FEF6FEF86E290E00E9459
:103F60003A12C092F902D092FA02E092FB02F09269
:103F7000FC02FF90EF90DF90CF900C94BB1D0F934D
:103F80001F9341E050E060E070E004C0440F551F13
:103F9000661F771F8A95D2F740955095609570956A
:103FA0008091F9029091FA02A091FB02B091FC027B
:103FB0008A019B01082319232A233B23C901B80145
:103FC0001F910F910C94C91E0F931F9341E050E075
:103FD00060E070E004C0440F551F661F771F8A958C
:103FE000D2F78091F9029091FA02A091FB02B09170
:103FF000FC028A019B01082B192B2A2B3B2BC901A0
:10400000B8011F910F910C94C91E609355037093D2
:10401000560380935703909358030C94BB1D8091D3
:10402000C10290919002891719F08F5F8770FBCFC2
:10403000089580918F0282958F7009F054C080910D
:104040008C02882309F44FC08091C102A091900294
:1040500060918A0270918B0240918D0250918E0284
:10406000B6E08A1709F43FC090E041155105C1F14F
:104070007F3F11F46F3FA1F1B89FF001B99FF00DA0
:104080001124EF56FD4F218172132AC02081621343
:1040900027C02281211124C02381348124173507B0
:1040A00010F421503109241B350B283C3105C0F494
:1040B00020918F022F70206120938F0226E0289F8D
:1040C000F001299FF00D1124EA56FD4F80818F7079
:1040D000806180838AE892E00E94A1040C940F2002
:1040E00001968770BECF0895BF92CF92DF92EF9274
:1040F000FF920F931F93CF93DF93CDB7DEB76197F6
:104100000FB6F894DEBF0FBECDBF8C0185E0F8017D
:10411000DE011D9601900D928A95E1F7D8013C9140
:1041200011962C9111971296EC9012971396CD90B0
:10413000DC90149750918A0260918B0280918D02DD
:1041400090918E02009709F44FC16F3F19F45F3FC1
:1041500009F44AC1B0908C02BB2009F4ECC0409134
:104160008F02C816D90628F0F601E81BF90BCF011B
:1041700004C0809590958C0D9D1DFF24F394883C80
:10418000910548F0F12C407F09F09FC08AE892E049
:104190000E94A10421C1842F807F09F044C06213D2
:1041A00012C0531310C0E1100EC04F704061409315
:1041B0008F028AE892E00E94A10480918F02D801C8
:1041C00015968C932EC0CD2819F12F3F11F43F3F47
:1041D000F9F0FE2CE1101CC08091C10240919002C8
:1041E00056E0841709F458C090E0589FF001599F99
:1041F000F00D1124EF56FD4F6181261306C060813A
:10420000361303C06281611103C001968770E9CF44
:10421000FE2CEE2009F421C180918F0281608093F1
:104220008F02F12C1AC162130AC0531308C0E110A7
:1042300006C080918F02D80115968C93B0C03D873F
:104240002E878D859E850E94451E8823D1F1EE2004
:10425000C1F120918F02822F82958F7090E002979A
:1042600074F080918A0290918B0298878F831986CF
:10427000DB86CA862C87CE0107960E94A10486E0C1
:10428000F801AAE8B2E001900D928A95E1F70E9448
:104290001920FF24F394E1C03D872E878D859E85EC
:1042A0000E943A1E292F22952F7030E022303105CE
:1042B0000CF0C7C09F7009F0C1C0805E883008F460
:1042C000CCC0C8010E94A104E4CF621314C05313F0
:1042D00012C0E11010C080918F02F8018583C801DF
:1042E0000E94A10486E0EAE8F2E0DF011D928A95CF
:1042F000E9F7FB2CB2C03D872E878D859E850E94F5
:10430000451E8823F1F2EE20E1F220918F02822FE8
:1043100082958F7090E002970CF4B1CF80918A0261
:1043200090918B029A8389831B82DD82CC822E83BB
:10433000CE010196A2CFC816D90638F0C81AD90AFC
:10434000B8ECCB16D10450F007C0809590958C0D39
:104350009D1D883C910510F0F12C3EC0FE2CEE20F6
:1043600009F4AFCF621327C0531325C020918F02E9
:1043700020FD18C0822F82958F70482F50E0411584
:10438000510581F0F80125834F30510541F08F5FD1
:10439000982F9295907F822F8F70892B8583C801EB
:1043A0000E94A10486E0F801AAE8B2E001900D9213
:1043B0008A95E1F752C03D872E878D859E850E94A4
:1043C000451E81115CCF80918F02816080938F02A6
:1043D000C8010E94A10441C0EAE8F2E086E0DF01E2
:1043E0001D928A95E9F739C0EE2009F46ACF3D871E
:1043F0002E878D859E850E94451EF82E882309F400
:1044000060CF86E0F801AAE8B2E001900D928A95AB
:10441000E1F780918A0290918B020E943A1E929558
:104420009F70963041F48091890291E089278093B2
:104430008902909388020E9419200FC081113DCFFC
:104440000CC0243031050CF03CCF9F7009F435CFFF
:10445000F8019581907F09F030CF8F2D61960FB6CE
:10446000F894DEBF0FBECDBFDF91CF911F910F91AA
:10447000FF90EF90DF90CF90BF90089580911F0143
:10448000882331F08091FB0187FF02C08EE101C0DB
:1044900086E0EFE2F3E0DF011D928A95E9F70C94E4
:1044A000BB1D882341F080959091FE028923809363
:1044B000FE020C94032B0895882339F09091FE029C
:1044C000892B8093FE020C94032B0895CF93C82F61
:1044D0000E94D52B8C2FCF910C946E2BCF93DF9312
:1044E0008093BB0084E88093BC000E94ED29EC011E
:1044F0009091BC0097FD0AC00E94ED298C1B9D0B7A
:1045000084369105A8F38EEF9FEF0CC02091B9007F
:10451000287F81E090E0283211F480E090E09195CE
:1045200081959109DF91CF9108950F931F93CF93B8
:10453000DF93C82F1092BC0084EA8093BC000E94D5
:10454000ED298C019091BC0097FD0AC00E94ED29D5
:10455000801B910B84369105A8F38EEF9FEF2AC044
:104560009091B900987F983041F09091B900987F70
:10457000903119F08FEF9FEF1DC0C093BB0084E80E
:104580008093BC000E94ED29EC019091BC0097FD46
:1045900008C00E94ED298C1B9D0B84369105A8F361
:1045A000DCCF8091B900887F883111F0803411F719
:1045B00080E090E0DF91CF911F910F910895CF920D
:1045C000DF92FF920F931F93CF93DF931F92CDB78C
:1045D000DEB7F82E8B0199830E949517998181117E
:1045E0001CC0CF2CD92E01151105B1F08091E80027
:1045F00085FD0AC08091E8008E778093E8000E94D4
:104600009517882381F309C0F60181916F0180938A
:10461000F10001501109E7CF80E00F90DF91CF91B9
:104620001F910F91FF90DF90CF9008951F93CF932C
:10463000DF93CDB7DEB7AA970FB6F894DEBF0FBEF3
:10464000CDBFE5E2F3E088E08E0F9091F100919309
:104650008E13FBCF80912603833009F460C030F4C1
:10466000813071F0823009F49CC0B3C08A3009F403
:1046700088C08B3009F46BC0893009F0AAC020C013
:1046800080912503813A09F0A4C08091E800877FDA
:104690008093E8008091290390912A03892B21F4CB
:1046A00060E281E093E003C060E080E090E070E0D1
:1046B0000E941B188091E8008B778093E80089C0E6
:1046C00080912503813209F084C080912903909163
:1046D0002A03029708F07DC08091E800877F8093CD
:1046E000E8008091E80082FD05C0809123038111DC
:1046F000F8CF6FC02091F3008091F20090E0922BF0
:10470000029729F48091F1008B7F813021F4809110
:10471000F100809300038091E8008B7756C0809170
:104720002503813A09F055C08091290390912A030D
:10473000892B09F04EC08091E800877F8093E800C4
:104740008091E80080FFFCCF80911F0139C08091EB
:1047500025038132F1F58091290390912A03892B59
:10476000C1F58091E800877F8093E8000E94C71719
:104770008091270380931F011092FE020E943E2227
:1047800028C080912503813221F58091E800877F40
:104790008093E8000E94C717809128038093FF024E
:1047A00018C080912503813AA1F48091E800877FA9
:1047B0008093E8008091E80080FFFCCF8091FF02A9
:1047C0008093F1008091E8008E778093E8000E944A
:1047D000C7178091E80083FFD6C18091250390918F
:1047E0002603492F50E04A30510508F0CCC1FA01A8
:1047F000E954FF4F0C94A830803821F0823809F03A
:10480000C2C108C08091210390912203992389F0AD
:1048100082600FC0809129038F70873008F0B3C188
:104820008093E9008091EB0085FB882780F9109246
:10483000E9009091E800977F9093E8008093F10061
:104840001092F10074C1282F2D7F09F09CC188239C
:1048500019F0823061F097C180912703813009F00F
:1048600092C1933009F080E0809322032EC08091A2
:10487000270381112AC0809129038F702FEF280F01
:10488000263008F080C18093E9002091EB0020FFE2
:104890001CC0933021F48091EB00806214C0909191
:1048A000EB0090619093EB0021E030E0A90102C0A1
:1048B000440F551F8A95E2F74093EA001092EA00F0
:1048C0008091EB0088608093EB001092E90080916A
:1048D000E800877F2FC1811156C1109127031F77F0
:1048E0008091E3008078812B8093E3008091E80041
:1048F000877F8093E8000E94C7178091E80080FFBF
:10490000FCCF8091E30080688093E300111102C026
:1049100082E001C083E08093230335C18058823058
:1049200008F031C180912703909128038C3D53E01A
:10493000950779F583E08A838AE289834FB7F894F3
:10494000DE01139620E03EE051E2E32FF0E05093C9
:104950005700E49120FF03C0E295EF703F5FEF70D6
:104960008E2F90E0EA3010F0C79601C0C0968D936C
:104970009D932F5F243149F74FBF8091E800877FD7
:104980008093E8006AE270E0CE0101960E941B1855
:10499000BDC04091290350912A03292F332723308A
:1049A0003105B9F06CF42130310509F4FBC0223037
:1049B000310509F0E8C08BE390E0ECE7F8E054C083
:1049C0002132310509F433C02232310509F43CC0EB
:1049D000DAC0992781309105D1F05CF4892B09F078
:1049E000D2C0EFEFF8E0E4918E2F90E0EFEFF8E027
:1049F00038C08230910599F0039709F0C4C0E9EC02
:104A0000F8E0E4918E2F90E0E9ECF8E02AC0E7EEC0
:104A1000F8E0E4918E2F90E0E7EEF8E022C0EFECB2
:104A2000F8E0E4918E2F90E0EFECF8E01AC0411529
:104A3000510509F4BCC04130510509F0A4C089E01A
:104A400090E0E7EAF8E010C04115510509F4B4C060
:104A50004130510509F097C080EC90E0ECE7F7E0B9
:104A600003C0009709F48FC02091E800277F2093AE
:104A7000E80020912B0330912C032817390708F404
:104A8000C90140E0009789F120912303222309F412
:104A90003DC02530D9F12091E80023FD37C0209199
:104AA000E80022FD2FC02091E80020FFEBCF4091CD
:104AB000F3002091F20030E0342B009759F02830B9
:104AC000310540F444914093F100319601972F5FF6
:104AD0003F4FF3CF41E02830310509F040E020910D
:104AE000E8002E772093E800CDCF4111CDCF0AC04A
:104AF00080912303882351F0853041F08091E800B4
:104B000083FD04C08091E80082FFF2CF8091E8002D
:104B10008B778093E80037C08038A9F58091E80052
:104B2000877F8093E800809124038093F100809137
:104B3000E8008E778093E8000E94C71724C0811197
:104B400022C0109127031230F0F48091E800877F93
:104B50008093E800109324030E94C717111106C028
:104B60008091E30087FD02C081E001C084E0809372
:104B7000230342E061EC81E00E94E61742E261EC2F
:104B800082E00E94E6178091E80083FF1AC08091BE
:104B9000E800877F8093E8008091EB00806280933B
:104BA000EB000FC082E190E0E7EBF8E05DCF89E039
:104BB00090E0EEE8F8E058CF80E490E0ECE3F8E035
:104BC00053CFAA960FB6F894DEBF0FBECDBFDF91CC
:104BD000CF911F9108951F920F920FB60F9211243B
:104BE0002F933F934F935F936F937F938F939F93F5
:104BF000AF93BF93CF93DF93EF93FF93C091E900FF
:104C0000CF708091EC00D82FD17080FDD0E8109249
:104C1000E9008091F000877F8093F00078940E94F3
:104C200016231092E9008091F00088608093F000D4
:104C3000CD2BCF70C093E900FF91EF91DF91CF9121
:104C4000BF91AF919F918F917F916F915F914F91A4
:104C50003F912F910F900FBE0F901F901895E8ED88
:104C6000F0E080818E7F80831092E2001092DA0063
:104C70001092E100A0EEB0E08C9181608C93808175
:104C80008F77808319BCA7EDB0E08C918E7F8C93D9
:104C900080818F7E80831092FD020895CF92DF92F3
:104CA000EF92FF920F931F93CF93DF93C8EDD0E065
:104CB00088818F7E8883E7EDF0E08081816080834A
:104CC00084E082BF81E08093FD0288818E7F8883AB
:104CD00002EE10E0F80110821092DA0081EEC82E88
:104CE000D12CF601108288818F7788838881806833
:104CF000888388818F7D888319BC1092230310924A
:104D00002403109222031092210390EEE92EF12C3D
:104D1000F70180818B7F808388818160888342E076
:104D200060E080E00E94E617F60180818E7F80833C
:104D3000F801808181608083808188608083F701B1
:104D400080818E7F8083888180618883DF91CF918D
:104D50001F910F91FF90EF90DF90CF9008951F92D9
:104D60000F920FB60F9211242F933F934F935F939F
:104D70006F937F938F939F93AF93BF93EF93FF9323
:104D80008091E10082FF09C08091E20082FF05C0AE
:104D90008091E1008B7F8093E1008091DA0080FFB9
:104DA0002AC08091D80080FF26C08091DA008E7FD3
:104DB0008093DA008091D90080FF18C080E189BD1E
:104DC00082E189BD09B400FEFDCF81E08093230319
:104DD0008091FD0281110FC00E942F260E944E2655
:104DE0008091E20084608093E20005C019BC1092BB
:104DF00023031092FD028091E10080FF17C0809193
:104E0000E20080FF13C08091E2008E7F8093E20079
:104E10008091E20080618093E2008091D8008062FE
:104E20008093D80019BC85E0809323038091E10032
:104E300084FF34C08091E20084FF30C080E189BDEE
:104E400082E189BD09B400FEFDCF8091D8008F7D3D
:104E50008093D8008091E1008F7E8093E100809163
:104E6000E2008F7E8093E2008091E2008160809377
:104E7000E20080912403882311F084E007C0809130
:104E8000E30087FD02C081E001C083E0809323033B
:104E90001092FE020E943E220E940C118091E100BD
:104EA00083FF27C08091E20083FF23C08091E1004F
:104EB000877F8093E10082E0809323031092240394
:104EC0008091E1008E7F8093E1008091E2008E7FEF
:104ED0008093E2008091E20080618093E20042E0F2
:104EE00060E080E00E94E6178091F0008860809387
:104EF000F000FF91EF91BF91AF919F918F917F91C2
:104F00006F915F914F913F912F910F900FBE0F9036
:104F10001F901895809100030895CF93DF9300D0E0
:104F20001F92CDB7DEB720912303243031F523E063
:104F30002983805891099B838A8382E08093E900CA
:104F40008FEF9091E800815095FD06C095ED9A9500
:104F5000F1F700008111F5CF8091E80085FF0DC0C9
:104F600040E050E063E070E0CE0101960E94DF2255
:104F70008091E8008E778093E8000F900F900F905B
:104F8000DF91CF9108950F931F93CF93DF9300D0BC
:104F90001F92CDB7DEB78C010E947E18823011F0CF
:104FA000843021F584E089831B830A8382E0809327
:104FB000E9008FEF9091E800815095FD06C095EDD6
:104FC0009A95F1F700008111F5CF8091E80085FFF7
:104FD0000DC040E050E063E070E0CE0101960E9419
:104FE000DF228091E8008E778093E8000F900F9089
:104FF0000F90DF91CF911F910F910895CF93DF9381
:10500000EC010E947E18823011F08430F9F482E0C5
:105010008093E9009FEF8091E800915085FD06C0E4
:1050200085ED8A95F1F700009111F5CF8091E800A8
:1050300085FF0CC040E050E066E070E0CE010E94C9
:10504000DF228091E8008E778093E800DF91CF9196
:105050000895CF93DF93EC010E947E18823011F007
:105060008430D9F580911F01882339F08091FB01AC
:1050700087FF03C060E282E002C068E081E08093C5
:10508000E9008FEF9091E800815095FD06C095ED05
:105090009A95F1F700008111F5CF8091E80085FF26
:1050A0001CC080911F01811105C040E050E068E004
:1050B00070E003C070E040E050E0CE010E94DF22CB
:1050C0008091E8008E778093E80080E2FE01A1E005
:1050D000B3E001900D928A95E1F7DF91CF910895A9
:1050E000803F39F48091120287FF6CC01092120247
:1050F00069C0813F29F4809112021816BCF362C086
:1051000090911102823F29F497FF5CC01092110226
:1051100059C0833F19F41916CCF354C0893F41F4A8
:105120008091130218160CF04DC0109213024AC061
:105130008A3F29F48091130287FF44C0F6CF8B3F4A
:1051400039F48091140287FF3DC0109214023AC0D6
:105150008C3F29F4809114021816BCF333C0843FAD
:1051600021F4809110028E7F17C0853F21F4809139
:1051700010028D7F11C0863F21F4809110028B7F39
:105180000BC0873F21F480911002877F05C0883FC4
:1051900031F4809110028F7E8093100213C08D3FF6
:1051A00021F480915D038E7F0BC08E3F21F48091AE
:1051B0005D038D7F05C08F3F29F480915D038B7F58
:1051C00080935D038091110281110EC080911202C3
:1051D00081110AC080911302811106C080911402CE
:1051E000811102C010921502089580915D0380FD27
:1051F00018C081FD14C082FD16C08091150288235D
:1052000081F0803580F425E0829FC001112460E5A3
:1052100070E00E949430862F672B19F005C082E061
:10522000089581E0089585E0089580915D0380FDF3
:1052300014C081FD14C082FD16C080911502882320
:1052400081F0843180F423E2829FC001112464E163
:1052500070E00E949430862F089588E0089581E1DF
:10526000089585E0089583E20895803F21F40E9427
:105270001529819504C0813F29F40E941529809346
:1052800012020895823F21F40E941529819504C0DD
:10529000833F29F40E941529809311020895893FC4
:1052A00019F40E94F52805C08A3F31F40E94F528C0
:1052B00081958093130208958B3F21F40E94F52875
:1052C000819504C08C3F29F40E94F5288093140234
:1052D0000895843F21F480911002816017C0853FBA
:1052E00021F480911002826011C0863F21F48091E8
:1052F000100284600BC0873F21F480911002886007
:1053000005C0883F31F480911002806180931002C3
:1053100008958D3F21F480915D0381600BC08E3F25
:1053200021F480915D03826005C08F3F29F4809154
:105330005D03846080935D03089578941F920F92BB
:105340000FB60F9211248F939F93AF93BF938091C9
:10535000590390915A03A0915B03B0915C030196AD
:10536000A11DB11D8093590390935A03A0935B0331
:10537000B0935C03BF91AF919F918F910F900FBE3F
:105380000F901F901895CF92DF92EF92FF920F939C
:105390001F932FB7F8944091590350915A0360918D
:1053A0005B0370915C032FBF6A017B01EE24FF2435
:1053B0008C0120E030E0C016D106E206F30610F4BE
:1053C000415051099A01281B390BC9011F910F91B6
:1053D000FF90EF90DF90CF9008952FB7F8948091D1
:1053E000590390915A03A0915B03B0915C032FBFC6
:1053F0000895E091FE01F091FF01309749F082E0BD
:1054000080930F020480F581E02D8FE092E00995F2
:105410000E94ED29909317028093160208951F921F
:105420000F920FB60F9211248F939F93AF93BF9358
:1054300080910002811113C08091590390915A0309
:10544000A0915B03B0915C034196A11DB11D8093B7
:10545000590390935A03A0935B03B0935C03BF91ED
:10546000AF919F918F910F900FBE0F901F90189545
:1054700020911F01222321F02091FB0127FD04C070
:10548000FC013296089619C0262F2695269526955A
:105490002E31C0F4FC01E20FF11D677081E090E055
:1054A00001C0880F6A95EAF78095928189238283EB
:1054B00008953196E817F90729F020812613F9CFCE
:1054C0001082F7CF089520911F01222321F020910F
:1054D000FB0127FD05C0FC0132962FEF30E019C01B
:1054E000262F2695269526952E3120F5FC01E20FD4
:1054F000F11D677081E090E001C0880F6A95EAF7BE
:105500009281892B828308952F3F39F03F5F363097
:1055100041F041914613F8CF0DC04111F7CF232F31
:10552000F5CF2F3F39F0FC01E20FF11D27FDFA9571
:1055300062830895089580E090E00E94FD2C21E0B0
:105540008D3E9E4F09F020E0822F08956DEE7EEF94
:1055500080E090E00E94212D60E082E090E00E94D7
:10556000032D60E083E090E00E94032D109255032C
:1055700010925603109257031092580360E084E093
:1055800090E00E94032D60E085E090E00E94032DF2
:1055900060E086E090E00E94032D6FEF87E090E0EE
:1055A0000E94032D40E050E0BA0188E090E00E94A4
:1055B000152D60E08DE090E00E94032D40E050E06A
:1055C000BA0188E190E00E94152D60E087E190E04B
:1055D0000E94032D40E050E0BA018FE090E00E946D
:1055E000152D40E050E0BA0183E190E00C94152DB8
:1055F00080915403882331F0109254031092530386
:10560000109252030895909151038091FE02892BCC
:1056100090915003892B80932D038091540388230C
:1056200021F10E94D61D81110E94F82A9091540305
:1056300080912D03892B80932D0380911F01882356
:1056400031F08091FB0187FF02C08EE101C086E04E
:10565000EFE2F3E090E0815028F021912223D9F38A
:105660009F5FF9CF91110E94F82AE091FE01F0911D
:10567000FF013097A9F080911F01882359F0809194
:10568000FB0187FF07C080912D0380932E0385E0E7
:1056900080932D030280F381E02D8DE293E0099445
:1056A000089520914F038095822380934F03982F74
:1056B000977099F430E0482F082E000C550B2417F2
:1056C000350759F08595859585950E94BF1F1092E5
:1056D0004F0310924E0310924D030895882309F44E
:1056E00063C0823869F40E940C1181FF5DC069E3D8
:1056F0008DE293E00E94632A0E94032B69E30EC0AF
:10570000833891F40E940C1180FF4EC063E58DE256
:1057100093E00E94632A0E94032B63E58DE293E0ED
:105720000E94382A0C94032B843869F40E940C11CF
:1057300082FF3AC067E48DE293E00E94632A0E94F0
:10574000032B67E4EBCF9CEF980F913A10F4682F8E
:10575000E5CF90E2980F983088F4877021E030E030
:10576000A90102C0440F551F8A95E2F7CA0180952E
:105770009091FE0289238093FE02D4CF9BE5980F7F
:10578000933020F480E090E00C94F61098E5980FA8
:10579000973120F480E090E00C94E010803F20F0FE
:1057A0000E9470280C94F9290895882309F416C1E1
:1057B0008238B1F40E940C1181FD10C169E38DE2C1
:1057C00093E00E94632A0E94032B2FEF41EE54E0E6
:1057D000215040405040E1F700C0000069E317C08D
:1057E0008338D9F40E940C1180FDF8C063E58DE286
:1057F00093E00E94632A0E94032B8FEF91EE24E036
:10580000815090402040E1F700C0000063E58DE248
:1058100093E00E94382A0C94032B8438B1F40E9440
:105820000C1182FDDBC067E48DE293E00E94632AE5
:105830000E94032B4FEF51EE84E0415050408040D6
:10584000E1F700C0000067E4E2CF9CEF980F913AC7
:1058500030F4682F8DE293E00E94632ADCCF90E25F
:10586000980F983080F4877021E030E0A90102C0E1
:10587000440F551F8A95E2F7CA019091FE02892BC9
:105880008093FE02C8CF9BE5980F933070F4853A61
:1058900029F0863A31F083E890E005C081E890E095
:1058A00002C082E890E00C94F61098E5980F9731CA
:1058B00008F08EC0883A09F445C0893A09F445C019
:1058C0008A3A09F445C08B3A09F445C08C3A09F488
:1058D00045C08B3B09F445C08C3B09F445C08D3A6B
:1058E00009F445C0803B09F445C08E3A09F445C02F
:1058F0008F3A09F445C0813B09F445C0823B09F465
:1059000045C0833B09F445C0843B09F445C0853B51
:1059100009F445C0863B09F445C0873B09F445C0FE
:10592000883B09F445C0893B09F445C08D3B09F427
:1059300045C08E3B09F445C08A3B09F445C080E070
:1059400090E044C082EE90E041C089EE90E03EC01D
:105950008AEE90E03BC085EB90E038C086EB90E0AB
:1059600035C083EB90E032C084EB90E02FC087EB32
:1059700090E02CC08CEC90E029C08DEC90E026C02B
:1059800083E891E023C08AE891E020C082E991E0B9
:105990001DC084E991E01AC081E292E017C083E261
:1059A00092E014C084E292E011C085E292E00EC061
:1059B00086E292E00BC087E292E008C08FE690E0BA
:1059C00005C080E790E002C08AE292E00C94E0100B
:1059D000803F20F00E9435290C94F9290895F99907
:1059E000FECF92BD81BDF89A992780B50895A6E1B2
:1059F000B0E044E050E00C94292DA8E1B0E042E092
:105A000050E00C94292D262FF999FECF92BD81BD2F
:105A1000F89A019700B4021639F01FBA20BD0FB6EC
:105A2000F894FA9AF99A0FBE08950396272F0E94C8
:105A3000042D0E94032D252F0E94042D242F0C9449
:105A4000042D0196272F0E94042D0C94032DDC01B8
:105A5000CB01FC01F999FECF06C0F2BDE1BDF89A79
:105A6000319600B40D9241505040B8F70895505807
:105A7000BB27AA270E944F2D0C94FA2E0E94EC2ED1
:105A800038F00E94F32E20F039F49F3F19F426F4E9
:105A90000C94C22E0EF4E095E7FB0C94BC2EE92F7B
:105AA0000E940B2F58F3BA176207730784079507F4
:105AB00020F079F4A6F50C942D2F0EF4E0950B2E22
:105AC000BA2FA02D0B01B90190010C01CA01A00150
:105AD0001124FF27591B99F0593F50F4503E68F1AB
