:100000000C9408050C9425050C9425050C942505E5
:100010000C9425050C9425050C9425050C942505B8
:100020000C9425050C9425050C944A2E0C941C2F39
:100030000C94BD260C9425050C9425050C942505DF
:100040000C9425050C9425050C9425050C94250588
:100050000C9425050C9425270C9425050C94250556
:100060000C9425050C9425050C9425050C94250568
:100070000C9425050C9425050C9425050C94250558
:100080000C9425050C9425050C9425050C94250548
:100090000C9425050C9425050C9425050C94250538
:1000A0000C9425050C9425050C9425057B057E05EF
:1000B0008105840587058A058D0535083B084208BA
:1000C0004D085A08670872087F088B089708A3082C
:1000D000AF08DB08DE08E108E408E908F008EE08EC
:1000E000C40AC60AD10AC80ACA0ACC0ACE0AD00A69
:1000F000D30AD50AD70AE20AD90ADB0ADD0ADF0ADF
:10010000E10AE40ADD1BDD1B0F1C0F1C461C661CEC
:10011000CF1D2D1EA81C2D1E551D551DC61D2D1E87
:100120002D1E271E621D621D621D621D621D621D45
:10013000621D621D621D621D621D621D621D621DC7
:10014000621D621D731D801D871D8E1D981DB81EAA
:10015000B81ECA1ECA1EC11ECA1ECA1ECA1EB81E8C
:10016000B81EC61ECA1ECA1EC61E892FB02FA230B8
:10017000B02FA230FC2F1F30A230753084300763BF
:100180004236B79BD8A71A39685618AEBAAB558C09
:100190001D3CB7CC5763BD6DEDFD753EF617723152
:1001A000BF000000803F05A84CCDB2D44EB9383610
:1001B000A9020C50B9918688083CA6AAAA2ABE00BA
:1001C0000000803F6572676F646F785F657A2F30DB
:1001D0003466303764333531313930373161346327
:1001E000373330204020302E362E3332352D3539FE
:1001F0002D67663565343765000000F0A12B042BB0
:10020000002900356F640000001801140004001D6F
:10021000004A00055318011A0016001B004D000487
:100220000105010800076206004B742864090115E6
:1002300000096119004E682F00010017000A00052F
:10024000000000010001004901000000070000015A
:100250000043004902000000070000010043001CA9
:10026000000B00110000000100080118000D7110C2
:1002700000510030001C010C000E72360052002CA0
:1002800041010012000F00370050006562010013A9
:1002900000330038004F0005514C002A002302347F
:1002A0006F02580000010001000100326F10500081
:1002B0000001003A001E0049004B00055301003BBD
:1002C000001F002F154E00010001003C002062308D
:1002D000154A74010001003D0021612D004D6801A7
:1002E0000001003E0022002F00000001000100017B
:1002F00000000001000000010001000100000001F9
:10030000000000010001003F002300300000000158
:10031000000100400024712E005000010001004146
:1003200000257236004F0001000100420026003710
:100330000051000100010043002700317152000507
:100340005101004C004400456F12500000010001B3
:1003500000010001001050000001002B00F500E03A
:1003600000010005530100F500F20046000100F411
:10037000000100F000F100F9000100F4000100F4B8
:1003800000F300FA00010001000100A900AA00A882
:100390000000000100010001000000010000000158
:1003A0000001000100000001000000010001000147
:1003B00000010001000000010001000100E400F65E
:1003C000000100010001000100E500F6000100014C
:1003D0000001000100E200F60001002872010001A6
:1003E0000001004604010005510100A500A600A778
:1003F0000013500000010001000100010012500034
:100400000001004A00E40049745000055301004D0A
:1004100000E2004C004F00010001004B00E100260B
:10042000025200010001004E00E0002702510001CD
:1004300000010001000100010000000100010001B5
:1004400000000001000000010001000100000001A7
:10045000000000010001005400560053000000019C
:1004600000E0005F005C00590062000100E10060F4
:10047000005D005A0062000100E20061005E005B66
:100480000063000100E400550057005800580005C3
:100490005101000100010001001450000029002B4F
:1004A00000E100E000135000001E00140004001DD5
:1004B00000E20005531F001A0016001B003D002C2F
:1004C0000020000800070006003D002C0021001558
:1004D00000090019003D000100220017000A000574
:1004E000000000E60023002B0000002B00000001AC
:1004F0000034002B0000002B000000010023001C32
:10050000000B0011000000E600240018000D001090
:10051000001050010025000C000E0036003100E7ED
:1005200000260012000F0037005000E300270013E0
:1005300000330052005100055110502A00280038A5
:10054000004F000000105001000100010010500099
:10055000000100F35CF85C0100010001000100F4FF
:100560005CF95C0100010001000100F55CFA5C012E
:1005700000010001000100F65CFB5C0100010001CC
:10058000000100F75CFC5C010000000100010001BB
:100590000000000100000001000100010000000156
:1005A0000000000100010001000100010000000145
:1005B000000100C55CC25CC95C010001000100C60D
:1005C0005CC35CCA5C0100010001000100F25C0137
:1005D0000001000100010001000100010001000113
:1005E0000010500100010001001050000000000048
:1005F00000000000002A2B2800000000000000007E
:10060000000000000000000029000000002C1E3443
:1006100020212224342627252E362D3738271E1F49
:10062000202122232425263333362E37381F040574
:10063000060708090A0B0C0D0E0F101112131415E2
:10064000161718191A1B1C1D2F3130232D350405C0
:10065000060708090A0B0C0D0E0F101112131415C2
:10066000161718191A1B1C1D2F3130354C000000AD
:10067000000000000000000000000000000000007A
:10068000000000000000000000000000000000006A
:10069000000000000000000000000000000000005A
:1006A000000000000000000000000000000000004A
:1006B000000000000000000000000000000000003A
:1006C000000000000000000000000000000000002A
:1006D000000000000000000000000000000000001A
:1006E000000000000000000000000000000000000A
:1006F00000000000000000000000000000000000FA
:1007000000000000000000000000000000000101E7
:1007100001010101000101010100000000000000D1
:1007200000000000000000010001000101010101C2
:1007300001010101010101010101010101010101A9
:10074000010101010101010100000001010000009F
:100750000000000000000000000000000000000099
:100760000000000000000000010101010000047F02
:100770003F1F643214643214783C1E1E140A05684C
:1007800001F000B40078005A0000000000000101F0
:100790000101010101010102020202020202020240
:1007A000030303030303030304040404040405050F
:1007B00005050506060606060707070708080808D0
:1007C0000909090A0A0A0A0B0B0B0C0C0C0D0D0D7A
:1007D0000E0E0F0F0F10101111111212131314140B
:1007E000151516161717181819191A1A1B1C1C1D7F
:1007F0001D1E1F1F202021222223242525262727D6
:1008000028292A2B2B2C2D2E2F2F30313233343503
:1008100036363738393A3B3C3D3E3F40414243440F
:10082000464748494A4B4C4D4F50515253555657E5
:10083000585A5B5C5E5F606263646667696A6C6D90
:100840006E707173747678797B7C7E808183848608
:10085000888A8B8D8F91929496989A9B9D9FA1A345
:10086000A5A7A9ABADAFB1B3B5B7B9BBBDBFC1C447
:10087000C6C8CACCCFD1D3D6D8DADCDFE1E4E6E80B
:10088000EBEDF0F2F5F7FAFCFF0403300000001680
:10089000034500720067006F0044006F007800207D
:1008A0000045005A00000016034500720067006F03
:1008B0000044006F007800200045005A000000044A
:1008C00003090409023B00020100A0FA0904000028
:1008D0000103010100092111010001224000070567
:1008E000810308000A090401000103000000092136
:1008F0001101000122C0000705820320000A120135
:10090000100100000008EDFE0713010001020301C1
:1009100005010902A10185020901A10005091901CA
:1009200029051500250195057501810295017503BD
:1009300081010501093009311581257F950275086E
:10094000810609381581257F950175088106050CFA
:100950000A38021581257F950175088106C0C005FA
:10096000010980A10185031601002603001A8100F8
:100970002A8300751095018100C0050C0901A101B1
:100980008504160100269C021A01002A9C0275109B
:1009900095018100C005010906A10185050507191A
:1009A000E029E71500250195087501810205081960
:1009B00001290595057501910295017503910105C0
:1009C00007190029EF1500250195F075018102C076
:1009D00005010906A101050719E029E71500250110
:1009E00095087501810295017508810105081901B5
:1009F000290595057501910295017503910105077A
:100A0000190029FF150026FF00950675088100C012
:100A100011241FBECFEFDAE0DEBFCDBF11E0A0E0B2
:100A2000B1E0E2EAFBE602C005900D92A03DB107FD
:100A3000D9F723E0A0EDB1E001C01D92A936B207BD
:100A4000E1F70E946C2B0C94CF350C94000080B31E
:100A50008C7080BB81B3836F81BB089584B1807F2C
:100A600084B985B1807F85B98AB1837F8AB98BB11A
:100A7000837F8BB93E9846980895CF93E82F8730AF
:100A800080F58091060190910701892B09F047C0FC
:100A9000CE2F64E670E080E40E9485069093070103
:100AA00080930601892BD1F464E670E082E10E9414
:100AB000DC069093070180930601892B79F481E08D
:100AC00090E001C0880FCA95EAF764E670E080956F
:100AD0000E94DC069093070180930601CF910C944D
:100AE000310790E0FC013797E730F105C0F4EA5A8E
:100AF000FF4F0C944734209A289811C0219A2998C6
:100B00000EC0229A2A980BC0239A2B9808C0529A9A
:100B10005A9805C0539A5B9802C03E9A4698CF9166
:100B20000895CF93873008F03FC0809106019091DF
:100B30000701892B09F041C064E670E080E40E945F
:100B400085069093070180930601892B11F0C0E080
:100B500027C064E670E083E10E94DC069093070101
:100B600080930601892B99F764E670E081E40E9486
:100B700085069093070180930601892B41F784E64F
:100B800090E00E940C0797FF05C0909307018093A7
:100B90000601DDCFC82FC095109207011092060103
:100BA0000E9431078C2F0AC09FB18FB1807F86953C
:100BB00086959370892B809501C080E0CF91089530
:100BC000089508950C94E1050E94A30790E0909386
:100BD0000701809306010E942E050E942705AFEDB4
:100BE000B1E0E1EDF1E08EE08E0F11921D928E13D7
:100BF000FCCF8EE00E944C0F0C941C0A0E94A307AD
:100C000090E090930701809306010E942E050E94B8
:100C10002705E1EDF1E08EE08E0F11928E13FDCFEE
:100C20000895CF92DF92EF92FF920F931F93CF938D
:100C3000DF938091060190910701892B91F08091BB
:100C4000D0018F5F8093D00181110BC00E94A30758
:100C500090E09093070180930601892B11F40E9484
:100C600035079FEDE92E91E0F92E06EE11E0C0E088
:100C7000D12C87E0C82ECC0E8C2F0E943D058C2DE8
:100C80000E943D058C2F0E949105F70190819817D5
:100C900019F08083D1E001C0D0E08C2D0E94910535
:100CA000F8019081981719F0808381E001C080E0FD
:100CB000D82BDD2A0E942E05CF5FFFEFEF1AFF0A27
:100CC0000F5F1F4FC730A9F62D2D4EE061ED71E08B
:100CD0008FED91E00E94B80F0E94260A81E0DF911B
:100CE000CF911F910F91FF90EF90DF90CF900895DB
:100CF000E82FF0E0EF52FE4F8081089508951092A2
:100D0000B9008CE08093B8000895EF92FF920F93A2
:100D10001F93CF93DF93182FEB011092BC0084EA4E
:100D20008093BC000E94EF267C019091BC0097FD4F
:100D30000EC0CF3F8FEFD807C1F30E94EF268E1968
:100D40009F098C179D0788F38EEF9FEF2EC090911F
:100D5000B900987F983041F09091B900987F903118
:100D600019F08FEF9FEF21C01093BB0084E88093B0
:100D7000BC000E94EF268C019091BC0097FD0CC036
:100D8000CF3F8FEFD807C1F30E94EF26801B910B56
:100D90008C179D0788F3D8CF8091B900887F883160
:100DA00011F08034F1F680E090E0DF91CF911F9157
:100DB0000F91FF90EF9008950F931F93CF93DF93C0
:100DC000EB018093BB0084E88093BC000E94EF2677
:100DD0008C019091BC0097FD0EC0CF3F8FEFD807DC
:100DE000C1F30E94EF26801B910B8C179D0788F39F
:100DF0008EEF9FEF0CC02091B900287F81E090E03A
:100E0000283211F480E090E0919581959109DF916D
:100E1000CF911F910F9108950F931F93CF93DF935D
:100E2000EC0184E88093BC000E94EF268C01909135
:100E3000BC0097FD0EC0CF3F8FEFD807C1F30E94D3
:100E4000EF26801B910B8C179D0788F38EEF9FEF89
:100E500003C08091BB0090E0DF91CF911F910F9173
:100E6000089584E98093BC00089556985E9825986B
:100E70002D9826982E9827982F988FEF90E0909392
:100E800089008093880090938B0080938A009093D0
:100E90008D0080938C00259A2D9A2FEF80E792E0A9
:100EA000215080409040E1F700C00000269A2E9A21
:100EB0002FEF80E792E0215080409040E1F700C0A2
:100EC0000000279A2F9A2FEF80E792E02150804070
:100ED0009040E1F700C0000025982D982FEF80E7A3
:100EE00092E0215080409040E1F700C00000269839
:100EF0002E982FEF80E792E0215080409040E1F75C
:100F000000C0000027982F9856985E9825982D9835
:100F100026982E9827982F98089589EA8093800024
:100F200089E08093810024982C983F988AB18F7C27
:100F30008AB96E98479A8BB180638BB9769A0E9472
:100F400035070C94E00580E290E0909307018093D0
:100F500006018091ED0181110EC00E947F0681E0A3
:100F60008093ED012FEF83ED90E32150804090407E
:100F7000E1F700C0000064E670E080E40E948506AE
:100F80009093070180930601892B09F04EC064E617
:100F900070E080E00E94DC069093070180930601D8
:100FA000892B09F042C064E670E080E00E94DC0614
:100FB0009093070180930601892BB9F564E670E0F0
:100FC0008FE30E94DC069093070180930601892B32
:100FD00061F50E94310764E670E080E40E948506B6
:100FE0009093070180930601892BF9F464E670E081
:100FF0008CE00E94DC069093070180930601892B08
:10100000A1F464E670E080E00E94DC0690930701A2
:1010100080930601892B49F464E670E08FE30E9417
:10102000DC0690930701809306010E9431078091AE
:1010300006010895611108C0FC018281882321F016
:1010400084EC91E00E94190A80E090E00895FC0190
:10105000E15FFC45EC30F10508F090C0DB01E35A9C
:10106000FF4F12968C910C944734882309F487C063
:101070000E94DB2581C0882309F481C081E00E94A1
:10108000EC137AC0882309F47AC00E94EF1381E040
:101090000E94EC134DEC60E02FC0882309F46FC070
:1010A0000E94EF1381E00E94EC134BEB66E68CE2AA
:1010B00090E060C0882309F462C00E94EF1381E0D1
:1010C0000E94EC134FEF6FEF86E290E053C088234D
:1010D00009F455C00E94EF1381E00E94EC134FEF1A
:1010E0006FEF0AC0882309F44AC00E94EF1381E021
:1010F0000E94EC1349E867EC80E090E03BC0882355
:10110000F1F10E94EF1381E00E94EC134FEF6FEFBB
:1011100084E291E02FC0882391F10E94EF1381E0D7
:101120000E94EC1340E86FEF8CE291E023C088232B
:1011300031F10E94EF1381E00E94EC1340E86FEF61
:1011400088E790E017C08823D1F00E94EF1381E078
:101150000E94EC134FEF6DED88EB90E00BC08823FD
:1011600071F00E94EF1381E00E94EC134FEF6FEFDC
:1011700080EF90E00E94821380E0089581E008955E
:10118000CF92DF92EF92FF926B017C010E941125BA
:1011900056985E9825982D9826982E9827982F98DF
:1011A000482F50E0FA013197E730F105F0F4E759A4
:1011B000FF4F0C944734259A2D9A54C0269A2E9AA4
:1011C0005BC0279A2F9A62C0259A2D9A269A2E9A4A
:1011D00067C0259A2D9A279A2F9A6CC0259A2D9A26
:1011E000269A2E9A279A2F9A70C0823009F444C00A
:1011F00028F4882361F08130A9F167C0843009F4B4
:101200004FC008F443C0853009F454C05EC00E944A
:10121000671160930B0370930C0380930D039093FD
:101220000E0360FF1CC00E94EF1380910B03869594
:101230008F730E94EC1380910B03881F8827881FEF
:1012400090910C03292F220F97FB992790F9409139
:101250000E0360910D03822B0E94821336C00E9400
:101260003E1433C00E94351481E00E94F8134FEF02
:101270006FEF8CE890E027C00E94351481E00E9457
:10128000F8134FEF6FEF84E290E01DC00E94351419
:1012900081E00E94F8134BEB66E68CE290E013C00D
:1012A0000E94351481E00E94F8134FEF6FEF80E049
:1012B00090E009C00E94351481E00E94F8134EEEC0
:1012C0006CEE88EB90E00E948513C701B601FF9099
:1012D000EF90DF90CF90089581E008950C94270857
:1012E0001F93CF93DF9300D000D01F92CDB7DEB70E
:1012F00049835A8320913C0289819A81211112C02D
:10130000662349F00E94DE23182F682F89819A8175
:101310000E94812303C00E94B123182F69817A8122
:10132000812F04C00E94DE2369817A810F900F9083
:101330000F900F900F90DF91CF911F910C94CD0CD7
:10134000FC01408151816281738184810C94700918
:101350001F93CF93DF93282F30E0F901E351FA4F29
:101360001491F901E351F94FE491C1E0E11101C099
:10137000C0E0F901E359F94F2491D1E0211101C0F6
:10138000D0E0CC2319F081EE0E940D1ADD2319F074
:1013900086EE0E940D1A812F0E94931BDD2319F007
:1013A00086EE0E942B1BCC2331F081EEDF91CF9192
:1013B0001F910C942B1BDF91CF911F9108950F93D8
:1013C0001F93CF93DF93EC01062FFE0184918823B6
:1013D00059F19E012F5F3F4F813041F4E901F9013E
:1013E0001491812F0E940D1A812F0DC0823031F48B
:1013F000E901F90184910E940D1A0AC0833031F489
:10140000E901F90184910E942B1B02C00E94A809E6
:101410002196802F8823C9F2EFE9FFE03197F1F799
:1014200000C000008150F6CFDF91CF911F910F9146
:10143000089560E00C94DF090E946125811102C0CB
:101440000E94DB250E9409100C948D070C94E20584
:10145000282F2F7041F0822F90E02A3010F44D9603
:1014600008950697089587E290E0089508950C94F2
:10147000360A0C94370A08950E94A81E0E943B0A5F
:101480002FEF84E39CE0215080409040E1F700C0C2
:1014900000000C944B270F931F93CF93DF938C0185
:1014A0000E94A009EC01B8010E946E09882309F48A
:1014B0006DC2B801CE010E948810882309F466C26B
:1014C000CC3CFCE5DF0741F4F8018281882309F474
:1014D0005DC20E94B5115AC2CD3C8CE5D80708F018
:1014E0001DC1C43C9CE5D90761F4F80182818823C1
:1014F00009F44CC20E945E248272E1F40E94E91356
:1015000045C2C53CECE5DE0708F0C6C0C531FCE5C8
:10151000DF0798F0C23CFCE5DF0709F48BC008F454
:1015200091C0F8018281882309F430C20E945E24B0
:10153000827221F70E94DB1329C2C2308CE5D807E2
:1015400008F452C0F8018281882309F459C00E942E
:101550006125811102C00E94DB250E94742590E064
:101560009093570380935603FE01E350FC45E2310C
:10157000F10530F4E059FF4F809156030C94473445
:1015800080915603816027C0826025C0846023C09B
:10159000806121C080621FC080641DC080681BC044
:1015A0008460886018C08E7F16C08D7F14C08B7FCA
:1015B00012C08F7E10C08F7D0EC08F7B0CC08F77C6
:1015C0000AC08B7F877F07C087FB222720F991E025
:1015D000922790FB87F980935603809156030E94CF
:1015E00078250E94A81ED2C1C1159CE5D90779F0C3
:1015F000C130DC45A1F081E08093F3018093F401D8
:10160000C801DF91CF911F910F910C946C09F801E3
:101610008281882309F4BAC10E943C0AB7C1F8014B
:101620008281882309F4B2C18091DB0281608093BA
:10163000DB02ACC1F8018281882309F4A7C10E94B2
:101640005614A4C1C631DC45B1F60E945E24282F91
:10165000F80182814091160150911701882379F099
:101660002A7A91E009F490E09093EE01911102C082
:1016700069E201C065E3CA010E9442260AC0809166
:10168000EE01811102C069E201C065E3CA010E9456
:101690004D260E94AD247AC1F8018281C83CFCE548
:1016A000DF0731F4882309F471C10E943F136EC132
:1016B000C93C9CE5D907C8F4C63CECE5DE0731F42B
:1016C000882309F463C10E94111360C1C73CDC4543
:1016D00030F4882309F45AC10E94ED1257C18823BF
:1016E00009F454C10E94281351C1CA3C9CE5D90792
:1016F00031F4882309F44AC10E947F1347C1CB3CCF
:10170000DC4530F4882309F441C10E945F133EC1D7
:10171000882309F43BC10E94A01138C1C43DFCE5F7
:10172000DF0791F4F8018281882309F42FC10E9418
:101730009711893128F00E949711823208F4FACE6D
:1017400089E10E94EC1322C1C53D8CE5D80708F061
:1017500068C0F8018281C03DFCE5DF0771F4882391
:1017600009F414C10E949711893028F00E94971142
:101770008E3008F4DFCE89E0E4CFC13D9CE5D90787
:1017800040F5CE3CECE5DE0771F4882309F4FEC099
:101790000E949711823028F00E949711853008F43A
:1017A000C9CE82E0CECFCF3CDC4528F4882309F4B3
:1017B000EDC081E0C6CF882309F4E8C00E949711EC
:1017C000863028F00E949711883008F4B3CE86E066
:1017D000B8CFC23D9CE5D90771F4882309F4D6C07F
:1017E0000E949711853128F00E949711873108F4E3
:1017F000A1CE85E1A6CFC33DDC4570F4882309F472
:10180000C5C00E9497118F3028F00E949711843133
:1018100008F490CE8FE095CF882309F4B7C088E113
:1018200090CFC93DFCE5DF0759F5F8018281882397
:1018300061F01092F4010E94EF269093F2018093E0
:10184000F10180E20E949B1BA1C08091F4018823DA
:1018500021F080E20E94A21B99C08091F101909139
:10186000F2010E94FB26883C910598F780E20E94D5
:10187000A21B88E20E940D1A88E20E942B1B86C0E0
:10188000CA3D8CE5D80708F060C0C73D9CE5D90784
:1018900061F5F8018281882351F01092F3010E94D2
:1018A000EF269093F0018093EF0182E0CBCF0E946E
:1018B0005E2485FF05C081E08093F3018093F401ED
:1018C0008091F30181110FC08091EF019091F0019F
:1018D0000E94FB26883C910530F486E20E940D1A96
:1018E00086E20E942B1B82E0B5CFC83DECE5DE0707
:1018F00010F1F801828181119CCF0E945E2481FF4A
:1019000005C081E08093F3018093F4018091F4019C
:1019100081119FCF8091F1019091F2010E94FB26ED
:10192000883C910508F095CF87E20E940D1A87E266
:101930000E942B1B8ECFC53DDC4509F05CCEF80123
:101940008281882319F183E2FCCECD3D8CE5D80756
:1019500041F4F80182818823C9F082E00E940D2CB5
:1019600015C0CE3D9CE5D90739F4F8018281882362
:1019700069F00E94DB250AC0CC3DDC4509F03BCE76
:10198000F8018281882311F080E0E8CF80E0DF91C8
:10199000CF911F910F910895089596E0799FF001DE
:1019A000112494E5899FE00DF11D1124E60FF11D2E
:1019B000EE0FFF1FE350FE4F859194910895880F1D
:1019C000991FFC01E750FE4F859194910895CF93A4
:1019D000DF930E94CD0C0E94AC0EEC01811520E536
:1019E0009207F0F5811530E4930708F029C1883E8D
:1019F000910500F5803E910508F0AAC1883A91054D
:101A000070F4853A910508F0A4C08130910509F47D
:101A10009FC108F450C1049708F09AC14CC18F3B94
:101A2000910508F4A1C0803C910508F444C1805C94
:101A30009109F9C0811540E2940758F4C11581E07D
:101A4000D80708F085C1C03FD10508F434C1D0657E
:101A50007FC1811520E3920708F0E9C09F70E3C0C1
:101A6000811535E5930708F044C0811544E59407D6
:101A700008F0FDC0C11582E5D80708F5C11521E5BC
:101A8000D20708F0E0C08C2F837021E030E002C064
:101A9000220F331F8A95E2F73C68CE0174E09695D9
:101AA00087957A95E1F78370382BCF70C695C695E8
:101AB00040E2C49FE0011124C22BD32B49C12C2F3B
:101AC00026952695CE0183709927C115D34508F038
:101AD000BFC040E2249F90011124C1E0D0E002C0C9
:101AE000CC0FDD1F8A95E2F72C2B3D2BE901DC683A
:101AF0002FC181154AE59407A0F4C11589E5D807DF
:101B000008F0C4C0C11526E5D20708F4B5C0C11558
:101B100038E5D30708F4CFC0DC2FCC27C06FD06ADC
:101B200017C181159B4508F4C6C0C1158CE5D807BF
:101B300008F4BEC0CE0190568115904208F0BBC09B
:101B40008D2F8F710E94290FDD27D0628F71D82BC6
:101B5000FFC0853A910509F4B1C0863A910509F0B4
:101B6000B0C0C2E8D0E4F4C0883A910509F4ACC032
:101B7000893A910509F4ABC08A3A910509F4AAC0E3
:101B80008B3A910509F4A9C08C3A910509F4A8C0D3
:101B90008B3B910509F4A7C08C3B910509F4A6C0C5
:101BA0008D3A910509F4A5C0803B910509F4A4C0C4
:101BB0008E3A910509F4A3C08F3A910509F4A2C0A9
:101BC000813B910509F4A1C0823B910509F4A0C0B5
:101BD000833B910509F49FC0843B910509F49EC0A5
:101BE000853B910509F49DC0863B910509F49CC095
:101BF000873B910509F49BC0883B910509F49AC085
:101C0000893B910509F499C08D3B910509F498C071
:101C10008E3B910509F497C08A3B910509F496C063
:101C2000C0E0D4E495C00E94DF0CEC0191C099277C
:101C3000D3FF03C0EC01D86C8BC0EC01D06C88C022
:101C4000DF70D06A85C0DC2FCC27C16FD06A80C01E
:101C500040E2249F90011124C1E0D0E002C0CC0FEB
:101C6000DD1F8A95E2F7C22BD32BDA6871C0D82F1B
:101C7000CC27C46FD06A6CC08C2F0E94290F8F7143
:101C8000C82FD0E0DC2FCC27D06262C08C2F8F70A1
:101C90000E94290F94E0D695C7959A95E1F7CF70E9
:101CA000D0E0DC2FCC27D06A8F70806EC82B50C05C
:101CB000DD27D0664DC0C0E0D0E04AC0C1E8D0E426
:101CC00047C0C3E8D0E444C0C2EED4E441C0C9EE8A
:101CD000D4E43EC0CAEED4E43BC0C5EBD4E438C083
:101CE000C6EBD4E435C0C3EBD4E432C0C4EBD4E4D7
:101CF0002FC0C7EBD4E42CC0CCECD4E429C0CDEC8D
:101D0000D4E426C0C3E8D5E423C0CAE8D5E420C0A3
:101D1000C2E9D5E41DC0C4E9D5E41AC0C1E2D6E4E5
:101D200017C0C3E2D6E414C0C4E2D6E411C0C5E2D1
:101D3000D6E40EC0C6E2D6E40BC0C7E2D6E408C0C3
:101D4000CFE6D4E405C0C0E7D4E402C0CAE2D6E4DA
:101D5000CE01DF91CF9108958238910549F1B0F419
:101D60008133910509F458C048F48932910509F48A
:101D70004EC08A32910509F454C008958533910507
:101D800009F440C08933910599F00895833E910587
:101D900029F138F4803E910591F0823E9105A1F041
:101DA0000895863E9105F9F0873E910531F1089539
:101DB0002091560320FD3AC021FD38C0089580913E
:101DC000560380FD35C032C08091560382FF32C079
:101DD0008091560384FD30C083EE39C08091560354
:101DE00082FD28C0F5CF8091560383FF27C08091E4
:101DF000560384FD21C087EE2AC08091560383FDDF
:101E00001DC0F5CF8091560385FD1AC01BC080917F
:101E1000560385FD17C014C08091560386FD14C07B
:101E200015C08091560386FD11C00EC080EE0FC014
:101E300089E30DC082EE0BC080E009C086EE07C0CA
:101E400089E205C085E303C08AE201C081E390E036
:101E500008959091560392FF0DC0282F28712830C5
:101E600019F4877F846006C0282F2471243011F470
:101E70008B7F886093FF0DC0282F2871283119F4BB
:101E8000877E846106C0282F2471243111F48B7E53
:101E9000886194FD877E0895CF93C82F90E00E94BB
:101EA0004D348093F6019093F701282FFC019BEFAE
:101EB0008E2F821B8C1710F49193FACFCF91089537
:101EC0000F931F93CF93DF931092F5015091F6017A
:101ED000E52FF091F70140E0A62FB0E07BEFCAEFCD
:101EE000D0E09E2F951B9817D0F490819B3FA9F0CE
:101EF000292F30E0691728F08D01021B130B980180
:101F000006C08E01021B130B98012A0F3B1F2A30BB
:101F1000310514F0708301C041E03196E2CF409367
:101F2000F501DF91CF911F910F910895CF93DF932A
:101F30005091F6013091F501DB01E52FF091F701A9
:101F40006E2F651B641778F47C91EC016991CE01CA
:101F5000C081CB3F29F4761719F020836C9331E0D0
:101F600031961196EDCF3093F501DF91CF91089521
:101F7000DF92EF92FF920F931F93CF93DF9300D0E6
:101F8000CDB7DEB78C017B01D22E4A830E94EF26AB
:101F90006AEF70E00E941F34282F8091F5014A817A
:101FA000882339F0622F842F29830E94600F4A8191
:101FB0002981DD2069F0B701C8010F900F90DF91F2
:101FC000CF911F910F91FF90EF90DF900C94960F9F
:101FD0000F900F90DF91CF911F910F91FF90EF9095
:101FE000DF900895CF93DF93813020E8920768F067
:101FF000FB012281222349F0EC010E941F10CE0137
:102000009F770E946B100E94541081E0DF91CF9166
:1020100008958CE090E00E94873590E0A0E0B0E069
:102020008093100390931103A0931203B0931303B2
:102030000895609110038CE090E00C949B350E9411
:102040005E248093F8010E947124809110038130F6
:1020500071F048F08230D9F08430F9F486EE0E94B5
:10206000931B88E118C082EE0E940D1A16C080EE04
:102070000E940D1A81EE0E940D1A88E10E94931BA6
:1020800081EE0E942B1B80EE0E942B1B06C082EE6D
:102090000E940D1A87E50E94931B8FE39CE901972C
:1020A000F1F700C00000089580911003813039F0ED
:1020B00040F0823031F0843051F488E206C08CE286
:1020C00004C082EE0E942B1B02C00E94931B8091D1
:1020D000F8010C946E240F931F93CF93DF938C0120
:1020E000CCE0D0E0C8010C2E02C0969587950A94EA
:1020F000E2F78F700E94280A0E94931B2497CC3F1E
:102100008FEFD80779F7DF91CF911F910F91089545
:102110000F931F93CF93DF93EC018B01FB0182811F
:10212000882319F1C33EFCE5DF07C1F050F4C13E3E
:10213000ECE5DE0781F0C23EFCE5DF07B1F481E0AB
:1021400010C0C43E8CE5D80759F0C53EECE5DE076B
:1021500061F484E006C01092100305C082E001C063
:1021600083E0809310030E941910B801CE01DF9123
:10217000CF911F910F910C94F20FEF92FF920F935A
:102180001F93CF93DF93E901662309F44BC0242FFB
:1021900030E0EFEFF0E0E61BF109B901E69F9001B6
:1021A000E79F300DF69F300D1124232F8B01031B69
:1021B00011095CE3E52EF12CB7010E941F34FB01ED
:1021C000BC01069FC001079F900D169F900D112422
:1021D000B7010E941F34E230F105B1F040F43097AE
:1021E00079F0319711F5832F242F461B21C0E4305D
:1021F000F105A1F068F03597C1F4842F861B18C053
:10220000832F262F230F14C0862F830FE42F03C0A4
:10221000E42FE61B842F432F2E2F0AC0842F462F36
:10222000430F06C0842F242F03C080E020E040E04D
:10223000E42FF0E0E757F84F4491E22FF0E0E75742
:10224000F84F9491E82FF0E0E757F84FE491498375
:102250009883EA83DF91CF911F910F91FF90EF90C8
:10226000089580910B03282F26952F7330E02115B8
:10227000310519F48178826005C02532310524F0DA
:102280008178886480930B0330910B03432F441FA4
:102290004427441F20910C03522F550F852F842B68
:1022A00027FB992790F9893641E094077CF068E68E
:1022B00071E00E94333480FB37F930930B0386952D
:1022C0002078822B90FB87F980930C03089588E097
:1022D00090E00C948F35CF93DF9300D000D0CDB732
:1022E000DEB7AB01BC0149835A836B837C830E94B8
:1022F000311149815A816B817C8188E090E00F9097
:102300000F900F900F90DF91CF910C94AD35EBE0D3
:10231000F3E083E0808310920C038FEF828383834A
:10232000148260817181828193810C946B11809100
:102330000B0380FF03C086958F73089580E0089596
:1023400080910F0390E001968430910514F083E0B2
:1023500090E080930F0360910B0370910C038091C8
:102360000D0390910E030C946B1180910F0390E07C
:10237000019797FF02C080E090E08430910514F04F
:1023800083E090E080930F0360910B0370910C0346
:1023900080910D0390910E030C946B1180911602A5
:1023A00024E0829FC00111248C5E9C4F60910A0141
:1023B00070E020910B0320FD0DC020E030E0F9011A
:1023C000EC5EFC4F1182108212822C5F3F4F2C3347
:1023D0003105A9F70C94131890910B0390FF0FC0CF
:1023E00020E030E0F901EC5EFC4F818360834283A2
:1023F0002C5F3F4F2C333105A9F70C94CE11089573
:10240000CF93DF9300D000D0CDB7DEB720910B0380
:1024100020FF0AC09E012F5F3F4F0E94BD104B81DD
:1024200069818A810E94EC110F900F900F900F909C
:10243000DF91CF9108955F926F927F928F929F92DA
:10244000AF92BF92CF92DF92EF92FF920F931F93C2
:10245000CF93DF9300D000D0CDB7DEB78C01E62E4E
:10246000F42E522E80910B0380FF89C0982F9E7707
:10247000923061F49E012F5F3F4FC8010E94BD1052
:102480004B8169818A810E94EC1159C0E82FE69541
:10249000EF739EE39E0F9F73943018F4F0900E0339
:1024A0004EC09AE39E0F9F73993068F4881F882767
:1024B000881F90910C03292F220F022F082B97FBC6
:1024C000112710F93CC087E28E0F8F738A30B8F560
:1024D000F0E07997E0FD02C021E001C02FEFEE7F30
:1024E000E158F84F859194916FE070E00E941F349D
:1024F00026034001279F900C1124580188E9A81A4F
:102500008EEFB80A84E1C82E83E0D82E98E6692EB3
:1025100077247394C501B3010E941F3496014F2D97
:102520006E2D0E94BD10A80CB91C84E0C80ED11CF1
:1025300080E5C81683E0D80669F70E94CE11809125
:102540000B0300FB87F980930B03902F96958091E6
:102550000C038078892B10FB87F980930C03E092A1
:102560000D03F0920E03552051F060910B03709112
:102570000C0380910D0390910E030E946B110F903C
:102580000F900F900F90DF91CF911F910F91FF90BF
:10259000EF90DF90CF90BF90AF909F908F907F9003
:1025A0006F905F900895282FEBE0F3E09081991FE2
:1025B0009927991F30910C03832F880F482F492B9F
:1025C00037FB552750F9CA010C9668E671E00E9466
:1025D0003334438162810C941B1281E00C94D3123A
:1025E000282F90910B03991F9927991F30910C0365
:1025F000832F880F482F492B37FB552750F9CA01E5
:102600004C3051051CF4845A9E4F01C00C9768E66B
:1026100071E00E94333440910E0360910D030C94DD
:102620001B1281E00C94F012EBE0F3E03081331FD9
:102630003327331F90910C03592F550F97FB992780
:1026400090F9282F43816FEF852F832B0C941B1259
:1026500081E00C941413EBE0F3E03081331F332757
:10266000331F90910C03592F550F97FB992790F921
:10267000282F438160E0852F832B0C941B1281E06F
:102680000C942B1340910E03242F30E0243F31058E
:1026900014F4445F01C04FEF30910B03331F332715
:1026A000331F90910C03592F550F97FB992790F9E1
:1026B000282F60910D03852F832B0C941B1281E032
:1026C0000C94421340910E03242F30E02C3031053E
:1026D00014F04C5001C040E030910B03331F3327FE
:1026E000331F90910C03592F550F97FB992790F9A1
:1026F000282F60910D03852F832B0C941B1281E0F2
:102700000C94621321E00C941B1220E00C941B1219
:10271000CF9390910B0390FF40C09178811102C03C
:10272000926007C0853210F0986403C08F73880FE1
:10273000982B90930B03662351F060910B037091DB
:102740000C0380910D0390910E030E946B11C091B8
:102750000B036C2F66956F7370E04BE050E08BE0DD
:1027600091E00E947A35892B19F01092170203C06C
:1027700081E080931702CC1FCC27CC1F90910C03D3
:10278000892F880F97FB992790F940910E0360914C
:102790000D038C2BCF910C948513CF910895682F46
:1027A00090910B0396959F7381E0890F853208F015
:1027B00081E00C94881381E00C94CF13682F9091E2
:1027C0000B0396959F738FEF890F09F484E20C94A5
:1027D000881381E00C94DE1361E00C948813EBE025
:1027E000F3E080818160808386958F730C94EC1375
:1027F00060E00C94881380911802811135C080919B
:10280000DB0281608093DB020E946125811104C09C
:102810000E94DB250E9487110E94671160930B03C1
:1028200070930C0380930D0390930E036E7761F405
:102830000E9487110E94671160930B0370930C0331
:1028400080930D0390930E030E94311181E08093D9
:10285000170280910B0380FF04C086958F730E943E
:10286000F81381E0809318020895EBE0F3E0808193
:102870008160808386958F730C94F813EBE0F3E00E
:1028800080818E7F808360817181828193810E94AB
:102890006B11109217022FEF80E792E021508040D9
:1028A0009040E1F700C000000C94CE1180910B0322
:1028B00080FD0C943E140C94EF13CF93E82FF0E0BE
:1028C000E558F84FC49180911402909115020E942E
:1028D000FB26EC2FF0E08E179F0708F443C00E9400
:1028E000EF2690931502809314026091130270E01A
:1028F00080E090E00E94203220E030E04FE753E497
:102900000E9443312BED3FE049E450E40E944933FB
:102910000E94B6330E94BD312BE43AE34EE25FE3FE
:102920000E94D63020EF3BEF48ED52E40E9449333D
:102930000E94EF31462F80910B03881F8827881F44
:1029400090910C03292F220F97FB992790F9609102
:102950000D03822B0E9400128091130290E00196D9
:1029600080931302CF910895CF93E82FF0E0E858B9
:10297000F84FC49180911102909112020E94FB269F
:10298000EC2FF0E08E179F07E8F00E94EF2690935F
:1029900012028093110240910E0360910D03809109
:1029A0000F02909110020E94001280910F029091EC
:1029B0001002019668E671E00E941F3490931002A5
:1029C00080930F02CF910895CF92DF92FF920F93E1
:1029D0001F93CF93DF93F82EE82FE695F0E0EB58A6
:1029E000F84FC49180910D0290910E020E94FB2637
:1029F000EC2FF0E08E179F07E8F10E94EF269093EE
:102A00000E0280930D0204E113E0C0E0D0E088E6FE
:102A1000C82EDD24D39480910B0290910C028C0F70
:102A20009D1FB6010E941F34980140910E036091D2
:102A30000D030E94BD1068960C5F1F4FC83681E0E1
:102A4000D80749F70E94CE1120910B0230910C0259
:102A5000F0FE0AC0C9010196BE010E941F34909386
:102A60000C0280930B0206C02150310930930C02F6
:102A700020930B02DF91CF911F910F91FF90DF9078
:102A8000CF900895AF92BF92CF92DF92EF92FF92D4
:102A90000F931F93CF93DF9380FF02C01FEF01C0FE
:102AA00011E08695E82FF0E0EE58F84FC491809140
:102AB000090290910A020E94FB26EC2FF0E08E178B
:102AC0009F0708F466C00E94EF2690930A02809345
:102AD000090224E1C22E23E0D22E36E1E32E33E0B8
:102AE000F32EC0E0D0E0F70131971082F60110829A
:102AF000F701108294E0A92EB12C00E08091080229
:102B0000800F87FD815F082E000C990BC817D9072D
:102B1000E9F480910E038A9DA0018B9D500D112434
:102B2000559547955595479580910B03881F8827A4
:102B3000881F90910C03592F550F97FB992790F9F7
:102B4000960160910D03852B0E94BD10010FF1E0ED
:102B5000AF1AB10899F6219684E0C80ED11CE4E0C2
:102B6000EE0EF11CCF30D10509F0BDCF0E94CE1181
:102B700080910802113031F4811102C08EE007C04B
:102B8000815005C090E00196BE010E9433348093CD
:102B90000802DF91CF911F910F91FF90EF90DF908E
:102BA000CF90BF90AF9008950F931F93CF93DF9373
:102BB000E82FF0E0E159F84FC4918091060290911E
:102BC00007020E94FB26EC2FF0E08E179F0708F407
:102BD00064C00E94EF26909307028093060280E073
:102BE00090E0FC01EC5EFC4F118210821282049690
:102BF0008C339105B1F7C0E0D0E00FE010E0CE01DA
:102C0000B8010E943334FC0180910502082E000CAB
:102C1000990BEE0FFF1FEE0FFF1FC817D907FCF02F
:102C200080910901082E000C990B8C179D07BCF0B0
:102C30009F012C5E3C4F80910B03881F8827881FC3
:102C400090910C03592F550F97FB992790F94091BC
:102C50000E0360910D03852B0E94BD1005C0EC5E34
:102C6000FC4F1182108212822196CF30D10539F6A5
:102C70000E94CE118091080190910502980F9093C7
:102C8000050220910901280F20930901121614F45E
:102C90009E301CF0819580930801DF91CF911F91A8
:102CA0000F910895EF92FF920F931F93CF93DF93AD
:102CB00080910302909104020E94FB26883E93407B
:102CC000D0F10E94EF269093040280930302C091FA
:102CD0000102D09102022196C170DD27D093020239
:102CE000C093010284E1E82E83E0F82E10E008E7AB
:102CF000812F8695FE01E80FF11DCF018170992784
:102D0000970140910E0360910D03FC010E9FC001DD
:102D10000F9F900D11240E94BD101F5FF4E0EF0E75
:102D2000F11C1F3029F7DF91CF911F910F91FF9078
:102D3000EF900C94CE11DF91CF911F910F91FF90E6
:102D4000EF900895CF93DF9300D000D0CDB7DEB7DA
:102D50008091FF01909100020E94FB26EDE6F7E0D2
:102D60002591349182179307C0F18091FE01811162
:102D70000CC09E012F5F3F4F4FEF6FEF80E090E060
:102D80000E94BD108A818093FE010E94EF269093DD
:102D900000028093FF018091FD01813051F028F005
:102DA000823061F44091FE010AC08091FE0140E052
:102DB00007C06091FE0140E080E003C040E080E099
:102DC00060E00E94EC118091FD0190E0019663E0CB
:102DD00070E00E9433348093FD010F900F900F90AC
:102DE0000F90DF91CF9108950F931F93CF93DF93AF
:102DF0008091FB019091FC010E94FB26843F914051
:102E000008F448C00E94EF269093FC018093FB01D8
:102E1000C4E1D3E000E010E02091F9013091FA0123
:102E200080910B0390910C03073011051CF4232BA8
:102E300079F002C0232B61F4881F8827881F592F3F
:102E4000550F97FB992790F99E0140910E030AC0F8
:102E5000881F8827881F592F550F97FB992790F9AE
:102E60009E0140E060910D03852B0E94BD100F5F15
:102E70001F4F24960F30110579F60E94CE118091D4
:102E8000F9019091FA010196817099279093FA01C6
:102E90008093F901DF91CF911F910F910895809157
:102EA00017028823D9F190910B03892F86958F7390
:102EB0002EE3280F2F73243018F482500C945D14E5
:102EC0002AE3280F2F73233018F486500C94B4147F
:102ED00027E3280F2F73263018F489500C94E4143C
:102EE00021E3280F2F73263018F48F500C944215CD
:102EF0002BE2280F2F73233018F485510C94D4152E
:102F0000892F8E77803311F40C945216863411F485
:102F10000C94A216883411F40C94F41608958823A6
:102F200019F05198599A02C0519A59985098589A44
:102F300095E09A95F1F70000509A589895E09A9587
:102F4000F1F70000882311F0519A599885E08A958D
:102F5000F1F7000008958BB18C7F8BB95098589A87
:102F60005198599A85E08A95F1F7000008958AB141
:102F70008C7F8AB985E08A95F1F70000519A5998BB
:102F800085E08A95F1F70000509A589885E08A9577
:102F9000F1F7000008955098589A85E08A95F1F766
:102FA00000005198599A85E08A95F1F7000008953C
:102FB000CF93DF93D82FC8E08D2F80780E948F1792
:102FC000DD0FC150C9F780E00E948F1785E08A9518
:102FD000F1F7000085E08A95F1F7000080E0DF91CD
:102FE000CF9108952BB1342F309523233BB1432B40
:102FF0003FB7F894FC01680F791FE617F70789F0CF
:10300000819198E04BB9000000C087FF2BB9880F71
:10301000000000C000C000C02BB900C09A9591F715
:10302000ECCF3FBF0895AF92BF92CF92DF92EF9265
:10303000FF920F931F93CF93DF938C01EB01CFB6D9
:10304000D090BC00F8948091BC008B7F8093BC0032
:103050000E94AB170E94B71784E80E94D817CC0FC4
:10306000DD1FCC0FDD1F78015801AC0EBD1EEA1428
:10307000FB0431F0F70181917F010E94D817F7CF4F
:103080000E94CB17CFBED092BC00579A40E8BE0139
:10309000C801DF91CF911F910F91FF90EF90DF90CA
:1030A000CF90BF90AF900C94F21790931E02809334
:1030B0001D020895E0911D02F0911E02309721F04B
:1030C0000190F081E02D099480E00895E0911D02C7
:1030D000F0911E02309799F020912701222359F098
:1030E0002091560327FF07C0DC012C9111962C93E9
:1030F000119725E02C930280F381E02D0994089527
:10310000E0911D02F0911E02309739F022E0DC01BF
:103110002C930480F581E02D0994089520911B02E1
:1031200030911C028217930771F090931C028093D8
:103130001B02E0911D02F0911E02309721F00680E3
:10314000F781E02D099408952091190230911A0217
:103150008217930771F090931A0280931902E091FD
:103160001D02F0911E02309721F00084F185E02DC0
:103170000994089585B7806885BF85B7806885BF45
:103180000895089508950C94C21808950C94C518D4
:103190000E94BA180E94C1180C94C31881E00895C7
:1031A0000E94E6260E94E4050E947D270E94FB13F0
:1031B0000C94C618CF92DF92EF92FF920F931F9359
:1031C000CF93DF93CDB7DEB72B970FB6F894DEBF62
:1031D0000FBECDBF0E9411060E94CE18811111C0F2
:1031E0008FEF89838A831B820E94EF268160782F6C
:1031F0009D838C8349815A816B818D810E94BE1988
:1032000056C080E2C82E82E0D82E00E010E0E02E0A
:10321000802F0E947806F60141916F01F42EF82666
:1032200031F40F5F1F4F0E30110589F7D9CF909100
:10323000DB0291FF04C08B870E947E068B8520E015
:1032400030E04F2D50E0922FBA01022E02C075954A
:1032500067950A94E2F760FF24C02E83EF8221E095
:1032600030E0690102C0CC0CDD1C9A95E2F790E0D9
:103270008C219D21892B09F420E028870E94EF26CC
:103280008160782F9A8789874E815F8168858A85DA
:103290000E94BE19F801E05EFD4F8081C826C08201
:1032A00006C02F5F3F4F2630310569F6BACF0E9426
:1032B000102910911F020E945A181817A1F00E949D
:1032C0005A1880931F022B960FB6F894DEBF0FBEDC
:1032D000CDBFDF91CF911F910F91FF90EF90DF90C5
:1032E000CF900C94390A2B960FB6F894DEBF0FBE20
:1032F000CDBFDF91CF911F910F91FF90EF90DF90A5
:10330000CF900895DC0111962C9111978C91682F24
:1033100070E041E050E001C0440F8A95EAF7129650
:103320008C91129730E0882329F080913E02882307
:10333000E9F006C0F901E25DFD4F90819423B1F000
:1033400086E0829FF001839FF00D1124E60FF71FA6
:10335000EE0FFF1FE85DFE4F808191818D939C935E
:10336000F901E25DFD4F8081482B06C0F901E25D65
:10337000FD4F40958081482340830895CF93DF938C
:10338000CDB7DEB72B970FB6F894DEBF0FBECDBF1B
:10339000942F4F83252F588769877A878B874A8593
:1033A0005B85452B21F02F3F09F59F3FF9F4DE01A6
:1033B000119686E0FD0111928A95E9F785E0FE01FC
:1033C000379601900D928A95E1F749815A816B8178
:1033D0007C818D819E810E9452212B960FB6F8949C
:1033E000DEBF0FBECDBFDF91CF910895CE0107960E
:1033F0000E948219DCCFFC01808191810E941F24F0
:1034000092959F70963041F480913E0291E0892719
:1034100080933E0290933D020895882309F41AC1D7
:103420008238C1F40E945A1881FD14C169E3809169
:103430001601909117010E9442260E94AD242FEFA1
:1034400081EE94E0215080409040E1F700C0000000
:1034500069E319C08338F9F40E945A1880FDFAC054
:1034600063E580911601909117010E9442260E9407
:10347000AD242FEF81EE94E0215080409040E1F7A1
:1034800000C0000063E580911601909117010E9431
:103490004D260C94AD248438C1F40E945A1882FD44
:1034A000D9C067E480911601909117010E944226CD
:1034B0000E94AD242FEF81EE94E021508040904097
:1034C000E1F700C0000067E4DECF9CEF980F913A6F
:1034D00040F4682F80911601909117010E944226B6
:1034E000D8CF90E2980F983050F4877091E001C0E7
:1034F000990F8A95EAF7892F0E946124CACF9BE52C
:10350000980F933070F4853A29F0863A31F083E8C9
:1035100090E005C081E890E002C082E890E00C9461
:103520008E1898E5980F973108F08EC0883A09F404
:1035300045C0893A09F445C08A3A09F445C08B3A36
:1035400009F445C08C3A09F445C08B3B09F445C0E9
:103550008C3B09F445C08D3A09F445C0803B09F421
:1035600045C08E3A09F445C08F3A09F445C0813B05
:1035700009F445C0823B09F445C0833B09F445C0CA
:10358000843B09F445C0853B09F445C0863B09F4FA
:1035900045C0873B09F445C0883B09F445C0893BD9
:1035A00009F445C08D3B09F445C08E3B09F445C084
:1035B0008A3B09F445C080E090E044C082EE90E090
:1035C00041C089EE90E03EC08AEE90E03BC085EBC2
:1035D00090E038C086EB90E035C083EB90E032C0DD
:1035E00084EB90E02FC087EB90E02CC08CEC90E057
:1035F00029C08DEC90E026C083E891E023C08AE8E2
:1036000091E020C082E991E01DC084E991E01AC0F8
:1036100081E292E017C083E292E014C084E292E07B
:1036200011C085E292E00EC086E292E00BC087E214
:1036300092E008C08FE690E005C080E790E002C00D
:103640008AE292E00C94A418803F20F00E9418288F
:103650000C9405290895882309F464C0823879F40C
:103660000E945A1881FF5EC069E380911601909113
:1036700017010E9442260E94AD2469E310C08338DE
:10368000B1F40E945A1880FF4DC063E58091160185
:10369000909117010E9442260E94AD2463E580911B
:1036A0001601909117010E944D260C94AD24843888
:1036B00079F40E945A1882FF35C067E480911601A0
:1036C000909117010E9442260E94AD2467E4E7CF43
:1036D0009CEF980F913A10F4682FE1CF90E2980F89
:1036E000983050F4877091E001C0990F8A95EAF7FD
:1036F000892F0E946724D9CF9BE5980F933020F43F
:1037000080E090E00C948E1898E5980F973120F4A3
:1037100080E090E00C94A418803F20F00E94802864
:103720000C9405290895CF93C82F0E940D1A8C2F51
:10373000CF910C942B1B882321F00E9461240C94C0
:10374000AD240895882321F00E9467240C94AD24B1
:1037500008958F929F92AF92BF92DF92EF92FF9265
:103760000F931F93CF93DF937C01D62FC72FFC01BC
:10377000058102950F70128111110E9481240E940F
:103780005724882379F0112369F080E28D0F883067
:1037900048F082E00E94F8240E94572491E0D82E3D
:1037A000D92601C0D12CAC2EA2948FE0A822B12C36
:1037B000F501EE57FF4F0C9447348C2F807FCF706C
:1037C000882311F0C295C07F112399F0CC2309F40E
:1037D000C8C180E28D0F883010F0D11104C08C2F49
:1037E0000E94612403C08C2F0E9474240E94AD2487
:1037F000B8C18D2F0E942B1BCC2309F42EC280E26E
:103800008D0F883010F0D11104C08C2F0E946724D6
:1038100003C08C2F0E947A240E94AD241EC28C2FDC
:10382000807FCF70803211F0C295C07FDD2319F008
:10383000D130C9F021C0112371F0002341F00130D3
:1038400031F40E9494248C2B0E949A2406C20E9478
:1038500094248C2B3FC1002319F0013009F4FDC1E1
:103860000E94A32411C0112321F0023008F0F5C1F9
:1038700007C00111F2C108C0112321F0011171C16B
:103880008C2F28C101117EC18C2F2AC18C2F8695C7
:103890008695837090E0009719F0019761F0DDC183
:1038A000112321F08D2F9C2F937002C080E090E0B7
:1038B0000E948E18E2C1112321F08D2F9C2F93704E
:1038C00002C080E090E00E94A418D7C11123F9F053
:1038D000D53F51F0D63F71F0D43FA9F48091500309
:1038E0009091510381600BC08091500390915103DE
:1038F000826005C080915003909151038460909341
:103900005103809350038D2F0E9418281EC0D53F6D
:1039100051F0D63F71F0D43FA9F4809150039091BB
:1039200051038E7F0BC080915003909151038D7F86
:1039300005C080915003909151038B7F9093510368
:10394000809350038D2F0E9480280E94052995C1E5
:103950008C2F837009F050C011118BC18D2F82956F
:1039600086958770880F880F9D2F9F70892E912CC8
:10397000A12CB12C082E04C0880C991CAA1CBB1CBD
:103980000A94D2F7D4FF14C00FE010E020E030E03A
:10399000B901A80104C0440F551F661F771F8A95FF
:1039A000D2F7CB01BA01609570958095909503C0D0
:1039B00060E070E0CB01C695C695C370D0E0C23020
:1039C000D10561F0C330D10581F0682979298A29B0
:1039D0009B29219771F00E9497224BC16829792970
:1039E0008A299B290E94A92244C10E949722C501CD
:1039F000B4010E9485223DC1112319F08C2F8170E2
:103A000001C08695882309F434C18D2F829586954F
:103A10008770880F880F9D2F9F70892E912CA12C65
:103A2000B12C082E04C0880C991CAA1CBB1C0A943B
:103A3000D2F7D4FF14C00FE010E020E030E0B9016D
:103A4000A80104C0440F551F661F771F8A95D2F73F
:103A5000CB01BA01609570958095909503C060E0A8
:103A600070E0CB01C695C695C3704C2F50E0423034
:103A7000510569F04330510589F0682979298A296F
:103A80009B294130510571F00E945C23F2C06829E6
:103A900079298A299B290E946E23EBC00E945C230E
:103AA000C501B4010E944A23E4C08D2F90E0FC01BF
:103AB000E05EF109E531F10508F04FC0EE56FF4F29
:103AC0000C944734DF708C2F8F71112331F00E94DA
:103AD000E3228D2F0E949B1BC0C00E9404238D2FC8
:103AE0000E94A21BBAC0112339F00111B6C08C2F5D
:103AF0008F710E942923B1C0023008F0AEC0F7CF09
:103B0000112339F08C2F8F710E94E322A6C011235C
:103B1000C9F38C2F8F710E9404239FC0112329F0B9
:103B20008C2F8F710E94CE2298C00E94C92295C00E
:103B3000112349F0CF718C2F0E94E32263E08C2F78
:103B40000E94E3248AC081E00E94F824023008F435
:103B500084C082E00E94F82480C0112331F0002349
:103B600089F28D2F0E940D1A78C0002391F2D9336B
:103B700049F45FEF67EE73E0515060407040E1F749
:103B800000C000008D2F0E942B1B67C04C2F4F7070
:103B90006D2FC7010E941A080E94F6216EC0D23F05
:103BA000B1F028F4D03F49F0D13FF9F028C0D43F1C
:103BB000B9F058F0D53F71F022C0112309F447C085
:103BC00090913E0281E0892708C081E01827109378
:103BD0003E023DC011113BC081E080933E0237C0E0
:103BE000111135C010923E0232C0112329F080918C
:103BF0003D02882329F329C0002311F328C08091B6
:103C00003D020023C1F0882341F090913E0281E003
:103C1000892780933E0210923D028D2F112319F0C7
:103C20000E940D1A14C00E942B1B86E0F70111920E
:103C30008A95E9F70CC0882351F0111108C09091C2
:103C40003E0281E0892780933E0210923D024C2F74
:103C50004F706D2FC7010E94CC0CF8E0AF16B10475
:103C600041F05CF04AE0A41AB10852E0A516B10494
:103C700020F40E945A180E94390ADD20E1F00E94C7
:103C8000532480FD18C0F70112820E944D240E9427
:103C9000E322C7010E94671E0E944D24DF91CF914D
:103CA0001F910F91FF90EF90DF90BF90AF909F908A
:103CB0008F900C940423DF91CF911F910F91FF906F
:103CC000EF90DF90BF90AF909F908F9008950F93EB
:103CD0001F93CF93DF93EC01888199812B813C81E5
:103CE000232BB9F09F3F11F48F3F99F0CE010E9432
:103CF0004B0A882371F0688179818A810E942A2485
:103D00008C010E9480230E948222B801CE010E9471
:103D1000A91BDF91CF911F910F9108950E948124DB
:103D20000E9491240E94AD240E949E290E94052990
:103D300080E090E00E948E1880E090E00C94A4183F
:103D400080911601909117010E9458260C948E1EA6
:103D50000E9471240C94A01EE92FE295EF70F0E010
:103D60003297EE30F105B0F4E955FF4F0C9447342B
:103D7000803F91F018F4803E68F40EC0843F51F407
:103D80000BC0803E48F0813F29F406C093FB882792
:103D900080F9089580E0089581E008950E941F242D
:103DA0000E94AC1E0895CF93DF9300D000D01F92E5
:103DB000CDB7DEB70F900F900F900F900F90DF915F
:103DC000CF910895CF93DF9300D000D000D0CDB72E
:103DD000DEB726960FB6F894DEBF0FBECDBFDF91DB
:103DE000CF9108951F93CF93DF93C0913F0216E0C8
:103DF00080914002C81799F0D0E01C9FF0011D9FF0
:103E0000F00D1124EF5BFD4F408151816281738180
:103E1000848195810E94E21E2196C770E9CFDF91CF
:103E2000CF911F910895409171025091720260915B
:103E300073027091740280917502909176020C94D5
:103E4000E21E8091760282958F7009F054C08091B5
:103E50007302882309F44FC080913F02A091400271
:103E600060917102709172024091740250917502DA
:103E7000B6E08A1709F43FC090E041155105C1F141
:103E80007F3F11F46F3FA1F1B89FF001B99FF00D92
:103E90001124EF5BFD4F218172132AC02081621330
:103EA00027C02281211124C02381348124173507A2
:103EB00010F421503109241B350B283C3105C0F486
:103EC000209176022F7020612093760226E0289FB1
:103ED000F001299FF00D1124EA5BFD4F80818F7066
:103EE0008061808381E792E00E94671E0C94F21E3D
:103EF00001968770BECF0895CF92DF92EF92FF9226
:103F00000F931F93CF93DF93CDB7DEB762970FB6B2
:103F1000F894DEBF0FBECDBF8C0185E0F801DE0155
:103F20001D9601900D928A95E1F7D8014C9111965A
:103F30005C91119712966C9112971396CD90DC902C
:103F40001497309171027091720280917402909175
:103F50007502009709F46BC17F3F19F43F3F09F4E4
:103F600066C1E0907302EE2009F4C0C02091760291
:103F7000C816D90628F0F601E81BF90BCF0104C0DA
:103F8000809590958C0D9D1DFF24F394883C9105A0
:103F900078F0F12C207F09F0C6C07C2DD98AC88A20
:103FA00089890E94D31E81E792E00E94671EB1C0FA
:103FB000822F807F09F046C0751314C0341312C0DD
:103FC000611110C02F702061209376020E94131F90
:103FD00081E792E00E94671E80917602D8011596D3
:103FE0008C932EC0CD2819F15F3F11F44F3FF9F0AB
:103FF000F62E61111CC080913F022091400236E0F4
:10400000821709F45AC090E0389FF001399FF00DF3
:104010001124EF5BFD4F7181571306C07081471368
:1040200003C07281711103C001968770E9CFF62E2B
:10403000662309F427C1809176028160809376021D
:10404000F12C20C1751308C0341306C0611104C0DF
:1040500080917602D801C3C04D875E878D859E858D
:104060006A8B0E94CE1E6A898823E1F16623D1F112
:1040700020917602822F82958F7090E0029774F0E3
:10408000809171029091720298878F831986DB86E6
:10409000CA862C87CE0107960E94671E86E0F8012B
:1040A000A1E7B2E001900D928A95E1F70E94211FED
:1040B0000E94131FFF24F394E5C04D875E878D8512
:1040C0009E850E941F24292F22952F7030E02230D8
:1040D00031050CF0CBC09F7009F0C5C0805E883000
:1040E00008F4D0C0C8010E94671EE4CFC816D906E4
:1040F00008F453C0F601E81BF90BCF01883C910589
:1041000008F450C0F12C7C2DD98AC88A89890E9474
:10411000D31EE1E7F2E086E0DF011D928A95E9F720
:104120000E94131FAFC0751314C0341312C0611165
:1041300010C080917602F8018583C8010E94671E35
:1041400086E0E1E7F2E0DF011D928A95E9F7FE2CB7
:1041500099C04D875E878D859E856A8B0E94CE1E95
:104160006A89882309F4BECF662309F4BBCF209166
:104170007602822F82958F7090E002970CF48ECF9A
:1041800080917102909172029A8389831B82DD82F1
:10419000CC822E83CE0101967FCF809590958C0D99
:1041A0009D1DACCFF62E662309F49CCF75132EC04F
:1041B00034132CC02091760220FD1FC0822F8295DF
:1041C0008F70D9F0D80115962C9315978F3049F040
:1041D0008F5F982F9295907F822F8F70892B1596E5
:1041E0008C93C8010E94671E86E0F801A1E7B2E047
:1041F00001900D928A95E1F793CF86E0F801A1E74F
:10420000B2E001900D928A95E1F73CC04D875E8740
:104210008D859E850E94CE1E811140CF80917602B1
:10422000816080937602C8010E94671E2BC06623BE
:1042300009F458CF4D875E878D859E850E94CE1EDE
:10424000F82E882309F44ECF86E0F801A1E7B2E00A
:1042500001900D928A95E1F781E792E00E94FB19A7
:104260000E94211F5DCF811139CF0CC02430310550
:104270000CF038CF9F7009F431CFF8019581907F11
:1042800009F02CCF8F2D62960FB6F894DEBF0FBECB
:10429000CDBFDF91CF911F910F91FF90EF90DF90F5
:1042A000CF9008951F93CF93DF93CDB7DEB72C97B0
:1042B0000FB6F894DEBF0FBECDBF4F835887698716
:1042C0007A878B879C87CE0107960E947C1F882364
:1042D00069F08F8198852A853B85232BF1F19F3FDB
:1042E00009F063C08F3F09F060C037C086E0FE016F
:1042F0003796DE01119601900D928A95E1F76F8154
:104300007885EA85FB85309741F17F3F11F46F3F57
:1043100021F12091400230E0C90101968770992770
:1043200040913F0250E08417950709F447C0698324
:104330007A83FD83EC8396E0929FD001939FB00D2A
:104340001124AF5BBD4FFE01319601900D929A95FD
:10435000E1F7809340020E94F21E16E080913F0236
:10436000909140028917C1F1189FC00111248F5B01
:104370009D4F0E947C1F882379F1E0913F021E9F90
:10438000F0011124EF5BFD4F408151816281738107
:10439000848195810E94E21E80913F0290E0019607
:1043A0008770992780933F02D9CF4F8158856985BF
:1043B0007A858B859C850E94E21ECFCF0E94A81E25
:1043C0001092400210923F02E1E7F2E086E0DF0146
:1043D0001D928A95E9F7C1CF2C960FB6F894DEBFEF
:1043E0000FBECDBFDF91CF911F910895EF92FF9245
:1043F0000F931F93CF93DF938C01892B09F46CC02B
:10440000F12CEE24E394E8012196F801849184379D
:1044100040F4843008F051C0813081F0823019F1CD
:104420005BC0853709F444C0A8F19CE7980F90372A
:1044300008F052C08F770E942B1B41C00E5F1F4FA8
:10444000FE01C49180E28C0F883048F4C7708E2D35
:1044500001C0880FCA95EAF70E94842414C08C2FEB
:104460000E940D1A2DC00E5F1F4FFE01C49180E205
:104470008C0F883058F4C7708E2D01C0880FCA95F4
:10448000EAF70E948A240E94AD241AC08C2F0E9451
:104490002B1B16C00E5F1F4FFE01C491CC2381F071
:1044A0008FE99FE00197F1F700C00000C150F6CFFF
:1044B0000E5F1F4FFE01F49003C00E940D1A8E0183
:1044C0008F2D882309F49FCFEFE9FFE03197F1F7B3
:1044D00000C000008150F5CFDF91CF911F910F9167
:1044E000FF90EF90089508950C9473220E94742217
:1044F0006093B2027093B3028093B4029093B502BA
:104500000C948E1E08950C9476220F931F930091A5
:10451000B2021091B3022091B4023091B502602B27
:10452000712B822B932B1F910F910C9476220F935A
:104530001F930091B2021091B3022091B402309106
:10454000B50260237123822393231F910F910C9452
:1045500076220F931F930091B2021091B302209123
:10456000B4023091B50260277127822793271F91EB
:104570000F910C9476220C94C0080E94BB22609389
:10458000AE027093AF028093B0029093B1020C948C
:104590008E1E60E070E0CB010C94BD220F931F9340
:1045A00041E050E060E070E08A019B0104C0000F30
:1045B000111F221F331F8A95D2F7C901B8011F911D
:1045C0000F910C94BD220F931F9341E050E060E0E7
:1045D00070E004C0440F551F661F771F8A95D2F7FD
:1045E0008091AE029091AF02A091B002B091B10261
:1045F0008A019B01082B192B2A2B3B2BC901B801DF
:104600001F910F910C94BD220F931F9341E050E036
:1046100060E070E004C0440F551F661F771F8A9545
:10462000D2F740955095609570958091AE0290912B
:10463000AF02A091B002B091B1028A019B010823A0
:1046400019232A233B23C901B8011F910F910C9410
:10465000BD220F931F9341E050E060E070E004C082
:10466000440F551F661F771F8A95D2F78091AE02BF
:104670009091AF02A091B002B091B1028A019B016A
:10468000082719272A273B27C901B8011F910F9135
:104690000C94BD220F931F930091AE021091AF02B4
:1046A0002091B0023091B102602B712B822B932BA1
:1046B0001F910F910C94BD220F931F930091AE0296
:1046C0001091AF022091B0023091B10260237123AA
:1046D000822393231F910F910C94BD220F931F935C
:1046E0000091AE021091AF022091B0023091B10260
:1046F00060277127822793271F910F910C94BD2269
:104700000895292F220F920F990F890FA82FA69590
:10471000A695A695877051E001C0550F8A95EAF7D6
:1047200085E0A89FD001112420E030E070E0F9017D
:10473000EA0FFB1FE958FD4F4081CB01022E02C05A
:10474000969587950A94E2F7817099278195842739
:104750008523842780832F5F3F4F2530310539F72C
:104760000895292F220F920F990F890F682F6695B0
:1047700066956695982F977085E0689FB001112423
:1047800040E050E080E0FA01E60FF71FE958FD4FE6
:10479000208130E0092E02C0369527950A94E2F771
:1047A00021703327042E01C0220F0A94EAF7822BCE
:1047B0004F5F5F4F4530510531F70895BF92CF925B
:1047C000DF92EF92FF920F931F93CF93DF938C01B1
:1047D000C090B202D090B302E090B402F090B50263
:1047E0008091AE029091AF02A091B002B091B1025F
:1047F000C82AD92AEA2AFB2ACFE1D0E0D701C6018C
:104800000C2E04C0B695A795979587950A94D2F774
:1048100080FF07C0BC2EB8018C2F0E94E70C0197C7
:1048200019F4219758F7B12C8B2DDF91CF911F915F
:104830000F91FF90EF90DF90CF90BF900895CF93AE
:10484000DF93EC010E94DE23BE010E94E70CDF91A2
:10485000CF9108951F93CF93DF93EB0190913C028A
:10486000992321F0CB010E941F2413C0882349F013
:10487000CB010E94DE23182F682FCE010E948123D6
:1048800004C0CB010E94B123182FBE01812F0E94CA
:10489000E70CDF91CF911F9108958091B602859525
:1048A0008595859508958091B602877008959091B9
:1048B000B602977081E009F480E008958091DA02F1
:1048C00008959091DA02892B8093DA0208958095F9
:1048D0009091DA0289238093DA0208958093DA02B4
:1048E00008951092DA0208959091D902892B80934D
:1048F000D902089580959091D90289238093D90295
:1049000008951092D90208959091D802892B80932E
:10491000D802089580959091D80289238093D80277
:1049200008951092D80208958091B70208950895CD
:104930000C9497249091B702981721F08093B702B6
:104940000C94982408958091B702882329F010923E
:10495000B70280E00C9498240895E0911601F0913C
:1049600017018091DA028083E0911601F09117011E
:1049700090818091D902892B8083E0911601F0917A
:10498000170190818091D802892B80838091B70292
:10499000882381F0E0911601F09117019081892B15
:1049A000808380911601909117010E94DD2581116D
:1049B0000E94A32480911601909117010C9466180F
:1049C00008950C94E02498E0899F90011124262BEF
:1049D0002093B6020E94E3228091B60285958595C8
:1049E00085950C94E1241092B60280E00C94E124A9
:1049F0002091B602809582238093B602982F9770FB
:104A000079F430E0482F082E000C550B2417350799
:104A100039F08595859585950E9404230C94F3249F
:104A20000895CF92DF92EF92FF926C01EE24FF2463
:104A3000C114D104E104F10421F0C701B60120E161
:104A400001C020E0C72ED82EE92EFF24C114D104C6
:104A5000E104F10419F0285FC701B6016B017C0184
:104A600054E0F694E794D794C7945A95D1F7C114BB
:104A7000D104E104F10419F02C5FC701B6016B0108
:104A80007C0142E0F694E794D794C7944A95D1F715
:104A9000C114D104E104F10419F02E5FC701B6017D
:104AA000DC01CB01B695A79597958795892B8A2B25
:104AB0008B2B09F02F5F822FFF90EF90DF90CF902C
:104AC000089580E090E00E94953521E08D3E9E4F54
:104AD00009F020E0822F089582E090E00C94873561
:104AE00083E090E00C94873584E090E00C94873567
:104AF000682F84E090E00C949B35AB01BC018FE003
:104B000090E00C94AD35AB01BC0183E190E00C94D6
:104B1000AD3560E070E0CB010C94832560E070E07F
:104B2000CB010E947D250C9489256DEE7EEF80E0FF
:104B300090E00E94B93560E082E090E00E949B35F1
:104B400060E083E090E00E949B351092B2021092E8
:104B5000B3021092B4021092B50260E084E090E0DB
:104B60000E949B3560E085E090E00E949B3560E00C
:104B700086E090E00E949B356FEF87E090E00E9416
:104B80009B3540E050E0BA0188E090E00E94AD35EE
:104B900060E08DE090E00E949B3540E050E0BA017B
:104BA00088E190E00E94AD3560E087E190E00E94EE
:104BB0009B350C948E250C949525FC0132968091A2
:104BC0002701882331F08091560387FF02C09EE1C0
:104BD00001C096E080E0915028F021912223D9F382
:104BE0008F5FF9CF08959C01FC0132969FEF80E022
:104BF0004191461789F09F3F19F4411101C0982F48
:104C00008F5F8630A9F79F3F39F0F901E90FF11D59
:104C100097FDFA95628308950895FC0132960896EF
:104C20002081261301C010823196E817F907C1F7D9
:104C30000895262F2695269526952E3168F4FC0199
:104C4000E20FF11D677021E030E001C0220F6A958C
:104C5000EAF78281282B22830895262F2695269510
:104C600026952E3170F4FC01E20FF11D677021E0F2
:104C700030E001C0220F6A95EAF72095828128234F
:104C80002283089520912701222329F020915603A1
:104C900027FD0C9419260C94F3252091270122233B
:104CA00029F02091560327FD0C942D260C940D26F7
:104CB00020912701FC013296222331F08091560386
:104CC00087FF02C08EE101C086E0DF011D928A9558
:104CD000E9F7089508950C946A260E946B26809146
:104CE0005C03843049F11092DC0220E488E190E01A
:104CF0000FB6F894A895809360000FBE20936000D3
:104D000080E00E94390A0E946B2683B7817F84600D
:104D100083BF83B7816083BF7894889583B78E7F84
:104D200083BF0FB6F894A895809160008861809346
:104D30006000109260000FBE08950895CF930E9406
:104D4000FE050E9411060E949D26C0E08C2F0E9445
:104D50007806811104C0CF5FCE30C1F701C081E079
:104D6000CF91089508950C94B2260E94A81E0E9427
:104D70005A180E94390A0C94B3261F920F920FB64C
:104D80000F9211248F939F93AF93BF938091DC0276
:104D9000811113C08091520390915303A091540349
:104DA000B09155034196A11DB11D8093520390937C
:104DB0005303A0935403B0935503BF91AF919F91B8
:104DC0008F910F900FBE0F901F90189582E084BDB9
:104DD00093E095BD9AEF97BD80936E0008952FB72D
:104DE000F8948091520390915303A0915403B09191
:104DF00055032FBF0895CF92DF92EF92FF920F934A
:104E00001F932FB7F8944091520350915303609130
:104E10005403709155032FBF6A017B01EE24FF24D8
:104E20008C0120E030E0C016D106E206F30610F453
:104E3000415051099A01281B390BC9011F910F914B
:104E4000FF90EF90DF90CF90089578941F920F928B
:104E50000FB60F9211248F939F93AF93BF938091BE
:104E6000520390915303A0915403B09155030196BE
:104E7000A11DB11D8093520390935303A09354033B
:104E8000B0935503BF91AF919F918F910F900FBE3B
:104E90000F901F901895F89481E08093E00080E2D5
:104EA0008093D800E9ECF0E010828FE19EE4019756
:104EB000F1F700C000001DBA109268001CBC10BEC3
:104EC0001FBA10927A0010926E0010926F0010922A
:104ED0007100109272001082ECEBF0E0108214B8B6
:104EE00017B81AB81DB810BA108215B818B81BB880
:104EF0001EB811BA0C94003F08950E9461258111DB
:104F000002C00E94DB250E946C258093DB020E9478
:104F1000742590E090935703809356030E94702568
:104F2000682F70E080E090E00C9483228091E10291
:104F300080FF0BC060911B0185E0689FB0011124C8
:104F400075956795759567952BC081FF09C0609130
:104F50001B0185E0689FB00111247595679520C0FD
:104F600082FF07C060911B0185E0689FB00111249A
:104F700017C09091E0029923D1F060911A01961721
:104F800088F720911B0185E0289F90011124929FB2
:104F9000A001939F500D112470E0CA010E94333488
:104FA0006038710540F46115710539F002C065E0A3
:104FB00070E0862F08958FE7089581E0089580912D
:104FC000E10280FF08C06091190170E07595679556
:104FD0007595679521C081FF06C06091190170E049
:104FE0007595679519C082FF04C06091190170E042
:104FF00010C09091E0029923C1F0609118019617BA
:10500000A0F780911901899FC001112470E00E94CE
:1050100033346038710528F46115710521F0862F4D
:1050200008958FE7089581E0089561E070E0F4CF7E
:10503000803F21F40E949627819504C0813F29F486
:105040000E9496278093E5020895823F21F40E94F2
:105050009627819504C0833F29F40E949627809368
:10506000E4020895893F19F40E94DF2705C08A3FB2
:1050700031F40E94DF2781958093E60208958B3FEB
:1050800021F40E94DF27819504C08C3F29F40E94FF
:10509000DF278093E7020895843F21F48091E302A3
:1050A000816017C0853F21F48091E302826011C0C6
:1050B000863F21F48091E30284600BC0873F21F496
:1050C0008091E302886005C0883F31F48091E3025B
:1050D00080618093E30208958D3F21F48091E10285
:1050E00081600BC08E3F21F48091E102826005C097
:1050F0008F3F29F48091E10284608093E10208955A
:10510000803F39F48091E50287FF6CC01092E50280
:1051100069C0813F29F48091E5021816BCF362C092
:105120009091E402823F29F497FF5CC01092E40260
:1051300059C0833F19F41916CCF354C0893F41F488
:105140008091E60218160CF04DC01092E6024AC09B
:105150008A3F29F48091E60287FF44C0F6CF8B3F57
:1051600039F48091E70287FF3DC01092E7023AC010
:105170008C3F29F48091E7021816BCF333C0843FBA
:1051800021F48091E3028E7F17C0853F21F4809146
:10519000E3028D7F11C0863F21F48091E3028B7F73
:1051A0000BC0873F21F48091E302877F05C0883FD1
:1051B00031F48091E3028F7E8093E30213C08D3F30
:1051C00021F48091E1028E7F0BC08E3F21F480910B
:1051D000E1028D7F05C08F3F29F48091E1028B7F32
:1051E0008093E1028091E40281110EC08091E5027A
:1051F00081110AC08091E602811106C08091E70208
:10520000811102C01092E002089582EE92E00E94A5
:1052100080180E94EF269093DF028093DE020895AB
:105220001F93CF93DF938091DE029091DF020E9463
:10523000FB26AC019091E002992321F020911C0102
:1052400030E006C02091DD028AE0289F9001112401
:105250004217530708F46EC08091E402C091E50242
:10526000D091E6021091E702811107C0C1115EC022
:10527000D1115CC011115AC05DC09F3F19F09F5FF2
:105280009093E002181624F40E9496278093E4027B
:105290008091E40287FF05C00E9496278195809344
:1052A000E4021C1624F40E9496278093E502809164
:1052B000E50287FF05C00E94962781958093E5024D
:1052C0004091E402442379F03091E502332359F010
:1052D00025EB4203A00111245093E4023203C001E4
:1052E00011249093E5021D1624F40E94DF27809379
:1052F000E6028091E60287FF05C00E94DF278195C4
:105300008093E602111624F40E94DF278093E702BF
:105310008091E70287FF05C00E94DF278195809377
:10532000E702DF91CF911F910C9405299F3F09F06F
:10533000A6CFAECFDF91CF911F910895E2EEF2E0BC
:1053400086E0DF011D928A95E9F71092E002109243
:10535000E10208958091080308950F931F93CF935E
:10536000DF9300D01F92CDB7DEB78C010E941D2CB9
:10537000823011F0843021F584E089831B830A8315
:1053800082E08093E9008FEF9091E800815095FDD5
:1053900006C095ED9A95F1F700008111F5CF809147
:1053A000E80085FF0DC040E050E063E070E0CE0112
:1053B00001960E943A2C8091E8008E778093E80055
:1053C0000F900F900F90DF91CF911F910F91089543
:1053D000CF93DF9300D01F92CDB7DEB720915C034F
:1053E000243031F523E02983805891099B838A83F7
:1053F00082E08093E9008FEF9091E800815095FD65
:1054000006C095ED9A95F1F700008111F5CF8091D6
:10541000E80085FF0DC040E050E063E070E0CE01A1
:1054200001960E943A2C8091E8008E778093E800E4
:105430000F900F900F90DF91CF910895CF93DF934E
:10544000EC010E941D2C823011F08430F9F482E0CE
:105450008093E9009FEF8091E800915085FD06C0A0
:1054600085ED8A95F1F700009111F5CF8091E80064
:1054700085FF0CC040E050E066E070E0CE010E9485
:105480003A2C8091E8008E778093E800DF91CF91ED
:105490000895CF93DF93EC010E941D2C823011F010
:1054A0008430D9F580912701882339F08091560303
:1054B00087FF03C060E282E002C068E081E0809381
:1054C000E9008FEF9091E800815095FD06C095EDC1
:1054D0009A95F1F700008111F5CF8091E80085FFE2
:1054E0001CC080912701811105C040E050E068E0B8
:1054F00070E003C070E040E050E0CE010E943A2C22
:105500008091E8008E778093E80080E2FE01A8EEAB
:10551000B2E001900D928A95E1F7DF91CF91089565
:1055200080915B03811109C00E94CF2D0E942C2E17
:105530008091E20084608093E200089510925B0302
:105540000895089508950C94B52642E061EC81E039
:105550000E94492D42E261EC82E00C94492D809139
:105560005E03833009F460C030F4813071F0823022
:1055700009F499C008958A3009F485C08B3009F484
:105580006BC0893009F0A7C020C080915D03813ACB
:1055900009F0A1C08091E800877F8093E8008091A6
:1055A000610390916203892B21F460E288EE92E01E
:1055B00003C060E080E090E070E00E94852C809164
:1055C000E8008B778093E800089580915D03813235
:1055D00009F081C08091610390916203029708F005
:1055E0007AC08091E800877F8093E8008091E8008E
:1055F00082FD05C080915C038111F8CF6CC02091C1
:10560000F3008091F20090E0922B029729F48091B0
:10561000F1008B7F813021F48091F10080930803A9
:105620008091E8008B7753C080915D03813A09F047
:1056300052C08091610390916203892B09F04BC0A5
:105640008091E800877F8093E8008091E80080FFE8
:10565000FCCF8091270136C080915D038132D9F55E
:105660008091610390916203892BA9F58091E800F4
:10567000877F8093E8000E947E2D80915F03809356
:1056800027010C94A81E80915D03813221F5809141
:10569000E800877F8093E8000E947E2D8091600360
:1056A00080930903089580915D03813AA1F480916C
:1056B000E800877F8093E8008091E80080FFFCCFBE
:1056C000809109038093F1008091E8008E778093A8
:1056D000E8000C947E2D089584B7877F84BF0FB6B1
:1056E000F894A89580916000886180936000109282
:1056F00060000FBE80E880936100109261000E94FC
:10570000C8180E94CF2D0E942C2E8091E200846048
:105710008093E20078940E94BB300E94D0188DE103
:1057200091E00E94551880915C03853069F40E94D5
:105730006D2680915A038823B1F30E949E26882308
:1057400091F30E94242CEFCF0E94DA180E944F1789
:10575000EACF0C94AB2B292F332723303105C9F026
:1057600064F42130310581F02230310509F04CC05C
:105770008BE390E023EC38E04BC02132310521F17E
:105780002232310589F140C082E190E02EEF38E00D
:105790003FC099278130910571F02CF4892BA1F538
:1057A000EFEBF8E00DC08230910541F0039761F511
:1057B000E9E8F8E005C0E7EAF8E002C0EFE8F8E061
:1057C000849190E09F0124C06115710541F0613022
:1057D0007105D1F489E090E02EEE38E019C089E03F
:1057E00090E025ED38E014C06115710541F061309D
:1057F000710551F480EC90E020E139E009C080E4CB
:1058000090E020ED39E004C080E090E020E030E05E
:10581000FA013183208308950895CF93C82F0E9401
:105820000C2CC0930A03CF91089580915C038430BF
:1058300011F081E0089582E0089580910A038111BA
:1058400002C00C94152C089580E189BD82E189BDC8
:1058500009B400FEFDCF8091D8008F7D8093D800E1
:105860008091E00082608093E0008091E00081FD03
:10587000FCCF0895CF92DF92EF92FF920F931F9388
:10588000CF93DF93EC018B016A010E949D2D811162
:1058900033C0C114D10439F0F60180819181081B15
:1058A000190BC80FD91FE12CF12C0115110519F1A5
:1058B0008091E80085FD16C08091E8008E77809386
:1058C000E800C114D10449F0F60180819181E80E0D
:1058D000F91EF182E08285E00FC00E949D2D882391
:1058E00021F30AC089918093F10001501109FFEF63
:1058F000EF1AFF0ADACF80E0DF91CF911F910F916D
:10590000FF90EF90DF90CF90089520916303309146
:1059100064032617370748F06115710539F42091A3
:10592000E8002E772093E80001C0B90140E061153E
:105930007105A9F120915C03222309F443C02530AD
:1059400009F442C02091E80023FD40C02091E80006
:1059500022FD32C02091E80020FFE9CF4091F30002
:105960002091F20030E0342BFC01CF01611571056C
:1059700059F02830310540F481918093F100615055
:1059800071092F5F3F4FF1CF41E02830310509F019
:1059900040E02091E8002E772093E800C8CF411125
:1059A000C9CF0AC080915C03882361F0853061F023
:1059B0008091E80083FD0AC08091E80082FFF2CF69
:1059C00080E0089582E0089583E0089581E00895DD
:1059D00020916303309164032617370748F061155F
:1059E000710539F42091E8002E772093E80001C07A
:1059F000B901FC0120E06115710591F180915C0312
:105A0000882309F440C0853009F43FC08091E80044
:105A100083FD3DC08091E80082FD2FC08091E800A9
:105A200080FFE9CF2091F3008091F20090E0922B6B
:105A30006115710559F08830910540F42491209347
:105A4000F1003196615071090196F2CF21E008977B
:105A500009F020E08091E8008E778093E800CBCFBA
:105A60002111CCCF0AC080915C03882361F085307E
:105A700061F08091E80083FD0AC08091E80082FF18
:105A8000F2CF80E0089582E0089583E0089581E0F8
:105A90000895982F973058F59093E900981739F0AA
:105AA0007091EC002091ED005091F00003C0242F84
:105AB000762F50E021FF19C03091EB003E7F3093EC
:105AC000EB003091ED003D7F3093ED003091EB0025
:105AD00031603093EB007093EC002093ED00509315
