:100000000C9477040C9494040C9494040C9494042D
:100010000C9494040C9494040C9494040C94940400
:100020000C9494040C9494040C94EC2C0C94BE2D1D
:100030000C9452250C9494040C9494040C94940401
:100040000C9494040C9494040C9494040C949404D0
:100050000C9494040C94BA250C9494040C94940479
:100060000C9494040C9494040C9494040C949404B0
:100070000C9494040C9494040C9494040C949404A0
:100080000C9494040C9494040C9494040C94940490
:100090000C9494040C9494040C9494040C94940480
:1000A0000C9494040C9494040C949404EC04EF04C5
:1000B000F204F504F804FB04FE04010807080E0826
:1000C0001908260833083E084B08570863086F08CC
:1000D0007B08A708AA08AD08B008B508BA08B80890
:1000E000510A530A5E0A550A570A590A5B0A5D0A01
:1000F000600A620A640A6F0A660A680A6A0A6C0A77
:100100006E0A710A6B1A6B1A9D1A9D1ADA1AFA1A7C
:10011000631CC11C3C1BC11CE91BE91B5A1CC11CF4
:10012000C11CBB1CF61BF61BF61BF61BF61BF61BB5
:10013000F61BF61BF61BF61BF61BF61BF61BF61B37
:10014000F61BF61B071C141C1B1C221C2C1C501D10
:10015000501D621D621D591D621D621D621D501DD4
:10016000501D5E1D621D621D5E1D2B2E522E442FE2
:10017000522E442F9E2EC12E442F172F262F076359
:100180004236B79BD8A71A39685618AEBAAB558C09
:100190001D3CB7CC5763BD6DEDFD753EF617723152
:1001A000BF000000803F05A84CCDB2D44EB9383610
:1001B000A9020C50B9918688083CA6AAAA2ABE00BA
:1001C0000000803F6572676F646F785F657A2F65A6
:1001D0003362666633633761333036613832316497
:1001E000666561204020302E362E3237332D313671
:1001F0002D676234653462652D646972747900001C
:1002000000F0A101002B002900350064000000016E
:1002100000140004611D714A00045301001A001605
:10022000641B744D00015101000800076806004B73
:1002300000015101001500096219004E0001000182
:100240000017000A00050000000100010001000085
:100250000001000000010001000100000001000099
:1002600000010001001C000B001100000001000152
:100270000018000D6210001150010001000C000E6A
:1002800068360050002C42010012000F6437745190
:10029000002C4201001300336138715200045101F7
:1002A000002A00280034004F0000000100440045EF
:1002B000004C053200000001003A001E614C00496C
:1002C00000010001003B001F64040139000100012E
:1002D000003C0020682F000100010001003D0021CA
:1002E0006230001050010001003E002200010000B9
:1002F00000010001000100000001000000010001F8
:10030000000100000001000000010001003F002387
:10031000000100000001000100400024722D0012C5
:100320005001000100410025682E0050000100012D
:1003300000420026641A0151000100010043002719
:100340006131005200010001002A00280023024F01
:100350000000000100A700A6000100A500000001A8
:10036000000100F5000100010001000100F500F2AC
:1003700000F900010001000100F000F100F90001A6
:1003800000F4000100F400F300FA00115001000134
:1003900000A900AA00A8000000010001000100005F
:1003A0000001000000010001000100000001000048
:1003B0000001000100010001000100000001000136
:1003C000000100E10001001350010001000100E301
:1003D0000001000100010001000100E20001000134
:1003E00000010001000100E0000100010001000126
:1003F00000010001000100010000002B002B00E1C2
:1004000000E000E00000001E00140004001D00E2F7
:1004100000E3001F001A0016001B003D002C002006
:100420000008000700060001002C0021001500094B
:1004300000190012500100220017000A00050000F8
:1004400000290023002B0000002B00000001000108
:10045000002B0000002B000000010023001C000BFB
:1004600000110000000100240018000D0010001011
:1004700050010025000C000E003600010058002637
:100480000012000F00370050002A0027001300332D
:100490000052005100010010503163347238004F97
:1004A00000000010500100010001000100000001E7
:1004B00000E85CED5C0100010001000100E95CEE78
:1004C0005C0100010001000100EA5CEF5C01000139
:1004D0000001000100EB5CF05C0100105001000124
:1004E00000EC5CF15C010000000100010001000073
:1004F00000010000000100010001000000010000F7
:1005000000010001000100010001000000010001E4
:1005100000C55CC25CC95C105001000100C65CC330
:100520005CCA5C0100010001000100E75C01000100
:1005300000010001000100010001000100010001B3
:1005400000010001000100010000000000000000A7
:100550000000002A2B28000000000000000000001E
:1005600000000000000029000000002C1E342021A3
:100570002224342627252E362D3738271E1F2021EA
:1005800022232425263333362E37381F0405060749
:1005900008090A0B0C0D0E0F101112131415161763
:1005A00018191A1B1C1D2F3130232D350405060781
:1005B00008090A0B0C0D0E0F101112131415161743
:1005C00018191A1B1C1D2F3130354C00000000007B
:1005D000000000000000000000000000000000001B
:1005E0000000000000000000000000000101010107
:1005F00001010001010101000000000000000000F5
:1006000000000000000100010001010101010101E1
:1006100001010101010101010101010101010101CA
:1006200001010101010100000001010000000000C2
:1006300000000000000000000000000000000000BA
:10064000000000000000010101010000047F3F1FC5
:10065000643214643214783C1E1E140A056801F0DA
:1006600000B40078005A0000000000000101010100
:10067000010101010102020202020202020203035D
:10068000030303030303040404040404050505052C
:1006900005060606060607070707080808080909E9
:1006A000090A0A0A0A0B0B0B0C0C0C0D0D0D0E0E91
:1006B0000F0F0F101011111112121313141415151E
:1006C00016161717181819191A1A1B1C1C1D1D1E8F
:1006D0001F1F2020212222232425252627272829E1
:1006E0002A2B2B2C2D2E2F2F30313233343536360A
:1006F0003738393A3B3C3D3E3F4041424344464710
:1007000048494A4B4C4D4F50515253555657585AE1
:100710005B5C5E5F606263646667696A6C6D6E7085
:100720007173747678797B7C7E8081838486888AF5
:100730008B8D8F91929496989A9B9D9FA1A3A5A72C
:10074000A9ABADAFB1B3B5B7B9BBBDBFC1C4C6C826
:10075000CACCCFD1D3D6D8DADCDFE1E4E6E8EBEDE2
:10076000F0F2F5F7FAFCFF04033000000016034531
:1007700000720067006F0044006F007800200045A1
:10078000005A00000016034500720067006F004425
:10079000006F007800200045005A000000040309A3
:1007A0000409023B00020100A0FA09040000010351
:1007B0000101000921110100012240000705810308
:1007C00008000A09040100010300000009211101C9
:1007D000000122C0000705820320000A1201100157
:1007E00000000008EDFE07130100010203010501EE
:1007F0000902A10185020901A100050919012905C4
:10080000150025019505750181029501750381018A
:100810000501093009311581257F9502750881068A
:1008200009381581257F950175088106050C0A3860
:10083000021581257F950175088106C0C005010953
:1008400080A10185031601002603001A81002A8376
:1008500000751095018100C0050C0901A1018504F6
:10086000160100269C021A01002A9C0275109501AF
:100870008100C005010906A1018505050719E029C8
:10088000E715002501950875018102050819012960
:1008900005950575019102950175039101050719EB
:1008A0000029EF1500250195F075018102C00501B1
:1008B0000906A101050719E029E71500250195089A
:1008C0007501810295017508810105081901290545
:1008D00095057501910295017503910105071900B0
:1008E00029FF150026FF00950675088100C0112418
:1008F0001FBECFEFDAE0DEBFCDBF11E0A0E0B1E078
:10090000ECE8F6E602C005900D92AA3CB107D9F7D3
:1009100023E0AAECB1E001C01D92AE3AB207E1F7C4
:100920000E940E2A0C9444330C94000080B38C7007
:1009300080BB81B3836F81BB089584B1807F84B90C
:1009400085B1807F85B98AB1837F8AB98BB1837F76
:100950008BB93E9846980895CF93E82F873090F54D
:100960008091000190910101892B09F049C0CE2F9F
:1009700064E670E080E40E942D069093010180936C
:100980000001892BD1F464E670E082E10E948406C4
:100990009093010180930001892B79F481E090E02C
:1009A00001C0880FCA95EAF764E670E080950E945E
:1009B0008406909301018093000184E690E0CF913A
:1009C0000C94D90690E0FC013797E730F105C0F4AC
:1009D000EA5AFF4F0C94E932209A289811C0219AC4
:1009E00029980EC0229A2A980BC0239A2B9808C0E7
:1009F000529A5A9805C0539A5B9802C03E9A4698FC
:100A0000CF910895089508950C940305CF93DF9333
:100A10000E946B0790E090930101809300010E9477
:100A20009D040E949604AFE1B2E02BEC31E0EDE2D0
:100A3000F2E04EE04E0F11921D9280E090E0E9014D
:100A4000C80FD91F1882019686309105C1F72A5F19
:100A50003F4F4E13F0CFDF91CF910C948A090E9443
:100A60006B0790E090930101809300010E949D0428
:100A70000E949604EDE2F2E08EE08E0F11928E134A
:100A8000FDCF0895CF93DF93E62FF0E0E15EFD4FB9
:100A900040814827808386E0689FF0011124E55358
:100AA000FE4F20E030E080E061E070E050E0AAE03E
:100AB000B22F9081992319F09150908307C0EB01D8
:100AC000022E01C0CC0F0A94EAF78C2BEA0102C077
:100AD000D595C795BA95E2F7C0FDA0832F5F3F4F2C
:100AE00031962630310521F7DF91CF910895CF93CC
:100AF000DF93D82F873008F040C08091000190919B
:100B00000101892B09F042C064E670E080E40E9494
:100B10002D069093010180930001892B11F0C0E014
:100B200027C064E670E083E10E948406909301018F
:100B300080930001892B99F764E670E081E40E94BC
:100B40002D069093010180930001892B41F784E6E3
:100B500090E00E94B40697FF05C090930101809336
:100B60000001DDCFC82FC095109201011092000145
:100B700084E690E00E94D9060AC09FB1CFB1C07F41
:100B8000C695C6959370C92BC09501C0C0E06D2F66
:100B90008C2F0E944205282F2095ED2FF0E0E35D79
:100BA000FD4F908192238C23892BDF91CF91089563
:100BB000EF92FF920F931F93CF93DF9380910001E9
:100BC00090910101892B91F08091CA018F5F8093F0
:100BD000CA0181110BC00E946B0790E09093010144
:100BE00080930001892B11F40E94FD068DE2E82E0E
:100BF00082E0F82E04E312E0C0E08C2F0E94AC04E7
:100C0000D7E0DC0F8D2F0E94AC048C2F0E9477055B
:100C1000F70181937F018D2F0E947705F801819361
:100C20008F010E949D04CF5FC73039F70E9494095D
:100C300081E0DF91CF911F910F91FF90EF90089588
:100C4000E82FF0E0E35DFD4F808108950895109254
:100C5000B9008CE08093B8000895EF92FF920F9353
:100C60001F93CF93DF93182FEB011092BC0084EAFF
:100C70008093BC000E9484257C019091BC0097FD6C
:100C80000EC0CF3F8FEFD807C1F30E9484258E1985
:100C90009F098C179D0788F38EEF9FEF2EC09091D0
:100CA000B900987F983041F09091B900987F9031C9
:100CB00019F08FEF9FEF21C01093BB0084E8809361
:100CC000BC000E9484258C019091BC0097FD0CC053
:100CD000CF3F8FEFD807C1F30E948425801B910B73
:100CE0008C179D0788F3D8CF8091B900887F883111
:100CF00011F08034F1F680E090E0DF91CF911F9108
:100D00000F91FF90EF9008950F931F93CF93DF9370
:100D1000EB018093BB0084E88093BC000E94842593
:100D20008C019091BC0097FD0EC0CF3F8FEFD8078C
:100D3000C1F30E948425801B910B8C179D0788F3BB
:100D40008EEF9FEF0CC02091B900287F81E090E0EA
:100D5000283211F480E090E0919581959109DF911E
:100D6000CF911F910F9108950F931F93CF93DF930E
:100D7000EC0184E88093BC000E9484258C01909152
:100D8000BC0097FD0EC0CF3F8FEFD807C1F30E9484
:100D90008425801B910B8C179D0788F38EEF9FEFA6
:100DA00003C08091BB0090E0DF91CF911F910F9124
:100DB00008950F931F93CF93DF93EC0184E9809301
:100DC000BC000E9484258C019091BC0094FF0EC051
:100DD000CF3F8FEFD807C1F30E948425801B910B72
:100DE0008C179D0788F38EEF9FEF02C080E090E0A4
:100DF000DF91CF911F910F91089556985E98259895
:100E00002D9826982E9827982F988FEF90E0909302
:100E100089008093880090938B0080938A00909340
:100E20008D0080938C00259A2D9A2FEF80E792E019
:100E3000215080409040E1F700C00000269A2E9A91
:100E40002FEF80E792E0215080409040E1F700C012
:100E50000000279A2F9A2FEF80E792E021508040E0
:100E60009040E1F700C0000025982D982FEF80E713
:100E700092E0215080409040E1F700C000002698A9
:100E80002E982FEF80E792E0215080409040E1F7CC
:100E900000C0000027982F9856985E9825982D98A6
:100EA00026982E9827982F98089589EA8093800095
:100EB00089E08093810024982C983F988AB18F7C98
:100EC0008AB96E98479A8BB180638BB9769A0E94E3
:100ED000FD060C94020580E290E09093010180935E
:100EE000000180913B0281110EC00E94270681E023
:100EF00080933B022FEF83ED90E3215080409040A0
:100F0000E1F700C0000064E670E080E40E942D0676
:100F10009093010180930001892B09F050C064E691
:100F200070E080E00E9484069093010180930001AC
:100F3000892B09F044C064E670E080E00E948406DA
:100F40009093010180930001892BC9F564E670E05C
:100F50008FE30E9484069093010180930001892B06
:100F600071F584E690E00E94D90664E670E080E4C2
:100F70000E942D069093010180930001892BF9F4C2
:100F800064E670E08CE00E948406909301018093F7
:100F90000001892BA1F464E670E080E00E948406E1
:100FA0009093010180930001892B49F464E670E07D
:100FB0008FE30E948406909301018093000184E6F0
:100FC00090E00E94D906809100010895611108C047
:100FD000FC018281882321F084EC91E00E94870942
:100FE00080E090E00895FC01E65EFC45EC30F10500
:100FF00008F090C0DB01E35AFF4F12968C910C94DD
:10100000E932882309F487C00E94702481C08823B4
:1010100009F481C081E00E948C127AC0882309F40F
:101020007AC00E948F1281E00E948C124DEC60E029
:101030002FC0882309F46FC00E948F1281E00E94A4
:101040008C124BEB66E68CE290E060C0882309F4DA
:1010500062C00E948F1281E00E948C124FEF6FEFEE
:1010600086E290E053C0882309F455C00E948F1295
:1010700081E00E948C124FEF6FEF0AC0882309F4C1
:101080004AC00E948F1281E00E948C1249E867ECEE
:1010900080E090E03BC08823F1F10E948F1281E054
:1010A0000E948C124FEF6FEF84E291E02FC08823F3
:1010B00091F10E948F1281E00E948C1240E86FEF44
:1010C0008CE291E023C0882331F10E948F1281E0ED
:1010D0000E948C1240E86FEF88E790E017C08823E9
:1010E000D1F00E948F1281E00E948C124FEF6DEDC3
:1010F00088EB90E00BC0882371F00E948F1281E092
:101100000E948C124FEF6FEF80EF90E00E9422124E
:1011100080E0089581E00895CF92DF92EF92FF92F0
:101120006B017C010E94B22356985E9825982D98F9
:1011300026982E9827982F98482F50E0FA0131973B
:10114000E730F105E0F4E759FF4F0C94E932259AB6
:101150002D9A50C0269A2E9A57C0279A2F9A5EC071
:10116000259A2D9A269A2E9A63C0259A2D9A04C004
:10117000259A2D9A269A2E9A279A2F9A64C0823001
:1011800009F442C028F4882351F0813099F15BC002
:10119000833009F443C0843009F44AC054C00E942B
:1011A0000E106093540370935503809356039093ED
:1011B000570360FF1CC00E948F12809154038695D4
:1011C0008F730E948C1280915403881F8827881F78
:1011D00090915503292F220F97FB992790F9409161
:1011E000570360915603822B0E9422122CC00E944A
:1011F000D51229C00E94CC1281E00E9498124FEFB4
:101200006FEF8CE890E01DC00E94CC1281E00E943C
:1012100098124FEF6FEF84E290E013C00E94CC125F
:1012200081E00E9498124FEF6FEF80E090E009C0DC
:101230000E94CC1281E00E9498124EEE6CEE88EB78
:1012400090E00E942512C701B601FF90EF90DF9059
:10125000CF90089581E008950C94F307CF93282F41
:1012600030E0F901E55BFA4FC491F901E553FA4F1B
:101270002491222359F081EE0E9499188C2F0E940C
:1012800099188C2F0E94B71981EE04C08C2F0E94F0
:1012900099188C2FCF910C94B7190F931F93CF935C
:1012A000DF93EC01062FFE018491882359F19E0102
:1012B0002F5F3F4F813041F4E901F9011491812FF3
:1012C0000E949918812F0DC0823031F4E901F90193
:1012D00084910E9499180AC0833031F4E901F90120
:1012E00084910E94B71902C00E942E092196802F76
:1012F0008823C9F2EFE9FFE03197F1F700C0000061
:101300008150F6CFDF91CF911F910F91089560E04A
:101310000C944D090E940224811102C00E94702485
:101320000E94EA0E0C9455070C940405282F2F7088
:1013300041F0822F90E02A3010F44D9608950697E0
:10134000089587E290E0089508950C94A4090C9400
:10135000A50908950E94401D0E94A9092FEF84E36A
:101360009CE0215080409040E1F700C000000C94C8
:10137000E025FF920F931F93CF93DF938C01FC0125
:10138000C081D18180918502811113C0828188231F
:1013900049F0CE010E947F22F82E682FCE010E94D4
:1013A000222204C0CE010E945222F82EBE018F2DAF
:1013B00004C0CE010E947F22BE010E94540CEC01A9
:1013C000B8010E942C09882309F466C2B801CE0135
:1013D0000E94650F882309F45FC2CC3CFCE5DF075F
:1013E00041F4F8018281882309F456C20E945C10FE
:1013F00053C2CD3C2CE5D20708F01EC1C43C8CE59D
:10140000D80761F4F8018281882309F445C20E945B
:10141000FF228272E1F40E9489123EC2C53C9CE523
:10142000D90708F0C7C0C531ECE5DE0798F0C23C2B
:101430009CE5D90709F48CC008F492C0F8018281B8
:10144000882309F429C20E94FF22827221F70E9498
:101450007B1222C2C230FCE5DF0708F452C0F8015B
:101460008281882309F459C00E940224811102C09C
:101470000E9470240E94152490E09093A003809312
:101480009F03FE01E350FC45E231F10530F4E059E1
:10149000FF4F80919F030C94E93280919F038160FC
:1014A00027C0826025C0846023C0806121C0806223
:1014B0001FC080641DC080681BC08460886018C025
:1014C0008E7F16C08D7F14C08B7F12C08F7E10C0A0
:1014D0008F7D0EC08F7B0CC08F770AC08B7F877F7C
:1014E00007C087FB222720F991E0922790FB87F91C
:1014F00080939F0380919F030E9419240E94401DA6
:10150000CBC1C1152CE5D20781F0C130DC45A9F073
:1015100081E08093410280934202C801DF91CF9124
:101520001F910F91FF900C942A09F8018281882362
:1015300009F4B2C10E94AA09AFC1F80182818823CF
:1015400009F4AAC180912403816080932403A4C17B
:10155000F8018281882309F49FC10E94ED129CC189
:10156000C631DC45A9F60E94FF22282FF8018281AE
:1015700040910F0150911001882379F02A7A91E06F
:1015800009F490E090933C02911102C069E201C01D
:1015900065E3CA010E94D7240AC080913C028111F0
:1015A00002C069E201C065E3CA010E94E2240E9410
:1015B0004E2372C1F8018281C83CFCE5DF0731F49B
:1015C000882309F469C10E94DF1166C1C93C2CE57A
:1015D000D207C8F4C63C9CE5D90731F4882309F446
:1015E0005BC10E94B11158C1C73CDC4530F488236F
:1015F00009F452C10E948D114FC1882309F44CC1D6
:101600000E94C81149C1CA3CFCE5DF0731F48823B8
:1016100009F442C10E941F123FC1CB3CDC4530F4AB
:10162000882309F439C10E94FF1136C1882309F4C7
:1016300033C10E94471030C1C43D8CE5D80791F4F6
:10164000F8018281882309F427C10E943E10893164
:1016500028F00E943E10823208F4F9CE89E10E94FF
:101660008C121AC1C53D9CE5D90708F068C0F80185
:101670008281C03DFCE5DF0771F4882309F40CC1C9
:101680000E943E10893028F00E943E108E3008F4EF
:10169000DECE89E0E4CFC13D2CE5D20740F5CE3C5B
:1016A0009CE5D90771F4882309F4F6C00E943E1026
:1016B000823028F00E943E10853008F4C8CE82E0C7
:1016C000CECFCF3CDC4528F4882309F4E5C081E087
:1016D000C6CF882309F4E0C00E943E10863028F06F
:1016E0000E943E10883008F4B2CE86E0B8CFC23DEA
:1016F000FCE5DF0771F4882309F4CEC00E943E1098
:10170000853128F00E943E10873108F4A0CE85E193
:10171000A6CFC33DDC4570F4882309F4BDC00E9408
:101720003E108F3028F00E943E10843108F48FCE96
:101730008FE095CF882309F4AFC088E190CFC83DF2
:101740008CE5D80759F5F8018281882361F0109261
:1017500042020E9484259093400280933F0280E2DF
:101760000E94271A99C080914202882321F080E2CA
:101770000E942E1A91C080913F02909140020E94D7
:1017800090258E30914098F780E20E942E1A88E2D0
:101790000E94991888E20E94B7197EC0C93D9CE555
:1017A000D90708F058C0F8018281C63DFCE5DF0783
:1017B00051F5882351F0109241020E9484259093A4
:1017C0003E0280933D0282E0CBCF0E94FF2285FF44
:1017D00005C081E0809341028093420280914102E2
:1017E00081110FC080913D0290913E020E94902590
:1017F0008E30914030F486E20E94991886E20E9471
:10180000B71982E0B5CFC73DDC4528F4882309F439
:1018100043C083E224CF81119ACF0E94FF2281FF2F
:1018200005C081E080934102809342028091420290
:1018300081119DCF80913F02909140020E9490259E
:101840008E30914008F093CF87E20E94991887E28A
:101850000E94B7198CCFCC3D8CE5D80741F4F80134
:1018600082818823C9F082E00E94AF2A15C0CD3D55
:101870009CE5D90739F4F8018281882369F00E9438
:1018800070240AC0CB3DDC4509F042CEF8018281CC
:10189000882311F080E0E8CF80E0DF91CF911F91A5
:1018A0000F91FF900895089596E0799FF00111241B
:1018B00094E5899FE00DF11D1124E60FF11DEE0F57
:1018C000FF1FED5FFD4F859194910895880F991F3B
:1018D000FC01E150FE4F859194910895CF93DF93E1
:1018E0000E94540C0E94330EEC01811520E59207F2
:1018F000F0F5811530E4930708F029C1883E910581
:1019000000F5803E910508F0AAC1883A910570F46F
:10191000853A910508F0A4C08130910509F49FC172
:1019200008F450C1049708F09AC14CC18F3B91054F
:1019300008F4A1C0803C910508F444C1805C910981
:10194000F9C0811540E2940758F4C11581E0D80729
:1019500008F085C1C03FD10508F434C1D0657FC10E
:10196000811520E3920708F0E9C09F70E3C081155C
:1019700035E5930708F044C0811544E5940708F065
:10198000FDC0C11582E5D80708F5C11521E5D207CC
:1019900008F0E0C08C2F837021E030E002C0220FFD
:1019A000331F8A95E2F73C68CE0174E096958795DF
:1019B0007A95E1F78370382BCF70C695C69540E2D3
:1019C000C49FE0011124C22BD32B49C12C2F269593
:1019D0002695CE0183709927C115D34508F0BFC065
:1019E00040E2249F90011124C1E0D0E002C0CC0F5E
:1019F000DD1F8A95E2F72C2B3D2BE901DC682FC116
:101A000081154AE59407A0F4C11589E5D80708F0C7
:101A1000C4C0C11526E5D20708F4B5C0C11538E524
:101A2000D30708F4CFC0DC2FCC27C06FD06A17C112
:101A300081159B4508F4C6C0C1158CE5D80708F48C
:101A4000BEC0CE0190568115904208F0BBC08D2FCC
:101A50008F710E94B00EDD27D0628F71D82BFFC02E
:101A6000853A910509F4B1C0863A910509F0B0C0F4
:101A7000C2E8D0E4F4C0883A910509F4ACC0893AD0
:101A8000910509F4ABC08A3A910509F4AAC08B3AD2
:101A9000910509F4A9C08C3A910509F4A8C08B3BC3
:101AA000910509F4A7C08C3B910509F4A6C08D3AB5
:101AB000910509F4A5C0803B910509F4A4C08E3AB4
:101AC000910509F4A3C08F3A910509F4A2C0813BA6
:101AD000910509F4A1C0823B910509F4A0C0833BA4
:101AE000910509F49FC0843B910509F49EC0853B94
:101AF000910509F49DC0863B910509F49CC0873B84
:101B0000910509F49BC0883B910509F49AC0893B73
:101B1000910509F499C08D3B910509F498C08E3B5D
:101B2000910509F497C08A3B910509F496C0C0E07D
:101B3000D4E495C00E94660CEC0191C09927D3FFB4
:101B400003C0EC01D86C8BC0EC01D06C88C0DF7096
:101B5000D06A85C0DC2FCC27C16FD06A80C040E23C
:101B6000249F90011124C1E0D0E002C0CC0FDD1F02
:101B70008A95E2F7C22BD32BDA6871C0D82FCC2715
:101B8000C46FD06A6CC08C2F0E94B00E8F71C82FAA
:101B9000D0E0DC2FCC27D06262C08C2F8F700E94E7
:101BA000B00E94E0D695C7959A95E1F7CF70D0E046
:101BB000DC2FCC27D06A8F70806EC82B50C0DD27F9
:101BC000D0664DC0C0E0D0E04AC0C1E8D0E447C014
:101BD000C3E8D0E444C0C2EED4E441C0C9EED4E4CA
:101BE0003EC0CAEED4E43BC0C5EBD4E438C0C6EB7B
:101BF000D4E435C0C3EBD4E432C0C4EBD4E42FC08A
:101C0000C7EBD4E42CC0CCECD4E429C0CDECD4E4B4
:101C100026C0C3E8D5E423C0CAE8D5E420C0C2E9A1
:101C2000D5E41DC0C4E9D5E41AC0C1E2D6E417C0AA
:101C3000C3E2D6E414C0C4E2D6E411C0C5E2D6E4DF
:101C40000EC0C6E2D6E40BC0C7E2D6E408C0CFE6B9
:101C5000D4E405C0C0E7D4E402C0CAE2D6E4CE01B1
:101C6000DF91CF9108958238910549F1B0F4813325
:101C7000910509F458C048F48932910509F44EC021
:101C80008A32910509F454C008958533910509F409
:101C900040C08933910599F00895833E910529F15B
:101CA00038F4803E910591F0823E9105A1F00895AF
:101CB000863E9105F9F0873E910531F10895209116
:101CC0009F0320FD3AC021FD38C0089580919F03F5
:101CD00080FD35C032C080919F0382FF32C0809169
:101CE0009F0384FD30C083EE39C080919F0382FD45
:101CF00028C0F5CF80919F0383FF27C080919F0369
:101D000084FD21C087EE2AC080919F0383FD1DC002
:101D1000F5CF80919F0385FD1AC01BC080919F0362
:101D200085FD17C014C080919F0386FD14C015C0A7
:101D300080919F0386FD11C00EC080EE0FC089E325
:101D40000DC082EE0BC080E009C086EE07C089E2BC
:101D500005C085E303C08AE201C081E390E00895F5
:101D600090919F0392FF0DC0282F2871283019F4FD
:101D7000877F846006C0282F2471243011F48B7F64
:101D8000886093FF0DC0282F2871283119F4877EB1
:101D9000846106C0282F2471243111F48B7E886160
:101DA00094FD877E0895CF93DF93813020E89207DA
:101DB00068F0FB012281222349F0EC010E94000F10
:101DC000CE019F770E94480F0E94350F81E0DF917E
:101DD000CF9108958CE090E00E94FC3290E0A0E06A
:101DE000B0E08093590390935A03A0935B03B093A0
:101DF0005C030895609159038CE090E00C941033DB
:101E00000E94FF22809343020E9412238091590373
:101E1000813071F048F08230D9F08430F9F486EEE8
:101E20000E941F1A88E118C082EE0E94991816C0FD
:101E300080EE0E94991881EE0E94991888E10E9414
:101E40001F1A81EE0E94B71980EE0E94B71906C0D2
:101E500082EE0E94991887E50E941F1A8FE39CE981
:101E60000197F1F700C00000089580915903813077
:101E700021F038F0823029F007C08CE20E941F1A4E
:101E800003C082EE0E94B719809143020C940F2385
:101E90000F931F93CF93DF938C01CCE0D0E0C80168
:101EA0000C2E02C0969587950A94E2F78F700E94D7
:101EB00096090E941F1A2497CC3F8FEFD80779F715
:101EC000DF91CF911F910F9108950F931F93CF939F
:101ED000DF93EC018B01FB018281882319F1C23E63
:101EE000FCE5DF07C1F050F4C03EECE5DE0781F011
:101EF000C13EFCE5DF07B1F481E010C0C33E8CE5D4
:101F0000D80759F0C43EECE5DE0761F484E006C072
:101F10001092590305C082E001C083E08093590309
:101F20000E94FA0EB801CE01DF91CF911F910F915F
:101F30000C94D30EEF92FF920F931F93CF93DF93E6
:101F4000E901662309F44BC0242F30E0EFEFF0E005
:101F5000E61BF109B901E69F9001E79F300DF69F5E
:101F6000300D1124232F8B01031B11095CE3E52E97
:101F7000F12CB7010E94C132FB01BC01069FC001D8
:101F8000079F900D169F900D1124B7010E94C1323A
:101F9000E230F105B1F040F4309779F0319711F566
:101FA000832F242F461B21C0E430F105A1F068F0F7
:101FB0003597C1F4842F861B18C0832F262F230F3B
:101FC00014C0862F830FE42F03C0E42FE61B842F59
:101FD000432F2E2F0AC0842F462F430F06C0842F75
:101FE000242F03C080E020E040E0E42FF0E0E95936
:101FF000F94F4491E22FF0E0E959F94F9491E82F1D
:10200000F0E0E959F94FE49149839883EA83DF913D
:10201000CF911F910F91FF90EF90089588E090E08D
:102020000C940433CF92DF92EF92FF926B017C010C
:102030000E940E106C157D058E059F0551F0B701AD
:10204000A60188E090E0FF90EF90DF90CF900C9495
:102050002233FF90EF90DF90CF900895E4E5F3E016
:1020600083E08083109255038FEF828383831482F1
:1020700060817181828193810C941210809154034C
:1020800080FF03C086958F73089580E00895809146
:10209000580390E001968430910514F083E090E0BD
:1020A00080935803609154037091550380915603B7
:1020B000909157030C9412108091580390E001976F
:1020C00097FF02C080E090E08430910514F083E037
:1020D00090E0809358036091540370915503809170
:1020E0005603909157030C9412108091540380FF73
:1020F00006C06FE070E08DE593E00C94A91680E0D7
:1021000090E0FC01E35AFC4F118210821282049687
:102110008C339105B1F7EDCF9091540390FF0FC030
:1021200020E030E0F901E35AFC4F81836083428371
:102130002C5F3F4F2C333105A9F70C94751008958F
:10214000CF93DF9300D000D0CDB7DEB720915403FA
:1021500020FF0AC09E012F5F3F4F0E949A0F4B81C4
:1021600069818A810E948C100F900F900F900F90C0
:10217000DF91CF9108955F926F927F928F929F929D
:10218000AF92BF92CF92DF92EF92FF920F931F9385
:10219000CF93DF9300D000D0CDB7DEB78C01E62E11
:1021A000F42E522E8091540380FF89C0982F9E7781
:1021B000923061F49E012F5F3F4FC8010E949A0F39
:1021C0004B8169818A810E948C1059C0E82FE69565
:1021D000EF739EE39E0F9F73943018F4F0905703B3
:1021E0004EC09AE39E0F9F73993068F4881F88272A
:1021F000881F90915503292F220F022F082B97FB40
:10220000112710F93CC087E28E0F8F738A30B8F522
:10221000F0E07997E0FD02C021E001C02FEFEE7FF2
:10222000E35AF94F859194916FE070E00E94C132BA
:1022300026034001279F900C1124580188E9A81A11
:102240008EEFB80A8DE5C82E83E0D82E98E6692E69
:1022500077247394C501B3010E94C13296014F2DBA
:102260006E2D0E949A0FA80CB91C84E0C80ED11CD8
:1022700089E9C81683E0D80669F70E947510809135
:10228000540300FB87F980935403902F9695809117
:1022900055038078892B10FB87F980935503E092D2
:1022A0005603F0925703552051F0609154037091FA
:1022B000550380915603909157030E9412100F907E
:1022C0000F900F900F90DF91CF911F910F91FF9082
:1022D000EF90DF90CF90BF90AF909F908F907F90C6
:1022E0006F905F900895282FE4E5F3E09081991FA7
:1022F0009927991F30915503832F880F482F492B19
:1023000037FB552750F9CA010C9668E671E00E9428
:10231000D532438162810C94BB1081E00C9473111F
:10232000282F90915403991F9927991F3091550395
:10233000832F880F482F492B37FB552750F9CA01A7
:102340004C3051051CF4845A9E4F01C00C9768E62E
:1023500071E00E94D53240915703609156030C946E
:10236000BB1081E00C949011E4E5F3E03081331F61
:102370003327331F90915503592F550F97FB9927FA
:1023800090F9282F43816FEF852F832B0C94BB107E
:1023900081E00C94B411E4E5F3E03081331F33277E
:1023A000331F90915503592F550F97FB992790F99B
:1023B000282F438160E0852F832B0C94BB1081E094
:1023C0000C94CB1140915703242F30E0243F31056A
:1023D00014F4445F01C04FEF30915403331F33278F
:1023E000331F90915503592F550F97FB992790F95B
:1023F000282F60915603852F832B0C94BB1081E00E
:102400000C94E21140915703242F30E02C30310519
:1024100014F04C5001C040E030915403331F332777
:10242000331F90915503592F550F97FB992790F91A
:10243000282F60915603852F832B0C94BB1081E0CD
:102440000C94021221E00C94BB1020E00C94BB1001
:10245000CF939091540390FF40C09178811102C0B6
:10246000926007C0853210F0986403C08F73880FA4
:10247000982B90935403662351F06091540370910C
:10248000550380915603909157030E941210C091FA
:1024900054036C2F66956F7370E04BE050E084E05E
:1024A00091E00E94EF32892B19F01092610203C073
:1024B00081E080936102CC1FCC27CC1F9091550303
:1024C000892F880F97FB992790F9409157036091C6
:1024D00056038C2BCF910C942512CF910895682F21
:1024E0009091540396959F7381E0890F853208F08F
:1024F00081E00C94281281E00C946F12682F909167
:10250000540396959F738FEF890F09F484E20C941E
:10251000281281E00C947E1261E00C942812E4E50C
:10252000F3E080818160808386958F730C948C1298
:1025300060E00C942812809124038160809324032E
:102540000E940224811104C00E9470240E942E1057
:102550000E940E10609354037093550380935603AA
:10256000909357036E7761F40E942E100E940E1014
:1025700060935403709355038093560390935703CD
:1025800081E0809361028091540380FF04C08695AE
:102590008F730C9498120895E4E5F3E080818160D4
:1025A000808386958F730C949812E4E5F3E0808124
:1025B0008E7F808360817181828193810E9412105D
:1025C000109261022FEF80E792E02150804090400E
:1025D000E1F700C000000C9475108091540380FD59
:1025E0000C94D5120C948F12CF93C82F80915F0258
:1025F000909160020E949025EC2FF0E0E75AF94F8D
:10260000E491F0E08E179F0708F443C00E948425F0
:102610009093600280935F0260915E0270E080E0C0
:1026200090E00E94C23020E030E04FE753E40E9487
:10263000E52F2BED3FE049E450E40E94EB310E948E
:1026400058320E945F302BE43AE34EE25FE30E948F
:10265000782F20EF3BEF48ED52E40E94EB310E94CF
:102660009130462F80915403881F8827881F9091AE
:102670005503292F220F97FB992790F96091560354
:10268000822B0E94A01080915E0290E001968093C0
:102690005E02CF910895CF93C82F80915C029091F4
:1026A0005D020E949025EC2FF0E0EA5AF94FE49188
:1026B000F0E08E179F07E8F00E94842590935D025A
:1026C00080935C02409157036091560380915A02B7
:1026D00090915B020E94A01080915A0290915B023F
:1026E000019668E671E00E94C13290935B0280938C
:1026F0005A02CF910895CF92DF92FF920F931F93CA
:10270000CF93DF93F82E80915802909159020E9446
:102710009025EF2DE695F0E0ED5AF94FE491F0E0C9
:102720008E179F07E8F10E948425909359028093A9
:1027300058020DE513E0C0E0D0E088E6C82EDD24A5
:10274000D39480915602909157028C0F9D1FB60131
:102750000E94C132980140915703609156030E9434
:102760009A0F68960C5F1F4FC83681E0D80749F76B
:102770000E9475102091560230915702F0FE0AC057
:10278000C9010196BE010E94C13290935702809305
:10279000560206C021503109309357022093560249
:1027A000DF91CF911F910F91FF90DF90CF9008950F
:1027B000AF92BF92CF92DF92EF92FF920F931F934F
:1027C000CF93DF93C82F80FF02C01FEF01C011E03D
:1027D00080915402909155020E949025C695EC2F4D
:1027E000F0E0E05BF94FE491F0E08E179F0708F40A
:1027F00066C00E94842590935502809354022DE573
:10280000C22E23E0D22E3FE5E32E33E0F32EC0E0CC
:10281000D0E0F70131971082F6011082F7011082A3
:1028200094E0A92EB12C00E080915302800F87FD27
:10283000815F082E000C990BC817D907E9F4809125
:1028400057038A9DA0018B9D500D112455954795E6
:102850005595479580915403881F8827881F90912C
:102860005503592F550F97FB992790F996016091C1
:102870005603852B0E949A0F010FF1E0AF1AB108A1
:1028800099F6219684E0C80ED11CE4E0EE0EF11C0E
:10289000CF30D10509F0BDCF0E9475108091530251
:1028A000113031F4811102C08EE007C0815005C0A3
:1028B00090E00196BE010E94D53280935302DF91D1
:1028C000CF911F910F91FF90EF90DF90CF90BF902D
:1028D000AF9008950F931F93CF93DF93C82F8091EC
:1028E0005102909152020E949025EC2FF0E0E35BA0
:1028F000F94FE491F0E08E179F0708F464C00E943E
:102900008425909352028093510280E090E0FC0174
:10291000E35AFC4F11821082128204968C33910587
:10292000B1F7C0E0D0E00FE010E0CE01B8010E94A6
:10293000D532FC0180915002082E000C990BEE0F4D
:10294000FF1FEE0FFF1FC817D907FCF0809103018E
:10295000082E000C990B8C179D07BCF09F01235A81
:102960003C4F80915403881F8827881F90915503FE
:10297000592F550F97FB992790F940915703609174
:102980005603852B0E949A0F05C0E35AFC4F118213
:10299000108212822196CF30D10539F60E9475102F
:1029A0008091020190915002980F909350022091D3
:1029B0000301280F20930301121614F49E301CF01B
:1029C000819580930201DF91CF911F910F9108951E
:1029D000EF92FF920F931F93CF93DF9380914E025C
:1029E00090914F020E949025883E9340D0F10E9422
:1029F000842590934F0280934E02C0914C02D09157
:102A00004D022196C170DD27D0934D02C0934C0238
:102A10008DE5E82E83E0F82E10E008E7812F8695FB
:102A2000FE01E80FF11DCF018170992797014091B8
:102A3000570360915603FC010E9FC0010F9F900D3C
:102A400011240E949A0F1F5FF4E0EF0EF11C1F305B
:102A500029F7DF91CF911F910F91FF90EF900C9488
:102A60007510DF91CF911F910F91FF90EF90089516
:102A7000CF93DF9300D000D0CDB7DEB780914A026C
:102A800090914B020E949025EBE4F6E02591349161
:102A900082179307C0F18091490281110CC09E01F9
:102AA0002F5F3F4F4FEF6FEF80E090E00E949A0F53
:102AB0008A81809349020E94842590934B028093DF
:102AC0004A0280914802813051F028F0823061F44E
:102AD000409149020AC08091490240E007C06091DC
:102AE000490240E080E003C040E080E060E00E94F6
:102AF0008C108091480290E0019663E070E00E94A3
:102B0000D532809348020F900F900F900F90DF9175
:102B1000CF9108950F931F93CF93DF938091460237
:102B2000909147020E949025843F914008F448C04C
:102B30000E9484259093470280934602CDE5D3E01E
:102B400000E010E02091440230914502809154034E
:102B500090915503073011051CF4232B79F002C026
:102B6000232B61F4881F8827881F592F550F97FB47
:102B7000992790F99E01409157030AC0881F882722
:102B8000881F592F550F97FB992790F99E0140E018
:102B900060915603852B0E949A0F0F5F1F4F24965A
:102BA0000F30110579F60E947510809144029091C2
:102BB00045020196817099279093450280934402C3
:102BC000DF91CF911F910F91089580916102882329
:102BD000D9F190915403892F86958F732EE3280F96
:102BE0002F73243018F482500C94F4122AE3280F27
:102BF0002F73233018F486500C944B1327E3280FBF
:102C00002F73263018F489500C947B1321E3280F7E
:102C10002F73263018F48F500C94D8132BE2280F02
:102C20002F73233018F485510C946A14892F8E77F2
:102C3000803311F40C94E814863411F40C94381594
:102C4000883411F40C948A150895882319F051984A
:102C5000599A02C0519A59985098589A95E09A9565
:102C6000F1F70000509A589895E09A95F1F7000016
:102C7000882311F0519A599885E08A95F1F7000060
:102C800008958BB18C7F8BB95098589A5198599A66
:102C900085E08A95F1F7000008958AB18C7F8AB9A2
:102CA00085E08A95F1F70000519A599885E08A9558
:102CB000F1F70000509A589885E08A95F1F70000E6
:102CC00008955098589A85E08A95F1F70000519838
:102CD000599A85E08A95F1F700000895CF93DF9324
:102CE000D82FC8E08D2F80780E942516DD0FC150A7
:102CF000C9F780E00E94251685E08A95F1F700006B
:102D000085E08A95F1F7000080E0DF91CF9108958A
:102D10002BB1342F309523233BB1432B3FB7F8948D
:102D2000FC01680F791FE617F70789F0819198E099
:102D30004BB9000000C087FF2BB9880F000000C00E
:102D400000C000C02BB900C09A9591F7ECCF3FBFEF
:102D50000895AF92BF92CF92DF92EF92FF920F93BE
:102D60001F93CF93DF938C01EB01CFB6D090BC00C3
:102D7000F8948091BC008B7F8093BC000E94411628
:102D80000E944D1684E80E946E16CC0FDD1FCC0FFA
:102D9000DD1F78015801AC0EBD1EEA14FB0431F0B2
:102DA000F70181917F010E946E16F7CF0E94611694
:102DB000CFBED092BC00579A40E8BE01C801DF9157
:102DC000CF911F910F91FF90EF90DF90CF90BF9028
:102DD000AF900C94881690936702809366020895D2
:102DE000E0916602F0916702309721F00190F08146
:102DF000E02D099480E00895E0916602F091670269
:102E0000309799F020912001222359F020919F03BF
:102E100027FF07C0DC012C9111962C93119725E018
:102E20002C930280F381E02D09940895E0916602CD
:102E3000F0916702309739F022E0DC012C93048096
:102E4000F581E02D09940895209164023091650286
:102E50008217930771F09093650280936402E0916A
:102E60006602F0916702309721F00680F781E02D2D
:102E700009940895209162023091630282179307AA
:102E800071F09093630280936202E0916602F09188
:102E90006702309721F00084F185E02D09940895B0
:102EA00085B7806885BF85B7806885BF0895089518
:102EB0000E9450170C94571781E008950E947B25BB
:102EC0000E9406050E9412260C949B12CF92DF925C
:102ED000EF92FF920F931F93CF93DF93CDB7DEB79F
:102EE0002B970FB6F894DEBF0FBECDBF0E94D8055A
:102EF0000E945C17811111C08FEF89838A831B8226
:102F00000E9484258160782F9D838C8349815A811A
:102F10006B818D810E944A1856C089E6C82E82E0D6
:102F2000D82E00E010E0E02E802F0E942006F6014F
:102F300041916F01F42EF82631F40F5F1F4F0E30D0
:102F4000110589F7D9CF9091240391FF04C08B8795
:102F50000E9426068B8520E030E04F2D50E0922F16
:102F6000BA01022E02C0759567950A94E2F760FFD8
:102F700024C02E83EF8221E030E0690102C0CC0C36
:102F8000DD1C9A95E2F790E08C219D21892B09F4B4
:102F900020E028870E9484258160782F9A8789877E
:102FA0004E815F8168858A850E944A18F801E75939
:102FB000FD4F8081C826C08206C02F5F3F4F26305C
:102FC000310569F6BACF0E94A527109168020E94C8
:102FD000F0161817A1F00E94F016809368022B9645
:102FE0000FB6F894DEBF0FBECDBFDF91CF911F911A
:102FF0000F91FF90EF90DF90CF900C94A7092B9644
:103000000FB6F894DEBF0FBECDBFDF91CF911F91F9
:103010000F91FF90EF90DF90CF900895DC01119613
:103020002C9111978C91682F70E041E050E001C025
:10303000440F8A95EAF712968C91129730E0882314
:1030400029F0809187028823E9F006C0F901E95848
:10305000FD4F90819423B1F086E0829FF001839F21
:10306000F00D1124E60FF71FEE0FFF1FEF5DFE4F6F
:10307000808191818D939C93F901E958FD4F808166
:10308000482B06C0F901E958FD4F4095808148233F
:1030900040830895CF93DF93CDB7DEB72B970FB65C
:1030A000F894DEBF0FBECDBF942F4F83252F5887D6
:1030B00069877A878B874A855B85452B21F02F3F6F
:1030C00009F59F3FF9F4DE01119686E0FD011192AA
:1030D0008A95E9F785E0FE01379601900D928A9571
:1030E000E1F749815A816B817C818D819E810E94AB
:1030F000F31F2B960FB6F894DEBF0FBECDBFDF9146
:10310000CF910895CE0107960E940E18DCCFFC01E6
:10311000808191810E94C02292959F70963041F4E7
:103120008091870291E0892780938702909386029D
:103130000895882309F41AC18238C1F40E94F01658
:1031400081FD14C169E380910F01909110010E94EB
:10315000D7240E944E232FEF81EE94E0215080402F
:103160009040E1F700C0000069E319C08338F9F42A
:103170000E94F01680FDFAC063E580910F019091E6
:1031800010010E94D7240E944E232FEF81EE94E07D
:10319000215080409040E1F700C0000063E580913D
:1031A0000F01909110010E94E2240C944E23843868
:1031B000C1F40E94F01682FDD9C067E480910F012E
:1031C000909110010E94D7240E944E232FEF81EE90
:1031D00094E0215080409040E1F700C0000067E497
:1031E000DECF9CEF980F913A40F4682F80910F0149
:1031F000909110010E94D724D8CF90E2980F983078
:1032000050F4877091E001C0990F8A95EAF7892FF1
:103210000E940223CACF9BE5980F933070F4853A41
:1032200029F0863A31F083E890E005C081E890E02B
:1032300002C082E890E00C94241798E5980F97312B
:1032400008F08EC0883A09F445C0893A09F445C0AF
:103250008A3A09F445C08B3A09F445C08C3A09F41E
:1032600045C08B3B09F445C08C3B09F445C08D3A01
:1032700009F445C0803B09F445C08E3A09F445C0C5
:103280008F3A09F445C0813B09F445C0823B09F4FB
:1032900045C0833B09F445C0843B09F445C0853BE8
:1032A00009F445C0863B09F445C0873B09F445C095
:1032B000883B09F445C0893B09F445C08D3B09F4BE
:1032C00045C08E3B09F445C08A3B09F445C080E007
:1032D00090E044C082EE90E041C089EE90E03EC0B4
:1032E0008AEE90E03BC085EB90E038C086EB90E042
:1032F00035C083EB90E032C084EB90E02FC087EBC9
:1033000090E02CC08CEC90E029C08DEC90E026C0C1
:1033100083E891E023C08AE891E020C082E991E04F
:103320001DC084E991E01AC081E292E017C083E2F7
:1033300092E014C084E292E011C085E292E00EC0F7
:1033400086E292E00BC087E292E008C08FE690E050
:1033500005C080E790E002C08AE292E00C943A1740
:10336000803F20F00E94AD260C949A270895882370
:1033700009F464C0823879F40E94F01681FF5EC0BF
:1033800069E380910F01909110010E94D7240E945F
:103390004E2369E310C08338B1F40E94F01680FF19
:1033A0004DC063E580910F01909110010E94D724D8
:1033B0000E944E2363E580910F01909110010E94BD
:1033C000E2240C944E23843879F40E94F01682FF94
:1033D00035C067E480910F01909110010E94D724BD
:1033E0000E944E2367E4E7CF9CEF980F913A10F4C8
:1033F000682FE1CF90E2980F983050F4877091E0F9
:1034000001C0990F8A95EAF7892F0E940823D9CF26
:103410009BE5980F933020F480E090E00C94241703
:1034200098E5980F973120F480E090E00C943A17DB
:10343000803F20F00E9415270C949A270895CF937F
:10344000C82F0E9499188C2FCF910C94B7198823FC
:1034500021F00E9402230C944E230895882321F02A
:103460000E9408230C944E2308954F925F926F920E
:103470007F92BF92CF92DF92EF92FF920F931F93B2
:10348000CF93DF937C01D62FC72FFC0105810295D6
:103490000F70128111110E9422230E94F8228823AA
:1034A00079F0112369F080E28D0F883048F082E0D6
:1034B0000E9499230E94F82291E0B82EB92601C0FB
:1034C000B12CCC2EC2948FE0C822D12CF601EE573D
:1034D000FF4F0C94E9328C2F807FCF70882311F03E
:1034E000C295C07F112399F0CC2309F4CEC180E2AC
:1034F0008D0F883010F0D11104C08C2F0E94022350
:1035000003C08C2F0E9415230E944E23BEC18D2F15
:103510000E94B719CC2309F434C280E28D0F8830A1
:1035200010F0D11104C08C2F0E94082303C08C2FEF
:103530000E941B230E944E2324C28C2F807FCF70B9
:10354000803211F0C295C07FDD2319F0D130C9F06F
:1035500021C0112371F0002341F0013031F40E94A9
:1035600035238C2B0E943B230CC20E9435238C2BCD
:1035700045C1002319F0013009F403C20E9444231D
:1035800017C0112321F0023008F0FBC10DC001115A
:10359000F8C10EC0112351F0002331F0F7018581ED
:1035A00080FF73C18F7085838C2F28C101117EC16C
:1035B0008C2F2AC18C2F86958695837090E000977A
:1035C00019F0019761F0DDC1112321F08D2F9C2F9F
:1035D000937002C080E090E00E942417E2C11123A2
:1035E00021F08D2F9C2F937002C080E090E00E940C
:1035F0003A17D7C11123F9F0D53F51F0D63F71F0FA
:10360000D43FA9F48091990390919A0381600BC0F3
:103610008091990390919A03826005C080919903EB
:1036200090919A03846090939A03809399038D2FCD
:103630000E94AD261EC0D53F51F0D63F71F0D43F59
:10364000A9F48091990390919A038E7F0BC0809189
:10365000990390919A038D7F05C080919903909171
:103660009A038B7F90939A03809399038D2F0E94E6
:1036700015270E949A2795C18C2F837009F050C09E
:1036800011118BC18D2F829586958770880F880FB9
:103690009D2F9F70492E512C612C712C082E04C037
:1036A000440C551C661C771C0A94D2F7D4FF14C036
:1036B0000FE010E020E030E0B901A80104C0440FA1
:1036C000551F661F771F8A95D2F7CB01BA01609507
:1036D00070958095909503C060E070E0CB01C69531
:1036E000C695C370D0E0C230D10561F0C330D105BA
:1036F00081F06429752986299729219771F00E9404
:1037000038214BC164297529862997290E944A21AD
:1037100044C10E943821C301B2010E9426213DC14B
:10372000112319F08C2F817001C08695882309F42C
:1037300034C18D2F829586958770880F880F9D2FB5
:103740009F70492E512C612C712C082E04C0440C02
:10375000551C661C771C0A94D2F7D4FF14C00FE0E6
:1037600010E020E030E0B901A80104C0440F551F6B
:10377000661F771F8A95D2F7CB01BA0160957095C5
:103780008095909503C060E070E0CB01C695C6952A
:10379000C3704C2F50E04230510569F04330510561
:1037A00089F064297529862997294130510571F0DE
:1037B0000E94FD21F2C064297529862997290E945B
:1037C0000F22EBC00E94FD21C301B2010E94EB2138
:1037D000E4C08D2F90E0FC01E05EF109E531F105D8
:1037E00008F04FC0EE56FF4F0C94E932DF708C2F7B
:1037F0008F71112331F00E9484218D2F0E94271A8E
:10380000C0C00E94A5218D2F0E942E1ABAC011237C
:1038100039F00111B6C08C2F8F710E94CA21B1C03E
:10382000023008F0AEC0F7CF112339F08C2F8F7122
:103830000E948421A6C01123C9F38C2F8F710E948E
:10384000A5219FC0112329F08C2F8F710E946F2119
:1038500098C00E946A2195C0112349F0CF718C2F26
:103860000E94842163E08C2F0E9484238AC081E01F
:103870000E949923023008F484C082E00E949923B8
:1038800080C0112331F0002389F28D2F0E949918F6
:1038900078C0002391F2D93349F45FEF67EE73E00B
:1038A000515060407040E1F700C000008D2F0E9431
:1038B000B71967C04C2F4F706D2FC7010E94E607E4
:1038C0000E9497206EC0D23FB1F028F4D03F49F05B
:1038D000D13FF9F028C0D43FB9F058F0D53F71F08E
:1038E00022C0112309F447C09091870281E0892703
:1038F00008C081E01827109387023DC011113BC01A
:1039000081E08093870237C0111135C01092870281
:1039100032C0112329F080918602882329F329C01F
:10392000002311F328C0809186020023C1F0882370
:1039300041F09091870281E089278093870210925D
:1039400086028D2F112319F00E94991814C00E942D
:10395000B71986E0F70111928A95E9F70CC0882320
:1039600051F0111108C09091870281E0892780935E
:103970008702109286024C2F4F706D2FC7010E9454
:10398000530CF8E0CF16D10441F05CF04AE0C41AC1
:10399000D10852E0C516D10420F40E94F0160E940E
:1039A000A709BB20F1F00E94F42280FD1AC0F701A4
:1039B00012820E94EE220E948421C7010E94FF1CF5
:1039C0000E94EE22DF91CF911F910F91FF90EF9017
:1039D000DF90CF90BF907F906F905F904F900C944E
:1039E000A521DF91CF911F910F91FF90EF90DF9074
:1039F000CF90BF907F906F905F904F9008950F93FE
:103A00001F93CF93DF93EC01888199812B813C81B7
:103A1000232BB9F09F3F11F48F3F99F0CE010E9404
:103A2000B909882371F0688179818A810E94CB224B
:103A30008C010E9421220E942321B801CE010E9404
:103A4000351ADF91CF911F910F9108950E94222383
:103A50000E9432230E944E230E9440280E949A27EF
:103A600080E090E00E94241780E090E00C943A17E8
:103A700080910F01909110010E94ED240C94261D5D
:103A80000E9412230C94381DE92FE295EF70F0E0AC
:103A90003297EE30F105B0F4E955FF4F0C94E9325E
:103AA000803F91F018F4803E68F40EC0843F51F4DA
:103AB0000BC0803E48F0813F29F406C093FB882765
:103AC00080F9089580E0089581E008950E94C02261
:103AD0000E94441D0895CF93DF9300D000D01F9221
:103AE000CDB7DEB70F900F900F900F900F90DF9132
:103AF000CF910895CF93DF9300D000D000D0CDB701
:103B0000DEB726960FB6F894DEBF0FBECDBFDF91AD
:103B1000CF9108951F93CF93DF93C091880216E051
:103B200080918902C81799F0D0E01C9FF0011D9F79
:103B3000F00D1124E657FD4F408151816281738160
:103B4000848195810E947A1D2196C770E9CFDF910B
:103B5000CF911F9108954091BA025091BB0260919C
:103B6000BC027091BD028091BE029091BF020C9484
:103B70007A1D8091BF0282958F7009F054C08091A8
:103B8000BC02882309F44FC080918802A091890269
:103B90006091BA027091BB024091BD025091BE0289
:103BA000B6E08A1709F43FC090E041155105C1F114
:103BB0007F3F11F46F3FA1F1B89FF001B99FF00D65
:103BC0001124E657FD4F218172132AC02081621310
:103BD00027C02281211124C0238134812417350775
:103BE00010F421503109241B350B2E303140C0F424
:103BF0002091BF022F7020612093BF0226E0289FF2
:103C0000F001299FF00D1124E157FD4F80818F7045
:103C1000806180838AEB92E00E94FF1C0C948A1DD5
:103C200001968770BECF0895CF92DF92EF92FF92F8
:103C30000F931F93CF93DF93CDB7DEB762970FB685
:103C4000F894DEBF0FBECDBF8C0185E0F801DE0128
:103C50001D9601900D928A95E1F7D8014C9111962D
:103C60005C91119712966C9112971396CD90DC90FF
:103C700014973091BA027091BB028091BD0290916D
:103C8000BE02009709F473C17F3F19F43F3F09F466
:103C90006EC1E090BC02EE2009F4C5C02091BF02C5
:103CA000C816D90650F0F601E81BF90BCF01FF2426
:103CB000F3948E309140C8F009C0809590958C0D9A
:103CC0009D1DFF24F3948E30914078F0F12C207FDD
:103CD00009F0C6C07C2DD98AC88A89890E946B1DCB
:103CE0008AEB92E00E94FF1CB1C0822F807F09F016
:103CF00045C0751313C0341311C061110FC02F706C
:103D000020612093BF020E94AB1D8AEB92E00E94CB
:103D1000FF1C8091BF02F80185832EC0CD2819F1C8
:103D20005F3F11F44F3FF9F0F62E61111CC08091F6
:103D300088022091890236E0821709F45BC090E086
:103D4000389FF001399FF00D1124E657FD4F718126
:103D5000571306C07081471303C07281711103C0ED
:103D600001968770E9CFF62E662309F42CC1809165
:103D7000BF0281608093BF02F12C25C1751309C079
:103D8000341307C0611105C08091BF02F80185831B
:103D9000C8C04D875E878D859E856A8B0E94661D93
:103DA0006A898823E1F16623D1F12091BF02822F35
:103DB00082958F7090E0029774F08091BA02909192
:103DC000BB0298878F831986DB86CA862C87CE0133
:103DD00007960E94FF1C86E0F801AAEBB2E0019072
:103DE0000D928A95E1F70E94B91D0E94AB1DFF2438
:103DF000F394E9C04D875E878D859E850E94C02221
:103E0000292F22952F7030E0223031050CF0CEC0E2
:103E10009F7009F0C8C0805E883008F4D4C0C80123
:103E20000E94FF1CE4CFC816D90608F453C0F6015F
:103E3000E81BF90BCF018E30914008F453C0F12CF0
:103E40007C2DD98AC88A89890E946B1DEAEBF2E031
:103E500086E0DF011D928A95E9F70E94AB1DB3C091
:103E6000751314C0341312C0611110C08091BF02C9
:103E7000F8018583C8010E94FF1C86E0EAEBF2E0AE
:103E8000DF011D928A95E9F7FE2C9DC04D875E8764
:103E90008D859E856A8B0E94661D6A89882309F438
:103EA000BECF662309F4BBCF2091BF02822F82953B
:103EB0008F7090E002970CF48ECF8091BA029091AF
:103EC000BB029A8389831B82DD82CC822E83CE0142
:103ED00001967FCF809590958C0D9D1D8E309140E1
:103EE00008F0ADCFF62E662309F499CF75132EC0D6
:103EF00034132CC02091BF0220FD1FC0822F829559
:103F00008F70D9F0D80115962C9315978F3049F002
:103F10008F5F982F9295907F822F8F70892B1596A7
:103F20008C93C8010E94FF1C86E0F801AAEBB2E066
:103F300001900D928A95E1F790CF86E0F801AAEB07
:103F4000B2E001900D928A95E1F73DC04D875E8702
:103F50008D859E850E94661D81113DCF8091BF0297
:103F600081608093BF02C8010E94FF1C2CC06623A1
:103F700009F455CF4D875E878D859E850E94661D0D
:103F8000F82E882309F44BCF86E0F801AAEBB2E0C3
:103F900001900D928A95E1F78AEB92E00E948718D2
:103FA0000E94B91D5ACF811136CF0DC02430310582
:103FB0000CF035CF9F7009F42ECFD80115969C9147
:103FC000907F09F028CF8F2D62960FB6F894DEBF50
:103FD0000FBECDBFDF91CF911F910F91FF90EF905A
:103FE000DF90CF9008951F93CF93DF93CDB7DEB7C7
:103FF0002C970FB6F894DEBF0FBECDBF4F83588706
:1040000069877A878B879C87CE0107960E94141E4A
:10401000882369F08F8198852A853B85232BF1F1D0
:104020009F3F09F063C08F3F09F060C037C086E052
:10403000FE013796DE01119601900D928A95E1F707
:104040006F817885EA85FB85309741F17F3F11F4D8
:104050006F3F21F12091890230E0C90101968770FC
:1040600099274091880250E08417950709F447C0CA
:1040700069837A83FD83EC8396E0929FD001939FBE
:10408000B00D1124A657BD4FFE01319601900D923F
:104090009A95E1F7809389020E948A1D16E080912B
:1040A0008802909189028917C1F1189FC0011124DB
:1040B00086579D4F0E94141E882379F1E091880253
:1040C0001E9FF0011124E657FD4F4081518162810E
:1040D0007381848195810E947A1D8091880290E08D
:1040E00001968770992780938802D9CF4F81588590
:1040F00069857A858B859C850E947A1DCFCF0E9429
:10410000401D1092890210928802EAEBF2E086E0EC
:10411000DF011D928A95E9F7C1CF2C960FB6F8946E
:10412000DEBF0FBECDBFDF91CF911F910895EF92FB
:10413000FF920F931F93CF93DF938C01892B09F488
:104140006CC0F12CEE24E394E8012196F8018491EF
:10415000843740F4843008F051C0813081F08230DF
:1041600019F15BC0853709F444C0A8F19CE7980FAA
:10417000903708F052C08F770E94B71941C00E5F88
:104180001F4FFE01C49180E28C0F883048F4C77045
:104190008E2D01C0880FCA95EAF70E94252314C00E
:1041A0008C2F0E9499182DC00E5F1F4FFE01C491E5
:1041B00080E28C0F883058F4C7708E2D01C0880FB4
:1041C000CA95EAF70E942B230E944E231AC08C2F17
:1041D0000E94B71916C00E5F1F4FFE01C491CC2379
:1041E00081F08FE99FE00197F1F700C00000C15016
:1041F000F6CF0E5F1F4FFE01F49003C00E94991886
:104200008E018F2D882309F49FCFEFE9FFE03197CE
:10421000F1F700C000008150F5CFDF91CF911F91E1
:104220000F91FF90EF90089508950C9414210E942F
:1042300015216093FB027093FC028093FD02909322
:10424000FE020C94261D08950C9417210F931F93C2
:104250000091FB021091FC022091FD023091FE02C0
:10426000602B712B822B932B1F910F910C94172194
:104270000F931F930091FB021091FC022091FD020D
:104280003091FE0260237123822393231F910F91AB
:104290000C9417210F931F930091FB021091FC02C5
:1042A0002091FD023091FE0260277127822793271B
:1042B0001F910F910C9417210C948C080E945C2183
:1042C0006093F7027093F8028093F9029093FA02D8
:1042D0000C94261D60E070E0CB010C945E210F93DE
:1042E0001F9341E050E060E070E08A019B0104C050
:1042F000000F111F221F331F8A95D2F7C901B80181
:104300001F910F910C945E210F931F9341E050E099
:1043100060E070E004C0440F551F661F771F8A9548
:10432000D2F78091F7029091F802A091F902B09132
:10433000FA028A019B01082B192B2A2B3B2BC9015E
:10434000B8011F910F910C945E210F931F9341E0D0
:1043500050E060E070E004C0440F551F661F771FF7
:104360008A95D2F740955095609570958091F702A7
:104370009091F802A091F902B091FA028A019B0192
:10438000082319232A233B23C901B8011F910F9148
:104390000C945E210F931F9341E050E060E070E0C9
:1043A00004C0440F551F661F771F8A95D2F780916E
:1043B000F7029091F802A091F902B091FA028A01F5
:1043C0009B01082719272A273B27C901B8011F91FC
:1043D0000F910C945E210F931F930091F70210919F
:1043E000F8022091F9023091FA02602B712B822B96
:1043F000932B1F910F910C945E210F931F930091AB
:10440000F7021091F8022091F9023091FA0260232C
:104410007123822393231F910F910C945E210F939C
:104420001F930091F7021091F8022091F902309148
:10443000FA0260277127822793271F910F910C940E
:104440005E210895292F220F920F990F890FA82F0F
:10445000A695A695A695877051E001C0550F8A953F
:10446000EAF785E0A89FD001112420E030E070E059
:10447000F901EA0FFB1FE054FD4F4081CB01022EF2
:1044800002C0969587950A94E2F7817099278195E5
:1044900084278523842780832F5F3F4F2530310574
:1044A00039F70895292F220F920F990F890F682F3E
:1044B000669566956695982F977085E0689FB00120
:1044C000112440E050E080E0FA01E60FF71FE054CD
:1044D000FD4F208130E0092E02C0369527950A94C1
:1044E000E2F721703327042E01C0220F0A94EAF765
:1044F000822B4F5F5F4F4530510531F70895BF92D2
:10450000CF92DF92EF92FF920F931F93CF93DF939F
:104510008C01C090FB02D090FC02E090FD02F09074
:10452000FE028091F7029091F802A091F902B091F9
:10453000FA02C82AD92AEA2AFB2ACFE1D0E0D70119
:10454000C6010C2E04C0B695A795979587950A9439
:10455000D2F780FF07C0BC2EB8018C2F0E946E0CD2
:10456000019719F4219758F7B12C8B2DDF91CF913A
:104570001F910F91FF90EF90DF90CF90BF90089523
:10458000CF93DF93EC010E947F22BE010E946E0C4C
:10459000DF91CF9108951F93CF93DF93EB0190911B
:1045A0008502992321F0CB010E94C02213C08823E9
:1045B00049F0CB010E947F22182F682FCE010E9464
:1045C000222204C0CB010E945222182FBE01812F4B
:1045D0000E946E0CDF91CF911F9108958091FF0290
:1045E00085958595859508958091FF02877008953A
:1045F0009091FF02977081E009F480E00895809126
:104600002303089590912303892B80932303089516
:1046100080959091230389238093230308958093A9
:104620002303089510922303089590912203892B68
:10463000809322030895809590912203892380938B
:104640002203089510922203089590912103892B4B
:10465000809321030895809590912103892380936D
:104660002103089510922103089580910003089575
:1046700008950C94382390910003981721F08093AB
:1046800000030C943923089580910003882329F0B6
:104690001092000380E00C9439230895E0910F01FB
:1046A000F0911001809123038083E0910F01F0913C
:1046B0001001908180912203892B8083E0910F016A
:1046C000F0911001908180912103892B808380914A
:1046D0000003882381F0E0910F01F0911001908197
:1046E000892B808380910F01909110010E94722488
:1046F00081110E94442380910F01909110010C942C
:10470000FC1608950C94812398E0899F9001112450
:10471000262B2093FF020E9484218091FF02859521
:10472000859585950C9482231092FF0280E00C946D
:1047300082232091FF02809582238093FF02982F8D
:10474000977079F430E0482F082E000C550B241791
:10475000350739F08595859585950E94A5210C949E
:1047600094230895CF92DF92EF92FF926C01EE2492
:10477000FF24C114D104E104F10421F0C701B60102
:1047800020E101C020E0C72ED82EE92EFF24C1145D
:10479000D104E104F10419F0285FC701B6016B01EF
:1047A0007C0154E0F694E794D794C7945A95D1F7D6
:1047B000C114D104E104F10419F02C5FC701B60162
:1047C0006B017C0142E0F694E794D794C7944A9534
:1047D000D1F7C114D104E104F10419F02E5FC7012F
:1047E000B601DC01CB01B695A79597958795892BE6
:1047F0008A2B8B2B09F02F5F822FFF90EF90DF9099
:10480000CF90089580E090E00E940A3321E08D3E31
:104810009E4F09F020E0822F089582E090E00C94F2
:10482000FC3283E090E00C94FC3284E090E00C9445
:10483000FC32682F84E090E00C941033AB01BC0193
:104840008FE090E00C942233AB01BC0183E190E057
:104850000C94223360E070E0CB010C94242460E0DF
:1048600070E0CB010E941E240C942A246DEE7EEF92
:1048700080E090E00E942E3360E082E090E00E94B1
:10488000103360E083E090E00E9410331092FB024E
:104890001092FC021092FD021092FE0260E084E091
:1048A00090E00E94103360E085E090E00E941033B9
:1048B00060E086E090E00E9410336FEF87E090E0C8
:1048C0000E94103340E050E0BA0188E090E00E947E
:1048D000223360E08DE090E00E9410330C942F248E
:1048E0000C943624FC01329680912001882331F00B
:1048F00080919F0387FF02C09EE101C096E080E0A7
:10490000915028F021912223D9F38F5FF9CF089598
:104910009C01FC0132969FEF80E04191461789F09F
:104920009F3F19F4411101C0982F8F5F8630A9F77E
:104930009F3F39F0F901E90FF11D97FDFA95628368
:1049400008950895FC01329608962081261301C02F
:1049500010823196E817F907C1F70895262F26959A
:10496000269526952E3168F4FC01E20FF11D677043
:1049700021E030E001C0220F6A95EAF78281282BFE
:1049800022830895262F2695269526952E3170F49C
:10499000FC01E20FF11D677021E030E001C0220F41
:1049A0006A95EAF720958281282322830895209131
:1049B0002001222329F020919F0327FD0C94AE248F
:1049C0000C94882420912001222329F020919F0318
:1049D00027FD0C94C2240C94A22420912001FC01F8
:1049E0003296222331F080919F0387FF02C08EE12F
:1049F00001C086E0DF011D928A95E9F708950895C8
:104A00000C94FF240E9400258091A503843049F175
:104A10001092250320E488E190E00FB6F894A89561
:104A2000809360000FBE2093600080E00E94A70981
:104A30000E94002583B7817F846083BF83B7816034
:104A400083BF7894889583B78E7F83BF0FB6F89421
:104A5000A89580916000886180936000109260004A
:104A60000FBE08950895CF930E942F050E94D80588
:104A70000E943225C0E08C2F0E942006811104C0C4
:104A8000CF5FCE30C1F701C081E0CF910895089586
:104A90000C9447250E94401D0E94F0160E94A70911
:104AA0000C9448251F920F920FB60F9211248F93EA
:104AB0009F93AF93BF9380912503811113C0809181
:104AC0009B0390919C03A0919D03B0919E034196FE
:104AD000A11DB11D80939B0390939C03A0939D0304
:104AE000B0939E03BF91AF919F918F910F900FBE96
:104AF0000F901F90189582E084BD93E095BD9AEFCA
:104B000097BD80936E0008952FB7F89480919B0312
:104B100090919C03A0919D03B0919E032FBF089597
:104B2000CF92DF92EF92FF920F931F932FB7F894DB
:104B300040919B0350919C0360919D0370919E0353
:104B40002FBF6A017B01EE24FF248C0120E030E0BE
:104B5000C016D106E206F30610F4415051099A013D
:104B6000281B390BC9011F910F91FF90EF90DF9027
:104B7000CF90089578941F920F920FB60F92112440
:104B80008F939F93AF93BF9380919B0390919C03CE
:104B9000A0919D03B0919E030196A11DB11D80932C
:104BA0009B0390939C03A0939D03B0939E03BF919E
:104BB000AF919F918F910F900FBE0F901F901895FE
:104BC000F89481E08093E00080E28093D800E9ECE3
:104BD000F0E010828FE19EE40197F1F700C0000041
:104BE0001DBA109268001CBC10BE1FBA10927A0049
:104BF00010926E0010926F0010927100109272006D
:104C00001082ECEBF0E0108214B817B81AB81DB897
:104C100010BA108215B818B81BB81EB811BA0C9487
:104C2000003F08950E940224811102C00E94702456
:104C30000E940D24809324030E94152490E09093F9
:104C4000A00380939F030E941124682F70E080E0EE
:104C500090E00C9424218091290380FF0BC0609187
:104C6000140185E0689FB0011124759567957595CD
:104C700067952BC081FF09C06091140185E0689F92
:104C8000B00111247595679520C082FF07C060911F
:104C9000140185E0689FB001112417C090912A0388
:104CA0009923D1F060911301961788F72091140190
:104CB00085E0289F90011124929FA001939F500DA1
:104CC000112470E0CA010E94D5326038710540F4A9
:104CD0006115710539F002C065E070E0862F089516
:104CE0008FE7089581E008958091290380FF08C02F
:104CF0006091120170E0759567957595679521C073
:104D000081FF06C06091120170E07595679519C02A
:104D100082FF04C06091120170E010C090912A03DC
:104D20009923C1F0609111019617A0F780911201AB
:104D3000899FC001112470E00E94D532603871054E
:104D400028F46115710521F0862F08958FE70895E5
:104D500081E0089561E070E0F4CF803F21F40E948B
:104D60002B26819504C0813F29F40E942B26809335
:104D70002E030895823F21F40E942B26819504C0C2
:104D8000833F29F40E942B2680932D030895893FA9
:104D900019F40E94742605C08A3F31F40E947426DB
:104DA000819580932F0308958B3F21F40E947426F0
:104DB000819504C08C3F29F40E94742680933003AF
:104DC0000895843F21F480912C03816017C0853FB2
:104DD00021F480912C03826011C0863F21F48091E0
:104DE0002C0384600BC0873F21F480912C038860E2
:104DF00005C0883F31F480912C03806180932C039F
:104E000008958D3F21F48091290381600BC08E3F6E
:104E100021F480912903826005C08F3F29F480919D
:104E200029038460809329030895803F39F4809199
:104E30002E0387FF6CC010922E0369C0813F29F4B6
:104E400080912E031816BCF362C090912D03823F0F
:104E500029F497FF5CC010922D0359C0833F19F4C9
:104E60001916CCF354C0893F41F480912F031816D2
:104E70000CF04DC010922F034AC08A3F29F4809154
:104E80002F0387FF44C0F6CF8B3F39F48091300366
:104E900087FF3DC0109230033AC08C3F29F48091C7
:104EA00030031816BCF333C0843F21F480912C03E7
:104EB0008E7F17C0853F21F480912C038D7F11C018
:104EC000863F21F480912C038B7F0BC0873F21F418
:104ED00080912C03877F05C0883F31F480912C039B
:104EE0008F7E80932C0313C08D3F21F48091290382
:104EF0008E7F0BC08E3F21F4809129038D7F05C0EA
:104F00008F3F29F4809129038B7F8093290380911F
:104F10002D0381110EC080912E0381110AC0809152
:104F20002F03811106C080913003811102C01092BD
:104F30002A0308958BE293E00E9416170E948425AD
:104F4000909327038093260308951F93CF93DF93B5
:104F500080912603909127030E949025AC019091A7
:104F60002A03992321F02091150130E006C02091F9
:104F700028038AE0289F900111244217530708F460
:104F80007BC080912D03C0912E03D0912F031091EF
:104F90003003811107C0C1116BC0D11169C011115B
:104FA00067C06AC09F3F19F09F5F90932A0318164D
:104FB00024F40E942B2680932D0380912D0387FFDC
:104FC00005C00E942B26819580932D031C1624F486
:104FD0000E942B2680932E0380912E0387FF05C00D
:104FE0000E942B26819580932E0330912D0333232D
:104FF000E1F020912E032223C1F045EB3403C001E0
:105000001124892F990F990B009709F481E080935F
:105010002D0335EB2303C0011124892F990F990B20
:10502000009709F481E080932E031D1624F40E945A
:10503000742680932F0380912F0387FF05C00E9461
:105040007426819580932F03111624F40E947426F0
:10505000809330038091300387FF05C00E9474263F
:10506000819580933003DF91CF911F910C949A2703
:105070009F3F09F099CFA1CFDF91CF911F91089564
:10508000EBE2F3E086E0DF011D928A95E9F71092EA
:105090002A031092290308958091510308950F93D4
:1050A0001F93CF93DF9300D01F92CDB7DEB78C0153
:1050B0000E94BF2A823011F0843021F584E0898378
:1050C0001B830A8382E08093E9008FEF9091E800D0
:1050D000815095FD06C095ED9A95F1F7000081117C
:1050E000F5CF8091E80085FF0DC040E050E063E01F
:1050F00070E0CE0101960E94DC2A8091E8008E7754
:105100008093E8000F900F900F90DF91CF911F9147
:105110000F910895CF93DF9300D01F92CDB7DEB7E4
:105120002091A503243031F523E02983805891098B
:105130009B838A8382E08093E9008FEF9091E8005F
:10514000815095FD06C095ED9A95F1F7000081110B
:10515000F5CF8091E80085FF0DC040E050E063E0AE
:1051600070E0CE0101960E94DC2A8091E8008E77E3
:105170008093E8000F900F900F90DF91CF910895EA
:10518000CF93DF93EC010E94BF2A823011F084306C
:10519000F9F482E08093E9009FEF8091E80091505C
:1051A00085FD06C085ED8A95F1F700009111F5CFD8
:1051B0008091E80085FF0CC040E050E066E070E0C0
:1051C000CE010E94DC2A8091E8008E778093E8006F
:1051D000DF91CF910895CF93DF93EC010E94BF2A16
:1051E000823011F08430D9F580912001882339F084
:1051F00080919F0387FF03C060E282E002C068E005
:1052000081E08093E9008FEF9091E800815095FD57
:1052100006C095ED9A95F1F700008111F5CF8091C8
:10522000E80085FF1CC080912001811105C040E08D
:1052300050E068E070E003C070E040E050E0CE0174
:105240000E94DC2A8091E8008E778093E80080E25B
:10525000FE01A1E3B3E001900D928A95E1F7DF91A1
:10526000CF9108958091A403811109C00E94712CEF
:105270000E94CE2C8091E20084608093E200089529
:105280001092A4030895089508950C944A2542E0CD
:1052900061EC81E00E94EB2B42E261EC82E00C9435
:1052A000EB2B8091A703833009F460C030F4813088
:1052B00071F0823009F499C008958A3009F485C0EC
:1052C0008B3009F46BC0893009F0A7C020C08091F1
:1052D000A603813A09F0A1C08091E800877F8093FE
:1052E000E8008091AA039091AB03892B21F460E23E
:1052F00081E393E003C060E080E090E070E00E9412
:10530000272B8091E8008B778093E80008958091A7
:10531000A603813209F081C08091AA039091AB036A
:10532000029708F07AC08091E800877F8093E800B8
:105330008091E80082FD05C08091A5038111F8CF1E
:105340006CC02091F3008091F20090E0922B0297C4
:1053500029F48091F1008B7F813021F48091F1005C
:10536000809351038091E8008B7753C08091A6030E
:10537000813A09F052C08091AA039091AB03892B26
:1053800009F04BC08091E800877F8093E80080910E
:10539000E80080FFFCCF8091200136C08091A603F9
:1053A0008132D9F58091AA039091AB03892BA9F59D
:1053B0008091E800877F8093E8000E94202C8091F4
:1053C000A803809320010C94401D8091A603813294
:1053D00021F58091E800877F8093E8000E94202CCF
:1053E0008091A9038093520308958091A603813A86
:1053F000A1F48091E800877F8093E8008091E80025
:1054000080FFFCCF809152038093F1008091E800EF
:105410008E778093E8000C94202C089584B7877FC2
:1054200084BF0FB6F894A89580916000886180933E
:105430006000109260000FBE80E8809361001092BF
:1054400061000E9458170E94712C0E94CE2C8091FE
:10545000E20084608093E20078940E945D2F0E94B5
:105460005E1786E191E00E94EB168091A5038530DE
:1054700069F40E9402258091A3038823B1F30E945E
:105480003325882391F30E94C62AEFCF0E94661726
:105490000E94E515EACF0C944D2A292F332723309B
:1054A0003105C9F064F42130310581F02230310535
:1054B00009F04CC08BE390E021EA37E04BC0213289
:1054C000310521F12232310589F140C082E190E0BD
:1054D0002CED37E03FC099278130910571F02CF415
:1054E000892BA1F5EDE9F7E00DC08230910541F07F
:1054F000039761F5E7E6F7E005C0E5E8F7E002C0ED
:10550000EDE6F7E0849190E09F0124C061157105FC
:1055100041F061307105D1F489E090E02CEC37E086
:1055200019C089E090E023EB37E014C061157105E4
:1055300041F06130710551F480EC90E02EEE37E0DF
:1055400009C080E490E02EEA38E004C080E090E0FA
:1055500020E030E0FA013183208308950895CF934D
:10556000C82F0E94AE2AC0935303CF910895809113
:10557000A503843011F081E0089582E008958091C0
:105580005303811102C00C94B72A089580E189BDAC
:1055900082E189BD09B400FEFDCF8091D8008F7DE6
:1055A0008093D8008091E00082608093E000809139
:1055B000E00081FDFCCF0895CF92DF92EF92FF9241
:1055C0000F931F93CF93DF93EC018B016A010E942D
:1055D0003F2C811133C0C114D10439F0F601808110
:1055E0009181081B190BC80FD91FE12CF12C011553
:1055F000110519F18091E80085FD16C08091E80041
:105600008E778093E800C114D10449F0F6018081BF
:105610009181E80EF91EF182E08285E00FC00E94C0
:105620003F2C882321F30AC089918093F100015017
:105630001109FFEFEF1AFF0ADACF80E0DF91CF9177
:105640001F910F91FF90EF90DF90CF9008952091E0
:10565000AC033091AD032617370748F0611571058B
:1056600039F42091E8002E772093E80001C0B901B9
:1056700040E061157105A9F12091A503222309F4E9
:1056800043C0253009F442C02091E80023FD40C00A
:105690002091E80022FD32C02091E80020FFE9CFF0
:1056A0004091F3002091F20030E0342BFC01CF0157
:1056B0006115710559F02830310540F481918093CE
:1056C000F100615071092F5F3F4FF1CF41E0283069
:1056D000310509F040E02091E8002E772093E800A2
:1056E000C8CF4111C9CF0AC08091A503882361F0BA
:1056F000853061F08091E80083FD0AC08091E80068
:1057000082FFF2CF80E0089582E0089583E008955B
:1057100081E008952091AC033091AD03261737073F
:1057200048F06115710539F42091E8002E77209337
:10573000E80001C0B901FC0120E06115710591F19B
:105740008091A503882309F440C0853009F43FC047
:105750008091E80083FD3DC08091E80082FD2FC06C
:105760008091E80080FFE9CF2091F3008091F20062
:1057700090E0922B6115710559F08830910540F445
:1057800024912093F1003196615071090196F2CF76
:1057900021E0089709F020E08091E8008E7780935F
:1057A000E800CBCF2111CCCF0AC08091A50388237C
:1057B00061F0853061F08091E80083FD0AC080913E
:1057C000E80082FFF2CF80E0089582E0089583E050
:1057D000089581E00895982F973058F59093E90047
:1057E000981739F07091EC002091ED005091F00085
:1057F00003C0242F762F50E021FF19C03091EB0019
:105800003E7F3093EB003091ED003D7F3093ED0013
:105810003091EB0031603093EB007093EC002093FB
:10582000ED005093F0002091EE0027FF07C09F5F2E
:10583000D3CF8F708093E90081E0089580E00895D0
:105840008091A60387FF11C08091E80082FD05C00A
:105850008091A5038111F8CF11C08091E8008B776A
:105860000BC08091A503882349F08091E80080FF58
:10587000F8CF8091E8008E778093E800089520911A
:10588000E4003091E50095E64091EC00842F8170B2
:1058900040FF22C08091E80080FD1CC08091A503DC
:1058A000882391F0853091F08091EB0085FD10C048
:1058B0004091E4005091E5004217530729F39A0103
:1058C000915011F784E0089582E0089583E00895EF
:1058D00081E0089580E008954091E80042FFDECF26
:1058E00008950E94DF2C0E94E72CE0EEF0E080811A
:1058F00081608083E8EDF0E080818F77808319BC40
:10590000A7EDB0E08C918E7F8C9380818F7E808319
:105910001092A40308950F931F93CF93DF930E94D7
:10592000DF2C0E94E72CC8EDD0E088818F77888338
:1059300088818068888388818F7D888319BC1092D4
:10594000A5031092A1031092A3031092A20300EEEC
:1059500010E0F80180818B7F80838881816088835B
:1059600042E060E080E00E94EB2BE1EEF0E080811D
:105970008E7F8083E2EEF0E0808181608083808191
:1059800088608083F80180818E7F80838881806138
:105990008883DF91CF911F910F910895E8EDF0E09A
:1059A00080818F7E8083E7EDF0E08081816080835D
:1059B00084E082BF81E08093A4030C948B2CE8EDFB
:1059C000F0E080818E7F80831092E2000895109233
:1059D000DA001092E10008951F920F920FB60F9215
:1059E00011242F933F934F935F936F937F938F93E4
:1059F0009F93AF93BF93EF93FF938091E10082FF5A
:105A00000BC08091E20082FF07C08091E1008B7F94
:105A10008093E1000E945C2F8091DA0080FF1FC01C
:105A20008091D80080FF1BC08091DA008E7F809328
:105A3000DA008091D90080FF0DC080E189BD82E14C
:105A400089BD09B400FEFDCF81E08093A5030E94CB
:105A5000322905C019BC1092A5030E9440298091EB
:105A6000E10080FF19C08091E20080FF15C08091A5
:105A7000E2008E7F8093E2008091E200806180935B
:105A8000E2008091D80080628093D80019BC85E044
:105A90008093A5030E9444298091E10084FF30C0D7
:105AA0008091E20084FF2CC080E189BD82E189BD44
:105AB00009B400FEFDCF8091D8008F7D8093D8007F
:105AC0008091E1008F7E8093E1008091E2008F7EE3
:105AD0008093E2008091E20081608093E2008091F7
