:100000000C946B040C9488040C9488040C9488045D
:100010000C9488040C9488040C9488040C94880430
:100020000C9488040C9488040C943B2C0C940D2D97
:100030000C94A1240C9488040C9488040C948804D7
:100040000C9488040C9488040C9488040C94880400
:100050000C9488040C9409250C9488040C9488044E
:100060000C9488040C9488040C9488040C948804E0
:100070000C9488040C9488040C9488040C948804D0
:100080000C9488040C9488040C9488040C948804C0
:100090000C9488040C9488040C9488040C948804B0
:1000A0000C9488040C9488040C948804E004E30401
:1000B000E604E904EC04EF04F2041C081F0822081B
:1000C00025082A082F082D08B509B709C209B9095A
:1000D000BB09BD09BF09C109C409C609C809D309BB
:1000E000CA09CC09CE09D009D209D509CD19CD1933
:1000F000FF19FF19361A561ABF1B1D1C981A1D1C12
:10010000451B451BB61B1D1C1D1C171C521B521BDF
:10011000521B521B521B521B521B521B521B521B77
:10012000521B521B521B521B521B521B631B701B38
:10013000771B7E1B881BA81CA81CBA1CBA1CB11CF0
:10014000BA1CBA1CBA1CA81CA81CB61CBA1CBA1C27
:10015000B61C7A2DA12D932EA12D932EED2D102EB0
:10016000932E662E752E07634236B79BD8A71A3991
:10017000685618AEBAAB558C1D3CB7CC5763BD6DF5
:10018000EDFD753EF6177231BF000000803F05A8F7
:100190004CCDB2D44EB93836A9020C50B9918688EC
:1001A000083CA6AAAA2ABE000000803F6572676FBD
:1001B000646F785F657A2F3339353637623361661D
:1001C0003937623333373137336331204020302EB3
:1001D000362E3237332D31362D6762346534626501
:1001E0002D6469727479000000F0A12E672963E123
:1001F00000E104496A00001E00140004001D6102B1
:100200005843741F001A0016001B0001584C0020B0
:100210000008000700060050002800210015000912
:100220000019004F00E300220017000A000500003B
:10023000004A642B00060100001B010000656F3DB1
:100240000049020000190100003C6F23001C000B54
:1002500000110000004D64240018000D0010005132
:1002600000E70025000C000E00360052002C00268E
:100270000012000F00370034412A0027001300331A
:10028000003871464245742D673163E500E104355D
:100290006A00002E672963E100E104496A00003A20
:1002A000001E0220021D61025843743B001F022100
:1002B00002220210504C003C002F0226022F005058
:1002C0000028003D003002270230004F00E3003ECE
:1002D0000027002302210200004A642B00260000B0
:1002E000002F020000656F3D002402000031020073
:1002F000003C6F3F002E0237002D0000004D64408F
:10030000000901070108015100E70041000501183B
:10031000011C0152002C0042000B0210020F0201CE
:10032000002A00430004012F00387102584574442C
:10033000004500E500E104356A00002E672963E10D
:1003400000E104496A00000100A800AA001D611034
:100350005043740100F500F20001001150F400F662
:1003600000F000F100F6005000FA00B200F400F3D3
:100370000001004F00E300B1000100A900010000EE
:10038000004A642B0003530000F9000000656F3D34
:100390000004530000B50000003C6F4A014A0050C1
:1003A000004A0200004D644E014E0051004E0251C1
:1003B00000E7004B014B0052004B025200B6004DCB
:1003C000014D004F004D021150B700010001000126
:1003D000003871010045742D673163E500E1043593
:1003E0006A00002E672963E100E000E00000001EC3
:1003F00000140004001D00E000E6001F001A0016B3
:10040000001B003D002800200008000700060050E7
:10041000002C0021001500090019004F00E3002204
:100420000017000A0005000000E2002B0001000098
:100430000010500000E2003D0001000000105000DC
:1004400000E20023001C000B0011000000E2002469
:100450000018000D0010005100E70025000C000EF0
:1004600000360052002C00260012000F0037000159
:10047000002A002700130033003800E400E6002DB6
:10048000673163E500E400E40000000100010001C1
:100490000001000100000001000100010001000155
:1004A00000010001000100010001000100C95C0120
:1004B000000100010001005000CA5C0100010001C0
:1004C0000001004F000100010001000100010000D7
:1004D00000C25C01000100000010500000C35C017C
:1004E000000100000010500000E75C010001000165
:1004F0000001000000C25C01000100010001005188
:1005000000010001000100010001005200C55C0172
:10051000000100010001000100C65C0100010001B2
:1005200000010001000100010001000100010001C3
:1005300000000000000000000000002A2B2800003E
:100540000000000000000000000000000000290082
:100550000000002C1E3420212224342627252E368C
:100560002D3738271E1F20212223242526333336FA
:100570002E37381F0405060708090A0B0C0D0E0F4D
:10058000101112131415161718191A1B1C1D2F31D0
:1005900030232D350405060708090A0B0C0D0E0F34
:1005A000101112131415161718191A1B1C1D2F31B0
:1005B00030354C000000000000000000000000008A
:1005C000000000000000000000000000000000002B
:1005D0000000000001010101010100010101010011
:1005E0000000000000000000000000000001000109
:1005F00000010101010101010101010101010101EC
:1006000001010101010101010101010101010000DC
:1006100000010100000000000000000000000000D8
:1006200000000000000000000000000000000101C8
:1006300001010000047F3F1F643214643214783CCF
:100640001E1E140A056801F000B40078005A00006C
:10065000000000000101010101010101010202028B
:10066000020202020202030303030303030304045E
:100670000404040405050505050606060606070725
:100680000707080808080909090A0A0A0A0B0B0BD8
:100690000C0C0C0D0D0D0E0E0F0F0F101011111173
:1006A00012121313141415151616171718181919F2
:1006B0001A1A1B1C1C1D1D1E1F1F20202122222355
:1006C00024252526272728292A2B2B2C2D2E2F2F92
:1006D00030313233343536363738393A3B3C3D3EAB
:1006E0003F4041424344464748494A4B4C4D4F5096
:1006F000515253555657585A5B5C5E5F6062636453
:100700006667696A6C6D6E707173747678797B7CDC
:100710007E8081838486888A8B8D8F91929496982F
:100720009A9B9D9FA1A3A5A7A9ABADAFB1B3B5B748
:10073000B9BBBDBFC1C4C6C8CACCCFD1D3D6D8DA25
:10074000DCDFE1E4E6E8EBEDF0F2F5F7FAFCFF04BC
:10075000033000000016034500720067006F00447C
:10076000006F007800200045005A00000016034585
:1007700000720067006F0044006F007800200045A1
:10078000005A0000000403090409023B00020100B2
:10079000A0FA090400000103010100092111010070
:1007A000012240000705810308000A090401000135
:1007B0000300000009211101000122C00007058289
:1007C0000320000A1201100100000008EDFE0713CB
:1007D00001000102030105010902A10185020901CD
:1007E000A1000509190129051500250195057501C7
:1007F00081029501750381010501093009311581D7
:10080000257F95027508810609381581257F950198
:1008100075088106050C0A38021581257F9501753A
:10082000088106C0C005010980A1018503160100E9
:100830002603001A81002A8300751095018100C0EB
:10084000050C0901A1018504160100269C021A016C
:10085000002A9C02751095018100C005010906A1BE
:10086000018505050719E029E7150025019508759B
:100870000181020508190129059505750191029567
:1008800001750391010507190029EF150025019550
:10089000F075018102C005010906A101050719E0F3
:1008A00029E7150025019508750181029501750854
:1008B0008101050819012905950575019102950128
:1008C000750391010507190029FF150026FF009502
:1008D0000675088100C011241FBECFEFDAE0DEBF2D
:1008E000CDBF11E0A0E0B1E0EAE2F5E602C005907C
:1008F0000D92AA3CB107D9F723E0AAECB1E001C000
:100900001D92AE3AB207E1F70E945D290C94933232
:100910000C94000080B38C7080BB81B3836F81BB6B
:10092000089584B1807F84B985B1807F85B98AB10B
:10093000837F8AB98BB1837F8BB93E98469808959F
:10094000CF93E82F873090F58091000190910101BD
:10095000892B09F049C0CE2F64E670E080E40E9444
:1009600021069093010180930001892BD1F464E664
:1009700070E082E10E94780690930101809300016B
:10098000892B79F481E090E001C0880FCA95EAF7DD
:1009900064E670E080950E94780690930101809350
:1009A000000184E690E0CF910C94CD0690E0FC012C
:1009B0003797E730F105C0F4EA5AFF4F0C9438320C
:1009C000209A289811C0219A29980EC0229A2A9814
:1009D0000BC0239A2B9808C0529A5A9805C0539A74
:1009E0005B9802C03E9A4698CF9108950895089565
:1009F0000C94F704CF93DF930E945F0790E09093ED
:100A00000101809300010E9491040E948A04AFE1D9
:100A1000B2E02BEC31E0EDE2F2E04EE04E0F11924D
:100A20001D9280E090E0E901C80FD91F188201965D
:100A300086309105C1F72A5F3F4F4E13F0CFDF910B
:100A4000CF910C94EE080E945F0790E09093010113
:100A5000809300010E9491040E948A04EDE2F2E07A
:100A60008EE08E0F11928E13FDCF0895CF93DF93FA
:100A7000E62FF0E0E15EFD4F40814827808386E06D
:100A8000689FF0011124E553FE4F20E030E080E044
:100A900061E070E050E0AAE0B22F9081992319F054
:100AA0009150908307C0EB01022E01C0CC0F0A9435
:100AB000EAF78C2BEA0102C0D595C795BA95E2F703
:100AC000C0FDA0832F5F3F4F31962630310521F7BF
:100AD000DF91CF910895CF93DF93D82F873008F01F
:100AE00040C08091000190910101892B09F042C022
:100AF00064E670E080E40E942106909301018093F7
:100B00000001892B11F0C0E027C064E670E083E1AA
:100B10000E9478069093010180930001892B99F738
:100B200064E670E081E40E942106909301018093C5
:100B30000001892B41F784E690E00E94A80697FF08
:100B400005C09093010180930001DDCFC82FC095AF
:100B5000109201011092000184E690E00E94CD06FF
:100B60000AC09FB1CFB1C07FC695C6959370C92BFF
:100B7000C09501C0C0E06D2F8C2F0E943605282F34
:100B80002095ED2FF0E0E35DFD4F908192238C23C3
:100B9000892BDF91CF910895EF92FF920F931F93CE
:100BA000CF93DF938091000190910101892B91F007
:100BB0008091CA018F5F8093CA0181110BC00E948E
:100BC0005F0790E09093010180930001892B11F45D
:100BD0000E94F1068DE2E82E82E0F82E04E312E096
:100BE000C0E08C2F0E94A004D7E0DC0F8D2F0E9464
:100BF000A0048C2F0E946B05F70181937F018D2F3C
:100C00000E946B05F80181938F010E949104CF5FD0
:100C1000C73039F70E94F80881E0DF91CF911F912A
:100C20000F91FF90EF900895E82FF0E0E35DFD4F06
:100C30008081089508951092B9008CE08093B800E7
:100C40000895EF92FF920F931F93CF93DF93182F86
:100C5000EB011092BC0084EA8093BC000E94D32474
:100C60007C019091BC0097FD0EC0CF3F8FEFD8075D
:100C7000C1F30E94D3248E199F098C179D0788F316
:100C80008EEF9FEF2EC09091B900987F983041F081
:100C90009091B900987F903119F08FEF9FEF21C0AC
:100CA0001093BB0084E88093BC000E94D3248C0185
:100CB0009091BC0097FD0CC0CF3F8FEFD807C1F3D8
:100CC0000E94D324801B910B8C179D0788F3D8CFEB
:100CD0008091B900887F883111F08034F1F680E08E
:100CE00090E0DF91CF911F910F91FF90EF900895C9
:100CF0000F931F93CF93DF93EB018093BB0084E8A6
:100D00008093BC000E94D3248C019091BC0097FD7D
:100D10000EC0CF3F8FEFD807C1F30E94D324801BB2
:100D2000910B8C179D0788F38EEF9FEF0CC02091DD
:100D3000B900287F81E090E0283211F480E090E053
:100D4000919581959109DF91CF911F910F91089510
:100D50000F931F93CF93DF93EC0184E88093BC0043
:100D60000E94D3248C019091BC0097FD0EC0CF3F10
:100D70008FEFD807C1F30E94D324801B910B8C17EF
:100D80009D0788F38EEF9FEF03C08091BB0090E03A
:100D9000DF91CF911F910F9108950F931F93CF93E0
:100DA000DF93EC0184E98093BC000E94D3248C0182
:100DB0009091BC0094FF0EC0CF3F8FEFD807C1F3D6
:100DC0000E94D324801B910B8C179D0788F38EEF14
:100DD0009FEF02C080E090E0DF91CF911F910F91D3
:100DE000089556985E9825982D9826982E982798BD
:100DF0002F988FEF90E090938900809388009093D4
:100E00008B0080938A0090938D0080938C00259AAC
:100E10002D9A2FEF80E792E0215080409040E1F73B
:100E200000C00000269A2E9A2FEF80E792E0215012
:100E300080409040E1F700C00000279A2F9A2FEFE2
:100E400080E792E0215080409040E1F700C0000030
:100E500025982D982FEF80E792E021508040904018
:100E6000E1F700C0000026982E982FEF80E792E06F
:100E7000215080409040E1F700C0000027982F9853
:100E800056985E9825982D9826982E9827982F98F2
:100E9000089589EA8093800089E0809381002498F6
:100EA0002C983F988AB18F7C8AB96E98479A8BB1FB
:100EB00080638BB9769A0E94F1060C94F60480E266
:100EC00090E0909301018093000180913B02811199
:100ED0000EC00E941B0681E080933B022FEF83ED42
:100EE00090E3215080409040E1F700C0000064E6AC
:100EF00070E080E40E94210690930101809300013C
:100F0000892B09F050C064E670E080E00E9478060A
:100F10009093010180930001892B09F044C064E69D
:100F200070E080E00E9478069093010180930001B8
:100F3000892BC9F564E670E08FE30E9478069093F0
:100F4000010180930001892B71F584E690E00E94F5
:100F5000CD0664E670E080E40E94210690930101D2
:100F600080930001892BF9F464E670E08CE00E9424
:100F700078069093010180930001892BA1F464E627
:100F800070E080E00E947806909301018093000158
:100F9000892B49F464E670E08FE30E947806909311
:100FA00001018093000184E690E00E94CD068091CB
:100FB00000010895611108C0FC018281882321F09D
:100FC0008CEA91E00E94EB0880E090E00895863E74
:100FD0002CE5920721F0873E9C4541F010C0FB01B3
:100FE0008281882369F00E94BF2307C0FB018281B0
:100FF000882331F081E00E94F01180E0089581E0C3
:101000000895CF92DF92EF92FF926B017C010E94D4
:10101000012356985E9825982D9826982E98279803
:101020002F98482F50E0FA013197E730F105E0F4AE
:10103000E35AFF4F0C943832259A2D9A49C0269ACC
:101040002E9A50C0279A2F9A57C0259A2D9A269AE1
:101050002E9A5DC0259A2D9A04C0259A2D9A269A1B
:101060002E9A279A2F9A53C0813091F130F0823016
:10107000C9F1833009F440C04AC00E94720F6093E6
:10108000540370935503809356039093570360FF66
:101090001CC00E94F3118091540386958F730E94A7
:1010A000F01180915403881F8827881F9091550361
:1010B000292F220F97FB992790F9409157036091B0
:1010C0005603822B0E94861122C00E9439121FC033
:1010D0000E94301281E00E94FC114FEF6FEF86EC0E
:1010E00090E013C00E94301281E00E94FC114FEF8B
:1010F0006FEF87E290E009C00E94301281E00E9409
:10110000FC114FEF6FEF80E090E00E948911C70162
:10111000B601FF90EF90DF90CF90089581E00895A1
:101120000C94E707CF93282F30E0F901ED5CFA4FDC
:10113000C491F901ED54FA4F2491222359F081EE24
:101140000E94FD178C2F0E94FD178C2F0E941B19E7
:1011500081EE04C08C2F0E94FD178C2FCF910C9430
:101160001B190F931F93CF93DF93EC01062FFE0102
:101170008491882359F19E012F5F3F4F813041F4C4
:10118000E901F9011491812F0E94FD17812F0DC0F3
:10119000823031F4E901F90184910E94FD170AC0FF
:1011A000833031F4E901F90184910E941B1902C0D6
:1011B0000E9492082196802F8823C9F2EFE9FFE070
:1011C0003197F1F700C000008150F6CFDF91CF9149
:1011D0001F910F91089560E00C94B1080E94512373
:1011E000811102C00E94BF230E944E0E0C94490739
:1011F0000C94F804282F2F7041F0822F90E02A30B1
:1012000010F44D9608950697089587E290E00895AA
:1012100008950C9408090C94090908950E94981CDB
:101220000E940D092FEF84E39CE021508040904004
:10123000E1F700C000000C942F25FF920F931F933D
:10124000CF93DF938C01FC01C081D1818091850215
:10125000811113C08281882349F0CE010E94CE21E2
:10126000F82E682FCE010E94712104C0CE010E9489
:10127000A121F82EBE018F2D04C0CE010E94CE21E7
:10128000BE010E94B80BEC01B8010E9490088823AF
:1012900009F466C2B801CE010E94C90E882309F480
:1012A0005FC2CC3CFCE5DF0741F4F8018281882372
:1012B00009F456C20E94C00F53C2CD3C8CE5D8073A
:1012C00008F01EC1C43C9CE5D90761F4F801828195
:1012D000882309F445C20E944E228272E1F40E94E2
:1012E000ED113EC2C53CECE5DE0708F0C7C0C531D4
:1012F000FCE5DF0798F0C23CFCE5DF0709F48CC091
:1013000008F492C0F8018281882309F429C20E945E
:101310004E22827221F70E94DF1122C2C2308CE578
:10132000D80708F452C0F8018281882309F459C013
:101330000E945123811102C00E94BF230E94642396
:1013400090E09093A00380939F03FE01E350FC453F
:10135000E231F10530F4EC59FF4F80919F030C947A
:10136000383280919F03816027C0826025C08460ED
:1013700023C0806121C080621FC080641DC080685E
:101380001BC08460886018C08E7F16C08D7F14C01B
:101390008B7F12C08F7E10C08F7D0EC08F7B0CC0E4
:1013A0008F770AC08B7F877F07C087FB222720F9B2
:1013B00091E0922790FB87F980939F0380919F0390
:1013C0000E9468230E94981CCBC1C1159CE5D907D7
:1013D00081F0C130DC45A9F081E080934102809327
:1013E0004202C801DF91CF911F910F91FF900C94A1
:1013F0008E08F8018281882309F4B2C10E940E0987
:10140000AFC1F8018281882309F4AAC18091240325
:10141000816080932403A4C1F8018281882309F4A8
:101420009FC10E9451129CC1C631DC45A9F60E94A1
:101430004E22282FF801828140910F015091100116
:10144000882379F02A7A91E009F490E090933C02A5
:10145000911102C069E201C065E3CA010E9426241D
:101460000AC080913C02811102C069E201C065E3BB
:10147000CA010E9431240E949D2272C1F80182811A
:10148000C83CFCE5DF0731F4882309F469C10E94F8
:10149000431166C1C93C9CE5D907C8F4C63CECE5DC
:1014A000DE0731F4882309F45BC10E94151158C18D
:1014B000C73CDC4530F4882309F452C10E94F11086
:1014C0004FC1882309F44CC10E942C1149C1CA3C68
:1014D0009CE5D90731F4882309F442C10E948311A5
:1014E0003FC1CB3CDC4530F4882309F439C10E946C
:1014F000631136C1882309F433C10E94AB0F30C198
:10150000C43DFCE5DF0791F4F8018281882309F4EA
:1015100027C10E94A20F893128F00E94A20F8232B7
:1015200008F4F9CE89E10E94F0111AC1C53D8CE59D
:10153000D80708F068C0F8018281C03DFCE5DF07EC
:1015400071F4882309F40CC10E94A20F893028F09D
:101550000E94A20F8E3008F4DECE89E0E4CFC13DB8
:101560009CE5D90740F5CE3CECE5DE0771F4882315
:1015700009F4F6C00E94A20F823028F00E94A20F48
:10158000853008F4C8CE82E0CECFCF3CDC4528F4CD
:10159000882309F4E5C081E0C6CF882309F4E0C0C0
:1015A0000E94A20F863028F00E94A20F883008F413
:1015B000B2CE86E0B8CFC23D9CE5D90771F488234E
:1015C00009F4CEC00E94A20F853128F00E94A20F1C
:1015D000873108F4A0CE85E1A6CFC33DDC4570F489
:1015E000882309F4BDC00E94A20F8F3028F00E940A
:1015F000A20F843108F48FCE8FE095CF882309F4B1
:10160000AFC088E190CFC83DFCE5DF0759F5F80190
:101610008281882361F0109242020E94D324909329
:10162000400280933F0280E20E948B1999C0809112
:101630004202882321F080E20E94921991C0809199
:101640003F02909140020E94DF24843B910598F76D
:1016500080E20E94921988E20E94FD1788E20E94AF
:101660001B197EC0C93D8CE5D80708F058C0F801A9
:101670008281C63DFCE5DF0751F5882351F01092C9
:1016800041020E94D32490933E0280933D0282E067
:10169000CBCF0E944E2285FF05C081E0809341029E
:1016A000809342028091410281110FC080913D02DE
:1016B00090913E020E94DF24843B910530F486E243
:1016C0000E94FD1786E20E941B1982E0B5CFC73D3C
:1016D000DC4528F4882309F443C083E224CF811138
:1016E0009ACF0E944E2281FF05C081E08093410283
:1016F000809342028091420281119DCF80913F02EE
:10170000909140020E94DF24843B910508F093CF22
:1017100087E20E94FD1787E20E941B198CCFCC3D07
:10172000ECE5DE0741F4F80182818823C9F082E00C
:101730000E94FE2915C0CD3DFCE5DF0739F4F80114
:101740008281882369F00E94BF230AC0CB3DDC451B
:1017500009F042CEF8018281882311F080E0E8CFC1
:1017600080E0DF91CF911F910F91FF900895089530
:1017700096E0799FF001112494E5899FE00DF11D19
:101780001124E60FF11DEE0FFF1FE551FE4F85916D
:1017900094910895880F991FFC01E951FE4F85919E
:1017A00094910895CF93DF930E94B80B0E94970DF8
:1017B000EC01811520E59207F0F5811530E49307DF
:1017C00008F029C1883E910500F5803E910508F09A
:1017D000AAC1883A910570F4853A910508F0A4C031
:1017E0008130910509F49FC108F450C1049708F0B5
:1017F0009AC14CC18F3B910508F4A1C0803C910572
:1018000008F444C1805C9109F9C0811540E2940755
:1018100058F4C11581E0D80708F085C1C03FD10553
:1018200008F434C1D0657FC1811520E3920708F028
:10183000E9C09F70E3C0811535E5930708F044C007
:10184000811544E5940708F0FDC0C11582E5D8076D
:1018500008F5C11521E5D20708F0E0C08C2F837090
:1018600021E030E002C0220F331F8A95E2F73C6886
:10187000CE0174E0969587957A95E1F78370382BC1
:10188000CF70C695C69540E2C49FE0011124C22BDB
:10189000D32B49C12C2F26952695CE0183709927ED
:1018A000C115D34508F0BFC040E2249F9001112428
:1018B000C1E0D0E002C0CC0FDD1F8A95E2F72C2BEF
:1018C0003D2BE901DC682FC181154AE59407A0F49E
:1018D000C11589E5D80708F0C4C0C11526E5D207AF
:1018E00008F4B5C0C11538E5D30708F4CFC0DC2F24
:1018F000CC27C06FD06A17C181159B4508F4C6C0BC
:10190000C1158CE5D80708F4BEC0CE0190568115EC
:10191000904208F0BBC08D2F8F710E94140EDD27FE
:10192000D0628F71D82BFFC0853A910509F4B1C000
:10193000863A910509F0B0C0C2E8D0E4F4C0883A14
:10194000910509F4ACC0893A910509F4ABC08A3A13
:10195000910509F4AAC08B3A910509F4A9C08C3A03
:10196000910509F4A8C08B3B910509F4A7C08C3BF5
:10197000910509F4A6C08D3A910509F4A5C0803BF4
:10198000910509F4A4C08E3A910509F4A3C08F3AD9
:10199000910509F4A2C0813B910509F4A1C0823BE5
:1019A000910509F4A0C0833B910509F49FC0843BD5
:1019B000910509F49EC0853B910509F49DC0863BC5
:1019C000910509F49CC0873B910509F49BC0883BB5
:1019D000910509F49AC0893B910509F499C08D3BA2
:1019E000910509F498C08E3B910509F497C08A3B94
:1019F000910509F496C0C0E0D4E495C00E94CA0BDA
:101A0000EC0191C09927D3FF03C0EC01D86C8BC0C7
:101A1000EC01D06C88C0DF70D06A85C0DC2FCC2789
:101A2000C16FD06A80C040E2249F90011124C1E0C0
:101A3000D0E002C0CC0FDD1F8A95E2F7C22BD32B7A
:101A4000DA6871C0D82FCC27C46FD06A6CC08C2FD5
:101A50000E94140E8F71C82FD0E0DC2FCC27D062EB
:101A600062C08C2F8F700E94140E94E0D695C7959B
:101A70009A95E1F7CF70D0E0DC2FCC27D06A8F7039
:101A8000806EC82B50C0DD27D0664DC0C0E0D0E0CE
:101A90004AC0C1E8D0E447C0C3E8D0E444C0C2EEC5
:101AA000D4E441C0C9EED4E43EC0CAEED4E43BC0A5
:101AB000C5EBD4E438C0C6EBD4E435C0C3EBD4E402
:101AC00032C0C4EBD4E42FC0C7EBD4E42CC0CCECC0
:101AD000D4E429C0CDECD4E426C0C3E8D5E423C0C7
:101AE000CAE8D5E420C0C2E9D5E41DC0C4E9D5E404
:101AF0001AC0C1E2D6E417C0C3E2D6E414C0C4E2FF
:101B0000D6E411C0C5E2D6E40EC0C6E2D6E40BC0EE
:101B1000C7E2D6E408C0CFE6D4E405C0C0E7D4E409
:101B200002C0CAE2D6E4CE01DF91CF910895823897
:101B3000910549F1B0F48133910509F458C048F496
:101B40008932910509F44EC08A32910509F454C0D6
:101B500008958533910509F440C08933910599F0C2
:101B60000895833E910529F138F4803E910591F066
:101B7000823E9105A1F00895863E9105F9F0873ED9
:101B8000910531F1089520919F0320FD3AC021FD78
:101B900038C0089580919F0380FD35C032C0809188
:101BA0009F0382FF32C080919F0384FD30C083EE8B
:101BB00039C080919F0382FD28C0F5CF80919F039B
:101BC00083FF27C080919F0384FD21C087EE2AC038
:101BD00080919F0383FD1DC0F5CF80919F0385FDFC
:101BE0001AC01BC080919F0385FD17C014C080914F
:101BF0009F0386FD14C015C080919F0386FD11C010
:101C00000EC080EE0FC089E30DC082EE0BC080E0F5
:101C100009C086EE07C089E205C085E303C08AE2F9
:101C200001C081E390E0089590919F0392FF0DC061
:101C3000282F2871283019F4877F846006C0282F48
:101C40002471243011F48B7F886093FF0DC0282FFE
:101C50002871283119F4877E846106C0282F2471E9
:101C6000243111F48B7E886194FD877E0895CF9393
:101C7000DF93813020E8920768F0FB012281222364
:101C800049F0EC010E94640ECE019F770E94AC0ED9
:101C90000E94990E81E0DF91CF9108958CE090E051
:101CA0000E944B3290E0A0E0B0E080935903909303
:101CB0005A03A0935B03B0935C03089560915903AA
:101CC0008CE090E00C945F320E944E22809343029D
:101CD0000E94612280915903813071F048F0823076
:101CE000D9F08430F9F486EE0E94831988E118C097
:101CF00082EE0E94FD1716C080EE0E94FD1781EE55
:101D00000E94FD1788E10E94831981EE0E941B1931
:101D100080EE0E941B1906C082EE0E94FD1787E527
:101D20000E9483198FE39CE90197F1F700C000003E
:101D3000089580915903813021F038F0823029F0E4
:101D400007C08CE20E94831903C082EE0E941B1917
:101D5000809143020C945E220F931F93CF93DF93E5
:101D60008C01CCE0D0E0C8010C2E02C0969587957E
:101D70000A94E2F78F700E94FA080E948319249750
:101D8000CC3F8FEFD80779F7DF91CF911F910F915B
:101D900008950F931F93CF93DF93EC018B01FB0109
:101DA0008281882319F1C23EFCE5DF07C1F050F4BF
:101DB000C03EECE5DE0781F0C13EFCE5DF07B1F493
:101DC00081E010C0C33E8CE5D80759F0C43EECE575
:101DD000DE0761F484E006C01092590305C082E07A
:101DE00001C083E0809359030E945E0EB801CE01CA
:101DF000DF91CF911F910F910C94370EEF92FF92CC
:101E00000F931F93CF93DF93E901662309F44BC02F
:101E1000242F30E0EFEFF0E0E61BF109B901E69F77
:101E20009001E79F300DF69F300D1124232F8B0179
:101E3000031B11095CE3E52EF12CB7010E9410325F
:101E4000FB01BC01069FC001079F900D169F900DDE
:101E50001124B7010E941032E230F105B1F040F4D4
:101E6000309779F0319711F5832F242F461B21C02D
:101E7000E430F105A1F068F03597C1F4842F861B9A
:101E800018C0832F262F230F14C0862F830FE42F13
:101E900003C0E42FE61B842F432F2E2F0AC0842F6C
:101EA000462F430F06C0842F242F03C080E020E07C
:101EB00040E0E42FF0E0E15BF94F4491E22FF0E0E5
:101EC000E15BF94F9491E82FF0E0E15BF94FE49189
:101ED00049839883EA83DF91CF911F910F91FF90FF
:101EE000EF90089588E090E00C945332CF92DF9207
:101EF000EF92FF926B017C010E94720F6C157D05C1
:101F00008E059F0551F0B701A60188E090E0FF9093
:101F1000EF90DF90CF900C947132FF90EF90DF90B4
:101F2000CF900895E4E5F3E083E0808310925503B9
:101F30008FEF828383831482608171818281938198
:101F40000C94760F8091540380FF03C086958F73A5
:101F5000089580E008958091580390E001968430C0
:101F6000910514F083E090E080935803609154034E
:101F70007091550380915603909157030C94760FFE
:101F80008091580390E0019797FF02C080E090E0B5
:101F90008430910514F083E090E0809358036091C1
:101FA00054037091550380915603909157030C94FC
:101FB000760F8091540380FF06C06FE070E08DE5DE
:101FC00093E00C940D1680E090E0FC01E35AFC4F86
:101FD00011821082128204968C339105B1F7EDCFF5
:101FE0009091540390FF0FC020E030E0F901E35AD4
:101FF000FC4F8183608342832C5F3F4F2C3331053C
:10200000A9F70C94D90F0895CF93DF9300D000D097
:10201000CDB7DEB72091540320FF0AC09E012F5F89
:102020003F4F0E94FE0E4B8169818A810E94F00F12
:102030000F900F900F900F90DF91CF9108955F92C6
:102040006F927F928F929F92AF92BF92CF92DF92C8
:10205000EF92FF920F931F93CF93DF9300D000D0A6
:10206000CDB7DEB78C01E62EF42E522E80915403AC
:1020700080FF89C0982F9E77923061F49E012F5F78
:102080003F4FC8010E94FE0E4B8169818A810E94E8
:10209000F00F59C0E82FE695EF739EE39E0F9F73F4
:1020A000943018F4F09057034EC09AE39E0F9F733C
:1020B000993068F4881F8827881F90915503292F2D
:1020C000220F022F082B97FB112710F93CC087E243
:1020D0008E0F8F738A30B8F5F0E07997E0FD02C07B
:1020E00021E001C02FEFEE7FEB5BF94F85919491DA
:1020F0006FE070E00E94103226034001279F900C91
:102100001124580188E9A81A8EEFB80A8DE5C82E67
:1021100083E0D82E98E6692E77247394C501B30125
:102120000E94103296014F2D6E2D0E94FE0EA80CBB
:10213000B91C84E0C80ED11C89E9C81683E0D80612
:1021400069F70E94D90F8091540300FB87F98093AF
:102150005403902F9695809155038078892B10FB1E
:1021600087F980935503E0925603F0925703552068
:1021700051F06091540370915503809156039091F2
:1021800057030E94760F0F900F900F900F90DF91E2
:10219000CF911F910F91FF90EF90DF90CF90BF9064
:1021A000AF909F908F907F906F905F900895282FB1
:1021B000E4E5F3E09081991F9927991F3091550329
:1021C000832F880F482F492B37FB552750F9CA0119
:1021D0000C9668E671E00E942432438162810C947F
:1021E0001F1081E00C94D710282F90915403991F51
:1021F0009927991F30915503832F880F482F492B1A
:1022000037FB552750F9CA014C3051051CF4845A4C
:102210009E4F01C00C9768E671E00E942432409105
:102220005703609156030C941F1081E00C94F41036
:10223000E4E5F3E03081331F3327331F90915503DA
:10224000592F550F97FB992790F9282F43816FEF4E
:10225000852F832B0C941F1081E00C941811E4E55A
:10226000F3E03081331F3327331F90915503592FEB
:10227000550F97FB992790F9282F438160E0852F10
:10228000832B0C941F1081E00C942F114091570365
:10229000242F30E0243F310514F4445F01C04FEF98
:1022A00030915403331F3327331F90915503592F17
:1022B000550F97FB992790F9282F60915603852F8A
:1022C000832B0C941F1081E00C944611409157030E
:1022D000242F30E02C30310514F04C5001C040E088
:1022E00030915403331F3327331F90915503592FD7
:1022F000550F97FB992790F9282F60915603852F4A
:10230000832B0C941F1081E00C94661121E00C9437
:102310001F1020E00C941F10CF939091540390FF56
:1023200040C09178811102C0926007C0853210F0E0
:10233000986403C08F73880F982B9093540366237F
:1023400051F0609154037091550380915603909120
:1023500057030E94760FC09154036C2F66956F73DC
:1023600070E04BE050E084E091E00E943E32892B27
:1023700019F01092610203C081E080936102CC1FCA
:10238000CC27CC1F90915503892F880F97FB992755
:1023900090F940915703609156038C2BCF910C9488
:1023A0008911CF910895682F9091540396959F734A
:1023B00081E0890F853208F081E00C948C1181E076
:1023C0000C94D311682F9091540396959F738FEFBF
:1023D000890F09F484E20C948C1181E00C94E211D1
:1023E00061E00C948C11E4E5F3E0808181608083EE
:1023F00086958F730C94F01160E00C948C11809191
:1024000024038160809324030E945123811104C01E
:102410000E94BF230E94920F0E94720F6093540388
:102420007093550380935603909357036E7761F42E
:102430000E94920F0E94720F609354037093550391
:10244000809356039093570381E0809361028091BB
:10245000540380FF04C086958F730C94FC1108957B
:10246000E4E5F3E080818160808386958F730C942E
:10247000FC11E4E5F3E080818E7F808360817181CF
:10248000828193810E94760F109261022FEF80E784
:1024900092E0215080409040E1F700C000000C9491
:1024A000D90F8091540380FD0C9439120C94F311D0
:1024B000CF93C82F80915F02909160020E94DF2429
:1024C000EC2FF0E0EF5BF94FE491F0E08E179F07FF
:1024D00008F443C00E94D3249093600280935F026B
:1024E00060915E0270E080E090E00E94113020E098
:1024F00030E04FE753E40E94342F2BED3FE049E4F6
:1025000050E40E943A310E94A7310E94AE2F2BE482
:102510003AE34EE25FE30E94C72E20EF3BEF48ED27
:1025200052E40E943A310E94E02F462F80915403DA
:10253000881F8827881F90915503292F220F97FB0A
:10254000992790F960915603822B0E940410809184
:102550005E0290E0019680935E02CF910895CF9342
:10256000C82F80915C0290915D020E94DF24EC2FC5
:10257000F0E0E25CF94FE491F0E08E179F07E8F09D
:102580000E94D32490935D0280935C024091570394
:102590006091560380915A0290915B020E94041050
:1025A00080915A0290915B02019668E671E00E9468
:1025B000103290935B0280935A02CF910895CF928C
:1025C000DF92FF920F931F93CF93DF93F82E8091AA
:1025D0005802909159020E94DF24EF2DE695F0E019
:1025E000E55CF94FE491F0E08E179F07E8F10E9457
:1025F000D32490935902809358020DE513E0C0E074
:10260000D0E088E6C82EDD24D394809156029091C4
:1026100057028C0F9D1FB6010E9410329801409105
:102620005703609156030E94FE0E68960C5F1F4F81
:10263000C83681E0D80749F70E94D90F2091560289
:1026400030915702F0FE0AC0C9010196BE010E94F6
:102650001032909357028093560206C021503109E0
:102660003093570220935602DF91CF911F910F9123
:10267000FF90DF90CF900895AF92BF92CF92DF92FC
:10268000EF92FF920F931F93CF93DF93C82F80FF9A
:1026900002C01FEF01C011E08091540290915502D9
:1026A0000E94DF24C695EC2FF0E0E85CF94FE4913E
:1026B000F0E08E179F0708F466C00E94D324909321
:1026C0005502809354022DE5C22E23E0D22E3FE521
:1026D000E32E33E0F32EC0E0D0E0F7013197108213
:1026E000F6011082F701108294E0A92EB12C00E0CF
:1026F00080915302800F87FD815F082E000C990B9B
:10270000C817D907E9F4809157038A9DA0018B9DD2
:10271000500D112455954795559547958091540333
:10272000881F8827881F90915503592F550F97FBB5
:10273000992790F9960160915603852B0E94FE0E11
:10274000010FF1E0AF1AB10899F6219684E0C80EA6
:10275000D11CE4E0EE0EF11CCF30D10509F0BDCF65
:102760000E94D90F80915302113031F4811102C0BF
:102770008EE007C0815005C090E00196BE010E9426
:10278000243280935302DF91CF911F910F91FF90DC
:10279000EF90DF90CF90BF90AF9008950F931F936D
:1027A000CF93DF93C82F80915102909152020E94E3
:1027B000DF24EC2FF0E0EB5CF94FE491F0E08E17B2
:1027C0009F0708F464C00E94D32490935202809320
:1027D000510280E090E0FC01E35AFC4F118210822C
:1027E000128204968C339105B1F7C0E0D0E00FE07F
:1027F00010E0CE01B8010E942432FC018091500209
:10280000082E000C990BEE0FFF1FEE0FFF1FC817CD
:10281000D907FCF080910301082E000C990B8C174E
:102820009D07BCF09F01235A3C4F80915403881FA1
:102830008827881F90915503592F550F97FB99278B
:1028400090F94091570360915603852B0E94FE0E2C
:1028500005C0E35AFC4F1182108212822196CF30BC
:10286000D10539F60E94D90F809102019091500252
:10287000980F9093500220910301280F2093030199
:10288000121614F49E301CF0819580930201DF91A2
:10289000CF911F910F910895EF92FF920F931F9385
:1028A000CF93DF9380914E0290914F020E94DF24DC
:1028B000883E9340D0F10E94D32490934F0280939E
:1028C0004E02C0914C02D0914D022196C170DD277D
:1028D000D0934D02C0934C028DE5E82E83E0F82E94
:1028E00010E008E7812F8695FE01E80FF11DCF016A
:1028F0008170992797014091570360915603FC011D
:102900000E9FC0010F9F900D11240E94FE0E1F5FAD
:10291000F4E0EF0EF11C1F3029F7DF91CF911F91EA
:102920000F91FF90EF900C94D90FDF91CF911F91F1
:102930000F91FF90EF900895CF93DF9300D000D0D8
:10294000CDB7DEB780914A0290914B020E94DF24FE
:10295000E3E3F6E02591349182179307C0F180916B
:10296000490281110CC09E012F5F3F4F4FEF6FEF67
:1029700080E090E00E94FE0E8A81809349020E94CE
:10298000D32490934B0280934A0280914802813075
:1029900051F028F0823061F4409149020AC08091E0
:1029A000490240E007C06091490240E080E003C076
:1029B00040E080E060E00E94F00F8091480290E0EB
:1029C000019663E070E00E942432809348020F90E9
:1029D0000F900F900F90DF91CF9108950F931F9359
:1029E000CF93DF9380914602909147020E94DF24AB
:1029F000843F914008F448C00E94D324909347023A
:102A000080934602CDE5D3E000E010E0209144023F
:102A10003091450280915403909155030730110580
:102A20001CF4232B79F002C0232B61F4881F882724
:102A3000881F592F550F97FB992790F99E014091B8
:102A400057030AC0881F8827881F592F550F97FBE7
:102A5000992790F99E0140E060915603852B0E94D2
:102A6000FE0E0F5F1F4F24960F30110579F60E945E
:102A7000D90F809144029091450201968170992767
:102A80009093450280934402DF91CF911F910F9163
:102A90000895809161028823D9F190915403892F80
:102AA00086958F732EE3280F2F73243018F48250ED
:102AB0000C9458122AE3280F2F73233018F48650F1
:102AC0000C94AF1227E3280F2F73263018F4895087
:102AD0000C94DF1221E3280F2F73263018F48F5047
:102AE0000C943C132BE2280F2F73233018F48551DC
:102AF0000C94CE13892F8E77803311F40C944C14E0
:102B0000863411F40C949C14883411F40C94EE1453
:102B10000895882319F05198599A02C0519A5998EA
:102B20005098589A95E09A95F1F70000509A589865
:102B300095E09A95F1F70000882311F0519A599881
:102B400085E08A95F1F7000008958BB18C7F8BB9F1
:102B50005098589A5198599A85E08A95F1F7000053
:102B600008958AB18C7F8AB985E08A95F1F70000D3
:102B7000519A599885E08A95F1F70000509A589833
:102B800085E08A95F1F7000008955098589A85E0FD
:102B90008A95F1F700005198599A85E08A95F1F7E6
:102BA00000000895CF93DF93D82FC8E08D2F807851
:102BB0000E948915DD0FC150C9F780E00E94891578
:102BC00085E08A95F1F7000085E08A95F1F700002D
:102BD00080E0DF91CF9108952BB1342F30952323DE
:102BE0003BB1432B3FB7F894FC01680F791FE61700
:102BF000F70789F0819198E04BB9000000C087FF8A
:102C00002BB9880F000000C000C000C02BB900C065
:102C10009A9591F7ECCF3FBF0895AF92BF92CF92B4
:102C2000DF92EF92FF920F931F93CF93DF938C016C
:102C3000EB01CFB6D090BC00F8948091BC008B7FA4
:102C40008093BC000E94A5150E94B11584E80E94E3
:102C5000D215CC0FDD1FCC0FDD1F78015801AC0E53
:102C6000BD1EEA14FB0431F0F70181917F010E943F
:102C7000D215F7CF0E94C515CFBED092BC00579A8F
:102C800040E8BE01C801DF91CF911F910F91FF90E5
:102C9000EF90DF90CF90BF90AF900C94EC15909395
:102CA0006702809366020895E0916602F0916702E0
:102CB000309721F00190F081E02D099480E0089593
:102CC000E0916602F0916702309799F0209120011F
:102CD000222359F020919F0327FF07C0DC012C918C
:102CE00011962C93119725E02C930280F381E02D0F
:102CF00009940895E0916602F0916702309739F0E7
:102D000022E0DC012C930480F581E02D09940895E4
:102D100020916402309165028217930771F09093BD
:102D2000650280936402E0916602F0916702309739
:102D300021F00680F781E02D099408952091620228
:102D4000309163028217930771F09093630280932E
:102D50006202E0916602F0916702309721F00084F0
:102D6000F185E02D0994089585B7806885BF85B702
:102D7000806885BF089508950E94B4160C94BB1610
:102D800081E008950E94CA240E94FA040E946125ED
:102D90000C94FF11CF92DF92EF92FF920F931F934B
:102DA000CF93DF93CDB7DEB72B970FB6F894DEBF86
:102DB0000FBECDBF0E94CC050E94C016811111C06C
:102DC0008FEF89838A831B820E94D3248160782FAE
:102DD0009D838C8349815A816B818D810E94AE17BE
:102DE00056C089E6C82E82E0D82E00E010E0E02E22
:102DF000802F0E941406F60141916F01F42EF826EF
:102E000031F40F5F1F4F0E30110589F7D9CF909124
:102E1000240391FF04C08B870E941A068B8520E053
:102E200030E04F2D50E0922FBA01022E02C075956E
:102E300067950A94E2F760FF24C02E83EF8221E0B9
:102E400030E0690102C0CC0CDD1C9A95E2F790E0FD
:102E50008C219D21892B09F420E028870E94D3240E
:102E60008160782F9A8789874E815F8168858A85FE
:102E70000E94AE17F801E759FD4F8081C826C08235
:102E800006C02F5F3F4F2630310569F6BACF0E944A
:102E9000F426109168020E9454161817A1F00E949F
:102EA0005416809368022B960FB6F894DEBF0FBEBF
:102EB000CDBFDF91CF911F910F91FF90EF90DF90E9
:102EC000CF900C940B092B960FB6F894DEBF0FBE73
:102ED000CDBFDF91CF911F910F91FF90EF90DF90C9
:102EE000CF900895DC0111962C9111978C91682F49
:102EF00070E041E050E001C0440F8A95EAF7129675
:102F00008C91129730E0882329F0809187028823E2
:102F1000E9F006C0F901E958FD4F90819423B1F022
:102F200086E0829FF001839FF00D1124E60FF71FCA
:102F3000EE0FFF1FEF5DFE4F808191818D939C937B
:102F4000F901E958FD4F8081482B06C0F901E95885
:102F5000FD4F40958081482340830895CF93DF93B0
:102F6000CDB7DEB72B970FB6F894DEBF0FBECDBF3F
:102F7000942F4F83252F588769877A878B874A85B7
:102F80005B85452B21F02F3F09F59F3FF9F4DE01CA
:102F9000119686E0FD0111928A95E9F785E0FE0120
:102FA000379601900D928A95E1F749815A816B819C
:102FB0007C818D819E810E94421F2B960FB6F894D2
:102FC000DEBF0FBECDBFDF91CF910895CE01079632
:102FD0000E947217DCCFFC01808191810E940F2238
:102FE00092959F70963041F48091870291E08927F5
:102FF00080938702909386020895882309F41AC16A
:103000008238C1F40E94541681FD14C169E3809195
:103010000F01909110010E9426240E949D222FEF03
:1030200081EE94E0215080409040E1F700C0000024
:1030300069E319C08338F9F40E94541680FDFAC080
:1030400063E580910F01909110010E9426240E9457
:103050009D222FEF81EE94E0215080409040E1F7D7
:1030600000C0000063E580910F01909110010E9463
:1030700031240C949D228438C1F40E94541682FDA0
:10308000D9C067E480910F01909110010E9426241D
:103090000E949D222FEF81EE94E0215080409040CD
:1030A000E1F700C0000067E4DECF9CEF980F913A93
:1030B00040F4682F80910F01909110010E94262406
:1030C000D8CF90E2980F983050F4877091E001C00B
:1030D000990F8A95EAF7892F0E945122CACF9BE562
:1030E000980F933070F4853A29F0863A31F083E8EE
:1030F00090E005C081E890E002C082E890E00C9486
:10310000881698E5980F973108F08EC0883A09F430
:1031100045C0893A09F445C08A3A09F445C08B3A5A
:1031200009F445C08C3A09F445C08B3B09F445C00D
:103130008C3B09F445C08D3A09F445C0803B09F445
:1031400045C08E3A09F445C08F3A09F445C0813B29
:1031500009F445C0823B09F445C0833B09F445C0EE
:10316000843B09F445C0853B09F445C0863B09F41E
:1031700045C0873B09F445C0883B09F445C0893BFD
:1031800009F445C08D3B09F445C08E3B09F445C0A8
:103190008A3B09F445C080E090E044C082EE90E0B4
:1031A00041C089EE90E03EC08AEE90E03BC085EBE6
:1031B00090E038C086EB90E035C083EB90E032C001
:1031C00084EB90E02FC087EB90E02CC08CEC90E07B
:1031D00029C08DEC90E026C083E891E023C08AE806
:1031E00091E020C082E991E01DC084E991E01AC01D
:1031F00081E292E017C083E292E014C084E292E0A0
:1032000011C085E292E00EC086E292E00BC087E238
:1032100092E008C08FE690E005C080E790E002C031
:103220008AE292E00C949E16803F20F00E94FC25DA
:103230000C94E9260895882309F464C0823879F44F
:103240000E94541681FF5EC069E380910F01909146
:1032500010010E9426240E949D2269E310C0833839
:10326000B1F40E94541680FF4DC063E580910F01B8
:10327000909110010E9426240E949D2263E5809176
:103280000F01909110010E9431240C949D228438EA
:1032900079F40E94541682FF35C067E480910F01D3
:1032A000909110010E9426240E949D2267E4E7CF9E
:1032B0009CEF980F913A10F4682FE1CF90E2980FAD
:1032C000983050F4877091E001C0990F8A95EAF721
:1032D000892F0E945722D9CF9BE5980F933020F475
:1032E00080E090E00C94881698E5980F973120F4D0
:1032F00080E090E00C949E16803F20F00E946426AF
:103300000C94E9260895CF93C82F0E94FD178C2FA7
:10331000CF910C941B19882321F00E9451220C9408
:103320009D220895882321F00E9457220C949D220B
:1033300008958F929F92AF92BF92DF92EF92FF9289
:103340000F931F93CF93DF937C01D62FC72FFC01E0
:10335000058102950F70128111110E9471220E9445
:103360004722882379F0112369F080E28D0F88309D
:1033700048F082E00E94E8220E94472291E0D82E85
:10338000D92601C0D12CAC2EA2948FE0A822B12C5A
:10339000F501EA58FF4F0C9438328C2F807FCF70A4
:1033A000882311F0C295C07F112399F0CC2309F432
:1033B000C8C180E28D0F883010F0D11104C08C2F6D
:1033C0000E94512203C08C2F0E9464220E949D22E1
:1033D000B8C18D2F0E941B19CC2309F42EC280E2A4
:1033E0008D0F883010F0D11104C08C2F0E9457220D
:1033F00003C08C2F0E946A220E949D221EC28C2F25
:10340000807FCF70803211F0C295C07FDD2319F02C
:10341000D130C9F021C0112371F0002341F00130F7
:1034200031F40E9484228C2B0E948A2206C20E94C0
:1034300084228C2B3FC1002319F0013009F4FDC117
:103440000E94932211C0112321F0023008F0F5C12F
:1034500007C00111F2C108C0112321F0011171C18F
:103460008C2F28C101117EC18C2F2AC18C2F8695EB
:103470008695837090E0009719F0019761F0DDC1A7
:10348000112321F08D2F9C2F937002C080E090E0DB
:103490000E948816E2C1112321F08D2F9C2F93707A
:1034A00002C080E090E00E949E16D7C11123F9F07F
:1034B000D53F51F0D63F71F0D43FA9F480919903E4
:1034C00090919A0381600BC08091990390919A0327
:1034D000826005C08091990390919A0384609093D3
:1034E0009A03809399038D2F0E94FC251EC0D53F1F
:1034F00051F0D63F71F0D43FA9F480919903909197
:103500009A038E7F0BC08091990390919A038D7FCF
:1035100005C08091990390919A038B7F90939A03B1
:10352000809399038D2F0E9464260E94E92695C1FD
:103530008C2F837009F050C011118BC18D2F829593
:1035400086958770880F880F9D2F9F70892E912CEC
:10355000A12CB12C082E04C0880C991CAA1CBB1CE1
:103560000A94D2F7D4FF14C00FE010E020E030E05E
:10357000B901A80104C0440F551F661F771F8A9523
:10358000D2F7CB01BA01609570958095909503C0F4
:1035900060E070E0CB01C695C695C370D0E0C23044
:1035A000D10561F0C330D10581F0682979298A29D4
:1035B0009B29219771F00E9487204BC168297929A6
:1035C0008A299B290E94992044C10E948720C50115
:1035D000B4010E9475203DC1112319F08C2F817018
:1035E00001C08695882309F434C18D2F8295869574
:1035F0008770880F880F9D2F9F70892E912CA12C8A
:10360000B12C082E04C0880C991CAA1CBB1C0A945F
:10361000D2F7D4FF14C00FE010E020E030E0B90191
:10362000A80104C0440F551F661F771F8A95D2F763
:10363000CB01BA01609570958095909503C060E0CC
:1036400070E0CB01C695C695C3704C2F50E0423058
:10365000510569F04330510589F0682979298A2993
:103660009B294130510571F00E944C21F2C068291C
:1036700079298A299B290E945E21EBC00E944C2156
:10368000C501B4010E943A21E4C08D2F90E0FC01F5
:10369000E05EF109E531F10508F04FC0EA57FF4F50
:1036A0000C943832DF708C2F8F71112331F00E940F
:1036B000D3208D2F0E948B19C0C00E94F4208D2F23
:1036C0000E949219BAC0112339F00111B6C08C2F93
:1036D0008F710E941921B1C0023008F0AEC0F7CF3F
:1036E000112339F08C2F8F710E94D320A6C0112393
:1036F000C9F38C2F8F710E94F4209FC0112329F0F1
:103700008C2F8F710E94BE2098C00E94B92095C056
:10371000112349F0CF718C2F0E94D32063E08C2FAE
:103720000E94D3228AC081E00E94E822023008F47D
:1037300084C082E00E94E82280C0112331F000237F
:1037400089F28D2F0E94FD1778C0002391F2D933A2
:1037500049F45FEF67EE73E0515060407040E1F76D
:1037600000C000008D2F0E941B1967C04C2F4F70A6
:103770006D2FC7010E94DA070E94E61F6EC0D23F7C
:10378000B1F028F4D03F49F0D13FF9F028C0D43F40
:10379000B9F058F0D53F71F022C0112309F447C0A9
:1037A0009091870281E0892708C081E01827109353
:1037B00087023DC011113BC081E08093870237C072
:1037C000111135C01092870232C0112329F0809167
:1037D0008602882329F329C0002311F328C0809191
:1037E00086020023C1F0882341F09091870281E096
:1037F000892780938702109286028D2F112319F05A
:103800000E94FD1714C00E941B1986E0F701119257
:103810008A95E9F70CC0882351F0111108C09091E6
:10382000870281E0892780938702109286024C2FBD
:103830004F706D2FC7010E94B70BF8E0AF16B104AF
:1038400041F05CF04AE0A41AB10852E0A516B104B8
:1038500020F40E9454160E940B09DD20E1F00E9422
:10386000432280FD18C0F70112820E943D220E946F
:10387000D320C7010E94571C0E943D22DF91CF91A7
:103880001F910F91FF90EF90DF90BF90AF909F90AE
:103890008F900C94F420DF91CF911F910F91FF90A6
:1038A000EF90DF90BF90AF909F908F9008950F930F
:1038B0001F93CF93DF93EC01888199812B813C8109
:1038C000232BB9F09F3F11F48F3F99F0CE010E9456
:1038D0001D09882371F0688179818A810E941A22EA
:1038E0008C010E9470210E947220B801CE010E94BA
:1038F0009919DF91CF911F910F9108950E94712224
:103900000E9481220E949D220E948F270E94E92608
:1039100080E090E00E94881680E090E00C949E1673
:1039200080910F01909110010E943C240C947E1C08
:103930000E9461220C94901CE92FE295EF70F0E058
:103940003297EE30F105B0F4E556FF4F0C94383263
:10395000803F91F018F4803E68F40EC0843F51F42B
:103960000BC0803E48F0813F29F406C093FB8827B6
:1039700080F9089580E0089581E008950E940F2263
:103980000E949C1C0895CF93DF9300D000D01F921B
:10399000CDB7DEB70F900F900F900F900F90DF9183
:1039A000CF910895CF93DF9300D000D000D0CDB752
:1039B000DEB726960FB6F894DEBF0FBECDBFDF91FF
:1039C000CF9108951F93CF93DF93C091880216E0A3
:1039D00080918902C81799F0D0E01C9FF0011D9FCB
:1039E000F00D1124E657FD4F4081518162817381B2
:1039F000848195810E94D21C2196C770E9CFDF9106
:103A0000CF911F9108954091BA025091BB026091ED
:103A1000BC027091BD028091BE029091BF020C94D5
:103A2000D21C8091BF0282958F7009F054C08091A2
:103A3000BC02882309F44FC080918802A0918902BA
:103A40006091BA027091BB024091BD025091BE02DA
:103A5000B6E08A1709F43FC090E041155105C1F165
:103A60007F3F11F46F3FA1F1B89FF001B99FF00DB6
:103A70001124E657FD4F218172132AC02081621361
:103A800027C02281211124C02381348124173507C6
:103A900010F421503109241B350B243B3105C0F4AF
:103AA0002091BF022F7020612093BF0226E0289F43
:103AB000F001299FF00D1124E157FD4F80818F7097
:103AC000806180838AEB92E00E94571C0C94E21C78
:103AD00001968770BECF0895CF92DF92EF92FF924A
:103AE0000F931F93CF93DF93CDB7DEB762970FB6D7
:103AF000F894DEBF0FBECDBF8C0185E0F801DE017A
:103B00001D9601900D928A95E1F7D8014C9111967E
:103B10005C91119712966C9112971396CD90DC9050
:103B200014973091BA027091BB028091BD029091BE
:103B3000BE02009709F46BC17F3F19F43F3F09F4BF
:103B400066C1E090BC02EE2009F4C0C02091BF0223
:103B5000C816D90628F0F601E81BF90BCF0104C0FE
:103B6000809590958C0D9D1DFF24F394843B9105C9
:103B700078F0F12C207F09F0C6C07C2DD98AC88A44
:103B800089890E94C31C8AEB92E00E94571CB1C035
:103B9000822F807F09F046C0751314C0341312C001
:103BA000611110C02F7020612093BF020E94031D7D
:103BB0008AEB92E00E94571C8091BF02D8011596B3
:103BC0008C932EC0CD2819F15F3F11F44F3FF9F0CF
:103BD000F62E61111CC0809188022091890236E086
:103BE000821709F45AC090E0389FF001399FF00D18
:103BF0001124E657FD4F7181571306C0708147139A
:103C000003C07281711103C001968770E9CFF62E4F
:103C1000662309F427C18091BF0281608093BF02AF
:103C2000F12C20C1751308C0341306C0611104C003
:103C30008091BF02D801C3C04D875E878D859E8568
:103C40006A8B0E94BE1C6A898823E1F16623D1F148
:103C50002091BF02822F82958F7090E0029774F0BE
:103C60008091BA029091BB0298878F831986DB8678
:103C7000CA862C87CE0107960E94571C86E0F80161
:103C8000AAEBB2E001900D928A95E1F70E94111D16
:103C90000E94031DFF24F394E5C04D875E878D8548
:103CA0009E850E940F22292F22952F7030E022300E
:103CB00031050CF0CBC09F7009F0C5C0805E883024
:103CC00008F4D0C0C8010E94571CE4CFC816D9061A
:103CD00008F453C0F601E81BF90BCF01843B9105B2
:103CE00008F450C0F12C7C2DD98AC88A89890E9499
:103CF000C31CEAEBF2E086E0DF011D928A95E9F74A
:103D00000E94031DAFC0751314C0341312C061119B
:103D100010C08091BF02F8018583C8010E94571C22
:103D200086E0EAEBF2E0DF011D928A95E9F7FE2CCE
:103D300099C04D875E878D859E856A8B0E94BE1CCB
:103D40006A89882309F4BECF662309F4BBCF20918A
:103D5000BF02822F82958F7090E002970CF48ECF75
:103D60008091BA029091BB029A8389831B82DD8283
:103D7000CC822E83CE0101967FCF809590958C0DBD
:103D80009D1DACCFF62E662309F49CCF75132EC073
:103D900034132CC02091BF0220FD1FC0822F8295BA
:103DA0008F70D9F0D80115962C9315978F3049F064
:103DB0008F5F982F9295907F822F8F70892B159609
:103DC0008C93C8010E94571C86E0F801AAEBB2E070
:103DD00001900D928A95E1F793CF86E0F801AAEB66
:103DE000B2E001900D928A95E1F73CC04D875E8765
:103DF0008D859E850E94BE1C811140CF8091BF029F
:103E000081608093BF02C8010E94571C2BC06623AB
:103E100009F458CF4D875E878D859E850E94BE1C14
:103E2000F82E882309F44ECF86E0F801AAEBB2E021
:103E300001900D928A95E1F78AEB92E00E94EB17D0
:103E40000E94111D5DCF811139CF0CC02430310586
:103E50000CF038CF9F7009F431CFF8019581907F35
:103E600009F02CCF8F2D62960FB6F894DEBF0FBEEF
:103E7000CDBFDF91CF911F910F91FF90EF90DF9019
:103E8000CF9008951F93CF93DF93CDB7DEB72C97D4
:103E90000FB6F894DEBF0FBECDBF4F83588769873A
:103EA0007A878B879C87CE0107960E946C1D88239A
:103EB00069F08F8198852A853B85232BF1F19F3FFF
:103EC00009F063C08F3F09F060C037C086E0FE0193
:103ED0003796DE01119601900D928A95E1F76F8178
:103EE0007885EA85FB85309741F17F3F11F46F3F7C
:103EF00021F12091890230E0C9010196877099274C
:103F00004091880250E08417950709F447C06983FF
:103F10007A83FD83EC8396E0929FD001939FB00D4E
:103F20001124A657BD4FFE01319601900D929A952E
:103F3000E1F7809389020E94E21C16E080918802DA
:103F4000909189028917C1F1189FC00111248657E9
:103F50009D4F0E946C1D882379F1E09188021E9F7D
:103F6000F0011124E657FD4F408151816281738138
:103F7000848195810E94D21C8091880290E00196F4
:103F80008770992780938802D9CF4F81588569859A
:103F90007A858B859C850E94D21CCFCF0E94981C6D
:103FA0001092890210928802EAEBF2E086E0DF01CB
:103FB0001D928A95E9F7C1CF2C960FB6F894DEBF13
:103FC0000FBECDBFDF91CF911F910895EF92FF9269
:103FD0000F931F93CF93DF938C01892B09F46CC04F
:103FE000F12CEE24E394E8012196F80184918437C2
:103FF00040F4843008F051C0813081F0823019F1F2
:104000005BC0853709F444C0A8F19CE7980F90374E
:1040100008F052C08F770E941B1941C00E5F1F4FDE
:10402000FE01C49180E28C0F883048F4C7708E2D59
:1040300001C0880FCA95EAF70E94742214C08C2F21
:104040000E94FD172DC00E5F1F4FFE01C49180E23C
:104050008C0F883058F4C7708E2D01C0880FCA9518
:10406000EAF70E947A220E949D221AC08C2F0E9499
:104070001B1916C00E5F1F4FFE01C491CC2381F0A7
:104080008FE99FE00197F1F700C00000C150F6CF23
:104090000E5F1F4FFE01F49003C00E94FD178E01BA
:1040A0008F2D882309F49FCFEFE9FFE03197F1F7D7
:1040B00000C000008150F5CFDF91CF911F910F918B
:1040C000FF90EF90089508950C9463200E9464205F
:1040D0006093FB027093FC028093FD029093FE02BA
:1040E0000C947E1C08950C9466200F931F930091EE
:1040F000FB021091FC022091FD023091FE02602B28
:10410000712B822B932B1F910F910C9466200F9390
:104110001F930091FB021091FC022091FD0230914F
:10412000FE0260237123822393231F910F910C942D
:1041300066200F931F930091FB021091FC022091C7
:10414000FD023091FE0260277127822793271F917D
:104150000F910C9466200C9401080E94AB20609390
:10416000F7027093F8028093F9029093FA020C948C
:104170007E1C60E070E0CB010C94AD200F931F9388
:1041800041E050E060E070E08A019B0104C0000F54
:10419000111F221F331F8A95D2F7C901B8011F9141
:1041A0000F910C94AD200F931F9341E050E060E01D
:1041B00070E004C0440F551F661F771F8A95D2F721
:1041C0008091F7029091F802A091F902B091FA0261
:1041D0008A019B01082B192B2A2B3B2BC901B80103
:1041E0001F910F910C94AD200F931F9341E050E06D
:1041F00060E070E004C0440F551F661F771F8A956A
:10420000D2F740955095609570958091F702909106
:10421000F802A091F902B091FA028A019B010823E9
:1042200019232A233B23C901B8011F910F910C9434
:10423000AD200F931F9341E050E060E070E004C0B8
:10424000440F551F661F771F8A95D2F78091F7029A
:104250009091F802A091F902B091FA028A019B01B3
:10426000082719272A273B27C901B8011F910F9159
:104270000C94AD200F931F930091F7021091F80258
:104280002091F9023091FA02602B712B822B932B33
:104290001F910F910C94AD200F931F930091F70283
:1042A0001091F8022091F9023091FA0260237123F3
:1042B000822393231F910F910C94AD200F931F9392
:1042C0000091F7021091F8022091F9023091FA0260
:1042D00060277127822793271F910F910C94AD209F
:1042E0000895292F220F920F990F890FA82FA695B5
:1042F000A695A695877051E001C0550F8A95EAF7FB
:1043000085E0A89FD001112420E030E070E0F901A1
:10431000EA0FFB1FE054FD4F4081CB01022E02C08B
:10432000969587950A94E2F781709927819584275D
:104330008523842780832F5F3F4F2530310539F750
:104340000895292F220F920F990F890F682F6695D4
:1043500066956695982F977085E0689FB001112447
:1043600040E050E080E0FA01E60FF71FE054FD4F17
:10437000208130E0092E02C0369527950A94E2F795
:1043800021703327042E01C0220F0A94EAF7822BF2
:104390004F5F5F4F4530510531F70895BF92CF927F
:1043A000DF92EF92FF920F931F93CF93DF938C01D5
:1043B000C090FB02D090FC02E090FD02F090FE0263
:1043C0008091F7029091F802A091F902B091FA025F
:1043D000C82AD92AEA2AFB2ACFE1D0E0D701C601B0
:1043E0000C2E04C0B695A795979587950A94D2F799
:1043F00080FF07C0BC2EB8018C2F0E94D20B019702
:1044000019F4219758F7B12C8B2DDF91CF911F9183
:104410000F91FF90EF90DF90CF90BF900895CF93D2
:10442000DF93EC010E94CE21BE010E94D20BDF91EE
:10443000CF9108951F93CF93DF93EB019091850265
:10444000992321F0CB010E940F2213C0882349F049
:10445000CB010E94CE21182F682FCE010E9471211E
:1044600004C0CB010E94A121182FBE01812F0E9400
:10447000D20BDF91CF911F9108958091FF02859516
:104480008595859508958091FF0287700895909194
:10449000FF02977081E009F480E008958091230382
:1044A000089590912303892B809323030895809589
:1044B00090912303892380932303089580932303FA
:1044C000089510922303089590912203892B8093DD
:1044D00022030895809590912203892380932203DB
:1044E000089510922203089590912103892B8093BF
:1044F00021030895809590912103892380932103BE
:10450000089510922103089580910003089508955D
:104510000C94872290910003981721F08093000358
:104520000C948822089580910003882329F010922A
:10453000000380E00C9488220895E0910F01F0912F
:104540001001809123038083E0910F01F09110010D
:10455000908180912203892B8083E0910F01F0915B
:104560001001908180912103892B80838091000329
:10457000882381F0E0910F01F09110019081892B47
:10458000808380910F01909110010E94C1238111BD
:104590000E94932280910F01909110010C9460165B
:1045A00008950C94D02298E0899F90011124262B25
:1045B0002093FF020E94D3208091FF02859585956C
:1045C00085950C94D1221092FF0280E00C94D122A8
:1045D0002091FF02809582238093FF02982F97708D
:1045E00079F430E0482F082E000C550B24173507BE
:1045F00039F08595859585950E94F4200C94E322E9
:104600000895CF92DF92EF92FF926C01EE24FF2487
:10461000C114D104E104F10421F0C701B60120E185
:1046200001C020E0C72ED82EE92EFF24C114D104EA
:10463000E104F10419F0285FC701B6016B017C01A8
:1046400054E0F694E794D794C7945A95D1F7C114DF
:10465000D104E104F10419F02C5FC701B6016B012C
:104660007C0142E0F694E794D794C7944A95D1F739
:10467000C114D104E104F10419F02E5FC701B601A1
:10468000DC01CB01B695A79597958795892B8A2B49
:104690008B2B09F02F5F822FFF90EF90DF90CF9050
:1046A000089580E090E00E94593221E08D3E9E4FB7
:1046B00009F020E0822F089582E090E00C944B32C4
:1046C00083E090E00C944B3284E090E00C944B3209
:1046D000682F84E090E00C945F32AB01BC018FE066
:1046E00090E00C947132AB01BC0183E190E00C943A
:1046F000713260E070E0CB010C94732360E070E0F5
:10470000CB010E946D230C9479236DEE7EEF80E047
:1047100090E00E947D3260E082E090E00E945F3293
:1047200060E083E090E00E945F321092FB02109202
:10473000FC021092FD021092FE0260E084E090E024
:104740000E945F3260E085E090E00E945F3260E0AE
:1047500086E090E00E945F326FEF87E090E00E9479
:104760005F3240E050E0BA0188E090E00E94713290
:1047700060E08DE090E00E945F320C947E230C9408
:104780008523FC01329680912001882331F08091AD
:104790009F0387FF02C09EE101C096E080E0915038
:1047A00028F021912223D9F38F5FF9CF08959C013E
:1047B000FC0132969FEF80E04191461789F09F3FC0
:1047C00019F4411101C0982F8F5F8630A9F79F3FE0
:1047D00039F0F901E90FF11D97FDFA95628308950B
:1047E0000895FC01329608962081261301C010829C
:1047F0003196E817F907C1F70895262F26952695D3
:1048000026952E3168F4FC01E20FF11D677021E05E
:1048100030E001C0220F6A95EAF78281282B2283BB
:104820000895262F2695269526952E3170F4FC01A5
:10483000E20FF11D677021E030E001C0220F6A95A0
:10484000EAF7209582812823228308952091200170
:10485000222329F020919F0327FD0C94FD230C9423
:10486000D72320912001222329F020919F0327FDA7
:104870000C9411240C94F12320912001FC01329618
:10488000222331F080919F0387FF02C08EE101C097
:1048900086E0DF011D928A95E9F7089508950C944A
:1048A0004E240E944F248091A503843049F1109238
:1048B000250320E488E190E00FB6F894A895809352
:1048C00060000FBE2093600080E00E940B090E94F0
:1048D0004F2483B7817F846083BF83B7816083BFA8
:1048E0007894889583B78E7F83BF0FB6F894A89588
:1048F00080916000886180936000109260000FBE1C
:1049000008950895CF930E9423050E94CC050E942C
:104910008124C0E08C2F0E941406811104C0CF5F57
:10492000CE30C1F701C081E0CF91089508950C9475
:1049300096240E94981C0E9454160E940B090C9405
:1049400097241F920F920FB60F9211248F939F936B
:10495000AF93BF9380912503811113C080919B0376
:1049600090919C03A0919D03B0919E034196A11D3F
:10497000B11D80939B0390939C03A0939D03B093E0
:104980009E03BF91AF919F918F910F900FBE0F909B
:104990001F90189582E084BD93E095BD9AEF97BD76
:1049A00080936E0008952FB7F89480919B039091A7
:1049B0009C03A0919D03B0919E032FBF0895CF92B9
:1049C000DF92EF92FF920F931F932FB7F8944091CD
:1049D0009B0350919C0360919D0370919E032FBF98
:1049E0006A017B01EE24FF248C0120E030E0C01638
:1049F000D106E206F30610F4415051099A01281B32
:104A0000390BC9011F910F91FF90EF90DF90CF906C
:104A1000089578941F920F920FB60F9211248F93DE
:104A20009F93AF93BF9380919B0390919C03A09120
:104A30009D03B0919E030196A11DB11D80939B0320
:104A400090939C03A0939D03B0939E03BF91AF915D
:104A50009F918F910F900FBE0F901F901895F89413
:104A600081E08093E00080E28093D800E9ECF0E000
:104A700010828FE19EE40197F1F700C000001DBA9B
:104A8000109268001CBC10BE1FBA10927A001092DF
:104A90006E0010926F0010927100109272001082DE
:104AA000ECEBF0E0108214B817B81AB81DB810BAC1
:104AB000108215B818B81BB81EB811BA0C94003F74
:104AC00008950E945123811102C00E94BF230E94B9
:104AD0005C23809324030E94642390E09093A003BE
:104AE00080939F030E946023682F70E080E090E035
:104AF0000C9473208091290380FF0BC060911401F6
:104B000085E0689FB0011124759567957595679547
:104B10002BC081FF09C06091140185E0689FB0013E
:104B200011247595679520C082FF07C0609114011C
:104B300085E0689FB001112417C090912A03992342
:104B4000D1F060911301961788F72091140185E048
:104B5000289F90011124929FA001939F500D112432
:104B600070E0CA010E9424326038710540F461157A
:104B7000710539F002C065E070E0862F08958FE777
:104B8000089581E008958091290380FF08C0609115
:104B9000120170E0759567957595679521C081FF45
:104BA00006C06091120170E07595679519C082FF8B
:104BB00004C06091120170E010C090912A03992303
:104BC000C1F0609111019617A0F780911201899FA1
:104BD000C001112470E00E9424326038710528F46D
:104BE0006115710521F0862F08958FE7089581E002
:104BF000089561E070E0F4CF803F21F40E947A25AF
:104C0000819504C0813F29F40E947A2580932E0368
:104C10000895823F21F40E947A25819504C0833F44
:104C200029F40E947A2580932D030895893F19F471
:104C30000E94C32505C08A3F31F40E94C325819597
:104C400080932F0308958B3F21F40E94C325819503
:104C500004C08C3F29F40E94C3258093300308953B
:104C6000843F21F480912C03816017C0853F21F49B
:104C700080912C03826011C0863F21F480912C0327
:104C800084600BC0873F21F480912C03886005C0AD
:104C9000883F31F480912C03806180932C03089528
:104CA0008D3F21F48091290381600BC08E3F21F458
:104CB00080912903826005C08F3F29F480912903E8
:104CC0008460809329030895803F39F480912E03F6
:104CD00087FF6CC010922E0369C0813F29F4809138
:104CE0002E031816BCF362C090912D03823F29F465
:104CF00097FF5CC010922D0359C0833F19F4191619
:104D0000CCF354C0893F41F480912F0318160CF066
:104D10004DC010922F034AC08A3F29F480912F037F
:104D200087FF44C0F6CF8B3F39F48091300387FF73
:104D30003DC0109230033AC08C3F29F4809130037B
:104D40001816BCF333C0843F21F480912C038E7F6E
:104D500017C0853F21F480912C038D7F11C0863FC1
:104D600021F480912C038B7F0BC0873F21F480912D
:104D70002C03877F05C0883F31F480912C038F7E00
:104D800080932C0313C08D3F21F4809129038E7FE3
:104D90000BC08E3F21F4809129038D7F05C08F3F8A
:104DA00029F4809129038B7F8093290380912D031F
:104DB00081110EC080912E0381110AC080912F03B2
:104DC000811106C080913003811102C010922A0324
:104DD00008958BE293E00E947A160E94D324909368
:104DE00027038093260308951F93CF93DF93809129
:104DF0002603909127030E94DF24AC0190912A039F
:104E0000992321F02091150130E006C0209128035C
:104E10008AE0289F900111244217530708F47BC0B1
:104E200080912D03C0912E03D0912F031091300358
:104E3000811107C0C1116BC0D11169C0111167C0C8
:104E40006AC09F3F19F09F5F90932A03181624F4BD
:104E50000E947A2580932D0380912D0387FF05C042
:104E60000E947A25819580932D031C1624F40E94BC
:104E70007A2580932E0380912E0387FF05C00E9420
:104E80007A25819580932E0330912D033323E1F011
:104E900020912E032223C1F045EB3403C0011124DD
:104EA000892F990F990B009709F481E080932D03C6
:104EB00035EB2303C0011124892F990F990B00971B
:104EC00009F481E080932E031D1624F40E94C3256B
:104ED00080932F0380912F0387FF05C00E94C32575
:104EE000819580932F03111624F40E94C32580938B
:104EF00030038091300387FF05C00E94C325819550
:104F000080933003DF91CF911F910C94E9269F3F4E
:104F100009F099CFA1CFDF91CF911F910895EBE2D6
:104F2000F3E086E0DF011D928A95E9F710922A03EB
:104F30001092290308958091510308950F931F93B0
:104F4000CF93DF9300D01F92CDB7DEB78C010E94C4
:104F50000E2A823011F0843021F584E089831B838E
:104F60000A8382E08093E9008FEF9091E8008150FE
:104F700095FD06C095ED9A95F1F700008111F5CFEA
:104F80008091E80085FF0DC040E050E063E070E0F4
:104F9000CE0101960E942B2A8091E8008E778093A3
:104FA000E8000F900F900F90DF91CF911F910F911C
:104FB0000895CF93DF9300D01F92CDB7DEB7209135
:104FC000A503243031F523E02983805891099B8380
:104FD0008A8382E08093E9008FEF9091E80081500E
:104FE00095FD06C095ED9A95F1F700008111F5CF7A
:104FF0008091E80085FF0DC040E050E063E070E084
:10500000CE0101960E942B2A8091E8008E77809332
:10501000E8000F900F900F90DF91CF910895CF93FC
:10502000DF93EC010E940E2A823011F08430F9F4F3
:1050300082E08093E9009FEF8091E800915085FD28
:1050400006C085ED8A95F1F700009111F5CF8091AA
:10505000E80085FF0CC040E050E066E070E0CE0163
:105060000E942B2A8091E8008E778093E800DF91E0
:10507000CF910895CF93DF93EC010E940E2A8230E6
:1050800011F08430D9F580912001882339F0809186
:105090009F0387FF03C060E282E002C068E081E016
:1050A0008093E9008FEF9091E800815095FD06C054
:1050B00095ED9A95F1F700008111F5CF8091E80008
:1050C00085FF1CC080912001811105C040E050E0A7
:1050D00068E070E003C070E040E050E0CE010E9464
:1050E0002B2A8091E8008E778093E80080E2FE0111
:1050F000A1E3B3E001900D928A95E1F7DF91CF91A2
:1051000008958091A403811109C00E94C02B0E94C0
:105110001D2C8091E20084608093E200089510923B
:10512000A4030895089508950C94992442E061EC35
:1051300081E00E943A2B42E261EC82E00C943A2B2F
:105140008091A703833009F460C030F4813071F09E
:10515000823009F499C008958A3009F485C08B30F3
:1051600009F46BC0893009F0A7C020C08091A60364
:10517000813A09F0A1C08091E800877F8093E80020
:105180008091AA039091AB03892B21F460E281E323
:1051900093E003C060E080E090E070E00E94762A37
:1051A0008091E8008B778093E80008958091A603B2
:1051B000813209F081C08091AA039091AB030297DC
:1051C00008F07AC08091E800877F8093E8008091A2
:1051D000E80082FD05C08091A5038111F8CF6CC065
:1051E0002091F3008091F20090E0922B029729F435
:1051F0008091F1008B7F813021F48091F1008093C8
:1052000051038091E8008B7753C08091A603813AC7
:1052100009F052C08091AA039091AB03892B09F049
:105220004BC08091E800877F8093E8008091E80080
:1052300080FFFCCF8091200136C08091A60381328F
:10524000D9F58091AA039091AB03892BA9F58091A0
:10525000E800877F8093E8000E946F2B8091A8036D
:10526000809320010C94981C8091A603813221F533
:105270008091E800877F8093E8000E946F2B8091E7
:10528000A9038093520308958091A603813AA1F463
:105290008091E800877F8093E8008091E80080FF9C
:1052A000FCCF809152038093F1008091E8008E77CB
:1052B0008093E8000C946F2B089584B7877F84BF98
:1052C0000FB6F894A8958091600088618093600083
:1052D000109260000FBE80E8809361001092610020
:1052E0000E94BC160E94C02B0E941D2C8091E200DF
:1052F00084608093E20078940E94AC2E0E94C216D3
:1053000086E191E00E944F168091A503853069F4F3
:105310000E9451248091A3038823B1F30E94822428
:10532000882391F30E94152AEFCF0E94CA160E948B
:105330004915EACF0C949C29292F332723303105B6
:10534000C9F064F42130310581F02230310509F0D3
:105350004CC08BE390E029E837E04BC021323105A7
:1053600021F12232310589F140C082E190E024EC44
:1053700037E03FC099278130910571F02CF4892BDB
:10538000A1F5E5E8F7E00DC08230910541F0039703
:1053900061F5EFE4F7E005C0EDE6F7E002C0E5E512
:1053A000F7E0849190E09F0124C06115710541F000
:1053B00061307105D1F489E090E024EB37E019C049
:1053C00089E090E02BE937E014C06115710541F0E8
:1053D0006130710551F480EC90E026ED37E009C0B2
:1053E00080E490E026E938E004C080E090E020E02E
:1053F00030E0FA013183208308950895CF93C82FB8
:105400000E94FD29C0935303CF9108958091A50375
:10541000843011F081E0089582E008958091530373
:10542000811102C00C94062A089580E189BD82E1B1
:1054300089BD09B400FEFDCF8091D8008F7D809397
:10544000D8008091E00082608093E0008091E000CD
:1054500081FDFCCF0895CF92DF92EF92FF920F93E0
:105460001F93CF93DF93EC018B016A010E948E2B77
:10547000811133C0C114D10439F0F60180819181CA
:10548000081B190BC80FD91FE12CF12C01151105B0
:1054900019F18091E80085FD16C08091E8008E77B3
:1054A0008093E800C114D10449F0F6018081918114
:1054B000E80EF91EF182E08285E00FC00E948E2B7B
:1054C000882321F30AC089918093F10001501109CA
:1054D000FFEFEF1AFF0ADACF80E0DF91CF911F9143
:1054E0000F91FF90EF90DF90CF9008952091AC0343
:1054F0003091AD032617370748F06115710539F46F
:105500002091E8002E772093E80001C0B90140E027
:1055100061157105A9F12091A503222309F443C067
:10552000253009F442C02091E80023FD40C02091BD
:10553000E80022FD32C02091E80020FFE9CF409131
:10554000F3002091F20030E0342BFC01CF01611513
:10555000710559F02830310540F481918093F100B4
:10556000615071092F5F3F4FF1CF41E02830310585
:1055700009F040E02091E8002E772093E800C8CFA2
:105580004111C9CF0AC08091A503882361F08530FD
:1055900061F08091E80083FD0AC08091E80082FFFD
:1055A000F2CF80E0089582E0089583E0089581E0DD
:1055B00008952091AC033091AD032617370748F0CA
:1055C0006115710539F42091E8002E772093E800E9
:1055D00001C0B901FC0120E06115710591F18091D4
:1055E000A503882309F440C0853009F43FC08091A9
:1055F000E80083FD3DC08091E80082FD2FC08091CE
:10560000E80080FFE9CF2091F3008091F20090E064
:10561000922B6115710559F08830910540F4249161
:105620002093F1003196615071090196F2CF21E08B
:10563000089709F020E08091E8008E778093E800D9
:10564000CBCF2111CCCF0AC08091A503882361F074
:10565000853061F08091E80083FD0AC08091E80008
:1056600082FFF2CF80E0089582E0089583E00895FC
:1056700081E00895982F973058F59093E900981796
:1056800039F07091EC002091ED005091F00003C0D2
:10569000242F762F50E021FF19C03091EB003E7F80
:1056A0003093EB003091ED003D7F3093ED00309171
:1056B000EB0031603093EB007093EC002093ED0031
:1056C0005093F0002091EE0027FF07C09F5FD3CFDB
:1056D0008F708093E90081E0089580E008958091C3
:1056E000A60387FF11C08091E80082FD05C080916C
:1056F000A5038111F8CF11C08091E8008B770BC012
:105700008091A503882349F08091E80080FFF8CFBD
:105710008091E8008E778093E80008952091E4005E
:105720003091E50095E64091EC00842F817040FFB8
:1057300022C08091E80080FD1CC08091A5038823D1
:1057400091F0853091F08091EB0085FD10C0409183
:10575000E4005091E5004217530729F39A01915054
:1057600011F784E0089582E0089583E0089581E0D0
:10577000089580E008954091E80042FFDECF08954B
:105780000E942E2C0E94362CE0EEF0E08081816099
:105790008083E8EDF0E080818F77808319BCA7EDEE
:1057A000B0E08C918E7F8C9380818F7E808310926D
:1057B000A40308950F931F93CF93DF930E942E2C81
:1057C0000E94362CC8EDD0E088818F77888388814D
:1057D0008068888388818F7D888319BC1092A50397
:1057E0001092A1031092A3031092A20300EE10E006
:1057F000F80180818B7F808388818160888342E08B
:1058000060E080E00E943A2BE1EEF0E080818E7F44
:105810008083E2EEF0E08081816080838081886017
:105820008083F80180818E7F808388818061888376
:10583000DF91CF911F910F910895E8EDF0E0808105
:105840008F7E8083E7EDF0E080818160808384E05B
:1058500082BF81E08093A4030C94DA2BE8EDF0E0A2
:1058600080818E7F80831092E20008951092DA008A
:105870001092E10008951F920F920FB60F9211241B
:105880002F933F934F935F936F937F938F939F9348
:10589000AF93BF93EF93FF938091E10082FF0BC022
:1058A0008091E20082FF07C08091E1008B7F8093AE
:1058B000E1000E94AB2E8091DA0080FF1FC0809132
:1058C000D80080FF1BC08091DA008E7F8093DA00C1
:1058D0008091D90080FF0DC080E189BD82E189BD42
:1058E00009B400FEFDCF81E08093A5030E948128CA
:1058F00005C019BC1092A5030E948F288091E10079
:1059000080FF19C08091E20080FF15C08091E20005
:105910008E7F8093E2008091E20080618093E200BC
:105920008091D80080628093D80019BC85E0809374
:10593000A5030E9493288091E10084FF30C08091EC
:10594000E20084FF2CC080E189BD82E189BD09B4F9
:1059500000FEFDCF8091D8008F7D8093D80080918C
:10596000E1008F7E8093E1008091E2008F7E809342
:10597000E2008091E20081608093E2008091A103C7
:10598000882311F084E007C08091E30087FD02C006
:1059900081E001C083E08093A5030E949428809158
:1059A000E10083FF29C08091E20083FF25C0809140
:1059B000E100877F8093E10082E08093A50310924D
:1059C000A1038091E1008E7F8093E1008091E2004D
:1059D0008E7F8093E2008091E20080618093E200FC
:1059E00042E060E080E00E943A2B8091F000886005
:1059F0008093F0000E949228FF91EF91BF91AF91A8
:105A00009F918F917F916F915F914F913F912F91D6
:105A10000F900FBE0F901F9018951F920F920FB608
:105A20000F9211242F933F934F935F936F937F9324
:105A30008F939F93AF93BF93CF93DF93EF93FF9396
:105A4000C091E900CF708091EC00D82FD17080FD1B
:105A5000D0E81092E9008091F000877F8093F000F9
:105A600078940E94512D1092E9008091F000886096
:105A70008093F000CD2BCF70C093E900FF91EF91A0
:105A8000DF91CF91BF91AF919F918F917F916F9156
:105A90005F914F913F912F910F900FBE0F901F90EC
:105AA00018951F93CF93DF93CDB7DEB7AA970FB6A4
:105AB000F894DEBF0FBECDBFE6EAF3E088E08E0FBC
:105AC0009091F10091938E13FBCF0E94A0288091BA
:105AD000E80083FF28C18091A6039091A703492F76
