:100000000C9408050C9425050C9425050C942505E5
:100010000C9425050C9425050C9425050C942505B8
:100020000C9425050C9425050C94BF2E0C94912F4F
:100030000C9432270C9425050C9425050C94250569
:100040000C9425050C9425050C9425050C94250588
:100050000C9425050C949A270C9425050C942505E1
:100060000C9425050C9425050C9425050C94250568
:100070000C9425050C9425050C9425050C94250558
:100080000C9425050C9425050C9425050C94250548
:100090000C9425050C9425050C9425050C94250538
:1000A0000C9425050C9425050C9425057B057E05EF
:1000B0008105840587058A058D0535083B084208BA
:1000C0004D085A08670872087F088B089708A3082C
:1000D000AF08DB08DE08E108E408E908F008EE08EC
:1000E000B80ABA0AC50ABC0ABE0AC00AC20AC40AC9
:1000F000C70AC90ACB0AD60ACD0ACF0AD10AD30A3F
:10010000D50AD80AE41BE41B161C161C4D1C6D1CDA
:10011000D61D341EAF1C341E5C1D5C1DCD1D341E4F
:10012000341E2E1E691D691D691D691D691D691D0D
:10013000691D691D691D691D691D691D691D691D8F
:10014000691D691D7A1D871D8E1D951D9F1DBF1E72
:10015000BF1ED11ED11EC81ED11ED11ED11EBF1E54
:10016000BF1ECD1ED11ED11ECD1EFE2F2530173134
:1001700025301731713094301731EA30F930076388
:100180004236B79BD8A71A39685618AEBAAB558C09
:100190001D3CB7CC5763BD6DEDFD753EF617723152
:1001A000BF000000803F05A84CCDB2D44EB9383610
:1001B000A9020C50B9918688083CA6AAAA2ABE00BA
:1001C0000000803F6572676F646F785F657A2F62A9
:1001D00031613464623438636162626164656532DE
:1001E000356563204020302E362E3332352D3730A2
:1001F0002D67306130346130000000F0A12B042BFA
:10020000002943E100E10000001801140004001D72
:1002100000E000055318011A0016001B00E200045C
:10022000010501080007000600E3002C6209011522
:10023000000900190002540100010017000A00051E
:100240000000000100010049010000010000000160
:100250000043004902000001000000010043001CAF
:10026000000B00110000000100080118000D001033
:1002700000015401001C010C000E003600E6002CA9
:1002800062070112000F003700E20065000701134A
:100290000033613843E400055101002A002800E5DD
:1002A00000E5000000010001000100010001000064
:1002B0000001001E00350064000100010001001F64
:1002C0000023023200010001000100200023020689
:1002D00001010001000100210034001901010001A9
:1002E0000001002200656F0007000001000100010D
:1002F00000000001000000010001000100000001F9
:10030000000000010001002300656F0007000001EC
:1003100000010024002D004900010001000100251A
:10032000002E002F0101000100010026002F0030E7
:10033000010100010001002700300031000100012F
:1003400000010001000100010001000000010001A6
:1003500000010001000100000001003A00E100403E
:10036000000100010001003B00E00041000100012C
:100370000001003C00E20042000100010001003DDC
:1003800000E30043000100010001003E00656F44EE
:100390000000000100010001000000010000000158
:1003A0000001000100000001000000010001003F09
:1003B00000656F45000000010001004A0050004E3A
:1003C00000010001000100520051004B000100013A
:1003D0000001004D004F0068000100010001002AEB
:1003E000004C006900010001000100010001000152
:1003F00000010000000100010001000100010000F7
:100400000001004600F5000100010001000100F5B7
:1004100000F200F900010001000100F000F100F617
:1004200000010001000100A800F300FA0001000132
:10043000000100A900AA00F4000000010001000171
:1004400000000001000000010001000100000001A7
:1004500000000001000100A900AA00F40000000152
:10046000000100A800F200FA00010001000100F004
:1004700000F100F600010001000100F500F300F9B1
:10048000000100010001004600F50001000100012B
:100490000001001450010015500100000029002B3C
:1004A00000E100E000105000001E00140004001DD8
:1004B00000E20001001F001A0016001B003D002C86
:1004C0000020000800070006003D002C0021001558
:1004D00000090019003D000100220017000A000574
:1004E000000000010023002B0000002B0000000191
:1004F0000034002B0000002B000000010023001C32
:10050000000B00110000000100240018000D001075
:10051000000100010025000C000E00360031000132
:1005200000260012000F0037005000E300270013E0
:1005300000330052005100010010502A00280038FA
:10054000004F000000105001000100010010500099
:10055000000100F35CF85C0100010001000100F4FF
:100560005CF95C0100010001000100F55CFA5C012E
:1005700000010001000100F65CFB5C0100010001CC
:10058000000100F75CFC5C010000000100010001BB
:100590000000000100000001000100010000000156
:1005A0000000000100010001000100010000000145
:1005B000000100C55CC25CC95C010001000100C60D
:1005C0005CC35CCA5C0100010001000100F25C0137
:1005D0000001000100010001000100010001000113
:1005E000001050A500A600A7001050000000000059
:1005F00000000000002A2B2800000000000000007E
:10060000000000000000000029000000002C1E3443
:1006100020212224342627252E362D3738271E1F49
:10062000202122232425263333362E37381F040574
:10063000060708090A0B0C0D0E0F101112131415E2
:10064000161718191A1B1C1D2F3130232D350405C0
:10065000060708090A0B0C0D0E0F101112131415C2
:10066000161718191A1B1C1D2F3130354C000000AD
:10067000000000000000000000000000000000007A
:10068000000000000000000000000000000000006A
:10069000000000000000000000000000000000005A
:1006A000000000000000000000000000000000004A
:1006B000000000000000000000000000000000003A
:1006C000000000000000000000000000000000002A
:1006D000000000000000000000000000000000001A
:1006E000000000000000000000000000000000000A
:1006F00000000000000000000000000000000000FA
:1007000000000000000000000000000000000101E7
:1007100001010101000101010100000000000000D1
:1007200000000000000000010001000101010101C2
:1007300001010101010101010101010101010101A9
:10074000010101010101010100000001010000009F
:100750000000000000000000000000000000000099
:100760000000000000000000010101010000047F02
:100770003F1F643214643214783C1E1E140A05684C
:1007800001F000B40078005A0000000000000101F0
:100790000101010101010102020202020202020240
:1007A000030303030303030304040404040405050F
:1007B00005050506060606060707070708080808D0
:1007C0000909090A0A0A0A0B0B0B0C0C0C0D0D0D7A
:1007D0000E0E0F0F0F10101111111212131314140B
:1007E000151516161717181819191A1A1B1C1C1D7F
:1007F0001D1E1F1F202021222223242525262727D6
:1008000028292A2B2B2C2D2E2F2F30313233343503
:1008100036363738393A3B3C3D3E3F40414243440F
:10082000464748494A4B4C4D4F50515253555657E5
:10083000585A5B5C5E5F606263646667696A6C6D90
:100840006E707173747678797B7C7E808183848608
:10085000888A8B8D8F91929496989A9B9D9FA1A345
:10086000A5A7A9ABADAFB1B3B5B7B9BBBDBFC1C447
:10087000C6C8CACCCFD1D3D6D8DADCDFE1E4E6E80B
:10088000EBEDF0F2F5F7FAFCFF0403300000001680
:10089000034500720067006F0044006F007800207D
:1008A0000045005A00000016034500720067006F03
:1008B0000044006F007800200045005A000000044A
:1008C00003090409023B00020100A0FA0904000028
:1008D0000103010100092111010001224000070567
:1008E000810308000A090401000103000000092136
:1008F0001101000122C0000705820320000A120135
:10090000100100000008EDFE0713010001020301C1
:1009100005010902A10185020901A10005091901CA
:1009200029051500250195057501810295017503BD
:1009300081010501093009311581257F950275086E
:10094000810609381581257F950175088106050CFA
:100950000A38021581257F950175088106C0C005FA
:10096000010980A10185031601002603001A8100F8
:100970002A8300751095018100C0050C0901A101B1
:100980008504160100269C021A01002A9C0275109B
:1009900095018100C005010906A10185050507191A
:1009A000E029E71500250195087501810205081960
:1009B00001290595057501910295017503910105C0
:1009C00007190029EF1500250195F075018102C076
:1009D00005010906A101050719E029E71500250110
:1009E00095087501810295017508810105081901B5
:1009F000290595057501910295017503910105077A
:100A0000190029FF150026FF00950675088100C012
:100A100011241FBECFEFDAE0DEBFCDBF11E0A0E0B2
:100A2000B1E0ECE8FCE602C005900D92A03DB107F4
:100A3000D9F723E0A0EDB1E001C01D92AD36B207B9
:100A4000E1F70E94E12B0C9444360C94000080B333
:100A50008C7080BB81B3836F81BB089584B1807F2C
:100A600084B985B1807F85B98AB1837F8AB98BB11A
:100A7000837F8BB93E9846980895CF93E82F8730AF
:100A800080F58091060190910701892B09F047C0FC
:100A9000CE2F64E670E080E40E9485069093070103
:100AA00080930601892BD1F464E670E082E10E9414
:100AB000DC069093070180930601892B79F481E08D
:100AC00090E001C0880FCA95EAF764E670E080956F
:100AD0000E94DC069093070180930601CF910C944D
:100AE000310790E0FC013797E730F105C0F4EA5A8E
:100AF000FF4F0C94BC34209A289811C0219A299851
:100B00000EC0229A2A980BC0239A2B9808C0529A9A
:100B10005A9805C0539A5B9802C03E9A4698CF9166
:100B20000895CF93873008F03FC0809106019091DF
:100B30000701892B09F041C064E670E080E40E945F
:100B400085069093070180930601892B11F0C0E080
:100B500027C064E670E083E10E94DC069093070101
:100B600080930601892B99F764E670E081E40E9486
:100B700085069093070180930601892B41F784E64F
:100B800090E00E940C0797FF05C0909307018093A7
:100B90000601DDCFC82FC095109207011092060103
:100BA0000E9431078C2F0AC09FB18FB1807F86953C
:100BB00086959370892B809501C080E0CF91089530
:100BC000089508950C94E1050E94A30790E0909386
:100BD0000701809306010E942E050E942705AFEDB4
:100BE000B1E0E1EDF1E08EE08E0F11921D928E13D7
:100BF000FCCF8EE00E94400F0C94100A0E94A307C5
:100C000090E090930701809306010E942E050E94B8
:100C10002705E1EDF1E08EE08E0F11928E13FDCFEE
:100C20000895CF92DF92EF92FF920F931F93CF938D
:100C3000DF938091060190910701892B91F08091BB
:100C4000D0018F5F8093D00181110BC00E94A30758
:100C500090E09093070180930601892B11F40E9484
:100C600035079FEDE92E91E0F92E06EE11E0C0E088
:100C7000D12C87E0C82ECC0E8C2F0E943D058C2DE8
:100C80000E943D058C2F0E949105F70190819817D5
:100C900019F08083D1E001C0D0E08C2D0E94910535
:100CA000F8019081981719F0808381E001C080E0FD
:100CB000D82BDD2A0E942E05CF5FFFEFEF1AFF0A27
:100CC0000F5F1F4FC730A9F62D2D4EE061ED71E08B
:100CD0008FED91E00E94AC0F0E941A0A81E0DF9133
:100CE000CF911F910F91FF90EF90DF90CF900895DB
:100CF000E82FF0E0EF52FE4F8081089508951092A2
:100D0000B9008CE08093B8000895EF92FF920F93A2
:100D10001F93CF93DF93182FEB011092BC0084EA4E
:100D20008093BC000E9464277C019091BC0097FDD9
:100D30000EC0CF3F8FEFD807C1F30E9464278E19F2
:100D40009F098C179D0788F38EEF9FEF2EC090911F
:100D5000B900987F983041F09091B900987F903118
:100D600019F08FEF9FEF21C01093BB0084E88093B0
:100D7000BC000E9464278C019091BC0097FD0CC0C0
:100D8000CF3F8FEFD807C1F30E946427801B910BE0
:100D90008C179D0788F3D8CF8091B900887F883160
:100DA00011F08034F1F680E090E0DF91CF911F9157
:100DB0000F91FF90EF9008950F931F93CF93DF93C0
:100DC000EB018093BB0084E88093BC000E94642701
:100DD0008C019091BC0097FD0EC0CF3F8FEFD807DC
:100DE000C1F30E946427801B910B8C179D0788F329
:100DF0008EEF9FEF0CC02091B900287F81E090E03A
:100E0000283211F480E090E0919581959109DF916D
:100E1000CF911F910F9108950F931F93CF93DF935D
:100E2000EC0184E88093BC000E9464278C019091BF
:100E3000BC0097FD0EC0CF3F8FEFD807C1F30E94D3
:100E40006427801B910B8C179D0788F38EEF9FEF13
:100E500003C08091BB0090E0DF91CF911F910F9173
:100E6000089584E98093BC00089556985E9825986B
:100E70002D9826982E9827982F988FEF90E0909392
:100E800089008093880090938B0080938A009093D0
:100E90008D0080938C00259A2D9A2FEF80E792E0A9
:100EA000215080409040E1F700C00000269A2E9A21
:100EB0002FEF80E792E0215080409040E1F700C0A2
:100EC0000000279A2F9A2FEF80E792E02150804070
:100ED0009040E1F700C0000025982D982FEF80E7A3
:100EE00092E0215080409040E1F700C00000269839
:100EF0002E982FEF80E792E0215080409040E1F75C
:100F000000C0000027982F9856985E9825982D9835
:100F100026982E9827982F98089589EA8093800024
:100F200089E08093810024982C983F988AB18F7C27
:100F30008AB96E98479A8BB180638BB9769A0E9472
:100F400035070C94E00580E290E0909307018093D0
:100F500006018091ED0181110EC00E947F0681E0A3
:100F60008093ED012FEF83ED90E32150804090407E
:100F7000E1F700C0000064E670E080E40E948506AE
:100F80009093070180930601892B09F04EC064E617
:100F900070E080E00E94DC069093070180930601D8
:100FA000892B09F042C064E670E080E00E94DC0614
:100FB0009093070180930601892BB9F564E670E0F0
:100FC0008FE30E94DC069093070180930601892B32
:100FD00061F50E94310764E670E080E40E948506B6
:100FE0009093070180930601892BF9F464E670E081
:100FF0008CE00E94DC069093070180930601892B08
:10100000A1F464E670E080E00E94DC0690930701A2
:1010100080930601892B49F464E670E08FE30E9417
:10102000DC0690930701809306010E9431078091AE
:1010300006010895611108C0FC018281882321F016
:1010400084EC91E00E940D0A80E090E00895FC019C
:10105000E15FFC45EC30F10508F090C0DB01E35A9C
:10106000FF4F12968C910C94BC34882309F487C0EE
:101070000E94502681C0882309F481C081E00E942B
:10108000E7137AC0882309F47AC00E94EA1381E04A
:101090000E94E7134DEC60E02FC0882309F46FC075
:1010A0000E94EA1381E00E94E7134BEB66E68CE2B4
:1010B00090E060C0882309F462C00E94EA1381E0D6
:1010C0000E94E7134FEF6FEF86E290E053C0882352
:1010D00009F455C00E94EA1381E00E94E7134FEF24
:1010E0006FEF0AC0882309F44AC00E94EA1381E026
:1010F0000E94E71349E867EC80E090E03BC088235A
:10110000F1F10E94EA1381E00E94E7134FEF6FEFC5
:1011100084E291E02FC0882391F10E94EA1381E0DC
:101120000E94E71340E86FEF8CE291E023C0882330
:1011300031F10E94EA1381E00E94E71340E86FEF6B
:1011400088E790E017C08823D1F00E94EA1381E07D
:101150000E94E7134FEF6DED88EB90E00BC0882302
:1011600071F00E94EA1381E00E94E7134FEF6FEFE6
:1011700080EF90E00E947D1380E0089581E0089563
:10118000CF92DF92EF92FF926B017C010E94862545
:1011900056985E9825982D9826982E9827982F98DF
:1011A000482F50E0FA013197E730F105F0F4E759A4
:1011B000FF4F0C94BC34259A2D9A52C0269A2E9A31
:1011C00078C0279A2F9A56C0259A2D9A269A2E9A39
:1011D0005BC0259A2D9A279A2F9A60C0259A2D9A3E
:1011E000269A2E9A279A2F9A64C0833009F442C017
:1011F00028F4882351F0813099F15BC0843009F4E0
:1012000043C0853009F44AC054C00E946211609303
:101210000F0370931003809311039093120360FFE8
:101220001CC00E94EA1380910F0386958F730E9461
:10123000E71380910F03881F8827881F9091100360
:10124000292F220F97FB992790F940911203609163
:101250001103822B0E947D132CC00E94391429C0D7
:101260000E94301481E00E94F3134FEF6FEF84EB84
:1012700090E01DC00E94301481E00E94F3134BEBFC
:1012800066E68CE290E013C00E94301481E00E9478
:10129000F3134FEF6FEF80E090E009C00E9430142D
:1012A00081E00E94F3134FEF6FEF86E290E00E941F
:1012B0008013C701B601FF90EF90DF90CF900895A3
:1012C00081E008950C9427081F93CF93DF9300D0FB
:1012D00000D01F92CDB7DEB749835A8320913C02DC
:1012E00089819A81211112C0662349F00E94E52369
:1012F000182F682F89819A810E94882303C00E9439
:10130000B823182F69817A81812F04C00E94E523B8
:1013100069817A810F900F900F900F900F90DF915D
:10132000CF911F910C94C10CFC01408151816281CD
:10133000738184810C9464091F93CF93DF93282FCA
:1013400030E0F901E351FA4F1491F901E351F94FFB
:10135000E491C1E0E11101C0C0E0F901E359F94FA6
:101360002491D1E0211101C0D0E0CC2319F081EE0D
:101370000E94141ADD2319F086EE0E94141A812FA0
:101380000E949A1BDD2319F086EE0E94321BCC23AB
:1013900031F081EEDF91CF911F910C94321BDF91E0
:1013A000CF911F9108950F931F93CF93DF93EC017B
:1013B000062FFE018491882359F19E012F5F3F4F34
:1013C000813041F4E901F9011491812F0E94141A2E
:1013D000812F0DC0823031F4E901F90184910E941E
:1013E000141A0AC0833031F4E901F90184910E9492
:1013F000321B02C00E949C092196802F8823C9F2CB
:10140000EFE9FFE03197F1F700C000008150F6CF1F
:10141000DF91CF911F910F91089560E00C94D30953
:101420000E94D625811102C00E9450260E940410FD
:101430000C948D070C94E205282F2F7041F0822F19
:1014400090E02A3010F44D9608950697089587E2AB
:1014500090E0089508950C942A0A0C942B0A08959C
:101460000E94AF1E0E942F0A2FEF84E39CE02150C0
:1014700080409040E1F700C000000C94C0270F931B
:101480001F93CF93DF938C010E949409EC01B80164
:101490000E946209882309F46DC2B801CE010E943E
:1014A0008310882309F466C2CC3CFCE5DF0741F4D5
:1014B000F8018281882309F45DC20E94B0115AC2EA
:1014C000CD3C8CE5D80708F01DC1C43C9CE5D9078C
:1014D00061F4F8018281882309F44CC20E94B3248C
:1014E0008272E1F40E94E41345C2C53CECE5DE07DC
:1014F00008F0C6C0C531FCE5DF0798F0C23CFCE54A
:10150000DF0709F48BC008F491C0F80182818823B9
:1015100009F430C20E94B324827221F70E94D613CC
:1015200029C2C2308CE5D80708F452C0F801828184
:10153000882309F459C00E94D625811102C00E9457
:1015400050260E94E92590E090935B0380935A0314
:10155000FE01E350FC45E231F10530F4E059FF4F64
:1015600080915A030C94BC3480915A03816027C047
:10157000826025C0846023C0806121C080621FC05A
:1015800080641DC080681BC08460886018C08E7F26
:1015900016C08D7F14C08B7F12C08F7E10C08F7DD0
:1015A0000EC08F7B0CC08F770AC08B7F877F07C0F0
:1015B00087FB222720F991E0922790FB87F98093FF
:1015C0005A0380915A030E94ED250E94AF1ED2C19A
:1015D000C1159CE5D90779F0C130DC45A1F081E067
:1015E0008093F3018093F401C801DF91CF911F91A3
:1015F0000F910C946009F8018281882309F4BAC123
:101600000E94300AB7C1F8018281882309F4B2C16F
:101610008091DF0281608093DF02ACC1F80182819A
:10162000882309F4A7C10E945114A4C1C631DC4526
:10163000B1F60E94B324282FF8018281409116014F
:1016400050911701882379F02A7A91E009F490E00B
:101650009093EE01911102C069E201C065E3CA01F5
:101660000E94B7260AC08091EE01811102C069E292
:1016700001C065E3CA010E94C2260E9411257AC1F9
:10168000F8018281C83CFCE5DF0731F4882309F4C6
:1016900071C10E943A136EC1C93C9CE5D907C8F4D8
:1016A000C63CECE5DE0731F4882309F463C10E94EF
:1016B0000C1360C1C73CDC4530F4882309F45AC1DF
:1016C0000E94E81257C1882309F454C10E942313D1
:1016D00051C1CA3C9CE5D90731F4882309F44AC1B9
:1016E0000E947A1347C1CB3CDC4530F4882309F4CF
:1016F00041C10E945A133EC1882309F43BC10E9494
:101700009B1138C1C43DFCE5DF0791F4F8018281EB
:10171000882309F42FC10E949211893128F00E9478
:101720009211823208F4FACE89E10E94E71322C1B5
:10173000C53D8CE5D80708F068C0F8018281C03D3E
:10174000FCE5DF0771F4882309F414C10E949211AB
:10175000893028F00E9492118E3008F4DFCE89E0A3
:10176000E4CFC13D9CE5D90740F5CE3CECE5DE0772
:1017700071F4882309F4FEC00E949211823028F08F
:101780000E949211853008F4C9CE82E0CECFCF3CC2
:10179000DC4528F4882309F4EDC081E0C6CF882316
:1017A00009F4E8C00E949211863028F00E9492113C
:1017B000883008F4B3CE86E0B8CFC23D9CE5D907A7
:1017C00071F4882309F4D6C00E949211853128F063
:1017D0000E949211873108F4A1CE85E1A6CFC33DC6
:1017E000DC4570F4882309F4C5C00E9492118F3043
:1017F00028F00E949211843108F490CE8FE095CFAA
:10180000882309F4B7C088E190CFC93DFCE5DF0724
:1018100059F5F8018281882361F01092F4010E9449
:1018200064279093F2018093F10180E20E94A21B51
:10183000A1C08091F401882321F080E20E94A91BBD
:1018400099C08091F1019091F2010E947027883C2B
:10185000910598F780E20E94A91B88E20E94141A61
:1018600088E20E94321B86C0CA3D8CE5D80708F08A
:1018700060C0C73D9CE5D90761F5F80182818823E6
:1018800051F01092F3010E9464279093F00180932D
:10189000EF0182E0CBCF0E94B32485FF05C081E039
:1018A0008093F3018093F4018091F30181110FC0C3
:1018B0008091EF019091F0010E947027883C910582
:1018C00030F486E20E94141A86E20E94321B82E003
:1018D000B5CFC83DECE5DE0710F1F801828181113A
:1018E0009CCF0E94B32481FF05C081E08093F30167
:1018F0008093F4018091F40181119FCF8091F101D7
:101900009091F2010E947027883C910508F095CFD4
:1019100087E20E94141A87E20E94321B8ECFC53DD7
:10192000DC4509F05CCEF8018281882319F183E25D
:10193000FCCECD3D8CE5D80741F4F80182818823A7
:10194000C9F082E00E94822C15C0CE3D9CE5D907EB
:1019500039F4F8018281882369F00E9450260AC078
:10196000CC3DDC4509F03BCEF8018281882311F0A3
:1019700080E0E8CF80E0DF91CF911F910F91089533
:10198000089596E0799FF001112494E5899FE00D78
:10199000F11D1124E60FF11DEE0FFF1FE350FE4F66
:1019A000859194910895880F991FFC01E750FE4F8F
:1019B000859194910895CF93DF930E94C10C0E946A
:1019C000A00EEC01811520E59207F0F5811530E4B9
:1019D000930708F029C1883E910500F5803E9105E6
:1019E00008F0AAC1883A910570F4853A910508F08B
:1019F000A4C08130910509F49FC108F450C1049737
:101A000008F09AC14CC18F3B910508F4A1C0803CFD
:101A1000910508F444C1805C9109F9C0811540E248
:101A2000940758F4C11581E0D80708F085C1C03F7C
:101A3000D10508F434C1D0657FC1811520E3920738
:101A400008F0E9C09F70E3C0811535E5930708F001
:101A500044C0811544E5940708F0FDC0C11582E536
:101A6000D80708F5C11521E5D20708F0E0C08C2F92
:101A7000837021E030E002C0220F331F8A95E2F725
:101A80003C68CE0174E0969587957A95E1F783706E
:101A9000382BCF70C695C69540E2C49FE001112453
:101AA000C22BD32B49C12C2F26952695CE018370AE
:101AB0009927C115D34508F0BFC040E2249F90018B
:101AC0001124C1E0D0E002C0CC0FDD1F8A95E2F7FF
:101AD0002C2B3D2BE901DC682FC181154AE59407C9
:101AE000A0F4C11589E5D80708F0C4C0C11526E5E2
:101AF000D20708F4B5C0C11538E5D30708F4CFC044
:101B0000DC2FCC27C06FD06A17C181159B4508F424
:101B1000C6C0C1158CE5D80708F4BEC0CE019056EA
:101B20008115904208F0BBC08D2F8F710E941D0F50
:101B3000DD27D0628F71D82BFFC0853A910509F45B
:101B4000B1C0863A910509F0B0C0C2E8D0E4F4C053
:101B5000883A910509F4ACC0893A910509F4ABC003
:101B60008A3A910509F4AAC08B3A910509F4A9C0F3
:101B70008C3A910509F4A8C08B3B910509F4A7C0E4
:101B80008C3B910509F4A6C08D3A910509F4A5C0D6
:101B9000803B910509F4A4C08E3A910509F4A3C0D5
:101BA0008F3A910509F4A2C0813B910509F4A1C0C7
:101BB000823B910509F4A0C0833B910509F49FC0C5
:101BC000843B910509F49EC0853B910509F49DC0B5
:101BD000863B910509F49CC0873B910509F49BC0A5
:101BE000883B910509F49AC0893B910509F499C095
:101BF0008D3B910509F498C08E3B910509F497C07F
:101C00008A3B910509F496C0C0E0D4E495C00E94D7
:101C1000D30CEC0191C09927D3FF03C0EC01D86C21
:101C20008BC0EC01D06C88C0DF70D06A85C0DC2F1F
:101C3000CC27C16FD06A80C040E2249F900111245C
:101C4000C1E0D0E002C0CC0FDD1F8A95E2F7C22BC5
:101C5000D32BDA6871C0D82FCC27C46FD06A6CC080
:101C60008C2F0E941D0F8F71C82FD0E0DC2FCC2746
:101C7000D06262C08C2F8F700E941D0F94E0D695A9
:101C8000C7959A95E1F7CF70D0E0DC2FCC27D06ACA
:101C90008F70806EC82B50C0DD27D0664DC0C0E06D
:101CA000D0E04AC0C1E8D0E447C0C3E8D0E444C0B3
:101CB000C2EED4E441C0C9EED4E43EC0CAEED4E4DE
:101CC0003BC0C5EBD4E438C0C6EBD4E435C0C3EBAD
:101CD000D4E432C0C4EBD4E42FC0C7EBD4E42CC0AE
:101CE000CCECD4E429C0CDECD4E426C0C3E8D5E4E0
:101CF00023C0CAE8D5E420C0C2E9D5E41DC0C4E9C8
:101D0000D5E41AC0C1E2D6E417C0C3E2D6E414C0D9
:101D1000C4E2D6E411C0C5E2D6E40EC0C6E2D6E401
:101D20000BC0C7E2D6E408C0CFE6D4E405C0C0E7E4
:101D3000D4E402C0CAE2D6E4CE01DF91CF91089587
:101D40008238910549F1B0F48133910509F458C006
:101D500048F48932910509F44EC08A32910509F49C
:101D600054C008958533910509F440C08933910525
:101D700099F00895833E910529F138F4803E91054C
:101D800091F0823E9105A1F00895863E9105F9F00B
:101D9000873E910531F1089520915A0320FD3AC004
:101DA00021FD38C0089580915A0380FD35C032C0AE
:101DB00080915A0382FF32C080915A0384FD30C063
:101DC00083EE39C080915A0382FD28C0F5CF8091FF
:101DD0005A0383FF27C080915A0384FD21C087EEF8
:101DE0002AC080915A0383FD1DC0F5CF80915A030C
:101DF00085FD1AC01BC080915A0385FD17C014C011
:101E000080915A0386FD14C015C080915A0386FD47
:101E100011C00EC080EE0FC089E30DC082EE0BC072
:101E200080E009C086EE07C089E205C085E303C0F3
:101E30008AE201C081E390E0089590915A0392FFF5
:101E40000DC0282F2871283019F4877F846006C0C0
:101E5000282F2471243011F48B7F886093FF0DC0EC
:101E6000282F2871283119F4877E846106C0282F15
:101E70002471243111F48B7E886194FD877E08954E
:101E8000CF93C82F90E00E94C2348093F6019093C4
:101E9000F701282FFC019BEF8E2F821B8C1710F46B
:101EA0009193FACFCF9108950F931F93CF93DF9320
:101EB0001092F5015091F601E52FF091F70140E005
:101EC000A62FB0E07BEFCAEFD0E09E2F951B9817AE
:101ED000D0F490819B3FA9F0292F30E0691728F0BA
:101EE0008D01021B130B980106C08E01021B130B00
:101EF00098012A0F3B1F2530310514F0708301C073
:101F000041E03196E2CF4093F501DF91CF911F91EF
:101F10000F910895CF93DF935091F6013091F50121
:101F2000DB01E52FF091F7016E2F651B641778F444
:101F30007C91EC016991CE01C081CB3F29F47617E9
:101F400019F020836C9331E031961196EDCF3093E8
:101F5000F501DF91CF910895DF92EF92FF920F93F9
:101F60001F93CF93DF9300D0CDB7DEB78C017B01F9
:101F7000D22E4A830E9464276AEF70E00E94943454
:101F8000282F8091F5014A818823D9F0622F842F70
:101F900029830E94540F29814A81DD2069F0B7010D
:101FA000C8010F900F90DF91CF911F910F91FF907B
:101FB000EF90DF900C948A0F8091F501882379F3DC
:101FC00002C0D110ECCF0F900F90DF91CF911F91F5
:101FD0000F91FF90EF90DF900895CF93DF938130C2
:101FE00020E8920768F0FB012281222349F0EC01EE
:101FF0000E941A10CE019F770E9466100E944F1017
:1020000081E0DF91CF9108958CE090E00E94FC3553
:1020100090E0A0E0B0E08093140390931503A093A8
:102020001603B09317030895609114038CE090E0B9
:102030000C9410360E94B3248093F8010E94C624A9
:1020400080911403813071F048F08230D9F08430EF
:10205000F9F486EE0E949A1B88E118C082EE0E9475
:10206000141A16C080EE0E94141A81EE0E94141AEF
:1020700088E10E949A1B81EE0E94321B80EE0E9432
:10208000321B06C082EE0E94141A87E50E949A1B3A
:102090008FE39CE90197F1F700C00000089580915B
:1020A0001403813039F040F0823031F0843051F443
:1020B00088E206C08CE204C082EE0E94321B02C09D
:1020C0000E949A1B8091F8010C94C3240F931F93D4
:1020D000CF93DF938C01CCE0D0E0C8010C2E02C07E
:1020E000969587950A94E2F78F700E941C0A0E94C9
:1020F0009A1B2497CC3F8FEFD80779F7DF91CF91C8
:102100001F910F9108950F931F93CF93DF93EC01CD
:102110008B01FB018281882319F1C33EFCE5DF07B7
:10212000C1F050F4C13EECE5DE0781F0C23EFCE5B3
:10213000DF07B1F481E010C0C43E8CE5D80759F048
:10214000C53EECE5DE0761F484E006C0109214039E
:1021500005C082E001C083E0809314030E94141044
:10216000B801CE01DF91CF911F910F910C94ED0F2B
:10217000EF92FF920F931F93CF93DF93E9016623B2
:1021800009F44BC0242F30E0EFEFF0E0E61BF1093B
:10219000B901E69F9001E79F300DF69F300D1124A5
:1021A000232F8B01031B11095CE3E52EF12CB701F2
:1021B0000E949434FB01BC01069FC001079F900D53
:1021C000169F900D1124B7010E949434E230F1055E
:1021D000B1F040F4309779F0319711F5832F242F27
:1021E000461B21C0E430F105A1F068F03597C1F439
:1021F000842F861B18C0832F262F230F14C0862FF1
:10220000830FE42F03C0E42FE61B842F432F2E2FD0
:102210000AC0842F462F430F06C0842F242F03C0EB
:1022200080E020E040E0E42FF0E0E757F84F4491F1
:10223000E22FF0E0E757F84F9491E82FF0E0E757EE
:10224000F84FE49149839883EA83DF91CF911F91FE
:102250000F91FF90EF90089580910F03282F2695FE
:102260002F7330E02115310519F48178826005C0A3
:102270002532310524F08178886480930F033091F2
:102280000F03432F441F4427441F20911003522F54
:10229000550F852F842B27FB992790F9893641E02C
:1022A00094077CF068E671E00E94A83480FB37F95F
:1022B00030930F0386952078822B90FB87F98093CB
:1022C0001003089588E090E00C940436CF93DF93D8
:1022D00000D000D0CDB7DEB7AB01BC0149835A8333
:1022E0006B837C830E942C1149815A816B817C8194
:1022F00088E090E00F900F900F900F90DF91CF91BA
:102300000C942236EFE0F3E083E080831092100318
:102310008FEF8283838314826081718182819381B4
:102320000C94661180910F0380FF03C086958F7314
:10233000089580E008958091130390E00196843021
:10234000910514F083E090E08093130360910F03F4
:102350007091100380911103909112030C946611F7
:102360008091130390E0019797FF02C080E090E016
:102370008430910514F083E090E080931303609122
:102380000F037091100380911103909112030C942C
:1023900066118091160224E0829FC0011124885E9C
:1023A0009C4F60910A0170E020910F0320FD0DC049
:1023B00020E030E0F901E85EFC4F118210821282C9
:1023C0002C5F3F4F2C333105A9F70C940E189091D8
:1023D0000F0390FF0FC020E030E0F901E85EFC4FF2
:1023E0008183608342832C5F3F4F2C333105A9F7F3
:1023F0000C94C9110895CF93DF9300D000D0CDB7CE
:10240000DEB720910F0320FF0AC09E012F5F3F4FD0
:102410000E94B8104B8169818A810E94E7110F9058
:102420000F900F900F90DF91CF9108955F926F9270
:102430007F928F929F92AF92BF92CF92DF92EF9254
:10244000FF920F931F93CF93DF9300D000D0CDB7AF
:10245000DEB78C01E62EF42E522E80910F0380FF02
:1024600089C0982F9E77923061F49E012F5F3F4F75
:10247000C8010E94B8104B8169818A810E94E711CE
:1024800059C0E82FE695EF739EE39E0F9F7394303B
:1024900018F4F09012034EC09AE39E0F9F73993088
:1024A00068F4881F8827881F90911003292F220F16
:1024B000022F082B97FB112710F93CC087E28E0FE3
:1024C0008F738A30B8F5F0E07997E0FD02C021E023
:1024D00001C02FEFEE7FE158F84F859194916FE0A6
:1024E00070E00E94943426034001279F900C112431
:1024F000580188E9A81A8EEFB80A88E1C82E83E04F
:10250000D82E98E6692E77247394C501B3010E94F2
:10251000943496014F2D6E2D0E94B810A80CB91C52
:1025200084E0C80ED11C84E5C81683E0D80669F79C
:102530000E94C91180910F0300FB87F980930F035C
:10254000902F9695809110038078892B10FB87F946
:1025500080931003E0921103F0921203552051F082
:1025600060910F03709110038091110390911203F9
:102570000E9466110F900F900F900F90DF91CF91F6
:102580001F910F91FF90EF90DF90CF90BF90AF9091
:102590009F908F907F906F905F900895282FEFE02D
:1025A000F3E09081991F9927991F30911003832F91
:1025B000880F482F492B37FB552750F9CA010C9635
:1025C00068E671E00E94A834438162810C9416127F
:1025D00081E00C94CE12282F90910F03991F992718
:1025E000991F30911003832F880F482F492B37FBF9
:1025F000552750F9CA014C3051051CF4845A9E4F9E
:1026000001C00C9768E671E00E94A8344091120363
:10261000609111030C94161281E00C94EB12EFE020
:10262000F3E03081331F3327331F90911003592F6C
:10263000550F97FB992790F9282F43816FEF852F2E
:10264000832B0C94161281E00C940F13EFE0F3E04F
:102650003081331F3327331F90911003592F550FAB
:1026600097FB992790F9282F438160E0852F832BD2
:102670000C94161281E00C94261340911203242F1F
:1026800030E0243F310514F4445F01C04FEF309136
:102690000F03331F3327331F90911003592F550F0A
:1026A00097FB992790F9282F60911103852F832B91
:1026B0000C94161281E00C943D1340911203242FC8
:1026C00030E02C30310514F04C5001C040E0309126
:1026D0000F03331F3327331F90911003592F550FCA
:1026E00097FB992790F9282F60911103852F832B51
:1026F0000C94161281E00C945D1321E00C941612D8
:1027000020E00C941612CF9390910F0390FF40C0DD
:102710009178811102C0926007C0853210F09864F0
:1027200003C08F73880F982B90930F03662351F08B
:1027300060910F0370911003809111039091120327
:102740000E946611C0910F036C2F66956F7370E045
:102750004BE050E08BE091E00E94EF35892B19F0BF
:102760001092170203C081E080931702CC1FCC2780
:10277000CC1F90911003892F880F97FB992790F910
:1027800040911203609111038C2BCF910C94801314
:10279000CF910895682F90910F0396959F7381E0D4
:1027A000890F853208F081E00C94831381E00C944A
:1027B000CA13682F90910F0396959F738FEF890F1F
:1027C00009F484E20C94831381E00C94D91361E042
:1027D0000C948313EFE0F3E0808181608083869521
:1027E0008F730C94E71360E00C94831380911802AC
:1027F000811135C08091DF0281608093DF020E94E9
:10280000D625811104C00E9450260E9482110E9488
:10281000621160930F0370931003809311039093E0
:1028200012036E7761F40E9482110E94621160931C
:102830000F037093100380931103909312030E946F
:102840002C1181E08093170280910F0380FF04C058
:1028500086958F730E94F31381E080931802089588
:10286000EFE0F3E080818160808386958F730C9424
:10287000F313EFE0F3E080818E7F808360817181CC
:10288000828193810E946611109217022FEF80E7D8
:1028900092E0215080409040E1F700C000000C948D
:1028A000C91180910F0380FD0C9439140C94EA1324
:1028B000CF93E82FF0E0E558F84FC49180911402CF
:1028C000909115020E947027EC2FF0E08E179F0761
:1028D00008F443C00E946427909315028093140269
:1028E0006091130270E080E090E00E94953220E059
:1028F00030E04FE753E40E94B8312BED3FE049E46C
:1029000050E40E94BE330E942B340E9432322BE4EA
:102910003AE34EE25FE30E944B3120EF3BEF48ED9C
:1029200052E40E94BE330E946432462F80910F030E
:10293000881F8827881F90911003292F220F97FB4B
:10294000992790F960911103822B0E94FB118091CD
:10295000130290E0019680931302CF910895CF93D4
:10296000E82FF0E0E858F84FC4918091110290915F
:1029700012020E947027EC2FF0E08E179F07E8F0FC
:102980000E946427909312028093110240911203D7
:102990006091110380910F02909110020E94FB112F
:1029A00080910F0290911002019668E671E00E94FA
:1029B00094349093100280930F02CF910895CF9298
:1029C000DF92FF920F931F93CF93DF93F82EE82FA0
:1029D000E695F0E0EB58F84FC49180910D0290918C
:1029E0000E020E947027EC2FF0E08E179F07E8F18F
:1029F0000E94642790930E0280930D0208E113E079
:102A0000C0E0D0E088E6C82EDD24D39480910B028C
:102A100090910C028C0F9D1FB6010E949434980176
:102A200040911203609111030E94B81068960C5FE8
:102A30001F4FC83681E0D80749F70E94C91120917D
:102A40000B0230910C02F0FE0AC0C9010196BE01D2
:102A50000E94943490930C0280930B0206C0215084
:102A6000310930930C0220930B02DF91CF911F911B
:102A70000F91FF90DF90CF900895AF92BF92CF92C9
:102A8000DF92EF92FF920F931F93CF93DF9380FF1C
:102A900002C01FEF01C011E08695E82FF0E0EE586C
:102AA000F84FC4918091090290910A020E94702708
:102AB000EC2FF0E08E179F0708F466C00E94642791
:102AC00090930A028093090228E1C22E23E0D22EBD
:102AD0003AE1E32E33E0F32EC0E0D0E0F701319786
:102AE0001082F6011082F701108294E0A92EB12C19
:102AF00000E080910802800F87FD815F082E000CA6
:102B0000990BC817D907E9F4809112038A9DA00197
:102B10008B9D500D1124559547955595479580915E
:102B20000F03881F8827881F90911003592F550F76
:102B300097FB992790F9960160911103852B0E94CC
:102B4000B810010FF1E0AF1AB10899F6219684E0B0
:102B5000C80ED11CE4E0EE0EF11CCF30D10509F017
:102B6000BDCF0E94C91180910802113031F481114A
:102B700002C08EE007C0815005C090E00196BE0102
:102B80000E94A83480930802DF91CF911F910F918A
:102B9000FF90EF90DF90CF90BF90AF9008950F938C
:102BA0001F93CF93DF93E82FF0E0E159F84FC491E2
:102BB00080910602909107020E947027EC2FF0E0AE
:102BC0008E179F0708F464C00E9464279093070241
:102BD0008093060280E090E0FC01E85EFC4F1182E9
:102BE0001082128204968C339105B1F7C0E0D0E0D8
:102BF0000FE010E0CE01B8010E94A834FC018091E2
:102C00000502082E000C990BEE0FFF1FEE0FFF1FA1
:102C1000C817D907FCF080910901082E000C990B08
:102C20008C179D07BCF09F01285E3C4F80910F03DD
:102C3000881F8827881F90911003592F550F97FBE5
:102C4000992790F94091120360911103852B0E94FE
:102C5000B81005C0E85EFC4F1182108212822196E6
:102C6000CF30D10539F60E94C911809108019091A9
:102C70000502980F9093050220910901280F2093D7
:102C80000901121614F49E301CF0819580930801FE
:102C9000DF91CF911F910F910895EF92FF920F93C3
:102CA0001F93CF93DF9380910302909104020E94BF
:102CB0007027883E9340D0F10E94642790930402CD
:102CC00080930302C0910102D09102022196C1704B
:102CD000DD27D0930202C093010288E1E82E83E051
:102CE000F82E10E008E7812F8695FE01E80FF11D10
:102CF000CF018170992797014091120360911103D0
:102D0000FC010E9FC0010F9F900D11240E94B8106E
:102D10001F5FF4E0EF0EF11C1F3029F7DF91CF9118
:102D20001F910F91FF90EF900C94C911DF91CF91FB
:102D30001F910F91FF90EF900895CF93DF9300D0F4
:102D400000D0CDB7DEB78091FF01909100020E94C4
:102D50007027EDE6F7E02591349182179307C0F1D3
:102D60008091FE0181110CC09E012F5F3F4F4FEFFC
:102D70006FEF80E090E00E94B8108A818093FE019E
:102D80000E946427909300028093FF018091FD01CF
:102D9000813051F028F0823061F44091FE010AC088
:102DA0008091FE0140E007C06091FE0140E080E0BC
:102DB00003C040E080E060E00E94E7118091FD01E7
:102DC00090E0019663E070E00E94A8348093FD01DA
:102DD0000F900F900F900F90DF91CF9108950F9368
:102DE0001F93CF93DF938091FB019091FC010E9490
:102DF0007027843F914008F448C00E946427909354
:102E0000FC018093FB01C8E1D3E000E010E02091D9
:102E1000F9013091FA0180910F039091100307306E
:102E200011051CF4232B79F002C0232B61F4881FB9
:102E30008827881F592F550F97FB992790F99E01D6
:102E4000409112030AC0881F8827881F592F550FE9
:102E500097FB992790F99E0140E060911103852B23
:102E60000E94B8100F5F1F4F24960F30110579F69E
:102E70000E94C9118091F9019091FA010196817027
:102E800099279093FA018093F901DF91CF911F91D7
:102E90000F910895809117028823D9F190910F0323
:102EA000892F86958F732EE3280F2F73243018F403
:102EB00082500C9458142AE3280F2F73233018F4EF
:102EC00086500C94AF1427E3280F2F73263018F484
:102ED00089500C94DF1421E3280F2F73263018F447
:102EE0008F500C943D152BE2280F2F73233018F4CC
:102EF00085510C94CF15892F8E77803311F40C9463
:102F00004D16863411F40C949D16883411F40C94EB
:102F1000EF160895882319F05198599A02C0519AD2
:102F200059985098589A95E09A95F1F70000509A60
:102F3000589895E09A95F1F70000882311F0519A7E
:102F4000599885E08A95F1F7000008958BB18C7F40
:102F50008BB95098589A5198599A85E08A95F1F70B
:102F6000000008958AB18C7F8AB985E08A95F1F7CF
:102F70000000519A599885E08A95F1F70000509A1F
:102F8000589885E08A95F1F7000008955098589A6E
:102F900085E08A95F1F700005198599A85E08A9565
:102FA000F1F700000895CF93DF93D82FC8E08D2F5D
:102FB00080780E948A17DD0FC150C9F780E00E9417
:102FC0008A1785E08A95F1F7000085E08A95F1F788
:102FD000000080E0DF91CF9108952BB1342F309520
:102FE00023233BB1432B3FB7F894FC01680F791FB3
:102FF000E617F70789F0819198E04BB9000000C00F
:1030000087FF2BB9880F000000C000C000C02BB99B
:1030100000C09A9591F7ECCF3FBF0895AF92BF9251
:10302000CF92DF92EF92FF920F931F93CF93DF9394
:103030008C01EB01CFB6D090BC00F8948091BC001D
:103040008B7F8093BC000E94A6170E94B21784E871
:103050000E94D317CC0FDD1FCC0FDD1F7801580164
:10306000AC0EBD1EEA14FB0431F0F70181917F0123
:103070000E94D317F7CF0E94C617CFBED092BC00D4
:10308000579A40E8BE01C801DF91CF911F910F917F
:10309000FF90EF90DF90CF90BF90AF900C94ED1722
:1030A00090931E0280931D020895E0911D02F091FD
:1030B0001E02309721F00190F081E02D099480E00C
:1030C0000895E0911D02F0911E02309799F0209131
:1030D0002701222359F020915A0327FF07C0DC0162
:1030E0002C9111962C93119725E02C930280F3815B
:1030F000E02D09940895E0911D02F0911E02309791
:1031000039F022E0DC012C930480F581E02D099454
:10311000089520911B0230911C028217930771F0D1
:1031200090931C0280931B02E0911D02F0911E02FD
:10313000309721F00680F781E02D099408952091C1
:10314000190230911A028217930771F090931A02B4
:1031500080931902E0911D02F0911E02309721F038
:103160000084F185E02D0994089585B7806885BFB6
:1031700085B7806885BF0895089508950C94BD189B
:1031800008950C94C0180E94B5180E94BC180C94A5
:10319000BE1881E008950E945B270E94E4050E940A
:1031A000F2270E94F6130C94C118CF92DF92EF928F
:1031B000FF920F931F93CF93DF93CDB7DEB72B977B
:1031C0000FB6F894DEBF0FBECDBF0E9411060E945D
:1031D000C918811111C08FEF89838A831B820E94D5
:1031E00064278160782F9D838C8349815A816B810C
:1031F0008D810E94B91956C080E2C82E82E0D82E77
:1032000000E010E0E02E802F0E947806F601419148
:103210006F01F42EF82631F40F5F1F4F0E301105A9
:1032200089F7D9CF9091DF0291FF04C08B870E946C
:103230007E068B8520E030E04F2D50E0922FBA01C2
:10324000022E02C0759567950A94E2F760FF24C0CC
:103250002E83EF8221E030E0690102C0CC0CDD1C3E
:103260009A95E2F790E08C219D21892B09F420E0CA
:1032700028870E9464278160782F9A8789874E81EA
:103280005F8168858A850E94B919F801E05EFD4F6B
:103290008081C826C08206C02F5F3F4F263031058F
:1032A00069F6BACF0E94852910911F020E94551815
:1032B0001817A1F00E94551880931F022B960FB685
:1032C000F894DEBF0FBECDBFDF91CF911F910F915C
:1032D000FF90EF90DF90CF900C942D0A2B960FB6B5
:1032E000F894DEBF0FBECDBFDF91CF911F910F913C
:1032F000FF90EF90DF90CF900895DC0111962C9114
:1033000011978C91682F70E041E050E001C0440FAC
:103310008A95EAF712968C91129730E0882329F06B
:1033200080913E028823E9F006C0F901E25DFD4F7D
:1033300090819423B1F086E0829FF001839FF00D8D
:103340001124E60FF71FEE0FFF1FE85DFE4F80818F
:1033500091818D939C93F901E25DFD4F8081482B13
:1033600006C0F901E25DFD4F40958081482340830E
:103370000895CF93DF93CDB7DEB72B970FB6F894B0
:10338000DEBF0FBECDBF942F4F83252F588769878F
:103390007A878B874A855B85452B21F02F3F69F51E
:1033A0009F3F59F5DE01119686E0FD0111928A9545
:1033B000E9F785E0FE01379601900D928A95E1F7D5
:1033C0000E948124882319F082E00E946D250E94CA
:1033D000542481110E94032549815A816B817C818B
:1033E0008D819E810E9459212B960FB6F894DEBFE5
:1033F0000FBECDBFDF91CF910895CE0107960E94F9
:103400007D19D0CFFC01808191810E942624929564
:103410009F70963041F480913E0291E0892780931D
:103420003E0290933D020895882309F41AC1823820
:10343000C1F40E94551881FD14C169E38091160101
:10344000909117010E94B7260E9411252FEF81EE5F
:1034500094E0215080409040E1F700C0000069E313
:1034600019C08338F9F40E94551880FDFAC063E54D
:1034700080911601909117010E94B7260E94112594
:103480002FEF81EE94E0215080409040E1F700C0A2
:10349000000063E580911601909117010E94C226F9
:1034A0000C9411258438C1F40E94551882FDD9C0AE
:1034B00067E480911601909117010E94B7260E943F
:1034C00011252FEF81EE94E0215080409040E1F7EC
:1034D00000C0000067E4DECF9CEF980F913A40F403
:1034E000682F80911601909117010E94B726D8CFBE
:1034F00090E2980F983050F4877091E001C0990FD6
:103500008A95EAF7892F0E94B624CACF9BE5980FC7
:10351000933070F4853A29F0863A31F083E890E0F0
:1035200005C081E890E002C082E890E00C94891820
:1035300098E5980F973108F08EC0883A09F445C095
:10354000893A09F445C08A3A09F445C08B3A09F42E
:1035500045C08C3A09F445C08B3B09F445C08C3B0F
:1035600009F445C08D3A09F445C0803B09F445C0D3
:103570008E3A09F445C08F3A09F445C0813B09F4FD
:1035800045C0823B09F445C0833B09F445C0843BF8
:1035900009F445C0853B09F445C0863B09F445C0A4
:1035A000873B09F445C0883B09F445C0893B09F4D1
:1035B00045C08D3B09F445C08E3B09F445C08A3BAC
:1035C00009F445C080E090E044C082EE90E041C044
:1035D00089EE90E03EC08AEE90E03BC085EB90E043
:1035E00038C086EB90E035C083EB90E032C084EBCE
:1035F00090E02FC087EB90E02CC08CEC90E029C0CD
:103600008DEC90E026C083E891E023C08AE891E049
:1036100020C082E991E01DC084E991E01AC081E2F6
:1036200092E017C083E292E014C084E292E011C0FD
:1036300085E292E00EC086E292E00BC087E292E063
:1036400008C08FE690E005C080E790E002C08AE203
:1036500092E00C949F18803F20F00E948D280C94DB
:103660007A290895882309F464C0823879F40E9485
:10367000551881FF5EC069E3809116019091170192
:103680000E94B7260E94112569E310C08338B1F467
:103690000E94551880FF4DC063E5809116019091FE
:1036A00017010E94B7260E94112563E5809116013B
:1036B000909117010E94C2260C941125843879F448
:1036C0000E94551882FF35C067E4809116019091E1
:1036D00017010E94B7260E94112567E4E7CF9CEFEF
:1036E000980F913A10F4682FE1CF90E2980F98303C
:1036F00050F4877091E001C0990F8A95EAF7892FFD
:103700000E94BC24D9CF9BE5980F933020F480E031
:1037100090E00C94891898E5980F973120F480E098
:1037200090E00C949F18803F20F00E94F5280C94A4
:103730007A290895CF93C82F0E94141A8C2FCF9105
:103740000C94321B882321F00E94B6240C9411257E
:103750000895882321F00E94BC240C94112508951B
:103760008F929F92AF92BF92DF92EF92FF920F9350
:103770001F93CF93DF937C01D62FC72FFC010581C8
:1037800002950F70128111110E94D6240E94AC2460
:10379000882379F0112369F080E28D0F883048F09A
:1037A00082E00E946D250E94AC2491E0D82ED9269B
:1037B00001C0D12CAC2EA2948FE0A822B12CF5012F
:1037C000EE57FF4F0C94BC348C2F807FCF70882332
:1037D00011F0C295C07F112399F0CC2309F4C8C120
:1037E00080E28D0F883010F0D11104C08C2F0E9420
:1037F000B62403C08C2F0E94C9240E941125B8C191
:103800008D2F0E94321BCC2309F42EC280E28D0F33
:10381000883010F0D11104C08C2F0E94BC2403C04A
:103820008C2F0E94CF240E9411251EC28C2F807FD6
:10383000CF70803211F0C295C07FDD2319F0D130F6
:10384000C9F021C0112371F0002341F0013031F49F
:103850000E94E9248C2B0E94EF2406C20E94E924D6
:103860008C2B3FC1002319F0013009F4FDC10E94E7
:10387000032511C0112321F0023008F0F5C107C063
:103880000111F2C108C0112321F0011171C18C2F67
:1038900028C101117EC18C2F2AC18C2F8695869557
:1038A000837090E0009719F0019761F0DDC111235A
:1038B00021F08D2F9C2F937002C080E090E00E9439
:1038C0008918E2C1112321F08D2F9C2F937002C023
:1038D00080E090E00E949F18D7C11123F9F0D53FF6
:1038E00051F0D63F71F0D43FA9F4809154039091E8
:1038F000550381600BC08091540390915503826001
:1039000005C08091540390915503846090935503B2
:10391000809354038D2F0E948D281EC0D53F51F0F7
:10392000D63F71F0D43FA9F4809154039091550390
:103930008E7F0BC080915403909155038D7F05C0FD
:1039400080915403909155038B7F909355038093FE
:1039500054038D2F0E94F5280E947A2995C18C2F3F
:10396000837009F050C011118BC18D2F82958695FF
:103970008770880F880F9D2F9F70892E912CA12C06
:10398000B12C082E04C0880C991CAA1CBB1C0A94DC
:10399000D2F7D4FF14C00FE010E020E030E0B9010E
:1039A000A80104C0440F551F661F771F8A95D2F7E0
:1039B000CB01BA01609570958095909503C060E049
:1039C00070E0CB01C695C695C370D0E0C230D1057A
:1039D00061F0C330D10581F0682979298A299B29B2
:1039E000219771F00E949E224BC1682979298A296A
:1039F0009B290E94B02244C10E949E22C501B401AD
:103A00000E948C223DC1112319F08C2F817001C0BE
:103A10008695882309F434C18D2F82958695877009
:103A2000880F880F9D2F9F70892E912CA12CB12C6F
:103A3000082E04C0880C991CAA1CBB1C0A94D2F73F
:103A4000D4FF14C00FE010E020E030E0B901A8017D
:103A500004C0440F551F661F771F8A95D2F7CB010C
:103A6000BA01609570958095909503C060E070E014
:103A7000CB01C695C695C3704C2F50E0423051051E
:103A800069F04330510589F0682979298A299B29F1
:103A90004130510571F00E946323F2C068297929F1
:103AA0008A299B290E947523EBC00E946323C501CC
:103AB000B4010E945123E4C08D2F90E0FC01E05E30
:103AC000F109E531F10508F04FC0EE56FF4F0C94B7
:103AD000BC34DF708C2F8F71112331F00E94EA22E9
:103AE0008D2F0E94A21BC0C00E940B238D2F0E940D
:103AF000A91BBAC0112339F00111B6C08C2F8F71E8
:103B00000E943023B1C0023008F0AEC0F7CF1123BD
:103B100039F08C2F8F710E94EA22A6C01123C9F3BD
:103B20008C2F8F710E940B239FC0112329F08C2FA3
:103B30008F710E94D52298C00E94D02295C0112377
:103B400049F0CF718C2F0E94EA2263E08C2F0E94F3
:103B50004E258AC081E00E946D25023008F484C0A1
:103B600082E00E946D2580C0112331F0002389F28C
:103B70008D2F0E94141A78C0002391F2D93349F492
:103B80005FEF67EE73E0515060407040E1F700C0B6
:103B900000008D2F0E94321B67C04C2F4F706D2F7D
:103BA000C7010E941A080E94FD216EC0D23FB1F0E9
:103BB00028F4D03F49F0D13FF9F028C0D43FB9F004
:103BC00058F0D53F71F022C0112309F447C09091FD
:103BD0003E0281E0892708C081E0182710933E0249
:103BE0003DC011113BC081E080933E0237C01111EE
:103BF00035C010923E0232C0112329F080913D025F
:103C0000882329F329C0002311F328C080913D02A5
:103C10000023C1F0882341F090913E0281E0892782
:103C200080933E0210923D028D2F112319F00E94C5
:103C3000141A14C00E94321B86E0F70111928A9573
:103C4000E9F70CC0882351F0111108C090913E0291
:103C500081E0892780933E0210923D024C2F4F70E5
:103C60006D2FC7010E94C00CF8E0AF16B10441F0FF
:103C70005CF04AE0A41AB10852E0A516B10420F4A1
:103C80000E9455180E942D0ADD20E1F00E947D243B
:103C900080FD18C0F70112820E9477240E94EA2258
:103CA000C7010E946E1E0E947724DF91CF911F9161
:103CB0000F91FF90EF90DF90BF90AF909F908F900B
:103CC0000C940B23DF91CF911F910F91FF90EF90F8
:103CD000DF90BF90AF909F908F9008950F931F93A8
:103CE000CF93DF93EC01888199812B813C81232B39
:103CF000B9F09F3F11F48F3F99F0CE010E943F0A27
:103D0000882371F0688179818A810E9431248C0135
:103D10000E9487230E948922B801CE010E94B01B15
:103D2000DF91CF911F910F9108950E94D6240E9498
:103D3000E6240E9411250E94132A0E947A2980E01D
:103D400090E00E94891880E090E00C949F18809188
:103D50001601909117010E94CD260C94951E0E9489
:103D6000C6240C94A71EE92FE295EF70F0E032977D
:103D7000EE30F105B0F4E955FF4F0C94BC34803FB0
:103D800091F018F4803E68F40EC0843F51F40BC0EB
:103D9000803E48F0813F29F406C093FB882780F9D4
:103DA000089580E0089581E008950E9426240E94ED
:103DB000B31E0895CF93DF9300D000D01F92CDB7EC
:103DC000DEB70F900F900F900F900F90DF91CF9173
:103DD0000895CF93DF9300D000D000D0CDB7DEB7E9
:103DE00026960FB6F894DEBF0FBECDBFDF91CF9100
:103DF00008951F93CF93DF93C0913F0216E0809107
:103E00004002C81799F0D0E01C9FF0011D9FF00DF3
:103E10001124EF5BFD4F4081518162817381848168
:103E200095810E94E91E2196C770E9CFDF91CF915D
:103E30001F91089540917102509172026091730236
:103E40007091740280917502909176020C94E91E33
:103E50008091760282958F7009F054C08091730230
:103E6000882309F44FC080913F02A09140026091E5
:103E70007102709172024091740250917502B6E025
:103E80008A1709F43FC090E041155105C1F17F3F09
:103E900011F46F3FA1F1B89FF001B99FF00D11240B
:103EA000EF5BFD4F218172132AC02081621327C06E
:103EB0002281211124C0238134812417350710F475
:103EC00021503109241B350B283C3105C0F42091C9
:103ED00076022F7020612093760226E0289FF00161
:103EE000299FF00D1124EA5BFD4F80818F70806166
:103EF000808381E792E00E946E1E0C94F91E019669
:103F00008770BECF0895CF92DF92EF92FF920F930A
:103F10001F93CF93DF93CDB7DEB762970FB6F894B8
:103F2000DEBF0FBECDBF8C0185E0F801DE011D961E
:103F300001900D928A95E1F7D8014C9111965C9110
:103F4000119712966C9112971396CD90DC9014975E
:103F50003091710270917202809174029091750299
:103F6000009709F46BC17F3F19F43F3F09F466C124
:103F7000E0907302EE2009F4C0C020917602C816CA
:103F8000D90628F0F601E81BF90BCF0104C0809593
:103F900090958C0D9D1DFF24F394883C910578F03D
:103FA000F12C207F09F0C6C07C2DD98AC88A898966
:103FB0000E94DA1E81E792E00E946E1EB1C0822F3D
:103FC000807F09F046C0751314C0341312C061110C
:103FD00010C02F702061209376020E941A1F81E783
:103FE00092E00E946E1E80917602D80115968C9305
:103FF0002EC0CD2819F15F3F11F44F3FF9F0F62E96
:1040000061111CC080913F022091400236E082176E
:1040100009F45AC090E0389FF001399FF00D112447
:10402000EF5BFD4F7181571306C07081471303C0CA
:104030007281711103C001968770E9CFF62E662355
:1040400009F427C180917602816080937602F12C79
:1040500020C1751308C0341306C0611104C08091DB
:104060007602D801C3C04D875E878D859E856A8B99
:104070000E94D51E6A898823E1F16623D1F120913F
:104080007602822F82958F7090E0029774F0809173
:1040900071029091720298878F831986DB86CA8697
:1040A0002C87CE0107960E946E1E86E0F801A1E7DC
:1040B000B2E001900D928A95E1F70E94281F0E94BC
:1040C0001A1FFF24F394E5C04D875E878D859E857A
:1040D0000E942624292F22952F7030E022303105AE
:1040E0000CF0CBC09F7009F0C5C0805E883008F42A
:1040F000D0C0C8010E946E1EE4CFC816D90608F4CD
:1041000053C0F601E81BF90BCF01883C910508F478
:1041100050C0F12C7C2DD98AC88A89890E94DA1E68
:10412000E1E7F2E086E0DF011D928A95E9F70E945F
:104130001A1FAFC0751314C0341312C0611110C020
:1041400080917602F8018583C8010E946E1E86E088
:10415000E1E7F2E0DF011D928A95E9F7FE2C99C0B4
:104160004D875E878D859E856A8B0E94D51E6A89E4
:10417000882309F4BECF662309F4BBCF20917602D1
:10418000822F82958F7090E002970CF48ECF8091F1
:104190007102909172029A8389831B82DD82CC82A4
:1041A0002E83CE0101967FCF809590958C0D9D1D1D
:1041B000ACCFF62E662309F49CCF75132EC03413B2
:1041C0002CC02091760220FD1FC0822F82958F7017
:1041D000D9F0D80115962C9315978F3049F08F5F41
:1041E000982F9295907F822F8F70892B15968C93A4
:1041F000C8010E946E1E86E0F801A1E7B2E00190BE
:104200000D928A95E1F793CF86E0F801A1E7B2E03D
:1042100001900D928A95E1F73CC04D875E878D85B0
:104220009E850E94D51E811140CF809176028160CB
:1042300080937602C8010E946E1E2BC0662309F48B
:1042400058CF4D875E878D859E850E94D51EF82E9E
:10425000882309F44ECF86E0F801A1E7B2E001908F
:104260000D928A95E1F781E792E00E94021A0E947E
:10427000281F5DCF811139CF0CC0243031050CF0DF
:1042800038CF9F7009F431CFF8019581907F09F004
:104290002CCF8F2D62960FB6F894DEBF0FBECDBF28
:1042A000DF91CF911F910F91FF90EF90DF90CF9012
:1042B00008951F93CF93DF93CDB7DEB72C970FB63A
:1042C000F894DEBF0FBECDBF4F83588769877A87CA
:1042D0008B879C87CE0107960E94831F882369F0F5
:1042E0008F8198852A853B85232BF1F19F3F09F02B
:1042F00063C08F3F09F060C037C086E0FE0137968B
:10430000DE01119601900D928A95E1F76F81788513
:10431000EA85FB85309741F17F3F11F46F3F21F132
:104320002091400230E0C9010196877099274091A1
:104330003F0250E08417950709F447C069837A83E8
:10434000FD83EC8396E0929FD001939FB00D1124E2
:10435000AF5BBD4FFE01319601900D929A95E1F74A
:10436000809340020E94F91E16E080913F029091D6
:1043700040028917C1F1189FC00111248F5B9D4F26
:104380000E94831F882379F1E0913F021E9FF00174
:104390001124EF5BFD4F40815181628173818481E3
:1043A00095810E94E91E80913F0290E001968770FE
:1043B000992780933F02D9CF4F81588569857A85A7
:1043C0008B859C850E94E91ECFCF0E94AF1E109264
:1043D000400210923F02E1E7F2E086E0DF011D9229
:1043E0008A95E9F7C1CF2C960FB6F894DEBF0FBEC1
:1043F000CDBFDF91CF911F910895EF92FF920F9360
:104400001F93CF93DF938C01892B09F46CC0F12C9F
:10441000EE24E394E8012196F8018491843740F476
:10442000843008F051C0813081F0823019F15BC0D6
:10443000853709F444C0A8F19CE7980F903708F03D
:1044400052C08F770E94321B41C00E5F1F4FFE018A
:10445000C49180E28C0F883048F4C7708E2D01C063
:10446000880FCA95EAF70E94D92414C08C2F0E94A5
:10447000141A2DC00E5F1F4FFE01C49180E28C0FF5
:10448000883058F4C7708E2D01C0880FCA95EAF79E
:104490000E94DF240E9411251AC08C2F0E94321B1B
:1044A00016C00E5F1F4FFE01C491CC2381F08FE92F
:1044B0009FE00197F1F700C00000C150F6CF0E5FFA
:1044C0001F4FFE01F49003C00E94141A8E018F2D1D
:1044D000882309F49FCFEFE9FFE03197F1F700C09F
:1044E00000008150F5CFDF91CF911F910F91FF9088
:1044F000EF90089508950C947A220E947B22609395
:10450000B2027093B3028093B4029093B5020C94FC
:10451000951E08950C947D220F931F930091B20273
:104520001091B3022091B4023091B502602B712B2F
:10453000822B932B1F910F910C947D220F931F932D
:104540000091B2021091B3022091B4023091B502F1
:1045500060237123822393231F910F910C947D225A
:104560000F931F930091B2021091B3022091B402F5
:104570003091B50260277127822793271F910F91F1
:104580000C947D220C94C0080E94C2226093AE025B
:104590007093AF028093B0029093B1020C94951E79
:1045A00060E070E0CB010C94C4220F931F9341E0B4
:1045B00050E060E070E08A019B0104C0000F111F11
:1045C000221F331F8A95D2F7C901B8011F910F919D
:1045D0000C94C4220F931F9341E050E060E070E020
:1045E00004C0440F551F661F771F8A95D2F780912C
:1045F000AE029091AF02A091B002B091B1028A01D7
:104600009B01082B192B2A2B3B2BC901B8011F91A9
:104610000F910C94C4220F931F9341E050E060E08F
:1046200070E004C0440F551F661F771F8A95D2F7AC
:1046300040955095609570958091AE029091AF0233
:10464000A091B002B091B1028A019B010823192305
:104650002A233B23C901B8011F910F910C94C42256
:104660000F931F9341E050E060E070E004C0440FFE
:10467000551F661F771F8A95D2F78091AE029091E1
:10468000AF02A091B002B091B1028A019B0108274C
:1046900019272A273B27C901B8011F910F910C94B4
:1046A000C4220F931F930091AE021091AF0220918C
:1046B000B0023091B102602B712B822B932B1F9192
:1046C0000F910C94C4220F931F930091AE0210918E
:1046D000AF022091B0023091B10260237123822396
:1046E00093231F910F910C94C4220F931F93009159
:1046F000AE021091AF022091B0023091B10260275A
:104700007127822793271F910F910C94C42208953B
:10471000292F220F920F990F890FA82FA695A695E2
:10472000A695877051E001C0550F8A95EAF785E09C
:10473000A89FD001112420E030E070E0F901EA0FD9
:10474000FB1FE958FD4F4081CB01022E02C0969518
:1047500087950A94E2F781709927819584278523AC
:10476000842780832F5F3F4F2530310539F7089527
:10477000292F220F920F990F890F682F6695669542
:104780006695982F977085E0689FB001112440E0EE
:1047900050E080E0FA01E60FF71FE958FD4F208155
:1047A00030E0092E02C0369527950A94E2F7217071
:1047B0003327042E01C0220F0A94EAF7822B4F5FA1
:1047C0005F4F4530510531F70895BF92CF92DF9288
:1047D000EF92FF920F931F93CF93DF938C01C090C2
:1047E000B202D090B302E090B402F090B502809192
:1047F000AE029091AF02A091B002B091B102C82A6E
:10480000D92AEA2AFB2ACFE1D0E0D701C6010C2E33
:1048100004C0B695A795979587950A94D2F780FF1F
:1048200007C0BC2EB8018C2F0E94DB0C019719F435
:10483000219758F7B12C8B2DDF91CF911F910F91BC
:10484000FF90EF90DF90CF90BF900895CF93DF93CC
:10485000EC010E94E523BE010E94DB0CDF91CF91A9
:1048600008951F93CF93DF93EB0190913C0299231E
:1048700021F0CB010E94262413C0882349F0CB01EC
:104880000E94E523182F682FCE010E94882304C0C0
:10489000CB010E94B823182FBE01812F0E94DB0C90
:1048A000DF91CF911F9108950E9464272091B90252
:1048B0003091BA028217930750F00E94642720912A
:1048C000B9023091BA02821B930B9C010AC00E946C
:1048D00064272091B9023091BA0220953095280FB3
:1048E000391F81E0283E334008F480E0089580912C
:1048F000B80285958595859508958091B802877051
:1049000008950E9464272091B6023091B702821761
:104910009307A8F00E9464272091B6023091B70255
:10492000821B930B883E934010F480E013C080916B
:10493000B80282FB882780F991E089270BC00E948A
:1049400064272091B6023091B70220953095820FEE
:10495000931FE8CF817008959091B802977081E01D
:1049600009F480E008958091DE0208959091DE02BE
:10497000892B8093DE02089580959091DE02892331
:104980008093DE0208958093DE0208951092DE0285
:1049900008959091DD02892B8093DD020895809522
:1049A0009091DD0289238093DD0208951092DD024B
:1049B00008959091DC02892B8093DC020895809504
:1049C0009091DC0289238093DC0208951092DC022E
:1049D00008958091BB02089508950C94EC24CF9320
:1049E0009091BB02981769F0C82F0E94642790939A
:1049F000BA028093B902C093BB028C2FCF910C9462
:104A0000ED24CF9108958091BB02882349F0109244
:104A1000BB021092BA021092B90280E00C94ED240D
:104A20000895E0911601F09117018091DE028083D4
:104A3000E0911601F091170190818091DD02892BA0
:104A40008083E0911601F091170190818091DC0242
:104A5000892B80838091BB028823B9F00E94542463
:104A600081110E940325E0911601F09117019081B8
:104A70008091BB02892B8083809116019091170150
:104A80000E94522681110E94032580911601909167
:104A900017010C94611808950C944B2598E0899F98
:104AA00090011124262B2093B8020E94EA220E9432
:104AB00064279093B7028093B6028091B8028595DF
:104AC000859585950C944C251092B8021092B702EA
:104AD0001092B60280E00C944C252091B80280958B
:104AE00082238093B802982F977079F430E0482F92
:104AF000082E000C550B2417350739F08595859540
:104B000085950E940B230C9464250895CF92DF9223
:104B1000EF92FF926C01EE24FF24C114D104E10452
:104B2000F10421F0C701B60120E101C020E0C72E49
:104B3000D82EE92EFF24C114D104E104F10419F0A8
:104B4000285FC701B6016B017C0154E0F694E7943D
:104B5000D794C7945A95D1F7C114D104E104F10454
:104B600019F02C5FC701B6016B017C0142E0F6949D
:104B7000E794D794C7944A95D1F7C114D104E104BE
:104B8000F10419F02E5FC701B601DC01CB01B69527
:104B9000A79597958795892B8A2B8B2B09F02F5FEB
:104BA000822FFF90EF90DF90CF90089580E090E00B
:104BB0000E940A3621E08D3E9E4F09F020E0822FB0
:104BC000089582E090E00C94FC3583E090E00C9432
:104BD000FC3584E090E00C94FC35682F84E090E094
:104BE0000C941036AB01BC018FE090E00C9422369F
:104BF000AB01BC0183E190E00C94223660E070E0F0
:104C0000CB010C94F82560E070E0CB010E94F22506
:104C10000C94FE256DEE7EEF80E090E00E942E3633
:104C200060E082E090E00E94103660E083E090E077
:104C30000E9410361092B2021092B3021092B40287
:104C40001092B50260E084E090E00E94103660E0CF
:104C500085E090E00E94103660E086E090E00E94DF
:104C600010366FEF87E090E00E94103640E050E091
:104C7000BA0188E090E00E94223660E08DE090E08A
:104C80000E94103640E050E0BA0188E190E00E94B6
:104C9000223660E087E190E00E9410360C940326F3
:104CA0000C940A26FC01329680912701882331F06A
:104CB00080915A0387FF02C09EE101C096E080E028
:104CC000915028F021912223D9F38F5FF9CF0895D5
:104CD0009C01FC0132969FEF80E04191461789F0DC
:104CE0009F3F19F4411101C0982F8F5F8630A9F7BB
:104CF0009F3F39F0F901E90FF11D97FDFA956283A5
:104D000008950895FC01329608962081261301C06B
:104D100010823196E817F907C1F70895262F2695D6
:104D2000269526952E3168F4FC01E20FF11D67707F
:104D300021E030E001C0220F6A95EAF78281282B3A
:104D400022830895262F2695269526952E3170F4D8
:104D5000FC01E20FF11D677021E030E001C0220F7D
:104D60006A95EAF72095828128232283089520916D
:104D70002701222329F020915A0327FD0C948E2627
:104D80000C94682620912701222329F020915A03B0
:104D900027FD0C94A2260C94822620912701FC0169
:104DA0003296222331F080915A0387FF02C08EE1B0
:104DB00001C086E0DF011D928A95E9F70895089504
:104DC0000C94DF260E94E02680916003843049F134
:104DD0001092E00220E488E190E00FB6F894A895E4
:104DE000809360000FBE2093600080E00E942D0A37
:104DF0000E94E02683B7817F846083BF83B7816090
:104E000083BF7894889583B78E7F83BF0FB6F8945D
:104E1000A895809160008861809360001092600086
:104E20000FBE08950895CF930E94FE050E941106BB
:104E30000E941227C0E08C2F0E947806811104C0C6
:104E4000CF5FCE30C1F701C081E0CF9108950895C2
:104E50000C9427270E94AF1E0E9455180E942D0A0D
:104E60000C9428271F920F920FB60F9211248F9344
:104E70009F93AF93BF938091E002811113C0809103
:104E8000560390915703A0915803B091590341964E
:104E9000A11DB11D8093560390935703A09358030F
:104EA000B0935903BF91AF919F918F910F900FBE17
:104EB0000F901F90189582E084BD93E095BD9AEF06
:104EC00097BD80936E0008952FB7F8948091560394
:104ED00090915703A0915803B09159032FBF0895A3
:104EE000CF92DF92EF92FF920F931F932FB7F89418
:104EF00040915603509157036091580370915903A4
:104F00002FBF6A017B01EE24FF248C0120E030E0FA
:104F1000C016D106E206F30610F4415051099A0179
:104F2000281B390BC9011F910F91FF90EF90DF9063
:104F3000CF90089578941F920F920FB60F9211247C
:104F40008F939F93AF93BF93809156039091570394
:104F5000A0915803B09159030196A11DB11D8093F2
:104F6000560390935703A0935803B0935903BF91EE
:104F7000AF919F918F910F900FBE0F901F9018953A
:104F8000F89481E08093E00080E28093D800E9EC1F
:104F9000F0E010828FE19EE40197F1F700C000007D
:104FA0001DBA109268001CBC10BE1FBA10927A0085
:104FB00010926E0010926F001092710010927200A9
:104FC0001082ECEBF0E0108214B817B81AB81DB8D4
:104FD00010BA108215B818B81BB81EB811BA0C94C4
:104FE000003F08950E94D625811102C00E945026DC
:104FF0000E94E1258093DF020E94E92590E09093D2
:105000005B0380935A030E94E525682F70E080E0DF
:1050100090E00C948A228091E50280FF0BC06091A1
:105020001B0185E0689FB001112475956795759502
:1050300067952BC081FF09C060911B0185E0689FC7
:10504000B00111247595679520C082FF07C060915B
:105050001B0185E0689FB001112417C09091E40204
:105060009923D1F060911A01961788F720911B01BE
:1050700085E0289F90011124929FA001939F500DDD
:10508000112470E0CA010E94A8346038710540F410
:105090006115710539F002C065E070E0862F089552
:1050A0008FE7089581E008958091E50280FF08C0B0
:1050B0006091190170E0759567957595679521C0A8
:1050C00081FF06C06091190170E07595679519C060
:1050D00082FF04C06091190170E010C09091E40259
:1050E0009923C1F0609118019617A0F780911901DA
:1050F000899FC001112470E00E94A83460387105B6
:1051000028F46115710521F0862F08958FE7089521
:1051100081E0089561E070E0F4CF803F21F40E94C7
:105120000B28819504C0813F29F40E940B288093AD
:10513000E9020895823F21F40E940B28819504C062
:10514000833F29F40E940B288093E8020895893F49
:1051500019F40E94542805C08A3F31F40E94542853
:1051600081958093EA0208958B3F21F40E94542890
:10517000819504C08C3F29F40E9454288093EB024F
:105180000895843F21F48091E702816017C0853F34
:1051900021F48091E702826011C0863F21F4809162
:1051A000E70284600BC0873F21F48091E7028860AA
:1051B00005C0883F31F48091E70280618093E70267
:1051C00008958D3F21F48091E50281600BC08E3FF0
:1051D00021F48091E502826005C08F3F29F480911F
:1051E000E50284608093E5020895803F39F4809160
:1051F000E90287FF6CC01092E90269C0813F29F47F
:105200008091E9021816BCF362C09091E802823FD7
:1052100029F497FF5CC01092E80259C0833F19F44B
:105220001916CCF354C0893F41F48091EA02181654
:105230000CF04DC01092EA024AC08A3F29F48091D6
:10524000EA0287FF44C0F6CF8B3F39F48091EB022E
:1052500087FF3DC01092EB023AC08C3F29F4809149
:10526000EB021816BCF333C0843F21F48091E702AF
:105270008E7F17C0853F21F48091E7028D7F11C09A
:10528000863F21F48091E7028B7F0BC0873F21F49A
:105290008091E702877F05C0883F31F48091E70263
:1052A0008F7E8093E70213C08D3F21F48091E50249
:1052B0008E7F0BC08E3F21F48091E5028D7F05C06B
:1052C0008F3F29F48091E5028B7F8093E5028091E6
:1052D000E80281110EC08091E90281110AC080911B
:1052E000EA02811106C08091EB02811102C0109286
:1052F000E402089586EE92E00E947B180E946427E3
:105300009093E3028093E20208951F93CF93DF937B
:105310008091E2029091E3020E947027AC0190918B
:10532000E402992321F020911C0130E006C0209175
:10533000E1028AE0289F900111244217530708F4E4
:105340006EC08091E802C091E902D091EA0210910A
:10535000EB02811107C0C1115EC0D1115CC01111F7
:105360005AC05DC09F3F19F09F5F9093E4021816EA
:1053700024F40E940B288093E8028091E80287FFC2
:1053800005C00E940B2881958093E8021C1624F426
:105390000E940B288093E9028091E90287FF05C0F3
:1053A0000E940B2881958093E9024091E8024423F2
:1053B00079F03091E902332359F025EB4203A00143
:1053C00011245093E8023203C00111249093E902A2
:1053D0001D1624F40E9454288093EA028091EA0268
:1053E00087FF05C00E94542881958093EA02111618
:1053F00024F40E9454288093EB028091EB0287FFF3
:1054000005C00E94542881958093EB02DF91CF91D3
:105410001F910C947A299F3F09F0A6CFAECFDF9160
:10542000CF911F910895E6EEF2E086E0DF011D9234
:105430008A95E9F71092E4021092E50208958091AE
:105440000C0308950F931F93CF93DF9300D01F9207
:10545000CDB7DEB78C010E94922C823011F08430DF
:1054600021F584E089831B830A8382E08093E9002D
:105470008FEF9091E800815095FD06C095ED9A95CB
:10548000F1F700008111F5CF8091E80085FF0DC094
:1054900040E050E063E070E0CE0101960E94AF2C46
:1054A0008091E8008E778093E8000F900F900F9026
:1054B000DF91CF911F910F910895CF93DF9300D08B
:1054C0001F92CDB7DEB720916003243031F523E081
:1054D0002983805891099B838A8382E08093E90025
:1054E0008FEF9091E800815095FD06C095ED9A955B
:1054F000F1F700008111F5CF8091E80085FF0DC024
:1055000040E050E063E070E0CE0101960E94AF2CD5
:105510008091E8008E778093E8000F900F900F90B5
:10552000DF91CF910895CF93DF93EC010E94922CED
:10553000823011F08430F9F482E08093E9009FEF2B
:105540008091E800915085FD06C085ED8A95F1F7C0
:1055500000009111F5CF8091E80085FF0CC040E07C
:1055600050E066E070E0CE010E94AF2C8091E80030
:105570008E778093E800DF91CF910895CF93DF93EA
:10558000EC010E94922C823011F08430D9F5809188
:105590002701882339F080915A0387FF03C060E216
:1055A00082E002C068E081E08093E9008FEF909193
:1055B000E800815095FD06C095ED9A95F1F7000041
:1055C0008111F5CF8091E80085FF1CC080912701F3
:1055D000811105C040E050E068E070E003C070E079
:1055E00040E050E0CE010E94AF2C8091E8008E7721
:1055F0008093E80080E2FE01ACEEB2E001900D92F3
:105600008A95E1F7DF91CF91089580915F03811131
:1056100009C00E94442E0E94A12E8091E200846065
:105620008093E200089510925F030895089508950D
:105630000C942A2742E061EC81E00E94BE2D42E2F8
:1056400061EC82E00C94BE2D80916203833009F4FA
:1056500060C030F4813071F0823009F499C008954F
:105660008A3009F485C08B3009F46BC0893009F0A9
:10567000A7C020C080916103813A09F0A1C0809148
:10568000E800877F8093E80080916503909166032E
:10569000892B21F460E28CEE92E003C060E080E0B0
:1056A00090E070E00E94FA2C8091E8008B77809364
:1056B000E800089580916103813209F081C08091F2
:1056C000650390916603029708F07AC08091E80024
:1056D000877F8093E8008091E80082FD05C080917B
:1056E00060038111F8CF6CC02091F3008091F2002B
:1056F00090E0922B029729F48091F1008B7F81300A
:1057000021F48091F10080930C038091E8008B7765
:1057100053C080916103813A09F052C080916503C2
:1057200090916603892B09F04BC08091E800877F38
:105730008093E8008091E80080FFFCCF80912701F2
:1057400036C0809161038132D9F5809165039091D3
:105750006603892BA9F58091E800877F8093E80094
:105760000E94F32D80916303809327010C94AF1E58
:1057700080916103813221F58091E800877F8093D9
:10578000E8000E94F32D8091640380930D03089537
:1057900080916103813AA1F48091E800877F809332
:1057A000E8008091E80080FFFCCF80910D0380939A
:1057B000F1008091E8008E778093E8000C94F32D3F
:1057C000089584B7877F84BF0FB6F894A895809119
:1057D0006000886180936000109260000FBE80E8D6
:1057E00080936100109261000E94C3180E94442EB1
:1057F0000E94A12E8091E20084608093E200789460
:105800000E9430310E94CB188DE191E00E94501827
:1058100080916003853069F40E94E22680915E03E6
:105820008823B1F30E941327882391F30E94992CB7
:10583000EFCF0E94D5180E944A17EACF0C94202C73
:10584000292F332723303105C9F064F42130310585
:1058500081F02230310509F04CC08BE390E023EC5D
:1058600038E04BC02132310521F12232310589F176
:1058700040C082E190E02EEF38E03FC099278130B0
:10588000910571F02CF4892BA1F5EFEBF8E00DC038
:105890008230910541F0039761F5E9E8F8E005C031
:1058A000E7EAF8E002C0EFE8F8E0849190E09F01B9
:1058B00024C06115710541F061307105D1F489E0B2
:1058C00090E02EEE38E019C089E090E025ED38E058
:1058D00014C06115710541F06130710551F480EC1F
:1058E00090E020E139E009C080E490E020ED39E06B
:1058F00004C080E090E020E030E0FA0131832083B2
:1059000008950895CF93C82F0E94812CC0930E0351
:10591000CF91089580916003843011F081E0089563
:1059200082E0089580910E03811102C00C948A2CAC
:10593000089580E189BD82E189BD09B400FEFDCFF3
:105940008091D8008F7D8093D8008091E0008260A4
:105950008093E0008091E00081FDFCCF0895CF921C
:10596000DF92EF92FF920F931F93CF93DF93EC019F
:105970008B016A010E94122E811133C0C114D1041F
:1059800039F0F60180819181081B190BC80FD91FCE
:10599000E12CF12C0115110519F18091E80085FD2C
:1059A00016C08091E8008E778093E800C114D1047E
:1059B00049F0F60180819181E80EF91EF182E082C2
:1059C00085E00FC00E94122E882321F30AC089911E
:1059D0008093F10001501109FFEFEF1AFF0ADACFAF
:1059E00080E0DF91CF911F910F91FF90EF90DF90BA
:1059F000CF900895209167033091680326173707E9
:105A000048F06115710539F42091E8002E77209354
:105A1000E80001C0B90140E061157105A9F12091CC
:105A20006003222309F443C0253009F442C02091C9
:105A3000E80023FD40C02091E80022FD32C0209103
:105A4000E80020FFE9CF4091F3002091F20030E020
:105A5000342BFC01CF016115710559F02830310557
:105A600040F481918093F100615071092F5F3F4FA5
:105A7000F1CF41E02830310509F040E02091E80005
:105A80002E772093E800C8CF4111C9CF0AC080917A
:105A90006003882361F0853061F08091E80083FD28
:105AA0000AC08091E80082FFF2CF80E0089582E092
:105AB000089583E0089581E008952091670330916F
:105AC00068032617370748F06115710539F42091EE
:105AD000E8002E772093E80001C0B901FC0120E026
