:100000000C9477040C9494040C9494040C9494042D
:100010000C9494040C9494040C9494040C94940400
:100020000C9494040C9494040C94092D0C94DB2DE2
:100030000C946F250C9494040C9494040C949404E4
:100040000C9494040C9494040C9494040C949404D0
:100050000C9494040C94D7250C9494040C9494045C
:100060000C9494040C9494040C9494040C949404B0
:100070000C9494040C9494040C9494040C949404A0
:100080000C9494040C9494040C9494040C94940490
:100090000C9494040C9494040C9494040C94940480
:1000A0000C9494040C9494040C949404EC04EF04C5
:1000B000F204F504F804FB04FE04010807080E0826
:1000C0001908260833083E084B08570863086F08CC
:1000D0007B08A708AA08AD08B008B508BA08B80890
:1000E000510A530A5E0A550A570A590A5B0A5D0A01
:1000F000600A620A640A6F0A660A680A6A0A6C0A77
:100100006E0A710A681A681A7A1A7A1A711A7A1AB1
:100110007A1A7A1A681A681A761A7A1A7A1A761A6B
:10012000B71AB71AEB1AEB1A251B451BB21C111D87
:10013000871B111D341C341CA91C111D111D0B1D06
:10014000411C411C411C411C411C411C411C411CC7
:10015000411C411C411C411C411C411C411C411CB7
:10016000541C611C681C6F1C791C482E6F2E612F5B
:100170006F2E612FBB2EDE2E612F342F432F07638E
:100180004236B79BD8A71A39685618AEBAAB558C09
:100190001D3CB7CC5763BD6DEDFD753EF617723152
:1001A000BF000000803F05A84CCDB2D44EB9383610
:1001B000A9020C50B9918688083CA6AAAA2ABE00BA
:1001C0000000803F6572676F646F785F657A2F39D2
:1001D0006338656232386461346666303035613365
:1001E000336539204020302E362E3237332D3136CC
:1001F0002D676234653462652D646972747900001C
:1002000000F0A101002B002900350064000000016E
:1002100000147104611D004A00045301001A741691
:10022000641B004D00015101000800076806004BE7
:1002300000015101001500096219004E0001000182
:100240000017000A00050000000100010001000085
:100250000001000000010001000100000001000099
:1002600000010001001C000B001100000001000152
:100270000018000D6210001150010001000C000E6A
:1002800078360050002C42010012740F6437005180
:10029000002C4201001371336138005200045101F7
:1002A000002A00280034004F0000000100440045EF
:1002B0000023023200000001003A711E6149000172
:1002C00000010001003B741F6401000100010001F6
:1002D000003C0020682F000100010001003D0021CA
:1002E0006230001050010001003E002200010000B9
:1002F00000010001000100000001000000010001F8
:10030000000100000001000000010001003F002387
:10031000000100000001000100400024722D0012C5
:100320005001000100410025782E0050002C4201B0
:100330000042742664010051002C420100437127E1
:100340006131005200010001002A0028004C004FDA
:100350000000000100A700A6000100A500000001A8
:10036000000100F5000100010001000100F500F2AC
:1003700000F900010001000100F000F100F90001A6
:1003800000F4000100F400F300FA00115001000134
:1003900000A900AA00A8000000010001000100005F
:1003A0000001000000010001000100000001000048
:1003B0000001000100010001000100000001000136
:1003C000000100E10001001350010001000100E301
:1003D000000100010001000100E600E2000100014F
:1003E0000001000100E400E000010039000100010B
:1003F000000100010001000100000029002B00E1C4
:1004000000E000E00000001E00140004001D00E2F7
:100410000001001F001A0016001B003D002C0020E8
:10042000000800070006003D002C0021001500090F
:1004300000190012500100220017000A00050000F8
:1004400000010023002B0000002B000000010034FD
:10045000002B0000002B000000010023001C000BFB
:1004600000110000000100240018000D0010001011
:1004700050010025000C000E0036003100E300267C
:100480000012000F0037005000E300270013003374
:100490000052005100010010502A00280038004F7F
:1004A00000000010500100010001000100000001E7
:1004B00000E85CED5C0100010001000100E95CEE78
:1004C0005C0100010001000100EA5CEF5C01000139
:1004D0000001000100EB5CF05C0100105001000124
:1004E00000EC5CF15C010000000100010001000073
:1004F00000010000000100010001000000010000F7
:1005000000010001000100010001000000010001E4
:1005100000C55CC25CC95C105001000100C65CC330
:100520005CCA5C0100010001000100E75C01000100
:1005300000010001000100010001000100010001B3
:1005400000010001000100010000000000000000A7
:100550000000002A2B28000000000000000000001E
:1005600000000000000029000000002C1E342021A3
:100570002224342627252E362D3738271E1F2021EA
:1005800022232425263333362E37381F0405060749
:1005900008090A0B0C0D0E0F101112131415161763
:1005A00018191A1B1C1D2F3130232D350405060781
:1005B00008090A0B0C0D0E0F101112131415161743
:1005C00018191A1B1C1D2F3130354C00000000007B
:1005D000000000000000000000000000000000001B
:1005E0000000000000000000000000000101010107
:1005F00001010001010101000000000000000000F5
:1006000000000000000100010001010101010101E1
:1006100001010101010101010101010101010101CA
:1006200001010101010100000001010000000000C2
:1006300000000000000000000000000000000000BA
:10064000000000000000010101010000047F3F1FC5
:10065000643214643214783C1E1E140A056801F0DA
:1006600000B40078005A0000000000000101010100
:10067000010101010102020202020202020203035D
:10068000030303030303040404040404050505052C
:1006900005060606060607070707080808080909E9
:1006A000090A0A0A0A0B0B0B0C0C0C0D0D0D0E0E91
:1006B0000F0F0F101011111112121313141415151E
:1006C00016161717181819191A1A1B1C1C1D1D1E8F
:1006D0001F1F2020212222232425252627272829E1
:1006E0002A2B2B2C2D2E2F2F30313233343536360A
:1006F0003738393A3B3C3D3E3F4041424344464710
:1007000048494A4B4C4D4F50515253555657585AE1
:100710005B5C5E5F606263646667696A6C6D6E7085
:100720007173747678797B7C7E8081838486888AF5
:100730008B8D8F91929496989A9B9D9FA1A3A5A72C
:10074000A9ABADAFB1B3B5B7B9BBBDBFC1C4C6C826
:10075000CACCCFD1D3D6D8DADCDFE1E4E6E8EBEDE2
:10076000F0F2F5F7FAFCFF04033000000016034531
:1007700000720067006F0044006F007800200045A1
:10078000005A00000016034500720067006F004425
:10079000006F007800200045005A000000040309A3
:1007A0000409023B00020100A0FA09040000010351
:1007B0000101000921110100012240000705810308
:1007C00008000A09040100010300000009211101C9
:1007D000000122C0000705820320000A1201100157
:1007E00000000008EDFE07130100010203010501EE
:1007F0000902A10185020901A100050919012905C4
:10080000150025019505750181029501750381018A
:100810000501093009311581257F9502750881068A
:1008200009381581257F950175088106050C0A3860
:10083000021581257F950175088106C0C005010953
:1008400080A10185031601002603001A81002A8376
:1008500000751095018100C0050C0901A1018504F6
:10086000160100269C021A01002A9C0275109501AF
:100870008100C005010906A1018505050719E029C8
:10088000E715002501950875018102050819012960
:1008900005950575019102950175039101050719EB
:1008A0000029EF1500250195F075018102C00501B1
:1008B0000906A101050719E029E71500250195089A
:1008C0007501810295017508810105081901290545
:1008D00095057501910295017503910105071900B0
:1008E00029FF150026FF00950675088100C0112418
:1008F0001FBECFEFDAE0DEBFCDBF11E0A0E0B1E078
:10090000E6ECF6E602C005900D92AA3CB107D9F7D5
:1009100023E0AAECB1E001C01D92A03BB207E1F7D1
:100920000E942B2A0C9461330C94000080B38C70CD
:1009300080BB81B3836F81BB089584B1807F84B90C
:1009400085B1807F85B98AB1837F8AB98BB1837F76
:100950008BB93E9846980895CF93E82F873090F54D
:100960008091000190910101892B09F049C0CE2F9F
:1009700064E670E080E40E942D069093010180936C
:100980000001892BD1F464E670E082E10E948406C4
:100990009093010180930001892B79F481E090E02C
:1009A00001C0880FCA95EAF764E670E080950E945E
:1009B0008406909301018093000184E690E0CF913A
:1009C0000C94D90690E0FC013797E730F105C0F4AC
:1009D000EA5AFF4F0C940633209A289811C0219AA6
:1009E00029980EC0229A2A980BC0239A2B9808C0E7
:1009F000529A5A9805C0539A5B9802C03E9A4698FC
:100A0000CF910895089508950C940305CF93DF9333
:100A10000E946B0790E090930101809300010E9477
:100A20009D040E949604AFE1B2E02BEC31E0EDE2D0
:100A3000F2E04EE04E0F11921D9280E090E0E9014D
:100A4000C80FD91F1882019686309105C1F72A5F19
:100A50003F4F4E13F0CFDF91CF910C948A090E9443
:100A60006B0790E090930101809300010E949D0428
:100A70000E949604EDE2F2E08EE08E0F11928E134A
:100A8000FDCF0895CF93DF93E62FF0E0E15EFD4FB9
:100A900040814827808386E0689FF0011124E55358
:100AA000FE4F20E030E080E061E070E050E0AAE03E
:100AB000B22F9081992319F09150908307C0EB01D8
:100AC000022E01C0CC0F0A94EAF78C2BEA0102C077
:100AD000D595C795BA95E2F7C0FDA0832F5F3F4F2C
:100AE00031962630310521F7DF91CF910895CF93CC
:100AF000DF93D82F873008F040C08091000190919B
:100B00000101892B09F042C064E670E080E40E9494
:100B10002D069093010180930001892B11F0C0E014
:100B200027C064E670E083E10E948406909301018F
:100B300080930001892B99F764E670E081E40E94BC
:100B40002D069093010180930001892B41F784E6E3
:100B500090E00E94B40697FF05C090930101809336
:100B60000001DDCFC82FC095109201011092000145
:100B700084E690E00E94D9060AC09FB1CFB1C07F41
:100B8000C695C6959370C92BC09501C0C0E06D2F66
:100B90008C2F0E944205282F2095ED2FF0E0E35D79
:100BA000FD4F908192238C23892BDF91CF91089563
:100BB000EF92FF920F931F93CF93DF9380910001E9
:100BC00090910101892B91F08091CA018F5F8093F0
:100BD000CA0181110BC00E946B0790E09093010144
:100BE00080930001892B11F40E94FD068DE2E82E0E
:100BF00082E0F82E04E312E0C0E08C2F0E94AC04E7
:100C0000D7E0DC0F8D2F0E94AC048C2F0E9477055B
:100C1000F70181937F018D2F0E947705F801819361
:100C20008F010E949D04CF5FC73039F70E9494095D
:100C300081E0DF91CF911F910F91FF90EF90089588
:100C4000E82FF0E0E35DFD4F808108950895109254
:100C5000B9008CE08093B8000895EF92FF920F9353
:100C60001F93CF93DF93182FEB011092BC0084EAFF
:100C70008093BC000E94A1257C019091BC0097FD4F
:100C80000EC0CF3F8FEFD807C1F30E94A1258E1968
:100C90009F098C179D0788F38EEF9FEF2EC09091D0
:100CA000B900987F983041F09091B900987F9031C9
:100CB00019F08FEF9FEF21C01093BB0084E8809361
:100CC000BC000E94A1258C019091BC0097FD0CC036
:100CD000CF3F8FEFD807C1F30E94A125801B910B56
:100CE0008C179D0788F3D8CF8091B900887F883111
:100CF00011F08034F1F680E090E0DF91CF911F9108
:100D00000F91FF90EF9008950F931F93CF93DF9370
:100D1000EB018093BB0084E88093BC000E94A12576
:100D20008C019091BC0097FD0EC0CF3F8FEFD8078C
:100D3000C1F30E94A125801B910B8C179D0788F39E
:100D40008EEF9FEF0CC02091B900287F81E090E0EA
:100D5000283211F480E090E0919581959109DF911E
:100D6000CF911F910F9108950F931F93CF93DF930E
:100D7000EC0184E88093BC000E94A1258C01909135
:100D8000BC0097FD0EC0CF3F8FEFD807C1F30E9484
:100D9000A125801B910B8C179D0788F38EEF9FEF89
:100DA00003C08091BB0090E0DF91CF911F910F9124
:100DB00008950F931F93CF93DF93EC0184E9809301
:100DC000BC000E94A1258C019091BC0094FF0EC034
:100DD000CF3F8FEFD807C1F30E94A125801B910B55
:100DE0008C179D0788F38EEF9FEF02C080E090E0A4
:100DF000DF91CF911F910F91089556985E98259895
:100E00002D9826982E9827982F988FEF90E0909302
:100E100089008093880090938B0080938A00909340
:100E20008D0080938C00259A2D9A2FEF80E792E019
:100E3000215080409040E1F700C00000269A2E9A91
:100E40002FEF80E792E0215080409040E1F700C012
:100E50000000279A2F9A2FEF80E792E021508040E0
:100E60009040E1F700C0000025982D982FEF80E713
:100E700092E0215080409040E1F700C000002698A9
:100E80002E982FEF80E792E0215080409040E1F7CC
:100E900000C0000027982F9856985E9825982D98A6
:100EA00026982E9827982F98089589EA8093800095
:100EB00089E08093810024982C983F988AB18F7C98
:100EC0008AB96E98479A8BB180638BB9769A0E94E3
:100ED000FD060C94020580E290E09093010180935E
:100EE000000180913B0281110EC00E94270681E023
:100EF00080933B022FEF83ED90E3215080409040A0
:100F0000E1F700C0000064E670E080E40E942D0676
:100F10009093010180930001892B09F050C064E691
:100F200070E080E00E9484069093010180930001AC
:100F3000892B09F044C064E670E080E00E948406DA
:100F40009093010180930001892BC9F564E670E05C
:100F50008FE30E9484069093010180930001892B06
:100F600071F584E690E00E94D90664E670E080E4C2
:100F70000E942D069093010180930001892BF9F4C2
:100F800064E670E08CE00E948406909301018093F7
:100F90000001892BA1F464E670E080E00E948406E1
:100FA0009093010180930001892B49F464E670E07D
:100FB0008FE30E948406909301018093000184E6F0
:100FC00090E00E94D906809100010895611108C047
:100FD000FC018281882321F084EC91E00E94870942
:100FE00080E090E00895FC01E65EFC45EC30F10500
:100FF00008F090C0DB01E35AFF4F12968C910C94DD
:101000000633882309F487C00E948D2481C0882379
:1010100009F481C081E00E948C127AC0882309F40F
:101020007AC00E948F1281E00E948C124DEC60E029
:101030002FC0882309F46FC00E948F1281E00E94A4
:101040008C124BEB66E68CE290E060C0882309F4DA
:1010500062C00E948F1281E00E948C124FEF6FEFEE
:1010600086E290E053C0882309F455C00E948F1295
:1010700081E00E948C124FEF6FEF0AC0882309F4C1
:101080004AC00E948F1281E00E948C1249E867ECEE
:1010900080E090E03BC08823F1F10E948F1281E054
:1010A0000E948C124FEF6FEF84E291E02FC08823F3
:1010B00091F10E948F1281E00E948C1240E86FEF44
:1010C0008CE291E023C0882331F10E948F1281E0ED
:1010D0000E948C1240E86FEF88E790E017C08823E9
:1010E000D1F00E948F1281E00E948C124FEF6DEDC3
:1010F00088EB90E00BC0882371F00E948F1281E092
:101100000E948C124FEF6FEF80EF90E00E9422124E
:1011100080E0089581E00895CF92DF92EF92FF92F0
:101120006B017C010E94CF2356985E9825982D98DC
:1011300026982E9827982F98482F50E0FA0131973B
:10114000E730F105E0F4E759FF4F0C940633259A98
:101150002D9A50C0269A2E9A57C0279A2F9A5EC071
:10116000259A2D9A269A2E9A63C0259A2D9A04C004
:10117000259A2D9A269A2E9A279A2F9A64C0823001
:1011800009F442C028F4882351F0813099F15BC002
:10119000833009F443C0843009F44AC054C00E942B
:1011A0000E106093560370935703809358039093E7
:1011B000590360FF1CC00E948F12809156038695D0
:1011C0008F730E948C1280915603881F8827881F76
:1011D00090915703292F220F97FB992790F940915F
:1011E000590360915803822B0E9422122CC00E9446
:1011F000D51229C00E94CC1281E00E9498124FEFB4
:101200006FEF8CE890E01DC00E94CC1281E00E943C
:1012100098124FEF6FEF84E290E013C00E94CC125F
:1012200081E00E9498124FEF6FEF80E090E009C0DC
:101230000E94CC1281E00E9498124EEE6CEE88EB78
:1012400090E00E942512C701B601FF90EF90DF9059
:10125000CF90089581E008950C94F307CF93282F41
:1012600030E0F901E55BFA4FC491F901E553FA4F1B
:101270002491222359F081EE0E94A2188C2F0E9403
:10128000A2188C2F0E94C01981EE04C08C2F0E94DE
:10129000A2188C2FCF910C94C0190F931F93CF934A
:1012A000DF93EC01062FFE018491882359F19E0102
:1012B0002F5F3F4F813041F4E901F9011491812FF3
:1012C0000E94A218812F0DC0823031F4E901F9018A
:1012D00084910E94A2180AC0833031F4E901F90117
:1012E00084910E94C01902C00E942E092196802F6D
:1012F0008823C9F2EFE9FFE03197F1F700C0000061
:101300008150F6CFDF91CF911F910F91089560E04A
:101310000C944D090E941F24811102C00E948D244B
:101320000E94EA0E0C9455070C940405282F2F7088
:1013300041F0822F90E02A3010F44D9608950697E0
:10134000089587E290E0089508950C94A4090C9400
:10135000A50908950E94581A0E94A9092FEF84E355
:101360009CE0215080409040E1F700C000000C94C8
:10137000FD25FF920F931F93CF93DF938C01FC0108
:10138000C081D18180918502811113C0828188231F
:1013900049F0CE010E949C22F82E682FCE010E94B7
:1013A0003F2204C0CE010E946F22F82EBE018F2D75
:1013B00004C0CE010E949C22BE010E94540CEC018C
:1013C000B8010E942C09882309F466C2B801CE0135
:1013D0000E94650F882309F45FC2CC3CFCE5DF075F
:1013E00041F4F8018281882309F456C20E945C10FE
:1013F00053C2CD3C8CE5D80708F01EC1C43C9CE527
:10140000D90761F4F8018281882309F445C20E945A
:101410001C238272E1F40E9489123EC2C53CECE5B5
:10142000DE0708F0C7C0C531FCE5DF0798F0C23C15
:10143000FCE5DF0709F48CC008F492C0F801828152
:10144000882309F429C20E941C23827221F70E947A
:101450007B1222C2C2308CE5D80708F452C0F801D2
:101460008281882309F459C00E941F24811102C07F
:101470000E948D240E94322490E09093A2038093D6
:10148000A103FE01E350FC45E231F10530F4E059DF
:10149000FF4F8091A1030C9406338091A1038160DA
:1014A00027C0826025C0846023C0806121C0806223
:1014B0001FC080641DC080681BC08460886018C025
:1014C0008E7F16C08D7F14C08B7F12C08F7E10C0A0
:1014D0008F7D0EC08F7B0CC08F770AC08B7F877F7C
:1014E00007C087FB222720F991E0922790FB87F91C
:1014F0008093A1038091A1030E9436240E94581A70
:10150000CBC1C1159CE5D90781F0C130DC45A9F0FC
:1015100081E08093410280934202C801DF91CF9124
:101520001F910F91FF900C942A09F8018281882362
:1015300009F4B2C10E94AA09AFC1F80182818823CF
:1015400009F4AAC180912603816080932603A4C177
:10155000F8018281882309F49FC10E94ED129CC189
:10156000C631DC45A9F60E941C23282FF801828190
:1015700040910F0150911001882379F02A7A91E06F
:1015800009F490E090933C02911102C069E201C01D
:1015900065E3CA010E94F4240AC080913C028111D3
:1015A00002C069E201C065E3CA010E94FF240E94F3
:1015B0006B2372C1F8018281C83CFCE5DF0731F47E
:1015C000882309F469C10E94DF1166C1C93C9CE50A
:1015D000D907C8F4C63CECE5DE0731F4882309F4EA
:1015E0005BC10E94B11158C1C73CDC4530F488236F
:1015F00009F452C10E948D114FC1882309F44CC1D6
:101600000E94C81149C1CA3C9CE5D90731F488231E
:1016100009F442C10E941F123FC1CB3CDC4530F4AB
:10162000882309F439C10E94FF1136C1882309F4C7
:1016300033C10E94471030C1C43DFCE5DF0791F47F
:10164000F8018281882309F427C10E943E10893164
:1016500028F00E943E10823208F4F9CE89E10E94FF
:101660008C121AC1C53D8CE5D80708F068C0F80196
:101670008281C03DFCE5DF0771F4882309F40CC1C9
:101680000E943E10893028F00E943E108E3008F4EF
:10169000DECE89E0E4CFC13D9CE5D90740F5CE3CE4
:1016A000ECE5DE0771F4882309F4F6C00E943E10D1
:1016B000823028F00E943E10853008F4C8CE82E0C7
:1016C000CECFCF3CDC4528F4882309F4E5C081E087
:1016D000C6CF882309F4E0C00E943E10863028F06F
:1016E0000E943E10883008F4B2CE86E0B8CFC23DEA
:1016F0009CE5D90771F4882309F4CEC00E943E10FE
:10170000853128F00E943E10873108F4A0CE85E193
:10171000A6CFC33DDC4570F4882309F4BDC00E9408
:101720003E108F3028F00E943E10843108F48FCE96
:101730008FE095CF882309F4AFC088E190CFC83DF2
:10174000FCE5DF0759F5F8018281882361F01092EA
:1017500042020E94A1259093400280933F0280E2C2
:101760000E94301A99C080914202882321F080E2C1
:101770000E94371A91C080913F02909140020E94CE
:10178000AD25803F910598F780E20E94371A88E2E4
:101790000E94A21888E20E94C0197EC0C93D8CE553
:1017A000D80708F058C0F8018281C63DFCE5DF0784
:1017B00051F5882351F0109241020E94A125909387
:1017C0003E0280933D0282E0CBCF0E941C2385FF26
:1017D00005C081E0809341028093420280914102E2
:1017E00081110FC080913D0290913E020E94AD2573
:1017F000803F910530F486E20E94A21886E20E94A2
:10180000C01982E0B5CFC73DDC4528F4882309F430
:1018100043C083E224CF81119ACF0E941C2381FF11
:1018200005C081E080934102809342028091420290
:1018300081119DCF80913F02909140020E94AD2581
:10184000803F910508F093CF87E20E94A21887E2BB
:101850000E94C0198CCFCC3DECE5DE0741F4F801C5
:1018600082818823C9F082E00E94CC2A15C0CD3D38
:10187000FCE5DF0739F4F8018281882369F00E94D2
:101880008D240AC0CB3DDC4509F042CEF8018281AF
:10189000882311F080E0E8CF80E0DF91CF911F91A5
:1018A0000F91FF900895089596E0799FF00111241B
:1018B00094E5899FE00DF11D1124E60FF11DEE0F57
:1018C000FF1FED5FFD4F859194910895880F991F3B
:1018D000FC01E150FE4F859194910895CF93DF93E1
:1018E0000E94540C0E94330EEC01811520E59207F2
:1018F000F0F5811530E4930708F029C1883E910581
:1019000000F5803E910508F0AAC1883A910570F46F
:10191000853A910508F0A4C08130910509F49FC172
:1019200008F450C1049708F09AC14CC18F3B91054F
:1019300008F4A1C0803C910508F444C1805C910981
:10194000F9C0811540E2940758F4C11581E0D80729
:1019500008F085C1C03FD10508F434C1D0657FC10E
:10196000811520E3920708F0E9C09F70E3C081155C
:1019700035E5930708F044C0811544E5940708F065
:10198000FDC0C11582E5D80708F5C11521E5D207CC
:1019900008F0E0C08C2F837021E030E002C0220FFD
:1019A000331F8A95E2F73C68CE0174E096958795DF
:1019B0007A95E1F78370382BCF70C695C69540E2D3
:1019C000C49FE0011124C22BD32B49C12C2F269593
:1019D0002695CE0183709927C115D34508F0BFC065
:1019E00040E2249F90011124C1E0D0E002C0CC0F5E
:1019F000DD1F8A95E2F72C2B3D2BE901DC682FC116
:101A000081154AE59407A0F4C11589E5D80708F0C7
:101A1000C4C0C11526E5D20708F4B5C0C11538E524
:101A2000D30708F4CFC0DC2FCC27C06FD06A17C112
:101A300081159B4508F4C6C0C1158CE5D80708F48C
:101A4000BEC0CE0190568115904208F0BBC08D2FCC
:101A50008F710E94B00EDD27D0628F71D82BFFC02E
:101A6000853A910509F4B1C0863A910509F0B0C0F4
:101A7000C2E8D0E4F4C0883A910509F4ACC0893AD0
:101A8000910509F4ABC08A3A910509F4AAC08B3AD2
:101A9000910509F4A9C08C3A910509F4A8C08B3BC3
:101AA000910509F4A7C08C3B910509F4A6C08D3AB5
:101AB000910509F4A5C0803B910509F4A4C08E3AB4
:101AC000910509F4A3C08F3A910509F4A2C0813BA6
:101AD000910509F4A1C0823B910509F4A0C0833BA4
:101AE000910509F49FC0843B910509F49EC0853B94
:101AF000910509F49DC0863B910509F49CC0873B84
:101B0000910509F49BC0883B910509F49AC0893B73
:101B1000910509F499C08D3B910509F498C08E3B5D
:101B2000910509F497C08A3B910509F496C0C0E07D
:101B3000D4E495C00E94660CEC0191C09927D3FFB4
:101B400003C0EC01D86C8BC0EC01D06C88C0DF7096
:101B5000D06A85C0DC2FCC27C16FD06A80C040E23C
:101B6000249F90011124C1E0D0E002C0CC0FDD1F02
:101B70008A95E2F7C22BD32BDA6871C0D82FCC2715
:101B8000C46FD06A6CC08C2F0E94B00E8F71C82FAA
:101B9000D0E0DC2FCC27D06262C08C2F8F700E94E7
:101BA000B00E94E0D695C7959A95E1F7CF70D0E046
:101BB000DC2FCC27D06A8F70806EC82B50C0DD27F9
:101BC000D0664DC0C0E0D0E04AC0C1E8D0E447C014
:101BD000C3E8D0E444C0C2EED4E441C0C9EED4E4CA
:101BE0003EC0CAEED4E43BC0C5EBD4E438C0C6EB7B
:101BF000D4E435C0C3EBD4E432C0C4EBD4E42FC08A
:101C0000C7EBD4E42CC0CCECD4E429C0CDECD4E4B4
:101C100026C0C3E8D5E423C0CAE8D5E420C0C2E9A1
:101C2000D5E41DC0C4E9D5E41AC0C1E2D6E417C0AA
:101C3000C3E2D6E414C0C4E2D6E411C0C5E2D6E4DF
:101C40000EC0C6E2D6E40BC0C7E2D6E408C0CFE6B9
:101C5000D4E405C0C0E7D4E402C0CAE2D6E4CE01B1
:101C6000DF91CF9108958238910549F1B0F4813325
:101C7000910509F458C048F48932910509F44EC021
:101C80008A32910509F454C008958533910509F409
:101C900040C08933910599F00895833E910529F15B
:101CA00038F4803E910591F0823E9105A1F00895AF
:101CB000863E9105F9F0873E910531F10895209116
:101CC000A10320FD3AC021FD38C008958091A103F1
:101CD00080FD35C032C08091A10382FF32C0809167
:101CE000A10384FD30C083EE39C08091A10382FD41
:101CF00028C0F5CF8091A10383FF27C08091A10365
:101D000084FD21C087EE2AC08091A10383FD1DC000
:101D1000F5CF8091A10385FD1AC01BC08091A1035E
:101D200085FD17C014C08091A10386FD14C015C0A5
:101D30008091A10386FD11C00EC080EE0FC089E323
:101D40000DC082EE0BC080E009C086EE07C089E2BC
:101D500005C085E303C08AE201C081E390E00895F5
:101D60009091A10392FF0DC0282F2871283019F4FB
:101D7000877F846006C0282F2471243011F48B7F64
:101D8000886093FF0DC0282F2871283119F4877EB1
:101D9000846106C0282F2471243111F48B7E886160
:101DA00094FD877E0895CF93DF93813020E89207DA
:101DB00068F0FB012281222349F0EC010E94000F10
:101DC000CE019F770E94480F0E94350F81E0DF917E
:101DD000CF9108958CE090E00E94193390E0A0E04C
:101DE000B0E080935B0390935C03A0935D03B0939A
:101DF0005E03089560915B038CE090E00C942D33BA
:101E00000E941C23809343020E942F2380915B0336
:101E1000813071F048F08230D9F08430F9F486EEE8
:101E20000E94281A88E118C082EE0E94A21816C0EB
:101E300080EE0E94A21881EE0E94A21888E10E9402
:101E4000281A81EE0E94C01980EE0E94C01906C0B7
:101E500082EE0E94A21887E50E94281A8FE39CE96F
:101E60000197F1F700C00000089580915B03813075
:101E700021F038F0823029F007C08CE20E94281A45
:101E800003C082EE0E94C019809143020C942C235F
:101E90000F931F93CF93DF938C01CCE0D0E0C80168
:101EA0000C2E02C0969587950A94E2F78F700E94D7
:101EB00096090E94281A2497CC3F8FEFD80779F70C
:101EC000DF91CF911F910F9108950F931F93CF939F
:101ED000DF93EC018B01FB018281882319F1C23E63
:101EE000FCE5DF07C1F050F4C03EECE5DE0781F011
:101EF000C13EFCE5DF07B1F481E010C0C33E8CE5D4
:101F0000D80759F0C43EECE5DE0761F484E006C072
:101F100010925B0305C082E001C083E080935B0305
:101F20000E94FA0EB801CE01DF91CF911F910F915F
:101F30000C94D30EEF92FF920F931F93CF93DF93E6
:101F4000E901662309F44BC0242F30E0EFEFF0E005
:101F5000E61BF109B901E69F9001E79F300DF69F5E
:101F6000300D1124232F8B01031B11095CE3E52E97
:101F7000F12CB7010E94DE32FB01BC01069FC001BB
:101F8000079F900D169F900D1124B7010E94DE321D
:101F9000E230F105B1F040F4309779F0319711F566
:101FA000832F242F461B21C0E430F105A1F068F0F7
:101FB0003597C1F4842F861B18C0832F262F230F3B
:101FC00014C0862F830FE42F03C0E42FE61B842F59
:101FD000432F2E2F0AC0842F462F430F06C0842F75
:101FE000242F03C080E020E040E0E42FF0E0E95936
:101FF000F94F4491E22FF0E0E959F94F9491E82F1D
:10200000F0E0E959F94FE49149839883EA83DF913D
:10201000CF911F910F91FF90EF90089588E090E08D
:102020000C942133CF92DF92EF92FF926B017C01EF
:102030000E940E106C157D058E059F0551F0B701AD
:10204000A60188E090E0FF90EF90DF90CF900C9495
:102050003F33FF90EF90DF90CF900895E6E5F3E0F7
:1020600083E08083109257038FEF828383831482EF
:1020700060817181828193810C941210809156034A
:1020800080FF03C086958F73089580E00895809146
:102090005A0390E001968430910514F083E090E0BB
:1020A00080935A03609156037091570380915803AF
:1020B000909159030C94121080915A0390E001976B
:1020C00097FF02C080E090E08430910514F083E037
:1020D00090E080935A03609156037091570380916A
:1020E0005803909159030C9412108091560380FF6D
:1020F00006C06FE070E08FE593E00C94A91680E0D5
:1021000090E0FC01E15AFC4F118210821282049689
:102110008C339105B1F7EDCF9091560390FF0FC02E
:1021200020E030E0F901E15AFC4F81836083428373
:102130002C5F3F4F2C333105A9F70C94751008958F
:10214000CF93DF9300D000D0CDB7DEB720915603F8
:1021500020FF0AC09E012F5F3F4F0E949A0F4B81C4
:1021600069818A810E948C100F900F900F900F90C0
:10217000DF91CF9108955F926F927F928F929F929D
:10218000AF92BF92CF92DF92EF92FF920F931F9385
:10219000CF93DF9300D000D0CDB7DEB78C01E62E11
:1021A000F42E522E8091560380FF89C0982F9E777F
:1021B000923061F49E012F5F3F4FC8010E949A0F39
:1021C0004B8169818A810E948C1059C0E82FE69565
:1021D000EF739EE39E0F9F73943018F4F0905903B1
:1021E0004EC09AE39E0F9F73993068F4881F88272A
:1021F000881F90915703292F220F022F082B97FB3E
:10220000112710F93CC087E28E0F8F738A30B8F522
:10221000F0E07997E0FD02C021E001C02FEFEE7FF2
:10222000E35AF94F859194916FE070E00E94DE329D
:1022300026034001279F900C1124580188E9A81A11
:102240008EEFB80A8FE5C82E83E0D82E98E6692E67
:1022500077247394C501B3010E94DE3296014F2D9D
:102260006E2D0E949A0FA80CB91C84E0C80ED11CD8
:102270008BE9C81683E0D80669F70E947510809133
:10228000560300FB87F980935603902F9695809113
:1022900057038078892B10FB87F980935703E092CE
:1022A0005803F0925903552051F0609156037091F4
:1022B000570380915803909159030E9412100F9078
:1022C0000F900F900F90DF91CF911F910F91FF9082
:1022D000EF90DF90CF90BF90AF909F908F907F90C6
:1022E0006F905F900895282FE6E5F3E09081991FA5
:1022F0009927991F30915703832F880F482F492B17
:1023000037FB552750F9CA010C9668E671E00E9428
:10231000F232438162810C94BB1081E00C94731102
:10232000282F90915603991F9927991F3091570391
:10233000832F880F482F492B37FB552750F9CA01A7
:102340004C3051051CF4845A9E4F01C00C9768E62E
:1023500071E00E94F23240915903609158030C944D
:10236000BB1081E00C949011E6E5F3E03081331F5F
:102370003327331F90915703592F550F97FB9927F8
:1023800090F9282F43816FEF852F832B0C94BB107E
:1023900081E00C94B411E6E5F3E03081331F33277C
:1023A000331F90915703592F550F97FB992790F999
:1023B000282F438160E0852F832B0C94BB1081E094
:1023C0000C94CB1140915903242F30E0243F310568
:1023D00014F4445F01C04FEF30915603331F33278D
:1023E000331F90915703592F550F97FB992790F959
:1023F000282F60915803852F832B0C94BB1081E00C
:102400000C94E21140915903242F30E02C30310517
:1024100014F04C5001C040E030915603331F332775
:10242000331F90915703592F550F97FB992790F918
:10243000282F60915803852F832B0C94BB1081E0CB
:102440000C94021221E00C94BB1020E00C94BB1001
:10245000CF939091560390FF40C09178811102C0B4
:10246000926007C0853210F0986403C08F73880FA4
:10247000982B90935603662351F060915603709108
:10248000570380915803909159030E941210C091F4
:1024900056036C2F66956F7370E04BE050E084E05C
:1024A00091E00E940C33892B19F01092610203C055
:1024B00081E080936102CC1FCC27CC1F9091570301
:1024C000892F880F97FB992790F9409159036091C4
:1024D00058038C2BCF910C942512CF910895682F1F
:1024E0009091560396959F7381E0890F853208F08D
:1024F00081E00C94281281E00C946F12682F909167
:10250000560396959F738FEF890F09F484E20C941C
:10251000281281E00C947E1261E00C942812E6E50A
:10252000F3E080818160808386958F730C948C1298
:1025300060E00C942812809126038160809326032A
:102540000E941F24811104C00E948D240E942E101D
:102550000E940E10609356037093570380935803A4
:10256000909359036E7761F40E942E100E940E1012
:1025700060935603709357038093580390935903C5
:1025800081E0809361028091560380FF04C08695AC
:102590008F730C9498120895E6E5F3E080818160D2
:1025A000808386958F730C949812E6E5F3E0808122
:1025B0008E7F808360817181828193810E9412105D
:1025C000109261022FEF80E792E02150804090400E
:1025D000E1F700C000000C9475108091560380FD57
:1025E0000C94D5120C948F12CF93C82F80915F0258
:1025F000909160020E94AD25EC2FF0E0E75AF94F70
:10260000E491F0E08E179F0708F443C00E94A125D3
:102610009093600280935F0260915E0270E080E0C0
:1026200090E00E94DF3020E030E04FE753E40E946A
:1026300002302BED3FE049E450E40E9408320E9452
:1026400075320E947C302BE43AE34EE25FE30E9455
:10265000952F20EF3BEF48ED52E40E9408320E9494
:10266000AE30462F80915603881F8827881F90918F
:102670005703292F220F97FB992790F96091580350
:10268000822B0E94A01080915E0290E001968093C0
:102690005E02CF910895CF93C82F80915C029091F4
:1026A0005D020E94AD25EC2FF0E0EA5AF94FE4916B
:1026B000F0E08E179F07E8F00E94A12590935D023D
:1026C00080935C02409159036091580380915A02B3
:1026D00090915B020E94A01080915A0290915B023F
:1026E000019668E671E00E94DE3290935B0280936F
:1026F0005A02CF910895CF92DF92FF920F931F93CA
:10270000CF93DF93F82E80915802909159020E9446
:10271000AD25EF2DE695F0E0ED5AF94FE491F0E0AC
:102720008E179F07E8F10E94A1259093590280938C
:1027300058020FE513E0C0E0D0E088E6C82EDD24A3
:10274000D39480915602909157028C0F9D1FB60131
:102750000E94DE32980140915903609158030E9413
:102760009A0F68960C5F1F4FC83681E0D80749F76B
:102770000E9475102091560230915702F0FE0AC057
:10278000C9010196BE010E94DE32909357028093E8
:10279000560206C021503109309357022093560249
:1027A000DF91CF911F910F91FF90DF90CF9008950F
:1027B000AF92BF92CF92DF92EF92FF920F931F934F
:1027C000CF93DF93C82F80FF02C01FEF01C011E03D
:1027D00080915402909155020E94AD25C695EC2F30
:1027E000F0E0E05BF94FE491F0E08E179F0708F40A
:1027F00066C00E94A12590935502809354022FE554
:10280000C22E23E0D22E31E6E32E33E0F32EC0E0D9
:10281000D0E0F70131971082F6011082F7011082A3
:1028200094E0A92EB12C00E080915302800F87FD27
:10283000815F082E000C990BC817D907E9F4809125
:1028400059038A9DA0018B9D500D112455954795E4
:102850005595479580915603881F8827881F90912A
:102860005703592F550F97FB992790F996016091BF
:102870005803852B0E949A0F010FF1E0AF1AB1089F
:1028800099F6219684E0C80ED11CE4E0EE0EF11C0E
:10289000CF30D10509F0BDCF0E9475108091530251
:1028A000113031F4811102C08EE007C0815005C0A3
:1028B00090E00196BE010E94F23280935302DF91B4
:1028C000CF911F910F91FF90EF90DF90CF90BF902D
:1028D000AF9008950F931F93CF93DF93C82F8091EC
:1028E0005102909152020E94AD25EC2FF0E0E35B83
:1028F000F94FE491F0E08E179F0708F464C00E943E
:10290000A125909352028093510280E090E0FC0157
:10291000E15AFC4F11821082128204968C33910589
:10292000B1F7C0E0D0E00FE010E0CE01B8010E94A6
:10293000F232FC0180915002082E000C990BEE0F30
:10294000FF1FEE0FFF1FC817D907FCF0809103018E
:10295000082E000C990B8C179D07BCF09F01215A83
:102960003C4F80915603881F8827881F90915703FA
:10297000592F550F97FB992790F940915903609172
:102980005803852B0E949A0F05C0E15AFC4F118213
:10299000108212822196CF30D10539F60E9475102F
:1029A0008091020190915002980F909350022091D3
:1029B0000301280F20930301121614F49E301CF01B
:1029C000819580930201DF91CF911F910F9108951E
:1029D000EF92FF920F931F93CF93DF9380914E025C
:1029E00090914F020E94AD25883E9340D0F10E9405
:1029F000A12590934F0280934E02C0914C02D0913A
:102A00004D022196C170DD27D0934D02C0934C0238
:102A10008FE5E82E83E0F82E10E008E7812F8695F9
:102A2000FE01E80FF11DCF018170992797014091B8
:102A3000590360915803FC010E9FC0010F9F900D38
:102A400011240E949A0F1F5FF4E0EF0EF11C1F305B
:102A500029F7DF91CF911F910F91FF90EF900C9488
:102A60007510DF91CF911F910F91FF90EF90089516
:102A7000CF93DF9300D000D0CDB7DEB780914A026C
:102A800090914B020E94AD25EBE4F6E02591349144
:102A900082179307C0F18091490281110CC09E01F9
:102AA0002F5F3F4F4FEF6FEF80E090E00E949A0F53
:102AB0008A81809349020E94A12590934B028093C2
:102AC0004A0280914802813051F028F0823061F44E
:102AD000409149020AC08091490240E007C06091DC
:102AE000490240E080E003C040E080E060E00E94F6
:102AF0008C108091480290E0019663E070E00E94A3
:102B0000F232809348020F900F900F900F90DF9158
:102B1000CF9108950F931F93CF93DF938091460237
:102B2000909147020E94AD25843F914008F448C02F
:102B30000E94A1259093470280934602CFE5D3E0FF
:102B400000E010E02091440230914502809156034C
:102B500090915703073011051CF4232B79F002C024
:102B6000232B61F4881F8827881F592F550F97FB47
:102B7000992790F99E01409159030AC0881F882720
:102B8000881F592F550F97FB992790F99E0140E018
:102B900060915803852B0E949A0F0F5F1F4F249658
:102BA0000F30110579F60E947510809144029091C2
:102BB00045020196817099279093450280934402C3
:102BC000DF91CF911F910F91089580916102882329
:102BD000D9F190915603892F86958F732EE3280F94
:102BE0002F73243018F482500C94F4122AE3280F27
:102BF0002F73233018F486500C944B1327E3280FBF
:102C00002F73263018F489500C947B1321E3280F7E
:102C10002F73263018F48F500C94D8132BE2280F02
:102C20002F73233018F485510C946A14892F8E77F2
:102C3000803311F40C94E814863411F40C94381594
:102C4000883411F40C948A150895882319F051984A
:102C5000599A02C0519A59985098589A95E09A9565
:102C6000F1F70000509A589895E09A95F1F7000016
:102C7000882311F0519A599885E08A95F1F7000060
:102C800008958BB18C7F8BB95098589A5198599A66
:102C900085E08A95F1F7000008958AB18C7F8AB9A2
:102CA00085E08A95F1F70000519A599885E08A9558
:102CB000F1F70000509A589885E08A95F1F70000E6
:102CC00008955098589A85E08A95F1F70000519838
:102CD000599A85E08A95F1F700000895CF93DF9324
:102CE000D82FC8E08D2F80780E942516DD0FC150A7
:102CF000C9F780E00E94251685E08A95F1F700006B
:102D000085E08A95F1F7000080E0DF91CF9108958A
:102D10002BB1342F309523233BB1432B3FB7F8948D
:102D2000FC01680F791FE617F70789F0819198E099
:102D30004BB9000000C087FF2BB9880F000000C00E
:102D400000C000C02BB900C09A9591F7ECCF3FBFEF
:102D50000895AF92BF92CF92DF92EF92FF920F93BE
:102D60001F93CF93DF938C01EB01CFB6D090BC00C3
:102D7000F8948091BC008B7F8093BC000E94411628
:102D80000E944D1684E80E946E16CC0FDD1FCC0FFA
:102D9000DD1F78015801AC0EBD1EEA14FB0431F0B2
:102DA000F70181917F010E946E16F7CF0E94611694
:102DB000CFBED092BC00579A40E8BE01C801DF9157
:102DC000CF911F910F91FF90EF90DF90CF90BF9028
:102DD000AF900C94881690936702809366020895D2
:102DE000E0916602F0916702309721F00190F08146
:102DF000E02D099480E00895E0916602F091670269
:102E0000309799F020912001222359F02091A103BD
:102E100027FF07C0DC012C9111962C93119725E018
:102E20002C930280F381E02D09940895E0916602CD
:102E3000F0916702309739F022E0DC012C93048096
:102E4000F581E02D09940895209164023091650286
:102E50008217930771F09093650280936402E0916A
:102E60006602F0916702309721F00680F781E02D2D
:102E700009940895209162023091630282179307AA
:102E800071F09093630280936202E0916602F09188
:102E90006702309721F00084F185E02D09940895B0
:102EA00085B7806885BF85B7806885BF0895089518
:102EB0000E9450170C94571781E008950E9498259E
:102EC0000E9406050E942F260C949B12CF92DF923F
:102ED000EF92FF920F931F93CF93DF93CDB7DEB79F
:102EE0002B970FB6F894DEBF0FBECDBF0E94D8055A
:102EF0000E945C17811111C08FEF89838A831B8226
:102F00000E94A1258160782F9D838C8349815A81FD
:102F10006B818D810E944A1856C089E6C82E82E0D6
:102F2000D82E00E010E0E02E802F0E942006F6014F
:102F300041916F01F42EF82631F40F5F1F4F0E30D0
:102F4000110589F7D9CF9091260391FF04C08B8793
:102F50000E9426068B8520E030E04F2D50E0922F16
:102F6000BA01022E02C0759567950A94E2F760FFD8
:102F700024C02E83EF8221E030E0690102C0CC0C36
:102F8000DD1C9A95E2F790E08C219D21892B09F4B4
:102F900020E028870E94A1258160782F9A87898761
:102FA0004E815F8168858A850E944A18F801E75939
:102FB000FD4F8081C826C08206C02F5F3F4F26305C
:102FC000310569F6BACF0E94C227109168020E94AB
:102FD000F0161817A1F00E94F016809368022B9645
:102FE0000FB6F894DEBF0FBECDBFDF91CF911F911A
:102FF0000F91FF90EF90DF90CF900C94A7092B9644
:103000000FB6F894DEBF0FBECDBFDF91CF911F91F9
:103010000F91FF90EF90DF90CF900895DC01119613
:103020002C9111978C91682F70E041E050E001C025
:10303000440F8A95EAF712968C91129730E0882314
:1030400029F0809187028823E9F006C0F901E95848
:10305000FD4F90819423B1F086E0829FF001839F21
:10306000F00D1124E60FF71FEE0FFF1FEF5DFE4F6F
:10307000808191818D939C93F901E958FD4F808166
:10308000482B06C0F901E958FD4F4095808148233F
:1030900040830895CF93DF93CDB7DEB72B970FB65C
:1030A000F894DEBF0FBECDBF942F4F83252F5887D6
:1030B00069877A878B874A855B85452B21F02F3F6F
:1030C00009F59F3FF9F4DE01119686E0FD011192AA
:1030D0008A95E9F785E0FE01379601900D928A9571
:1030E000E1F749815A816B817C818D819E810E94AB
:1030F00010202B960FB6F894DEBF0FBECDBFDF9128
:10310000CF910895809188029091890201969093C1
:10311000890280938802CE0107960E940E18D3CFB1
:10312000FC01808191810E94DD2292959F709630F2
:1031300041F48091870291E08927809387029093E0
:1031400086020895882309F41AC18238C1F40E94C6
:10315000F01681FD14C169E380910F019091100177
:103160000E94F4240E946B232FEF81EE94E0215003
:1031700080409040E1F700C0000069E319C0833847
:10318000F9F40E94F01680FDFAC063E580910F010A
:10319000909110010E94F4240E946B232FEF81EE86
:1031A00094E0215080409040E1F700C0000063E5CA
:1031B00080910F01909110010E94FF240C946B23C9
:1031C0008438C1F40E94F01682FDD9C067E4809172
:1031D0000F01909110010E94F4240E946B232FEFA5
:1031E00081EE94E0215080409040E1F700C0000063
:1031F00067E4DECF9CEF980F913A40F4682F8091FE
:103200000F01909110010E94F424D8CF90E2980F02
:10321000983050F4877091E001C0990F8A95EAF7D1
:10322000892F0E941F23CACF9BE5980F933070F41B
:10323000853A29F0863A31F083E890E005C081E8CC
:1032400090E002C082E890E00C94241798E5980F73
:10325000973108F08EC0883A09F445C0893A09F4DC
:1032600045C08A3A09F445C08B3A09F445C08C3A06
:1032700009F445C08B3B09F445C08C3B09F445C0BB
:103280008D3A09F445C0803B09F445C08E3A09F4F3
:1032900045C08F3A09F445C0813B09F445C0823BE3
:1032A00009F445C0833B09F445C0843B09F445C09B
:1032B000853B09F445C0863B09F445C0873B09F4CA
:1032C00045C0883B09F445C0893B09F445C08D3BA6
:1032D00009F445C08E3B09F445C08A3B09F445C05A
:1032E00080E090E044C082EE90E041C089EE90E042
:1032F0003EC08AEE90E03BC085EB90E038C086EBA4
:1033000090E035C083EB90E032C084EB90E02FC0BA
:1033100087EB90E02CC08CEC90E029C08DEC90E025
:1033200026C083E891E023C08AE891E020C082E9CA
:1033300091E01DC084E991E01AC081E292E017C0DB
:1033400083E292E014C084E292E011C085E292E050
:103350000EC086E292E00BC087E292E008C08FE6E2
:1033600090E005C080E790E002C08AE292E00C9411
:103370003A17803F20F00E94CA260C94B727089580
:10338000882309F464C0823879F40E94F01681FF22
:103390005EC069E380910F01909110010E94F424B6
:1033A0000E946B2369E310C08338B1F40E94F016C9
:1033B00080FF4DC063E580910F01909110010E9444
:1033C000F4240E946B2363E580910F01909110011A
:1033D0000E94FF240C946B23843879F40E94F01629
:1033E00082FF35C067E480910F01909110010E9427
:1033F000F4240E946B2367E4E7CF9CEF980F913A87
:1034000010F4682FE1CF90E2980F983050F4877055
:1034100091E001C0990F8A95EAF7892F0E94252330
:10342000D9CF9BE5980F933020F480E090E00C9486
:10343000241798E5980F973120F480E090E00C94E1
:103440003A17803F20F00E9432270C94B727089546
:10345000CF93C82F0E94A2188C2FCF910C94C01923
:10346000882321F00E941F230C946B230895882346
:1034700021F00E9425230C946B2308950E943F2382
:103480000E944F230E946B230E945D280E94B72751
:1034900080E090E00E94241780E090E00C943A17BE
:1034A00080910F01909110010E940A250C943E1A00
:1034B0000E942F230C94501AE92FE295EF70F0E050
:1034C0003297EE30F105B0F4EE57FF4F0C9406330F
:1034D000803F91F018F4803E68F40EC0843F51F4B0
:1034E0000BC0803E48F0813F29F406C093FB88273B
:1034F00080F9089580E0089581E008950E94DD221A
:103500000E945C1A08958F929F92AF92BF92DF92B1
:10351000EF92FF920F931F93CF93DF937C01C62FFF
:10352000172FFC01058102950F70D281D1110E94E5
:103530003F230E941523882379F0DD2369F080E280
:103540008C0F883048F082E00E94B6230E94152339
:1035500091E0D82ED92601C0D12C812E82942FE063
:103560008222912CF401E057FF4F0C940633912FE7
:103570009F70812F807FB92E19F0B29490EFB922FD
:10358000DD2399F0BB2009F4CFC180E28C0F883095
:1035900010F0C11104C08B2D0E941F2303C08B2D7E
:1035A0000E9432230E946B23BFC18C2F0E94C0193E
:1035B000BB2009F436C280E28C0F883010F0C111B4
:1035C00004C08B2D0E94252303C08B2D0E9438231D
:1035D0000E946B2326C2912F9F70812F807FB92E6E
:1035E000803219F0B29480EFB822CC2319F0C130A8
:1035F000C9F021C0DD2371F0002341F0013031F426
:103600000E9452238B290E9458230BC20E945223EE
:103610008B2941C1002319F0013009F402C20E9434
:1036200061233EC1DD2321F0023008F0FAC132C12E
:103630000111F7C135C1DD2321F0002309F42AC1AE
:1036400073C1002309F42CC180C1812F8695869512
:10365000837090E0009719F0019761F0E2C1DD23DB
:1036600021F08C2F912F937002C080E090E00E9497
:103670002417E7C1DD2321F08C2F912F937002C016
:1036800080E090E00E943A17DCC1DD23F9F0C53FED
:1036900051F0C63F71F0C43FA9F480919B03909113
:1036A0009C0381600BC080919B0390919C0382607E
:1036B00005C080919B0390919C03846090939C0330
:1036C00080939B038C2F0E94CA261EC0C53F51F0D9
:1036D000C63F71F0C43FA9F480919B0390919C0375
:1036E0008E7F0BC080919B0390919C038D7F05C0C2
:1036F00080919B0390919C038B7F90939C0380937C
:103700009B038C2F0E9432270E94B7279AC1812FDA
:10371000837009F052C0D11190C12C2F22952695AB
:103720002770220F220F6C2F6F70862F90E0A0E081
:10373000B0E04C015D01022E04C0880C991CAA1C4B
:10374000BB1C0A94D2F7C4FF12C08FE090E0A0E047
:10375000B0E004C0880F991FAA1FBB1F2A95D2F79B
:10376000BC01CD01609570958095909503C060E097
:1037700070E0CB01212F26952695237030E0223072
:10378000310569F02330310589F0682979298A29C2
:103790009B292130310571F00E9455214EC16829C5
:1037A00079298A299B290E94672147C10E945521B6
:1037B000C501B4010E94432140C1DD2319F0812FCE
:1037C000817001C08695882309F437C18C2F8295BA
:1037D00086958770880F880F9C2F9F70892E912C5B
:1037E000A12CB12C082E04C0880C991CAA1CBB1C4F
:1037F0000A94D2F7C4FF12C04FE050E060E070E0DE
:1038000004C0440F551F661F771F8A95D2F7CB015E
:10381000BA01609570958095909503C060E070E066
:10382000CB01212F26952695237030E022303105DB
:1038300069F02330310589F0682979298A299B2983
:103840002130310571F00E941A22F7C068297929C8
:103850008A299B290E942C22F0C00E941A22C501AD
:10386000B4010E940822E9C08C2F90E0FC01E05EC8
:10387000F109E531F10508F053C0E056FF4F0C9413
:103880000633FC2FFF70BF2E812F8F71DD2331F0A7
:103890000E94A1218B2D0E94301AC3C00E94C22118
:1038A0008B2D0E94371ABDC0DD2339F00111B9C03C
:1038B000812F8F710E94E721B4C0023008F0B1C09F
:1038C000F7CFDD2339F0812F8F710E94A121A9C08C
:1038D000DD23C9F3812F8F710E94C221A2C0DD2395
:1038E00029F0812F8F710E948C219BC00E9487211B
:1038F00098C0DD2359F0212F2F71B22E822F0E9404
:10390000A12163E08B2D0E94A1238BC081E00E9446
:10391000B623023008F485C082E00E94B62381C03D
:10392000DD2331F0002379F28C2F0E94A21879C098
:10393000002381F2C93349F48FEF97EEE3E0815021
:103940009040E040E1F700C000008C2F0E94C019B9
:1039500068C0412F4F706C2FC7010E94E6070E947C
:10396000B4206FC0C23FA1F028F4C03F49F0C13F6E
:1039700001F129C0C43FC1F070F0C53F89F023C0F8
:10398000DD2309F448C09091870281E0892705C0B2
:10399000D093870240C081E08D27809387023BC08F
:1039A000D11139C081E0F9CFD11135C01092870211
:1039B00032C0DD2329F080918602882321F329C0BB
:1039C000002309F328C0809186020023C1F08823D8
:1039D00041F09091870281E08927809387021092BD
:1039E00086028C2FDD2319F00E94A21814C00E94B9
:1039F000C01986E0F70111928A95E9F70CC0882377
:103A000051F0D11108C09091870281E089278093FD
:103A1000870210928602412F4F706C2FC7010E94BF
:103A2000530CF8E08F16910441F05CF08AE0881A9C
:103A3000910892E08916910420F40E94F0160E94E9
:103A4000A7098C2F912F0E945C1A811105C010923A
:103A500089021092880214C0DD2319F00111F7CFFA
:103A60000FC00111F4CF80918802909189020297D2
:103A700071F78C2F0E94A2188C2F0E94C019E7CFDB
:103A8000DD20E1F00E94112380FD18C0F7011282B1
:103A90000E940B230E94A121C7010E946A1D0E945F
:103AA0000B23DF91CF911F910F91FF90EF90DF904B
:103AB000BF90AF909F908F900C94C221DF91CF91D7
:103AC0001F910F91FF90EF90DF90BF90AF909F906C
:103AD0008F9008950F931F93CF93DF93EC0188810C
:103AE00099812B813C81232BB9F09F3F11F48F3FAB
:103AF00099F0CE010E94B909882371F0688179811B
:103B00008A810E94E8228C010E943E220E9440216C
:103B1000B801CE010E94831ADF91CF911F910F91BE
:103B20000895CF93DF9300D000D01F92CDB7DEB7BA
:103B30000F900F900F900F900F90DF91CF910895FD
:103B4000CF93DF9300D000D000D0CDB7DEB726965C
:103B50000FB6F894DEBF0FBECDBFDF91CF910895B1
:103B60001F93CF93DF93C0918A0216E080918B025E
:103B7000C81799F0D0E01C9FF0011D9FF00D112493
:103B8000E457FD4F40815181628173818481958129
:103B90000E94A01D2196C770E9CFDF91CF911F91A0
:103BA00008954091BC025091BD026091BE02709197
:103BB000BF028091C0029091C1020C94A01D80911F
:103BC000C10282958F7009F054C08091BE02882393
:103BD00009F44FC080918A02A0918B026091BC02CF
:103BE0007091BD024091BF025091C002B6E08A17A9
:103BF00009F43FC090E041155105C1F17F3F11F438
:103C00006F3FA1F1B89FF001B99FF00D1124E45767
:103C1000FD4F218172132AC02081621327C02281A7
:103C2000211124C0238134812417350710F4215039
:103C30003109241B350B203F3105C0F42091C1020E
:103C40002F7020612093C10226E0289FF001299F58
:103C5000F00D1124EF56FD4F80818F7080618083BD
:103C60008CEB92E00E946A1D0C94B01D0196877047
:103C7000BECF0895CF92DF92EF92FF920F931F93E2
:103C8000CF93DF93CDB7DEB762970FB6F894DEBF60
:103C90000FBECDBF8C0185E0F801DE011D960190BD
:103CA0000D928A95E1F7D8014C9111965C9111978C
:103CB00012966C9112971396CD90DC9014973091D8
:103CC000BC027091BD028091BF029091C00200972A
:103CD00009F46BC17F3F19F43F3F09F466C1E090DE
:103CE000BE02EE2009F4C0C02091C102C816D90658
:103CF00028F0F601E81BF90BCF0104C080959095E0
:103D00008C0D9D1DFF24F394803F910578F0F12CDC
:103D1000207F09F0C6C07C2DD98AC88A89890E9473
:103D2000911D8CEB92E00E946A1DB1C0822F807FB2
:103D300009F046C0751314C0341312C0611110C0CD
:103D40002F7020612093C1020E94D11D8CEB92E064
:103D50000E946A1D8091C102D80115968C932EC0D5
:103D6000CD2819F15F3F11F44F3FF9F0F62E6111A4
:103D70001CC080918A0220918B0236E0821709F4E0
:103D80005AC090E0389FF001399FF00D1124E4579C
:103D9000FD4F7181571306C07081471303C07281B4
:103DA000711103C001968770E9CFF62E662309F4DE
:103DB00027C18091C10281608093C102F12C20C192
:103DC000751308C0341306C0611104C08091C1028C
:103DD000D801C3C04D875E878D859E856A8B0E9402
:103DE0007E1A6A898823E1F16623D1F12091C1020C
:103DF000822F82958F7090E0029774F08091BC02C0
:103E00009091BD0298878F831986DB86CA862C879E
:103E1000CE0107960E946A1D86E0F801ACEBB2E085
:103E200001900D928A95E1F70E94DF1D0E94D11D3D
:103E3000FF24F394E5C04D875E878D859E850E94A3
:103E4000DD22292F22952F7030E0223031050CF031
:103E5000CBC09F7009F0C5C0805E883008F4D0C028
:103E6000C8010E946A1DE4CFC816D90608F453C0E1
:103E7000F601E81BF90BCF01803F910508F450C013
:103E8000F12C7C2DD98AC88A89890E94911DECEB7E
:103E9000F2E086E0DF011D928A95E9F70E94D11DCC
:103EA000AFC0751314C0341312C0611110C08091DB
:103EB000C102F8018583C8010E946A1D86E0ECEB0F
:103EC000F2E0DF011D928A95E9F7FE2C99C04D873B
:103ED0005E878D859E856A8B0E947E1A6A898823FB
:103EE00009F4BECF662309F4BBCF2091C102822F13
:103EF00082958F7090E002970CF48ECF8091BC0277
:103F00009091BD029A8389831B82DD82CC822E83AD
:103F1000CE0101967FCF809590958C0D9D1DACCFE5
:103F2000F62E662309F49CCF75132EC034132CC0D3
:103F30002091C10220FD1FC0822F82958F70D9F081
:103F4000D80115962C9315978F3049F08F5F982FD5
:103F50009295907F822F8F70892B15968C93C80134
:103F60000E946A1D86E0F801ACEBB2E001900D9270
:103F70008A95E1F793CF86E0F801ACEBB2E00190CF
:103F80000D928A95E1F73CC04D875E878D859E85B1
:103F90000E947E1A811140CF8091C102816080937E
:103FA000C102C8010E946A1D2BC0662309F458CFC4
:103FB0004D875E878D859E850E947E1AF82E882308
:103FC00009F44ECF86E0F801ACEBB2E001900D921F
:103FD0008A95E1F78CEB92E00E9490180E94DF1D19
:103FE0005DCF811139CF0CC0243031050CF038CFB2
:103FF0009F7009F431CFF8019581907F09F02CCFA3
:104000008F2D62960FB6F894DEBF0FBECDBFDF9145
:10401000CF911F910F91FF90EF90DF90CF90089577
:104020001F93CF93DF93CDB7DEB72C970FB6F894DD
:10403000DEBF0FBECDBF4F83588769877A878B87D6
:104040009C87CE0107960E943A1E882369F08F81D3
:1040500098852A853B85232BF1F19F3F09F063C0AA
:104060008F3F09F060C037C086E0FE013796DE0161
:10407000119601900D928A95E1F76F817885EA8516
:10408000FB85309741F17F3F11F46F3F21F1209183
:104090008B0230E0C90101968770992740918A020E
:1040A00050E08417950709F447C069837A83FD833C
:1040B000EC8396E0929FD001939FB00D1124A457FA
:1040C000BD4FFE01319601900D929A95E1F78093D4
:1040D0008B020E94B01D16E080918A0290918B02A3
:1040E0008917C1F1189FC001112484579D4F0E9468
:1040F0003A1E882379F1E0918A021E9FF001112473
:10410000E457FD4F408151816281738184819581A3
:104110000E94A01D80918A0290E0019687709927E5
:1041200080938A02D9CF4F81588569857A858B859E
:104130009C850E94A01DCFCF0E94581A10928B021E
:1041400010928A02ECEBF2E086E0DF011D928A9584
:10415000E9F7C1CF2C960FB6F894DEBF0FBECDBFE6
:10416000DF91CF911F910895EF92FF920F931F93CC
:10417000CF93DF938C01892B09F46CC0F12CEE24D2
:10418000E394E8012196F8018491843740F4843067
:1041900008F051C0813081F0823019F15BC0853761
:1041A00009F444C0A8F19CE7980F903708F052C07A
:1041B0008F770E94C01941C00E5F1F4FFE01C4914E
:1041C00080E28C0F883048F4C7708E2D01C0880FB4
:1041D000CA95EAF70E94422314C08C2F0E94A218AD
:1041E0002DC00E5F1F4FFE01C49180E28C0F8830FE
:1041F00058F4C7708E2D01C0880FCA95EAF70E9447
:1042000048230E946B231AC08C2F0E94C01916C02D
:104210000E5F1F4FFE01C491CC2381F08FE99FE018
:104220000197F1F700C00000C150F6CF0E5F1F4F9D
:10423000FE01F49003C00E94A2188E018F2D8823E6
:1042400009F49FCFEFE9FFE03197F1F700C00000DC
:104250008150F5CFDF91CF911F910F91FF90EF909B
:10426000089508950C9431210E9432216093FD023B
:104270007093FE028093FF02909300030C943E1A09
:1042800008950C9434210F931F930091FD02109117
:10429000FE022091FF0230910003602B712B822BD4
:1042A000932B1F910F910C9434210F931F93009126
:1042B000FD021091FE022091FF0230910003602365
:1042C0007123822393231F910F910C9434210F9318
:1042D0001F930091FD021091FE022091FF02309188
:1042E000000360277127822793271F910F910C9459
:1042F00034210C948C080E9479216093F902709308
:10430000FA028093FB029093FC020C943E1A60E048
:1043100070E0CB010C947B210F931F9341E050E0A0
:1043200060E070E08A019B0104C0000F111F221F92
:10433000331F8A95D2F7C901B8011F910F910C94D0
:104340007B210F931F9341E050E060E070E004C0D8
:10435000440F551F661F771F8A95D2F78091F90287
:104360009091FA02A091FB02B091FC028A019B019C
:10437000082B192B2A2B3B2BC901B8011F910F9138
:104380000C947B210F931F9341E050E060E070E0BC
:1043900004C0440F551F661F771F8A95D2F74095BA
:1043A0005095609570958091F9029091FA02A091D4
:1043B000FB02B091FC028A019B01082319232A23E6
:1043C0003B23C901B8011F910F910C947B210F93DE
:1043D0001F9341E050E060E070E004C0440F551FBF
:1043E000661F771F8A95D2F78091F9029091FA02A1
:1043F000A091FB02B091FC028A019B0108271927BA
:104400002A273B27C901B8011F910F910C947B21EA
:104410000F931F930091F9021091FA022091FB0271
:104420003091FC02602B712B822B932B1F910F91EB
:104430000C947B210F931F930091F9021091FA02C3
:104440002091FB023091FC0260237123822393238D
:104450001F910F910C947B210F931F930091F902F0
:104460001091FA022091FB023091FC026027712723
:10447000822793271F910F910C947B210895292F58
:10448000220F920F990F890FA82FA695A695A69592
:10449000877051E001C0550F8A95EAF785E0A89F23
:1044A000D001112420E030E070E0F901EA0FFB1F99
:1044B000EE53FD4F4081CB01022E02C096958795A9
:1044C0000A94E2F7817099278195842785238427B0
:1044D00080832F5F3F4F2530310539F70895292F0D
:1044E000220F920F990F890F682F66956695669532
:1044F000982F977085E0689FB001112440E050E04C
:1045000080E0FA01E60FF71FEE53FD4F208130E007
:10451000092E02C0369527950A94E2F721703327B9
:10452000042E01C0220F0A94EAF7822B4F5F5F4FDF
:104530004530510531F70895BF92CF92DF92EF9247
:10454000FF920F931F93CF93DF938C01C090FD02D6
:10455000D090FE02E090FF02F09000038091F902FB
:104560009091FA02A091FB02B091FC02C82AD92ACC
:10457000EA2AFB2ACFE1D0E0D701C6010C2E04C005
:10458000B695A795979587950A94D2F780FF07C0AF
:10459000BC2EB8018C2F0E946E0C019719F4219744
:1045A00058F7B12C8B2DDF91CF911F910F91FF9078
:1045B000EF90DF90CF90BF900895CF93DF93EC0101
:1045C0000E949C22BE010E946E0CDF91CF91089543
:1045D0001F93CF93DF93EB0190918502992321F0F4
:1045E000CB010E94DD2213C0882349F0CB010E9439
:1045F0009C22182F682FCE010E943F2204C0CB01BD
:104600000E946F22182FBE01812F0E946E0CDF9135
:10461000CF911F910895809101038595859585958A
:104620000895809101038770089590910103977018
:1046300081E009F480E00895809125030895909128
:104640002503892B80932503089580959091250358
:10465000892380932503089580932503089510925C
:104660002503089590912403892B809324030895B2
:1046700080959091240389238093240308951092B8
:104680002403089590912303892B80932303089595
:10469000809590912303892380932303089510929A
:1046A0002303089580910203089508950C945523DF
:1046B00090910203981721F0809302030C945623E3
:1046C000089580910203882329F01092020380E06C
:1046D0000C9456230895E0910F01F0911001809100
:1046E00025038083E0910F01F0911001908180916A
:1046F0002403892B8083E0910F01F09110019081B8
:1047000080912303892B808380910203882381F089
:10471000E0910F01F09110019081892B80838091AD
:104720000F01909110010E948F2481110E9461233A
:1047300080910F01909110010C94FC1608950C9437
:104740009E2398E0899F90011124262B209301033A
:104750000E94A121809101038595859585950C94F2
:104760009F231092010380E00C949F23209101036A
:104770008095822380930103982F977079F430E01D
:10478000482F082E000C550B2417350739F0859556
:10479000859585950E94C2210C94B1230895CF92EE
:1047A000DF92EF92FF926C01EE24FF24C114D1043A
:1047B000E104F10421F0C701B60120E101C020E0CD
:1047C000C72ED82EE92EFF24C114D104E104F10430
:1047D00019F0285FC701B6016B017C0154E0F69423
:1047E000E794D794C7945A95D1F7C114D104E10442
:1047F000F10419F02C5FC701B6016B017C0142E0A6
:10480000F694E794D794C7944A95D1F7C114D1048C
:10481000E104F10419F02E5FC701B601DC01CB0100
:10482000B695A79597958795892B8A2B8B2B09F0A1
:104830002F5F822FFF90EF90DF90CF90089580E060
:1048400090E00E94273321E08D3E9E4F09F020E04A
:10485000822F089582E090E00C94193383E090E079
:104860000C94193384E090E00C941933682F84E0A1
:1048700090E00C942D33AB01BC018FE090E00C94E0
:104880003F33AB01BC0183E190E00C943F3360E027
:1048900070E0CB010C94412460E070E0CB010E94F9
:1048A0003B240C9447246DEE7EEF80E090E00E9464
:1048B0004B3360E082E090E00E942D3360E083E0C3
:1048C00090E00E942D331092FD021092FE02109291
:1048D000FF021092000360E084E090E00E942D331C
:1048E00060E085E090E00E942D3360E086E090E09B
:1048F0000E942D336FEF87E090E00E942D3340E05F
:1049000050E0BA0188E090E00E943F3360E08DE023
:1049100090E00E942D330C944C240C945324FC0101
:10492000329680912001882331F08091A10387FF86
:1049300002C09EE101C096E080E0915028F02191F4
:104940002223D9F38F5FF9CF08959C01FC013296A1
:104950009FEF80E04191461789F09F3F19F4411184
:1049600001C0982F8F5F8630A9F79F3F39F0F9017A
:10497000E90FF11D97FDFA95628308950895FC01F2
:10498000329608962081261301C010823196E817CE
:10499000F907C1F70895262F2695269526952E31DD
:1049A00068F4FC01E20FF11D677021E030E001C006
:1049B000220F6A95EAF78281282B22830895262FF9
:1049C0002695269526952E3170F4FC01E20FF11DF7
:1049D000677021E030E001C0220F6A95EAF7209568
:1049E000828128232283089520912001222329F007
:1049F0002091A10327FD0C94CB240C94A524209195
:104A00002001222329F02091A10327FD0C94DF240B
:104A10000C94BF2420912001FC013296222331F016
:104A20008091A10387FF02C08EE101C086E0DF0113
:104A30001D928A95E9F7089508950C941C250E940B
:104A40001D258091A703843049F11092270320E4AB
:104A500088E190E00FB6F894A895809360000FBEAF
:104A60002093600080E00E94A7090E941D2583B763
:104A7000817F846083BF83B7816083BF789488958A
:104A800083B78E7F83BF0FB6F894A895809160009E
:104A9000886180936000109260000FBE08950895B1
:104AA000CF930E942F050E94D8050E944F25C0E099
:104AB0008C2F0E942006811104C0CF5FCE30C1F739
:104AC00001C081E0CF91089508950C9464250E945F
:104AD000581A0E94F0160E94A7090C9465251F928F
:104AE0000F920FB60F9211248F939F93AF93BF93A2
:104AF00080912703811113C080919D0390919E03A3
:104B0000A0919F03B091A0034196A11DB11D809378
:104B10009D0390939E03A0939F03B093A003BF9126
:104B2000AF919F918F910F900FBE0F901F9018958E
:104B300082E084BD93E095BD9AEF97BD80936E00AF
:104B400008952FB7F89480919D0390919E03A091B2
:104B50009F03B091A0032FBF0895CF92DF92EF92F1
:104B6000FF920F931F932FB7F89440919D0350919C
:104B70009E0360919F037091A0032FBF6A017B0188
:104B8000EE24FF248C0120E030E0C016D106E206BE
:104B9000F30610F4415051099A01281B390BC90141
:104BA0001F910F91FF90EF90DF90CF900895789430
:104BB0001F920F920FB60F9211248F939F93AF9372
:104BC000BF9380919D0390919E03A0919F03B0910C
:104BD000A0030196A11DB11D80939D0390939E0398
:104BE000A0939F03B093A003BF91AF919F918F912A
:104BF0000F900FBE0F901F901895F89481E080934E
:104C0000E00080E28093D800E9ECF0E010828FE1D0
:104C10009EE40197F1F700C000001DBA10926800F1
:104C20001CBC10BE1FBA10927A0010926E00109237
:104C30006F0010927100109272001082ECEBF0E0A5
:104C4000108214B817B81AB81DB810BA108215B867
:104C500018B81BB81EB811BA0C94003F08950E94F2
:104C60001F24811102C00E948D240E942A24809357
:104C700026030E94322490E09093A2038093A10324
:104C80000E942E24682F70E080E090E00C94412177
:104C900080912B0380FF0BC06091140185E0689F19
:104CA000B001112475956795759567952BC081FFA7
:104CB00009C06091140185E0689FB00111247595C9
:104CC000679520C082FF07C06091140185E0689F4E
:104CD000B001112417C090912C039923D1F0609159
:104CE0001301961788F72091140185E0289F900101
:104CF0001124929FA001939F500D112470E0CA01CE
:104D00000E94F2326038710540F46115710539F086
:104D100002C065E070E0862F08958FE7089581E076
:104D2000089580912B0380FF08C06091120170E00C
:104D3000759567957595679521C081FF06C060914F
:104D4000120170E07595679519C082FF04C06091EB
:104D5000120170E010C090912C039923C1F0609172
:104D600011019617A0F780911201899FC0011124AB
:104D700070E00E94F2326038710528F46115710507
:104D800021F0862F08958FE7089581E0089561E06E
:104D900070E0F4CF803F21F40E944826819504C042
:104DA000813F29F40E944826809330030895823F72
:104DB00021F40E944826819504C0833F29F40E9473
:104DC000482680932F030895893F19F40E94912665
:104DD00005C08A3F31F40E9491268195809331036A
:104DE00008958B3F21F40E949126819504C08C3F49
:104DF00029F40E949126809332030895843F21F480
:104E000080912E03816017C0853F21F480912E038D
:104E1000826011C0863F21F480912E0384600BC014
:104E2000873F21F480912E03886005C0883F31F4CC
:104E300080912E03806180932E0308958D3F21F48D
:104E400080912B0381600BC08E3F21F480912B0356
:104E5000826005C08F3F29F480912B03846080938A
:104E60002B030895803F39F48091300387FF6CC095
:104E70001092300369C0813F29F4809130031816E5
:104E8000BCF362C090912F03823F29F497FF5CC06E
:104E900010922F0359C0833F19F41916CCF354C054
:104EA000893F41F48091310318160CF04DC01092E7
:104EB00031034AC08A3F29F48091310387FF44C0FF
:104EC000F6CF8B3F39F48091320387FF3DC01092BB
:104ED00032033AC08C3F29F4809132031816BCF398
:104EE00033C0843F21F480912E038E7F17C0853F0D
:104EF00021F480912E038D7F11C0863F21F4809193
:104F00002E038B7F0BC0873F21F480912E03877F78
:104F100005C0883F31F480912E038F7E80932E034D
:104F200013C08D3F21F480912B038E7F0BC08E3FE9
:104F300021F480912B038D7F05C08F3F29F4809150
:104F40002B038B7F80932B0380912F0381110EC045
:104F50008091300381110AC080913103811106C014
:104F600080913203811102C010922C0308958DE2CA
:104F700093E00E9416170E94A12590932903809325
:104F8000280308951F93CF93DF9380912803909176
:104F900029030E94AD25AC0190912C03992321F0A7
:104FA0002091150130E006C020912A038AE0289F55
:104FB000900111244217530708F47BC080912F03FE
:104FC000C0913003D091310310913203811107C099
:104FD000C1116BC0D11169C0111167C06AC09F3F78
:104FE00019F09F5F90932C03181624F40E94482612
:104FF00080932F0380912F0387FF05C00E944826CE
:10500000819580932F031C1624F40E9448268093D8
:1050100030038091300387FF05C00E9448268195A8
:105020008093300330912F033323E1F0209130033C
:105030002223C1F045EB3403C0011124892F990FBD
:10504000990B009709F481E080932F0335EB23033C
:10505000C0011124892F990F990B009709F481E061
:10506000809330031D1624F40E949126809331030F
:105070008091310387FF05C00E949126819580931E
:105080003103111624F40E949126809332038091FB
:10509000320387FF05C00E949126819580933203D9
:1050A000DF91CF911F910C94B7279F3F09F099CFC3
:1050B000A1CFDF91CF911F910895EDE2F3E086E05B
:1050C000DF011D928A95E9F710922C0310922B03B1
:1050D00008958091530308950F931F93CF93DF9307
:1050E00000D01F92CDB7DEB78C010E94DC2A82303F
:1050F00011F0843021F584E089831B830A8382E0E8
:105100008093E9008FEF9091E800815095FD06C0F3
:1051100095ED9A95F1F700008111F5CF8091E800A7
:1051200085FF0DC040E050E063E070E0CE010196E5
:105130000E94F92A8091E8008E778093E8000F9012
:105140000F900F90DF91CF911F910F910895CF9302
:10515000DF9300D01F92CDB7DEB72091A703243094
:1051600031F523E02983805891099B838A8382E06B
:105170008093E9008FEF9091E800815095FD06C083
:1051800095ED9A95F1F700008111F5CF8091E80037
:1051900085FF0DC040E050E063E070E0CE01019675
:1051A0000E94F92A8091E8008E778093E8000F90A2
:1051B0000F900F90DF91CF910895CF93DF93EC0183
:1051C0000E94DC2A823011F08430F9F482E080936E
:1051D000E9009FEF8091E800915085FD06C085EDC4
:1051E0008A95F1F700009111F5CF8091E80085FFD5
:1051F0000CC040E050E066E070E0CE010E94F92A69
:105200008091E8008E778093E800DF91CF91089538
:10521000CF93DF93EC010E94DC2A823011F08430BE
:10522000D9F580912001882339F08091A10387FF6F
:1052300003C060E282E002C068E081E08093E900A0
:105240008FEF9091E800815095FD06C095ED9A95FD
:10525000F1F700008111F5CF8091E80085FF1CC0B7
:1052600080912001811105C040E050E068E070E0CD
:1052700003C070E040E050E0CE010E94F92A809126
:10528000E8008E778093E80080E2FE01A3E3B3E0BC
:1052900001900D928A95E1F7DF91CF910895809169
:1052A000A603811109C00E948E2C0E94EB2C8091D4
:1052B000E20084608093E20008951092A6030895AE
:1052C000089508950C94672542E061EC81E00E9406
:1052D000082C42E261EC82E00C94082C8091A90336
:1052E000833009F460C030F4813071F0823009F409
:1052F00099C008958A3009F485C08B3009F46BC0D9
:10530000893009F0A7C020C08091A803813A09F034
:10531000A1C08091E800877F8093E8008091AC0372
:105320009091AD03892B21F460E283E393E003C005
:1053300060E080E090E070E00E94442B8091E80003
:105340008B778093E80008958091A803813209F05B
:1053500081C08091AC039091AD03029708F07AC0B0
:105360008091E800877F8093E8008091E80082FDCB
:1053700005C08091A7038111F8CF6CC02091F30084
:105380008091F20090E0922B029729F48091F10035
:105390008B7F813021F48091F100809353038091C1
:1053A000E8008B7753C08091A803813A09F052C07E
:1053B0008091AC039091AD03892B09F04BC0809193
:1053C000E800877F8093E8008091E80080FFFCCFB1
:1053D0008091200136C08091A8038132D9F5809157
:1053E000AC039091AD03892BA9F58091E800877FEC
:1053F0008093E8000E943D2C8091AA0380932001B5
:105400000C94581A8091A803813221F58091E8000C
:10541000877F8093E8000E943D2C8091AB038093AE
:10542000540308958091A803813AA1F48091E80083
:10543000877F8093E8008091E80080FFFCCF809117
:1054400054038093F1008091E8008E778093E80008
:105450000C943D2C089584B7877F84BF0FB6F894D1
:10546000A895809160008861809360001092600030
:105470000FBE80E880936100109261000E9458176F
:105480000E948E2C0E94EB2C8091E200846080931D
:10549000E20078940E947A2F0E945E1786E191E0E4
:1054A0000E94EB168091A703853069F40E941F25A6
:1054B0008091A5038823B1F30E945025882391F39E
:1054C0000E94E32AEFCF0E9466170E94E515EACFFB
:1054D0000C946A2A292F332723303105C9F064F44C
:1054E0002130310581F02230310509F04CC08BE3C9
:1054F00090E021EA37E04BC02132310521F1223220
:10550000310589F140C082E190E02CED37E03FC0E9
:1055100099278130910571F02CF4892BA1F5EDE9E3
:10552000F7E00DC08230910541F0039761F5E7E6A1
:10553000F7E005C0E5E8F7E002C0EDE6F7E08491AA
:1055400090E09F0124C06115710541F06130710543
:10555000D1F489E090E02CEC37E019C089E090E0CC
:1055600023EB37E014C06115710541F0613071051E
:1055700051F480EC90E02EEE37E009C080E490E03A
:105580002EEA38E004C080E090E020E030E0FA014C
:105590003183208308950895CF93C82F0E94CB2A8A
:1055A000C0935503CF9108958091A703843011F0E3
:1055B00081E0089582E0089580915503811102C031
:1055C0000C94D42A089580E189BD82E189BD09B493
:1055D00000FEFDCF8091D8008F7D8093D800809110
:1055E000E00082608093E0008091E00081FDFCCFCC
:1055F0000895CF92DF92EF92FF920F931F93CF9374
:10560000DF93EC018B016A010E945C2C811133C095
:10561000C114D10439F0F60180819181081B190B66
:10562000C80FD91FE12CF12C0115110519F180913A
:10563000E80085FD16C08091E8008E778093E80031
:10564000C114D10449F0F60180819181E80EF91E60
:10565000F182E08285E00FC00E945C2C882321F358
:105660000AC089918093F10001501109FFEFEF1AF0
:10567000FF0ADACF80E0DF91CF911F910F91FF9069
:10568000EF90DF90CF9008952091AE033091AF035B
:105690002617370748F06115710539F42091E800A5
:1056A0002E772093E80001C0B90140E06115710533
:1056B000A9F12091A703222309F443C0253009F45E
:1056C00042C02091E80023FD40C02091E80022FD67
:1056D00032C02091E80020FFE9CF4091F3002091F3
:1056E000F20030E0342BFC01CF016115710559F057
:1056F0002830310540F481918093F10061507109A7
:105700002F5F3F4FF1CF41E02830310509F040E0F5
:105710002091E8002E772093E800C8CF4111C9CF2F
:105720000AC08091A703882361F0853061F08091E1
:10573000E80083FD0AC08091E80082FFF2CF80E09C
:10574000089582E0089583E0089581E0089520910E
:10575000AE033091AF032617370748F06115710586
:1057600039F42091E8002E772093E80001C0B901B8
:10577000FC0120E06115710591F18091A703882358
:1057800009F440C0853009F43FC08091E80083FDF2
:105790003DC08091E80082FD2FC08091E80080FF2D
:1057A000E9CF2091F3008091F20090E0922B6115F7
:1057B000710559F08830910540F424912093F1004F
:1057C0003196615071090196F2CF21E0089709F0F6
:1057D00020E08091E8008E778093E800CBCF211104
:1057E000CCCF0AC08091A703882361F0853061F097
:1057F0008091E80083FD0AC08091E80082FFF2CF2B
:1058000080E0089582E0089583E0089581E008959E
:10581000982F973058F59093E900981739F07091C8
:10582000EC002091ED005091F00003C0242F762F62
:1058300050E021FF19C03091EB003E7F3093EB0028
:105840003091ED003D7F3093ED003091EB00316001
:105850003093EB007093EC002093ED005093F00038
:105860002091EE0027FF07C09F5FD3CF8F708093FA
:10587000E90081E0089580E008958091A80387FF02
:1058800011C08091E80082FD05C08091A7038111BD
:10589000F8CF11C08091E8008B770BC08091A703EF
:1058A000882349F08091E80080FFF8CF8091E800DC
:1058B0008E778093E80008952091E4003091E50010
:1058C00095E64091EC00842F817040FF22C08091CA
:1058D000E80080FD1CC08091A703882391F08530EB
:1058E00091F08091EB0085FD10C04091E400509153
:1058F000E5004217530729F39A01915011F784E00C
:10590000089582E0089583E0089581E0089580E09D
:1059100008954091E80042FFDECF08950E94FC2CDC
:105920000E94042DE0EEF0E0808181608083E8ED4C
:10593000F0E080818F77808319BCA7EDB0E08C9177
:105940008E7F8C9380818F7E80831092A603089532
:105950000F931F93CF93DF930E94FC2C0E94042D82
:10596000C8EDD0E088818F778883888180688883BC
:1059700088818F7D888319BC1092A7031092A3039E
:105980001092A5031092A40300EE10E0F8018081AC
:105990008B7F808388818160888342E060E080E043
:1059A0000E94082CE1EEF0E080818E7F8083E2EEA1
:1059B000F0E0808181608083808188608083F8014D
:1059C00080818E7F8083888180618883DF91CF9101
:1059D0001F910F910895E8EDF0E080818F7E808324
:1059E000E7EDF0E080818160808384E082BF81E028
:1059F0008093A6030C94A82CE8EDF0E080818E7FC4
:105A000080831092E20008951092DA001092E10073
:105A100008951F920F920FB60F9211242F933F9368
:105A20004F935F936F937F938F939F93AF93BF93A6
:105A3000EF93FF938091E10082FF0BC08091E20021
:105A400082FF07C08091E1008B7F8093E1000E947C
:105A5000792F8091DA0080FF1FC08091D80080FFED
:105A60001BC08091DA008E7F8093DA008091D9008C
:105A700080FF0DC080E189BD82E189BD09B400FECF
:105A8000FDCF81E08093A7030E944F2905C019BC78
:105A90001092A7030E945D298091E10080FF19C048
:105AA0008091E20080FF15C08091E2008E7F80939C
:105AB000E2008091E20080618093E2008091D80052
:105AC00080628093D80019BC85E08093A7030E9470
:105AD00061298091E10084FF30C08091E20084FF61
