:100000000C94CB040C94E8040C94E8040C94E804DD
:100010000C94E8040C94E8040C94E8040C94E804B0
:100020000C94E8040C94E8040C94392D0C940B2ED9
:100030000C949F250C94E8040C94E8040C94E804B8
:100040000C94E8040C94E8040C94E8040C94E80480
:100050000C94E8040C9407260C94E8040C94E8042F
:100060000C94E8040C94E8040C94E8040C94E80460
:100070000C94E8040C94E8040C94E8040C94E80450
:100080000C94E8040C94E8040C94E8040C94E80440
:100090000C94E8040C94E8040C94E8040C94E80430
:1000A0000C94E8040C94E8040C94E804400543051F
:1000B000460549054C054F05520555085B08620881
:1000C0006D087A08870892089F08AB08B708C3082C
:1000D000CF08FB08FE0801090409090910090E09E7
:1000E000B30AB50AC00AB70AB90ABB0ABD0ABF0AF1
:1000F000C20AC40AC60AD10AC80ACA0ACC0ACE0A67
:10010000D00AD30ACB1ACB1AFD1AFD1A341B541B82
:10011000BD1C1B1D961B1B1D431C431CB41C1B1D1F
:100120001B1D151D501C501C501C501C501C501CDD
:10013000501C501C501C501C501C501C501C501C5F
:10014000501C501C611C6E1C751C7C1C861CA61D42
:10015000A61DB81DB81DAF1DB81DB81DB81DA61D24
:10016000A61DB41DB81DB81DB41D782E9F2E912F4D
:100170009F2E912FEB2E0E2F912F642F732F07633D
:100180004236B79BD8A71A39685618AEBAAB558C09
:100190001D3CB7CC5763BD6DEDFD753EF617723152
:1001A000BF000000803F05A84CCDB2D44EB9383610
:1001B000A9020C50B9918688083CA6AAAA2ABE00BA
:1001C0000000803F6572676F646F785F657A2F33D8
:1001D00037383736353261356638613833633463E2
:1001E000633433204020302E362E3237332D3136D3
:1001F0002D676234653462652D646972747900001C
:1002000000F0A12B042B0029003543640000002BD3
:1002100004140004711D004A0005533B001A001627
:10022000611B004D00025305010874076406004B72
:1002300000025109011500096219004E0001000178
:100240000017000A0005680000E6000100430000F6
:1002500000E30000000100010001000000E70000D1
:1002600000010001001C000B0011780000E60008EE
:100270000118000D721000500001001C010C740EDA
:1002800064360051002C00420012000F71370052FA
:10029000002C0001001300337138414F000551015B
:1002A000002A0028003400115000002B042B0029E4
:1002B000000100105000002B042B00F50049000144
:1002C0000001000100F500F200F9003900F400011E
:1002D00000F000F100F9000100F4000100F400F367
:1002E00000FA00010001000100A900AA00A86800AE
:1002F00000E600010043000000E3000000010001EF
:100300000001000000E70000000100010001000101
:1003100000E7000000E60001002A00E100280001DB
:100320000001000100E600E200F60001002C0001DF
:10033000000100E0004C0001002C0001000100E47D
:10034000000100010001000100A500A700A60012A5
:100350005000002B04440045003200115000002BD7
:10036000043A001E7149002302010001003B001FF6
:10037000612F000100010001003C74206430000185
:1003800000010001003D0021622D02010001000179
:10039000003E0022002D680000E60001004300003E
:1003A00000E30000000100010001000000E7000080
:1003B00000010001003F0023002E780000E600014C
:1003C00000400024722E020B000100010041742540
:1003D0006436000D00E10001004200266137000E86
:1003E00000E10001004300277131000F000100010E
:1003F000002A0028004C00135000002B042B002979
:10040000000100125000002B040100010001000156
:1004100000010001000100010001000100010001D4
:1004200000010001000100010001000100010001C4
:1004300000010001000100010001000100010000B5
:1004400000010001000100000001000000010001A6
:1004500000010000000100000001000100540056EE
:100460000053000000010001005F005C00590062C1
:10047000000100010060005D005A006200010001FF
:100480000061005E005B0063000100010055005741
:100490000058005800010001002A0028004C0014F8
:1004A00050000029002B00E100E000135000001E66
:1004B00000140004001D00E20001001F001A0016D5
:1004C000001B003D002C0020000800070006003D36
:1004D000002C0021001500090019003D0001002238
:1004E0000017000A0005000000E60023002B0000B2
:1004F000002B000000010034002B0000002B000046
:1005000000010023001C000B0011000000E6002485
:100510000018000D0010001050010025000C000E06
:100520000036003100E700260012000F00370050AF
:1005300000E30027001300330052005100010010B7
:10054000502A00280038004F000000105001000120
:10055000000100105000000100E85CED5C010001AA
:100560000001000100E95CEE5C01000100010001F6
:1005700000EA5CEF5C0100010001000100EB5CF0AF
:100580005C0100010001000100EC5CF15C01000075
:100590000001000100010000000100000001000155
:1005A0000001000000010000000100010001000145
:1005B000000100000001000100C55CC25CC95C01D3
:1005C0000001000100C65CC35CCA5C0100010001BF
:1005D000000100E75C0100010001000100010001D1
:1005E0000001000100010010500100010001001095
:1005F00050000000000000000000002A2B2800002E
:1006000000000000000000000000000000002900C1
:100610000000002C1E3420212224342627252E36CB
:100620002D3738271E1F2021222324252633333639
:100630002E37381F0405060708090A0B0C0D0E0F8C
:10064000101112131415161718191A1B1C1D2F310F
:1006500030232D350405060708090A0B0C0D0E0F73
:10066000101112131415161718191A1B1C1D2F31EF
:1006700030354C00000000000000000000000000C9
:10068000000000000000000000000000000000006A
:100690000000000001010101010100010101010050
:1006A0000000000000000000000000000001000148
:1006B000000101010101010101010101010101012B
:1006C000010101010101010101010101010100001C
:1006D0000001010000000000000000000000000018
:1006E0000000000000000000000000000000010108
:1006F00001010000047F3F1F643214643214783C0F
:100700001E1E140A056801F000B40078005A0000AB
:1007100000000000010101010101010101020202CA
:10072000020202020202030303030303030304049D
:100730000404040405050505050606060606070764
:100740000707080808080909090A0A0A0A0B0B0B17
:100750000C0C0C0D0D0D0E0E0F0F0F1010111111B2
:100760001212131314141515161617171818191931
:100770001A1A1B1C1C1D1D1E1F1F20202122222394
:1007800024252526272728292A2B2B2C2D2E2F2FD1
:1007900030313233343536363738393A3B3C3D3EEA
:1007A0003F4041424344464748494A4B4C4D4F50D5
:1007B000515253555657585A5B5C5E5F6062636492
:1007C0006667696A6C6D6E707173747678797B7C1C
:1007D0007E8081838486888A8B8D8F91929496986F
:1007E0009A9B9D9FA1A3A5A7A9ABADAFB1B3B5B788
:1007F000B9BBBDBFC1C4C6C8CACCCFD1D3D6D8DA65
:10080000DCDFE1E4E6E8EBEDF0F2F5F7FAFCFF04FB
:10081000033000000016034500720067006F0044BB
:10082000006F007800200045005A000000160345C4
:1008300000720067006F0044006F007800200045E0
:10084000005A0000000403090409023B00020100F1
:10085000A0FA0904000001030101000921110100AF
:10086000012240000705810308000A090401000174
:100870000300000009211101000122C000070582C8
:100880000320000A1201100100000008EDFE07130A
:1008900001000102030105010902A101850209010C
:1008A000A100050919012905150025019505750106
:1008B0008102950175038101050109300931158116
:1008C000257F95027508810609381581257F9501D8
:1008D00075088106050C0A38021581257F9501757A
:1008E000088106C0C005010980A101850316010029
:1008F0002603001A81002A8300751095018100C02B
:10090000050C0901A1018504160100269C021A01AB
:10091000002A9C02751095018100C005010906A1FD
:10092000018505050719E029E715002501950875DA
:1009300001810205081901290595057501910295A6
:1009400001750391010507190029EF15002501958F
:10095000F075018102C005010906A101050719E032
:1009600029E7150025019508750181029501750893
:100970008101050819012905950575019102950167
:10098000750391010507190029FF150026FF009541
:100990000675088100C011241FBECFEFDAE0DEBF6C
:1009A000CDBF11E0A0E0B1E0E6E2F7E602C00590BD
:1009B0000D92AA3CB107D9F723E0AAECB1E001C03F
:1009C0001D92AE3AB207E1F70E945B2A0C94913374
:1009D0000C94000080B38C7080BB81B3836F81BBAB
:1009E000089584B1807F84B985B1807F85B98AB14B
:1009F000837F8AB98BB1837F8BB93E9846980895DF
:100A0000CF93E82F873090F58091000190910101FC
:100A1000892B09F049C0CE2F64E670E080E40E9483
:100A200081069093010180930001892BD1F464E643
:100A300070E082E10E94D80690930101809300014A
:100A4000892B79F481E090E001C0880FCA95EAF71C
:100A500064E670E080950E94D8069093010180932F
:100A6000000184E690E0CF910C942D0790E0FC010A
:100A70003797E730F105C0F4EA5AFF4F0C9436334C
:100A8000209A289811C0219A29980EC0229A2A9853
:100A90000BC0239A2B9808C0529A5A9805C0539AB3
:100AA0005B9802C03E9A4698CF91089508950895A4
:100AB0000C945705CF93DF930E94BF0790E090936B
:100AC0000101809300010E94F1040E94EA04AFE159
:100AD000B2E02BEC31E0EDE2F2E04EE04E0F11928D
:100AE0001D9280E090E0E901C80FD91F188201969D
:100AF00086309105C1F72A5F3F4F4E13F0CFDF914B
:100B0000CF910C94EC090E94BF0790E090930101F3
:100B1000809300010E94F1040E94EA04EDE2F2E0F9
:100B20008EE08E0F11928E13FDCF0895CF93DF9339
:100B3000E62FF0E0E15EFD4F40814827808386E0AC
:100B4000689FF0011124E553FE4F20E030E080E083
:100B500061E070E050E0AAE0B22F9081992319F093
:100B60009150908307C0EB01022E01C0CC0F0A9474
:100B7000EAF78C2BEA0102C0D595C795BA95E2F742
:100B8000C0FDA0832F5F3F4F31962630310521F7FE
:100B9000DF91CF910895CF93DF93D82F873008F05E
:100BA00040C08091000190910101892B09F042C061
:100BB00064E670E080E40E948106909301018093D6
:100BC0000001892B11F0C0E027C064E670E083E1EA
:100BD0000E94D8069093010180930001892B99F718
:100BE00064E670E081E40E948106909301018093A5
:100BF0000001892B41F784E690E00E94080797FFE7
:100C000005C09093010180930001DDCFC82FC095EE
:100C1000109201011092000184E690E00E942D07DD
:100C20000AC09FB1CFB1C07FC695C6959370C92B3E
:100C3000C09501C0C0E06D2F8C2F0E949605282F13
:100C40002095ED2FF0E0E35DFD4F908192238C2302
:100C5000892BDF91CF910895EF92FF920F931F930D
:100C6000CF93DF938091000190910101892B91F046
:100C70008091CA018F5F8093CA0181110BC00E94CD
:100C8000BF0790E09093010180930001892B11F43C
:100C90000E9451078DE2E82E82E0F82E04E312E074
:100CA000C0E08C2F0E940005D7E0DC0F8D2F0E9442
:100CB00000058C2F0E94CB05F70181937F018D2FBA
:100CC0000E94CB05F80181938F010E94F104CF5F50
:100CD000C73039F70E94F60981E0DF91CF911F916B
:100CE0000F91FF90EF900895E82FF0E0E35DFD4F46
:100CF0008081089508951092B9008CE08093B80027
:100D00000895EF92FF920F931F93CF93DF93182FC5
:100D1000EB011092BC0084EA8093BC000E94D125B4
:100D20007C019091BC0097FD0EC0CF3F8FEFD8079C
:100D3000C1F30E94D1258E199F098C179D0788F356
:100D40008EEF9FEF2EC09091B900987F983041F0C0
:100D50009091B900987F903119F08FEF9FEF21C0EB
:100D60001093BB0084E88093BC000E94D1258C01C5
:100D70009091BC0097FD0CC0CF3F8FEFD807C1F317
:100D80000E94D125801B910B8C179D0788F3D8CF2B
:100D90008091B900887F883111F08034F1F680E0CD
:100DA00090E0DF91CF911F910F91FF90EF90089508
:100DB0000F931F93CF93DF93EB018093BB0084E8E5
:100DC0008093BC000E94D1258C019091BC0097FDBE
:100DD0000EC0CF3F8FEFD807C1F30E94D125801BF3
:100DE000910B8C179D0788F38EEF9FEF0CC020911D
:100DF000B900287F81E090E0283211F480E090E093
:100E0000919581959109DF91CF911F910F9108954F
:100E10000F931F93CF93DF93EC0184E88093BC0082
:100E20000E94D1258C019091BC0097FD0EC0CF3F50
:100E30008FEFD807C1F30E94D125801B910B8C172F
:100E40009D0788F38EEF9FEF03C08091BB0090E079
:100E5000DF91CF911F910F9108950F931F93CF931F
:100E6000DF93EC0184E98093BC000E94D1258C01C2
:100E70009091BC0094FF0EC0CF3F8FEFD807C1F315
:100E80000E94D125801B910B8C179D0788F38EEF54
:100E90009FEF02C080E090E0DF91CF911F910F9112
:100EA000089556985E9825982D9826982E982798FC
:100EB0002F988FEF90E09093890080938800909313
:100EC0008B0080938A0090938D0080938C00259AEC
:100ED0002D9A2FEF80E792E0215080409040E1F77B
:100EE00000C00000269A2E9A2FEF80E792E0215052
:100EF00080409040E1F700C00000279A2F9A2FEF22
:100F000080E792E0215080409040E1F700C000006F
:100F100025982D982FEF80E792E021508040904057
:100F2000E1F700C0000026982E982FEF80E792E0AE
:100F3000215080409040E1F700C0000027982F9892
:100F400056985E9825982D9826982E9827982F9831
:100F5000089589EA8093800089E080938100249835
:100F60002C983F988AB18F7C8AB96E98479A8BB13A
:100F700080638BB9769A0E9451070C94560580E2E3
:100F800090E0909301018093000180913B028111D8
:100F90000EC00E947B0681E080933B022FEF83ED21
:100FA00090E3215080409040E1F700C0000064E6EB
:100FB00070E080E40E94810690930101809300011B
:100FC000892B09F050C064E670E080E00E94D806EA
:100FD0009093010180930001892B09F044C064E6DD
:100FE00070E080E00E94D806909301018093000198
:100FF000892BC9F564E670E08FE30E94D8069093D0
:10100000010180930001892B71F584E690E00E9434
:101010002D0764E670E080E40E9481069093010150
:1010200080930001892BF9F464E670E08CE00E9463
:10103000D8069093010180930001892BA1F464E606
:1010400070E080E00E94D806909301018093000137
:10105000892B49F464E670E08FE30E94D8069093F0
:1010600001018093000184E690E00E942D078091A9
:1010700000010895611108C0FC018281882321F0DC
:1010800084EC91E00E94E90980E090E00895FC0181
:10109000E65EFC45EC30F10508F090C0DB01E35A58
:1010A000FF4F12968C910C943633882309F487C035
:1010B0000E94BD2481C0882309F481C081E00E9480
:1010C000EE127AC0882309F47AC00E94F11281E0FE
:1010D0000E94EE124DEC60E02FC0882309F46FC02F
:1010E0000E94F11281E00E94EE124BEB66E68CE268
:1010F00090E060C0882309F462C00E94F11281E090
:101100000E94EE124FEF6FEF86E290E053C088230B
:1011100009F455C00E94F11281E00E94EE124FEFD7
:101120006FEF0AC0882309F44AC00E94F11281E0DF
:101130000E94EE1249E867EC80E090E03BC0882313
:10114000F1F10E94F11281E00E94EE124FEF6FEF79
:1011500084E291E02FC0882391F10E94F11281E096
:101160000E94EE1240E86FEF8CE291E023C08823EA
:1011700031F10E94F11281E00E94EE1240E86FEF1F
:1011800088E790E017C08823D1F00E94F11281E037
:101190000E94EE124FEF6DED88EB90E00BC08823BC
:1011A00071F00E94F11281E00E94EE124FEF6FEF9A
:1011B00080EF90E00E94841280E0089581E008951D
:1011C000CF92DF92EF92FF926B017C010E94FF238E
:1011D00056985E9825982D9826982E9827982F989F
:1011E000482F50E0FA013197E730F105F0F4E75964
:1011F000FF4F0C943633259A2D9A54C0269A2E9A76
:101200005BC0279A2F9A62C0259A2D9A269A2E9A09
:1012100067C0259A2D9A279A2F9A6CC0259A2D9AE5
:10122000269A2E9A279A2F9A70C0823009F444C0C9
:1012300028F4882361F08130A9F167C0843009F473
:101240004FC008F443C0853009F454C05EC00E940A
:1012500070106093540370935503809356039093DA
:10126000570360FF1CC00E94F112809154038695C1
:101270008F730E94EE1280915403881F8827881F65
:1012800090915503292F220F97FB992790F94091B0
:10129000570360915603822B0E94841236C00E942D
:1012A000371333C00E942E1381E00E94FA124FEFD1
:1012B0006FEF84E290E027C00E942E1381E00E942D
:1012C000FA124FEF6FEF8CE890E01DC00E942E13D2
:1012D00081E00E94FA124BEB66E68CE290E013C0CC
:1012E0000E942E1381E00E94FA124FEF6FEF80E010
:1012F00090E009C00E942E1381E00E94FA124EEE87
:101300006CEE88EB90E00E948712C701B601FF9057
:10131000EF90DF90CF90089581E008950C944708F6
:10132000CF93282F30E0F901ED50FA4FC491F90125
:10133000ED58F94F2491222359F081EE0E94FB18B9
:101340008C2F0E94FB188C2F0E94191A81EE04C06A
:101350008C2F0E94FB188C2FCF910C94191A0F938D
:101360001F93CF93DF93EC01062FFE018491882316
:1013700059F19E012F5F3F4F813041F4E901F9019E
:101380001491812F0E94FB18812F0DC0823031F4FF
:10139000E901F90184910E94FB180AC0833031F4FD
:1013A000E901F90184910E94191A02C00E94900972
:1013B0002196802F8823C9F2EFE9FFE03197F1F7FA
:1013C00000C000008150F6CFDF91CF911F910F91A7
:1013D000089560E00C94AF090E944F24811102C06F
:1013E0000E94BD240E944C0F0C94A9070C94580530
:1013F000282F2F7041F0822F90E02A3010F44D9664
:1014000008950697089587E290E0089508950C9452
:10141000060A0C94070A08950E94961D0E940B0A62
:101420002FEF84E39CE0215080409040E1F700C022
:1014300000000C942D26FF920F931F93CF93DF9300
:101440008C01FC01C081D18180918502811113C082
:101450008281882349F0CE010E94CC22F82E682F89
:10146000CE010E946F2204C0CE010E949F22F82E5E
:10147000BE018F2D04C0CE010E94CC22BE010E946D
:10148000B60CEC01B8010E948E09882309F466C2EB
:10149000B801CE010E94C70F882309F45FC2CC3C7B
:1014A000FCE5DF0741F4F8018281882309F456C284
:1014B0000E94BE1053C2CD3C8CE5D80708F01EC177
:1014C000C43C9CE5D90761F4F8018281882309F4C2
:1014D00045C20E944C238272E1F40E94EB123EC28C
:1014E000C53CECE5DE0708F0C7C0C531FCE5DF0709
:1014F00098F0C23CFCE5DF0709F48CC008F492C008
:10150000F8018281882309F429C20E944C23827247
:1015100021F70E94DD1222C2C2308CE5D80708F400
:1015200052C0F8018281882309F459C00E944F24D7
:10153000811102C00E94BD240E94622490E0909319
:10154000A00380939F03FE01E350FC45E231F105C7
:1015500030F4E059FF4F80919F030C943633809113
:101560009F03816027C0826025C0846023C08061A2
:1015700021C080621FC080641DC080681BC0846061
:10158000886018C08E7F16C08D7F14C08B7F12C0FC
:101590008F7E10C08F7D0EC08F7B0CC08F770AC0EE
:1015A0008B7F877F07C087FB222720F991E0922756
:1015B00090FB87F980939F0380919F030E9466248C
:1015C0000E94961DCBC1C1159CE5D90781F0C130A1
:1015D000DC45A9F081E08093410280934202C8017A
:1015E000DF91CF911F910F91FF900C948C09F8011E
:1015F0008281882309F4B2C10E940C0AAFC1F801AC
:101600008281882309F4AAC1809124038160809398
:101610002403A4C1F8018281882309F49FC10E9498
:101620004F139CC1C631DC45A9F60E944C23282FDC
:10163000F801828140910F0150911001882379F0C7
:101640002A7A91E009F490E090933C02911102C053
:1016500069E201C065E3CA010E9424250AC08091A5
:101660003C02811102C069E201C065E3CA010E9427
:101670002F250E949B2372C1F8018281C83CFCE5A2
:10168000DF0731F4882309F469C10E94411266C161
:10169000C93C9CE5D907C8F4C63CECE5DE0731F44B
:1016A000882309F45BC10E94131258C1C73CDC4572
:1016B00030F4882309F452C10E94EF114FC18823EE
:1016C00009F44CC10E942A1249C1CA3C9CE5D907C1
:1016D00031F4882309F442C10E9481123FC1CB3CFE
:1016E000DC4530F4882309F439C10E94611236C107
:1016F000882309F433C10E94A91030C1C43DFCE520
:10170000DF0791F4F8018281882309F427C10E9440
:10171000A010893128F00E94A010823208F4F9CE7E
:1017200089E10E94EE121AC1C53D8CE5D80708F088
:1017300068C0F8018281C03DFCE5DF0771F48823B1
:1017400009F40CC10E94A010893028F00E94A0105A
:101750008E3008F4DECE89E0E4CFC13D9CE5D907A8
:1017600040F5CE3CECE5DE0771F4882309F4F6C0C1
:101770000E94A010823028F00E94A010853008F44A
:10178000C8CE82E0CECFCF3CDC4528F4882309F4D4
:10179000E5C081E0C6CF882309F4E0C00E94A01014
:1017A000863028F00E94A010883008F4B2CE86E07F
:1017B000B8CFC23D9CE5D90771F4882309F4CEC0A7
:1017C0000E94A010853128F00E94A010873108F4F3
:1017D000A0CE85E1A6CFC33DDC4570F4882309F493
:1017E000BDC00E94A0108F3028F00E94A01084314C
:1017F00008F48FCE8FE095CF882309F4AFC088E13D
:1018000090CFC83DFCE5DF0759F5F80182818823B8
:1018100061F0109242020E94D12590934002809381
:101820003F0280E20E94891A99C080914202882377
:1018300021F080E20E94901A91C080913F02909125
:1018400040020E94DD258A3F910598F780E20E94C0
:10185000901A88E20E94FB1888E20E94191A7EC042
:10186000C93D8CE5D80708F058C0F8018281C63D13
:10187000FCE5DF0751F5882351F0109241020E94E8
:10188000D12590933E0280933D0282E0CBCF0E940F
:101890004C2385FF05C081E0809341028093420282
:1018A0008091410281110FC080913D0290913E02D2
:1018B0000E94DD258A3F910530F486E20E94FB18E4
:1018C00086E20E94191A82E0B5CFC73DDC4528F4B4
:1018D000882309F443C083E224CF81119ACF0E9468
:1018E0004C2381FF05C081E0809341028093420236
:1018F0008091420281119DCF80913F0290914002E0
:101900000E94DD258A3F910508F093CF87E20E946F
:10191000FB1887E20E94191A8CCFCC3DECE5DE075C
:1019200041F4F80182818823C9F082E00E94FC2AF8
:1019300015C0CD3DFCE5DF0739F4F801828188232D
:1019400069F00E94BD240AC0CB3DDC4509F042CEBF
:10195000F8018281882311F080E0E8CF80E0DF91F8
:10196000CF911F910F91FF900895089596E0799F70
:10197000F001112494E5899FE00DF11D1124E60F7B
:10198000F11DEE0FFF1FED5FFD4F859194910895BE
:10199000880F991FFC01E150FE4F859194910895A5
:1019A000CF93DF930E94B60C0E94950EEC01811537
:1019B00020E59207F0F5811530E4930708F029C17E
:1019C000883E910500F5803E910508F0AAC1883A4D
:1019D000910570F4853A910508F0A4C08130910515
:1019E00009F49FC108F450C1049708F09AC14CC192
:1019F0008F3B910508F4A1C0803C910508F444C1D7
:101A0000805C9109F9C0811540E2940758F4C11532
:101A100081E0D80708F085C1C03FD10508F434C182
:101A2000D0657FC1811520E3920708F0E9C09F705F
:101A3000E3C0811535E5930708F044C0811544E5FE
:101A4000940708F0FDC0C11582E5D80708F5C11557
:101A500021E5D20708F0E0C08C2F837021E030E050
:101A600002C0220F331F8A95E2F73C68CE0174E072
:101A7000969587957A95E1F78370382BCF70C69548
:101A8000C69540E2C49FE0011124C22BD32B49C16B
:101A90002C2F26952695CE0183709927C115D34505
:101AA00008F0BFC040E2249F90011124C1E0D0E0C3
:101AB00002C0CC0FDD1F8A95E2F72C2B3D2BE901EC
:101AC000DC682FC181154AE59407A0F4C11589E5AA
:101AD000D80708F0C4C0C11526E5D20708F4B5C080
:101AE000C11538E5D30708F4CFC0DC2FCC27C06F71
:101AF000D06A17C181159B4508F4C6C0C1158CE595
:101B0000D80708F4BEC0CE0190568115904208F067
:101B1000BBC08D2F8F710E94120FDD27D0628F7195
:101B2000D82BFFC0853A910509F4B1C0863A9105DA
:101B300009F0B0C0C2E8D0E4F4C0883A910509F4D5
:101B4000ACC0893A910509F4ABC08A3A910509F411
:101B5000AAC08B3A910509F4A9C08C3A910509F401
:101B6000A8C08B3B910509F4A7C08C3B910509F4F3
:101B7000A6C08D3A910509F4A5C0803B910509F4F2
:101B8000A4C08E3A910509F4A3C08F3A910509F4D7
:101B9000A2C0813B910509F4A1C0823B910509F4E3
:101BA000A0C0833B910509F49FC0843B910509F4D3
:101BB0009EC0853B910509F49DC0863B910509F4C3
:101BC0009CC0873B910509F49BC0883B910509F4B3
:101BD0009AC0893B910509F499C08D3B910509F4A0
:101BE00098C08E3B910509F497C08A3B910509F492
:101BF00096C0C0E0D4E495C00E94C80CEC0191C02E
:101C00009927D3FF03C0EC01D86C8BC0EC01D06CDA
:101C100088C0DF70D06A85C0DC2FCC27C16FD06A46
:101C200080C040E2249F90011124C1E0D0E002C0B6
:101C3000CC0FDD1F8A95E2F7C22BD32BDA6871C077
:101C4000D82FCC27C46FD06A6CC08C2F0E94120F83
:101C50008F71C82FD0E0DC2FCC27D06262C08C2FD0
:101C60008F700E94120F94E0D695C7959A95E1F770
:101C7000CF70D0E0DC2FCC27D06A8F70806EC82B5D
:101C800050C0DD27D0664DC0C0E0D0E04AC0C1E8FA
:101C9000D0E447C0C3E8D0E444C0C2EED4E441C0BD
:101CA000C9EED4E43EC0CAEED4E43BC0C5EBD4E4F4
:101CB00038C0C6EBD4E435C0C3EBD4E432C0C4EBC7
:101CC000D4E42FC0C7EBD4E42CC0CCECD4E429C0BE
:101CD000CDECD4E426C0C3E8D5E423C0CAE8D5E4FB
:101CE00020C0C2E9D5E41DC0C4E9D5E41AC0C1E2F0
:101CF000D6E417C0C3E2D6E414C0C4E2D6E411C0EF
:101D0000C5E2D6E40EC0C6E2D6E40BC0C7E2D6E414
:101D100008C0CFE6D4E405C0C0E7D4E402C0CAE2FC
:101D2000D6E4CE01DF91CF9108958238910549F133
:101D3000B0F48133910509F458C048F48932910513
:101D400009F44EC08A32910509F454C008958533D0
:101D5000910509F440C08933910599F00895833EB7
:101D6000910529F138F4803E910591F0823E91056C
:101D7000A1F00895863E9105F9F0873E910531F175
:101D8000089520919F0320FD3AC021FD38C0089599
:101D900080919F0380FD35C032C080919F0382FFF8
:101DA00032C080919F0384FD30C083EE39C08091A2
:101DB0009F0382FD28C0F5CF80919F0383FF27C03A
:101DC00080919F0384FD21C087EE2AC080919F03EC
:101DD00083FD1DC0F5CF80919F0385FD1AC01BC0F8
:101DE00080919F0385FD17C014C080919F0386FDDD
:101DF00014C015C080919F0386FD11C00EC080EEF7
:101E00000FC089E30DC082EE0BC080E009C086EEF2
:101E100007C089E205C085E303C08AE201C081E30F
:101E200090E0089590919F0392FF0DC0282F287194
:101E3000283019F4877F846006C0282F247124304D
:101E400011F48B7F886093FF0DC0282F28712831F3
:101E500019F4877E846106C0282F2471243111F47F
:101E60008B7E886194FD877E0895CF93DF938130C8
:101E700020E8920768F0FB012281222349F0EC015F
:101E80000E94620FCE019F770E94AA0F0E94970FB7
:101E900081E0DF91CF9108958CE090E00E9449337A
:101EA00090E0A0E0B0E08093590390935A03A09390
:101EB0005B03B0935C030895609159038CE090E05C
:101EC0000C945D330E944C23809343020E945F2355
:101ED00080915903813071F048F08230D9F084301C
:101EE000F9F486EE0E94811A88E118C082EE0E9401
:101EF000FB1816C080EE0E94FB1881EE0E94FB18B2
:101F000088E10E94811A81EE0E94191A80EE0E94D7
:101F1000191A06C082EE0E94FB1887E50E94811AFA
:101F20008FE39CE90197F1F700C0000008958091CC
:101F30005903813021F038F0823029F007C08CE25B
:101F40000E94811A03C082EE0E94191A80914302F6
:101F50000C945C230F931F93CF93DF938C01CCE001
:101F6000D0E0C8010C2E02C0969587950A94E2F73E
:101F70008F700E94F8090E94811A2497CC3F8FEF3E
:101F8000D80779F7DF91CF911F910F9108950F93A3
:101F90001F93CF93DF93EC018B01FB018281882398
:101FA00019F1C23EFCE5DF07C1F050F4C03EECE59C
:101FB000DE0781F0C13EFCE5DF07B1F481E010C02F
:101FC000C33E8CE5D80759F0C43EECE5DE0761F46A
:101FD00084E006C01092590305C082E001C083E08E
:101FE000809359030E945C0FB801CE01DF91CF911D
:101FF0001F910F910C94350FEF92FF920F931F9347
:10200000CF93DF93E901662309F44BC0242F30E01E
:10201000EFEFF0E0E61BF109B901E69F9001E79FC1
:10202000300DF69F300D1124232F8B01031B110956
:102030005CE3E52EF12CB7010E940E33FB01BC01DD
:10204000069FC001079F900D169F900D1124B701A8
:102050000E940E33E230F105B1F040F4309779F090
:10206000319711F5832F242F461B21C0E430F10551
:10207000A1F068F03597C1F4842F861B18C0832F18
:10208000262F230F14C0862F830FE42F03C0E42FC5
:10209000E61B842F432F2E2F0AC0842F462F430F79
:1020A00006C0842F242F03C080E020E040E0E42F0E
:1020B000F0E0E15FF84F4491E22FF0E0E15FF84F8C
:1020C0009491E82FF0E0E15FF84FE4914983988321
:1020D000EA83DF91CF911F910F91FF90EF900895C8
:1020E00088E090E00C945133CF92DF92EF92FF9210
:1020F0006B017C010E9470106C157D058E059F059B
:1021000051F0B701A60188E090E0FF90EF90DF90DA
:10211000CF900C946F33FF90EF90DF90CF900895A5
:10212000E4E5F3E083E08083109255038FEF828330
:102130008383148260817181828193810C947410F5
:102140008091540380FF03C086958F73089580E0CB
:1021500008958091580390E001968430910514F021
:1021600083E090E08093580360915403709155038D
:1021700080915603909157030C94741080915803EA
:1021800090E0019797FF02C080E090E084309105D5
:1021900014F083E090E080935803609154037091B1
:1021A000550380915603909157030C9474108091BD
:1021B000540380FF06C06FE070E08DE593E00C945F
:1021C0000B1780E090E0FC01E35AFC4F1182108273
:1021D000128204968C339105B1F7EDCF90915403A0
:1021E00090FF0FC020E030E0F901E35AFC4F8183FB
:1021F000608342832C5F3F4F2C333105A9F70C9449
:10220000D7100895CF93DF9300D000D0CDB7DEB7BD
:102210002091540320FF0AC09E012F5F3F4F0E9470
:10222000FC0F4B8169818A810E94EE100F900F9004
:102230000F900F90DF91CF9108955F926F927F92F0
:102240008F929F92AF92BF92CF92DF92EF92FF92C6
:102250000F931F93CF93DF9300D000D0CDB7DEB79D
:102260008C01E62EF42E522E8091540380FF89C0FB
:10227000982F9E77923061F49E012F5F3F4FC801E7
:102280000E94FC0F4B8169818A810E94EE1059C027
:10229000E82FE695EF739EE39E0F9F73943018F43A
:1022A000F09057034EC09AE39E0F9F73993068F4E5
:1022B000881F8827881F90915503292F220F022FEE
:1022C000082B97FB112710F93CC087E28E0F8F7304
:1022D0008A30B8F5F0E07997E0FD02C021E001C056
:1022E0002FEFEE7FEB5FF84F859194916FE070E0F8
:1022F0000E940E3326034001279F900C11245801A1
:1023000088E9A81A8EEFB80A8DE5C82E83E0D82E8A
:1023100098E6692E77247394C501B3010E940E33A9
:1023200096014F2D6E2D0E94FC0FA80CB91C84E065
:10233000C80ED11C89E9C81683E0D80669F70E9447
:10234000D7108091540300FB87F980935403902F9A
:102350009695809155038078892B10FB87F980939F
:102360005503E0925603F0925703552051F06091C7
:1023700054037091550380915603909157030E9426
:1023800074100F900F900F900F90DF91CF911F91CD
:102390000F91FF90EF90DF90CF90BF90AF909F9004
:1023A0008F907F906F905F900895282FE4E5F3E081
:1023B0009081991F9927991F30915503832F880F7A
:1023C000482F492B37FB552750F9CA010C9668E670
:1023D00071E00E942233438162810C941D1181E0DF
:1023E0000C94D511282F90915403991F9927991F68
:1023F00030915503832F880F482F492B37FB5527E2
:1024000050F9CA014C3051051CF4845A9E4F01C04A
:102410000C9768E671E00E94223340915703609167
:1024200056030C941D1181E00C94F211E4E5F3E0E5
:102430003081331F3327331F90915503592F550F88
:1024400097FB992790F9282F43816FEF852F832BD6
:102450000C941D1181E00C941612E4E5F3E0308138
:10246000331F3327331F90915503592F550F97FB77
:10247000992790F9282F438160E0852F832B0C94B6
:102480001D1181E00C942D1240915703242F30E050
:10249000243F310514F4445F01C04FEF30915403E1
:1024A000331F3327331F90915503592F550F97FB37
:1024B000992790F9282F60915603852F832B0C9430
:1024C0001D1181E00C94441240915703242F30E0F9
:1024D0002C30310514F04C5001C040E030915403D1
:1024E000331F3327331F90915503592F550F97FBF7
:1024F000992790F9282F60915603852F832B0C94F0
:102500001D1181E00C94641221E00C941D1120E057
:102510000C941D11CF939091540390FF40C091787B
:10252000811102C0926007C0853210F0986403C028
:102530008F73880F982B90935403662351F060910A
:1025400054037091550380915603909157030E9454
:102550007410C09154036C2F66956F7370E04BE05C
:1025600050E084E091E00E943C33892B19F01092F6
:10257000610203C081E080936102CC1FCC27CC1F95
:1025800090915503892F880F97FB992790F94091D7
:102590005703609156038C2BCF910C948712CF91E7
:1025A0000895682F9091540396959F7381E0890F49
:1025B000853208F081E00C948A1281E00C94D112EB
:1025C000682F9091540396959F738FEF890F09F4AC
:1025D00084E20C948A1281E00C94E01261E00C9485
:1025E0008A12E4E5F3E080818160808386958F73B1
:1025F0000C94EE1260E00C948A12809124038160A6
:10260000809324030E944F24811104C00E94BD24A2
:102610000E9490100E9470106093540370935503B1
:1026200080935603909357036E7761F40E94901045
:102630000E94701060935403709355038093560367
:102640009093570381E0809361028091540380FF4F
:1026500004C086958F730C94FA120895E4E5F3E0B4
:1026600080818160808386958F730C94FA12E4E5F3
:10267000F3E080818E7F808360817181828193818C
:102680000E947410109261022FEF80E792E02150B7
:1026900080409040E1F700C000000C94D71080917A
:1026A000540380FD0C9437130C94F112CF93C82F70
:1026B00080915F02909160020E94DD25EC2FF0E096
:1026C000EF5FF84FE491F0E08E179F0708F443C0E6
:1026D0000E94D1259093600280935F0260915E0218
:1026E00070E080E090E00E940F3120E030E04FE7A2
:1026F00053E40E9432302BED3FE049E450E40E9465
:1027000038320E94A5320E94AC302BE43AE34EE20C
:102710005FE30E94C52F20EF3BEF48ED52E40E949B
:1027200038320E94DE30462F80915403881F88275C
:10273000881F90915503292F220F97FB992790F915
:1027400060915603822B0E94021180915E0290E0FC
:10275000019680935E02CF910895CF93C82F809108
:102760005C0290915D020E94DD25EC2FF0E0E250CA
:10277000F94FE491F0E08E179F07E8F00E94D12511
:1027800090935D0280935C024091570360915603E1
:1027900080915A0290915B020E94021180915A022C
:1027A00090915B02019668E671E00E940E3390936F
:1027B0005B0280935A02CF910895CF92DF92FF92ED
:1027C0000F931F93CF93DF93F82E8091580290912F
:1027D00059020E94DD25EF2DE695F0E0E550F94F16
:1027E000E491F0E08E179F07E8F10E94D1259093C5
:1027F0005902809358020DE513E0C0E0D0E088E66E
:10280000C82EDD24D39480915602909157028C0FEC
:102810009D1FB6010E940E339801409157036091AD
:1028200056030E94FC0F68960C5F1F4FC83681E06C
:10283000D80749F70E94D7102091560230915702CD
:10284000F0FE0AC0C9010196BE010E940E339093AA
:1028500057028093560206C0215031093093570227
:1028600020935602DF91CF911F910F91FF90DF903F
:10287000CF900895AF92BF92CF92DF92EF92FF92E6
:102880000F931F93CF93DF93C82F80FF02C01FEFDA
:1028900001C011E080915402909155020E94DD2503
:1028A000C695EC2FF0E0E850F94FE491F0E08E1778
:1028B0009F0708F466C00E94D1259093550280932B
:1028C00054022DE5C22E23E0D22E3FE5E32E33E065
:1028D000F32EC0E0D0E0F70131971082F6011082AC
:1028E000F701108294E0A92EB12C00E080915302F0
:1028F000800F87FD815F082E000C990BC817D90740
:10290000E9F4809157038A9DA0018B9D500D1124FD
:10291000559547955595479580915403881F88276D
:10292000881F90915503592F550F97FB992790F9C0
:10293000960160915603852B0E94FC0F010FF1E078
:10294000AF1AB10899F6219684E0C80ED11CE4E0D4
:10295000EE0EF11CCF30D10509F0BDCF0E94D7108B
:1029600080915302113031F4811102C08EE007C012
:10297000815005C090E00196BE010E9422338093F1
:102980005302DF91CF911F910F91FF90EF90DF9055
:10299000CF90BF90AF9008950F931F93CF93DF9385
:1029A000C82F80915102909152020E94DD25EC2F98
:1029B000F0E0EB50F94FE491F0E08E179F0708F438
:1029C00064C00E94D125909352028093510280E00E
:1029D00090E0FC01E35AFC4F1182108212820496AF
:1029E0008C339105B1F7C0E0D0E00FE010E0CE01EC
:1029F000B8010E942233FC0180915002082E000C85
:102A0000990BEE0FFF1FEE0FFF1FC817D907FCF041
:102A100080910301082E000C990B8C179D07BCF0C8
:102A20009F01235A3C4F80915403881F8827881F99
:102A300090915503592F550F97FB992790F9409185
:102A4000570360915603852B0E94FC0F05C0E35A83
:102A5000FC4F1182108212822196CF30D10539F6B7
:102A60000E94D7108091020190915002980F90938C
:102A7000500220910301280F20930301121614F431
:102A80009E301CF0819580930201DF91CF911F91C0
:102A90000F910895EF92FF920F931F93CF93DF93BF
:102AA00080914E0290914F020E94DD25883E934016
:102AB000D0F10E94D12590934F0280934E02C09195
:102AC0004C02D0914D022196C170DD27D0934D026A
:102AD000C0934C028DE5E82E83E0F82E10E008E765
:102AE000812F8695FE01E80FF11DCF018170992796
:102AF00097014091570360915603FC010E9FC0015E
:102B00000F9F900D11240E94FC0F1F5FF4E0EF0E49
:102B1000F11C1F3029F7DF91CF911F910F91FF908A
:102B2000EF900C94D710DF91CF911F910F91FF90F0
:102B3000EF900895CF93DF9300D000D0CDB7DEB7EC
:102B400080914A0290914B020E94DD25E3EFF6E06E
:102B50002591349182179307C0F180914902811128
:102B60000CC09E012F5F3F4F4FEF6FEF80E090E072
:102B70000E94FC0F8A81809349020E94D125909384
:102B80004B0280934A0280914802813051F028F034
:102B9000823061F4409149020AC08091490240E0CC
:102BA00007C06091490240E080E003C040E080E05F
:102BB00060E00E94EE108091480290E0019663E090
:102BC00070E00E942233809348020F900F900F9084
:102BD0000F90DF91CF9108950F931F93CF93DF93C1
:102BE00080914602909147020E94DD25843F9140EA
:102BF00008F448C00E94D125909347028093460272
:102C0000CDE5D3E000E010E0209144023091450290
:102C10008091540390915503073011051CF4232B28
:102C200079F002C0232B61F4881F8827881F592F51
:102C3000550F97FB992790F99E01409157030AC0C1
:102C4000881F8827881F592F550F97FB992790F9C0
:102C50009E0140E060915603852B0E94FC0F0F5FA0
:102C60001F4F24960F30110579F60E94D7108091DE
:102C700044029091450201968170992790934502F4
:102C800080934402DF91CF911F910F91089580911D
:102C900061028823D9F190915403892F86958F730F
:102CA0002EE3280F2F73243018F482500C945613FF
:102CB0002AE3280F2F73233018F486500C94AD1399
:102CC00027E3280F2F73263018F489500C94DD1356
:102CD00021E3280F2F73263018F48F500C943A14E8
:102CE0002BE2280F2F73233018F485510C94CC1449
:102CF000892F8E77803311F40C944A15863411F4A1
:102D00000C949A15883411F40C94EC1508958823CA
:102D100019F05198599A02C0519A59985098589A56
:102D200095E09A95F1F70000509A589895E09A9599
:102D3000F1F70000882311F0519A599885E08A959F
:102D4000F1F7000008958BB18C7F8BB95098589A99
:102D50005198599A85E08A95F1F7000008958AB153
:102D60008C7F8AB985E08A95F1F70000519A5998CD
:102D700085E08A95F1F70000509A589885E08A9589
:102D8000F1F7000008955098589A85E08A95F1F778
:102D900000005198599A85E08A95F1F7000008954E
:102DA000CF93DF93D82FC8E08D2F80780E948716AD
:102DB000DD0FC150C9F780E00E94871685E08A9533
:102DC000F1F7000085E08A95F1F7000080E0DF91DF
:102DD000CF9108952BB1342F309523233BB1432B52
:102DE0003FB7F894FC01680F791FE617F70789F0E1
:102DF000819198E04BB9000000C087FF2BB9880F84
:102E0000000000C000C000C02BB900C09A9591F727
:102E1000ECCF3FBF0895AF92BF92CF92DF92EF9277
:102E2000FF920F931F93CF93DF938C01EB01CFB6EB
:102E3000D090BC00F8948091BC008B7F8093BC0044
:102E40000E94A3160E94AF1684E80E94D016CC0FF1
:102E5000DD1FCC0FDD1F78015801AC0EBD1EEA143A
:102E6000FB0431F0F70181917F010E94D016F7CF6A
:102E70000E94C316CFBED092BC00579A40E8BE0154
:102E8000C801DF91CF911F910F91FF90EF90DF90DC
:102E9000CF90BF90AF900C94EA1690936702809306
:102EA00066020895E0916602F0916702309721F082
:102EB0000190F081E02D099480E00895E091660290
:102EC000F0916702309799F020912001222359F068
:102ED00020919F0327FF07C0DC012C9111962C93B2
:102EE000119725E02C930280F381E02D0994089539
:102EF000E0916602F0916702309739F022E0DC0140
:102F00002C930480F581E02D0994089520916402AA
:102F1000309165028217930771F090936502809358
:102F20006402E0916602F0916702309721F006801A
:102F3000F781E02D09940895209162023091630297
:102F40008217930771F09093630280936202E0917D
:102F50006602F0916702309721F00084F185E02D40
:102F60000994089585B7806885BF85B7806885BF57
:102F7000089508950E94B2170C94B91781E008953E
:102F80000E94C8250E945A050E945F260C94FD12DB
:102F9000CF92DF92EF92FF920F931F93CF93DF9325
:102FA000CDB7DEB72B970FB6F894DEBF0FBECDBFFF
:102FB0000E942C060E94BE17811111C08FEF8983D9
:102FC0008A831B820E94D1258160782F9D838C8308
:102FD00049815A816B818D810E94AC1856C089E667
:102FE000C82E82E0D82E00E010E0E02E802F0E9454
:102FF0007406F60141916F01F42EF82631F40F5F4B
:103000001F4F0E30110589F7D9CF9091240391FFFE
:1030100004C08B870E947A068B8520E030E04F2D1C
:1030200050E0922FBA01022E02C0759567950A945E
:10303000E2F760FF24C02E83EF8221E030E06901D7
:1030400002C0CC0CDD1C9A95E2F790E08C219D210A
:10305000892B09F420E028870E94D1258160782FF0
:103060009A8789874E815F8168858A850E94AC181E
:10307000F801E759FD4F8081C826C08206C02F5F46
:103080003F4F2630310569F6BACF0E94F2271091E2
:1030900068020E9452171817A1F00E9452178093DD
:1030A00068022B960FB6F894DEBF0FBECDBFDF913E
:1030B000CF911F910F91FF90EF90DF90CF900C94E4
:1030C000090A2B960FB6F894DEBF0FBECDBFDF9175
:1030D000CF911F910F91FF90EF90DF90CF900895C7
:1030E000DC0111962C9111978C91682F70E041E0D2
:1030F00050E001C0440F8A95EAF712968C9112971E
:1031000030E0882329F0809187028823E9F006C007
:10311000F901E958FD4F90819423B1F086E0829F38
:10312000F001839FF00D1124E60FF71FEE0FFF1F34
:10313000EF5DFE4F808191818D939C93F901E95859
:10314000FD4F8081482B06C0F901E958FD4F40959D
:103150008081482340830895CF93DF93CDB7DEB7B6
:103160002B970FB6F894DEBF0FBECDBF942F4F83C1
:10317000252F588769877A878B874A855B85452BFA
:1031800021F02F3F09F59F3FF9F4DE01119686E00B
:10319000FD0111928A95E9F785E0FE0137960190CD
:1031A0000D928A95E1F749815A816B817C818D81ED
:1031B0009E810E9440202B960FB6F894DEBF0FBE72
:1031C000CDBFDF91CF910895CE0107960E94701870
:1031D000DCCFFC01808191810E940D2392959F702C
:1031E000963041F48091870291E08927809387028D
:1031F000909386020895882309F41AC18238C1F495
:103200000E94521781FD14C169E380910F019091D2
:1032100010010E9424250E949B232FEF81EE94E051
:10322000215080409040E1F700C0000069E319C0E0
:103230008338F9F40E94521780FDFAC063E580914B
:103240000F01909110010E9424250E949B232FEFD3
:1032500081EE94E0215080409040E1F700C00000F2
:1032600063E580910F01909110010E942F250C942D
:103270009B238438C1F40E94521782FDD9C067E4B1
:1032800080910F01909110010E9424250E949B23A0
:103290002FEF81EE94E0215080409040E1F700C094
:1032A000000067E4DECF9CEF980F913A40F4682F5E
:1032B00080910F01909110010E942425D8CF90E2B7
:1032C000980F983050F4877091E001C0990F8A955B
:1032D000EAF7892F0E944F23CACF9BE5980F9330BE
:1032E00070F4853A29F0863A31F083E890E005C021
:1032F00081E890E002C082E890E00C94861798E59F
:10330000980F973108F08EC0883A09F445C0893A81
:1033100009F445C08A3A09F445C08B3A09F445C01E
:103320008C3A09F445C08B3B09F445C08C3B09F449
:1033300045C08D3A09F445C0803B09F445C08E3A3A
:1033400009F445C08F3A09F445C0813B09F445C0F2
:10335000823B09F445C0833B09F445C0843B09F432
:1033600045C0853B09F445C0863B09F445C0873B11
:1033700009F445C0883B09F445C0893B09F445C0C0
:103380008D3B09F445C08E3B09F445C08A3B09F4E6
:1033900045C080E090E044C082EE90E041C089EEFC
:1033A00090E03EC08AEE90E03BC085EB90E038C0F4
:1033B00086EB90E035C083EB90E032C084EB90E088
:1033C0002FC087EB90E02CC08CEC90E029C08DECF6
:1033D00090E026C083E891E023C08AE891E020C015
:1033E00082E991E01DC084E991E01AC081E292E097
:1033F00017C083E292E014C084E292E011C085E23B
:1034000092E00EC086E292E00BC087E292E008C034
:103410008FE690E005C080E790E002C08AE292E08B
:103420000C949C17803F20F00E94FA260C94E7270A
:103430000895882309F464C0823879F40E945217F1
:1034400081FF5EC069E380910F01909110010E949D
:1034500024250E949B2369E310C08338B1F40E94A5
:10346000521780FF4DC063E580910F0190911001CC
:103470000E9424250E949B2363E580910F01909177
:1034800010010E942F250C949B23843879F40E940C
:10349000521782FF35C067E480910F0190911001AF
:1034A0000E9424250E949B2367E4E7CF9CEF980F9E
:1034B000913A10F4682FE1CF90E2980F983050F4D1
:1034C000877091E001C0990F8A95EAF7892F0E94D1
:1034D0005523D9CF9BE5980F933020F480E090E0FE
:1034E0000C94861798E5980F973120F480E090E0CF
:1034F0000C949C17803F20F00E9462270C94E727D1
:103500000895CF93C82F0E94FB188C2FCF910C9455
:10351000191A882321F00E944F230C949B230895AD
:10352000882321F00E9455230C949B2308958F92A9
:103530009F92AF92BF92DF92EF92FF920F931F93F1
:10354000CF93DF937C01D62FC72FFC010581029515
:103550000F70128111110E946F230E94452388234E
:1035600079F0112369F080E28D0F883048F082E015
:103570000E94E6230E94452391E0D82ED92601C05F
:10358000D12CAC2EA2948FE0A822B12CF501EE57DD
:10359000FF4F0C9436338C2F807FCF70882311F02F
:1035A000C295C07F112399F0CC2309F4C8C180E2F1
:1035B0008D0F883010F0D11104C08C2F0E944F2342
:1035C00003C08C2F0E9462230E949B23B8C18D2FC1
:1035D0000E94191ACC2309F42EC280E28D0F883084
:1035E00010F0D11104C08C2F0E94552303C08C2FE2
:1035F0000E9468230E949B231EC28C2F807FCF7065
:10360000803211F0C295C07FDD2319F0D130C9F0AE
:1036100021C0112371F0002341F0013031F40E94E8
:1036200082238C2B0E94882306C20E9482238C2B2B
:103630003FC1002319F0013009F4FDC10E9491231C
:1036400011C0112321F0023008F0F5C107C00111AB
:10365000F2C108C0112321F0011171C18C2F28C1C2
:1036600001117EC18C2F2AC18C2F8695869583707F
:1036700090E0009719F0019761F0DDC1112321F06E
:103680008D2F9C2F937002C080E090E00E948617DF
:10369000E2C1112321F08D2F9C2F937002C080E096
:1036A00090E00E949C17D7C11123F9F0D53F51F04B
:1036B000D63F71F0D43FA9F48091990390919A0379
:1036C00081600BC08091990390919A03826005C03C
:1036D0008091990390919A03846090939A038093C8
:1036E00099038D2F0E94FA261EC0D53F51F0D63F78
:1036F00071F0D43FA9F48091990390919A038E7F41
:103700000BC08091990390919A038D7F05C08091A1
:10371000990390919A038B7F90939A0380939903D6
:103720008D2F0E9462270E94E72795C18C2F8370FE
:1037300009F050C011118BC18D2F8295869587702D
:10374000880F880F9D2F9F70892E912CA12CB12C52
:10375000082E04C0880C991CAA1CBB1C0A94D2F722
:10376000D4FF14C00FE010E020E030E0B901A80160
:1037700004C0440F551F661F771F8A95D2F7CB01EF
:10378000BA01609570958095909503C060E070E0F7
:10379000CB01C695C695C370D0E0C230D10561F0AB
:1037A000C330D10581F0682979298A299B2921977D
:1037B00071F00E9485214BC1682979298A299B29AA
:1037C0000E94972144C10E948521C501B4010E9435
:1037D00073213DC1112319F08C2F817001C0869592
:1037E000882309F434C18D2F829586958770880FC0
:1037F000880F9D2F9F70892E912CA12CB12C082E03
:1038000004C0880C991CAA1CBB1C0A94D2F7D4FFD4
:1038100014C00FE010E020E030E0B901A80104C0BE
:10382000440F551F661F771F8A95D2F7CB01BA0147
:10383000609570958095909503C060E070E0CB0135
:10384000C695C695C3704C2F50E04230510569F0C3
:103850004330510589F0682979298A299B2941300B
:10386000510571F00E944A22F2C0682979298A29FB
:103870009B290E945C22EBC00E944A22C501B40130
:103880000E943822E4C08D2F90E0FC01E05EF10937
:10389000E531F10508F04FC0EE56FF4F0C9436337A
:1038A000DF708C2F8F71112331F00E94D1218D2F69
:1038B0000E94891AC0C00E94F2218D2F0E94901A86
:1038C000BAC0112339F00111B6C08C2F8F710E943C
:1038D0001722B1C0023008F0AEC0F7CF112339F083
:1038E0008C2F8F710E94D121A6C01123C9F38C2F78
:1038F0008F710E94F2219FC0112329F08C2F8F71AC
:103900000E94BC2198C00E94B72195C0112349F0A4
:10391000CF718C2F0E94D12163E08C2F0E94D12384
:103920008AC081E00E94E623023008F484C082E06D
:103930000E94E62380C0112331F0002389F28D2FED
:103940000E94FB1878C0002391F2D93349F45FEF4D
:1039500067EE73E0515060407040E1F700C0000036
:103960008D2F0E94191A67C04C2F4F706D2FC70101
:103970000E943A080E94E4206EC0D23FB1F028F4C1
:10398000D03F49F0D13FF9F028C0D43FB9F058F00A
:10399000D53F71F022C0112309F447C090918702EE
:1039A00081E0892708C081E01827109387023DC075
:1039B00011113BC081E08093870237C0111135C0DF
:1039C0001092870232C0112329F080918602882349
:1039D00029F329C0002311F328C080918602002317
:1039E000C1F0882341F09091870281E0892780937C
:1039F0008702109286028D2F112319F00E94FB1866
:103A000014C00E94191A86E0F70111928A95E9F70D
:103A10000CC0882351F0111108C09091870281E0F9
:103A2000892780938702109286024C2F4F706D2F4A
:103A3000C7010E94B50CF8E0AF16B10441F05CF08C
:103A40004AE0A41AB10852E0A516B10420F40E947D
:103A500052170E94090ADD20E1F00E94412380FDF7
:103A600018C0F70112820E943B230E94D121C70196
:103A70000E94551D0E943B23DF91CF911F910F9112
:103A8000FF90EF90DF90BF90AF909F908F900C943D
:103A9000F221DF91CF911F910F91FF90EF90DF9076
:103AA000BF90AF909F908F9008950F931F93CF93E7
:103AB000DF93EC01888199812B813C81232BB9F024
:103AC0009F3F11F48F3F99F0CE010E941B0A88237B
:103AD00071F0688179818A810E9418238C010E948B
:103AE0006E220E947021B801CE010E94971ADF91C8
:103AF000CF911F910F9108950E946F230E947F2301
:103B00000E949B230E948D280E94E72780E090E07E
:103B10000E94861780E090E00C949C1780910F0122
:103B2000909110010E943A250C947C1D0E945F2305
:103B30000C948E1DE92FE295EF70F0E03297EE3095
:103B4000F105B0F4E955FF4F0C943633803F91F006
:103B500018F4803E68F40EC0843F51F40BC0803EE0
:103B600048F0813F29F406C093FB882780F9089527
:103B700080E0089581E008950E940D230E949A1D1F
:103B80000895CF93DF9300D000D01F92CDB7DEB75A
:103B90000F900F900F900F900F90DF91CF9108959D
:103BA000CF93DF9300D000D000D0CDB7DEB72696FC
:103BB0000FB6F894DEBF0FBECDBFDF91CF91089551
:103BC0001F93CF93DF93C091880216E08091890202
:103BD000C81799F0D0E01C9FF0011D9FF00D112433
:103BE000E657FD4F408151816281738184819581C7
:103BF0000E94D01D2196C770E9CFDF91CF911F9110
:103C000008954091BA025091BB026091BC0270913C
:103C1000BD028091BE029091BF020C94D01D809194
:103C2000BF0282958F7009F054C08091BC02882336
:103C300009F44FC080918802A09189026091BA0274
:103C40007091BB024091BD025091BE02B6E08A174E
:103C500009F43FC090E041155105C1F17F3F11F4D7
:103C60006F3FA1F1B89FF001B99FF00D1124E65705
:103C7000FD4F218172132AC02081621327C0228147
:103C8000211124C0238134812417350710F42150D9
:103C90003109241B350B2A3F3105C0F42091BF02A6
:103CA0002F7020612093BF0226E0289FF001299FFA
:103CB000F00D1124E157FD4F80818F70806180836A
:103CC0008AEB92E00E94551D0C94E01D01968770CE
:103CD000BECF0895CF92DF92EF92FF920F931F9382
:103CE000CF93DF93CDB7DEB762970FB6F894DEBF00
:103CF0000FBECDBF8C0185E0F801DE011D9601905D
:103D00000D928A95E1F7D8014C9111965C9111972B
:103D100012966C9112971396CD90DC901497309177
:103D2000BA027091BB028091BD029091BE020097D1
:103D300009F46BC17F3F19F43F3F09F466C1E0907D
:103D4000BC02EE2009F4C0C02091BF02C816D906FB
:103D500028F0F601E81BF90BCF0104C0809590957F
:103D60008C0D9D1DFF24F3948A3F910578F0F12C72
:103D7000207F09F0C6C07C2DD98AC88A89890E9413
:103D8000C11D8AEB92E00E94551DB1C0822F807F39
:103D900009F046C0751314C0341312C0611110C06D
:103DA0002F7020612093BF020E94011E8AEB92E0D7
:103DB0000E94551D8091BF02D80115968C932EC08C
:103DC000CD2819F15F3F11F44F3FF9F0F62E611144
:103DD0001CC0809188022091890236E0821709F484
:103DE0005AC090E0389FF001399FF00D1124E6573A
:103DF000FD4F7181571306C07081471303C0728154
:103E0000711103C001968770E9CFF62E662309F47D
:103E100027C18091BF0281608093BF02F12C20C135
:103E2000751308C0341306C0611104C08091BF022D
:103E3000D801C3C04D875E878D859E856A8B0E94A1
:103E4000BC1D6A898823E1F16623D1F12091BF026C
:103E5000822F82958F7090E0029774F08091BA0261
:103E60009091BB0298878F831986DB86CA862C8740
:103E7000CE0107960E94551D86E0F801AAEBB2E03C
:103E800001900D928A95E1F70E940F1E0E94011E7B
:103E9000FF24F394E5C04D875E878D859E850E9443
:103EA0000D23292F22952F7030E0223031050CF0A0
:103EB000CBC09F7009F0C5C0805E883008F4D0C0C8
:103EC000C8010E94551DE4CFC816D90608F453C096
:103ED000F601E81BF90BCF018A3F910508F450C0A9
:103EE000F12C7C2DD98AC88A89890E94C11DEAEBF0
:103EF000F2E086E0DF011D928A95E9F70E94011E3B
:103F0000AFC0751314C0341312C0611110C080917A
:103F1000BF02F8018583C8010E94551D86E0EAEBC7
:103F2000F2E0DF011D928A95E9F7FE2C99C04D87DA
:103F30005E878D859E856A8B0E94BC1D6A89882359
:103F400009F4BECF662309F4BBCF2091BF02822FB4
:103F500082958F7090E002970CF48ECF8091BA0218
:103F60009091BB029A8389831B82DD82CC822E834F
:103F7000CE0101967FCF809590958C0D9D1DACCF85
:103F8000F62E662309F49CCF75132EC034132CC073
:103F90002091BF0220FD1FC0822F82958F70D9F023
:103FA000D80115962C9315978F3049F08F5F982F75
:103FB0009295907F822F8F70892B15968C93C801D4
:103FC0000E94551D86E0F801AAEBB2E001900D9227
:103FD0008A95E1F793CF86E0F801AAEBB2E0019071
:103FE0000D928A95E1F73CC04D875E878D859E8551
:103FF0000E94BC1D811140CF8091BF0281608093DF
:10400000BF02C8010E94551D2BC0662309F458CF7A
:104010004D875E878D859E850E94BC1DF82E882366
:1040200009F44ECF86E0F801AAEBB2E001900D92C0
:104030008A95E1F78AEB92E00E94E9180E940F1E30
:104040005DCF811139CF0CC0243031050CF038CF51
:104050009F7009F431CFF8019581907F09F02CCF42
:104060008F2D62960FB6F894DEBF0FBECDBFDF91E5
:10407000CF911F910F91FF90EF90DF90CF90089517
:104080001F93CF93DF93CDB7DEB72C970FB6F8947D
:10409000DEBF0FBECDBF4F83588769877A878B8776
:1040A0009C87CE0107960E946A1E882369F08F8143
:1040B00098852A853B85232BF1F19F3F09F063C04A
:1040C0008F3F09F060C037C086E0FE013796DE0101
:1040D000119601900D928A95E1F76F817885EA85B6
:1040E000FB85309741F17F3F11F46F3F21F1209123
:1040F000890230E0C90101968770992740918802B2
:1041000050E08417950709F447C069837A83FD83DB
:10411000EC8396E0929FD001939FB00D1124A65797
:10412000BD4FFE01319601900D929A95E1F7809373
:1041300089020E94E01D16E0809188029091890218
:104140008917C1F1189FC001112486579D4F0E9405
:104150006A1E882379F1E09188021E9FF0011124E4
:10416000E657FD4F40815181628173818481958141
:104170000E94D01D8091880290E001968770992757
:1041800080938802D9CF4F81588569857A858B8540
:104190009C850E94D01DCFCF0E94961D109289024F
:1041A00010928802EAEBF2E086E0DF011D928A9528
:1041B000E9F7C1CF2C960FB6F894DEBF0FBECDBF86
:1041C000DF91CF911F910895EF92FF920F931F936C
:1041D000CF93DF938C01892B09F46CC0F12CEE2472
:1041E000E394E8012196F8018491843740F4843007
:1041F00008F051C0813081F0823019F15BC0853701
:1042000009F444C0A8F19CE7980F903708F052C019
:104210008F770E94191A41C00E5F1F4FFE01C49193
:1042200080E28C0F883048F4C7708E2D01C0880F53
:10423000CA95EAF70E94722314C08C2F0E94FB18C3
:104240002DC00E5F1F4FFE01C49180E28C0F88309D
:1042500058F4C7708E2D01C0880FCA95EAF70E94E6
:1042600078230E949B231AC08C2F0E94191A16C013
:104270000E5F1F4FFE01C491CC2381F08FE99FE0B8
:104280000197F1F700C00000C150F6CF0E5F1F4F3D
:10429000FE01F49003C00E94FB188E018F2D88232D
:1042A00009F49FCFEFE9FFE03197F1F700C000007C
:1042B0008150F5CFDF91CF911F910F91FF90EF903B
:1042C000089508950C9461210E9462216093FB027D
:1042D0007093FC028093FD029093FE020C947C1D6F
:1042E00008950C9464210F931F930091FB02109189
:1042F000FC022091FD023091FE02602B712B822B7B
:10430000932B1F910F910C9464210F931F93009195
:10431000FB021091FC022091FD023091FE0260230D
:104320007123822393231F910F910C9464210F9387
:104330001F930091FB021091FC022091FD0230912D
:10434000FE0260277127822793271F910F910C94FB
:1043500064210C94E0080E94A9216093F7027093F5
:10436000F8028093F9029093FA020C947C1D60E0AD
:1043700070E0CB010C94AB210F931F9341E050E010
:1043800060E070E08A019B0104C0000F111F221F32
:10439000331F8A95D2F7C901B8011F910F910C9470
:1043A000AB210F931F9341E050E060E070E004C048
:1043B000440F551F661F771F8A95D2F78091F70229
:1043C0009091F802A091F902B091FA028A019B0142
:1043D000082B192B2A2B3B2BC901B8011F910F91D8
:1043E0000C94AB210F931F9341E050E060E070E02C
:1043F00004C0440F551F661F771F8A95D2F740955A
:104400005095609570958091F7029091F802A09177
:10441000F902B091FA028A019B01082319232A2389
:104420003B23C901B8011F910F910C94AB210F934D
:104430001F9341E050E060E070E004C0440F551F5E
:10444000661F771F8A95D2F78091F7029091F80244
:10445000A091F902B091FA028A019B01082719275D
:104460002A273B27C901B8011F910F910C94AB215A
:104470000F931F930091F7021091F8022091F90217
:104480003091FA02602B712B822B932B1F910F918D
:104490000C94AB210F931F930091F7021091F80237
:1044A0002091F9023091FA02602371238223932331
:1044B0001F910F910C94AB210F931F930091F70262
:1044C0001091F8022091F9023091FA0260277127C9
:1044D000822793271F910F910C94AB210895292FC8
:1044E000220F920F990F890FA82FA695A695A69532
:1044F000877051E001C0550F8A95EAF785E0A89FC3
:10450000D001112420E030E070E0F901EA0FFB1F38
:10451000E054FD4F4081CB01022E02C09695879555
:104520000A94E2F78170992781958427852384274F
:1045300080832F5F3F4F2530310539F70895292FAC
:10454000220F920F990F890F682F669566956695D1
:10455000982F977085E0689FB001112440E050E0EB
:1045600080E0FA01E60FF71FE054FD4F208130E0B4
:10457000092E02C0369527950A94E2F72170332759
:10458000042E01C0220F0A94EAF7822B4F5F5F4F7F
:104590004530510531F70895BF92CF92DF92EF92E7
:1045A000FF920F931F93CF93DF938C01C090FB0278
:1045B000D090FC02E090FD02F090FE028091F702A4
:1045C0009091F802A091F902B091FA02C82AD92A72
:1045D000EA2AFB2ACFE1D0E0D701C6010C2E04C0A5
:1045E000B695A795979587950A94D2F780FF07C04F
:1045F000BC2EB8018C2F0E94D00C019719F4219782
:1046000058F7B12C8B2DDF91CF911F910F91FF9017
:10461000EF90DF90CF90BF900895CF93DF93EC01A0
:104620000E94CC22BE010E94D00CDF91CF91089550
:104630001F93CF93DF93EB0190918502992321F093
:10464000CB010E940D2313C0882349F0CB010E94A7
:10465000CC22182F682FCE010E946F2204C0CB01FC
:104660000E949F22182FBE01812F0E94D00CDF9143
:10467000CF911F9108958091FF028595859585952D
:1046800008958091FF02877008959091FF029770BE
:1046900081E009F480E008958091230308959091CA
:1046A0002303892B809323030895809590912303FE
:1046B0008923809323030895809323030895109200
:1046C0002303089590912203892B80932203089558
:1046D000809590912203892380932203089510925C
:1046E0002203089590912103892B8093210308953B
:1046F000809590912103892380932103089510923E
:104700002103089580910003089508950C94852352
:1047100090910003981721F0809300030C94862356
:10472000089580910003882329F01092000380E00F
:104730000C9486230895E0910F01F091100180916F
:1047400023038083E0910F01F0911001908180910B
:104750002203892B8083E0910F01F0911001908159
:1047600080912103892B808380910003882381F02D
:10477000E0910F01F09110019081892B808380914D
:104780000F01909110010E94BF2481110E9491237A
:1047900080910F01909110010C945E1708950C9474
:1047A000CE2398E0899F90011124262B2093FF02AD
:1047B0000E94D1218091FF028595859585950C9465
:1047C000CF231092FF0280E00C94CF232091FF02B0
:1047D000809582238093FF02982F977079F430E0C0
:1047E000482F082E000C550B2417350739F08595F6
:1047F000859585950E94F2210C94E1230895CF922E
:10480000DF92EF92FF926C01EE24FF24C114D104D9
:10481000E104F10421F0C701B60120E101C020E06C
:10482000C72ED82EE92EFF24C114D104E104F104CF
:1048300019F0285FC701B6016B017C0154E0F694C2
:10484000E794D794C7945A95D1F7C114D104E104E1
:10485000F10419F02C5FC701B6016B017C0142E045
:10486000F694E794D794C7944A95D1F7C114D1042C
:10487000E104F10419F02E5FC701B601DC01CB01A0
:10488000B695A79597958795892B8A2B8B2B09F041
:104890002F5F822FFF90EF90DF90CF90089580E000
:1048A00090E00E94573321E08D3E9E4F09F020E0BA
:1048B000822F089582E090E00C94493383E090E0E9
:1048C0000C94493384E090E00C944933682F84E0E1
:1048D00090E00C945D33AB01BC018FE090E00C9450
:1048E0006F33AB01BC0183E190E00C946F3360E067
:1048F00070E0CB010C94712460E070E0CB010E9469
:104900006B240C9477246DEE7EEF80E090E00E94A3
:104910007B3360E082E090E00E945D3360E083E002
:1049200090E00E945D331092FB021092FC02109204
:10493000FD021092FE0260E084E090E00E945D3390
:1049400060E085E090E00E945D3360E086E090E00A
:104950000E945D336FEF87E090E00E945D3340E09E
:1049600050E0BA0188E090E00E946F3360E08DE093
:1049700090E00E945D330C947C240C948324FC0111
:10498000329680912001882331F080919F0387FF28
:1049900002C09EE101C096E080E0915028F0219194
:1049A0002223D9F38F5FF9CF08959C01FC01329641
:1049B0009FEF80E04191461789F09F3F19F4411124
:1049C00001C0982F8F5F8630A9F79F3F39F0F9011A
:1049D000E90FF11D97FDFA95628308950895FC0192
:1049E000329608962081261301C010823196E8176E
:1049F000F907C1F70895262F2695269526952E317D
:104A000068F4FC01E20FF11D677021E030E001C0A5
:104A1000220F6A95EAF78281282B22830895262F98
:104A20002695269526952E3170F4FC01E20FF11D96
:104A3000677021E030E001C0220F6A95EAF7209507
:104A4000828128232283089520912001222329F0A6
:104A500020919F0327FD0C94FB240C94D5242091D6
:104A60002001222329F020919F0327FD0C940F257C
:104A70000C94EF2420912001FC013296222331F086
:104A800080919F0387FF02C08EE101C086E0DF01B5
:104A90001D928A95E9F7089508950C944C250E947B
:104AA0004D258091A503843049F11092250320E41F
:104AB00088E190E00FB6F894A895809360000FBE4F
:104AC0002093600080E00E94090A0E944D2583B770
:104AD000817F846083BF83B7816083BF789488952A
:104AE00083B78E7F83BF0FB6F894A895809160003E
:104AF000886180936000109260000FBE0895089551
:104B0000CF930E9483050E942C060E947F25C0E05F
:104B10008C2F0E947406811104C0CF5FCE30C1F784
:104B200001C081E0CF91089508950C9494250E94CE
:104B3000961D0E9452170E94090A0C9495251F92F7
:104B40000F920FB60F9211248F939F93AF93BF9341
:104B500080912503811113C080919B0390919C0348
:104B6000A0919D03B0919E034196A11DB11D80931C
:104B70009B0390939C03A0939D03B0939E03BF91CE
:104B8000AF919F918F910F900FBE0F901F9018952E
:104B900082E084BD93E095BD9AEF97BD80936E004F
:104BA00008952FB7F89480919B0390919C03A09156
:104BB0009D03B0919E032FBF0895CF92DF92EF9295
:104BC000FF920F931F932FB7F89440919B0350913E
:104BD0009C0360919D0370919E032FBF6A017B012E
:104BE000EE24FF248C0120E030E0C016D106E2065E
:104BF000F30610F4415051099A01281B390BC901E1
:104C00001F910F91FF90EF90DF90CF9008957894CF
:104C10001F920F920FB60F9211248F939F93AF9311
:104C2000BF9380919B0390919C03A0919D03B091B1
:104C30009E030196A11DB11D80939B0390939C033D
:104C4000A0939D03B0939E03BF91AF919F918F91CD
:104C50000F900FBE0F901F901895F89481E08093ED
:104C6000E00080E28093D800E9ECF0E010828FE170
:104C70009EE40197F1F700C000001DBA1092680091
:104C80001CBC10BE1FBA10927A0010926E001092D7
:104C90006F0010927100109272001082ECEBF0E045
:104CA000108214B817B81AB81DB810BA108215B807
:104CB00018B81BB81EB811BA0C94003F08950E9492
:104CC0004F24811102C00E94BD240E945A24809367
:104CD00024030E94622490E09093A00380939F039A
:104CE0000E945E24682F70E080E090E00C947121B7
:104CF0008091290380FF0BC06091140185E0689FBB
:104D0000B001112475956795759567952BC081FF46
:104D100009C06091140185E0689FB0011124759568
:104D2000679520C082FF07C06091140185E0689FED
:104D3000B001112417C090912A039923D1F06091FA
:104D40001301961788F72091140185E0289F9001A0
:104D50001124929FA001939F500D112470E0CA016D
:104D60000E9422336038710540F46115710539F0F5
:104D700002C065E070E0862F08958FE7089581E016
:104D800008958091290380FF08C06091120170E0AE
:104D9000759567957595679521C081FF06C06091EF
:104DA000120170E07595679519C082FF04C060918B
:104DB000120170E010C090912A039923C1F0609114
:104DC00011019617A0F780911201899FC00111244B
:104DD00070E00E9422336038710528F46115710576
:104DE00021F0862F08958FE7089581E0089561E00E
:104DF00070E0F4CF803F21F40E947826819504C0B2
:104E0000813F29F40E94782680932E030895823FE3
:104E100021F40E947826819504C0833F29F40E94E2
:104E2000782680932D030895893F19F40E94C126A6
:104E300005C08A3F31F40E94C126819580932F03DB
:104E400008958B3F21F40E94C126819504C08C3FB8
:104E500029F40E94C126809330030895843F21F4F1
:104E600080912C03816017C0853F21F480912C0331
:104E7000826011C0863F21F480912C0384600BC0B6
:104E8000873F21F480912C03886005C0883F31F46E
:104E900080912C03806180932C0308958D3F21F431
:104EA0008091290381600BC08E3F21F480912903FA
:104EB000826005C08F3F29F480912903846080932C
:104EC00029030895803F39F480912E0387FF6CC039
:104ED00010922E0369C0813F29F480912E03181689
:104EE000BCF362C090912D03823F29F497FF5CC010
:104EF00010922D0359C0833F19F41916CCF354C0F6
:104F0000893F41F480912F0318160CF04DC0109288
:104F10002F034AC08A3F29F480912F0387FF44C0A2
:104F2000F6CF8B3F39F48091300387FF3DC010925C
:104F300030033AC08C3F29F4809130031816BCF33B
:104F400033C0843F21F480912C038E7F17C0853FAE
:104F500021F480912C038D7F11C0863F21F4809134
:104F60002C038B7F0BC0873F21F480912C03877F1C
:104F700005C0883F31F480912C038F7E80932C03F1
:104F800013C08D3F21F4809129038E7F0BC08E3F8B
:104F900021F4809129038D7F05C08F3F29F48091F2
:104FA00029038B7F8093290380912D0381110EC0EB
:104FB00080912E0381110AC080912F03811106C0B8
:104FC00080913003811102C010922A0308958BE270
:104FD00093E00E9478170E94D12590932703809335
:104FE000260308951F93CF93DF938091260390911A
:104FF00027030E94DD25AC0190912A03992321F01B
:105000002091150130E006C0209128038AE0289FF6
:10501000900111244217530708F47BC080912D039F
:10502000C0912E03D0912F0310913003811107C03E
:10503000C1116BC0D11169C0111167C06AC09F3F17
:1050400019F09F5F90932A03181624F40E94782683
:1050500080932D0380912D0387FF05C00E94782641
:10506000819580932D031C1624F40E94782680934A
:105070002E0380912E0387FF05C00E94782681951C
:1050800080932E0330912D033323E1F020912E03E2
:105090002223C1F045EB3403C0011124892F990F5D
:1050A000990B009709F481E080932D0335EB2303DE
:1050B000C0011124892F990F990B009709F481E001
:1050C00080932E031D1624F40E94C12680932F0383
:1050D00080912F0387FF05C00E94C1268195809390
:1050E0002F03111624F40E94C1268093300380916F
:1050F000300387FF05C00E94C1268195809330034D
:10510000DF91CF911F910C94E7279F3F09F099CF32
:10511000A1CFDF91CF911F910895EBE2F3E086E0FC
:10512000DF011D928A95E9F710922A031092290354
:1051300008958091510308950F931F93CF93DF93A8
:1051400000D01F92CDB7DEB78C010E940C2B8230AD
:1051500011F0843021F584E089831B830A8382E087
:105160008093E9008FEF9091E800815095FD06C093
:1051700095ED9A95F1F700008111F5CF8091E80047
:1051800085FF0DC040E050E063E070E0CE01019685
:105190000E94292B8091E8008E778093E8000F9081
:1051A0000F900F90DF91CF911F910F910895CF93A2
:1051B000DF9300D01F92CDB7DEB72091A503243036
:1051C00031F523E02983805891099B838A8382E00B
:1051D0008093E9008FEF9091E800815095FD06C023
:1051E00095ED9A95F1F700008111F5CF8091E800D7
:1051F00085FF0DC040E050E063E070E0CE01019615
:105200000E94292B8091E8008E778093E8000F9010
:105210000F900F90DF91CF910895CF93DF93EC0122
:105220000E940C2B823011F08430F9F482E08093DC
:10523000E9009FEF8091E800915085FD06C085ED63
:105240008A95F1F700009111F5CF8091E80085FF74
:105250000CC040E050E066E070E0CE010E94292BD7
:105260008091E8008E778093E800DF91CF910895D8
:10527000CF93DF93EC010E940C2B823011F084302D
:10528000D9F580912001882339F080919F0387FF11
:1052900003C060E282E002C068E081E08093E90040
:1052A0008FEF9091E800815095FD06C095ED9A959D
:1052B000F1F700008111F5CF8091E80085FF1CC057
:1052C00080912001811105C040E050E068E070E06D
:1052D00003C070E040E050E0CE010E94292B809195
:1052E000E8008E778093E80080E2FE01A1E3B3E05E
:1052F00001900D928A95E1F7DF91CF910895809109
:10530000A403811109C00E94BE2C0E941B2D809114
:10531000E20084608093E20008951092A40308954F
:10532000089508950C94972542E061EC81E00E9475
:10533000382C42E261EC82E00C94382C8091A70377
:10534000833009F460C030F4813071F0823009F4A8
:1053500099C008958A3009F485C08B3009F46BC078
:10536000893009F0A7C020C08091A603813A09F0D6
:10537000A1C08091E800877F8093E8008091AA0314
:105380009091AB03892B21F460E281E393E003C0A9
:1053900060E080E090E070E00E94742B8091E80073
:1053A0008B778093E80008958091A603813209F0FD
:1053B00081C08091AA039091AB03029708F07AC054
:1053C0008091E800877F8093E8008091E80082FD6B
:1053D00005C08091A5038111F8CF6CC02091F30026
:1053E0008091F20090E0922B029729F48091F100D5
:1053F0008B7F813021F48091F10080935103809163
:10540000E8008B7753C08091A603813A09F052C01F
:105410008091AA039091AB03892B09F04BC0809136
:10542000E800877F8093E8008091E80080FFFCCF50
:105430008091200136C08091A6038132D9F58091F8
:10544000AA039091AB03892BA9F58091E800877F8F
:105450008093E8000E946D2C8091A8038093200126
:105460000C94961D8091A603813221F58091E8006D
:10547000877F8093E8000E946D2C8091A903809320
:10548000520308958091A603813AA1F48091E80027
:10549000877F8093E8008091E80080FFFCCF8091B7
:1054A00052038093F1008091E8008E778093E800AA
:1054B0000C946D2C089584B7877F84BF0FB6F89441
:1054C000A8958091600088618093600010926000D0
:1054D0000FBE80E880936100109261000E94BA17AD
:1054E0000E94BE2C0E941B2D8091E200846080935C
:1054F000E20078940E94AA2F0E94C01786E191E0F2
:105500000E944D178091A503853069F40E944F25B4
:105510008091A3038823B1F30E948025882391F30F
:105520000E94132BEFCF0E94C8170E944716EACFA4
:105530000C949A2A292F332723303105C9F064F4BB
:105540002130310581F02230310509F04CC08BE368
:1055500090E029E438E04BC02132310521F12232BC
:10556000310589F140C082E190E024E838E03FC095
:1055700099278130910571F02CF4892BA1F5E5E490
:10558000F8E00DC08230910541F0039761F5EFE03E
:10559000F8E005C0EDE2F8E002C0E5E1F8E0849152
:1055A00090E09F0124C06115710541F061307105E3
:1055B000D1F489E090E024E738E019C089E090E078
:1055C0002BE538E014C06115710541F061307105BB
:1055D00051F480EC90E026E938E009C080E490E0E6
:1055E00026E539E004C080E090E020E030E0FA01F8
:1055F0003183208308950895CF93C82F0E94FB2AFA
:10560000C0935303CF9108958091A503843011F086
:1056100081E0089582E0089580915303811102C0D2
:105620000C94042B089580E189BD82E189BD09B401
:1056300000FEFDCF8091D8008F7D8093D8008091AF
:10564000E00082608093E0008091E00081FDFCCF6B
:105650000895CF92DF92EF92FF920F931F93CF9313
:10566000DF93EC018B016A010E948C2C811133C005
:10567000C114D10439F0F60180819181081B190B06
:10568000C80FD91FE12CF12C0115110519F18091DA
:10569000E80085FD16C08091E8008E778093E800D1
:1056A000C114D10449F0F60180819181E80EF91E00
:1056B000F182E08285E00FC00E948C2C882321F3C8
:1056C0000AC089918093F10001501109FFEFEF1A90
:1056D000FF0ADACF80E0DF91CF911F910F91FF9009
:1056E000EF90DF90CF9008952091AC033091AD03FF
:1056F0002617370748F06115710539F42091E80045
:105700002E772093E80001C0B90140E061157105D2
:10571000A9F12091A503222309F443C0253009F4FF
:1057200042C02091E80023FD40C02091E80022FD06
:1057300032C02091E80020FFE9CF4091F300209192
:10574000F20030E0342BFC01CF016115710559F0F6
:105750002830310540F481918093F1006150710946
:105760002F5F3F4FF1CF41E02830310509F040E095
:105770002091E8002E772093E800C8CF4111C9CFCF
:105780000AC08091A503882361F0853061F0809183
:10579000E80083FD0AC08091E80082FFF2CF80E03C
:1057A000089582E0089583E0089581E008952091AE
:1057B000AC033091AD032617370748F0611571052A
:1057C00039F42091E8002E772093E80001C0B90158
:1057D000FC0120E06115710591F18091A5038823FA
:1057E00009F440C0853009F43FC08091E80083FD92
:1057F0003DC08091E80082FD2FC08091E80080FFCD
:10580000E9CF2091F3008091F20090E0922B611596
:10581000710559F08830910540F424912093F100EE
:105820003196615071090196F2CF21E0089709F095
:1058300020E08091E8008E778093E800CBCF2111A3
:10584000CCCF0AC08091A503882361F0853061F038
:105850008091E80083FD0AC08091E80082FFF2CFCA
:1058600080E0089582E0089583E0089581E008953E
:10587000982F973058F59093E900981739F0709168
:10588000EC002091ED005091F00003C0242F762F02
:1058900050E021FF19C03091EB003E7F3093EB00C8
:1058A0003091ED003D7F3093ED003091EB003160A1
:1058B0003093EB007093EC002093ED005093F000D8
:1058C0002091EE0027FF07C09F5FD3CF8F7080939A
:1058D000E90081E0089580E008958091A60387FFA4
:1058E00011C08091E80082FD05C08091A50381115F
:1058F000F8CF11C08091E8008B770BC08091A50391
:10590000882349F08091E80080FFF8CF8091E8007B
:105910008E778093E80008952091E4003091E500AF
:1059200095E64091EC00842F817040FF22C0809169
:10593000E80080FD1CC08091A503882391F085308C
:1059400091F08091EB0085FD10C04091E4005091F2
:10595000E5004217530729F39A01915011F784E0AB
:10596000089582E0089583E0089581E0089580E03D
:1059700008954091E80042FFDECF08950E942C2D4B
:105980000E94342DE0EEF0E0808181608083E8EDBC
:10599000F0E080818F77808319BCA7EDB0E08C9117
:1059A0008E7F8C9380818F7E80831092A4030895D4
:1059B0000F931F93CF93DF930E942C2D0E94342DC1
:1059C000C8EDD0E088818F7788838881806888835C
:1059D00088818F7D888319BC1092A5031092A10342
:1059E0001092A3031092A20300EE10E0F801808150
:1059F0008B7F808388818160888342E060E080E0E3
:105A00000E94382CE1EEF0E080818E7F8083E2EE10
:105A1000F0E0808181608083808188608083F801EC
:105A200080818E7F8083888180618883DF91CF91A0
:105A30001F910F910895E8EDF0E080818F7E8083C3
:105A4000E7EDF0E080818160808384E082BF81E0C7
:105A50008093A4030C94D82CE8EDF0E080818E7F35
:105A600080831092E20008951092DA001092E10013
:105A700008951F920F920FB60F9211242F933F9308
:105A80004F935F936F937F938F939F93AF93BF9346
:105A9000EF93FF938091E10082FF0BC08091E200C1
:105AA00082FF07C08091E1008B7F8093E1000E941C
:105AB000A92F8091DA0080FF1FC08091D80080FF5D
:105AC0001BC08091DA008E7F8093DA008091D9002C
:105AD00080FF0DC080E189BD82E189BD09B400FE6F
