:100000000C94FD030C941A040C941A040C941A0416
:100010000C941A040C941A040C941A040C941A04E8
:100020000C941A040C941A040C9407180C941616C9
:100030000C947D290C941A040C941A040C941A0440
:100040000C941A040C941A040C941A040C941A04B8
:100050000C941A040C94CB120C941A040C941A04E9
:100060000C941A040C941A040C941A040C941A0498
:100070000C941A040C941A040C941A040C941A0488
:100080000C941A040C941A040C941A040C941A0478
:100090000C941A040C941A040C941A040C941A0468
:1000A0000C941A040C941A040C941A040001010113
:1000B0000101010101010202020202020202020325
:1000C00003030303030303040404040404040505F5
:1000D00005050506060606060707070707080808B8
:1000E00008090909090A0A0A0B0B0B0C0C0C0D0D67
:1000F0000D0E0E0E0F0F0F101011111112121313FF
:100100001414151516161717181819191A1A1B1B77
:100110001C1D1D1E1E1F20202122222324242526D3
:1001200026272829292A2B2C2D2D2E2F303132320B
:10013000333435363738393A3B3C3D3E3F40414217
:10014000434445464748494A4C4D4E4F50515354FD
:10015000555658595A5B5D5E5F61626465666869B1
:100160006B6C6D6F7072737577787A7B7D7E808231
:10017000838587888A8C8E8F91939596989A9C9E7A
:10018000A0A2A3A5A7A9ABADAFB1B3B5B7BABCBE8A
:10019000C0C2C4C6C9CBCDCFD1D4D6D8DBDDDFE257
:1001A000E4E7E9EBEEF0F3F5F8FAFDFFFFAA7F557F
:1001B000402223252628292A2C2D2F30323335366C
:1001C000383A3B3D3E4042434547494A4C4E5051E8
:1001D000535557595A5C5E6062646668696B6D6F0F
:1001E00071737577797B7D7F81838587898A8C8E12
:1001F00090929496989A9C9E9FA1A3A5A7A8AAAC1A
:10020000AEAFB1B3B4B6B8B9BBBCBEBFC1C2C3C553
:10021000C6C7C9CACBCCCDCED0D1D2D2D3D4D5D6F5
:10022000D7D7D8D9D9DADADBDBDBDCDCDCDCDCDD28
:10023000DDDDDDDCDCDCDCDCDBDBDBDADAD9D9D80C
:10024000D7D7D6D5D4D3D2D2D1D0CECDCCCBCAC9A4
:10025000C7C6C5C3C2C1BFBEBCBBB9B8B6B4B3B1D3
:10026000AFAEACAAA8A7A5A3A19F9E9C9A9896946E
:1002700092908E8C8A89878583817F7D7B79777543
:1002800073716F6D6B6968666462605E5C5A595722
:10029000555351504E4C4A4947454342403E3D3BE1
:1002A0003A3836353332302F2D2C2A29282625236B
:1002B000222900356F0151E100310000001E0014B9
:1002C0000004671D614A4365001F001A0016001BE9
:1002D000644D002B0020000800070006684B000159
:1002E0005121001500090019624E00E60022001796
:1002F000000A0005000000AA00C25C490100004994
:10030000020000A900C55C4901000049020000127A
:100310005023001C000B0011000000A8002400184E
:10032000000D0010725100E60025000C000E003692
:100330007852002C41260012000F00376450002A2A
:100340000027001300336738714F0065004C0034FC
:100350006F2800E5003900000001000100010001E4
:1003600000640000003A0044002D00E0000100019C
:10037000003B0045002E00E200010001003C006847
:10038000002F00E300010001003D0069003000E1A2
:1003900000010001003E004A0000000100000001D1
:1003A0000001000100000001000000010001000147
:1003B0000000000100000001003F004D004A004D18
:1003C000000000010040004E005000E50001000167
:1003D00000410052005100E7000100010042004BC3
:1003E000004F00E20001000100430069006500E4E5
:1003F00000010001000100010001000100010000F6
:10040000002900E2000100E00001000000010001FD
:100410000004001D00010001000100010001001B9B
:100420000001002800010001000100060001002C6D
:100430000001000100010019000100480001000155
:100440000001000100000001000100010000002B7C
:100450000000000100010001000000010000001088
:100460005001000100010001000000010001000135
:10047000000100010050004800010001000100528D
:10048000005100010001000100010001004F0001C6
:10049000000100010001000100360001000100011F
:1004A000000100010001000000A50001005300014F
:1004B00000010000000C5D115DC65CE00001000160
:1004C000000D5D125DC55CE200AA0001000E5D1327
:1004D0005DCA5CE300A90001000F5D145DC95CE129
:1004E00000A8000100105D155D085D00000000011E
:1004F000000B5D01000000010000000100C35C0171
:10050000000000010000000100A8004700085D494C
:100510000000000100AA00FA00F200FB00F5000153
:1005200000A900F000F1000100F600F400A800F9B5
:1005300000F30001000100F400A8000000650001C4
:100540000001000100290001002800010001000055
:100550000000047F3F1F643214643214783C1E1E76
:10056000140A050A00000000000306B2000800019A
:10057000000000A800080002000200A00014000310
:100580000057494E55534200000000000000000093
:10059000008400040007002A00440065007600691A
:1005A000006300650049006E00740065007200661B
:1005B0000061006300650047005500490044007376
:1005C00000000050007B0039004400420037004624
:1005D000003100460044002D00370045003700413F
:1005E000002D0034003000300038002D0039003379
:1005F00000360042002D0036004200410036004324
:100600000031003900410033003000380063007DC4
:1006100000000000001B0301636F6E66696775725E
:10062000652E6572676F646F782D657A2E636F6DC6
:100630000005010902A10185020901A100050919AE
:1006400001290515002501950575018102950175A2
:100650000381010501093009311581257F95027556
:1006600008810609381581257F95017508810605E1
:100670000C0A38021581257F950175088106C0C0D6
:1006800005010980A10185031A81002A8300160152
:1006900000260300950175108100C0050C0901A119
:1006A0000185041A01002A9C02160100269C02956D
:1006B0000175108100C005010906A1018505050726
:1006C00019E029E715002501950875018102050744
:1006D000190029EF1500250195F075018102050823
:1006E000190129059505750191029501750391017F
:1006F000C005010906A101050719E029E715002534
:100700000195087501810295017508810105071998
:100710000029FF150026FF009506750881000508D1
:10072000190129059505750191029501750391013E
:10073000C009025200030100A0FA090400000103ED
:100740000101000921110100012240000705810378
:1007500008000A0904010001030000000921110139
:10076000000122C0000705820320000A09040200DC
:1007700002FF00000007058303400005070504038E
:100780004000051201100200000008EDFE071301F1
:10079000000102030104033000000016034500724B
:1007A0000067006F0064006F007800200045005A69
:1007B00000000008035A0053004100000004030930
:1007C00004050F3900021C100500DF60DDD88945E3
:1007D000C74C9CD2659D9E648A9F00000306B200B0
:1007E00045001810050038B60834A909A0478BFD4C
:1007F000A0768815B6650001420011241FBECFEF18
:10080000DAE0DEBFCDBF12E0A0E0B1E0E4EEF8E553
:1008100002C005900D92AA32B107D9F723E0AAE2EF
:10082000B2E001C01D92A73BB207E1F70E94752517
:100830000C94252C0C940000E8EDF0E080818E7F74
:1008400080831092E2001092DA001092E100A0EE94
:10085000B0E08C9181608C9380818F77808319BC0C
:10086000A7EDB0E08C918E7F8C9380818F7E80830A
:100870001092820308952091E4003091E50095E6FE
:10088000A9012091EC00822F817020FF06C0809189
:10089000E80080FF06C080E008952091E80022FD76
:1008A0001AC08091A903882389F0853089F080914E
:1008B000EB0085FD0FC02091E4003091E500421768
:1008C0005307F9F29150E1F684E0089582E008952B
:1008D00083E0089581E00895EF92FF920F931F93B4
:1008E000CF937C018B010E943B04C82F882371F0B9
:1008F0008C2FCF911F910F91FF90EF900895F701EA
:1009000081917F018093F1000150110901151105BA
:1009100079F38091E80085FDF2CF8091E8008E7731
:100920008093E8000E943B04882381F3C82FE0CF26
:100930008091AB0387FF13C08091E80082FF06C05F
:100940008091E8008B778093E80004C08091A90330
:100950008111F2CF08958091A9038823D9F3809162
:10096000E80080FFF8CF8091E8008E77ECCF982FD9
:100970009093E900242F762F50E0891731F0709181
:10098000EC002091ED005091F00021FD07C09F5F29
:10099000973071F78093E90081E008953091EB0082
:1009A0003E7F3093EB003091ED003D7F3093ED00C2
:1009B0003091EB0031603093EB007093EC002093AA
:1009C000ED005093F0002091EE0027FDE0CF80E095
:1009D0000895CF92DF92EF92FF920F931F93CF93E0
:1009E000DF93C8EDD0E088818F7E8883E7EDF0E06B
:1009F00080818160808384E082BF81E08093820374
:100A000088818E7F888302EE10E0F80110821092B8
:100A1000DA0081EEC82ED12CF601108288818F7702
:100A2000888388818068888388818F7D888319BCCA
:100A30001092A9031092AA031092A8031092A70380
:100A400090EEE92EF12CF70180818B7F80838881E5
:100A50008160888342E060E080E00E94B704F60194
:100A600080818E7F8083F801808181608083808196
:100A700088608083F70180818E7F80838881806198
:100A80008883DF91CF911F910F91FF90EF90DF90BE
:100A9000CF900895FC018091B1039091B203861725
:100AA0009707A0F06115710529F48091E8008E7711
:100AB0008093E80090E06115710551F4911108C030
:100AC0008091E80082FF35C080E00895BC01F2CF3C
:100AD0008091A9038823C9F18530C9F18091E8008C
:100AE00083FD31C08091E80082FDEACF8091E8006B
:100AF00080FFE1CF8091F3002091F200382F611543
:100B0000710519F02830310558F091E02830310591
:100B100009F090E08091E8008E778093E800CBCFD9
:100B200084918093F1003196615071092F5F3F4F9E
:100B3000E6CF8091A903882341F0853041F0809170
:100B4000E80083FFBDCF81E0089582E0089583E04F
:100B50000895FC018091B1039091B2038617970725
:100B6000A0F06115710529F49091E8009E779093AB
:100B7000E80090E06115710551F4911108C0809171
:100B8000E80082FF34C080E00895BC01F2CF80917C
:100B9000A9038823C1F18530C1F18091E80083FD6C
:100BA00030C08091E80082FDEACF8091E80080FFAC
:100BB000E1CF8091F3002091F200382F611571058B
:100BC00019F02830310558F091E02830310509F04E
:100BD00090E02091E8002E772093E800CBCF819120
:100BE0008093F100615071092F5F3F4FE7CF8091F3
:100BF000A903882341F0853041F08091E80083FF0C
:100C0000BECF81E0089582E0089583E00895809149
:100C1000A903843011F482E0089581E008950895D5
:100C20008091860308952091A903243099F423E04C
:100C30002093E90070E050E040E00E946C048823BB
:100C400021F010928003109281038091E8008E774A
:100C50008093E800089590916403803F41F480916F
:100C6000650387FD10926503992371F00895813F14
:100C700029F4809165031816ACF3F6CF823F81F416
:100C800097FFF2CF10926403809165039091660301
:100C9000892B90916703892B49F710926803089577
:100CA000833F19F4191674F3DFCF893F39F480912B
:100CB00066031816CCF610926603D6CF8A3F29F445
:100CC0008091660387FFD0CFF6CF8B3F39F48091B8
:100CD000670387FFC9CF10926703C6CF8C3F29F403
:100CE000809167031816BCF3BFCF843F31F4809125
:100CF00063038E7F80936303B7CF853F21F4809198
:100D000063038D7FF7CF863F21F4809163038B7F50
:100D1000F1CF873F21F480916303877FEBCF883F3A
:100D200021F4809163038F7EE5CF8D3F31F4809174
:100D300028038E7F8093280397CF8E3F21F48091E4
:100D400028038D7FF7CF8F3F09F08ECF8091280346
:100D50008B7FF0CF8091280380FD1AC081FD14C0E5
:100D600082FD14C080916803882391F0803570F46F
:100D700025E0829FC001112460E570E00E947F2A77
:100D8000862F672B29F0089582E0089585E0089565
:100D900081E008958091280380FD14C081FD14C076
:100DA00082FD16C080916803882381F0843180F42D
:100DB00023E2829FC001112464E170E00E947F2A37
:100DC000862F089588E0089581E1089585E00895CB
:100DD00083E20895803F31F40E94CA068195809392
:100DE00065030895813F19F40E94CA06F8CF823F37
:100DF00031F40E94CA068195809364030895833F6D
:100E000019F40E94CA06F8CF893F29F40E94AA0665
:100E10008093660308958A3F21F40E94AA06819573
:100E2000F7CF8B3F31F40E94AA0681958093670328
:100E300008958C3F19F40E94AA06F8CF843F31F43C
:100E4000809163038160809363030895853F21F45B
:100E5000809163038260F7CF863F21F48091630322
:100E60008460F1CF873F21F4809163038860EBCFEA
:100E7000883F21F4809163038061E5CF8D3F31F499
:100E80008091280381608093280308958E3F21F488
:100E9000809128038260F7CF8F3FB9F780912803B4
:100EA0008460F1CFCF92DF92EF92FF920F931F9366
:100EB0002FB7F894409124035091250360912603A5
:100EC000709127032FBF6A017B01EE24FF248C0160
:100ED00030E020E0C016D106E206F30650F0481BD1
:100EE000590BCA011F910F91FF90EF90DF90CF90A7
:100EF000089541505109F3CFCF92DF92EF92FF92C4
:100F00006C01EE24FF2420E0C114D104E104F104BB
:100F100019F0C701B60120E1C72ED82EE92EFF2413
:100F2000C114D104E104F10419F0285FC701B6012E
:100F30006B017C0154E0F694E794D794C7945A95DA
:100F4000D1F7C114D104E104F10419F02C5FC701F9
:100F5000B6016B017C0142E0F694E794D794C79404
:100F60004A95D1F7C114D104E104F10419F02E5FC0
:100F7000C701B6019695879577956795672B682B7E
:100F8000692B09F02F5F822FFF90EF90DF90CF90B9
:100F9000089580911F03811110921F03089580917D
:100FA0001E0390911D03892B90911C03892B809324
:100FB0002A0290911F039923A1F0892B80932A0282
:100FC00080911F01882341F18091410387FF24C054
:100FD0008EE1ECE2F2E090E0815000F591110E9488
:100FE000C907E0914403F09145033097E1F0809107
:100FF0001F01882359F08091410387FF07C080912A
:101000002A0280932B0285E080932A020280F381DA
:10101000E02D8AE292E0099486E0DBCF2191222341
:10102000D9F29F5FD9CF089590911F019923D1F0F4
:101030009091410397FF16C0E82FE695E695E69557
:10104000EE31E0F4F0E0E65DFD4F282F277081E0FF
:1010500090E001C0880F2A95EAF780959281892354
:1010600082830895ECE2F2E09191891303C0DF01DD
:1010700011971C9292E0E233F907B1F7089590912D
:101080001F019923C1F09091410397FF14C0E82FED
:10109000E695E695E695EE31F8F4F0E0E65DFD4F75
:1010A000877021E030E001C0220F8A95EAF7828143
:1010B000822B82830895ACE2B2E0EFEF90E02D91B5
:1010C000821751F0EF3F19F4211101C0E92F9F5F02
:1010D0009630A9F7EF3F09F408950E2E000CFF0B90
:1010E000E65DFD4FE6CFE92FEE0FE90FEE0F8E0F15
:1010F000982F977086958695869525E0829FF001BA
:101100001124EC51FD4F50E040E080E0219130E0AF
:10111000092E02C0369527950A94E2F721703327ED
:10112000042E01C0220F0A94EAF7822B4F5F5F4F13
:101130004530510559F70895E92FEE0FE90FEE0FED
:101140008E0F982F977041E001C0440F9A95EAF7EF
:1011500086958695869595E0899FF0011124EC513E
:10116000FD4F30E020E070E05191DF011197CB019D
:10117000022E02C0969587950A94E2F781708195B8
:101180008527842385278C932F5F3F4F253031059A
:1011900059F708958091E3029091B202981301C02B
:1011A00008958F5F8770FACF882341F080959091E2
:1011B0001D03892380931D030C94CF070895882372
:1011C00039F090911D03982B90931D030C94CF0739
:1011D0000895882341F0809590911E038923809380
:1011E0001E030C94CF070895882339F090911E03B5
:1011F000982B90931E030C94CF070895209194028E
:10120000309195022817390771F0909395028093D9
:101210009402E0914403F0914503309721F000845B
:10122000F185E02D09940895209192023091930266
:101230002817390771F09093930280939202E091FE
:101240004403F0914503309721F00680F781E02DAB
:1012500009940895E0914403F0914503309721F0FB
:101260000190F081E02D099480E00895FA01811148
:1012700001C0FB01099480915B03982F9E7F29F4A4
:101280008170826080935B0308958A34E8F38170F3
:101290008864F8CFAF92BF92DF92EF92FF920F93E4
:1012A0001F93CF93DF93082F162FE901E42FF0E06F
:1012B000E455FF4F611111C0E4915E2F4E2F498319
:1012C000E8835A831B82DF91CF911F910F91FF908A
:1012D000EF90DF90BF90AF900895E62EF12C4491EF
:1012E000D42EE42FF0E026E0829FC00111242FEFDE
:1012F00030E0B9010E946B2A802F90E0880F991F7F
:1013000055E5569FD001579FB00D11248A1B9B0BAA
:10131000982F990F890F5901AE18BF08AE9ED001C2
:10132000AF9EB00DBE9EB00D11245B2F189F8001A3
:101330001124012F11275901A01AB10AAE9E800174
:10134000AF9E100DBE9E100D11245901A81AB108B0
:10135000AE9CC001AF9C900DBE9C900D1124892FB6
:101360009927281B390B2E9FC0012F9F900D3E9F60
:10137000900D1124E92F62307105A1F050F4611530
:10138000710509F49CCF6130710581F0EB2F512F6D
:1013900096CF6430710569F080F06630710509F40C
:1013A0008ECFF4CFE42F4B2F592F89CFE42F412F2D
:1013B00086CFEB2F542F492F82CF4B2F5D2DE12F5E
:1013C0007ECF9091410392FF06C0282F28712830CC
:1013D000F9F4877F846093FF06C0282F2871283195
:1013E000F1F4877E84612091420320FF06C0382FEC
:1013F00038713830D9F4877F816021FF06C0282FEB
:1014000028712831D1F4877E816194FD877E08950B
:10141000282F24712430F9F68B7F8860DCCF282FA9
:101420002471243101F78B7E8861DDCF382F317133
:10143000313019F78E7F8860E0CF282F217121315C
:1014400021F78E7E8861E1CFCF93DF93972F70E0F5
:1014500026E0929F600D711D1124FB0134E5839FEE
:10146000E00DF11D1124EE0FFF1FEF54FD4FC5914C
:10147000D491CE01C238D105B9F1E8F5C133D10517
:1014800009F499C050F5C932D10509F48DC0CA32AA
:10149000D10509F497C0C11542E5D40708F0C4C0CE
:1014A000C11521E5D20708F038C1C83ED10508F0C2
:1014B0009DC0C03ED10568F5C83AD10508F089C085
:1014C000C53AD10508F005C1C130D10511F1209709
:1014D00009F443C02497E8F440C0C533D10509F4AA
:1014E0005CC0C933D105B9F620914103237089F05E
:1014F00080EE90E00EC0C33ED10591F168F4C03E8D
:10150000D105F9F0C23ED10531F62091410322FD0B
:1015100020C0DF91CF910895C63ED10561F1C73E4D
:10152000D10581F1C43ED10509F0B5CF2091420328
:1015300021FFEFCF8091410384FD0FC087EE90E043
:10154000E8CF2091410320FD19C13091420330FFC3
:10155000E0CF83EE90E024FFDCCF90E080E0D9CFB5
:101560002091410322FD0DC13091420330FDC0CFD7
:1015700024FFCFCFF2CF2091410323FFCACF24FD18
:10158000ECCFDCCF2091410323FDFEC0309142031C
:1015900031FFEECF84EE90E0BCCF2091410325FFD8
:1015A000B8CF89E290E0B5CF2091410325FFB1CFBC
:1015B00085E390E0AECF2091410326FFAACF8AE2D7
:1015C00090E0A7CF2091410326FFA3CF81E390E0D5
:1015D000A0CFCF3BD10508F6C85AD0E0CC0FDD1F15
:1015E000C450DE4F88819981946493CFC11530E255
:1015F000D30760F4C11541E0D40708F08ACFCE01CB
:101600009065C03FD10508F084CFA7CFC11580E415
:10161000D80708F4A2CFC11590E5D90708F061C03A
:10162000CE019F70906A75CFC11526E5D20718F5D7
:10163000C11535E5D30708F086C0C11544E5D407C8
:1016400008F07CC09C2F96959695AE014370552767
:10165000C115D34508F466C021E030E002C0220F76
:10166000331F4A95E2F740E2949FC0011124822B78
:10167000932B9A684ECFC1159AE5D90778F4C11516
:1016800029E5D20708F069C0C11538E5D30708F489
:1016900064CF9C2F8827806F906A3BCFC1154BE5A4
:1016A000D40708F45ACFC1158CE5D80708F462C0F6
:1016B000CE0190568115904208F04FCF8D2F8F713B
:1016C0000E94E10990E0982F882788279F718C2B32
:1016D00042C0C55AD0E0C750DE4F888190E0906488
:1016E00018CF9E01E4E036952795EA95E1F723703F
:1016F0008C2F86958695837030E2839FC0011124DC
:10170000922BC37021E030E002C0220F331FCA9534
:10171000E2F7822B932B9C68FCCE9C2F8827816F4D
:10172000906AF7CE21E030E002C0220F331F4A95C5
:10173000E2F740E2949FC0011124EBCF9C2F882751
:10174000846F906AE6CE8C2F0E94E10990E0982F7A
:10175000882788279F719062DCCE8C2F8F700E9423
:10176000E10934E0D695C7953A95E1F7CF709C2F03
:101770009069CFCECE0199279066CBCE89E390E0D9
:10178000C8CE82EE90E0C5CE86EE90E0C2CEBF928B
:10179000CF92DF92EF92FF920F931F93CF93DF933D
:1017A0008C01C0907B03D0907C03E0907D03F0908F
:1017B0007E038091200390912103A0912203B09198
:1017C0002303C82AD92AEA2AFB2ACFE1D0E0BC2E7B
:1017D000D701C6010C2E04C0B695A795979587959D
:1017E0000A94D2F780FD0EC0219788F7B12C8B2D7B
:1017F000DF91CF911F910F91FF90EF90DF90CF90ED
:10180000BF900895B8018C2F0E94240A019761F3BC
:10181000EECFCF93DF93EC010E94C70BBE01DF91A7
:10182000CF910C94240A0E94090C292F2F709295B5
:101830009F7092509E3078F4E92FF0E0E95DF34D0F
:101840000C94932A803F19F020F4883E20F481E024
:101850000895843FE1F380E00895883EC0F3813F1E
:10186000D1F7F5CF822F869586958695089527988E
:101870002F98089526982E98089525982D980895C4
:1018800056985E980895279A2F9A0895269A2E9A28
:101890000895259A2D9A089584B1807F84B985B1E1
:1018A000807F85B98AB1837F8AB98BB1837F8BB9F9
:1018B0003E984698089580B38C7080BB81B3836F47
:1018C00081BB0895CF93DF9300D00F92CDB7DEB7E1
:1018D0009091A903943019F589837B836A8382E010
:1018E0008093E9008FEF9091E800815095FD06C04C
:1018F00095ED9A95F1F700008111F5CF8091E80000
:1019000085FF0DC050E040E063E070E0CE0101963D
:101910000E946C048091E8008E778093E8000F901D
:101920000F900F90DF91CF910895CF93DF93EC014B
:101930000E940706823011F0843031F4BE0184E049
:10194000DF91CF910C94620CDF91CF910895BC018F
:101950006058710983E00C94620CCF93DF93EC0123
:101960000E940706823011F08430F9F482E08093FF
:10197000E9008FEF9091E800815095FD06C095ED4C
:101980009A95F1F700008111F5CF8091E80085FF6D
:101990000CC050E040E066E070E0CE010E946C04B4
:1019A0008091E8008E778093E800DF91CF910895D1
:1019B000CF93DF93EC010E940706823011F0843050
:1019C000B9F580911F018823B1F18091410387FF10
:1019D00032C060E282E08093E9008FEF9091E800EE
:1019E000815095FD06C095ED9A95F1F700008111A3
:1019F000F5CF8091E80085FF1BC080911F0170E04A
:101A000050E040E0811104C050E040E068E070E048
:101A1000CE010E946C048091E8008E778093E800EC
:101A200080E2FE01A7E8B3E001900D928A95E1F70C
:101A3000DF91CF91089568E081E0CDCFEF92FF92E2
:101A40000F931F93CF93DF930E94400C0E943D0C95
:101A50000E943A0C0E94370C88E8E82EF12C8FEF98
:101A600090E0F701918380830AE810E0F801918308
:101A70008083CCE8D0E0998388830E94490CFFEFF3
:101A800020E782E0F15020408040E1F700C00000F4
:101A90000E94460C9FEFE0E7F2E09150E040F040FA
:101AA000E1F700C000000E94430C2FEF80E792E0B6
:101AB000215080409040E1F700C000000E943D0CA2
:101AC000EFEFF0E722E0E150F0402040E1F700C006
:101AD00000000E943A0C8FEF90E7E2E081509040C6
:101AE000E040E1F700C000000E94370C80912F0316
:101AF0008770FFEF8F9FC00111249595879595956D
:101B000087959927F70191838083F80191838083DA
:101B1000998388830E94400C0E943D0C0E943A0CDD
:101B2000DF91CF911F910F91FF90EF900C94370CA4
:101B3000CF9384E090E00E94A52AC82F81E290E034
:101B40000E94A52A982F8C2FCF91089560912B0386
:101B50008CE090E00C94B92ACF92DF92EF92FF9242
:101B60006B017C010E943B09B701A60188E090E06F
:101B7000FF90EF90DF90CF900C94CB2A80915F0381
:101B8000833018F48F5F80935F0360915B037091E3
:101B90005C0380915D0390915E030C94AC0D809189
:101BA0005F03882319F0815080935F0360915B038A
:101BB00070915C0380915D0390915E030C94AC0D79
:101BC000EBE5F3E083E0808311828FEF82838383F0
:101BD000148260817181828193810C94AC0D6FEECF
:101BE0007EEF90E080E00E94D72A60E082E090E003
:101BF0000E94B92A60E083E090E00E94B92A109226
:101C0000200310922103109222031092230360E01C
:101C100084E090E00E94B92A60E081E290E00E94B6
:101C2000B92A60E085E090E00E94B92A60E086E091
:101C300090E00E94B92A6FEF87E090E00E94B92AF5
:101C400040E050E0BA0188E090E00E94CB2A60E0DA
:101C50008DE090E00E94B92A40E050E0BA0188E1AE
:101C600090E00E94CB2A60E087E190E00E94B92AD0
:101C700040E050E0BA018CE190E00E94CB2A60E0A5
:101C800080E290E00E94B92A10922F031092300354
:101C9000109231031092320384E0806180932F030D
:101CA00040912F03509130036091310370913203C2
:101CB0008FE090E00E94CB2A40E050E0BA0183E13F
:101CC00090E00C94CB2ACF93C82F873070F5809189
:101CD000130190911401892B89F564E670E080E48A
:101CE0000E94AA299093140180931301892BD1F4A7
:101CF00064E670E082E10E94062A909314018093CA
:101D00001301892B79F481E090E001C0880FCA9516
:101D1000EAF764E670E080950E94062A9093140129
:101D200080931301CF910C94592A8A30B9F040F472
:101D3000883071F0893079F0209A2898CF910895F1
:101D40008C3091F070F08D30B9F73E9A4698F6CF0E
:101D5000219A2998F3CF229A2A98F0CF239A2B9888
:101D6000EDCF529A5A98EACF539A5B98E7CF80E228
:101D700090E090931401809313018091500281119F
:101D80000EC00E94A42981E0809350022FEF83EDC2
:101D900090E3215080409040E1F700C0000064E6ED
:101DA00070E080E40E94AA299093140180931301AB
:101DB000892B09F04EC064E670E080E00E94062A9C
:101DC0009093140180931301892B09F042C064E6BB
:101DD00070E080E00E94062A909314018093130122
:101DE000892BB9F564E670E08FE30E94062A909390
:101DF000140180931301892B61F50E94592A64E62E
:101E000070E080E40E94AA2990931401809313014A
:101E1000892BF9F464E670E08CE00E94062A909326
:101E2000140180931301892BA1F464E670E080E033
:101E30000E94062A9093140180931301892B49F480
:101E400064E670E08FE30E94062A90931401809369
:101E500013010E94592A809113010895CF93DF93B3
:101E600080915B0380FD0BC0E4E5F2E011821082FB
:101E700012821382349652E0E039F507B9F7C4E5CF
:101E8000D2E0FE01928120813181892F291708F447
:101E9000822F381708F4832F8383381B3183281B44
:101EA0002083981B9283349682E0E039F80751F73B
:101EB0000E94A42964E670E084E80E94AA2964E6EE
:101EC00070E088810E94062A64E670E089810E94A1
:101ED000062A64E670E08A810E94062A64E670E0C1
:101EE0008B810E94062A249692E0C039D90739F7DF
:101EF0000E94592A579A3BB13F772BB120684FB7C0
:101F0000F89484E592E0FC015191CF0168E02BB98F
:101F1000000000C057FF3BB9550F000000C000C0D3
:101F200000C03BB900C06A9591F7F2E080399F0785
:101F300051F74FBF8FE391E00197F1F700C0000028
:101F4000DF91CF910895EF92FF920F931F93CF935C
:101F5000DF938C01C4E5D2E0F12CE12CF8019481EF
:101F600060915D0380915C03F7E0EF16F104FCF4EF
:101F70009923F9F09E0140915E030E944A092FEFD8
:101F8000E21AF20A24968FE0E816F10439F70E946B
:101F90002E0FF801848190E0019681709927848347
:101FA000DF91CF911F910F91FF90EF9008959923AA
:101FB00009F39E0140E0E1CFEF92FF921F93CF9390
:101FC000DF93EC0184E5E82E82E0F82E10E08C81AE
:101FD000970140915E0360915D03810F0E944A0961
:101FE0001F5E84E0E80EF11C1F3F89F70E942E0F50
:101FF0009A818C8190FF08C08F5F8C83DF91CF9195
:102000001F91FF90EF9008958150F7CFBF92CF922C
:10201000DF92EF92FF920F931F93CF93DF93FC0118
:102020008281DD24DA9480FD02C0DD24D39404E5AE
:1020300012E0D0E0C0E02FE0B22EF8011182108251
:102040001282138294E0E92EF12CC12C809151026E
:102050008C0D80310CF43DC06B2D0E945D2A892FC0
:10206000082E000C990B8C179D0791F480915E034C
:102070008E9DA0018F9D500D112455954795559526
:102080004795980160915D0380915C030E944A0925
:10209000CD0CF1E0EF1AF108C9F621960C5F1F4F45
:1020A000CF30D10551F60E942E0F8091510291E060
:1020B000D91215C0811111C08EE080935102DF91B9
:1020C000CF911F910F91FF90EF90DF90CF90BF9035
:1020D000089587FFC5CF815FC3CF8150EECF90E0D9
:1020E0000196BE010E947F2AE8CF0F931F93CF93E2
:1020F000DF93C4E5D2E0FE011182108212821382C6
:10210000349682E0E039F807B9F710E000E08091FA
:102110005202082E000C990B081719078CF18091B8
:102120001201082E000C990B801791074CF19E01AB
:1021300040915E0360915D0380915C030E944A09B7
:102140000F5F1F4F24960F30110509F70E942E0FC5
:102150008091110190915202980F90935202209118
:102160001201280F20931201121614F49E301CF055
:10217000819580931101DF91CF911F910F91089567
:10218000198218821A821B82DBCFEF92FF920F9383
:102190001F93CF93DF93EC018C819D810196817019
:1021A00099279D838C8384E5E82E82E0F82E10E049
:1021B00005E5812F86952C813D81820F932F911DFE
:1021C0008170970140915E0360915D03809F802D37
:1021D00011240E944A091F5F84E0E80EF11C1F30A1
:1021E00041F7DF91CF911F910F91FF90EF900C94E9
:1021F0002E0F90915B0390FF0DC0E4E5F2E0818328
:10220000608342831382349692E0E039F907B9F78C
:102210000C942E0F08950F931F93CF93DF9300D04C
:1022200000D0CDB7DEB78C018091530281110AC076
:102230009E012F5F3F4F4FEF6FEF0E944A098A8147
:1022400080935302F8016481613069F080915302F8
:1022500040E0662361F040E0623011F440915302A7
:1022600080E060E004C06091530240E080E00E94A2
:10227000F910F801848190E0019663E070E00E941B
:102280007F2A84830F900F900F900F90DF91CF9152
:102290001F910F910895CF93DF9300D000D0CDB759
:1022A000DEB790915B0390FF0AC09E012F5F3F4F06
:1022B0000E944A094B8169818A810E94F9100F901E
:1022C0000F900F900F90DF91CF910895CF93DF93F0
:1022D000EC01EC81F0E0EF54FE4F4491EBE5F3E0CC
:1022E000628181810E944B118C818F5F8C83DF9191
:1022F000CF910895CF93DF93EC01EBE5F3E04381B9
:1023000062818C810E944B118C818F5F8C83DF9165
:10231000CF9108955F926F927F928F929F92AF922A
:10232000BF92CF92DF92EF92FF920F931F93CF93C2
:10233000DF9300D000D0CDB7DEB7182F762E042F54
:10234000622E90915B0390FF29C0E92FE695AE2F96
:10235000B0E0A45DBE4F8C91809360039E7F92306D
:1023600089F59E012F5F3F4F812F0E944A094B81C3
:1023700069818A810E94F91010935C0370925D0359
:1023800000935E03662051F060915B0370915C03E3
:1023900080915D0390915E030E94AC0D0F900F90B1
:1023A0000F900F90DF91CF911F910F91FF90EF90C1
:1023B000DF90CF90BF90AF909F908F907F906F9065
:1023C0005F900895823019F400915E03D5CF863076
:1023D00019F410915C03D0CF8930D9F3893161F6BB
:1023E000E9518E2F8170582EE695F0E0E455FE4FAE
:1023F000A590B490BB2484E5E82E82E0F82ED12C81
:10240000C12C9FE0892E912CC601B4010E946B2A39
:10241000812F511013C0860F9701402F672D0E9406
:102420004A09CA0CDB1C84E0E80EF11C80E9E816BE
:1024300082E0F80649F70E942E0F9ECF861BECCF54
:1024400021E00C948A11EBE5F3E043812CE0421B80
:1024500008F440E021E0628181810C948A11EBE56F
:10246000F3E043812CE0420F08F44FEF21E062815A
:1024700081810C948A11EBE5F3E062812FEF621BFE
:1024800008F460E021E0438181810C948A11EBE53E
:10249000F3E062812FEF620F08F46FEF21E04381D8
:1024A00081810C948A11EBE5F3E0818121E0438185
:1024B00062818C500C948A11EBE5F3E0818121E07C
:1024C00043816281845F0C948A11EBE5F3E08081A3
:1024D0008E7F808360817181828193810E94AC0DA7
:1024E000109261032FEF80E792E0215080409040EE
:1024F000E1F700C000000C942E0FCF93873008F056
:1025000040C08091130190911401C0E0892B71F4B7
:1025100064E670E080E40E94AA29909314018093FD
:102520001301892B31F0C0E00E94592A8C2FCF91E2
:10253000089564E670E083E10E94062A90931401F6
:1025400080931301892B79F764E670E081E40E949F
:10255000AA299093140180931301892B21F784E613
:1025600090E00E94352A97FF05C090931401809354
:102570001301D9CFC82FC0951092140110921301E6
:10258000D3CFCFB18FB1869586958C73C3708C2BCA
:10259000C82FC095CBCF78941F921FB61F921124DD
:1025A0008F939F93AF93BF938091240390912503C2
:1025B000A0912603B09127030196A11DB11D809320
:1025C000240390932503A0932603B0932703BF9180
:1025D000AF919F918F911F901FBE1F9018952FB79D
:1025E000F8948091240390912503A0912603B09143
:1025F00027032FBF0895E0914403F09145033097DE
:1026000049F082E0809362030480F581E02D82E648
:1026100093E009950E94EF1290936A0380936903F7
:10262000089510921D0310921C030E94CF0786E0AC
:10263000E2E6F3E0DF011D928A95E9F71092680364
:10264000109228030E94FB1290E080E00E9414097F
:1026500090E080E00C94FE086093200370932103C7
:1026600080932203909323030C94111310921E0362
:1026700080911F01ECE2F2E0882359F08091410340
:1026800087FF07C08EE1DF011D928A95E9F70C9460
:10269000111386E0F8CF1F93CF93DF93CDB7DEB74A
:1026A000AA970FB6F894DEBF0FBECDBF8BEA93E0BA
:1026B0002091F100FC012193CF01F3E0833B9F07C0
:1026C000B9F78091AC03893009F444C018F5823021
:1026D00009F4B7C0833009F46CC0813031F58091C2
:1026E000AB03813A11F58091E800877F8093E80081
:1026F0008091AF039091B003892B41F560E287E8A8
:1027000093E070E00E94A9058091E8008B778093A8
:10271000E8000BC08B3009F469C008F481C0823432
:1027200009F4A0C0853409F4BAC08091E80083FFA1
:1027300065C28091AB039091AC039A3008F05EC201
:10274000E92FF0E0EB5CF34D0C94932A60E090E00D
:1027500080E0D7CF8091AB03813239F78091AF030E
:102760009091B003029708F78091E800877F8093EB
:10277000E8008091E80082FF17C09091F3008091FB
:10278000F200029729F48091F1008B7F813021F4CF
:102790008091F100809386038091E8008B7780938D
:1027A000E8000E949804C1CF8091A9038111E1CF74
:1027B000BCCF8091AB03813A09F0B7CF8091AF03D2
:1027C0009091B003892B09F0B0CF8091E800877F0A
:1027D0008093E8008091E80080FFFCCF80911F018A
:1027E0008093F1008091E8008E77D9CF8091AB0380
:1027F000813209F09ACF8091AF039091B003892B79
:1028000009F093CF8091E800877F8093E8000E94D1
:1028100098048091AD0380931F010E94361385CFE9
:102820008091AB03813209F080CF8091E800877FEF
:102830008093E8000E9498048091AE038093850302
:1028400074CF8091AB03813A09F06FCF8091E8009B
:10285000877F8093E8008091E80080FFFCCF809123
:102860008503BECF8091AB03803C09F05ECF8091A1
:10287000AF039091B003029739F58091AD03909129
:10288000AE03892B09F58091E800877F8093E800EB
:102890006BE170E085E196E00E944A0582CF80916D
:1028A000AB03803C09F041CF8091AF039091B0031E
:1028B000079751F48091E800877F8093E80062EBEE
:1028C00070E083E695E0E8CF8091EB008062809332
:1028D000EB002BCF803899F0823809F08FC18091BE
:1028E000AF038F70873008F089C18093E900809131
:1028F000EB0085FB882780F91092E90006C08091E3
:10290000A7039091A803911182609091E800977FAE
:102910009093E8008093F1001092F1008091E8001C
:102920008E7768C1882309F456C1823009F066C1E8
:102930008091AD03811159C18091AF038F702FEF4A
:10294000280F263008F05AC18093E9002091EB004F
:1029500020FF4BC1933031F48091EB008062809373
:10296000EB0043C19091EB0090619093EB0021E06C
:1029700030E001C0220F8A95EAF72093EA00109216
:10298000EA008091EB008860EACF811137C1109195
:10299000AD031F778091E3008078812B8093E30063
:1029A0008091E800877F8093E8000E9498048091DE
:1029B000E80080FFFCCF8091E30080688093E30013
:1029C00082E0111183E08093A90318C180588230FE
:1029D00008F014C18091AD039091AE038C3D23E0CB
:1029E0009207A1F583E08A838AE289834FB7F8943E
:1029F000DE01139620E03EE051E2E32FF0E0509339
:102A00005700E49120FF03C0E295EF703F5FEF7045
:102A10008E2F90E0EA30C0F0C7968D939D932F5F84
:102A2000243159F74FBF8091E800877F8093E800F9
:102A30006AE270E0CE0101960E94A9058091E8004B
:102A40008B778093E800DAC0C096E7CF4091AF0360
:102A50005091B003292F33272330310569F1A0F4B9
:102A60002130310509F46CC062E570E081E397E044
:102A70002230310509F0C2C02091E800277F209361
:102A8000E8000E944A05DACF2132310509F440C03E
:102A90002232310509F448C02F30310509F0AEC0AB
:102AA000E3ECF7E0E4916E2F70E081EC97E06115C4
:102AB000710509F4A3C0E0CF992781309105C1F0D9
:102AC000009771F082309105D9F0039709F096C014
:102AD000E5E9F7E0E4916E2F70E085E997E0E7CF54
:102AE000EDEBF7E0E4916E2F70E08DEB97E0DFCF38
:102AF000E3EBF7E0E4916E2F70E083EB97E0D7CF44
:102B0000EBE9F7E0E4916E2F70E08BE997E0CFCF2F
:102B100041155105D1F04130510509F06FC069E010
:102B200070E08CE597E0A8CF4115510599F0413050
:102B3000510509F063C060EC70E081E396E09CCF42
:102B400062E170E083E897E097CF69E070E083E4AA
:102B500097E092CF60E470E081EF96E08DCF80380F
:102B600009F04CC08091E800877F8093E800809155
:102B7000AA038093F100D2CE811140C01091AD0321
:102B80001230E0F58091E800877F8093E800109391
:102B9000AA030E949804112311F084E005C08091DB
:102BA000E30087FDFACF81E08093A90342E061EC66
:102BB00081E00E94B70442E261EC82E00E94B70427
:102BC00042E361EC83E00E94B70442E360EC84E0FE
:102BD0000E94B70413C08091AD03813079F481E085
:102BE000933009F080E08093A8031092E90080916F
:102BF000E800877F8093E8000E9498048091E800B5
:102C000083FF0AC08091E800877F8093E80080916D
:102C1000EB0080628093EB00AA960FB6F894DEBFBB
:102C20000FBECDBFDF91CF911F9108951F920F92DC
:102C30000FB60F9211242F933F934F935F936F938F
:102C40007F938F939F93AF93BF93CF93DF93EF9334
:102C5000FF93D091E900DF708091EC00C82FC17024
:102C600080FDC0E81092E9008091F000877F80939A
:102C7000F00078940E944B131092E9008091F000CC
:102C800088608093F000CD2BCF70C093E900FF9156
:102C9000EF91DF91CF91BF91AF919F918F917F91F4
:102CA0006F915F914F913F912F910F900FBE0F90B9
:102CB0001F901895882309F459C0823871F40E9436
:102CC0002A0981FF53C089E30E943F080E94CF0771
:102CD00089E30E9414080C94CF07833859F40E94AA
:102CE0002A0980FF43C083E50E943F080E94CF0766
:102CF00083E5EFCF843859F40E942A0982FF36C059
:102D000087E40E943F080E94CF0787E4E2CF9CEF50
:102D1000980F913AF0F290E2980F983088F487700B
:102D200021E030E0A90102C0440F551F8A95E2F767
:102D3000CA01809590911E03892380931E03CBCFF7
:102D40009BE5980F933020F490E080E00C941409F8
:102D500098E5980F973120F490E080E00C94FE08FD
:102D6000803F20F00E942B060C94FB1208958823CC
:102D700009F47BC08238B9F40E942A0981FD75C02C
:102D800089E30E943F080E94CF072FEF81EE94E075
:102D9000215080409040E1F700C0000089E30E948C
:102DA00014080C94CF078338A1F40E942A0980FDEF
:102DB0005CC083E50E943F080E94CF072FEF81EEA1
:102DC00094E0215080409040E1F700C0000083E58E
:102DD000E6CF8438A1F40E942A0982FD46C087E428
:102DE0000E943F080E94CF072FEF81EE94E0215010
:102DF00080409040E1F700C0000087E4D0CF9CEF16
:102E0000980F913A18F40E943F08CBCF90E2980FA8
:102E1000983068F4877021E030E001C0220F8A9575
:102E2000EAF780911E03822B80931E03BACFEBE555
:102E3000E80FE33038F4F0E0E750FE4F808190E097
:102E40000C941409E8E5E80FE73148F4F0E0EE0FE0
:102E5000FF1FE450FE4F808191810C94FE08803F5B
:102E600020F00E94EA060C94FB120895CF93C82F1D
:102E70000E94B716C93349F42FEF87EE93E0215033
:102E800080409040E1F700C000008C2FCF910C945F
:102E90005A160F931F93CF93DF93C62FD42F022F71
:102EA000FC0182818823A1F06093A6020E94EF12A8
:102EB0009093910280939002C77081E001C0880FC7
:102EC000CA95EAF7DF91CF911F910F910C94F40806
:102ED0001091A602161335C0809190029091910234
:102EE0000E945207883C910560F5C0E2CD0F1D1786
:102EF000B9F080E2810F883040F4177081E001C0A2
:102F0000880F1A95EAF70E94E908C83048F481E072
:102F10009D2F977001C0880F9A95EAF70E94F408D8
:102F2000802F0E943617C83098F4D77081E001C016
:102F3000880FDA95EAF7DF91CF911F910F910C94EA
:102F4000E908C77081E001C0880FCA95EAF7F3CF9E
:102F5000DF91CF911F910F91089560915B0366956A
:102F600070E04BE050E086E091E00E94182C892B45
:102F700019F481E0809361030E94EF12909356034D
:102F800080935503089590915B0390FF36C0917034
:102F9000811129C0926090935B03662351F0609188
:102FA0005B0370915C0380915D0390915E030E94CE
:102FB000AC0D60915B03669570E04BE050E086E0FD
:102FC00091E00E94182C892BA9F01092610381E0F6
:102FD0008093580320E040915E0360915D038091EF
:102FE0005C030C948A11853210F09864D4CF880F5A
:102FF000982BD1CF0E94AD17EACF0895EBE5F3E00F
:1030000080818160808360E086950C94C3171F9255
:103010000F920FB60F9211242F933F934F935F930C
:103020006F937F938F939F93AF93BF93EF93FF9390
:103030008091E10082FF09C08091E20082FF05C01B
:103040008091E1008B7F8093E1008091DA0080FF26
:1030500024C08091D80080FF20C08091DA008E7F4C
:103060008093DA008091D90080FFA8C080E189BDFB
:1030700082E189BD09B400FEFDCF81E08093A90300
:1030800080918203811109C00E941C040E94E904FE
:103090008091E20084608093E2008091E10080FFF3
:1030A00017C08091E20080FF13C08091E2008E7F04
:1030B0008093E2008091E20080618093E200809141
:1030C000D80080628093D80019BC85E08093A90362
:1030D0008091E10084FF36C08091E20084FF32C01D
:1030E00080E189BD82E189BD89B5982F917080FF0B
:1030F000FBCF8091D8008F7D8093D8008091E10034
:103100008F7E8093E1008091E2008F7E8093E200C9
:103110008091E20081608093E2008091AA0388237D
:1031200009F452C084E08093A9030E9436130E94E0
:103130002A09109284038091830381110E94FE1753
:103140000E94AD178091E10083FF27C08091E200CB
:1031500083FF23C08091E100877F8093E10082E0BC
:103160008093A9031092AA038091E1008E7F80933F
:10317000E1008091E2008E7F8093E2008091E20086
:1031800080618093E20042E060E080E00E94B7044A
:103190008091F00088608093F000FF91EF91BF91E3
:1031A000AF919F918F917F916F915F914F913F91DF
:1031B0002F910F900FBE0F901F90189519BC109271
:1031C000A9031092820369CF8091E30087FD93E009
:1031D0009093A903AACF61E00C94C317EBE5F3E049
:1031E00080818160808386950C94EB1880915B03CD
:1031F0008695815009F484E261E00C94C3178091B4
:103200005B0386958F5F853208F081E061E00C9466
:10321000C31790915B0390FF07C09695981720F015
:10322000961710F40C94FF180C94EB18CF92DF92C1
:10323000EF92FF92CF93DF936B017C010E947C079A
:10324000C82F0E94400C0E943D0C0E943A0C0E9424
:10325000370CD091A402C150C73008F041C0EC2F08
:10326000F0E0E15CF34D0C94932A0E94490CD111DB
:103270000CC00E94FE1760E081E00E94C31720E0AE
:103280004FEF6FEF8BE20E948A11C701B601DF9109
:10329000CF91FF90EF90DF90CF9008950E94460C61
:1032A000D111F3CF0E94FE1760E081E00E94C317A6
:1032B00020E04FEF6FEF80E0E6CF0E94430CD1118A
:1032C000E4CF0E94FE1760E081E00E94C31720E077
:1032D0004FEF6FEF86E1D7CF0E94490C0E94460C5A
:1032E000D111D3CF88E090E00E94AD2A60935B03B8
:1032F00070935C0380935D0390935E0360FF1AC03C
:103300000E94EE1880915B0386950E94EB18409115
:103310005E0360915D0380915C030E942012B5CF33
:103320000E94490C0E94430CDBCF0E94490C0E9472
:10333000460CF8CF0E946512A8CFCF92DF92EF9291
:10334000FF92CF93DF9300D000D0CDB7DEB70E94BD
:1033500016196B017C0180917F03882321F08091F5
:103360008003811115C0C0927B03D0927C03E09250
:103370007D03F0927E030E9411130F900F900F9027
:103380000F90DF91CF91FF90EF90DF90CF90089555
:10339000198282E08A83C701B6010E947C078B8371
:1033A0008EEF8C8364E0CE0101960E941306DBCF82
:1033B0000F931F9341E050E060E070E004C0440FC1
:1033C000551F661F771F8A95D2F7CB01BA0160950A
:1033D00070958095909500917B0310917C032091CE
:1033E0007D0330917E0360237123822393231F91F9
:1033F0000F910C949D1990911B03809589238093C4
:103400001B03282F277071F4282F082E000C330B74
:103410009217130639F08595859585950E94D819E0
:1034200010921B0308950F931F9341E050E060E05A
:1034300070E004C0440F551F661F771F8A95D2F7AE
:1034400080917B0390917C03A0917D03B0917E03DA
:103450008A019B01082B192B2A2B3B2BC901B80190
:103460001F910F910C949D194F925F926F927F92D2
:103470008F929F92AF92BF92CF92DF92EF92FF9284
:103480000F931F93CF93DF9300D000D00F92CDB74F
:10349000DEB76C01FC0183819481892B39F01081A6
:1034A000F180812F8F218F3F09F0F7C60F900F9089
:1034B0000F900F900F90DF91CF911F910F91FF9080
:1034C000EF90DF90CF90BF90AF909F908F907F90C4
:1034D0006F905F904F9008950E94C70B082F682F40
:1034E00089819A810E949C08E12FF0E026E0F29EFB
:1034F000E00DF11D112434E5039FE00DF11D1124B1
:10350000EE0FFF1FEF54FD4F0591149180917F0343
:10351000882321F0809180038111ABC6F60182815E
:103520000930FDE51F0709F0E0C08823C9F180914B
:103530002F0391E0980F9770887F953008F4892BBE
:1035400080932F0380912F0387702FEF829FC001FC
:10355000112495958795959587959927909389003E
:103560008093880090938B0080938A0090938D00C5
:1035700080938C0040912F03509130036091310370
:10358000709132038FE090E00E94CB2A60917B0320
:1035900070917C0380917D0390917E030E941619A7
:1035A000F6018281811135C117FF82C1F601828146
:1035B000882309F44DC080911E038093A5021092C8
:1035C0001E0380912B03813009F44DC1882309F437
:1035D00046C1823009F454C1843009F458C18FE3E4
:1035E0009CE90197F1F700C000005801E894B7F892
:1035F0004CE0E42EF12C95010E2C02C03695279557
:103600000A94E2F72F7087E290E031F0822F90E089
:103610002A3008F041C14D960E94361794E0E91A0D
:10362000F108ECEFEE16EFEFFE0629F780912B0381
:10363000813009F437C1882309F430C1823009F49C
:103640002DC1843009F432C18091A50280931E03FC
:10365000F6019281992309F431C61092A602023034
:10366000FCE51F0708F438C206312CE5120738F0D4
:1036700098012A5F3C452730310508F02DC20E9491
:10368000980D90934203809341030F303CE513075C
:1036900009F403C208F07DC108309CE5190709F45C
:1036A000E6C108F052C10430FCE51F0709F4D3C19C
:1036B00008F038C102303CE5130709F4C4C10330F7
:1036C0001C4509F4C4C1609141031091420384E098
:1036D00090E00E94B92A612F81E290E00E94B92A0D
:1036E0000E943613E3CE81E1CAC5F801EA50FD45D8
:1036F000EC30F10508F054CFEA5BF34D0C94932ABB
:10370000882309F4D3CE81E00E94EB18CFCE882322
:1037100009F4CCCE8091A40291E089278093A40281
:10372000C5CE882309F4C2CE0E94EE1881E00E9423
:10373000EB184FEF6FEF81ED0E942012B7CE882378
:1037400009F4B4CE0E94EE1881E00E94EB1840E824
:103750006FEF87EDF1CF882309F4A8CE0E94EE1811
:1037600081E00E94EB184DEB6FEF86E5E5CF8823F3
:1037700009F49CCE0E94EE1881E00E94EB184FEFF6
:103780006DED84E8D9CF882309F490CE0E94EE181D
:1037900081E00E94EB184FEF6FEF8CEACDCF8823CA
:1037A00009F484CE0E94EE1881E00E94EB184DECE3
:1037B00060E080E0C1CF882309F478CE0E94EE1843
:1037C00081E00E94EB184BEB6CE580E2B5CF8823DB
:1037D00009F46CCE0E94EE1881E00E94EB184FEFC6
:1037E0006FEF8BE1A9CF882309F460CE0E94EE1819
:1037F00081E00E94EB184FEF6FEFDBCF882309F4D5
:1038000055CE0E94EE1881E00E94EB1849E867EC63
:10381000D0CF033EFCE51F07F1F058F4013E3CE534
:103820001307A1F0023E8CE5180709F0BDCE81E038
:103830000AC0043E9CE5190781F084E0053EECE5F2
:103840001E0709F0B1CE80932B0302C010922B0308
:103850000E94A60DA9CE82E0F6CF83E0F4CF82EEDF
:103860000E94B716BCCE83E00E94DF0888E10E9468
:10387000B71688E10E945A1683E00E94D408AFCEA2
:1038800082EE0E94B71687E50E943617A8CE86EE14
:103890000E94361788E1F8CF0697BECE82EE0E94CE
:1038A0005A16D2CE8CE20E943617CECE88E2FBCFDB
:1038B000033FFCE51F0739F1A0F4083D3CE5130781
:1038C000F1F0093D8CE5180751F1073D9CE519071A
:1038D00009F0BECE26E241EE61EEC6010E94491714
:1038E000E5CD053FECE51E07B1F088F0063F2CE57D
:1038F000120709F0ADCE27E245EE66EEEECF27E2E5
:1039000045EE65EEEACF26E241EE60EEE6CF27E235
:1039100045EE64EEE2CF26E241EE62EEDECF28E233
:1039200041E0EFCF80914103806106309CE51907AB
:1039300009F447C080914103886007301C4508F4B2
:1039400040C08091410380623CC00B30FCE51F0702
:1039500009F49BC068F409303CE5130709F48BC0F7
:103960000A301C4509F0AFCE809141038C6029C01C
:10397000809141038B7F0D309CE5190711F18091F7
:1039800041038D7F0E301C45E0F080914103877F1D
:1039900018C00A3FFCE51F0709F461C060F5023159
:1039A0003CE5130709F481C078F400319CE5190760
:1039B00009F477C0809141038F7B01311C4509F0E8
:1039C00082CE809341037FCE0431FCE51F0709F4CA
:1039D0007AC008F470C005311C4509F074CE80919E
:1039E000410382FB992790F921E0922790FB82F90D
:1039F00090FB83F9E6CF0D3F8CE5180709F449C029
:103A000070F40B3FECE51E0771F1809142038E7F4D
:103A10000C3F1C4509F057CE8093420354CE0F3F14
:103A20002CE5120709F44BC060F101151D4509F0A2
:103A30004ACE80914203982F909591708E7F892B6A
:103A400090FB81F9E9CF809141038160BACF8091E9
:103A500041038260B6CF809141038460B2CF8091F0
:103A600042038160D9CF809142038260D5CF80919B
:103A700041038064A6CF0E94361380914103806881
:103A8000A0CF809142038360C7CF809141038E7F96
:103A900098CF809142038D7FBFCF809141038F7E6D
:103AA00090CF809141038F7D8CCF0E9436138091FF
:103AB00041038F7786CF80914103837F82CF8091AE
:103AC00042038C7FA9CF0E94361390914103892F26
:103AD00097FB87F9805875CF80911E030631ECE57E
:103AE0001E0709F0F7C38A7A91E009F490E09093F9
:103AF000A702811106C089E20E943F080E94CF07F9
:103B0000D5CC85E3F9CF85E3E2C380915B0380FFE9
:103B100003C00E946512CACC0E94EE18C7CC46EFC3
:103B200058E16FEF78E10E943609C0CC4FEF58E1C1
:103B300066EF78E1F8CF43E552E16CE572E1F3CF4F
:103B40004CE552E163E572E1EECF4BE352E167E40D
:103B500072E1E9CF47E452E16BE372E1E4CF43E283
:103B600052E16FE272E1DFCF4FE252E163E272E1D4
:103B7000DACF4FEC5DE06EEB7DE0D5CF4EEB5DE054
:103B80006FEC7DE0D0CF65E082E00E9409198ECC19
:103B900068E086E0FACF6EE089E0F7CF64E18FE07D
:103BA000F4CF67E185E1F1CF88E1AECD62E289E152
:103BB000ECCF83E2A9CD0E3DFCE51F0709F446C01A
:103BC00008302DE5120709F444C001151C4509F021
:103BD00047C00E9436138FEF94E3ECE08150904091
:103BE000E040E1F700C00000F89481E08093E0003D
:103BF00080E28093D8001092C9008FE19EE4019783
:103C0000F1F700C000001DBA109268001CBC10BE85
:103C10001FBA10927A0010926E0010926F001092EC
:103C20007100109272001092C9001092BC0014B87A
:103C300017B81AB81DB810BA1092BC0015B818B849
:103C40001BB81EB811BA0C94003F30CC0E94EF0D87
:103C50002DCC8091810391E089278093810326CC2C
:103C6000F601008111819923C9F1C8010E94C70B97
:103C7000F82E682FC8010E949C08B8018F2D0E9461
:103C8000240A8C01B82EF601E580E2943FE0E3229D
:103C9000F280F11010921D0380911B03877079F060
:103CA000FF2069F080E2800F883048F082E00E94B7
:103CB000FB1980911B038770AA24A3948111A12C66
:103CC000912E92942FE09222FBE0F91508F440C067
:103CD000E92DF0E0EE5AF34D0C94932AC8010E94AE
:103CE0007308F82ECACF212F2F70E22E107F19F003
:103CF000E29490EFE922FF20C9F0EE2069F080E223
:103D0000800F883010F0B1100BC080911E03E82A9C
:103D1000E0921E030E94CF07802F0E94B71618C0A2
:103D200080911D03E82AE0921D03F4CF802F0E94AA
:103D30005A16EE2069F0E094005E083010F0B110E1
:103D400028C080911E03E822E0921E030E94CF0744
:103D5000292D2850330B2430310510F40E942A09F4
:103D6000AA2009F4A3CB80911B0380FD9FCBF60111
:103D700012828595859585950E94131AC6010E9429
:103D8000341A80911B038595859585950E94D819D5
:103D90008DCB80911D03E822E0921D03D7CF312FF8
:103DA0003F70832E107F103219F0829480EF8822AA
:103DB000802FBB2041F091E0B91631F1FF2079F15D
:103DC000EE2041F1A9CFFF2091F090911F03892FA0
:103DD0008829E11003C00E94F408BACFE1E0EE1296
:103DE000FACF981709F4B4CF80931F03B1CFE11035
:103DF00006C00E94C907882D0E94E908A9CFF1E0FA
:103E0000EF1609F4A5CFF5CFFF2031F021E02E15F4
:103E100008F49ECF882DDFCFE1109ACFECCFEE20B3
:103E200051F3893349F43FEF87EE93E031508040FE
:103E30009040E1F700C00000802F0E945A1688CF02
:103E4000812F86958695837061F0813009F080CF4F
:103E5000C8019370F11002C090E080E00E94FE085B
:103E600077CFC8019370F11002C090E080E00E940B
:103E700014096ECFFF2009F1053F99F0063FB9F014
:103E8000043F49F48091A8029091A9028160909327
:103E9000A9028093A802802F0E94EA060E94FB12CA
:103EA00057CF8091A8029091A9028260F0CF8091B3
:103EB000A8029091A9028460EACF053F89F0063FED
:103EC000A9F0043F49F48091A8029091A9028E7F45
:103ED0009093A9028093A802802F0E942B06DECF28
:103EE0008091A8029091A9028D7FF2CF8091A802C3
:103EF0009091A9028B7FECCF812F837009F066C06F
:103F0000F11026CF802F829586958770880F880FB5
:103F1000602F6F70462E512C712C612C082E04C01E
:103F2000440C551C661C771C0A94D2F740E050E004
:103F3000BA0104FF0FC04FE050E060E070E004C041
:103F4000440F551F661F771F8A95D2F740955095ED
:103F500060957095812F869586958370823019F1D2
:103F6000D8F4009120031091210320912203309175
:103F70002303813069F04429552966297729CB012B
:103F8000BA0160237123822393230E942C13E0CE75
:103F9000402A512A622A732ACB01BA016429752961
:103FA00086299729F2CF4429552966297729009136
:103FB0002003109121032091220330912303CB0190
:103FC000BA016027712782279327DFCF8695FF20CC
:103FD00011F0812F8170882309F4BACE802F829549
:103FE00086958770880F880F602F6F70462E512C32
:103FF000712C612C082E04C0440C551C661C771CC7
:104000000A94D2F740E050E0BA0104FF0FC04FE03D
:1040100050E060E070E004C0440F551F661F771F3A
:104020008A95D2F74095509560957095812F869529
:1040300086958370823019F1D8F400917B0310913A
:104040007C0320917D0330917E03813069F0442907
:10405000552966297729CB01BA0160237123822370
:1040600093230E949D1974CE402A512A622A732AF2
:10407000CB01BA016429752986299729F2CF4429F1
:1040800055296629772900917B0310917C032091A3
:104090007D0330917E03CB01BA016027712782270F
:1040A0009327DFCF1F70FF2029F0812F0E94131A62
:1040B000802F91CE802F0E94E908812F0E94D8196D
:1040C00047CE802FE2EFBE1609F44EC0EB1578F014
:1040D000F0EFBF1619F121EFB21609F43DC0FF2031
:1040E00009F465C0E11018CE812F8F713AC033EF0B
:1040F000B31609F43EC094EFB912F1CFFF2009F4D2
:104100004BC01F71812F0E94131AF8E01F9FC0013E
:104110001124836080931B03812F23C0FF20B9F0FB
:10412000E11016CE1F7161E070E080E090E004C005
:10413000660F771F881F991F1A95D2F700917B038E
:1041400010917C0320917D0330917E03A6CFE1E0A6
:10415000EE1508F4FDCDE6CF812F8F71FF2009F415
:10416000ADCF0E94131AF4CD812F8F71FF20C9F3B8
:10417000A5CF60E070E0CB01FF2009F472CF1F7182
:1041800061E070E080E090E004C0660F771F881F58
:10419000991F1A95D2F765CF81E00E94FB1921E0A3
:1041A0002E1508F0D5CD82E00E94FB19D1CDE1108B
:1041B00038CE812F8F7182CFE2EFBE16D1F1EB1591
:1041C00000F1F0EFBF1649F121EFB216D1F1809165
:1041D000AA02EE2009F441C0882341F08091AB028D
:1041E00091E089278093AB021092AA02802FF110F0
:1041F00094CD0E945A1686E0F60111928A95E9F74D
:10420000A7CD34EFB316C1F0B31688F085EFB8121E
:10421000DECFF1109DCD81E007C0FF2009F498CDDD
:104220008091AB0291E089278093AB0291CD81E030
:10423000F826F092AB028CCDF1108ACD1092AB0231
:1042400087CDFF2039F08091AA02882349F310928C
:10425000AA027ECDEE2021F37BCD882309F478CD10
:10426000F11076CD8091AB0291E089278093AB026B
:10427000EECFF60182811982811135CA82E18A83EB
:10428000F60180818B8381818C838EEF8D8365E045
:10429000CE0101960E94130641C985E0DE01119608
:1042A00001900D928A95E1F7F601228189819A8128
:1042B000211112C90E947308082F16C906311C4526
:1042C00009F0CECC8091A70281111DCC89E20E9419
:1042D000140814CC8272F801E25CFC45E431F1056B
:1042E00008F069CCE25AF34D0C94932A1F93CF93B4
:1042F000DF938091B102807FC1F48091AE02882368
:10430000A1F08091E302C091B2026091AC02709181
:10431000AD024091AF025091B002D62FD723DA01FF
:10432000A095B09516E0C81304C0DF91CF911F91FE
:10433000089590E04115510511F0DF3F31F40196E9
:104340008770F1CF2A0F3B1F17C0189FF001199FEC
:10435000F00D1124ED54FD4F21812713F0CF208162
:104360002613EDCF22812111EACF23813481241736
:10437000350740F3241B350B283C310500F720910D
:10438000B1022F7020612093B10226E0289FF00136
:10439000299FF00D1124E854FD4F80818F708061BA
:1043A00080838CEA92E00E94341ADF91CF911F91B2
:1043B0000C94CA08BF92CF92DF92EF92FF920F93B4
:1043C0001F93CF93DF93CDB7DEB761970FB6F89405
:1043D000DEBF0FBECDBF8C0185E0F801DE011D966A
:1043E00001900D928A95E1F7D8012C9111963C919C
:1043F00011971296EC9012978091AF029091B002B3
:10440000009709F463C14091AC025091AD02642F52
:1044100065236F3F09F45AC11396CD90DC90B0909C
:10442000AE02BB2009F413C1C816D906C0F1F601CB
:10443000E81BF90BCF01FF24F394883C910508F0A9
:10444000F12C8091B102982F907FFF2009F4C1C018
:1044500091117DC0FE2C531327C0421325C0E110DB
:1044600023C08F7080618093B1028CEA92E00E9439
:10447000341A8091B102D80115968C938F2D6196D4
:104480000FB6F894DEBF0FBECDBFDF91CF911F9165
:104490000F91FF90EF90DF90CF90BF90089580959F
:1044A00090958C0D9D1DC7CFCD2829F0822F832399
:1044B0008F3F09F035C180E0B82FB170DB2E80FF4F
:1044C0003CC08091E3024091B20256E0841315C0D3
:1044D0002D873E878D859E850E94090C292F229568
:1044E0002F702230F0F0243018F59F70F1F0F801B1
:1044F0009581907FD1F4D12C1EC090E0589FF0019F
:10450000599FF00D1124ED54FD4F6181361306C003
:104510006081261303C06281E6120FC00196877086
:10452000D5CF9F7011F0882331F3805E883018F367
:10453000C8010E94341AFD2CA1CFEE2009F49ECFB1
:104540008091B10281608093B102F12C97CF531317
:1045500013C0421311C0E1100FC0D80115968C93FF
:10456000C8010E94341A86E0F801ACEAB2E001907A
:104570000D928A95E1F782CF2D873E878D859E85A6
:104580000E94130C882309F1EE20F9F08091B1020A
:10459000803270F02091AC023091AD0238872F83C9
:1045A0001986DB86CA868C87CE0107960E94341A4C
:1045B00086E0F801ACEAB2E001900D928A95E1F74D
:1045C0000E947621FF24F39459CFC8010E94341A27
:1045D000F9CF91110CC08CEA92E00E94341A86E067
:1045E000ECEAF2E0DF011D928A95E9F747CF531319
:1045F00012C0421310C0E1100EC0F8018583C8013B
:104600000E94341AECEAF2E086E0DF011D928A95FE
:10461000E9F7FB2C33CF2D873E878D859E850E9441
:10462000130C882391F2EE2081F28091B102803246
:1046300008F4BECF2091AC023091AD023A832983B9
:104640001B82DD82CC828E83CE010196AFCFC8164D
:10465000D90640F0C81AD90AB8ECCB16D10448F0F4
:10466000F12CBDCF809590958C0D9D1D883C9105BA
:10467000B8F7FE2CEE2009F4A8CF531316C042134E
:1046800014C08091B10280FD6ECF982F907F09F405
:104690006ACFF8018583903F09F462CF982F907F0D
:1046A000905F8F70892B85835BCF2D873E878D85AB
:1046B0009E850E94130C81117BCF8091B102816095
:1046C0008093B102C8010E94341AD8CEEE2009F4BA
:1046D0007CCF2D873E878D859E850E94130CF82EFA
:1046E000882309F472CF86E0F801ACEAB2E00190C9
:1046F0000D928A95E1F78091AC029091AD020E94F3
:10470000090C92959F70963041F48091AB0291E034
:1047100089278093AB029093AA020E947621AECEA5
:1047200081E08E25C9CE1F93CF93DF93CDB7DEB73F
:1047300067970FB6F894DEBF0FBECDBF6D8B7E8B33
:104740008F8B8E899F89892BE1F0852F84238F3F62
:1047500009F098C05FEF4FEF14C03091AB023323E4
:1047600009F44EC0E42FF0E036E0539FE00DF11D58
:104770001124EE0FFF1FEF5AFE4F40815181822B13
:104780008C931A8A198A4B8B5C8B85E0FE01739699
:10479000DE011D9601900D928A95E1F786E0FE01FB
:1047A0003D96DE01179601900D928A95E1F7CE01B4
:1047B00007960E94DA21811112C086E0FE01379629
:1047C000DE01119601900D928A95E1F78A859B850D
:1047D000892B29F08F81988589238F3FC9F516E0B1
:1047E0008091E3029091B202891320C067960FB6C0
:1047F000F894DEBF0FBECDBFDF91CF911F9108951A
:1048000080958223BDCF96E0929FD001939FB00DFB
:104810001124AD54BD4FFE01319601900D929A9531
:10482000E1F78093B2020E94CA08D9CF819FC001EC
:1048300011248D549D4F0E94DA218823B9F2809172
:10484000E30290E00196877099278093E302C8CF36
:104850002091B20230E0C9010196877099274091FA
:10486000E3024817190679F60E9436131092B20235
:104870001092E30286E0ECEAF2E0DF011D928A95F5
:10488000E9F7ADCF81E090E0042E01C0880F0A94D3
:10489000EAF7A52FB0E0AA56BD4F2C913D89311102
:1048A0005CCF322F38235BCF8F929F92AF92BF9213
:1048B000CF92DF92EF92FF920F931F93CF93DF93EC
:1048C0008091130190911401892B91F080914F02F6
:1048D0008F5F80934F0281110BC00E94B70E90E052
:1048E0009093140180931301892B11F40E941E0DE3
:1048F00003E313E07801C0E0912C37E0C32ECC0E27
:104900008C2F0E94630E8C2D0E94630E8C2F0E94B0
:104910007D12D7019D917D01D12C891729F0FD01D0
:1049200031978083DD24D3948C2D0E947D12F70172
:104930009681891709F465C0868381E08D29982ABC
:104940000E944C0CCF5FC730C1F60E94EF126AEF95
:1049500070E00E946B2A882ED0914B02DD2309F46F
:10496000A2C010924B02E0912903F0912A037F012B
:104970002EE0E20EF11C40E0CBEF2AEFC22ED12C4C
:1049800051915B3F81F0652F70E0282D392F8517FD
:10499000D0F1261B370B2E313105DCF19F01215060
:1049A0003109D901CC93EE15FF0551F740934B0225
:1049B000911002C0411179C010924A02A0912903BE
:1049C000B0912A0320914B02E7E4F3E090E041919B
:1049D000E80139918E01431751F04C914B3FD9F4C6
:1049E0008C93AF0141505109EA01388321E01196BF
:1049F000D3E0E535FD0759F720934B0290934A0227
:104A000058C080E09BCFD601A61BB70B2A0F3B1FD7
:104A1000C2CF4D2FC8CF91E0EACF9170892B09F416
:104A200059C080914D0290914E028130984780F09C
:104A30001092810360917B0370917C0380917D03D0
:104A400090917E030E94161910924E0210924D0210
:104A500080914D0290914E02019690934E02809368
:104A60004D02892DDF91CF911F910F91FF90EF9013
:104A7000DF90CF90BF90AF909F908F9008950E944D
:104A8000460C2EC0892B69F310924E0210924D02F3
:104A900060917B0370917C0380917D0390917E03F4
:104AA0000E941619DECF911087CF90914A02911182
:104AB00083CF80914D0290914E0220918103222359
:104AC00009F3009709F0A9CF0E943D0C0E943A0C0F
:104AD0000E94370CC0914C02CC2389F20E943A0C00
:104AE00081E0C827C0934C029CCFCDB7DEB7C95533
:104AF000D1090FB6F894DEBF0FBECDBF84B7877F54
:104B000084BF0FB6F894A895809160008861809367
:104B10006000109260000FBE80E890E00FB6F8943D
:104B200080936100909361000FBE85B7806885BF58
:104B300085B7806885BF0E941C040E94E9048091AB
:104B4000E20084608093E20078948091A903882336
:104B5000A1F01091E9001F709091EC00892F8170F5
:104B600090FD80E8182B1092E9008091E80083FD09
:104B70000E944B131F701093E90082E084BD93E004
:104B800095BD9AEF97BD80936E000E94B70E90E09E
:104B900090931401809313010E944C0C0E945B0CB3
:104BA000A3E3B3E015E5E12E13E0F12EE7E4F3E033
:104BB00011921D92EE16FF06D9F78EE090E00E944A
:104BC000ED2A8093290390932A03FC010E962BEF84
:104BD00021938E179F07E1F790E080E00E94B32AAF
:104BE0008F3E9E4F11F00E94EF0D8CE090E00E94EE
:104BF000A52A90E0B0E0A0E080932B0390932C03D3
:104C0000A0932D03B0932E0389EA8093800089E05E
:104C10008093810024982C983F988AB18F7C8AB920
:104C20006E98479A8BB180638BB9769A8FE090E04B
:104C30000E94AD2A60932F03709330038093310359
:104C40009093320367704FEF649FB0011124759504
:104C500067957595679577277093890060938800AD
:104C600070938B0060938A0070938D0060938C002A
:104C70000E941E0D90E080E00E94B32A8F3E9E4F5E
:104C800011F00E94EF0D82E090E00E94A52A80932F
:104C90006C030E94980D909342038093410383E03C
:104CA00090E00E94A52A682F70E090E080E00E94CA
:104CB0002C1380914303811136C090E080E00E9464
:104CC000B32A8F3E9E4F21F00E94EF0D0E94E00D0F
:104CD00088E090E00E94AD2A60935B0370935C03D0
:104CE00080935D0390935E036E7F71F40E94E00DEC
:104CF00088E090E00E94AD2A60935B0370935C03B0
:104D000080935D0390935E030E943B0910926103C0
:104D100080915B0380FF04C060E086950E94C3170A
:104D200081E08093430360917B0370917C038091C9
:104D30007D0390917E030E94161985E191E0909386
:104D4000450380934403F1E4CF2ED12CCC0EDD1E1D
:104D500022E0C20ED11CA1E5AA2EA5E0BA2E8091B8
:104D6000A903853009F4E8C00E945424ADE6B3E0FD
:104D7000E7E4F3E010E000E0302F81912D91281757
:104D800009F446C190E0992493942827422F4921A1
:104D900009F439C161969FAF619762963FAF629700
:104DA000892191E009F490E063969FAF63970E9498
:104DB000EF128160782F65969FAF8EAF65976196F1
:104DC0004FAD619762965FAD629763966FAD6397E3
:104DD00065968FAD65970E949323F801E359FC4FC8
:104DE00080819826908280916103882309F441C0D4
:104DF00080916003E0915B03E695E81BE093570325
:104E0000823009F02CC1F0E0E15AFA4FE4910E2F04
:104E100010E0E6E68E2EE1E19E2E80915803882375
:104E200089F0109258030E94EF1298012095309556
:104E3000820F931F909356038093550310925A0349
:104E40001092590380915503909156030E94520786
:104E50008017910770F0E0915503F09156030E0F03
:104E60001F1F109356030093550385E593E0F4014B
:104E700009958091690390916A030E9452079C01F1
:104E800090916803992319F02431310578F020912D
:104E900064039090650310916603009167032111EC
:104EA00037C1812F8929802B09F023C20E942A094A
:104EB00090916B03891721F00E942A0980936B035C
:104EC0008091A903843009F04ACF8093E900809152
:104ED000E80082FF44CF8091E80090E085FF06C0A3
:104EE0000E943B04882309F477C191E08091E80097
:104EF0008B778093E800992309F431CF1981111140
:104F000087C180918103882309F49DC11092810398
:104F100081E08093800322961FAE229723961FAED6
:104F200023978EEF24968FAF249763E0CE018F5B9B
:104F30009F4F0E94130613CF8091A903843009F478
:104F400041C01092460388E190E020E40FB6F89447
:104F5000A895809360000FBE2093600010926103BB
:104F600080918403811117C081E080938403809134
:104F70005B03982F9170909383038E7F80935B03E4
:104F80004FEF80E792E0415080409040E1F700C051
:104F900000000E942E0F83B7817F846083BF83B798
:104FA000816083BF7894889583B78E7F83BF0FB667
:104FB000F894A895809160008861809360001092B9
:104FC00060000FBE8091A803882309F4C8CE0E9418
:104FD000B70E90E090931401809313010E944C0C43
:104FE0000E945B0CE7E4F3E01192EE16FF06E1F796
:104FF0000E945424E7E4F3E08191811164C1EE162C
:10500000FF06D1F7ACCE9F5F990C963009F0BECE6B
:105010000F5F1F4F0E30110509F0AECE8FEF669671
:105020008FAF669767968FAF679768961FAE689742
:105030000E94EF128160782F6A969FAF8EAF6A97B9
:1050400066964FAD669767965FAD679768966FAD4A
:1050500068976A968FAD6A970E949323C4CE863074
:1050600059F4F0E0E45AFA4FE4910E2F10E07AE799
:10507000872E71E1972ED1CE893061F4E695F0E06C
:10508000E75AFA4FE4910E2F10E06CED862E6FE098
:10509000962EC3CE8F3061F4E695F0E0EA5AFA4FCF
:1050A000E4910E2F10E056E0852E50E1952EB5CEFE
:1050B000853159F4F0E0ED5AFA4FE4910E2F10E0EB
:1050C00045E7842E40E1942EA8CE08EE13E095EC3F
:1050D000892E90E1992E883109F49FCE833241F4D4
:1050E000F501059114913BE0832E31E1932E95CE8D
:1050F00004EF11E023EA822E2FE0922E843209F48D
:105100008CCE00ED17E08FE0882E86E0982E85CEBD
:105110009F3F19F09F5F90936803121624F40E943A
:10512000CA06809364038091640387FF05C00E94D0
:10513000CA06819580936403191424F40E94CA0658
:10514000809365038091650387FF05C00E94CA06AE
:10515000819580936503309164033323A1F02091FE
:105160006503222381F045EB3403C0011124992308
:1051700059F19093640345EB2403900111243323E8
:1051800039F130936503111624F40E94AA06809326
:1051900066038091660387FF05C00E94AA06819579
:1051A00080936603101624F40E94AA068093670376
:1051B0008091670387FF05C00E94AA0681958093AE
:1051C00067030E94FB1272CE81E080936403D3CF09
:1051D00081E080936503D7CF00E410E0CE01019613
:1051E0004C018091E80085FD0AC08091E8008B7732
:1051F0008093E8000E943B04882399F376CE809147
:10520000F100F40181934F010150110951F76DCE66
:105210001130C9F422961FAE229723961FAF239711
:105220008CE0E0E2F1E0D60101900D928A95E1F781
:105230008EEF60968FAF60976FE0CE018F5B9F4FD0
:105240000E9413068CCD809180038823D1F1123007
:1052500041F01330F9F081E022968FAF229761E0A0
:1052600065CE60917B0370917C0380917D0390916A
:105270007E030E947C0722961FAE229723961FAFC3
:10528000239724968FAF24978EEF25968FAF25977F
:1052900064E04CCE8A81813041F0882341F0823035
:1052A000D1F681E080937F0302C010927F032296A3
:1052B0001FAE229783E023968FAF239780917F03C1
:1052C000E0CF8FEFC9CF80E189BD82E189BD09B40C
:1052D00000FEFDCF8091D8008F7D8093D800809113
:1052E000E00082608093E0008091E00081FDFCCFCF
:1052F00036CD9F3F09F00ECF1FCF1F921FB61F92D2
:1053000011248F939F93AF93BF9380914603811194
:1053100013C08091240390912503A0912603B0919E
:1053200027034196A11DB11D80932403909325036B
:10533000A0932603B0932703BF91AF919F918F91C4
:105340001F901FBE1F9018951092B9008CE080939B
:10535000B8000895EF92FF920F931F93CF93DF93BE
:10536000182FEB011092BC0084EA8093BC000E94CD
:10537000EF127C018091BC0087FF27C08091B900AB
:10538000887F883029F08091B900887F8031D9F5F5
:105390001093BB0084E88093BC000E94EF128C0144
:1053A0008091BC0087FF24C02091B900287F90E045
:1053B00080E02831B1F081E090E0203411F490E0F9
:1053C00080E09195819591090CC0CF3FDC0791F267
:1053D0000E94EF128E199F098C179D0758F28EEFCD
:1053E0009FEFDF91CF911F910F91FF90EF90089564
:1053F000CF3FDC07A9F20E94EF12801B910B8C17A4
:105400009D0770F2ECCF8FEF9FEFEBCF0F931F93C1
:10541000CF93DF93EB018093BB0084E88093BC00C3
:105420000E94EF128C018091BC0087FF11C0209177
:10543000B900287F81E090E0283211F490E080E00C
:10544000919581959109DF91CF911F910F910895C9
:10545000CF3FDC0741F30E94EF12801B910B8C17AA
:105460009D0708F38EEF9FEFEECF0F931F93CF931F
:10547000DF93EC0184E88093BC000E94EF128C0162
:105480008091BC0087FF08C08091BB0090E0DF9155
:10549000CF911F910F910895CF3FDC0789F30E94B0
:1054A000EF12801B910B8C179D0750F38EEF9FEF2F
:1054B000EECF84E98093BC00089587FB082E062672
:1054C00087FD819567FD61950E94992A0EF491955B
:1054D00007FC81950895AA1BBB1B51E107C0AA1FB9
:1054E000BB1FA617B70710F0A61BB70B881F991F85
:1054F0005A95A9F780959095BC01CD01089597FB29
:10550000072E16F4009407D077FD09D00E946B2A6D
:1055100007FC05D03EF4909581959F4F08957095B6
:1055200061957F4F0895EE0FFF1F0590F491E02DD8
:105530000994991B79E004C0991F961708F0961BEF
:10554000881F7A95C9F780950895F999FECF92BD85
:1055500081BDF89A992780B50895A6E1B0E044E0AE
:1055600050E00C94DF2AA8E1B0E042E050E00C9457
:10557000DF2A262FF999FECF92BD81BDF89A0197B7
:1055800000B4021639F01FBA20BD0FB6F894FA9A8B
:10559000F99A0FBE08950396272F0E94BA2A0E94F7
:1055A000B92A252F0E94BA2A242F0C94BA2A0196D0
:1055B000272F0E94BA2A0C94B92ADC01CB01FC01E6
:1055C000F999FECF06C0F2BDE1BDF89A319600B45C
:1055D0000D9241505040B8F708950F931F93CF9309
:1055E000DF938230910510F482E090E0E091B50302
:1055F000F091B60330E020E0B0E0A0E0309799F4FD
:105600002115310509F447C0281B390B2430310519
:10561000C0F58A819B816115710571F1FB0193834E
:105620008283FE0111C0408151810281138148179C
:105630005907F8F04817590799F4109761F0129636
:105640000C93129713961C933296CF01DF91CF9152
:105650001F910F9108950093B5031093B603F4CFF3
:105660002115310519F04217530718F49A01BD01AD
:10567000EF01DF01F801C2CF9093B6038093B50329
:10568000D0CFFE01E20FF31F819391932250310995
:1056900039832883DACF2091B3033091B403232BCD
:1056A00041F420910201309103013093B40320931F
:1056B000B30320910001309101012115310541F41E
:1056C0002DB73EB74091040150910501241B350BC5
:1056D0004091B3035091B4034217530708F0B5CF7C
:1056E000241B350B2817390708F4AFCFBC016E5FB8
:1056F0007F4F2617370708F4A8CF640F751F7093E4
:10570000B4036093B303FA01819391939ECFCF9337
:10571000DF930097E9F0FC01329713821282C09167
:10572000B503D091B603DE0130E020E02097A1F46C
:1057300020813181820F931F2091B3033091B403F4
:105740002817390709F067C0F093B403E093B30357
:10575000DF91CF910895DA01AE17BF0708F040C07E
:1057600012964D915C9113979D014115510599F742
:10577000D9011396FC93EE9312974D915D91A40F6E
:10578000B51FEA17FB0779F4808191810296840F97
:10579000951FD90111969C938E93828193811396C4
:1057A0009C938E931297B0E0A0E08A819B81009732
:1057B000B9F5FE0181919191E80FF91F8091B30332
:1057C0009091B4038E179F0719F6109761F5109208
:1057D000B6031092B503D093B403C093B303B8CF0C
:1057E000B383A28340815181840F951FA817B90705
:1057F00071F44E5F5F4F8D919C911197480F591F27
:105800005183408312968D919C91938382832115BD
:10581000310509F0ADCFF093B603E093B50398CF0F
:10582000DE01EC01C2CF13961C921E921297D3CFC9
:10583000FC014150504030F001900616D1F73197ED
:10584000CF010895882799270895F894FFCF220C57
:10585000220C2B0C2B0C2D0C2B0C2B0C2B0C220CA0
:10586000220C320C2B0C2B0C320C6A149214FE15E9
:105870009214FE15C514E614FE15AF15BC153519A6
:105880004E195D196C19901997199519871B801B72
:10589000911B9F1BAB1BB71BC31BCF1BDB1BE71B4A
:1058A000F31BFE1B731E731ECF1ECF1E201F3A1F3D
:1058B000DC20A81E7C1F522061206120851D8F1DC9
:1058C000961D9B1DA01DA51DAA1DAF1DB41DB91DB4
:1058D000BE1D831BC31DC81DCB1DCE1DD11DD41DD8
:0458E000D61DD91DDB
:1058E4000000B703200001191A1B1C1D1E1F2021D4
:1058F40022010220001006D80CAD0CA70C950C0157
:10590400447A794E4A2F71394F4F4B0000010202FD
:1059140002020606060909090909090F0F0F0F0FEC
:105924000F151515181919191919191919191923F0
:1059340024000D010D020D030D040D050D000C01D5
:105944000C020C030C040C050C000B010B020B03E2
:105954000B040B050B000A010A020A030A040A05D8
:105964000A000901090209030904090509000801DB
:1059740008020803080408050800070107020703D2
:1059840007040705070006010602060306040605C8
:1059940006000501050205030504050505000401CB
:1059A40004020403040404050400030103020303C2
:1059B40003040305030002010202020302040205B8
:1059C40002000101010201030104010501000001BB
:1059D400000200030004000500818283E200E90064
:1059E400EA00B500B600B700CD008301CC008A01FF
:1059F4009201940121022302240225022602270295
:0A5A04002A02B300B4006F00700026
:00000001FF
