:100000000C94DD040C94FA040C94FA040C94FA0495
:100010000C94FA040C94FA040C94FA040C94FA0468
:100020000C94FA040C94FA040C94E8180C94241818
:100030000C9448290C94FA040C94FA040C94FA04D5
:100040000C94FA040C94FA040C94FA040C94FA0438
:100050000C94FA040C94D6280C94FA040C94FA0428
:100060000C94FA040C94FA040C94FA040C94FA0418
:100070000C94FA040C94FA040C94FA040C94FA0408
:100080000C94FA040C94FA040C94FA040C94FA04F8
:100090000C94FA040C94FA040C94FA040C94FA04E8
:1000A0000C94FA040C94FA040C94FA0464055F05A9
:1000B000690575059905A505B105BC05C805D405F3
:1000C000E005EC056B096D0978096F097109730981
:1000D000750977097A097C097E09890980098209ED
:1000E0008409860988098B09360A360A700A700A5B
:1000F000C70AE50ADA0C330D270B330D240C240C48
:10010000310C310C310C310C310C310C310C310C07
:10011000310C310C310C310C310C310C310C310CF7
:100120003E0C650C6C0C730C8A0C030E060E090E4B
:100130000C0E0F0E120E150E35165C16FC175C1603
:10014000FC17A416C716FC17C517D8176C1A6C1A1B
:100150007F1A7F1A751A7F1A7F1A7F1A6C1A6C1A07
:100160007A1A7F1A7F1A7A1A3B1B431B3E1B411BCC
:10017000461B4B1B501B601B951B8B1B811B8B1B3A
:100180008B1B951B11502A742944025504550000FD
:1001900003543400040033614A0065000354360000
:1001A000120014684D0028431801370008000D00A4
:1001B0004B002B420701130018000E004E000553A0
:1001C0002D001C000C001B000000010001002B048E
:1001D00000002B040000010001002C0800002C0886
:1001E000000001002E0009000700050000000100CA
:1001F00008010A000B001000510006531C01060004
:1002000017001A0052002C430354150011001978EE
:1002100050002A4203540F0016001D714F00650064
:100220001150357428440255045500001050010047
:1002300001000100010000000100140001000100A4
:100240000100010001001A0016001B6801000100F6
:100250000100080007000600010001000100150070
:100260000900190001000100010017000A00050043
:100270000000010001000100000001000000010079
:1002800001000100000001000000010001001C004D
:100290000B00110000000100010018000D0001001A
:1002A0000100010001000C000E00360001000100F9
:1002B000010012000F003778010001000100130057
:1002C0003400010001000100105001000100010094
:1002D0000100000001000100010001000100000018
:1002E00001001455015501550100010001004C00A9
:1002F000085549680100010001002B000455650004
:100300000100010001002A0002552800010001003F
:1003100001002A014300075500000100010001000F
:1003200000000100000001000100010000000100C8
:10033000000001000100A900AA00A80000000100BF
:100340000100FB00F200FA00010001000100F000D2
:10035000F100F9000100F4000100FC00F300467810
:100360000100010001001455F500115501000100C4
:1003700001000100F6000100010000000100010081
:100380000100010001000000010014551E0201558A
:1003900001000100010064001F0208550100010076
:1003A00001002F00200226020100010001003000A0
:1003B00021022702010001000100A900AA00A800F3
:1003C0000000010001000100000001000000010028
:1003D0000100010000000100000001000100000018
:1003E000430007550000010001002D0023023800E2
:1003F0000100010001002E00250231000100010072
:1004000001003200240218550100010001001455BA
:10041000220211550100010001000100010001004C
:1004200001000000010001000100010001000000C6
:10043000010042003E613A0001000100010043005A
:100440003F003B00010001000100440040003C006F
:10045000010008550100450041003D000455010020
:1004600001005300470039000000010001000100B5
:100470000000010000000100010001000000010077
:1004800000000100010053002D00250200000100C2
:100490000100240021001E002700010001002500AA
:1004A00022001F00630002550100260023002000E7
:1004B0002800010001002E00115538000100010044
:1004C0000100A600010001000100000029002B002E
:1004D000E100E000E00000001E00140004001D0028
:1004E000E20001001F001A0016001B003D002C0056
:1004F00020000800070006003D002C002100150028
:10050000090019003D000100220017000A00050043
:100510000000010023002B0000002B000000010060
:1005200034002B0000002B000000010023001C0001
:100530000B00110000000100240018000D00100045
:100540003500010025000C000E00360031000100CE
:10055000260012000F003700500001002700130092
:10056000330052005100010001002A002800380029
:100570004F00000001000100010001000100000027
:100580000100F65CFB5C0100010001000100F75C6A
:10059000FC5C01000100C25C0100F85CFD5C010034
:1005A0000100C25C0100F95CFE5C01000100010079
:1005B0000100FA5CFF5C0100000001000100010085
:1005C0000000010000000100010001000000010026
:1005D0000000010001000100010001000000010015
:1005E0000100C55CC25CC95C010001000100C65C81
:1005F000C35CCA5C0100010001000100F45C010061
:1006000001000100010001000100010001000100E2
:100610000100010001000100105000000000000076
:1006200000000000000001010101010101010102BF
:10063000020202020202020303030303030304048F
:100640000404040505050505060606060607070752
:1006500007080808080909090A0A0A0B0B0B0C0C01
:100660000C0D0D0D0E0E0E0F0F1010101111121299
:1006700013131414151516161717181819191A1A12
:100680001B1C1C1D1D1E1F1F20212122232324256E
:100690002526272828292A2B2C2C2D2E2F303131A6
:1006A00032333435363738393A3B3C3D3E3F4041B2
:1006B00042434445464748494B4C4D4E4F50525398
:1006C00054555758595A5C5D5E606163646567684C
:1006D0006A6B6C6E6F7172747677797A7C7D7F81CC
:1006E00082848687898B8D8E9092949597999B9D15
:1006F0009FA1A2A4A6A8AAACAEB0B2B4B6B9BBBD25
:10070000BFC1C3C5C8CACCCED0D3D5D7DADCDEE1F1
:10071000E3E6E8EAEDEFF2F4F7F9FCFFFFAA7F5514
:100720004005010902A10185020901A1000509197D
:1007300001290515002501950575018102950175B1
:100740000381010501093009311581257F95027565
:1007500008810609381581257F95017508810605F0
:100760000C0A38021581257F950175088106C0C0E5
:1007700005010980A10185031601002603001A81E5
:10078000002A8300751095018100C0050C0901A1A4
:10079000018504160100269C021A01002A9C02759C
:1007A0001095018100C005010906A1018505050715
:1007B00019E029E715002501950875018102050852
:1007C000190129059505750191029501750391019E
:1007D0000507190029EF1500250195F07501810223
:1007E000C005010906A101050719E029E715002543
:1007F00001950875018102950175088101050819A7
:100800000129059505750191029501750391010571
:1008100007190029FF150026FF00950675088100BD
:10082000C009023B00020100A0FA09040000010314
:100830000101000921110100012240000705810387
:1008400008000A0904010001030000000921110148
:10085000000122C0000705820320000A12011001D6
:1008600000000008EDFE071301000102030104036C
:100870003000000016034500720067006F0044005E
:100880006F007800200045005A0000001603450064
:10089000720067006F0044006F0078002000450080
:1008A0005A0000000403090400047F3F1F6432144F
:1008B000643214783C1E1E140A052223252628299A
:1008C0002A2C2D2F3032333536383A3B3D3E4042CC
:1008D000434547494A4C4E5051535557595A5C5E0F
:1008E0006062646668696B6D6F71737577797B7D23
:1008F0007F81838587898A8C8E90929496989A9C22
:100900009E9FA1A3A5A7A8AAACAEAFB1B3B4B6B839
:10091000B9BBBCBEBFC1C2C3C5C6C7C9CACBCCCD9B
:10092000CED0D1D2D2D3D4D5D6D7D7D8D9D9DADA76
:10093000DBDBDBDCDCDCDCDCDDDDDDDDDCDCDCDCF6
:10094000DCDBDBDBDADAD9D9D8D7D7D6D5D4D3D22A
:10095000D2D1D0CECDCCCBCAC9C7C6C5C3C2C1BF08
:10096000BEBCBBB9B8B6B4B3B1AFAEACAAA8A7A56C
:10097000A3A19F9E9C9A98969492908E8C8A898728
:100980008583817F7D7B79777573716F6D6B696806
:10099000666462605E5C5A5957555351504E4C4ADA
:1009A0004947454342403E3D3B3A38363533323085
:1009B0002F2D2C2A29282625232211241FBECFEFD4
:1009C000DAE0DEBFCDBF11E0A0E0B1E0EAEBFBE58D
:1009D00002C005900D92AE3EB107D9F723E0AEEE0E
:1009E000B1E001C01D92A537B207E1F70E945E1F7A
:1009F0000C94DB2D0C9400004F925F926F927F92CB
:100A00008F929F92AF92BF92CF92DF92EF92FF921E
:100A10000F931F93CF93DF93CDB7DEB727970FB612
:100A2000F894DEBF0FBECDBFFC01F0801181838141
:100A30009481892B11F40C94710D1F3F31F44424DF
:100A40004A94F41411F40C94710D6F0185E0DE01E9
:100A5000119601900D928A95E1F7D60112962C918C
:100A600089819A81222349F00E94101A082F682F49
:100A700089819A810E94B01A03C00E94831A082FAC
:100A8000B6E01B9FF001112414E5019FE00DF11D5C
:100A90001124EF0DF11DEE0FFF1FEC57FE4F0591D6
:100AA0001491F801E45FFC45D60112968C91EC306C
:100AB000F10508F012C1EA5AFF4F0C949B2C8823D1
:100AC00011F40C94710DBAC0882311F40C94710DBB
:100AD000D4C0882311F40C94710D0E946B1081E036
:100AE0000E9468104DEC60E03AC0882311F40C9429
:100AF000710D0E946B1081E00E9468104BEB6CE559
:100B000080E227960FB6F894DEBF0FBECDBFDF910F
:100B1000CF911F910F91FF90EF90DF90CF90BF90FA
:100B2000AF909F908F907F906F905F904F900C94BC
:100B30001F10882309F4D5C70E946B1081E00E9422
:100B400068104FEF6FEF8BE1DCCF882309F4C9C742
:100B50000E946B1081E00E9468104FEF6FEF80E001
:100B6000D0CF882309F4BDC70E946B1081E00E949A
:100B7000681049E867ECF3CF882309F4B2C70E94F4
:100B80006B1081E00E9468104FEF6FEF81EDB9CFDD
:100B9000882309F4A6C70E946B1081E00E946810A8
:100BA00040E86FEF87EDADCF882309F49AC70E9424
:100BB0006B1081E00E9468104DEB6FEF86E5A1CFCE
:100BC000882309F48EC70E946B1081E00E94681090
:100BD0004FEF6DED84E895CF882309F482C70E941A
:100BE0006B1081E00E9468104FEF6FEF8CEA89CFA5
:100BF0001092EF01D60112969C910A3CBCE51B07AE
:100C000009F4A0C208F454C1013DFCE51F0709F432
:100C100008C360F1053D2CE5120709F428C308F468
:100C20008BC10D3DBCE51B0709F42CC30E3DECE563
:100C30001E0709F089C1992309F453C727960FB6F7
:100C4000F894DEBF0FBECDBFDF91CF911F910F9102
:100C5000FF90EF90DF90CF90BF90AF909F908F90DC
:100C60007F906F905F904F900C94DF290D3C3CE596
:100C7000130729F4992309F434C781E016C00E3C08
:100C80008CE5180708F44EC10F3CECE51E0709F48B
:100C9000B2C208F0BBC2992309F423C70E94860E92
:100CA0008250833008F4FDC182E027960FB6F89495
:100CB000DEBF0FBECDBFDF91CF911F910F91FF908F
:100CC000EF90DF90CF90BF90AF909F908F907F90EC
:100CD0006F905F904F900C946810882319F1033E39
:100CE000BCE51B07C1F050F4013EFCE51F0781F095
:100CF000023E2CE51207B1F481E010C0043E3CE551
:100D0000130759F0053E8CE5180761F484E006C02E
:100D10001092A00205C082E001C083E08093A0028F
:100D20000E94A11017FF74C0D60112968C918823DF
:100D300009F46EC08091F9018093EE011092F901DF
:100D40008091A002813071F048F08230D1F084307F
:100D5000F1F486EE0E94611E88E117C082EE0E94C7
:100D6000112B15C08BEB9DE00E940D1588E10E94B0
:100D7000112B88E10E94B12A8BEA9DE00E940D159B
:100D800006C082EE0E94112B87E50E94611EEFE3F0
:100D9000FCE93197F1F700C000007801E894F7F81A
:100DA0009CE0A92EB12CC7010A2C02C0969587950C
:100DB0000A94E2F7282F2F7041F0822F90E02A301A
:100DC00010F44D9604C0069702C087E290E00E949E
:100DD000611EF4E0AF1AB1082CEFA2162FEFB20695
:100DE00011F78091A002813039F040F0823031F06B
:100DF000843051F488E206C08CE204C082EE0E9486
:100E0000B12A02C00E94611E8091EE018093F90117
:100E1000003F3CE51307E9F190F4083D9CE5190714
:100E2000E1F0093DACE51A0709F43FC0073DBCE518
:100E30001B0709F0DDCE26E241EE61EE11C0023F54
:100E4000ECE51E0771F148F1033F2CE5120709F0AC
:100E5000CFCE27E246EE66EE03C027E245EE65EE12
:100E6000C60127960FB6F894DEBF0FBECDBFDF9147
:100E7000CF911F910F91FF90EF90DF90CF90BF9097
:100E8000AF909F908F907F906F905F904F900C9459
:100E9000C62426E240EE60EEE3CF27E244EE64EEA5
:100EA000DFCF26E242EE62EEDBCF28E241E0D7CF91
:100EB000033CFCE51F0709F4CEC0E0F405313CE536
:100EC000130770F402308CE5180708F0E2C1011531
:100ED000ACE51A07F1F101301C4509F47CC07CC275
:100EE0000631ECE51E0709F43FC2023C1C4509F43B
:100EF0007BC072C2063C2CE5120709F4F6C050F420
:100F0000043C8CE5180709F4C5C0053C1C4509F4F0
:100F1000E0C062C2083CBCE51B0709F4FCC008F451
:100F2000F0C006C10B3CACE51A0709F431C10C3C1A
:100F30001C4509F436C150C2033D8CE5180709F47D
:100F400086C108F479C188C10C3D1C4509F044C232
:100F500093C1992309F4C5C51092F9010E943D1E61
:100F60000FEF14E32CE0015010402040E1F700C0E7
:100F70000000F89481E08093E00080E28093D80044
:100F80001092C9008FE19EE40197F1F700C00000C4
:100F90001DBA109268001CBC10BE1FBA10927A00D5
:100FA00010926E0010926F001092710010927200F9
:100FB0001092C9001092BC0014B817B81AB81DB826
:100FC00010BA1092BC0015B818B81BB81EB811BAE8
:100FD0000C94003F86C5992309F483C58091D00203
:100FE00081608093D0027DC5992309F47AC58091F0
:100FF000E50280FF18C027960FB6F894DEBF0FBE3B
:10100000CDBFDF91CF911F910F91FF90EF90DF90B7
:10101000CF90BF90AF909F908F907F906F905F9098
:101020004F900C94BD0E27960FB6F894DEBF0FBEFE
:10103000CDBFDF91CF911F910F91FF90EF90DF9087
:10104000CF90BF90AF909F908F907F906F905F9068
:101050004F900C946B10992309F443C58091F901CA
:101060008272F9F027960FB6F894DEBF0FBECDBF9F
:10107000DF91CF911F910F91FF90EF90DF90CF9074
:10108000BF90AF909F908F907F906F905F904F90A8
:101090000C947310992309F424C58091F90182728C
:1010A00009F327960FB6F894DEBF0FBECDBFDF91D0
:1010B000CF911F910F91FF90EF90DF90CF90BF9055
:1010C000AF909F908F907F906F905F904F900C9417
:1010D0007C10992309F405C58091E60221E0409136
:1010E000E8026091E702845F3BC0992309F4F9C4E8
:1010F0008091E60221E04091E8026091E7028C5085
:101100002FC0992309F4EDC46091E7022FEF620F1D
:1011100008F46FEF09C0992309F4E3C46091E70272
:101120002FEF621B08F460E021E04091E80216C056
:10113000992309F4D6C44091E8022CE0420F08F448
:101140004FEF09C0992309F4CCC44091E8022CE088
:10115000421B08F440E021E06091E7028091E60242
:1011600027960FB6F894DEBF0FBECDBFDF91CF91AB
:101170001F910F91FF90EF90DF90CF90BF90AF90B5
:101180009F908F907F906F905F904F900C94830F03
:10119000992309F4A6C48091E902833060F48F5F3B
:1011A00008C0992309F49DC48091E902882319F0AD
:1011B00081508093E9026091E5027091E60280918E
:1011C000E7029091E80227960FB6F894DEBF0FBEB3
:1011D000CDBFDF91CF911F910F91FF90EF90DF90E6
:1011E000CF90BF90AF909F908F907F906F905F90C7
:1011F0004F900C94A10E992309F473C40E94860E9B
:101200008650823008F44DCF86E04FCD992309F403
:1012100068C40E94860E8950853008F442CF89E068
:1012200044CD992309F45DC40E94860E8F50853009
:1012300008F437CF8FE039CD992309F452C40E94C6
:10124000860E8551823008F42CCF85E12ECD99236E
:1012500009F447C488E129CD992309F442C40E94C6
:10126000860E8951893008F41CCF89E11ECD99235F
:1012700009F437C483E219CD992309F432C41092DA
:10128000EC022FC4992309F42CC482E08093EC0271
:1012900028C4992309F4A0C00E94D429811102C056
:1012A0000E94DF2984E090E00E942B2C90E0909334
:1012B000B3028093B202F801E350FC45E231F1053C
:1012C00030F4EE59FF4F8091B2020C949B2C809128
:1012D000B202816027C0826025C0846023C0806123
:1012E00021C080621FC080641DC080681BC08460F4
:1012F000886018C08E7F16C08D7F14C08B7F12C08F
:101300008F7E10C08F7D0EC08F7B0CC08F770AC080
:101310008B7F877F07C087FB222720F991E09227E8
:1013200090FB87F98093B2026091B20284E090E072
:101330000E943F2C1092F90127960FB6F894DEBF59
:101340000FBECDBFDF91CF911F910F91FF90EF9016
:10135000DF90CF90BF90AF909F908F907F906F90D5
:101360005F904F900C943D1E8091F901992389F074
:10137000982F9A7A81E009F480E08093F00181113E
:1013800002C069E201C065E380E493E00E949C2909
:101390000BC08091F001811102C069E201C065E3D8
:1013A00080E493E00E94712927960FB6F894DEBF7F
:1013B0000FBECDBFDF91CF911F910F91FF90EF90A6
:1013C000DF90CF90BF90AF909F908F907F906F9065
:1013D0005F904F900C94432AF6010081118199236C
:1013E00049F0C8010E94101AF82E682FC8010E9407
:1013F000B01A04C0C8010E94831AF82EB8018F2DBC
:101400000E94A7108C01282FD60115969C91159744
:1014100092959F701296FC90F11010926403809147
:101420006203877099F0FF2089F080E2800F883096
:1014300068F082E02F839E830E94982A8091620345
:101440008770EE24E3942F819E818111E12CA12EDF
:10145000A2948FE0A822B12CBCE0AB16B10408F036
:1014600002C3F501EC58FF4F0C949B2C812F807F19
:101470001F70882311F01295107FFF20B9F01123FF
:1014800009F482C280E2800F883010F0211106C07A
:101490009091F901192B1093F90105C09091640303
:1014A000192B109364030E94432A6EC2802F2F834E
:1014B0000E94B12A2F81112309F4D5C2005E0830A1
:1014C00010F0211104C0812F0E943C2A06C0109503
:1014D000909164031923109364030E94432AC3C2AA
:1014E000812F807F1F70803211F01295107F222390
:1014F00019F02130D9F143C0FF2021F19923F1F0F7
:10150000913079F480916703182B811709F4ABC2ED
:101510000E942629909366038093650310936703C6
:10152000A2C2943059F40E94312A80919D0218136E
:1015300010939D02812F0E94571E95C280916703D0
:10154000812BF9CF992349F0913069F48091F90109
:10155000812309F488C20E940A1A0E94312A812F2D
:101560000E94501E80C29430C1F77DC2FF2021F03E
:10157000923008F078C2DECF911175C2F0CFFF2013
:1015800019F09923B9F200C2992349F30FC2812FB0
:1015900086958695837090E0009719F0019759F031
:1015A00062C2FF2019F0C801937002C080E090E091
:1015B0000E94A42466C2FF2019F0C801937002C0E3
:1015C00080E090E00E948E245CC2FF20F9F0053F8D
:1015D00051F0063F71F0043FA9F48091F101909120
:1015E000F20181600BC08091F1019091F201826063
:1015F00005C08091F1019091F20184609093F20115
:101600008093F101802F0E946E281EC0053F51F08B
:10161000063F71F0043FA9F48091F1019091F2012D
:101620008E7F0BC08091F1019091F2018D7F05C0FA
:101630008091F1019091F2018B7F9093F201809360
:10164000F101802F0E94A9270E9432291AC2812FFE
:10165000837009F079C0F11012C2802F82958695AF
:101660008770880F880F402F4F7050E060E070E067
:101670004A015B01082E04C0880C991CAA1CBB1CE3
:101680000A94D2F704FF14C04FE050E060E070E02D
:101690002A013B0104C0440C551C661C771C8A952A
:1016A000D2F7B301A201409550956095709503C0A3
:1016B00040E050E0BA01169516951370812F90E026
:1016C000009168031091690320916A0330916B03C4
:1016D00082309105A9F083309105E9F0019759F026
:1016E000482959296A297B29CB01BA016023712332
:1016F0008223932326C0802A912AA22AB32A1BC0C0
:10170000482959296A297B29CB01BA016027712709
:101710008227932716C0CB01BA016023712382234D
:1017200093230E94041C40916803509169036091C7
:101730006A0370916B03CB01BA01682979298A2960
:101740009B290E94041C9BC1FF2019F0812F8170EE
:1017500001C08695882309F492C1802F82958695D1
:101760008770880F880F402F4F7050E060E070E066
:101770004A015B01082E04C0880C991CAA1CBB1CE2
:101780000A94D2F704FF14C04FE050E060E070E02C
:101790002A013B0104C0440C551C661C771C8A9529
:1017A000D2F7B301A201409550956095709503C0A2
:1017B00040E050E0BA01169516951370812F90E025
:1017C0000091990210919A0220919B0230919C0203
:1017D00082309105A9F083309105E9F0019759F025
:1017E000482959296A297B29CB01BA016023712331
:1017F0008223932326C0802A912AA22AB32A1BC0BF
:10180000482959296A297B29CB01BA016027712708
:101810008227932716C0CB01BA016023712382234C
:1018200093230E94E01A4091990250919A0260918C
:101830009B0270919C02CB01BA01682979298A29FF
:101840009B290E94E01A1BC1402F50E0FA01E05E84
:10185000F109E531F10508F092C0E058FF4F0C9412
:101860009B2C0F70812F8F71FF2021F00E94D31BC2
:10187000802F61CE0E94AE1B802F72CEFF2009F117
:101880009111F1C01F7181E090E0A0E0B0E0AC01E7
:10189000BD0104C0440F551F661F771F1A95D2F76C
:1018A0008091990290919A02A0919B02B0919C0222
:1018B0008A019B01082719272A273B27C901B8015C
:1018C00026C0923008F0CFC0DDCFFF2039F0812F45
:1018D0008F710E94D31BC7C0FF20C9F3812F8F7166
:1018E0000E94AE1BC0C0FF2079F01F7181E090E024
:1018F000A0E0B0E0BC01CD0104C0660F771F881FD7
:10190000991F1A95D2F703C060E070E0CB010E94E6
:10191000E01AA9C0FF20E1F080919D029E830E9401
:101920003C2A8091620387709E81843039F40E9442
:10193000912A812F8F710E94AE1BD1C0943008F084
:10194000CEC01F71812F0E94D31B63E0812F10C076
:101950002091F90180919D02822B8093F9019430AE
:1019600050F00E94912A0E940A1A64E0812F8F7120
:101970000E94F41BB4C081E00E94982AB0C0FF20EE
:1019800039F0992309F4A3CF802F0E94112B6BC04B
:10199000992309F4A3CF093349F41FEF27EE33E06D
:1019A000115020403040E1F700C00000802F0E941D
:1019B000B12A59C0223FB1F028F4203F49F0213F1D
:1019C000F9F028C0243FB9F058F0253F71F022C04B
:1019D000FF2009F456C09091290281E0892708C0B0
:1019E00081E0F826F09229024CC0F1104AC081E053
:1019F0008093290246C0F11044C01092290241C0D0
:101A0000FF2029F080912802882329F329C09923F7
:101A100011F337C0809128029923C1F0882341F047
:101A20009091290281E0892780932902109228024F
:101A3000802FFF2019F00E94112B23C00E94B12A91
:101A400086E0D6011D928A95E9F71BC08823C9F06C
:101A5000F11017C09091290281E089278093290213
:101A6000109228020EC0B8E0AB16B10441F04CF061
:101A7000FAE0AF1AB10802E0A016B10410F40E9417
:101A8000BA24EE2071F18091620380FD2AC0D60154
:101A900012961C928595859585950E94D31BC6014B
:101AA0000E94FC0480916203859585958595279613
:101AB0000FB6F894DEBF0FBECDBFDF91CF911F915F
:101AC0000F91FF90EF90DF90CF90BF90AF909F90DD
:101AD0008F907F906F905F904F900C94AE1BE12C95
:101AE000CECF27960FB6F894DEBF0FBECDBFDF91E5
:101AF000CF911F910F91FF90EF90DF90CF90BF900B
:101B0000AF909F908F907F906F905F904F900895CF
:101B10009091B20292FF0DC0282F2871283019F43D
:101B2000877F846006C0282F2471243011F48B7FB6
:101B3000886093FF0DC0282F2871283119F4877E03
:101B4000846106C0282F2471243111F48B7E8861B2
:101B500094FD877E0895282F277081E090E001C0D2
:101B6000880F2A95EAF780959091640389238093E2
:101B700064030C94432A282F277081E090E001C071
:101B8000880F2A95EAF790916403892B8093640368
:101B90000C94432ACF93E82F873058F580910701A2
:101BA00090910801892B09F042C0CE2F80E40E9459
:101BB000C3149093080180930701892BB1F482E14B
:101BC0000E949C149093080180930701892B69F46B
:101BD00081E090E001C0880FCA95EAF780950E94E5
:101BE0009C14909308018093070184E98093BC00C2
:101BF0001EC090E0FC013797E730F105C0F4EB56CA
:101C0000FF4F0C949B2C209A289811C0219A299858
:101C10000EC0229A2A980BC0239A2B9808C0529A79
:101C20005A9805C0539A5B9802C03E9A4698CF9145
:101C30000895CF93DF93873008F047C08091070164
:101C400090910801892B09F049C080E40E94C314D7
:101C50009093080180930701892B11F080E031C037
:101C600083E10E949C149093080180930701892BC3
:101C7000A9F781E40E94C31490930801809307019F
:101C8000892B61F784E88093BC000E942629EC012F
:101C90009091BC0097FD0EC00E9426298C1B9D0BC5
:101CA00084369105A8F38EEF9FEF909308018093FF
:101CB0000701D4CF8091BB0080951092080110924B
:101CC000070194E99093BC000AC09FB18FB1807F57
:101CD000869586959370892B809501C080E0DF9171
:101CE000CF9108959091E50290FF0FC020E030E081
:101CF000F901E051FD4F8183608342832C5F3F4FA8
:101D00002C333105A9F70C94492508958091E502FB
:101D100080FF02C08695089580E008958091E502D5
:101D2000282F269530E02115310519F48170826045
:101D300005C02532310524F0817088648093E50266
:101D40000895CF93DF9300D000D0CDB7DEB7AB01BD
:101D5000BC0149835A836B837C830E948E0E498128
:101D60005A816B817C8188E090E00F900F900F90FA
:101D70000F90DF91CF910C94512CE5EEF2E0808131
:101D80008E7F808360817181828193810E94A10E08
:101D90001092EB022FEF80E792E0215080409040BC
:101DA000E1F700C000000C944925E5EEF2E083E085
:101DB000808311828FEF828383831482608171819B
:101DC000828193810C94A10EAF92BF92CF92DF9249
:101DD000EF92FF920F931F93CF93DF93C82ED62ECF
:101DE000E901662309F47FC0E62EF12C042F10E0F0
:101DF00026E0829FC0011124EFEFF0E0BF010E94B6
:101E0000732C5BEA56039001579F300D11242C0D63
:101E1000311D2C0D311D822F880F280FCF018E19F7
:101E20009F09809FD001819FB00D909FB00D11241C
:101E30008B2F2D9D60011124CD2CDD245F01AC186A
:101E4000BD08A09E6001A19ED00CB09ED00C1124B4
:101E50005F01A21AB108AE9C9001AF9C300DBE9CF0
:101E6000300D1124232F3327E21BF30BE09F900149
:101E7000E19F300DF09F300D1124932F62307105DA
:101E800091F04CF461157105E9F061307105C1F410
:101E9000942F4D2D17C06430710569F044F0663001
:101EA000710581F00DC0942F4B2F832F0BC09D2DFA
:101EB000E42F4B2F03C0E42F432F9B2F8E2F02C004
:101EC0009B2F8D2DE42FF0E0E45EF94F2491492FF4
:101ED00050E0FA01E45EF94F4491E82FF0E0E45E4F
:101EE000F94F849102C0842F242F298348838A8349
:101EF000DF91CF911F910F91FF90EF90DF90CF90E6
:101F0000BF90AF9008955F926F927F928F929F9251
:101F1000AF92BF92CF92DF92EF92FF920F931F93F7
:101F2000CF93DF9300D000D0CDB7DEB7182F762E39
:101F3000042F622E9091E50290FF6DC0E92FE69587
:101F4000AE2FB0E0A05EBE4F8C918093EA029E7FE0
:101F5000923061F49E012F5F3F4F812F0E94E40E6B
:101F60004B8169818A810E94720E43C0823019F4CC
:101F70000091E8023EC0863019F41091E60239C0A3
:101F80008930D9F38931A9F5E9518E2F8170582E06
:101F9000E695F0E0E45EF84FA590B49080EFC82E8F
:101FA00082E0D82EE12CF12CBB249FE0892E912CCD
:101FB000EA9CC001EB9C900DFA9C900D1124B40199
:101FC0000E94732C812F511002C0860F01C0861B06
:101FD0009601402F672D0E94E40E8FEFE81AF80A51
:101FE00084E0C80ED11C8FE0E816F10409F70E94C6
:101FF00049251093E6027092E7020093E8026620FA
:1020000051F06091E5027091E6028091E7029091B3
:10201000E8020E94A10E0F900F900F900F90DF9199
:10202000CF911F910F91FF90EF90DF90CF90BF90D5
:10203000AF909F908F907F906F905F90089521E078
:102040000C94830F9091E50290FF36C0917081113E
:1020500002C0926006C0853210F0986402C0880FFA
:10206000982B9093E502662351F06091E502709100
:10207000E6028091E7029091E8020E94A10E609131
:10208000E502669570E04BE050E083E191E00E944C
:10209000CE2D892B19F01092EB0202C00E9433253D
:1020A00081E08093E20220E04091E8026091E70243
:1020B0008091E6020C94830F089560E00C94221046
:1020C000E5EEF2E080818160808386950C945D105E
:1020D00061E00C942210E5EEF2E080818160808363
:1020E00086950C9468108091E5028695815009F4DC
:1020F00084E261E00C9422108091E50286958F5F66
:10210000853208F081E061E00C942210CF93DF93D8
:1021100000D000D0CDB7DEB79091E50290FF0AC0A5
:102120009E012F5F3F4F0E94E40E4B8169818A819F
:102130000E94720E0F900F900F900F90DF91CF9131
:1021400008956091A0028CE090E00C943F2CCF9316
:10215000DF9326E0729FF001112434E5839FE00DA8
:10216000F11D1124E60FF11DEE0FFF1FEC57FE4F7E
:10217000C591D491CE01C238D10549F1B0F4C13333
:10218000D10509F464C048F4C932D10509F458C036
:10219000CA32D10509F462C068C0C533D10509F45B
:1021A00048C0C933D10599F060C0C33ED10541F1A3
:1021B00038F4C03ED10591F0C23ED105B1F055C012
:1021C000C63ED10521F1C73ED10561F14EC0209137
:1021D000B20220FD14C221FD12C213C22091B2022C
:1021E00020FF0FC289E390E00CC22091B20222FFCF
:1021F00008C28091B20284FDB4C183EE90E001C2B6
:102200008091B20282FFF5CF82EE90E0FAC1209178
:10221000B20223FFF6C18091B20284FDA2C187EE13
:1022200090E0EFC18091B20283FFF5CF86EE90E09F
:10223000E8C12091B20225FFE4C189E290E0E1C14A
:102240002091B20225FFDDC185E390E0DAC1209143
:10225000B20226FFD6C18AE290E0D3C12091B20239
:1022600026FFCFC181E390E0CCC1C11520E5D207A4
:1022700008F047C0C11530E4D30708F034C1C83EA8
:10228000D10518F5C03ED10508F0BBC1C83AD1054B
:1022900070F4C53AD10508F0B0C0C130D10509F4D9
:1022A000B0C108F45EC1249708F45BC1AAC1CF3B5A
:1022B000D10508F4ADC0C03CD10508F452C1FE01FF
:1022C000EE0FFF1FE456FB4F02C1C11520E2D207FB
:1022D00060F4C11531E0D30708F093C1C03FD105C8
:1022E00008F43FC1CE0190658CC1C11580E3D807C9
:1022F00008F0F0C0FE01FF70EE0FFF1FE45EF94F23
:10230000E6C0C11595E5D90708F044C0C11524E51C
:10231000D20708F000C1C11532E5D30710F5C11589
:1023200081E5D80708F0E3C02C2F237081E090E00E
:1023300002C0880F991F2A95E2F79C689E0174E0FD
:10234000369527957A95E1F72370922BEC2FEF7055
:10235000E695E69530E2E39FF00111248E2B9F2B4A
:1023600050C18C2F86958695AE0143705527C115B7
:10237000D34508F0C1C090E2899F9001112481E00B
:1023800090E002C0880F991F4A95E2F7822B932BA9
:102390009C6837C1C1152AE5D207A0F4C11539E5FB
:1023A000D30708F0C6C0C11586E5D80708F4B8C041
:1023B000C11598E5D90708F4D4C09C2F8827806FF1
:1023C000906A1FC1C1152BE5D20708F4CAC0CE011F
:1023D000C1153CE5D30708F4C1C090568115904261
:1023E00008F0BFC08D2F8F710E94880DFE01FF275E
:1023F000F0628F719F01382BAFC0C53AD10509F447
:10240000B3C0C63AD10509F0B2C082E890E4F9C081
:10241000C83AD10509F4AEC0C93AD10509F4ADC036
:10242000CA3AD10509F4ACC0CB3AD10509F4ABC026
:10243000CC3AD10509F4AAC0CB3BD10509F4A9C017
:10244000CC3BD10509F4A8C0CD3AD10509F4A7C009
:10245000C03BD10509F4A6C0CE3AD10509F4A5C008
:10246000CF3AD10509F4A4C0C13BD10509F4A3C0FA
:10247000C23BD10509F4A2C0C33BD10509F4A1C0F8
:10248000C43BD10509F4A0C0C53BD10509F49FC0E8
:10249000C63BD10509F49EC0C73BD10509F49DC0D8
:1024A000C83BD10509F49CC0C93BD10509F49BC0C8
:1024B000CD3BD10509F49AC0CE3BD10509F499C0B2
:1024C000CA3BD10509F498C080E094E49AC0859194
:1024D000949197C09E013327C901D3FF02C0986C25
:1024E00090C0906C8EC0CE019F70906A8AC09C2F65
:1024F0008827816F906A85C090E2899F900111249E
:1025000081E090E002C0880F991F4A95E2F7822B84
:10251000932B9A6876C09C2F8827846F906A71C02D
:102520008C2F0E94880D8F7190E0982F88279062E1
:1025300068C08C2F8F700E94880DFE0194E0F69584
:10254000E7959A95E1F7EF70F0E0FE2FEE27F06A3D
:102550008F70806E9F01282BC90153C09927906608
:1025600050C080E090E04DC081E890E44AC083E82C
:1025700090E447C082EE94E444C089EE94E441C004
:102580008AEE94E43EC085EB94E43BC086EB94E491
:1025900038C083EB94E435C084EB94E432C087EB1D
:1025A00094E42FC08CEC94E42CC08DEC94E429C00E
:1025B00083E895E426C08AE895E423C082E995E49F
:1025C00020C084E995E41DC081E296E41AC083E24C
:1025D00096E417C084E296E414C085E296E411C044
:1025E00086E296E40EC087E296E40BC08FE694E4A0
:1025F00008C080E794E405C08AE296E402C080EE59
:1026000090E0DF91CF91089580E290E090930801EF
:10261000809307018091F501811111C01092B900DA
:102620008CE08093B80081E08093F5012FEF83ED7B
:1026300090E3215080409040E1F700C0000080E42A
:102640000E94C3149093080180930701892B09F01D
:1026500040C080E00E949C14909308018093070181
:10266000892BB9F580E00E949C1490930801809317
:102670000701892B71F58FE30E949C149093080148
:1026800080930701892B29F584E98093BC0080E4BD
:102690000E94C3149093080180930701892BC9F409
:1026A0008CE00E949C149093080180930701892B71
:1026B00081F480E00E949C149093080180930701AC
:1026C000892B39F48FE30E949C1490930801809326
:1026D000070184E98093BC00809107010895569812
:1026E0005E9825982D9826982E9827982F988FEFEA
:1026F00090E0909389008093880090938B00809362
:102700008A0090938D0080938C00259A2D9A2FEF4C
:1027100080E792E0215080409040E1F700C0000047
:10272000269A2E9A2FEF80E792E021508040904029
:10273000E1F700C00000279A2F9A2FEF80E792E080
:10274000215080409040E1F700C0000025982D986E
:102750002FEF80E792E0215080409040E1F700C0E9
:10276000000026982E982FEF80E792E021508040BD
:102770009040E1F700C0000027982F9856985E9887
:1027800025982D9826982E9827982F98089584B1EB
:10279000807F84B985B1807F85B98AB1837F8AB90A
:1027A0008BB1837F8BB93E984698089580B38C7027
:1027B00080BB81B3836F81BB0895AF92BF92CF92EC
:1027C000DF92EF92FF920F931F93CF93DF9380914D
:1027D000070190910801892B91F08091F4018F5F9E
:1027E0008093F40181110BC00E94041390E0909338
:1027F000080180930701892B11F40E946F1304EAEA
:1028000012E02BEAE22E22E0F22E6801C0E0D0E0D6
:1028100097E0A92EAC0E8C2F0E94CA0D8A2D0E9423
:10282000CA0D8C2F0E94190EF6019081981721F085
:102830008083BB24B39401C0B12C8A2D0E94190E51
:10284000F7019081981719F0808381E001C080E042
:10285000B82ADB290E94C713CF5FFFEFCF1ADF0A28
:102860008FEFE81AF80AC73099F60E9426296AEF16
:1028700070E00E94732C9C01682F8091F3018823E3
:1028800009F44CC01092F301E0919E02F0919F0276
:10289000DF011E9690E07BEF8AEFE82EF12C80811D
:1028A0008B3FA9F0482F50E0681728F06901C41A3F
:1028B000D50AA60106C06701C41AD50AA601420FAF
:1028C000531F4530510514F0708301C091E03196DB
:1028D000EA17FB0721F79093F301D11102C0911180
:1028E0001FC0A0919E02B0919F028091F301E8EB7E
:1028F000F2E02EE02E0F3081E80199918E014C918B
:102900004B3F29F4391719F06C93908381E01196AD
:1029100031962E13F0CF8093F30102C0D111E1CF95
:1029200081E0DF91CF911F910F91FF90EF90DF90A9
:10293000CF90BF90AF900895CF93DF938093BB006B
:1029400084E88093BC000E942629EC019091BC0091
:1029500097FD0AC00E9426298C1B9D0B8436910589
:10296000A8F38EEF9FEF0CC02091B900287F81E083
:1029700090E0283211F480E090E0919581959109E2
:10298000DF91CF9108950F931F93CF93DF93C82FBB
:102990001092BC0084EA8093BC000E9426298C011E
:1029A0009091BC0097FD0AC00E942629801B910BC4
:1029B00084369105A8F38EEF9FEF2AC09091B9005D
:1029C000987F983041F09091B900987F903119F03C
:1029D0008FEF9FEF1DC0C093BB0084E88093BC00C5
:1029E0000E942629EC019091BC0097FD08C00E942E
:1029F00026298C1B9D0B84369105A8F3DCCF809192
:102A0000B900887F883111F0803411F780E090E0C0
:102A1000DF91CF911F910F910895CF93DF93EC0138
:102A200080EEFE01099581EEFE01DF91CF910994C0
:102A3000CF92DF92FF920F931F93CF93DF931F925A
:102A4000CDB7DEB7F82E8B0199830E94691E99815C
:102A500081111CC0CF2CD92E01151105B1F0809128
:102A6000E80085FD0AC08091E8008E778093E80039
:102A70000E94691E882381F309C0F60181916F01CC
:102A80008093F10001501109E7CF80E00F90DF91B2
:102A9000CF911F910F91FF90DF90CF9008951F93DA
:102AA000CF93DF93CDB7DEB7AA970FB6F894DEBF0A
:102AB0000FBECDBFE0E2F2E088E08E0F9091F10012
:102AC00091938E13FBCF80912102833009F460C073
:102AD00030F4813071F0823009F49CC0B3C08A3088
:102AE00009F488C08B3009F46BC0893009F0AAC0A2
:102AF00020C080912002813A09F0A4C08091E800B2
:102B0000877F8093E8008091240290912502892B91
:102B100021F460E28CEF91E003C060E080E090E09F
:102B200070E00E94EF1E8091E8008B778093E800B0
:102B300089C080912002813209F084C080912402F2
:102B400090912502029708F07DC08091E800877F70
:102B50008093E8008091E80082FD05C080911E020C
:102B60008111F8CF6FC02091F3008091F20090E0C6
:102B7000922B029729F48091F1008B7F813021F410
:102B80008091F1008093FB018091E8008B7756C023
:102B900080912002813A09F055C0809124029091E1
:102BA0002502892B09F04EC08091E800877F809331
:102BB000E8008091E80080FFFCCF8091060139C0D9
:102BC000809120028132F1F58091240290912502BA
:102BD000892BC1F58091E800877F8093E8000E94EF
:102BE0009B1E80912202809306011092F9010E949F
:102BF0003D1E28C080912002813221F58091E8009D
:102C0000877F8093E8000E949B1E8091230280931F
:102C1000FA0118C080912002813AA1F48091E80065
:102C2000877F8093E8008091E80080FFFCCF80914F
:102C3000FA018093F1008091E8008E778093E8009C
:102C40000E949B1E8091E80083FFD6C180912002E4
:102C500090912102492F50E04A30510508F0CCC133
:102C6000FA01E456FF4F0C949B2C803821F08238F7
:102C700009F0C2C108C080911C0290911D029923E5
:102C800089F082600FC0809124028F70873008F035
:102C9000B3C18093E9008091EB0085FB882780F920
:102CA0001092E9009091E800977F9093E80080935C
:102CB000F1001092F10074C1282F2D7F09F09CC102
:102CC000882319F0823061F097C18091220281300F
:102CD00009F092C1933009F080E080931D022EC06C
:102CE0008091220281112AC0809124028F702FEFDF
:102CF000280F263008F080C18093E9002091EB0076
:102D000020FF1CC0933021F48091EB00806214C03E
:102D10009091EB0090619093EB0021E030E0A901ED
:102D200002C0440F551F8A95E2F74093EA001092C3
:102D3000EA008091EB0088608093EB001092E9003C
:102D40008091E800877F2FC1811156C11091220226
:102D50001F778091E3008078812B8093E30080913E
:102D6000E800877F8093E8000E949B1E8091E80026
:102D700080FFFCCF8091E30080688093E300111115
:102D800002C082E001C083E080931E0235C18058FA
:102D9000823008F031C180912202909123028C3D53
:102DA00053E0950779F583E08A838AE289834FB7F8
:102DB000F894DE01139620E03EE051E2E32FF0E0CC
:102DC00050935700E49120FF03C0E295EF703F5FFE
:102DD000EF708E2F90E0EA3010F0C79601C0C096D9
:102DE0008D939D932F5F243149F74FBF8091E80069
:102DF000877F8093E8006AE270E0CE0101960E942E
:102E0000EF1EBDC04091240250912502292F332787
:102E100023303105B9F06CF42130310509F4FBC0E1
:102E20002230310509F0E8C08BE390E0E1E2F8E000
:102E300054C02132310509F433C02232310509F47E
:102E40003CC0DAC0992781309105D1F05CF4892B20
:102E500009F0D2C0E4EAF8E0E4918E2F90E0E4EAD1
:102E6000F8E038C08230910599F0039709F0C4C0AA
:102E7000EEE6F8E0E4918E2F90E0EEE6F8E02AC06E
:102E8000ECE8F8E0E4918E2F90E0ECE8F8E022C066
:102E9000E4E7F8E0E4918E2F90E0E4E7F8E01AC070
:102EA0004115510509F4BCC04130510509F0A4C0D9
:102EB00089E090E0ECE4F8E010C04115510509F418
:102EC000B4C04130510509F097C080EC90E0E1E2D8
:102ED000F7E003C0009709F48FC02091E800277F36
:102EE0002093E80020912602309127022817390705
:102EF00008F4C90140E0009789F120911E022223C5
:102F000009F43DC02530D9F12091E80023FD37C0F8
:102F10002091E80022FD2FC02091E80020FFEBCF98
:102F20004091F3002091F20030E0342B009759F0EB
:102F30002830310540F444914093F10031960197D7
:102F40002F5F3F4FF3CF41E02830310509F040E0DB
:102F50002091E8002E772093E800CDCF4111CDCF0E
:102F60000AC080911E02882351F0853041F0809183
:102F7000E80083FD04C08091E80082FFF2CF8091D9
:102F8000E8008B778093E80037C08038A9F58091FE
:102F9000E800877F8093E80080911F028093F10012
:102FA0008091E8008E778093E8000E949B1E24C0E9
:102FB000811122C0109122021230F0F48091E800B9
:102FC000877F8093E80010931F020E949B1E1111BF
:102FD00006C08091E30087FD02C081E001C084E06B
:102FE00080931E0242E061EC81E00E94BA1E42E240
:102FF00061EC82E00E94BA1E8091E80083FF1AC053
:103000008091E800877F8093E8008091EB008062E8
:103010008093EB000FC082E190E0ECE5F8E05DCF3B
:1030200089E090E0E3E3F8E058CF80E490E0E1EE5F
:10303000F7E053CFAA960FB6F894DEBF0FBECDBF10
:10304000DF91CF911F9108951F920F920FB60F92AB
:1030500011242F933F934F935F936F937F938F939D
:103060009F93AF93BF93CF93DF93EF93FF93C09161
:10307000E900CF708091EC00D82FD17080FDD0E8AE
:103080001092E9008091F000877F8093F00078949F
:103090000E944F151092E9008091F00088608093A3
:1030A000F000CD2BCF70C093E900FF91EF91DF913D
:1030B000CF91BF91AF919F918F917F916F915F91D0
:1030C0004F913F912F910F900FBE0F901F90189529
:1030D000E8EDF0E080818E7F80831092E200109214
:1030E000DA001092E100A0EEB0E08C9181608C9348
:1030F00080818F77808319BCA7EDB0E08C918E7FA3
:103100008C9380818F7E80831092F6010895CF92F8
:10311000DF92EF92FF920F931F93CF93DF93C8ED4F
:10312000D0E088818F7E8883E7EDF0E08081816048
:10313000808384E082BF81E08093F60188818E7F66
:10314000888302EE10E0F80110821092DA0081EE1E
:10315000C82ED12CF601108288818F7788838881D0
:103160008068888388818F7D888319BC10921E02B5
:1031700010921F0210921D0210921C0290EEE92E76
:10318000F12CF70180818B7F808388818160888327
:1031900042E060E080E00E94BA1EF60180818E7FEE
:1031A0008083F80180818160808380818860808352
:1031B000F70180818E7F8083888180618883DF91A1
:1031C000CF911F910F91FF90EF90DF90CF900895D6
:1031D0001F920F920FB60F9211242F933F934F938C
:1031E0005F936F937F938F939F93AF93BF93EF936F
:1031F000FF938091E10082FF09C08091E20082FF8D
:1032000005C08091E1008B7F8093E1008091DA001E
:1032100080FF2AC08091D80080FF26C08091DA000C
:103220008E7F8093DA008091D90080FF18C080E102
:1032300089BD82E189BD09B400FEFDCF81E08093A4
:103240001E028091F60181110FC00E9468180E9431
:1032500087188091E20084608093E20005C019BC69
:1032600010921E021092F6018091E10080FF17C0BB
:103270008091E20080FF13C08091E2008E7F8093F6
:10328000E2008091E20080618093E2008091D800AA
:1032900080628093D80019BC85E080931E028091E3
:1032A000E10084FF3DC08091E20084FF39C080E1ED
:1032B00089BD82E189BD09B400FEFDCF8091D800AF
:1032C0008F7D8093D8008091E1008F7E8093E10014
:1032D0008091E2008F7E8093E2008091E200816025
:1032E0008093E20080911F02882311F084E007C0E0
:1032F0008091E30087FD02C081E001C083E08093FC
:103300001E021092F9010E943D1E0E94BA241092E2
:10331000F8018091F70181110E9460100E9433250D
:103320008091E10083FF27C08091E20083FF23C0EA
:103330008091E100877F8093E10082E080931E020C
:1033400010921F028091E1008E7F8093E1008091B6
:10335000E2008E7F8093E2008091E20080618093A2
:10336000E20042E060E080E00E94BA1E8091F0003E
:1033700088608093F000FF91EF91BF91AF919F9192
:103380008F917F916F915F914F913F912F910F900E
:103390000FBE0F901F901895109264031092630354
:1033A0000E94432AE6ECF2E086E0DF011D928A9556
:1033B000E9F71092CC02109270030E94322980E04B
:1033C00090E00E94A42480E090E00C948E240E945F
:1033D000262920916503309166038217930750F0E8
:1033E0000E9426292091650330916603821B930B6E
:1033F0009C010AC00E942629209165033091660332
:1034000020953095280F391F81E0203A3F4008F47D
:1034100080E0089580919D02811110929D0208958F
:10342000BF92CF92DF92EF92FF920F931F93CF93B1
:10343000DF938C01C0906803D0906903E0906A0329
:10344000F0906B038091990290919A02A0919B0257
:10345000B0919C02C82AD92AEA2AFB2ACFE1D0E0FF
:10346000D701C6010C2E04C0B695A79597958795F0
:103470000A94D2F780FF07C0BC2EB8018C2F0E949F
:10348000A710019719F4219758F7B12C8B2DDF91D4
:10349000CF911F910F91FF90EF90DF90CF90BF9051
:1034A0000895CF93DF93EC010E94101ABE010E9491
:1034B000A710DF91CF9108950E94511A292F2F70E4
:1034C00092959F70E92FF0E03297EE30F105B8F455
:1034D000EA55FF4F0C949B2C803F99F018F4803EE6
:1034E00070F40FC0843F59F40CC0803E50F0813F0F
:1034F00031F407C0822F869586958695089580E0E1
:10350000089581E00895292F220F920F990F890FB6
:10351000682F669566956695982F977085E0689FE9
:10352000B001112440E050E080E0FA01E60FF71FFF
:10353000EE59FD4F208130E0092E02C036952795C7
:103540000A94E2F721703327042E01C0220F0A9457
:10355000EAF7822B4F5F5F4F4530510531F70895F1
:10356000292F220F920F990F890FA82FA695A695A4
:10357000A695877051E001C0550F8A95EAF785E05E
:10358000A89FD001112420E030E070E0F901EA0F9B
:10359000FB1FEE59FD4F4081CB01022E02C09695D4
:1035A00087950A94E2F7817099278195842785236E
:1035B000842780832F5F3F4F2530310539F70895E9
:1035C000CF92DF92EF92FF926B017C01AA27BB277B
:1035D0000097A105B10511F0E0E103C0D701C601D4
:1035E000E0E0492F5A2F6B2F7727411551056105D0
:1035F000710519F0E85FDB01CA01AC01BD01F4E01F
:103600007695679557954795FA95D1F741155105E8
:103610006105710519F0EC5FDB01CA01AC01BD0168
:1036200032E076956795579547953A95D1F74115CC
:1036300051056105710519F0EE5FDB01CA01B69510
:10364000A79597958795892B8A2B8B2B09F0EF5F90
:1036500056985E9825982D9826982E9827982F98FA
:103660008E2F90E0FC013197E730F10500F5EC5426
:10367000FF4F0C949B2C259A2D9A57C0279A2F9A6E
:1036800040C0259A2D9A269A2E9A45C0259A2D9AA1
:10369000279A2F9A40C0269A2E9A279A2F9A45C089
:1036A000259A2D9A269A2E9A279A2F9A49C08730C2
:1036B000910508F045C0FC01E554FF4F0C949B2C8C
:1036C00088E090E00E94332C6093E5027093E6025C
:1036D0008093E7029093E80260FF10C00E946B1095
:1036E0008091E50286950E9468104091E802609101
:1036F000E7028091E6020E941F1022C00E94BD0EC8
:103700001FC00E94601081E00E945D1020E04FEF1A
:103710006FEF8CE113C00E94601081E00E945D1089
:1037200020E04FEF6FEF86E109C00E94601081E05A
:103730000E945D1020E04FEF6FEF8BE00E94830F3F
:10374000C0929902D0929A02E0929B02F0929C025F
:10375000FF90EF90DF90CF900C94CC190F931F93B4
:1037600041E050E060E070E004C0440F551F661F68
:10377000771F8A95D2F74095509560957095809106
:10378000990290919A02A0919B02B0919C028A01A9
:103790009B01082319232A233B23C901B8011F9148
:1037A0000F910C94E01A0F931F9341E050E060E0FA
:1037B00070E004C0440F551F661F771F8A95D2F72B
:1037C0008091990290919A02A0919B02B0919C02E3
:1037D0008A019B01082B192B2A2B3B2BC901B8010D
:1037E0001F910F910C94E01A98E0899F9001112489
:1037F000262B209362030E94D31B0E9426299093BC
:103800006103809360030895609368037093690374
:1038100080936A0390936B030C94CC19809161029E
:1038200090913002891719F08F5F8770FBCF089550
:1038300080912F0282958F7009F054C080912C02E4
:10384000882309F44FC080916102A09130026091F9
:103850002A0270912B0240912D0250912E02B6E067
:103860008A1709F43FC090E041155105C1F17F3F2F
:1038700011F46F3FA1F1B89FF001B99FF00D112431
:10388000EF5CFD4F218172132AC02081621327C093
:103890002281211124C0238134812417350710F49B
:1038A00021503109241B350B2C3D3105C0F42091EA
:1038B0002F022F70206120932F0226E0289FF00115
:1038C000299FF00D1124EA5CFD4F80818F7080618B
:1038D00080838AE292E00E94FC040C940E1C019604
:1038E0008770BECF0895BF92CF92DF92EF92FF9282
:1038F0000F931F93CF93DF93CDB7DEB761970FB6CA
:10390000F894DEBF0FBECDBF8C0185E0F801DE016B
:103910001D9601900D928A95E1F7D8013C91119680
:103920002C9111971296EC9012971396CD90DC90F3
:10393000149750912A0260912B0280912D02909150
:103940002E02009709F44FC16F3F19F45F3F09F44D
:103950004AC1B0902C02BB2009F4ECC040912F0268
:10396000C816D90628F0F601E81BF90BCF0104C0F0
:10397000809590958C0D9D1DFF24F3948C3D9105B1
:1039800048F0F12C407F09F09FC08AE292E00E944B
:10399000FC0421C1842F807F09F044C0621312C04F
:1039A000531310C0E1100EC04F70406140932F02BE
:1039B0008AE292E00E94FC0480912F02D8011596C1
:1039C0008C932EC0CD2819F12F3F11F43F3FF9F011
:1039D000FE2CE1101CC0809161024091300256E043
:1039E000841709F458C090E0589FF001599FF00DDA
:1039F0001124EF5CFD4F6181261306C060813613F0
:103A000003C06281611103C001968770E9CFFE2C6B
:103A1000EE2009F421C180912F02816080932F0252
:103A2000F12C1AC162130AC0531308C0E11006C07A
:103A300080912F02D80115968C93B0C03D872E87B8
:103A40008D859E850E945C1A8823D1F1EE20C1F1FC
:103A500020912F02822F82958F7090E0029774F050
:103A600080912A0290912B0298878F831986DB869A
:103A7000CA862C87CE0107960E94FC0486E0F801D6
:103A8000AAE2B2E001900D928A95E1F70E94181C1B
:103A9000FF24F394E1C03D872E878D859E850E948B
:103AA000511A292F22952F7030E0223031050CF069
:103AB000C7C09F7009F0C1C0805E883008F4CCC0D8
:103AC000C8010E94FC04E4CF621314C0531312C057
:103AD000E11010C080912F02F8018583C8010E9477
:103AE000FC0486E0EAE2F2E0DF011D928A95E9F744
:103AF000FB2CB2C03D872E878D859E850E945C1A67
:103B00008823F1F2EE20E1F220912F02822F82959C
:103B10008F7090E002970CF4B1CF80912A029091BF
:103B20002B029A8389831B82DD82CC822E83CE0175
:103B30000196A2CFC816D90638F0C81AD90ABCED2A
:103B4000CB16D10450F007C0809590958C0D9D1D2B
:103B50008C3D910510F0F12C3EC0FE2CEE2009F4B6
:103B6000AFCF621327C0531325C020912F0220FD31
:103B700018C0822F82958F70482F50E04115510553
:103B800081F0F80125834F30510541F08F5F982F68
:103B90009295907F822F8F70892B8583C8010E9418
:103BA000FC0486E0F801AAE2B2E001900D928A9549
:103BB000E1F752C03D872E878D859E850E945C1A55
:103BC00081115CCF80912F02816080932F02C80108
:103BD0000E94FC0441C0EAE2F2E086E0DF011D92AF
:103BE0008A95E9F739C0EE2009F46ACF3D872E8720
:103BF0008D859E850E945C1AF82E882309F460CF7B
:103C000086E0F801AAE2B2E001900D928A95E1F710
:103C100080912A0290912B020E94511A92959F70D6
:103C2000963041F48091290291E0892780932902FE
:103C3000909328020E94181C0FC081113DCF0CC028
:103C4000243031050CF03CCF9F7009F435CFF801DA
:103C50009581907F09F030CF8F2D61960FB6F89443
:103C6000DEBF0FBECDBFDF91CF911F910F91FF90AF
:103C7000EF90DF90CF90BF90089580910601882348
:103C800031F08091B20287FF02C08EE101C086E070
:103C9000E2E4F3E0DF011D928A95E9F70C94CC1978
:103CA000882321F00E943C2A0C94432A08958823FB
:103CB00039F09091F901892B8093F9010C94432AF2
:103CC0000895CF93C82F0E94112B8C2FCF910C9465
:103CD000B12A2091E4003091E50095E64091EC0096
:103CE000842F817040FF22C08091E80080FD1CC0BD
:103CF00080911E02882391F0853091F08091EB0035
:103D000085FD10C04091E4005091E5004217530733
:103D100029F39A01915011F784E0089582E0089503
:103D200083E0089581E0089580E008954091E800DF
:103D300042FFDECF08958091200287FF11C080915D
:103D4000E80082FD05C080911E028111F8CF11C0EC
:103D50008091E8008B770BC080911E02882349F088
:103D60008091E80080FFF8CF8091E8008E77809303
:103D7000E8000895982F973058F59093E900981728
:103D800039F07091EC002091ED005091F00003C0EB
:103D9000242F762F50E021FF19C03091EB003E7F99
:103DA0003093EB003091ED003D7F3093ED0030918A
:103DB000EB0031603093EB007093EC002093ED004A
:103DC0005093F0002091EE0027FF07C09F5FD3CFF4
:103DD0008F708093E90081E0089580E0089520913C
:103DE0002602309127022617370748F06115710522
:103DF00039F42091E8002E772093E80001C0B90142
:103E000040E061157105A9F120911E02222309F4F9
:103E100043C0253009F442C02091E80023FD40C092
:103E20002091E80022FD32C02091E80020FFE9CF78
:103E30004091F3002091F20030E0342BFC01CF01DF
:103E40006115710559F02830310540F48191809356
:103E5000F100615071092F5F3F4FF1CF41E02830F1
:103E6000310509F040E02091E8002E772093E8002A
:103E7000C8CF4111C9CF0AC080911E02882361F0CA
:103E8000853061F08091E80083FD0AC08091E800F0
:103E900082FFF2CF80E0089582E0089583E00895E4
:103EA00081E008958091EC02811107C080911E028B
:103EB000843011F081E0089582E00895CF93DF937C
:103EC000CDB7DEB72C970FB6F894DEBF0FBECDBFCF
:103ED00084B7877F84BF0FB6F894A895809160005F
:103EE000886180936000109260000FBE80E880932C
:103EF00061001092610085B7806885BF85B78068D2
:103F000085BF0E9468180E9487188091E200846033
:103F10008093E200789480911E028823A1F0109192
:103F2000E9001F709091EC00892F817090FD80E86E
:103F3000182B1092E9008091E80083FD0E944F1534
:103F40001F701093E90082E084BD93E095BD9AEF65
:103F500097BD80936E000E94041390E09093080137
:103F6000809307010E94C7130E94D613A4EAB2E00F
:103F7000E8EBF2E05EE0D52EDE0E11921D92DE122D
:103F8000FCCF8EE090E00E94A12C80939E02909343
:103F90009F02FC010E962BEF2193E817F907E1F73A
:103FA0000E94D429811102C00E94DF298CE090E098
:103FB0000E942B2C90E0A0E0B0E08093A0029093B0
:103FC000A102A093A202B093A30289EA8093800089
:103FD00089E08093810024982C983F988AB18F7C47
:103FE0008AB96E98479A8BB180638BB9769A0E9492
:103FF0006F130E94D429811102C00E94DF2982E040
:1040000090E00E942B2C8093D00284E090E00E94EC
:104010002B2C90E09093B3028093B20283E090E067
:104020000E942B2C682F70E080E090E00E94041C1E
:104030008091B402811137C08091D0028160809359
:10404000D0020E94D429811104C00E94DF290E945D
:10405000D50E88E090E00E94332C6093E5027093C7
:10406000E6028093E7029093E8026E7F71F40E946B
:10407000D50E88E090E00E94332C6093E5027093A7
:10408000E6028093E7029093E8020E948E0E10925F
:10409000EB028091E50280FF03C086950E945D10CF
:1040A00081E08093B40289E091E09093B60280931E
:1040B000B50248EAE42E48E0F42E80911E028530D5
:1040C00009F065C080911E02843009F441C010924D
:1040D000B70220E488E190E00FB6F894A8958093A9
:1040E00060000FBE209360001092EB028091F801F7
:1040F000811117C081E08093F8018091E502982F2B
:1041000091709093F7018E7F8093E5022FEF30E757
:1041100042E0215030404040E1F700C000000E94E2
:10412000492583B7817F846083BF83B7816083BF64
:104130007894889583B78E7F83BF0FB6F894A8953F
:1041400080916000886180936000109260000FBED3
:1041500080911D02882309F4B0CF0E94041390E0DF
:1041600090930801809307010E94C7130E94D61301
:10417000E8EBF2E01192DE12FDCF0E94DD13E8EBD6
:10418000F2E08191811184C1DE12FBCF96CF0E94B3
:10419000DD13E1EDF2E0A8EBB2E000E010E0302F3B
:1041A0002D9141914227B9F180E090E050E0682FD5
:1041B0005A01082E02C0B594A7940A94E2F7A0FE13
:1041C00026C089833A8381E090E05C0102C0AA0C9A
:1041D000BB1C6A95E2F7822F90E08A219B2121E0A7
:1041E000892B09F420E02B830E9426298160782FF7
:1041F0009D838C8349815A816B818D810E948523A7
:10420000F801EF52FD4F8081A826A0821AC00196C6
:104210008630910561F60F5F1F4F0E30110509F0D2
:10422000BECF8FEF8E838F8318860E9426298160F0
:10423000782F9A8789874E815F8168858A850E9459
:1042400085238091CD029091CE020E94FC289C0192
:104250009091CC02992321F02431310508F478C0E3
:104260008091C8021091C90281110BC0111126C1A1
:104270002091CA02211122C12091CB0221111EC11D
:1042800067C09F3F19F09F5F9093CC02181624F4EB
:104290000E944E288093C8028091C80287FF05C003
:1042A0000E944E2881958093C802111624F40E9422
:1042B0004E288093C9028091C90287FF05C00E94E1
:1042C0004E2881958093C9023091C8023323E1F0D2
:1042D0002091C9022223C1F045EB3403C00111240F
:1042E000892F990F990B009709F481E08093C802F8
:1042F00035EB2303C0011124892F990F990B0097E7
:1043000009F481E08093C9028091CA02181624F44E
:104310000E942E288093CA028091CA0287FF05C09E
:104320000E942E2881958093CA028091CB02181694
:1043300024F40E942E288093CB028091CB0287FF29
:1043400005C00E942E2881958093CB020E943229BD
:104350001091CF020E94BA24181721F00E94BA24AB
:104360008093CF028091EB02882309F4A6CE80913E
:10437000EA02E091E502E695E81BE093E102823073
:1043800049F4F0E0EA54F74FE4910E2F10E021E7F2
:1043900033E248C0863049F4F0E0ED54F74FE49141
:1043A0000E2F10E021E633E23DC0893051F4E6954E
:1043B000F0E0E055F74FE4910E2F10E029E936E2E6
:1043C00031C08F3051F4E695F0E0E355F74FE491BA
:1043D0000E2F10E029E236E225C0853149F4F0E0E5
:1043E000E655F74FE4910E2F10E02DEC35E21AC0A0
:1043F000883179F0833231F4F701059114912FE17E
:1044000033E210C0843251F404EF11E020E635E2CB
:1044100009C008EE13E028E935E204C000ED17E01A
:1044200022E632E28091E2028823A9F01092E202B1
:104430002B873C870E942629A80140955095840F20
:10444000951F9093E0028093DF021092E402109295
:10445000E3023C852B858091DF029091E0022B875F
:104460003C870E94FC282B853C858017910708F427
:1044700024CEE091DF02F091E0020E0F1F1F109397
:10448000E0020093DF028FED92E0F901099515CE6D
:1044900080E189BD82E189BD09B400FEFDCF809134
:1044A000D8008F7D8093D8008091E0008260809357
:1044B000E0008091E00081FDFCCFFFCD9F3F09F03F
:1044C000E2CEEACE0895882319F05198599A02C095
:1044D000519A59985098589A95E09A95F1F700009A
:1044E000509A589895E09A95F1F70000882311F0BA
:1044F000519A599885E08A95F1F700000895CF9375
:10450000DF93D82FC8E08D2F80780E946322DD0FC3
:10451000C150C9F780E00E94632285E08A95F1F7D7
:10452000000085E08A95F1F7000080E0DF91CF91EF
:104530000895AF92BF92CF92DF92EF92FF920F93C6
:104540001F93CF93DF931F92CDB7DEB7F82E8B0169
:10455000CFB6D090BC00F8942091BC002B7F209364
:10456000BC002BB12C7F2BB95098589A5198599A6E
:1045700085E08A95F1F700002AB12C7F2AB9E5E0A1
:10458000EA95F1F70000519A5998F5E0FA95F1F79C
:104590000000509A589885E08A95F1F7000084E869
:1045A00099830E947F22AF2C9981B92E000F111F91
:1045B000000F111F0A0D1B1D7501E016F10631F0E9
:1045C000F70181917F010E947F22F7CF5098589A7E
:1045D000F5E0FA95F1F700005198599A85E08A952F
:1045E000F1F70000CFBED092BC00579A8BB18F7705
:1045F0009BB190682FB7F894A016B10699F0F50119
:1046000031915F0148E09BB9000000C037FF8BB9D2
:10461000330F000000C000C000C08BB900C04A9535
:1046200091F7EACF2FBF0F90DF91CF911F910F919C
:10463000FF90EF90DF90CF90BF90AF9008950F93D1
:104640001F93CF93DF9300D000D0CDB7DEB78C019E
:104650008091EF0281110AC09E012F5F3F4F4FEF03
:104660006FEF0E94E40E8A818093EF02F80184814B
:10467000813051F028F0823061F44091EF020AC09D
:104680008091EF0240E007C06091EF0240E080E0DF
:1046900003C040E080E060E00E94720EF8012481D7
:1046A00030E0C901019663E070E00E94872C8483AA
:1046B0000F900F900F900F90DF91CF911F910F915E
:1046C0000895CF93DF93EC01E5EEF2E04381628140
:1046D0008C810E9486108C818F5F8C83DF91CF91BB
:1046E0000895CF93DF93EC01EC81F0E0E654F74FAF
:1046F0004491E5EEF2E0628181810E9486108C8116
:104700008F5F8C83DF91CF910895DF92EF92FF92BC
:104710000F931F93CF93DF93CDB7DEB767970FB695
:10472000F894DEBF0FBECDBFF42E4B8BD52E5C8B25
:10473000E62E6D8B7E8B8F8B0E891F8901151105DF
:10474000B9F12FEF521302C0421791F1EF2DF0E0B3
:1047500041E050E00F2C01C0440F0A94EAF78D2D80
:1047600090E0EE2019F02091290205C0DC01AE5C3A
:10477000BC4F2C9124232223A1F056E0589F900196
:10478000599F300D1124E20FF31FEE0FFF1FEB5B5B
:10479000FE4FF080D180FC01EE5CFC4F9081492BF4
:1047A00006C0FC01EE5CFC4F4095808148234083AD
:1047B000FE013D9686E0DF011D928A95E9F70E9491
:1047C000262920916003309161038217930798F0A6
:1047D0000E9426292091600330916103821B930B74
:1047E000803A9F40A8F08091620382FD11C082E070
:1047F0000E94982A0DC00E942629209160033091C2
:10480000610320953095820F931F803A9F4058F79F
:104810000E94E71981110E94312AFD86DE86EF860B
:10482000198B088B86E0FE013D96DE0117960190FC
:104830000D928A95E1F7CE0107960E94731C8111B3
:1048400036C086E0FE013796DE01119601900D928A
:104850008A95E1F77F816885EA85FB85309739F194
:104860006F3F11F47F3F19F12091300230E0C90110
:104870000196877099274091610250E0841795074F
:1048800079F179836A83FD83EC8396E0929FD0016E
:10489000939FB00D1124AF5CBD4FFE013196019086
:1048A0000D929A95E1F7809330020E940E1C16E05B
:1048B0008091610290913002891711F1189FC00117
:1048C00011248F5C9D4F0E94731C8823C9F0809136
:1048D000610290E001968770992780936102E8CF8A
:1048E0001092F9010E943D1E109230021092610256
:1048F000EAE2F2E086E0DF011D928A95E9F7D7CF80
:1049000067960FB6F894DEBF0FBECDBFDF91CF9193
:104910001F910F91FF90EF90DF9008952091300349
:10492000309131038217930771F090933103809394
:104930003003E091B502F091B602309721F0008487
:10494000F185E02D0994089520912E0330912F03D5
:104950008217930771F090932F0380932E03E091B9
:10496000B502F091B602309721F00680F781E02D74
:1049700009940895E091B502F091B602309721F0C4
:104980000190F081E02D099480E008950F931F932A
:10499000CF93DF93C62FD42F022FFC01828188236F
:1049A000C9F06093EF010E94262990932D03809314
:1049B0002C0380E28C0F883008F050C0C77081E073
:1049C00001C0880FCA95EAF7DF91CF911F910F912F
:1049D0000C94571E1091EF01161330C080912C03D8
:1049E00090912D030E94FC288C3D910538F5C0E282
:1049F000CD0F1D17B9F080E2810F883040F4177099
:104A000081E001C0880F1A95EAF70E94501EC83055
:104A100048F481E09D2F977001C0880F9A95EAF7BE
:104A20000E94571E802F0E94611EC830B8F4D770B4
:104A300081E001C0880FDA95EAF70AC080E28C0FA6
:104A4000883060F4C77081E001C0880FCA95EAF72A
:104A5000DF91CF911F910F910C94501EDF91CF9158
:104A60001F910F9108956091E502669570E04BE00B
:104A700050E083E191E00E94CE2D892B19F481E072
:104A80008093EB020E9426299093E0028093DF023C
:104A900008958091E50280FF06C06FE070E080EF2E
:104AA00092E00C94992280E090E0FC01E051FD4FEF
:104AB00011821082128204968C339105B1F7EDCFEA
:104AC000EF92FF920F931F93CF93DF937C01C0EF80
:104AD000D2E000E010E0F7018481073011051CF4FA
:104AE000882339F002C0811104C09E014091E80280
:104AF00002C09E0140E06091E7028091E6020E94C0
:104B0000E40E0F5F1F4F24960F30110521F70E940E
:104B10004925F701248130E02F5F3F4F2170332773
:104B20002483DF91CF911F910F91FF90EF90089513
:104B3000EF92FF920F931F93CF93DF93EC012C81A1
:104B40003D812F5F3F4F217033273D832C8380EFC2
:104B5000E82E82E0F82E10E005E5812F86954C8145
:104B60005D81480F511D842F817097014091E802AB
:104B70006091E702809F802D11240E94E40E1F5F48
:104B800084E0E80EF11C1F3041F7DF91CF911F91B7
:104B90000F91FF90EF900C9449250F931F93CF93A3
:104BA000DF9380E090E0FC01E051FD4F1182108224
:104BB000128204968C339105B1F7C0E0D0E00FE08B
:104BC00010E0CE01B8010E94872CFC018091EE021A
:104BD000082E000C990BEE0FFF1FEE0FFF1FC817DA
:104BE000D907A4F080911F01082E000C990B8C1797
:104BF0009D0764F09F0120513D4F4091E802609174
:104C0000E7028091E6020E94E40E05C0E051FD4FEC
:104C10001182108212822196CF30D10591F60E9426
:104C2000492580911E019091EE02980F9093EE021B
:104C300020911F01280F20931F01121614F49E309B
:104C40001CF0819580931E01DF91CF911F910F91F0
:104C50000895AF92BF92CF92DF92EF92FF920F939F
:104C60001F93CF93DF93FC01828180FF03C0BB249D
:104C7000BA9402C0BB24B39420EFE22E22E0F22EBD
:104C800002EF12E0C0E0D0E0F80131971082F701A6
:104C90001082F801108294E0C92ED12CA12C8091B1
:104CA000ED028A0D87FD815F082E000C990BC81755
:104CB000D90791F48091E8028C9DA0018D9D500D43
:104CC0001124559547955595479597016091E702B1
:104CD0008091E6020E94E40EAB0CF1E0CF1AD108FD
:104CE000F1F6219684E0E80EF11C0C5F1F4FCF30E7
:104CF000D10551F60E9449258091ED0291E0B9124B
:104D000006C0811102C08EE007C0815005C090E04E
:104D10000196BE010E94872C8093ED02DF91CF9116
:104D20001F910F91FF90EF90DF90CF90BF90AF90C9
:104D30000895EF92FF921F93CF93DF93EC0180EFE2
:104D4000E82E82E0F82E10E08C8197014091E80275
:104D50006091E702810F0E94E40E1F5E84E0E80E7E
:104D6000F11C1F3F89F70E9449258A819C8180FFA1
:104D700002C09F5F01C091509C83DF91CF911F9132
:104D8000FF90EF9008958091FB010895CF93DF93FA
:104D900000D01F92CDB7DEB720911E02243031F52E
:104DA00023E02983805891099B838A8382E0809342
:104DB000E9008FEF9091E800815095FD06C095EDD8
:104DC0009A95F1F700008111F5CF8091E80085FFF9
:104DD0000DC040E050E063E070E0CE0101960E941B
:104DE00018158091E8008E778093E8000F900F905F
:104DF0000F90DF91CF9108950F931F93CF93DF937F
:104E000000D01F92CDB7DEB78C010E94521F8230B6
:104E100011F0843021F584E089831B830A8382E0CA
:104E20008093E9008FEF9091E800815095FD06C0D6
:104E300095ED9A95F1F700008111F5CF8091E8008A
:104E400085FF0DC040E050E063E070E0CE010196C8
:104E50000E9418158091E8008E778093E8000F90EB
:104E60000F900F90DF91CF911F910F910895CF93E5
:104E7000DF93EC010E94521F823011F08430F9F46C
:104E800082E08093E9009FEF8091E800915085FDDA
:104E900006C085ED8A95F1F700009111F5CF80915C
:104EA000E80085FF0CC040E050E066E070E0CE0115
:104EB0000E9418158091E8008E778093E800DF91BA
:104EC000CF910895CF93DF93EC010E94521F82305F
:104ED00011F08430D9F580910601882339F0809152
:104EE000B20287FF03C060E282E002C068E081E0B6
:104EF0008093E9008FEF9091E800815095FD06C006
:104F000095ED9A95F1F700008111F5CF8091E800B9
:104F100085FF1CC080910601811105C040E050E072
:104F200068E070E003C070E040E050E0CE010E9415
:104F300018158091E8008E778093E80080E2FE01EA
:104F4000ACEFB1E001900D928A95E1F7DF91CF913E
:104F50000895803F39F48091C90287FF6CC0109298
:104F6000C90269C0813F29F48091C9021816BCF3B7
:104F700062C09091C802823F29F497FF5CC01092F2
:104F8000C80259C0833F19F41916CCF354C0893FA5
:104F900041F48091CA0218160CF04DC01092CA025A
:104FA0004AC08A3F29F48091CA0287FF44C0F6CFE5
:104FB0008B3F39F48091CB0287FF3DC01092CB022A
:104FC0003AC08C3F29F48091CB021816BCF333C051
:104FD000843F21F48091C7028E7F17C0853F21F462
:104FE0008091C7028D7F11C0863F21F48091C70256
:104FF0008B7F0BC0873F21F48091C702877F05C05C
:10500000883F31F48091C7028F7E8093C70213C01E
:105010008D3F21F4809170038E7F0BC08E3F21F471
:10502000809170038D7F05C08F3F29F480917003BC
:105030008B7F809370038091C80281110EC0809194
:10504000C90281110AC08091CA02811106C08091F3
:10505000CB02811102C01092CC020895809170039E
:1050600080FD18C081FD14C082FD16C08091CC0265
:10507000882381F0803580F425E0829FC0011124CF
:1050800060E570E00E94872C862F672B19F005C021
:1050900082E0089581E0089585E00895809170038D
:1050A00080FD14C081FD14C082FD16C08091CC0229
:1050B000882381F0843180F423E2829FC00111248F
:1050C00064E170E00E94872C862F089588E008959F
:1050D00081E1089585E0089583E20895803F21F4F9
:1050E0000E944E28819504C0813F29F40E944E28D9
:1050F0008093C9020895823F21F40E944E28819531
:1051000004C0833F29F40E944E288093C80208956A
:10511000893F19F40E942E2805C08A3F31F40E946D
:105120002E2881958093CA0208958B3F21F40E9416
:105130002E28819504C08C3F29F40E942E2880934C
:10514000CB020895843F21F48091C702816017C08B
:10515000853F21F48091C702826011C0863F21F40F
:105160008091C70284600BC0873F21F48091C70201
:10517000886005C0883F31F48091C70280618093C8
:10518000C70208958D3F21F48091700381600BC0A8
:105190008E3F21F480917003826005C08F3F29F417
:1051A00080917003846080937003089578941F92B7
:1051B0000F920FB60F9211248F939F93AF93BF93CB
:1051C00080916C0390916D03A0916E03B0916F0379
:1051D0000196A11DB11D80936C0390936D03A09364
:1051E0006E03B0936F03BF91AF919F918F910F901A
:1051F0000FBE0F901F901895CF92DF92EF92FF9203
:105200000F931F932FB7F89440916C0350916D0347
:1052100060916E0370916F032FBF6A017B01EE24D2
:10522000FF248C0120E030E0C016D106E206F30630
:1052300010F4415051099A01281B390BC9011F91E3
:105240000F91FF90EF90DF90CF9008952FB7F894D3
:1052500080916C0390916D03A0916E03B0916F03E8
:105260002FBF0895E091B502F091B602309749F052
:1052700082E08093C6020480F581E02D86EC92E006
:1052800009950E9426299093CE028093CD0208951D
:105290001F920F920FB60F9211248F939F93AF938B
:1052A000BF938091B702811113C080916C039091DC
:1052B0006D03A0916E03B0916F034196A11DB11DC6
:1052C00080936C0390936D03A0936E03B0936F0370
:1052D000BF91AF919F918F910F900FBE0F901F9034
:1052E000189520910601222321F02091B20227FD7A
:1052F00004C0FC013296089619C0262F26952695E3
:1053000026952E31C0F4FC01E20FF11D677081E09B
:1053100090E001C0880F6A95EAF780959281892311
:10532000828308953196E817F90729F02081261322
:10533000F9CF1082F7CF089520910601222321F0A2
:105340002091B20227FD05C0FC0132962FEF30E01C
:1053500019C0262F2695269526952E3120F5FC017D
:10536000E20FF11D677081E090E001C0880F6A953F
:10537000EAF79281892B828308952F3F39F03F5FAE
:10538000363041F041914613F8CF0DC04111F7CFAF
:10539000232FF5CF2F3F39F0FC01E20FF11D27FD40
:1053A000FA9562830895089580E090E00E94392C78
:1053B00021E08D3E9E4F09F020E0822F08956DEE92
:1053C0007EEF80E090E00E945D2C60E082E090E063
:1053D0000E943F2C60E083E090E00E943F2C1092FE
:1053E00068031092690310926A0310926B0360E0E5
:1053F00084E090E00E943F2C60E085E090E00E9415
:105400003F2C60E086E090E00E943F2C6FEF87E049
:1054100090E00E943F2C40E050E0BA0188E090E02C
:105420000E94512C60E08DE090E00E943F2C40E013
:1054300050E0BA0188E190E00E94512C60E087E1E1
:1054400090E00E943F2C40E050E0BA018FE090E0F5
:105450000E94512C40E050E0BA0183E190E00C94AE
:10546000512C80916703882331F0109267031092CA
:10547000660310926503089580959091F901892340
:105480008093F9010895909164038091F901892B2B
:1054900090916303892B8093400380916703882355
:1054A00021F10E94E71981110E94312A909167032E
:1054B00080914003892B80934003809106018823CB
:1054C00031F08091B20287FF02C08EE101C086E018
:1054D000E2E4F3E090E0815028F021912223D9F317
:1054E0009F5FF9CF91110E94312AE091B502F091AE
:1054F000B6023097A9F080910601882359F0809177
:10550000B20287FF07C0809140038093410385E08A
:10551000809340030280F381E02D80E493E00994BE
:10552000089510926203109261031092600308952F
:10553000209162038095822380936203982F977055
:1055400079F430E0482F082E000C550B241735074E
:1055500039F08595859585950E94AE1B0C94912A0E
:105560000895882309F45CC0823869F40E94BA2443
:1055700081FF56C069E380E493E00E949C290E9469
:10558000432A69E30EC0833891F40E94BA2480FF55
:1055900047C063E580E493E00E949C290E94432A6F
:1055A00063E580E493E00E9471290C94432A8438D7
:1055B00069F40E94BA2482FF33C067E480E493E078
:1055C0000E949C290E94432A67E4EBCF9CEF980F2E
:1055D000913A10F4682FE5CF90E2980F983050F48C
:1055E000877091E001C0990F8A95EAF7892F0E9490
:1055F0003C2ADBCF9BE5980F933020F480E090E0CD
:105600000C94A42498E5980F973120F480E090E062
:105610000C948E24803F20F00E94A9270C943229FC
:105620000895882309F416C18238B1F40E94BA247F
:1056300081FD10C169E380E493E00E949C290E94EF
:10564000432A2FEF41EE54E0215040405040E1F713
:1056500000C0000069E317C08338D9F40E94BA245F
:1056600080FDF8C063E580E493E00E949C290E94DD
:10567000432A8FEF91EE24E0815090402040E1F7E3
:1056800000C0000063E580E493E00E9471290C945F
:10569000432A8438B1F40E94BA2482FDDBC067E457
:1056A00080E493E00E949C290E94432A4FEF51EE30
:1056B00084E0415050408040E1F700C0000067E4C2
:1056C000E2CF9CEF980F913A30F4682F80E493E09A
:1056D0000E949C29DCCF90E2980F983080F487706C
:1056E00021E030E0A90102C0440F551F8A95E2F77E
:1056F000CA019091F901892B8093F901C8CF9BE5EC
:10570000980F933070F4853A29F0863A31F083E8A7
:1057100090E005C081E890E002C082E890E00C943F
:10572000A42498E5980F973108F08EC0883A09F4C0
:1057300045C0893A09F445C08A3A09F445C08B3A14
:1057400009F445C08C3A09F445C08B3B09F445C0C7
:105750008C3B09F445C08D3A09F445C0803B09F4FF
:1057600045C08E3A09F445C08F3A09F445C0813BE3
:1057700009F445C0823B09F445C0833B09F445C0A8
:10578000843B09F445C0853B09F445C0863B09F4D8
:1057900045C0873B09F445C0883B09F445C0893BB7
:1057A00009F445C08D3B09F445C08E3B09F445C062
:1057B0008A3B09F445C080E090E044C082EE90E06E
:1057C00041C089EE90E03EC08AEE90E03BC085EBA0
:1057D00090E038C086EB90E035C083EB90E032C0BB
:1057E00084EB90E02FC087EB90E02CC08CEC90E035
:1057F00029C08DEC90E026C083E891E023C08AE8C0
:1058000091E020C082E991E01DC084E991E01AC0D6
:1058100081E292E017C083E292E014C084E292E059
:1058200011C085E292E00EC086E292E00BC087E2F2
:1058300092E008C08FE690E005C080E790E002C0EB
:105840008AE292E00C948E24803F20F00E946E2821
:105850000C9432290895F999FECF92BD81BDF89A32
:10586000992780B50895A6E1B0E044E050E00C949B
:10587000652CA8E1B0E042E050E00C94652C262FA6
:10588000F999FECF92BD81BDF89A019700B4021636
:1058900039F01FBA20BD0FB6F894FA9AF99A0FBEE4
:1058A00008950396272F0E94402C0E943F2C252FFD
:1058B0000E94402C242F0C94402C0196272F0E94EC
:1058C000402C0C943F2CDC01CB01FC01F999FECF5C
:1058D00006C0F2BDE1BDF89A319600B40D92415078
:1058E0005040B8F70895AA1BBB1B51E107C0AA1F7F
:1058F000BB1FA617B70710F0A61BB70B881F991F71
:105900005A95A9F780959095BC01CD01089597FB14
:10591000072E16F4009407D077FD09D00E94732C4F
:1059200007FC05D03EF4909581959F4F08957095A2
:1059300061957F4F0895EE0FFF1F0590F491E02DC4
:105940000994CF93DF938230910510F482E090E0C8
:10595000E0917303F091740320E030E0C0E0D0E008
:10596000309711F14081518148175907C0F048170D
:10597000590761F482819381209719F09B838A8370
:105980002BC0909374038093730326C021153105B7
:1059900019F04217530718F49A01BE01DF01EF0115
:1059A0000280F381E02DDCCF2115310509F1281BA0
:1059B000390B2430310590F412968D919C911397F8
:1059C0006115710521F0FB019383828304C09093DC
:1059D000740380937303FD01329644C0FD01E20F0E
:1059E000F31F81939193225031092D933C933AC038
:1059F0002091710330917203232B41F42091020115
:105A000030910301309372032093710320910001C0
:105A1000309101012115310541F42DB73EB7409178
:105A2000040150910501241B350BE0917103F091A5
:105A30007203E217F307A0F42E1B3F0B2817390758
:105A400078F0AC014E5F5F4F2417350748F04E0FDA
:105A50005F1F50937203409371038193919302C02F
:105A6000E0E0F0E0CF01DF91CF9108950F931F9315
:105A7000CF93DF93009709F48CC0FC013297138217
:105A8000128200917303109174030115110581F4C2
:105A900020813181820F931F209171033091720315
:105AA0002817390779F5F0937203E093710371C0F9
:105AB000D80140E050E0AE17BF0750F412962D9188
:105AC0003C911397AD012115310509F1D901F3CFAF
:105AD0009D01DA013383228360817181860F971FD4
