:100000000C9451040C946E040C946E040C946E04C5
:100010000C946E040C946E040C946E040C946E0498
:100020000C946E040C946E040C9498190C941A178A
:100030000C94DB2A0C946E040C946E040C946E04E5
:100040000C946E040C946E040C946E040C946E0468
:100050000C946E040C94CF130C946E040C946E04E8
:100060000C946E040C946E040C946E040C946E0448
:100070000C946E040C946E040C946E040C946E0438
:100080000C946E040C946E040C946E040C946E0428
:100090000C946E040C946E040C946E040C946E0418
:1000A0000C946E040C946E040C946E040001010117
:1000B0000101010101010202020202020202020325
:1000C00003030303030303040404040404040505F5
:1000D00005050506060606060707070707080808B8
:1000E00008090909090A0A0A0B0B0B0C0C0C0D0D67
:1000F0000D0E0E0E0F0F0F101011111112121313FF
:100100001414151516161717181819191A1A1B1B77
:100110001C1D1D1E1E1F20202122222324242526D3
:1001200026272829292A2B2C2D2D2E2F303132320B
:10013000333435363738393A3B3C3D3E3F40414217
:10014000434445464748494A4C4D4E4F50515354FD
:10015000555658595A5B5D5E5F61626465666869B1
:100160006B6C6D6F7072737577787A7B7D7E808231
:10017000838587888A8C8E8F91939596989A9C9E7A
:10018000A0A2A3A5A7A9ABADAFB1B3B5B7BABCBE8A
:10019000C0C2C4C6C9CBCDCFD1D4D6D8DBDDDFE257
:1001A000E4E7E9EBEEF0F3F5F8FAFDFFFFAA7F557F
:1001B000402223252628292A2C2D2F30323335366C
:1001C000383A3B3D3E4042434547494A4C4E5051E8
:1001D000535557595A5C5E6062646668696B6D6F0F
:1001E00071737577797B7D7F81838587898A8C8E12
:1001F00090929496989A9C9E9FA1A3A5A7A8AAAC1A
:10020000AEAFB1B3B4B6B8B9BBBCBEBFC1C2C3C553
:10021000C6C7C9CACBCCCDCED0D1D2D2D3D4D5D6F5
:10022000D7D7D8D9D9DADADBDBDBDCDCDCDCDCDD28
:10023000DDDDDDDCDCDCDCDCDBDBDBDADAD9D9D80C
:10024000D7D7D6D5D4D3D2D2D1D0CECDCCCBCAC9A4
:10025000C7C6C5C3C2C1BFBEBCBBB9B8B6B4B3B1D3
:10026000AFAEACAAA8A7A5A3A19F9E9C9A9896946E
:1002700092908E8C8A89878583817F7D7B79777543
:1002800073716F6D6B6968666462605E5C5A595722
:10029000555351504E4C4A4947454342403E3D3BE1
:1002A0003A3836353332302F2D2C2A29282625236B
:1002B00022290065670351E100310000001E00386B
:1002C000000400E0004A0049021F0036001200143A
:1002D000004D00E2002000370008000D004B00E355
:1002E000002100130018000E004E00E60022001C42
:1002F000000C001B000000466FAA002D0000002B20
:100300000000000458A9002E000000330000001176
:100310005023000900070005000000396F24000A7F
:10032000000B00100051003D002500060017001AC8
:100330000052002C43260015001100190050002A1D
:100340000027000F001600E4004F004C0034001D91
:10035000672800E5003500000001000100010001F0
:100360000001000000010014000100010001000173
:100370000001001A0016001B000100010001000826
:100380000007000600010001000100150009001926
:100390000001000100010017000A00050000000133
:1003A0000001000100000001000000010001000147
:1003B00000000001000000105001001C000B0011A3
:1003C0000000000100010018000D00010001000103
:1003D0000001000C000E00360001000100010012B7
:1003E000000F003700010001000100130038000178
:1003F00000010001000100010001000100010000F6
:100400000029000100E100E00001000000010014EB
:100410000004001D000100010001001A0016001B6D
:100420000001000100010008000700060001002C87
:10043000000100150009001900010001000100176A
:10044000000A000500000001000100010000000199
:100450000000000100010001000000010000000197
:100460000001001C000B0011000000010001001839
:10047000000D0010005000010001000C000E0052A1
:100480000051000100010012000F0037004F000171
:1004900000010013003300010036000100010001DB
:1004A0000001000100350000000100010001000111
:1004B0000064740000010042003E0001003A0001A7
:1004C00000010043003F003B0032000100010044F6
:1004D0000040003C002F0001000100450041003DAC
:1004E000003000010001000100490001000000018E
:1004F0000001002D14000001000000010001002E89
:1005000014000033140000010001004700530048AC
:10051000000000010001005F005C00590062000162
:1005200000010060005D005A0063000100010061ED
:10053000005E005B0026020100010023026500014D
:1005400000270201003414010001000100351400ED
:1005500000A500010001000100010000000C5D1178
:100560005DC65C0000010001000D5D125DC55C0B05
:100570005D100501000E5D135DCA5CC35C3D0701A3
:10058000000F5D145DC95CC25C3D080100105D1583
:100590005D085D000000000100A6000100000001F0
:1005A00000000012500100010000000100000001E5
:1005B00000A8000000085D000000000100AA00FA89
:1005C00000F2004901F5000100A900F000F1004926
:1005D00002F600F400A800F900F300FB000100F4AB
:1005E00000A800E200E500FC00010001000100019C
:1005F00000010001000100000000047F3F1F643281
:1006000014643214783C1E1E140A050A000000000F
:10061000000306B200080001000000A80008000264
:10062000000200A0001400030057494E5553420039
:100630000000000000000000008400040007002A01
:100640000044006500760069006300650049006EA3
:100650000074006500720066006100630065004779
:10066000005500490044007300000050007B003931
:100670000044004200370046003100460044002D8F
:100680000037004500370041002D003400300030B5
:100690000038002D0039003300360042002D0036AE
:1006A0000042004100360043003100390041003370
:1006B000003000380063007D00000000001B0301D3
:1006C000636F6E6669677572652E6572676F646FBA
:1006D000782D657A2E636F6D0005010902A10185F1
:1006E000020901A100050919012905150025019537
:1006F0000575018102950175038101050109300924
:10070000311581257F9502750881060938158125E7
:100710007F950175088106050C0A38021581257F31
:10072000950175088106C0C005010980A1018503F6
:100730001A81002A83001601002603009501751016
:100740008100C0050C0901A10185041A01002A9C41
:1007500002160100269C02950175108100C005015A
:100760000906A1018505050719E029E715002501FE
:100770009508750181020507190029EF150025016B
:1007800095F0750181020508190129059505750186
:100790009102950175039101C005010906A10105AA
:1007A0000719E029E71500250195087501810295D3
:1007B00001750881010507190029FF150026FF00B2
:1007C000950675088100050819012905950575012B
:1007D0009102950175039101C009025200030100C5
:1007E000A0FA090400000103010100092111010020
:1007F000012240000705810308000A0904010001E5
:100800000300000009211101000122C00007058238
:100810000320000A0904020002FF0000000705830C
:100820000340000507050403400005120110020003
:10083000000008EDFE07130100010203010403306C
:1008400000000016034500720067006F0064006F2F
:10085000007800200045005A00000008035A0053A9
:10086000004100000004030904050F3900021C10B8
:100870000500DF60DDD88945C74C9CD2659D9E642C
:100880008A9F00000306B20045001810050038B624
:100890000834A909A0478BFDA0768815B66500012C
:1008A000420111241FBECFEFDAE0DEBFCDBF11E061
:1008B000A0E0B1E0E0EAFBE502C005900D92AA3F9E
:1008C000B107D9F723E0AAEFB1E001C01D92A63825
:1008D000B207E1F70E94EB260C94832D0C940000E4
:1008E000E8EDF0E080818E7F80831092E20010922C
:1008F000DA001092E100A0EEB0E08C9181608C9360
:1009000080818F77808319BCA7EDB0E08C918E7FBA
:100910008C9380818F7E8083109251030895209163
:10092000E4003091E50095E6A9012091EC00822FCA
:10093000817020FF06C08091E80080FF06C080E043
:1009400008952091E80022FD1AC080917803882341
:1009500089F0853089F08091EB0085FD0FC02091F2
:10096000E4003091E50042175307F9F29150E1F6A7
:1009700084E0089582E0089583E0089581E0089579
:10098000EF92FF920F931F93CF937C018B010E94F4
:100990008F04C82F882371F08C2FCF911F910F9156
:1009A000FF90EF900895F70181917F018093F1000E
:1009B000015011090115110579F38091E80085FDB9
:1009C000F2CF8091E8008E778093E8000E948F0438
:1009D000882381F3C82FE0CF80917A0387FF13C06B
:1009E0008091E80082FF06C08091E8008B778093B9
:1009F000E80004C0809178038111F2CF08958091BE
:100A000078038823D9F38091E80080FFF8CF8091A4
:100A1000E8008E77ECCF982F9093E900242F762F63
:100A200050E0891731F07091EC002091ED00509169
:100A3000F00021FD07C09F5F973071F78093E900B8
:100A400081E008953091EB003E7F3093EB003091D0
:100A5000ED003D7F3093ED003091EB00316030933D
:100A6000EB007093EC002093ED005093F000209188
:100A7000EE0027FDE0CF80E00895CF92DF92EF9265
:100A8000FF920F931F93CF93DF93C8EDD0E088813F
:100A90008F7E8883E7EDF0E080818160808384E051
:100AA00082BF81E08093510388818E7F888302EE2C
:100AB00010E0F80110821092DA0081EEC82ED12CDD
:100AC000F601108288818F77888388818068888387
:100AD00088818F7D888319BC1092780310927903E6
:100AE000109277031092760390EEE92EF12CF70125
:100AF00080818B7F808388818160888342E060E091
:100B000080E00E940B05F60180818E7F8083F801D2
:100B1000808181608083808188608083F70180810B
:100B20008E7F8083888180618883DF91CF911F9140
:100B30000F91FF90EF90DF90CF900895FC0180918E
:100B400080039091810386179707A0F061157105C6
:100B500029F48091E8008E778093E80090E0611599
:100B6000710551F4911108C08091E80082FF35C0F1
:100B700080E00895BC01F2CF809178038823C9F109
:100B80008530C9F18091E80083FD31C08091E80093
:100B900082FDEACF8091E80080FFE1CF8091F300F1
:100BA0002091F200382F6115710519F028303105B8
:100BB00058F091E02830310509F090E08091E8008C
:100BC0008E778093E800CBCF84918093F1003196AB
:100BD000615071092F5F3F4FE6CF809178038823E2
:100BE00041F0853041F08091E80083FFBDCF81E086
:100BF000089582E0089583E00895FC0180918003C8
:100C00009091810386179707A0F06115710529F46B
:100C10009091E8009E779093E80090E0611571054F
:100C200051F4911108C08091E80082FF34C080E047
:100C30000895BC01F2CF809178038823C1F18530FB
:100C4000C1F18091E80083FD30C08091E80082FD11
:100C5000EACF8091E80080FFE1CF8091F3002091FE
:100C6000F200382F6115710519F02830310558F060
:100C700091E02830310509F090E02091E8002E77CE
:100C80002093E800CBCF81918093F10061507109EE
:100C90002F5F3F4FE7CF80917803882341F0853065
:100CA00041F08091E80083FFBECF81E0089582E0AB
:100CB000089583E0089580917803843011F482E0F0
:100CC000089581E008950895809155030895209135
:100CD0007803243099F423E02093E90070E050E099
:100CE00040E00E94C004882321F010924F0310922C
:100CF00050038091E8008E778093E80008959091EA
:100D00002703803F41F48091280387FD1092280338
:100D1000992371F00895813F29F4809128031816D2
:100D2000ACF3F6CF823F81F497FFF2CF1092270306
:100D30008091280390912903892B90912A03892B74
:100D400049F710922B030895833F19F4191674F391
:100D5000DFCF893F39F4809129031816CCF6109221
:100D60002903D6CF8A3F29F48091290387FFD0CF6A
:100D7000F6CF8B3F39F480912A0387FFC9CF1092B9
:100D80002A03C6CF8C3F29F480912A031816BCF39E
:100D9000BFCF843F31F4809126038E7F809326035A
:100DA000B7CF853F21F4809126038D7FF7CF863F13
:100DB00021F4809126038B7FF1CF873F21F480912E
:100DC0002603877FEBCF883F21F4809126038F7E17
:100DD000E5CF8D3F31F48091F8028E7F8093F80249
:100DE00097CF8E3F21F48091F8028D7FF7CF8F3F10
:100DF00009F08ECF8091F8028B7FF0CF8091F802BE
:100E000080FD1AC081FD14C082FD14C080912B03A7
:100E1000882391F0803570F425E0829FC001112471
:100E200060E570E00E94DD2B862F672B29F0089586
:100E300082E0089585E0089581E008958091F802A8
:100E400080FD14C081FD14C082FD16C080912B036B
:100E5000882381F0843180F423E2829FC001112431
:100E600064E170E00E94DD2B862F089588E00895EC
:100E700081E1089585E0089583E20895803F31F48B
:100E80000E941E078195809328030895813F19F4DD
:100E90000E941E07F8CF823F31F40E941E07819501
:100EA000809327030895833F19F40E941E07F8CF0B
:100EB000893F29F40E94FE068093290308958A3F02
:100EC00021F40E94FE068195F7CF8B3F31F40E94FA
:100ED000FE06819580932A0308958C3F19F40E94A1
:100EE000FE06F8CF843F31F4809126038160809321
:100EF00026030895853F21F4809126038260F7CF71
:100F0000863F21F4809126038460F1CF873F21F44E
:100F1000809126038860EBCF883F21F480912603DF
:100F20008061E5CF8D3F31F48091F802816080933C
:100F3000F80208958E3F21F48091F8028260F7CF85
:100F40008F3FB9F78091F8028460F1CFCF92DF92A2
:100F5000EF92FF920F931F932FB7F8944091F402F2
:100F60005091F5026091F6027091F7022FBF6A016D
:100F70007B01EE24FF248C0130E020E0C016D10676
:100F8000E206F30650F0481B590BCA011F910F915E
:100F9000FF90EF90DF90CF90089541505109F3CF2B
:100FA000CF92DF92EF92FF926C01EE24FF2420E0BB
:100FB000C114D104E104F10419F0C701B60120E124
:100FC000C72ED82EE92EFF24C114D104E104F10468
:100FD00019F0285FC701B6016B017C0154E0F6945B
:100FE000E794D794C7945A95D1F7C114D104E1047A
:100FF000F10419F02C5FC701B6016B017C0142E0DE
:10100000F694E794D794C7944A95D1F7C114D104C4
:10101000E104F10419F02E5FC701B601969587959A
:1010200077956795672B682B692B09F02F5F822FC7
:10103000FF90EF90DF90CF9008958091EF028111A3
:101040001092EF0208958091EE029091ED02892BAB
:101050009091EC02892B8093FA019091EF029923F1
:10106000A1F0892B8093FA0180911F01882341F11F
:101070008091110387FF24C08EE1ECEFF1E090E056
:10108000815000F591110E941D08E0911403F09128
:1010900015033097E1F080911F01882359F080916A
:1010A000110387FF07C08091FA018093FB0185E05F
:1010B0008093FA010280F381E02D8AEF91E0099498
:1010C00086E0DBCF21912223D9F29F5FD9CF08950B
:1010D00090911F019923D1F09091110397FF16C0B1
:1010E000E82FE695E695E695EE31E0F4F0E0E6507F
:1010F000FE4F282F277081E090E001C0880F2A95CD
:10110000EAF780959281892382830895ECEFF1E0DC
:101110009191891303C0DF0111971C9292E0E23094
:10112000F907B1F7089590911F019923C1F09091AB
:10113000110397FF14C0E82FE695E695E695EE318A
:10114000F8F4F0E0E650FE4F877021E030E001C097
:10115000220F8A95EAF78281822B82830895ACEF71
:10116000B1E0EFEF90E02D91821751F0EF3F19F4CD
:10117000211101C0E92F9F5F9630A9F7EF3F09F4D5
:1011800008950E2E000CFF0BE650FE4FE6CFE92F20
:10119000EE0FE90FEE0F8E0F982F977086958695BC
:1011A000869525E0829FF0011124EC54FD4F50E01C
:1011B00040E080E0219130E0092E02C0369527956D
:1011C0000A94E2F721703327042E01C0220F0A94FB
:1011D000EAF7822B4F5F5F4F4530510559F708956D
:1011E000E92FEE0FE90FEE0F8E0F982F977041E069
:1011F00001C0440F9A95EAF786958695869595E005
:10120000899FF0011124EC54FD4F30E020E070E0A4
:101210005191DF011197CB01022E02C0969587955F
:101220000A94E2F7817081958527842385278C9322
:101230002F5F3F4F2530310559F708958091B30254
:1012400090918202981301C008958F5F8770FACF42
:10125000882341F080959091ED0289238093ED02DF
:101260000C9423080895882339F09091ED02982B6F
:101270009093ED020C9423080895882341F0809503
:101280009091EE0289238093EE020C942308089536
:10129000882339F09091EE02982B9093EE020C94F3
:1012A00023080895209164023091650228173907B8
:1012B00071F09093650280936402E0911403F091C1
:1012C0001503309721F00084F185E02D09940895ED
:1012D00020916202309163022817390771F09093D0
:1012E000630280936202E0911403F091150330973A
:1012F00021F00680F781E02D09940895E091140310
:10130000F0911503309721F00190F081E02D0994C0
:1013100080E00895FA01811101C0FB0109948091D8
:101320004403982F9E7F29F4817082608093440348
:1013300008958A34E8F381708864F8CFAF92BF9241
:10134000DF92EF92FF920F931F93CF93DF93082FBB
:10135000162FE901E42FF0E0E455FF4F611111C0B1
:10136000E4915E2F4E2F4983E8835A831B82DF91DD
:10137000CF911F910F91FF90EF90DF90BF90AF90B2
:101380000895E62EF12C4491D42EE42FF0E026E0CF
:10139000829FC00111242FEF30E0B9010E94C92BB8
:1013A000802F90E0880F991F55E5569FD001579FD9
:1013B000B00D11248A1B9B0B982F990F890F59018F
:1013C000AE18BF08AE9ED001AF9EB00DBE9EB00D50
:1013D00011245B2F189F80011124012F112759011F
:1013E000A01AB10AAE9E8001AF9E100DBE9E100DD8
:1013F00011245901A81AB108AE9CC001AF9C900DF0
:10140000BE9C900D1124892F9927281B390B2E9FE4
:10141000C0012F9F900D3E9F900D1124E92F623047
:101420007105A1F050F46115710509F49CCF61308C
:10143000710581F0EB2F512F96CF6430710569F063
:1014400080F06630710509F48ECFF4CFE42F4B2F76
:10145000592F89CFE42F412F86CFEB2F542F492FBF
:1014600082CF4B2F5D2DE12F7ECF9091110392FF04
:1014700006C0282F28712830F9F4877F846093FFF5
:1014800006C0282F28712831F1F4877E84612091CD
:10149000120320FF06C0382F38713830D9F4877F07
:1014A000816021FF06C0282F28712831D1F4877E62
:1014B000816194FD877E0895282F24712430F9F6E8
:1014C0008B7F8860DCCF282F2471243101F78B7E3D
:1014D0008861DDCF382F3171313019F78E7F886008
:1014E000E0CF282F2171213121F78E7E8861E1CF55
:1014F000CF93DF93972F70E026E0929F600D711DD0
:101500001124FB0134E5839FE00DF11D1124EE0F42
:10151000FF1FEF54FD4FC591D491CE01C238D105C4
:10152000B9F1E8F5C133D10509F499C050F5C932D4
:10153000D10509F48DC0CA32D10509F497C0C1158F
:1015400042E5D40708F047C1C11521E5D20708F0EC
:10155000C2C1C83ED10508F020C1C03ED10568F522
:10156000C83AD10508F089C0C53AD10508F088C14C
:10157000C130D10511F1209709F443C02497E8F454
:1015800040C0C533D10509F45CC0C933D105B9F6F3
:1015900020911103237089F080EE90E00EC0C33ECD
:1015A000D10591F168F4C03ED105F9F0C23ED105F4
:1015B00031F62091110322FD20C0DF91CF910895D3
:1015C000C63ED10561F1C73ED10581F1C43ED105CA
:1015D00009F0B5CF2091120321FFEFCF80911103C5
:1015E00084FD0FC087EE90E0E8CF2091110320FD2D
:1015F000A3C13091120330FFE0CF83EE90E024FFCF
:10160000DCCF90E080E0D9CF2091110322FD97C17B
:101610003091120330FDC0CF24FFCFCFF2CF209105
:10162000110323FFCACF24FDECCFDCCF209111039F
:1016300023FD88C13091120331FFEECF84EE90E09C
:10164000BCCF2091110325FFB8CF89E290E0B5CF40
:101650002091110325FFB1CF85E390E0AECF20911B
:10166000110326FFAACF8AE290E0A7CF20911103B1
:1016700026FFA3CF81E390E0A0CFCF3BD10508F6B2
:1016800082EE94E4C83AD10509F497CF89EE94E448
:10169000C93AD10509F491CF8AEE94E4CA3AD1054A
:1016A00009F48BCF85EB94E4CB3AD10509F485CFCF
:1016B00086EB94E4CC3AD10509F47FCF83EB94E434
:1016C000CB3BD10509F479CF84EB94E4CC3BD10535
:1016D00009F473CF87EB94E4CD3AD10509F46DCFCB
:1016E0008CEC94E4C03BD10509F467CF8DEC94E415
:1016F000CE3AD10509F461CF83E895E4CF3AD1051C
:1017000009F45BCF8AE895E4C13BD10509F455CFD4
:1017100082E995E4C23BD10509F44FCF84E995E411
:10172000C33BD10509F449CF81E296E4C43BD1051E
:1017300009F443CF83E296E4C53BD10509F43DCFDC
:1017400084E296E4C63BD10509F437CF85E296E4FE
:10175000C73BD10509F431CF86E296E4C83BD105F9
:1017600009F42BCF87E296E4C93BD10509F425CFD4
:101770008FE694E4CD3BD10509F41FCF80E794E4D4
:10178000CE3BD10509F419CF80E094E4CA3BD105E2
:1017900009F013CF8AE296E410CFC11530E2D307E7
:1017A00060F4C11541E0D40708F007CFCE01906581
:1017B000C03FD10508F001CF24CFC11580E4D80780
:1017C00008F41FCFC11590E5D90708F068C0CE0115
:1017D0009F70906AF2CEC11526E5D20718F5C115A3
:1017E00035E5D30708F08DC0C11544E5D40708F0EE
:1017F00083C09C2F96959695AE0143705527C115D1
:10180000D34508F46DC021E030E002C0220F331F41
:101810004A95E2F740E2949FC0011124822B932B5A
:101820009A68CBCEC1159AE5D90778F4C11529E598
:10183000D20708F070C0C11538E5D30708F4E1CE2F
:101840009C2F8827806F906AB8CEC1154BE5D407CE
:1018500008F4D7CEC1158CE5D80708F469C0CE01CD
:1018600090568115904208F0CCCE8D2F8F710E943A
:10187000350A90E0982F882788279F718C2B49C0C4
:1018800081E890E4C53AD10509F497CE82E890E466
:10189000C63AD10509F491CE83E890E48ECE9E013C
:1018A000E4E036952795EA95E1F723708C2F86952D
:1018B0008695837030E2839FC0011124922BC37000
:1018C00021E030E002C0220F331FCA95E2F7822BDD
:1018D000932B9C6872CE9C2F8827816F906A6DCE67
:1018E00021E030E002C0220F331F4A95E2F740E2C8
:1018F000949FC0011124EBCF9C2F8827846F906A9E
:101900005CCE8C2F0E94350A90E0982F882788277C
:101910009F71906252CE8C2F8F700E94350A34E0F6
:10192000D695C7953A95E1F7CF709C2F906945CE33
:10193000CE019927906641CE89E390E03ECE82EEBB
:1019400090E03BCE86EE90E038CEBF92CF92DF9211
:10195000EF92FF920F931F93CF93DF938C01C09070
:101960004B03D0904C03E0904D03F0904E038091D8
:10197000F0029091F102A091F202B091F302C82A14
:10198000D92AEA2AFB2ACFE1D0E0BC2ED701C60132
:101990000C2E04C0B695A795979587950A94D2F713
:1019A00080FD0EC0219788F7B12C8B2DDF91CF9150
:1019B0001F910F91FF90EF90DF90CF90BF9008950F
:1019C000B8018C2F0E94780A019761F3EECFCF9374
:1019D000DF93EC010E94A50CBE01DF91CF910C9426
:1019E000780A0E94E70C292F2F7092959F709250D1
:1019F0009E3078F4E92FF0E0EB57F24D0C94F12B88
:101A0000803F19F020F4883E20F481E00895843F5F
:101A1000E1F380E00895883EC0F3813FD1F7F5CF30
:101A2000822F869586958695089527982F980895F4
:101A300026982E98089525982D98089556985E9882
:101A40000895279A2F9A0895269A2E9A0895259AEE
:101A50002D9A089584B1807F84B985B1807F85B93E
:101A60008AB1837F8AB98BB1837F8BB93E984698C0
:101A7000089580B38C7080BB81B3836F81BB089560
:101A80000F931F93CF93DF9300D00F92CDB7DEB7A4
:101A90008C010E945B06823011F0843021F584E0D5
:101AA00089831B830A8382E08093E9008FEF909102
:101AB000E800815095FD06C095ED9A95F1F700007C
:101AC0008111F5CF8091E80085FF0DC050E040E026
:101AD00063E070E0CE0101960E94C0048091E800AE
:101AE0008E778093E8000F900F900F90DF91CF9149
:101AF0001F910F910895CF93DF9300D00F92CDB730
:101B0000DEB720917803243031F523E02983805813
:101B100091099B838A8382E08093E9008FEF909103
:101B2000E800815095FD06C095ED9A95F1F700000B
:101B30008111F5CF8091E80085FF0DC050E040E0B5
:101B400063E070E0CE0101960E94C0048091E8003D
:101B50008E778093E8000F900F900F90DF91CF91D8
:101B60000895CF93DF93EC010E945B06823011F061
:101B70008430F9F482E08093E9008FEF9091E800DF
:101B8000815095FD06C095ED9A95F1F70000811101
:101B9000F5CF8091E80085FF0CC050E040E066E0A2
:101BA00070E0CE010E94C0048091E8008E7780939F
:101BB000E800DF91CF910895CF93DF93EC010E946D
:101BC0005B06823011F08430B9F580911F018823C3
:101BD000B1F18091110387FF32C060E282E080930F
:101BE000E9008FEF9091E800815095FD06C095EDDA
:101BF0009A95F1F700008111F5CF8091E80085FFFB
:101C00001BC080911F0170E050E040E0811104C0D2
:101C100050E040E068E070E0CE010E94C004809196
:101C2000E8008E778093E80080E2FE01A6E5B3E04D
:101C300001900D928A95E1F7DF91CF91089568E0C8
:101C400081E0CDCFEF92FF920F931F93CF93DF935D
:101C50000E941E0D0E941B0D0E94180D0E94150D62
:101C600088E8E82EF12C8FEF90E0F70191838083D4
:101C70000AE810E0F80191838083CCE8D0E09983F2
:101C800088830E94270DFFEF20E782E0F15020407B
:101C90008040E1F700C000000E94240D9FEFE0E7C4
:101CA000F2E09150E040F040E1F700C000000E94F7
:101CB000210D2FEF80E792E0215080409040E1F726
:101CC00000C000000E941B0DEFEFF0E722E0E150A2
:101CD000F0402040E1F700C000000E94180D8FEF97
:101CE00090E7E2E081509040E040E1F700C0000062
:101CF0000E94150D8091FF028770FFEF8F9FC0013A
:101D0000112495958795959587959927F701918346
:101D10008083F80191838083998388830E941E0DBC
:101D20000E941B0D0E94180DDF91CF911F910F9102
:101D3000FF90EF900C94150DCF9384E090E00E94FB
:101D4000032CC82F81E290E00E94032C982F8C2F47
:101D5000CF9108956091FB028CE090E00C94172CD9
:101D6000CF92DF92EF92FF926B017C010E948F096C
:101D7000B701A60188E090E0FF90EF90DF90CF9050
:101D80000C94292C80914803833018F48F5F809342
:101D900048036091440370914503809146039091FC
:101DA00047030C94B00E80914803882319F08150AA
:101DB00080934803609144037091450380914603EA
:101DC000909147030C94B00EE4E4F3E083E0808349
:101DD00011828FEF8283838314826081718182817B
:101DE00093810C94B00E6FEE7EEF90E080E00E9445
:101DF000352C60E082E090E00E94172C60E083E0E8
:101E000090E00E94172C1092F0021092F1021092B2
:101E1000F2021092F30260E084E090E00E94172C3E
:101E200060E081E290E00E94172C60E085E090E0A5
:101E30000E94172C60E086E090E00E94172C6FEF64
:101E400087E090E00E94172C40E050E0BA0188E063
:101E500090E00E94292C60E08DE090E00E94172C19
:101E600040E050E0BA0188E190E00E94292C60E057
:101E700087E190E00E94172C40E050E0BA018CE12D
:101E800090E00E94292C60E080E290E00E94172CF4
:101E90001092FF02109200031092010310920203AD
:101EA00084E080618093FF024091FF025091000323
:101EB00060910103709102038FE090E00E94292C51
:101EC00040E050E0BA0183E190E00C94292CCF93DC
:101ED000C82F873070F58091130190911401892BE0
:101EE00089F564E670E080E40E94082B9093140169
:101EF00080931301892BD1F464E670E082E10E94A3
:101F0000642B9093140180931301892B79F481E061
:101F100090E001C0880FCA95EAF764E670E080950A
:101F20000E94642B9093140180931301CF910C9421
:101F3000B72B8A30B9F040F4883071F0893079F0ED
:101F4000209A2898CF9108958C3091F070F08D30C0
:101F5000B9F73E9A4698F6CF219A2998F3CF229A5C
:101F60002A98F0CF239A2B98EDCF529A5A98EACF1D
:101F7000539A5B98E7CF80E290E0909314018093AE
:101F800013018091200281110EC00E94022B81E07A
:101F9000809320022FEF83ED90E32150804090400A
:101FA000E1F700C0000064E670E080E40E94082BC6
:101FB0009093140180931301892B09F04EC064E6BD
:101FC00070E080E00E94642B9093140180931301D1
:101FD000892B09F042C064E670E080E00E94642B27
:101FE0009093140180931301892BB9F564E670E096
:101FF0008FE30E94642B9093140180931301892B2B
:1020000061F50E94B72B64E670E080E40E94082B23
:102010009093140180931301892BF9F464E670E026
:102020008CE00E94642B9093140180931301892B00
:10203000A1F464E670E080E00E94642B90931401A8
:1020400080931301892B49F464E670E08FE30E94CA
:10205000642B90931401809313010E94B72B8091FD
:1020600013010895CF93DF938091440380FD0BC04B
:10207000E4E2F2E01182108212821382349652E07E
:10208000E036F507B9F7C4E2D2E0FE019281208183
:102090003181892F291708F4822F381708F4832FEC
:1020A0008383381B3183281B2083981B92833496AB
:1020B00082E0E036F80751F70E94022B64E670E0F8
:1020C00084E80E94082B64E670E088810E94642BFB
:1020D00064E670E089810E94642B64E670E08A8186
:1020E0000E94642B64E670E08B810E94642B24962E
:1020F00092E0C036D90739F70E94B72B579A3BB107
:102100003F772BB120684FB7F89484E292E0FC014E
:102110005191CF0168E02BB9000000C057FF3BB9D7
:10212000550F000000C000C000C03BB900C06A9558
:1021300091F7F2E080369F0751F74FBF8FE391E0B0
:102140000197F1F700C00000DF91CF910895EF9261
:10215000FF920F931F93CF93DF938C01C4E2D2E0E1
:10216000F12CE12CF80194816091460380914503A4
:10217000F7E0EF16F104FCF49923F9F09E01409189
:1021800047030E949E092FEFE21AF20A24968FE07D
:10219000E816F10439F70E943210F801848190E0CA
:1021A0000196817099278483DF91CF911F910F91C0
:1021B000FF90EF900895992309F39E0140E0E1CF4D
:1021C000EF92FF921F93CF93DF93EC0184E2E82E0E
:1021D00082E0F82E10E08C819701409147036091D6
:1021E0004603810F0E949E091F5E84E0E80EF11CE9
:1021F0001F3F89F70E9432109A818C8190FF08C09E
:102200008F5F8C83DF91CF911F91FF90EF900895A6
:102210008150F7CFBF92CF92DF92EF92FF920F9350
:102220001F93CF93DF93FC018281DD24DA9480FD3C
:1022300002C0DD24D39404E212E0D0E0C0E02FE03D
:10224000B22EF801118210821282138294E0E92EDC
:10225000F12CC12C809121028C0D80310CF43DC0F9
:102260006B2D0E94BB2B892F082E000C990B8C170D
:102270009D0791F4809147038E9DA0018F9D500D85
:1022800011245595479555954795980160914603BA
:10229000809145030E949E09CD0CF1E0EF1AF108F0
:1022A000C9F621960C5F1F4FCF30D10551F60E9421
:1022B00032108091210291E0D91215C0811111C014
:1022C0008EE080932102DF91CF911F910F91FF90BB
:1022D000EF90DF90CF90BF90089587FFC5CF815FCB
:1022E000C3CF8150EECF90E00196BE010E94DD2B5E
:1022F000E8CF0F931F93CF93DF93C4E2D2E0FE01A8
:102300001182108212821382349682E0E036F8073E
:10231000B9F710E000E080912202082E000C990B22
:10232000081719078CF180911201082E000C990BE7
:10233000801791074CF19E0140914703609146033D
:10234000809145030E949E090F5F1F4F24960F3016
:10235000110509F70E94321080911101909122021B
:10236000980F9093220220911201280F20931201BE
:10237000121614F49E301CF0819580931101DF91A8
:10238000CF911F910F910895198218821A821B8292
:10239000DBCFEF92FF920F931F93CF93DF93EC016C
:1023A0008C819D810196817099279D838C8384E225
:1023B000E82E82E0F82E10E005E5812F86952C812D
:1023C0003D81820F932F911D8170970140914703AA
:1023D00060914603809F802D11240E949E091F5FFB
:1023E00084E0E80EF11C1F3041F7DF91CF911F917F
:1023F0000F91FF90EF900C9432109091440390FF56
:102400000DC0E4E2F2E0818360834283138234965C
:1024100092E0E036F907B9F70C94321008950F9363
:102420001F93CF93DF9300D000D0CDB7DEB78C01E0
:102430008091230281110AC09E012F5F3F4F4FEF11
:102440006FEF0E949E098A8180932302F8016481C4
:10245000613069F08091230240E0662361F040E042
:10246000623011F44091230280E060E004C060918A
:10247000230240E080E00E94FD11F801848190E099
:10248000019663E070E00E94DD2B84830F900F9033
:102490000F900F90DF91CF911F910F910895CF93DF
:1024A000DF9300D000D0CDB7DEB79091440390FF0A
:1024B0000AC09E012F5F3F4F0E949E094B81698198
:1024C0008A810E94FD110F900F900F900F90DF9165
:1024D000CF910895CF93DF93EC01EC81F0E0EF54BE
:1024E000FE4F4491E4E4F3E0628181810E944F1247
:1024F0008C818F5F8C83DF91CF910895CF93DF9391
:10250000EC01E4E4F3E0438162818C810E944F128C
:102510008C818F5F8C83DF91CF9108955F926F9252
:102520007F928F929F92AF92BF92CF92DF92EF9263
:10253000FF920F931F93CF93DF9300D000D0CDB7BE
:10254000DEB7182F762E042F622E9091440390FF51
:1025500029C0E92FE695AE2FB0E0A45DBE4F8C9167
:10256000809349039E7F923089F59E012F5F3F4FF4
:10257000812F0E949E094B8169818A810E94FD11F1
:10258000109345037092460300934703662051F071
:1025900060914403709145038091460390914703F5
:1025A0000E94B00E0F900F900F900F90DF91CF917F
:1025B0001F910F91FF90EF90DF90CF90BF90AF9061
:1025C0009F908F907F906F905F900895823019F464
:1025D00000914703D5CF863019F410914503D0CF31
:1025E0008930D9F3893161F6E9518E2F8170582EE7
:1025F000E695F0E0E455FE4FA590B490BB2484E24C
:10260000E82E82E0F82ED12CC12C9FE0892E912C4F
:10261000C601B4010E94C92B812F511013C0860F2F
:102620009701402F672D0E949E09CA0CDB1C84E095
:10263000E80EF11C80E6E81682E0F80649F70E94F1
:1026400032109ECF861BECCF21E00C948E12E4E476
:10265000F3E043812CE0421B08F440E021E062817A
:1026600081810C948E12E4E4F3E043812CE0420F6C
:1026700008F44FEF21E0628181810C948E12E4E432
:10268000F3E062812FEF621B08F460E021E04381F8
:1026900081810C948E12E4E4F3E062812FEF620FEB
:1026A00008F46FEF21E0438181810C948E12E4E401
:1026B000F3E0818121E0438162818C500C948E1281
:1026C000E4E4F3E0818121E043816281845F0C9442
:1026D0008E12E4E4F3E080818E7F808360817181DB
:1026E000828193810E94B00E10924A032FEF80E7FF
:1026F00092E0215080409040E1F700C000000C942F
:102700003210CF93873008F040C080911301909130
:102710001401C0E0892B71F464E670E080E40E944B
:10272000082B9093140180931301892B31F0C0E0A2
:102730000E94B72B8C2FCF91089564E670E083E15F
:102740000E94642B9093140180931301892B79F7D5
:1027500064E670E081E40E94082B9093140180935A
:102760001301892B21F784E690E00E94932B97FFB9
:1027700005C09093140180931301D9CFC82FC09541
:102780001092140110921301D3CFCFB18FB186955F
:1027900086958C73C3708C2BC82FC095CBCF789443
:1027A0001F921FB61F9211248F939F93AF93BF93D5
:1027B0008091F4029091F502A091F602B091F70297
:1027C0000196A11DB11D8093F4029093F502A09390
:1027D000F602B093F702BF91AF919F918F911F9036
:1027E0001FBE1F9018952FB7F8948091F402909116
:1027F000F502A091F602B091F7022FBF0895E09183
:102800001403F0911503309749F082E0809325037B
:102810000480F581E02D85E293E009950E94F31391
:1028200090932D0380932C0308951092ED02109243
:10283000EC020E94230886E0E5E2F3E0DF011D924E
:102840008A95E9F710922B031092F8020E94FF1369
:1028500090E080E00E94680990E080E00C945209CA
:102860006093F0027093F1028093F2029093F3026E
:102870000C9415141092EE0280911F01ECEFF1E020
:10288000882359F08091110387FF07C08EE1DF0193
:102890001D928A95E9F70C94151486E0F8CF1F93E2
:1028A000CF93DF93CDB7DEB7AA970FB6F894DEBF0C
:1028B0000FBECDBF8AE793E02091F100FC01219388
:1028C000CF01F3E082389F07B9F780917B0389300D
:1028D00009F444C018F5823009F4B7C0833009F414
:1028E0006CC0813031F580917A03813A11F5809185
:1028F000E800877F8093E80080917E0390917F03BA
:10290000892B41F560E286E593E070E00E94FD05C9
:102910008091E8008B778093E8000BC08B3009F43E
:1029200069C008F481C0823409F4A0C0853409F478
:10293000BAC08091E80083FF65C280917A039091CC
:102940007B039A3008F05EC2E92FF0E0ED56F24DBD
:102950000C94F12B60E090E080E0D7CF80917A0377
:10296000813239F780917E0390917F03029708F7B7
:102970008091E800877F8093E8008091E80082FFE3
:1029800017C09091F3008091F200029729F4809192
:10299000F1008B7F813021F48091F1008093550309
:1029A0008091E8008B778093E8000E94EC04C1CF0F
:1029B000809178038111E1CFBCCF80917A03813A75
:1029C00009F0B7CF80917E0390917F03892B09F0A6
:1029D000B0CF8091E800877F8093E8008091E80085
:1029E00080FFFCCF80911F018093F1008091E8006F
:1029F0008E77D9CF80917A03813209F09ACF809176
:102A00007E0390917F03892B09F093CF8091E8009A
:102A1000877F8093E8000E94EC0480917C03809380
:102A20001F010E943A1485CF80917A03813209F008
:102A300080CF8091E800877F8093E8000E94EC04BB
:102A400080917D038093540374CF80917A03813AFF
:102A500009F06FCF8091E800877F8093E800809134
:102A6000E80080FFFCCF80915403BECF80917A03B1
:102A7000803C09F05ECF80917E0390917F030297A6
:102A800039F580917C0390917D03019709F5809140
:102A9000E800877F8093E8006BE170E08DEB96E0C3
:102AA0000E949E0582CF80917A03803C09F041CF3D
:102AB00080917E0390917F03079751F48091E80005
:102AC000877F8093E80062EB70E08BE096E0E8CFD0
:102AD0008091EB0080628093EB002BCF803899F0DF
:102AE000823809F08FC180917E038F70873008F0A3
:102AF00089C18093E9008091EB0085FB882780F9EC
:102B00001092E90006C080917603909177039111AD
:102B100082609091E800977F9093E8008093F100A5
:102B20001092F1008091E8008E7768C1882309F443
:102B300056C1823009F066C180917C03811159C170
:102B400080917E038F702FEF280F263008F05AC136
:102B50008093E9002091EB0020FF4BC1933031F4CA
:102B60008091EB0080628093EB0043C19091EB0079
:102B700090619093EB0021E030E001C0220F8A9534
:102B8000EAF72093EA001092EA008091EB00886057
:102B9000EACF811137C110917C031F778091E30048
:102BA0008078812B8093E3008091E800877F809379
:102BB000E8000E94EC048091E80080FFFCCF809147
:102BC000E30080688093E30082E0111183E080934A
:102BD000780318C18058823008F014C180917C03BA
:102BE00090917D038C3D23E09207A1F583E08A83D9
:102BF0008AE289834FB7F894DE01139620E03EE025
:102C000051E2E32FF0E050935700E49120FF03C01E
:102C1000E295EF703F5FEF708E2F90E0EA30C0F0EA
:102C2000C7968D939D932F5F243159F74FBF8091A5
:102C3000E800877F8093E8006AE270E0CE010196A9
:102C40000E94FD058091E8008B778093E800DAC050
:102C5000C096E7CF40917E0350917F03292F332701
:102C60002330310569F1A0F42130310509F46CC03D
:102C700062E570E089ED97E02230310509F0C2C0CD
:102C80002091E800277F2093E8000E949E05DACF7C
:102C90002132310509F440C02232310509F448C01F
:102CA0002F30310509F0AEC0EBE6F8E0E4916E2F6D
:102CB00070E089E698E06115710509F4A3C0E0CFE2
:102CC000992781309105C1F0009771F0823091050C
:102CD000D9F0039709F096C0EDE3F8E0E4916E2F88
:102CE00070E08DE398E0E7CFE5E6F8E0E4916E2F41
:102CF00070E085E698E0DFCFEBE5F8E0E4916E2F39
:102D000070E08BE598E0D7CFE3E4F8E0E4916E2F34
:102D100070E083E498E0CFCF41155105D1F0413008
:102D2000510509F06FC069E070E084E098E0A8CF39
:102D30004115510599F04130510509F063C060EC2F
:102D400070E089ED96E09CCF62E170E08BE298E064
:102D500097CF69E070E08BEE97E092CF60E470E08F
:102D600089E997E08DCF803809F04CC08091E80068
:102D7000877F8093E800809179038093F100D2CE21
:102D8000811140C010917C031230E0F58091E80081
:102D9000877F8093E800109379030E94EC0411234D
:102DA00011F084E005C08091E30087FDFACF81E057
:102DB0008093780342E061EC81E00E940B0542E2DF
:102DC00061EC82E00E940B0542E361EC83E00E942B
:102DD0000B0542E360EC84E00E940B0513C0809178
:102DE0007C03813079F481E0933009F080E08093B6
:102DF00077031092E9008091E800877F8093E800D4
:102E00000E94EC048091E80083FF0AC08091E800F2
:102E1000877F8093E8008091EB0080628093EB00D5
:102E2000AA960FB6F894DEBF0FBECDBFDF91CF914B
:102E30001F9108951F920F920FB60F9211242F9396
:102E40003F934F935F936F937F938F939F93AF9332
:102E5000BF93CF93DF93EF93FF93D091E900DF709F
:102E60008091EC00C82FC17080FDC0E81092E9008D
:102E70008091F000877F8093F00078940E944F1437
:102E80001092E9008091F00088608093F000CD2BD3
:102E9000CF70C093E900FF91EF91DF91CF91BF9187
:102EA000AF919F918F917F916F915F914F913F91E2
:102EB0002F910F900FBE0F901F901895882309F443
:102EC00059C0823871F40E947E0981FF53C089E3A2
:102ED0000E9493080E94230889E30E9468080C94CA
:102EE0002308833859F40E947E0980FF43C083E59C
:102EF0000E9493080E94230883E5EFCF843859F499
:102F00000E947E0982FF36C087E40E9493080E94D7
:102F1000230887E4E2CF9CEF980F913AF0F290E219
:102F2000980F983088F4877021E030E0A90102C042
:102F3000440F551F8A95E2F7CA0180959091EE02E1
:102F400089238093EE02CBCF9BE5980F933020F43A
:102F500090E080E00C94680998E5980F973120F490
:102F600090E080E00C945209803F20F00E947F06A0
:102F70000C94FF130895882309F408C18238B9F42A
:102F80000E947E0981FD02C189E30E9493080E948C
:102F900023082FEF81EE94E0215080409040E1F72C
:102FA00000C0000089E30E9468080C94230883385D
:102FB000A1F40E947E0980FDE9C083E50E94930888
:102FC0000E9423082FEF81EE94E021508040904032
:102FD000E1F700C0000083E5E6CF8438A1F40E9449
:102FE0007E0982FDD3C087E40E9493080E942308D3
:102FF0002FEF81EE94E0215080409040E1F700C037
:10300000000087E4D0CF9CEF980F913A18F40E940B
:103010009308CBCF90E2980F983068F4877021E046
:1030200030E001C0220F8A95EAF78091EE02822BF0
:103030008093EE02BACF9BE5980F933070F4853AF7
:1030400031F0863A39F083E890E00C94680981E821
:1030500090E0FBCF82E890E0F8CF98E5980F9731A9
:1030600008F08EC0883A09F446C0893A09F446C08F
:103070008A3A09F446C08B3A09F446C08C3A09F4FE
:1030800046C08B3B09F446C08C3B09F446C08D3AE0
:1030900009F446C0803B09F446C08E3A09F446C0A4
:1030A0008F3A09F446C0813B09F446C0823B09F4DB
:1030B00046C0833B09F446C0843B09F446C0853BC7
:1030C00009F446C0863B09F446C0873B09F446C074
:1030D000883B09F446C0893B09F446C08D3B09F49E
:1030E00046C08E3B09F446C08A3B09F446C090E0D6
:1030F00080E00C94520982EE90E0FBCF89EE90E0E4
:10310000F8CF8AEE90E0F5CF85EB90E0F2CF86EB3A
:1031100090E0EFCF83EB90E0ECCF84EB90E0E9CF51
:1031200087EB90E0E6CF8CEC90E0E3CF8DEC90E085
:10313000E0CF83E891E0DDCF8AE891E0DACF82E961
:1031400091E0D7CF84E991E0D4CF81E292E0D1CF72
:1031500083E292E0CECF84E292E0CBCF85E292E0B0
:10316000C8CF86E292E0C5CF87E292E0C2CF8FE679
:1031700090E0BFCF80E790E0BCCF8AE292E0B9CF89
:10318000803F20F00E943E070C94FF130895CF93D8
:10319000C82F0E94BB17C93349F42FEF87EE93E085
:1031A000215080409040E1F700C000008C2FCF916B
:1031B0000C945E170F931F93CF93DF93C62FD42FDA
:1031C000022FFC0182818823A1F0609376020E9485
:1031D000F3139093610280936002C77081E001C095
:1031E000880FCA95EAF7DF91CF911F910F910C9448
:1031F000480910917602161335C0809160029091B3
:1032000061020E94A607883C910560F5C0E2CD0FDF
:103210001D17B9F080E2810F883040F4177081E00B
:1032200001C0880F1A95EAF70E943D09C83048F49A
:1032300081E09D2F977001C0880F9A95EAF70E9450
:103240004809802F0E94C718C83098F4D77081E0D1
:1032500001C0880FDA95EAF7DF91CF911F910F91A6
:103260000C943D09C77081E001C0880FCA95EAF748
:10327000F3CFDF91CF911F910F9108956091440397
:10328000669570E04BE050E086E091E00E94762D7C
:10329000892B19F481E080934A030E94F3139093E1
:1032A0003F0380933E0308959091440390FF36C0FE
:1032B0009170811129C0926090934403662351F06C
:1032C00060914403709145038091460390914703B8
:1032D0000E94B00E60914403669570E04BE050E0B0
:1032E00086E091E00E94762D892BA9F010924A0386
:1032F00081E08093410320E04091470360914603C1
:10330000809145030C948E12853210F09864D4CFCE
:10331000880F982BD1CF0E943E19EACF0895E4E49C
:10332000F3E080818160808360E086950C9454197D
:103330001F920F920FB60F9211242F933F934F932A
:103340005F936F937F938F939F93AF93BF93EF930D
:10335000FF938091E10082FF09C08091E20082FF2B
:1033600005C08091E1008B7F8093E1008091DA00BD
:1033700080FF24C08091D80080FF20C08091DA00B7
:103380008E7F8093DA008091D90080FFA8C080E111
:1033900089BD82E189BD09B400FEFDCF81E0809343
:1033A000780380915103811109C00E9470040E942A
:1033B0003D058091E20084608093E2008091E1000D
:1033C00080FF17C08091E20080FF13C08091E2006F
:1033D0008E7F8093E2008091E20080618093E20022
:1033E0008091D80080628093D80019BC85E08093DA
:1033F00078038091E10084FF36C08091E20084FF71
:1034000032C080E189BD82E189BD89B5982F917074
:1034100080FFFBCF8091D8008F7D8093D800809172
:10342000E1008F7E8093E1008091E2008F7E8093A7
:10343000E2008091E20081608093E2008091790354
:10344000882309F452C084E0809378030E943A14E0
:103450000E947E09109253038091520381110E94B1
:103460008F190E943E198091E10083FF27C080914F
:10347000E20083FF23C08091E100877F8093E10019
:1034800082E080937803109279038091E1008E7F2F
:103490008093E1008091E2008E7F8093E200809132
:1034A000E20080618093E20042E060E080E00E9400
:1034B0000B058091F00088608093F000FF91EF9100
:1034C000BF91AF919F918F917F916F915F914F913C
:1034D0003F912F910F900FBE0F901F90189519BC20
:1034E000109278031092510369CF8091E30087FD19
:1034F00093E090937803AACF61E00C945419E4E42C
:10350000F3E080818160808386950C947C1A8091A1
:1035100044038695815009F484E261E00C945419C7
:103520008091440386958F5F853208F081E061E0E9
:103530000C9454199091440390FF07C096959817E6
:1035400020F0961710F40C94901A0C947C1ACF92D9
:10355000DF92EF92FF92CF93DF936B017C010E9489
:10356000D007C82F0E941E0D0E941B0D0E94180D2F
:103570000E94150DD0917402C150C73040F4EC2F59
:10358000F0E0E356F24D0C94F12B0E94270DD1117F
:1035900031C088E090E00E940B2C6093440370934C
:1035A0004503809346039093470360FF47C00E9402
:1035B0007F1A8091440386950E947C1A40914703AC
:1035C00060914603809145030E94241313C00E941A
:1035D000240DDDCF0E94210DD1110CC00E948F1946
:1035E00060E081E00E94541920E04FEF6FEF89E323
:1035F0000E948E12C701B601DF91CF91FF90EF902C
:10360000DF90CF9008950E94270D0E94240DD111C4
:10361000F1CF0E948F1960E081E00E94541920E0F0
:103620004FEF6FEF80E5E4CF0E94270D0E94210D40
:10363000AECF0E94270D0E94240DF8CF0E9469137F
:10364000D9CFCF92DF92EF92FF92CF93DF9300D04A
:1036500000D0CDB7DEB70E94A71A6B017C01809124
:103660004F03882379F0198283E08A83C701B6016A
:103670000E94D0078B838EEF8C8364E0CE0101968D
:103680000E946706C701B6010F900F900F900F9030
:10369000DF91CF91FF90EF90DF90CF9008950E943F
:1036A000211B60934B0370934C0380934D039093C5
:1036B0004E030C9415140F931F9341E050E060E00B
:1036C00070E004C0440F551F661F771F8A95D2F71C
:1036D000CB01BA01609570958095909500914B0350
:1036E00010914C0320914D0330914E0360237123C0
:1036F000822393231F910F910C944F1B9091EB0207
:10370000809589238093EB02282F277071F4282F4E
:10371000082E000C330B9217130639F0859585950A
:1037200085950E945B1B1092EB0208950F931F93E7
:1037300041E050E060E070E004C0440F551F661F98
:10374000771F8A95D2F780914B0390914C03A091FB
:103750004D03B0914E038A019B01082B192B2A2B94
:103760003B2BC901B8011F910F910C944F1B4F9235
:103770005F926F927F928F929F92AF92BF92CF9201
:10378000DF92EF92FF920F931F93CF93DF9300D0BE
:1037900000D00F92CDB7DEB76C01FC01838194811C
:1037A000892B39F01081F180812F8F218F3F09F013
:1037B000F0C60F900F900F900F900F90DF91CF9168
:1037C0001F910F91FF90EF90DF90CF90BF90AF903F
:1037D0009F908F907F906F905F904F9008950E9480
:1037E000A50C082F682F89819A810E94F008E12F8B
:1037F000F0E026E0F29EE00DF11D112434E5039F78
:10380000E00DF11D1124EE0FFF1FEF54FD4F059148
:10381000149180914F03882399F0F60182811982D7
:103820008111F5C082E08A83F60180818B838181DA
:103830008C838EEF8D8365E0CE0101960E94670632
:10384000F60182810930FDE51F0709F0E2C08823F7
:10385000C9F18091FF0291E0980F9770887F9530B1
:1038600008F4892B8093FF028091FF0287702FEF6D
:10387000829FC001112495958795959587959927E5
:10388000909389008093880090938B0080938A00A6
:1038900090938D0080938C004091FF025091000323
:1038A00060910103709102038FE090E00E94292C47
:1038B00060914B0370914C0380914D0390914E03A6
:1038C0000E94211BF6018281811137C117FF84C13B
:1038D000F6018281882309F44DC08091EE02809325
:1038E00075021092EE028091FB02813009F44FC103
:1038F000882309F448C1823009F456C1843009F4A0
:103900005AC18FE39CE90197F1F700C0000058010C
:10391000E894B7F84CE0E42EF12C95010E2C02C08F
:10392000369527950A94E2F72F7087E290E031F000
:10393000822F90E02A3008F043C14D960E94C718AC
:1039400094E0E91AF108ECEFEE16EFEFFE0629F726
:103950008091FB02813009F439C1882309F432C116
:10396000823009F42FC1843009F434C1809175028A
:103970008093EE02F6012281222309F4F2C2109212
:1039800076020230FCE51F0708F433C206313CE53D
:10399000130730F0C8018A5F9C45079708F029C2D9
:1039A0000E949C0E90931203809311030F308CE5BC
:1039B000180709F4FFC108F080C10830ECE51E07C4
:1039C00009F4E2C108F053C104302CE5120709F4F0
:1039D000CFC108F03BC102308CE5180709F4C4C11F
:1039E00080911103826003301C4509F452C160913B
:1039F00011031091120384E090E00E94172C612FB4
:103A000081E290E00E94172C0E943A14D2CE81E00D
:103A10000ACFF801EA50FD45EC30F10508F052CF2D
:103A2000EC55F24D0C94F12B882309F4C2CE81E0C1
:103A30000E947C1ABECE882309F4BBCE809174020A
:103A400091E0892780937402B4CE882309F4B1CE23
:103A50000E947F1A81E00E947C1A4FEF6FEF81ED88
:103A60000E942413A6CE882309F4A3CE0E947F1AB5
:103A700081E00E947C1A40E86FEF87EDF1CF882348
:103A800009F497CE0E947F1A81E00E947C1A4DEBC8
:103A90006FEF86E5E5CF882309F48BCE0E947F1A6D
:103AA00081E00E947C1A4FEF6DED84E8D9CF882326
:103AB00009F47FCE0E947F1A81E00E947C1A4FEFAA
:103AC0006FEF8CEACDCF882309F473CE0E947F1A62
:103AD00081E00E947C1A4DEC60E080E0C1CF882339
:103AE00009F467CE0E947F1A81E00E947C1A4BEB9A
:103AF0006CE580E2B5CF882309F45BCE0E947F1A83
:103B000081E00E947C1A4FEF6FEF8BE1A9CF8823F1
:103B100009F44FCE0E947F1A81E00E947C1A4FEF79
:103B20006FEFDBCF882309F444CE0E947F1A81E037
:103B30000E947C1A49E867ECD0CF033EFCE51F07E2
:103B4000F1F058F4013E3CE51307A1F0023E8CE58C
:103B5000180709F0BBCE81E00AC0043E9CE51907B6
:103B600081F084E0053EECE51E0709F0AFCE8093BE
:103B7000FB0202C01092FB020E94AA0EA7CE82E0B6
:103B8000F6CF83E0F4CF82EE0E94BB17BACE83E07B
:103B90000E94330988E10E94BB1788E10E945E17EA
:103BA00083E00E942809ADCE82EE0E94BB1787E514
:103BB0000E94C718A6CE86EE0E94C71888E1F8CFEB
:103BC0000697BCCE82EE0E945E17D0CE8CE20E9499
:103BD000C718CCCE88E2FBCF033FFCE51F0739F1C5
:103BE000A0F4083D3CE51307F1F0093D8CE518070A
:103BF00051F1073D9CE5190709F0BCCE26E241EEE4
:103C000061EEC6010E94DA18D4CD053FECE51E072F
:103C1000B1F088F0063F2CE5120709F0ABCE27E2A1
:103C200045EE66EEEECF27E245EE65EEEACF26E200
:103C300041EE60EEE6CF27E245EE64EEE2CF26E20B
:103C400041EE62EEDECF28E241E0EFCF809111033A
:103C500080610630ECE51E07E1F080911103886079
:103C600007301C45B0F080911103806212C00B3008
:103C70002CE5120709F496C078F409308CE5180792
:103C800009F486C0809111038C600A301C4509F04C
:103C9000AECE80931103ABCE809111038B7F0D309C
:103CA000ECE51E07B1F3809111038D7F0E301C45AA
:103CB00080F380911103877FECCF0A3F2CE5120738
:103CC00009F45AC048F502318CE5180709F47AC0A6
:103CD00060F40031ECE51E0709F470C08091110317
:103CE0008F7B01311C45A9F282CE04312CE51207ED
:103CF00009F476C008F46CC005311C4509F077CE94
:103D00008091110382FB992790F921E0922790FB83
:103D100082F990FB83F9BDCF0D3F9CE5190709F4AB
:103D200045C070F40B3FFCE51F0751F18091120371
:103D30008E7F0C3F1C4509F05ACE8093120357CE5C
:103D40000F3F3CE5130709F447C040F101151D453D
:103D500009F04DCE80911203982F909591708E7F2F
:103D6000892B90FB81F9E9CF80911103816091CF7C
:103D70008091110384608DCF809112038160DDCF2B
:103D8000809112038260D9CF80911103806481CF2A
:103D90000E943A148091110380687BCF80911203B6
:103DA0008360CBCF809111038E7F73CF80911203FC
:103DB0008D7FC3CF809111038F7E6BCF80911103D4
:103DC0008F7D67CF0E943A14809111038F7761CF66
:103DD00080911103837F5DCF809112038C7FADCFE3
:103DE0000E943A1490911103892F97FB87F980580C
:103DF00050CF9091EE02892F8272F801E25CFC456F
:103E0000E431F10508F05AC0E055F24D0C94F12B65
:103E10008091440380FF03C00E946913CACC0E94B2
:103E20007F1AC7CC47E85AE160E97AE10E948A0923
:103E3000C0CC40E95AE167E87AE1F8CF47E553E1C1
:103E400060E673E1F3CF40E653E167E573E1EECF5F
:103E50004FE353E16BE473E1E9CF4BE453E16FE3EC
:103E600073E1E4CF47E253E163E373E1DFCF43E380
:103E700053E167E273E1DACF43ED5EE062EC7EE0AE
:103E8000D5CF42EC5EE063ED7EE0D0CF65E082E02E
:103E90000E949A1A8ECC68E086E0FACF6EE089E044
:103EA000F7CF64E18FE0F4CF67E185E1F1CF88E1FE
:103EB000BFCD62E289E1ECCF83E2BACD0E3DECE505
:103EC0001E0709F447C00830FDE51F0709F445C087
:103ED00001153CE5130709F06DC30E943A148FEFFA
:103EE00094E3ECE081509040E040E1F700C0000036
:103EF000F89481E08093E00080E28093D8001092F3
:103F0000C9008FE19EE40197F1F700C000001DBADF
:103F1000109268001CBC10BE1FBA10927A0010925A
:103F20006E0010926F001092710010927200109249
:103F3000C9001092BC0014B817B81AB81DB810BA4E
:103F40001092BC0015B818B81BB81EB811BA0C9462
:103F5000003F2FCC0E94F30E2CCC81E080935003C5
:103F600028CC06311C4509F43FC0F60100811181BF
:103F7000222309F443C0C8010E94A50CF82E682F23
:103F8000C8010E94F008B8018F2D0E94780A8C01A8
:103F9000B82EF601E580E2943FE0E322F280F110D2
:103FA0001092ED028091EB02877079F0FF2069F0AA
:103FB00080E2800F883048F082E00E947E1B809172
:103FC000EB028770AA24A3948111A12C912E9294C4
:103FD0002FE09222FBE0F91508F44AC0E92DF0E049
:103FE000EC53F24D0C94F12B80917702811104C0B7
:103FF00089E20E946808EDC285E3FBCFC8010E94F8
:10400000C708F82EC0CF212F2F70E22E107F19F095
:10401000E29490EFE922FF20C9F0EE2069F080E2FF
:10402000800F883010F0B1100BC08091EE02E82AAA
:10403000E092EE020E942308802F0E94BB1718C056
:104040008091ED02E82AE092ED02F4CF802F0E94E9
:104050005E17EE2069F0E094005E083010F0B110B9
:1040600028C08091EE02E822E092EE020E9423082E
:10407000292D2850330B2430310510F40E947E097D
:10408000AA2009F496CB8091EB0280FD92CBF60139
:1040900012828595859585950E94961BC6010E9482
:1040A000B71B8091EB028595859585950E945B1BDA
:1040B00080CB8091ED02E822E092ED02D7CF312F44
:1040C0003F70832E107F103219F0829480EF882287
:1040D000802FBB2041F091E0B91631F1FF2079F13A
:1040E000EE2041F1A9CFFF2091F09091EF02882DB1
:1040F000892BE11003C00E944809BACFE1E0EE121B
:10410000FACF891709F4B4CF8093EF02B1CFE11051
:1041100006C00E941D08882D0E943D09A9CFF1E02C
:10412000EF1609F4A5CFF5CFFF2031F021E02E15D1
:1041300008F49ECF882DDFCFE1109ACFECCFEE2090
:1041400051F3893349F43FEF87EE93E031508040DB
:104150009040E1F700C00000802F0E945E1788CFDA
:10416000812F86958695837061F0813009F080CF2C
:10417000C8019370F11002C090E080E00E945209E3
:1041800077CFC8019370F11002C090E080E00E94E8
:1041900068096ECFFF2009F1053F99F0063FB9F09D
:1041A000043F49F480917802909179028160909364
:1041B000790280937802802F0E943E070E94FF13AD
:1041C00057CF80917802909179028260F0CF8091F0
:1041D0007802909179028460EACF053F89F0063F2A
:1041E000A9F0043F49F480917802909179028E7F82
:1041F0009093790280937802802F0E947F06DECF11
:1042000080917802909179028D7FF2CF809178022F
:10421000909179028B7FECCF812F837009F066C07B
:10422000F11026CF802F829586958770880F880F92
:10423000602F6F70462E512C712C612C082E04C0FB
:10424000440C551C661C771C0A94D2F740E050E0E1
:10425000BA0104FF0FC04FE050E060E070E004C01E
:10426000440F551F661F771F8A95D2F740955095CA
:1042700060957095812F869586958370823019F1AF
:10428000D8F40091F0021091F1022091F2023091E5
:10429000F302813069F04429552966297729CB0139
:1042A000BA0160237123822393230E943014E0CE4D
:1042B000402A512A622A732ACB01BA01642975293E
:1042C00086299729F2CF4429552966297729009113
:1042D000F0021091F1022091F2023091F302CB0131
:1042E000BA016027712782279327DFCF8695FF20A9
:1042F00011F0812F8170882309F4BACE802F829526
:1043000086958770880F880F602F6F70462E512C0E
:10431000712C612C082E04C0440C551C661C771CA3
:104320000A94D2F740E050E0BA0104FF0FC04FE01A
:1043300050E060E070E004C0440F551F661F771F17
:104340008A95D2F74095509560957095812F869506
:1043500086958370823019F1D8F400914B03109147
:104360004C0320914D0330914E03813069F0442974
:10437000552966297729CB01BA016023712382234D
:1043800093230E944F1B74CE402A512A622A732A1B
:10439000CB01BA016429752986299729F2CF4429CE
:1043A00055296629772900914B0310914C032091E0
:1043B0004D0330914E03CB01BA016027712782274C
:1043C0009327DFCF1F70FF2029F0812F0E94961BBB
:1043D000802F91CE802F0E943D09812F0E945B1B70
:1043E00047CE802FE2EFBE1609F44EC0EB1578F0F1
:1043F000F0EFBF1619F121EFB21609F43DC0FF200E
:1044000009F465C0E11018CE812F8F713AC033EFE7
:10441000B31609F43EC094EFB912F1CFFF2009F4AE
:104420004BC01F71812F0E94961BF8E01F9FC00197
:10443000112483608093EB02812F23C0FF20B9F009
:10444000E11016CE1F7161E070E080E090E004C0E2
:10445000660F771F881F991F1A95D2F700914B039B
:1044600010914C0320914D0330914E03A6CFE1E013
:10447000EE1508F4FDCDE6CF812F8F71FF2009F4F2
:10448000ADCF0E94961BF4CD812F8F71FF20C9F311
:10449000A5CF60E070E0CB01FF2009F472CF1F715F
:1044A00061E070E080E090E004C0660F771F881F35
:1044B000991F1A95D2F765CF81E00E947E1B21E0FB
:1044C0002E1508F0D5CD82E00E947E1BD1CDE110E3
:1044D00038CE812F8F7182CFE2EFBE16D1F1EB156E
:1044E00000F1F0EFBF1649F121EFB216D1F1809142
:1044F0007A02EE2009F441C0882341F080917B02CA
:1045000091E0892780937B0210927A02802FF1102C
:1045100094CD0E945E1786E0F60111928A95E9F724
:10452000A7CD34EFB316C1F0B31688F085EFB812FB
:10453000DECFF1109DCD81E007C0FF2009F498CDBA
:1045400080917B0291E0892780937B0291CD81E06D
:10455000F826F0927B028CCDF1108ACD10927B026E
:1045600087CDFF2039F080917A02882349F3109299
:104570007A027ECDEE2021F37BCD882309F478CD1D
:10458000F11076CD80917B0291E0892780937B02A8
:10459000EECF85E0DE01119601900D928A95E1F74C
:1045A000F601228189819A81211119C90E94C708C7
:1045B000082F1DC906311C4509F0D7CC9A7A81E035
:1045C00009F480E08093770289E2911185E30E94EB
:1045D00093080E942308EDC81F93CF93DF93809127
:1045E0008102807FC1F480917E028823A1F08091B6
:1045F000B302C091820260917C0270917D02409171
:104600007F0250918002D62FD723DA01A095B09572
:1046100016E0C81304C0DF91CF911F91089590E078
:104620004115510511F0DF3F31F401968770F1CF4C
:104630002A0F3B1F17C0189FF001199FF00D11247E
:10464000ED57FD4F21812713F0CF20812613EDCFA9
:1046500022812111EACF238134812417350740F3C9
:10466000241B350B283C310500F7209181022F7067
:1046700020612093810226E0289FF001299FF00D00
:104680001124E857FD4F80818F70806180838CE713
:1046900092E00E94B71BDF91CF911F910C941E09ED
:1046A000BF92CF92DF92EF92FF920F931F93CF931F
:1046B000DF93CDB7DEB761970FB6F894DEBF0FBEBC
:1046C000CDBF8C0185E0F801DE011D9601900D92B1
:1046D0008A95E1F7D8012C9111963C911197129689
:1046E000EC90129780917F0290918002009709F4DC
:1046F00063C140917C0250917D02642F65236F3F1E
:1047000009F45AC11396CD90DC90B0907E02BB2084
:1047100009F413C1C816D906C0F1F601E81BF90B5C
:10472000CF01FF24F394883C910508F0F12C80918F
:104730008102982F907FFF2009F4C1C091117DC0A4
:10474000FE2C531327C0421325C0E11023C08F70E5
:104750008061809381028CE792E00E94B71B809178
:104760008102D80115968C938F2D61960FB6F8941F
:10477000DEBF0FBECDBFDF91CF911F910F91FF9094
:10478000EF90DF90CF90BF900895809590958C0D1D
:104790009D1DC7CFCD2829F0822F83238F3F09F09D
:1047A00035C180E0B82FB170DB2E80FF3CC0809116
:1047B000B3024091820256E0841315C02D873E87D4
:1047C0008D859E850E94E70C292F22952F7022301F
:1047D000F0F0243018F59F70F1F0F8019581907F8A
:1047E000D1F4D12C1EC090E0589FF001599FF00DDC
:1047F0001124ED57FD4F6181361306C060812613E9
:1048000003C06281E6120FC001968770D5CF9F70FA
:1048100011F0882331F3805E883018F3C8010E94BC
:10482000B71BFD2CA1CFEE2009F49ECF8091810211
:10483000816080938102F12C97CF531313C04213F0
:1048400011C0E1100FC0D80115968C93C8010E94C9
:10485000B71B86E0F801ACE7B2E001900D928A95B3
:10486000E1F782CF2D873E878D859E850E94F10CD2
:10487000882309F1EE20F9F080918102803270F0F6
:1048800020917C0230917D0238872F831986DB8648
:10489000CA868C87CE0107960E94B71B86E0F80176
:1048A000ACE7B2E001900D928A95E1F70E94EC220C
:1048B000FF24F39459CFC8010E94B71BF9CF91117F
:1048C0000CC08CE792E00E94B71B86E0ECE7F2E0B8
:1048D000DF011D928A95E9F747CF531312C04213A7
:1048E00010C0E1100EC0F8018583C8010E94B71BFB
:1048F000ECE7F2E086E0DF011D928A95E9F7FB2CF8
:1049000033CF2D873E878D859E850E94F10C8823AD
:1049100091F2EE2081F280918102803208F4BECFC4
:1049200020917C0230917D023A8329831B82DD82B3
:10493000CC828E83CE010196AFCFC816D90640F047
:10494000C81AD90AB8ECCB16D10448F0F12CBDCF67
:10495000809590958C0D9D1D883C9105B8F7FE2C97
:10496000EE2009F4A8CF531316C0421314C080914F
:10497000810280FD6ECF982F907F09F46ACFF801F5
:104980008583903F09F462CF982F907F905F8F705E
:10499000892B85835BCF2D873E878D859E850E94E1
:1049A000F10C81117BCF8091810281608093810223
:1049B000C8010E94B71BD8CEEE2009F47CCF2D870A
:1049C0003E878D859E850E94F10CF82E882309F480
:1049D00072CF86E0F801ACE7B2E001900D928A95C3
:1049E000E1F780917C0290917D020E94E70C929504
:1049F0009F70963041F480917B0291E089278093EB
:104A00007B0290937A020E94EC22AECE81E08E254A
:104A1000C9CE1F93CF93DF93CDB7DEB767970FB69D
:104A2000F894DEBF0FBECDBF6D8B7E8B8F8B8E89D2
:104A30009F89892BE1F0852F84238F3F09F098C04F
:104A40005FEF4FEF14C030917B02332309F44EC067
:104A5000E42FF0E036E0539FE00DF11D1124EE0F3E
:104A6000FF1FEF5AFE4F40815181822B8C931A8A8F
:104A7000198A4B8B5C8B85E0FE017396DE011D96D7
:104A800001900D928A95E1F786E0FE013D96DE01E8
:104A9000179601900D928A95E1F7CE0107960E9434
:104AA0005023811112C086E0FE013796DE01119677
:104AB00001900D928A95E1F78A859B85892B29F0D3
:104AC0008F81988589238F3FC9F516E08091B302C5
:104AD00090918202891320C067960FB6F894DEBFCA
:104AE0000FBECDBFDF91CF911F9108958095822396
:104AF000BDCF96E0929FD001939FB00D1124AD578A
:104B0000BD4FFE01319601900D929A95E1F7809389
:104B100082020E941E09D9CF819FC00111248D57A6
:104B20009D4F0E9450238823B9F28091B30290E0F8
:104B30000196877099278093B302C8CF2091820293
:104B400030E0C9010196877099274091B302481758
:104B5000190679F60E943A14109282021092B3025A
:104B600086E0ECE7F2E0DF011D928A95E9F7ADCF30
:104B700081E090E0042E01C0880F0A94EAF7A52F87
:104B8000B0E0AA59BD4F2C913D8931115CCF322F35
:104B900038235BCF8F929F92AF92BF92CF92DF92DA
:104BA000EF92FF920F931F93CF93DF9380911301A6
:104BB00090911401892B91F080911F028F5F809357
:104BC0001F0281110BC00E94BB0F90E09093140153
:104BD00080931301892B11F40E94220E03E013E04D
:104BE0007801C0E0912C37E0C32ECC0E8C2F0E94B0
:104BF000670F8C2D0E94670F8C2F0E948113D701A5
:104C00009D917D01D12C891729F0FD013197808379
:104C1000DD24D3948C2D0E948113F701968189178E
:104C200009F465C0868381E08D29982A0E942A0DA7
:104C3000CF5FC730C1F60E94F3136AEF70E00E94A5
:104C4000C92B882ED0911B02DD2309F4A2C010923B
:104C50001B02E091F902F091FA027F012EE0E20ED0
:104C6000F11C40E0CBEF2AEFC22ED12C51915B3FDB
:104C700081F0652F70E0282D392F8517D0F1261B84
:104C8000370B2E313105DCF19F0121503109D9015B
:104C9000CC93EE15FF0551F740931B02911002C013
:104CA000411179C010921A02A091F902B091FA0252
:104CB00020911B02E7E1F3E090E04191E801399196
:104CC0008E01431751F04C914B3FD9F48C93AF01B7
:104CD00041505109EA01388321E01196D3E0E532D1
:104CE000FD0759F720931B0290931A0258C080E0E9
:104CF0009BCFD601A61BB70B2A0F3B1FC2CF4D2F50
:104D0000C8CF91E0EACF9170892B09F459C0809106
:104D10001D0290911E028130984780F0109250033E
:104D200060914B0370914C0380914D0390914E0321
:104D30000E94A71A10921E0210921D0280911D025D
:104D400090911E02019690931E0280931D02892D60
:104D5000DF91CF911F910F91FF90EF90DF90CF9057
:104D6000BF90AF909F908F9008950E94240D2EC009
:104D7000892B69F310921E0210921D0260914B0361
:104D800070914C0380914D0390914E030E94A71A9D
:104D9000DECF911087CF90911A02911183CF80912D
:104DA0001D0290911E0220915003222309F30097C7
:104DB00009F0A9CF0E941B0D0E94180D0E94150D2D
:104DC000C0911C02CC2389F20E94180D81E0C827F3
:104DD000C0931C029CCFCDB7DEB7C955D1090FB621
:104DE000F894DEBF0FBECDBF84B7877F84BF0FB6F8
:104DF000F894A8958091600088618093600010927B
:104E000060000FBE80E890E00FB6F89480936100D8
:104E1000909361000FBE85B7806885BF85B78068B5
:104E200085BF0E9470040E943D058091E20084606D
:104E30008093E2007894809178038823A1F0109108
:104E4000E9001F709091EC00892F817090FD80E83F
:104E5000182B1092E9008091E80083FD0E944F1406
:104E60001F701093E90082E084BD93E095BD9AEF36
:104E700097BD80936E000E94BB0F90E09093140149
:104E8000809313010E942A0D0E94390DA3E0B3E024
:104E900085E293E0E7E1F3E011921D928E179F0700
:104EA000D9F78EE090E00E944B2C8093F90290930A
:104EB000FA02FC010E962BEF2193E817F907E1F7B0
:104EC00090E080E00E94112C8F3E9E4F11F00E94D6
:104ED000F30E8CE090E00E94032C90E0B0E0A0E0A4
:104EE0008093FB029093FC02A093FD02B093FE021C
:104EF00089EA8093800089E08093810024982C982F
:104F00003F988AB18F7C8AB96E98479A8BB180633B
:104F10008BB9769A8FE090E00E940B2C6093FF0291
:104F200070930003809301039093020367704FEF27
:104F3000649FB001112475956795759567957727DE
:104F4000709389006093880070938B0060938A004F
:104F500070938D0060938C000E94220E90E080E0A0
:104F60000E94112C8F3E9E4F11F00E94F30E82E0A2
:104F700090E00E94032C80932F030E949C0E90933C
:104F800012038093110383E090E00E94032C682FAA
:104F900070E090E080E00E94301480911303811152
:104FA00036C090E080E00E94112C8F3E9E4F21F091
:104FB0000E94F30E0E94E40E88E090E00E940B2C09
:104FC0006093440370934503809346039093470393
:104FD0006E7F71F40E94E40E88E090E00E940B2C3A
:104FE0006093440370934503809346039093470373
:104FF0000E948F0910924A038091440380FF04C0ED
:1050000060E086950E94541981E0809313036091BB
:105010004B0370914C0380914D0390914E030E947D
:10502000A71A85E191E09093150380931403F1E4AE
:10503000EF2EF12CEC0EFD1E22E0E20EF11CA9EF8A
:10504000CA2EA5E0DA2E80917803853009F4E8C0F5
:105050000E94CA25E0E3F3E0A7E1B3E010E000E03E
:10506000302F8D912191281709F448C190E0BB247D
:10507000B3942827422F4B2109F43BC161969FAF7F
:10508000619762963FAF62978B2191E009F490E0BF
:1050900063969FAF63970E94F3138160782F6596A4
:1050A0009FAF8EAF659761964FAD619762965FAD8A
:1050B000629763966FAD639765968FAD65970E9413
:1050C0000925F801E05DFC4F8081B826B08280910F
:1050D0002C0390912D030E94A6079C0190912B0315
:1050E000992319F02431310578F020912703B090ED
:1050F00028031091290300912A03211126C18B2D29
:10510000812B802B09F053C20E947E0990912E03BF
:10511000891721F00E947E0980932E0380914A0313
:10512000882309F441C080914903E0914403E69546
:10513000E81BE0934003823009F06BC1F0E0E95FC7
:10514000F94FE4910E2F10E0EAE6AE2EE2E1BE2E1A
:1051500080914103882389F0109241030E94F31348
:10516000980120953095820F931F90933F03809371
:105170003E03109243031092420380913E039091AC
:105180003F030E94A6078017910770F0E0913E034D
:10519000F0913F030E0F1F1F10933F0300933E0338
:1051A0008EE393E0F501099580917803843009F04E
:1051B0004ACF8093E9008091E80082FF44CF80913C
:1051C000E80090E085FF06C00E948F04882309F460
:1051D00079C191E08091E8008B778093E800992372
:1051E00009F431CF8981811189C1909150039923AC
:1051F00009F4A0C11092500381E080934F032296DE
:105200001FAE229723961FAE23978EEF24968FAF63
:10521000249763E0CE018F5B9F4F0E94670613CFF8
:1052200080917803843009F441C01092160388E11C
:1052300090E020E40FB6F894A895809360000FBE2C
:105240002093600010924A0380915303811117C08C
:1052500081E08093530380914403982F9170909341
:1052600052038E7F809344034FEF80E792E04150DA
:1052700080409040E1F700C000000E94321083B7E8
:10528000817F846083BF83B7816083BF7894889572
:1052900083B78E7F83BF0FB6F894A8958091600086
:1052A000886180936000109260000FBE8091770348
:1052B000882309F4C8CE0E94BB0F90E0909314019C
:1052C000809313010E942A0D0E94390DE7E1F3E05B
:1052D000119223E0E532F207D9F70E94CA25E7E1EF
:1052E000F3E0819181114DC143E0E532F407C9F744
:1052F000AACE9F5FBB0C963009F0BCCE0F5F1F4F4C
:105300000E30110509F0ACCE8FEF66968FAF669721
:1053100067968FAF679768961FAE68970E94F313E2
:105320008160782F6A969FAF8EAF6A9766964FAD71
:10533000669767965FAD679768966FAD68976A9650
:105340008FAD6A970E940925C2CE9F3F19F09F5FDB
:1053500090932B03121624F40E941E0780932703B8
:105360008091270387FF05C00E941E0781958093C7
:1053700027031B1424F40E941E07809328038091A6
:10538000280387FF05C00E941E078195809328038C
:10539000309127033323A1F020912803222381F0A9
:1053A00045EB3403C0011124992359F1909327034D
:1053B00045EB240390011124332339F13093280362
:1053C000111624F40E94FE0680932903809129037C
:1053D00087FF05C00E94FE06819580932903101661
:1053E00024F40E94FE0680932A0380912A0387FFFB
:1053F00005C00E94FE06819580932A030E94FF1338
:1054000083CE81E080932703D3CF81E0809328036C
:10541000D7CF863059F4F0E0EC5FF94FE4910E2FCE
:1054200010E07EE7A72E72E1B72E92CE893061F4AC
:10543000E695F0E0EF5FF94FE4910E2F10E060EE9B
:10544000A62E60E1B62E84CE8F3061F4E695F0E0B2
:10545000E250FA4FE4910E2F10E05AE0A52E51E1F0
:10546000B52E76CE853159F4F0E0E550FA4FE4914F
:105470000E2F10E049E7A42E41E1B42E69CE08EECC
:1054800013E099ECA92E91E1B92E883109F460CE90
:10549000833241F4F601059114913FE0A32E32E1ED
:1054A000B32E56CE04EF11E027EAA22E20E1B22E51
:1054B000843209F44DCE00ED17E083E6A82E86E095
:1054C000B82E46CE00E410E0CE0101965C0180913A
:1054D000E80085FD0AC08091E8008B778093E800A2
:1054E0000E948F04882399F374CE8091F100F50116
:1054F00081935F010150110951F76BCE8130D1F4D6
:1055000022961FAE229784E023968FAF23978CE0DC
:10551000E0E2F1E0D70101900D928A95E1F78EEF7C
:1055200060968FAF60976FE0CE018F5B9F4F0E94B8
:10553000670689CD90914F039923E9F0823009F0F5
:1055400082CD60914B0370914C0380914D039091FB
:105550004E030E94D00722961FAE229793E0239617
:105560009FAF239724968FAF24978EEF25968FAF0A
:10557000259764E04FCE8FEF22968FAF229761E0A0
:1055800049CE80E189BD82E189BD09B400FEFDCF2D
:105590008091D8008F7D8093D8008091E000826058
:1055A0008093E0008091E00081FDFCCF4CCD9F3FD7
:1055B00009F0CDCEDECE1F921FB61F9211248F931D
:1055C0009F93AF93BF9380911603811113C0809175
:1055D000F4029091F502A091F602B091F702419683
:1055E000A11DB11D8093F4029093F502A093F602E1
:1055F000B093F702BF91AF919F918F911F901FBE03
:105600001F9018951092B9008CE08093B80008950F
:10561000EF92FF920F931F93CF93DF93182FEB011D
:105620001092BC0084EA8093BC000E94F3137C01BA
:105630008091BC0087FF27C08091B900887F8830A7
:1056400029F08091B900887F8031D9F51093BB0093
:1056500084E88093BC000E94F3138C018091BC000D
:1056600087FF24C02091B900287F90E080E0283196
:10567000B1F081E090E0203411F490E080E0919569
:10568000819591090CC0CF3FDC0791F20E94F31382
:105690008E199F098C179D0758F28EEF9FEFDF91AF
:1056A000CF911F910F91FF90EF900895CF3FDC07AE
:1056B000A9F20E94F313801B910B8C179D0770F2C7
:1056C000ECCF8FEF9FEFEBCF0F931F93CF93DF9331
:1056D000EB018093BB0084E88093BC000E94F3132D
:1056E0008C018091BC0087FF11C02091B900287FF8
:1056F00081E090E0283211F490E080E0919581956E
:105700009109DF91CF911F910F910895CF3FDC0751
:1057100041F30E94F313801B910B8C179D0708F334
:105720008EEF9FEFEECF0F931F93CF93DF93EC019C
:1057300084E88093BC000E94F3138C018091BC002C
:1057400087FF08C08091BB0090E0DF91CF911F914F
:105750000F910895CF3FDC0789F30E94F313801B5C
:10576000910B8C179D0750F38EEF9FEFEECF84E9DE
:105770008093BC00089587FB082E062687FD81953F
:1057800067FD61950E94F72B0EF4919507FC8195BA
:105790000895AA1BBB1B51E107C0AA1FBB1FA61778
:1057A000B70710F0A61BB70B881F991F5A95A9F7CA
:1057B00080959095BC01CD01089597FB072E16F4B6
:1057C000009407D077FD09D00E94C92B07FC05D0B3
:1057D0003EF4909581959F4F0895709561957F4F08
:1057E0000895EE0FFF1F0590F491E02D0994991B89
:1057F00079E004C0991F961708F0961B881F7A95C8
:10580000C9F780950895F999FECF92BD81BDF89AA8
:10581000992780B50895A6E1B0E044E050E00C94EB
:105820003D2CA8E1B0E042E050E00C943D2C262F46
:10583000F999FECF92BD81BDF89A019700B4021686
:1058400039F01FBA20BD0FB6F894FA9AF99A0FBE34
:1058500008950396272F0E94182C0E94172C252F9D
:105860000E94182C242F0C94182C0196272F0E948C
:10587000182C0C94172CDC01CB01FC01F999FECFFC
:1058800006C0F2BDE1BDF89A319600B40D924150C8
:105890005040B8F708950F931F93CF93DF93823052
:1058A000910510F482E090E0E0918403F09185038B
:1058B00030E020E0B0E0A0E0309799F42115310508
:1058C00009F447C0281B390B24303105C0F58A8103
:1058D0009B816115710571F1FB0193838283FE0148
:1058E00011C0408151810281138148175907F8F096
:1058F0004817590799F4109761F012960C93129774
:1059000013961C933296CF01DF91CF911F910F9187
:1059100008950093840310938503F4CF2115310576
:1059200019F04217530718F49A01BD01EF01DF0186
:10593000F801C2CF9093850380938403D0CFFE01FA
:10594000E20FF31F81939193225031093983288309
:10595000DACF2091820330918303232B41F42091ED
:10596000020130910301309383032093820320913D
:105970000001309101012115310541F42DB73EB7E9
:105980004091040150910501241B350B4091820385
:10599000509183034217530708F0B5CF241B350BF2
:1059A0002817390708F4AFCFBC016E5F7F4F261769
:1059B000370708F4A8CF640F751F709383036093B3
:1059C0008203FA01819391939ECFCF93DF93009747
:1059D000E9F0FC01329713821282C0918403D091C6
:1059E0008503DE0130E020E02097A1F420813181A1
:1059F000820F931F20918203309183032817390768
:105A000009F067C0F0938303E0938203DF91CF91A5
:105A10000895DA01AE17BF0708F040C012964D9105
:105A20005C9113979D014115510599F7D901139682
:105A3000FC93EE9312974D915D91A40FB51FEA1759
:105A4000FB0779F4808191810296840F951FD9011B
:105A500011969C938E938281938113969C938E933F
:105A60001297B0E0A0E08A819B810097B9F5FE0112
:105A700081919191E80FF91F8091820390918303A6
:105A80008E179F0719F6109761F5109285031092F3
:105A90008403D0938303C0938203B8CFB383A283DC
:105AA00040815181840F951FA817B90771F44E5F8B
:105AB0005F4F8D919C911197480F591F51834083DF
:105AC00012968D919C91938382832115310509F063
:105AD000ADCFF0938503E093840398CFDE01EC0112
