:100000000C94A3040C94C0040C94C0040C94C0047D
:100010000C94C0040C94C0040C94C0040C94C00450
:100020000C94C0040C94C0040C9492180C94CE1739
:100030000C949C240C94C0040C94C0040C94C00434
:100040000C94C0040C94C0040C94C0040C94C00420
:100050000C94C0040C942A240C94C0040C94C00486
:100060000C94C0040C94C0040C94C0040C94C00400
:100070000C94C0040C94C0040C94C0040C94C004F0
:100080000C94C0040C94C0040C94C0040C94C004E0
:100090000C94C0040C94C0040C94C0040C94C004D0
:1000A0000C94C0040C94C0040C94C00480057C051E
:1000B0008A059605A405B005BC05C805D305DF056E
:1000C000EB05F70534083E08430848084D08520878
:1000D00057085C08610866086B0802067208750814
:1000E00078087B087E080406810886082609260908
:1000F00064096409AD09CD09A10BFA0B0F0AFB0ACB
:100100000D0B0D0BF50CF80CFB0CFE0C010D040D8A
:10011000070D261229122C122F12341239123712FF
:1001200013163A16A6173A16A6178216A516A6177C
:100130006417781761276127742774276A27742743
:1001400074277427612761276F27742774276F2707
:1001500029002B003900E100490200001E001400B4
:1001600004001D614A00E6001F001A0016001B640F
:100170004D004C4420000800070006644B0002516B
:1001800021001500090019624E00045822001700D2
:100190000A00050000000358C25C2D6F0000E30058
:1001A00000004800C55C2E6F0000E7000000115001
:1001B00023001C000B00110000004943240018001C
:1001C0000D00107251003D0825000C000E00366431
:1001D00052002C42260012000F00376450002A0003
:1001E00027001300330038714F00E600290031006A
:1001F0002800E500490200000100E200E100E00003
:10020000310000000100010001001D00010001009B
:100210000100010001001B00340001000100010089
:10022000010006003D002C00010001000100190042
:1002300001000100010001000100010000000100B7
:1002400001000100000001000000010001000100A8
:100250000000010000001050010001000100010039
:100260000000010001000100010010005000010029
:1002700001000100010052005100010001000100D5
:10028000010037004F0001000100010001003800AB
:10029000360001000100E200E500E4003500000046
:1002A0000100010001000100490100003A003E0088
:1002B0004200E000010001003B003F004300E2007B
:1002C000AA0001003C0040004400E200A900010037
:1002D0003D0041004500E100A80001002202470066
:1002E0004408450800000100010001000000010071
:1002F00000000100010001000000010000000100F9
:1003000023020000220265000000010024022F00E9
:100310003400E50001000100250230003500E20054
:1003200001000100260226023200E2000100010065
:10033000270227022302E4000100010001006400FB
:10034000010001004901000001000100010001005D
:10035000010000000C5D115DC65CE00001000100C1
:100360000D5D125DC55CE200AC0001000E5D135D29
:10037000CA5CE200AB0001000F5D145DC95CE100E6
:10038000AE00A600105D155D085D000000000100D4
:100390000B5D01000000010000000100C35C0100D2
:1003A000000001000000010000000000085D0000E6
:1003B00000000100FB00F900F200E500F50001007B
:1003C000F900F000F100E200F500F400FC00FA0092
:1003D000F300E2004901F60000000000E000E40044
:1003E00049020100010001000100010001000000BC
:1003F00001000100010001000100000001000100F6
:100400000100E00001000100010001000100E20024
:1004100056000100010001000100E2005700010048
:10042000010001000100E1000100010001000100E4
:1004300001000100000001000100010000000100B6
:1004400000000100010001000000010000000100A7
:1004500001005300530053000000010001005F0041
:100460005C00590062000100010060005D005A005C
:1004700063000100010061005E005B006700010095
:100480000100550057005600540001000100010012
:1004900058000100010000000001010101010101FB
:1004A0000101020202020202020202030303030329
:1004B00003030304040404040404050505050506F8
:1004C00006060606070707070708080808090909B6
:1004D000090A0A0A0B0B0B0C0C0C0D0D0D0E0E0E5F
:1004E0000F0F0F10101111111212131314141515F0
:1004F00016161717181819191A1A1B1B1C1D1D1E62
:100500001E1F2020212222232424252626272829B5
:10051000292A2B2C2D2D2E2F3031323233343536E3
:100520003738393A3B3C3D3E3F40414243444546E3
:100530004748494A4C4D4E4F5051535455565859BF
:100540005A5B5D5E5F616264656668696B6C6D6F66
:100550007072737577787A7B7D7E808283858788D9
:100560008A8C8E8F91939596989A9C9EA0A2A3A513
:10057000A7A9ABADAFB1B3B5B7BABCBEC0C2C4C614
:10058000C9CBCDCFD1D4D6D8DBDDDFE2E4E7E9EBD0
:10059000EEF0F3F5F8FAFDFF0A0000000000030694
:1005A000B200080001000000A800080002000200DC
:1005B000A0001400030057494E55534200000000AC
:1005C0000000000000008400040007002A0044002E
:1005D0006500760069006300650049006E007400E4
:1005E0006500720066006100630065004700550009
:1005F000490044007300000050007B0039004400B3
:100600004200370046003100460044002D0037000C
:100610004500370041002D00340030003000380024
:100620002D0039003300360042002D003600420014
:1006300041003600430031003900410033003000F2
:10064000380063007D00000000001B0301636F6E33
:100650006669677572652E6572676F646F782D6560
:100660007A2E636F6D0005010902A101850209015F
:10067000A100050919012905150025019505750138
:100680008102950175038101050109300931158148
:10069000257F95027508810609381581257F95010A
:1006A00075088106050C0A38021581257F950175AC
:1006B000088106C0C005010980A10185031A8100D7
:1006C0002A8300160100260300950175108100C0E1
:1006D000050C0901A10185041A01002A9C021601DA
:1006E00000269C02950175108100C005010906A134
:1006F000018505050719E029E7150025019508750D
:100700000181020507190029EF1500250195F075F3
:1007100001810205081901290595057501910295C8
:100720000175039101C005010906A101050719E042
:1007300029E71500250195087501810295017508C5
:1007400081010507190029FF150026FF0095067590
:100750000881000508190129059505750191029583
:100760000175039101C009025200030100A0FA09BA
:1007700004000001030101000921110100012240D0
:10078000000705810308000A0904010001030000B5
:100790000009211101000122C00007058203200089
:1007A0000A0904020002FF0000000705830340005D
:1007B00005070504034000051201100200000008AF
:1007C000EDFE0713010001020301040330000000E5
:1007D00016034500720067006F0064006F00780028
:1007E000200045005A00000008035A005300410051
:1007F000000004030904050F3900021C100500DF86
:1008000060DDD88945C74C9CD2659D9E648A9F0057
:10081000000306B20045001810050038B60834A9D8
:1008200009A0478BFDA0768815B66500014200003F
:10083000047F3F1F643214643214783C1E1E140A75
:1008400005FFAA7F55402223252628292A2C2D2F53
:100850003032333536383A3B3D3E404243454749D6
:100860004A4C4E5051535557595A5C5E606264660B
:1008700068696B6D6F71737577797B7D7F81838517
:1008800087898A8C8E90929496989A9C9E9FA1A319
:10089000A5A7A8AAACAEAFB1B3B4B6B8B9BBBCBE3D
:1008A000BFC1C2C3C5C6C7C9CACBCCCDCED0D1D2B9
:1008B000D2D3D4D5D6D7D7D8D9D9DADADBDBDBDCBB
:1008C000DCDCDCDCDDDDDDDDDCDCDCDCDCDBDBDB67
:1008D000DADAD9D9D8D7D7D6D5D4D3D2D2D1D0CEC7
:1008E000CDCCCBCAC9C7C6C5C3C2C1BFBEBCBBB9CC
:1008F000B8B6B4B3B1AFAEACAAA8A7A5A3A19F9E4A
:100900009C9A98969492908E8C8A89878583817F11
:100910007D7B79777573716F6D6B696866646260F2
:100920005E5C5A5957555351504E4C4A49474543BE
:1009300042403E3D3B3A3836353332302F2D2C2A5B
:1009400029282625232211241FBECFEFDAE0DEBF9F
:10095000CDBF12E0A0E0B1E0EEE9FBE502C00590FA
:100960000D92AC35B107D9F723E0ACE5B2E001C098
:100970001D92A93EB207E1F70E94A21A0C94CD2D58
:100980000C9400008F929F92AF92BF92CF92DF9211
:10099000EF92FF920F931F93CF93DF93CDB7DEB704
:1009A0002D970FB6F894DEBF0FBECDBFFC01F080CF
:1009B000118183819481892B09F441C71F3F21F460
:1009C0000FEFF01609F43BC76F0185E0DE011696C4
:1009D00001900D928A95E1F7F60122818E819F8127
:1009E000222349F00E944926082F682F8E819F817B
:1009F0000E94C22603C00E949526082F26E0129F5F
:100A0000F001112434E5039FE00DF11D1124EF0DD9
:100A1000F11DEE0FFF1FE05BFE4F059114918091D9
:100A2000F0028823B9F08091F102882399F01982AD
:100A3000F60182818111FFC682E18A83F6018081FD
:100A40008B8381818C838EEF8D8365E0CE0101964F
:100A50000E94E522F60182810930FDE51F0709F0B9
:100A600040C0882309F4D4C09091A00281E0890F8E
:100A70008770987F853020F4892B8093A00202C074
:100A80009093A0028091A00287702FEF829FC001F7
:100A90001124959587959595879599279093890029
:100AA0008093880090938B0080938A0090938D00B0
:100AB00080938C004091A0025091A1026091A2020B
:100AC0007091A3028FE090E00E94292C6091EC02CB
:100AD0007091ED028091EE029091EF020E940B1254
:100AE00097C0F801EA50FD45EC30F10508F090C0E0
:100AF000EA5AFF4F0C94812C882309F4A0C682C0C7
:100B0000882309F49CC690915C0281E08927809338
:100B10005C0295C6882309F492C60E94F20D81E01A
:100B20000E94EF0D4FEF6FEF81ED0BC0882309F4AA
:100B300086C60E94F20D81E00E94EF0D40E86FEF43
:100B400087ED0E945C227BC6882309F478C60E9448
:100B5000F20D81E00E94EF0D4DEB6FEF86E5F1CFD6
:100B6000882309F46CC60E94F20D81E00E94EF0D0B
:100B70004FEF6DED84E8E5CF882309F460C60E944D
:100B8000F20D81E00E94EF0D4FEF6FEF8CEAD9CFAD
:100B9000882309F454C60E94F20D81E00E94EF0DF3
:100BA0004DEC60E022C0882309F449C60E94F20D92
:100BB00081E00E94EF0D4BEB6CE580E2C2CF882311
:100BC00009F43DC60E94F20D81E00E94EF0D4FEF47
:100BD0006FEF8BE1B6CF882309F431C60E94F20D86
:100BE00081E00E94EF0D4FEF6FEF80E0AACF8823E6
:100BF00009F425C60E94F20D81E00E94EF0D49E83C
:100C000067ECF3CF81E001C088E10E94EF0D17C6C9
:100C1000F6018281882319F1033E3CE51307C1F0F8
:100C200050F4013E9CE5190781F0023EECE51E07F9
:100C3000B1F481E010C0043EFCE51F0759F0053E09
:100C40002CE5120761F484E006C010929C0205C0F6
:100C500082E001C083E080939C020E94CE0E17FFC9
:100C600071C0F6018281882309F46CC08091A003D1
:100C700080935D021092A00380919C02813071F0FC
:100C800048F08230C1F08430E1F486EE0E94462ABA
:100C900088E115C082EE0E94C02A13C083E00E9442
:100CA000272A88E10E94C02A88E10E94592A83E00D
:100CB0000E941C2A06C082EE0E94C02A87E50E947C
:100CC000462A8FE39CE90197F1F700C00000780104
:100CD000E894F7F85CE0A52EB12CC7010A2C02C0FD
:100CE000969587950A94E2F7282F2F7041F0822F6E
:100CF00090E02A3010F44D9604C0069702C087E2B7
:100D000090E00E94462A94E0A91AB108ECEFAE16D2
:100D1000EFEFBE0611F780919C02813039F040F070
:100D2000823031F0843051F488E206C08CE204C095
:100D300082EE0E94592A02C00E94462A80915D02DA
:100D40008093A003033FFCE51F0729F180F4083DD1
:100D50003CE51307C9F0093D8CE5180741F1073D53
:100D60009CE5190739F526E241EE61EE10C0053F1A
:100D7000ECE51E07C1F098F0063F2CE51207D1F410
:100D800027E245EE66EE03C027E245EE65EEC601BA
:100D90000E945F2254C526E241EE60EEF8CF27E2C2
:100DA00045EE64EEF4CF26E241EE62EEF0CF28E2AB
:100DB00041E0ECCFF6019281992309F439C11092F8
:100DC0005E020230FCE51F0708F41CC106312CE569
:100DD000120738F098012A5F3C452730310508F0AA
:100DE00011C10E9428259093B3028093B2020F3064
:100DF0003CE5130709F4CFC008F042C008309CE579
:100E0000190709F4A8C0F0F40430FCE51F0709F441
:100E100090C068F402303CE5130709F486C0033043
:100E20001C4509F0DFC08091B2028260D9C0063053
:100E30009CE5190709F487C008F089C08091B202C7
:100E40008860CEC00B30FCE51F0709F495C068F43C
:100E500009303CE5130709F482C00A301C4509F04B
:100E6000C1C08091B202886080C00D309CE5190736
:100E700009F486C008F087C08091B2028D7FB0C0AF
:100E80000A3FFCE51F0709F457C050F502313CE565
:100E9000130709F488C068F400319CE5190709F4C8
:100EA0007EC001311C4509F09DC08091B2028F7B4C
:100EB00097C00431FCE51F0709F487C008F479C026
:100EC00005311C4509F08EC08091B20282FB2227B9
:100ED00020F991E0922790FB82F990FB83F980C082
:100EE0000D3F8CE5180709F452C058F40B3FECE5B0
:100EF0001E0729F10C3F1C4509F074C08091B30214
:100F000060C00F3F2CE5120709F458C080F10115AD
:100F10001D4509F067C08091B302982F909591709C
:100F20008E7F892B90FB81F94DC08091B202816048
:100F300057C08091B20219C08091B3021BC080914A
:100F4000B30282603FC08091B202806149C080914B
:100F5000B202806245C08091B202806441C00E94AA
:100F6000072A8091B20280683BC0846039C08091BA
:100F7000B3028260816026C08091B2028E7F30C051
:100F80008091B20219C08091B202877F29C08091FE
:100F9000B3028D7F17C08091B2028F7E21C08091F5
:100FA000B2028F7D1DC00E94072A8091B2028F7706
:100FB00017C08091B202877F8B7F12C08091B302ED
:100FC0008D7F8E7F8093B3020DC00E94072A80918F
:100FD000B20287FB222720F991E0922790FB87F944
:100FE0008093B2026091B2021091B30284E090E06B
:100FF0000E94172C612F81E290E00E94172C0E9422
:10100000072A1DC48091A0030631FCE51F0701F5E6
:101010008A7A91E009F490E090935F02911102C006
:1010200069E201C065E386E493E00E94F0240DC00C
:1010300006311C4509F0C1C080915F028111FDC3DA
:1010400069E286E493E00E94C5240E940326F7C368
:101050008272F801E25CFC45E431F10508F058C009
:10106000EE59FF4F0C94812C8091CC0280FF03C07D
:101070000E94F311E4C30E94F20DE1C34AEF5DE068
:1010800063E07EE02CC043E05EE06AEF7DE027C0D5
:1010900045EA5CE06EEA7CE022C04EEA5CE065EA8C
:1010A0007CE01DC04DE85CE069E97CE018C049E9DE
:1010B0005CE06DE87CE013C045E75CE061E87CE063
:1010C0000EC041E85CE065E77CE009C049E85DE00E
:1010D0006AE97DE004C04AE95DE069E87DE00E94DC
:1010E0006321ADC365E082E00EC068E086E00BC01E
:1010F0006EE089E008C064E18FE005C067E185E14A
:1011000002C062E289E10E94522199C383E27DCD4F
:101110000E3DECE51E0709F446C00830FDE51F074B
:1011200009F444C001151C4509F047C00E94072A74
:101130003FEF84E39CE0315080409040E1F700C0F5
:101140000000F89481E08093E00080E28093D80072
:101150001092C900EFE1FEE43197F1F700C0000002
:101160001DBA109268001CBC10BE1FBA10927A0003
:1011700010926E0010926F00109271001092720027
:101180001092C9001092BC0014B817B81AB81DB854
:1011900010BA1092BC0015B818B81BB81EB811BA16
:1011A0000C94003F4CC30E94392549C39091F20230
:1011B00081E089278093F20242C3F6010081118108
:1011C000992349F0C8010E944926F82E682FC801CA
:1011D0000E94C22604C0C8010E949526F82EB801BC
:1011E0008F2D0E94D40E182F382FF60125812295BD
:1011F0002F700281011110929F0380919D038770CF
:10120000A9F0002399F080E2810F883078F082E025
:101210002C873D879B870E94172780919D038770AD
:10122000EE24E3942C853D859B858111E12CA92E2C
:10123000A2944FE0A422B12CFCE0AF16B10408F058
:10124000D9C2F501EA58FF4F0C94812C892F807F79
:101250009F70F92E882319F0F29480EFF822002372
:10126000B9F0FF2009F457C280E2810F883010F0F6
:10127000311106C09091A003F92AF092A00305C095
:1012800090919F03F92AF0929F030E94032643C284
:10129000812F3D870E94592A3D85FF2009F4AAC26B
:1012A000105EF094183010F0311106C09091A00338
:1012B000F922F092A00305C090919F03F922F092C9
:1012C0009F030E94032696C2492F407F892F8F706B
:1012D000403211F08295807F332319F03130E9F0EC
:1012E00025C0002381F03091A103222351F0213049
:1012F00041F4982F932B391709F47CC29093A103E2
:1013000079C2832B17C0222319F0213009F472C24D
:101310008B870E94FD258B851DC0002321F0223084
:1013200008F068C207C0211165C214C0002329F06B
:101330002111F1C10E943C2A5DC2222359F01933C8
:1013400009F0FBC10FEF27EE33E0015020403040A1
:10135000E1F7F1C10E94312A4DC2292F2695269529
:10136000237030E02115310521F02130310559F08D
:1013700041C2002319F0812F937002C080E090E0F9
:101380000E94302140C2002319F0812F937002C0C7
:1013900080E090E00E941A2136C20023F9F0153F48
:1013A00051F0163F71F0143FA9F4809160029091C2
:1013B000610281600BC08091600290916102826045
:1013C00005C08091600290916102846090936102F7
:1013D00080936002812F0E94C2231EC0153F51F0EE
:1013E000163F71F0143FA9F4809160029091610260
:1013F0008E7F0BC080916002909161028D7F05C04D
:1014000080916002909161028B7F90936102809342
:101410006002812F0E94FD220E948624F4C1892F40
:10142000837009F070C00111ECC1812F82958695FF
:101430008770880F880F412F4F7050E060E070E098
:101440004A015B01082E04C0880C991CAA1CBB1C15
:101450000A94D2F714FF12C00FE010E020E030E051
:1014600004C0000F111F221F331F8A95D2F7B90144
:10147000A801409550956095709503C040E050E0FC
:10148000BA01969596959370892F90E082309105D8
:1014900029F183309105C9F00091A2031091A303B3
:1014A0002091A4033091A503019759F048295929A7
:1014B0006A297B29CB01BA016023712382239323FC
:1014C0000AC0802A912AA22AB32ACB01BA0168292C
:1014D00079298A299B290E94CE2793C14829592915
:1014E0006A297B298091A2039091A303A091A40370
:1014F000B091A5038A019B01082719272A273B27BA
:10150000C901B801E8CF002319F0892F817001C00B
:101510008695882309F475C1812F829586958770F9
:10152000880F880F412F4F7050E060E070E04A0153
:101530005B01082E04C0880C991CAA1CBB1C0A94D1
:10154000D2F714FF12C00FE010E020E030E004C03A
:10155000000F111F221F331F8A95D2F7B901A8016E
:10156000409550956095709503C040E050E0BA01F9
:10157000969596959370892F90E082309105E9F0C9
:101580008330910579F10091EC021091ED022091E8
:10159000EE023091EF02019759F0482959296A2942
:1015A0007B29CB01BA01602371238223932320C0BE
:1015B000802A912AA22AB32A15C0482959296A29C2
:1015C0007B298091EC029091ED02A091EE02B09106
:1015D000EF028A019B01082719272A273B27C90107
:1015E000B80106C0CB01BA01682979298A299B294B
:1015F0000E94932706C19F70F92E002339F0892F8E
:101600000E943027812F0E943C2AFBC0812F0E941C
:10161000312A8F2D0E94F226F4C0812F323FC9F16A
:1016200028F4303F49F0313F79F170C0333FC1F1C8
:10163000343F09F44DC06AC0002311F12111DAC012
:10164000292F2F7181E090E0A0E0B0E0AC01BD0156
:1016500004C0440F551F661F771F2A95D2F780914B
:10166000EC029091ED02A091EE02B091EF028A019E
:101670009B01082719272A273B27C901B80125C044
:10168000223008F0B7C0DCCF002329F0892F8F71FA
:101690002EC00023D9F3892F8F710E94F226AAC091
:1016A000002381F0292F2F7181E090E0A0E0B0E0CD
:1016B000BC01CD0104C0660F771F881F991F2A95B2
:1016C000D2F703C060E070E0CB010E94932792C084
:1016D000002381F0192F1F71812F0E94302728E0ED
:1016E000129FC0011124836080939D03812F0E946B
:1016F000302780C081E02C870E9417272C8522305C
:1017000008F478C082E00E94172774C0002339F0E3
:10171000222309F4BBCF812F0E94C02A6BC0222351
:1017200009F4B9CF893349F43FEF87EE93E03150A4
:1017300080409040E1F700C00000812F0E94592AAC
:1017400059C0323FB1F028F4303F49F0313FF9F051
:1017500028C0343FB9F058F0353F71F022C0002363
:1017600009F451C09091AC0381E0892708C081E061
:1017700008270093AC0347C0011145C081E0809366
:10178000AC0341C001113FC01092AC033CC0002328
:1017900029F08091AB03882329F329C0222311F378
:1017A00032C08091AB032223C1F0882341F0909195
:1017B000AC0381E089278093AC031092AB03812FA7
:1017C000002319F00E94C02A1EC00E94592A86E0F8
:1017D000F60111928A95E9F716C08823A1F001114C
:1017E00012C09091AC0381E089278093AC031092E2
:1017F000AB0309C0F8E0AF1AB10804E0A016B104C9
:1018000010F40E944621EE20D1F080919D0380FDCE
:1018100016C0F60112828595859585950E94302720
:10182000C6010E94C20480919D038595859585958A
:101830000E94F22604C081E100C965E302CC2D9626
:101840000FB6F894DEBF0FBECDBFDF91CF911F91D1
:101850000F91FF90EF90DF90CF90BF90AF909F904F
:101860008F9008959091B20292FF0DC0282F287199
:10187000283019F4877F846006C0282F2471243013
:1018800011F48B7F886093FF0DC0282F28712831B9
:1018900019F4877E846106C0282F2471243111F445
:1018A0008B7E88612091B30220FF0DC0382F3871E4
:1018B000383019F4877F816006C0382F317131309C
:1018C00011F48E7F886021FF0DC0282F28712831E8
:1018D00019F4877E816106C0282F2171213111F40E
:1018E0008E7E886194FD877E0895ECECF2E0438162
:1018F0002CE0421B08F440E021E0628181810C94DD
:10190000C021ECECF2E043812CE0420F08F44FEFF1
:1019100021E0628181810C94C021ECECF2E06281D3
:101920002FEF621B08F460E021E0438181810C9479
:10193000C021ECECF2E062812FEF620F08F46FEF50
:1019400021E0438181810C94C021ECECF2E08181A3
:1019500021E0438162818C500C94C021ECECF2E0D8
:10196000818121E043816281845F0C94C021CF9307
:10197000E82F873080F58091070190910801892B2D
:1019800009F047C0CE2F64E670E080E40E94532B3C
:101990009093080180930701892BD1F464E670E0ED
:1019A00082E10E94AA2B9093080180930701892B62
:1019B00079F481E090E001C0880FCA95EAF764E607
:1019C00070E080950E94AA2B9093080180930701F4
:1019D000CF910C94FF2B90E0FC013797E730F10595
:1019E000C0F4EE57FF4F0C94812C209A289811C018
:1019F000219A29980EC0229A2A980BC0239A2B98D4
:101A000008C0529A5A9805C0539A5B9802C03E9AF1
:101A10004698CF910895CF93873008F03FC08091CA
:101A2000070190910801892B09F041C064E670E03C
:101A300080E40E94532B9093080180930701892B27
:101A400011F0C0E027C064E670E083E10E94AA2B99
:101A50009093080180930701892B99F764E670E061
:101A600081E40E94532B9093080180930701892BF6
:101A700041F784E690E00E94DA2B97FF05C090932F
:101A8000080180930701DDCFC82FC095109208018F
:101A9000109207010E94FF2B8C2F0AC09FB18FB1BB
:101AA000807F869586959370892B809501C080E014
:101AB000CF9108958091CC02282F269530E02115F2
:101AC000310519F48170826005C02532310524F09A
:101AD000817088648093CC020895CF93DF9300D007
:101AE00000D0CDB7DEB7AB01BC0149835A836B830D
:101AF0007C830E945A0D49815A816B817C8188E0E8
:101B000090E00F900F900F900F90DF91CF910C9479
:101B1000292C8091D002882319F081508093D00223
:101B20006091CC027091CD028091CE029091CF0253
:101B30000C946D0D8091D002833018F48F5F8093E8
:101B4000D0026091CC027091CD028091CE02909132
:101B5000CF020C946D0D9091CC0290FF36C0917025
:101B6000811102C0926006C0853210F0986402C0F4
:101B7000880F982B9093CC02662351F06091CC0291
:101B80007091CD028091CE029091CF020E946D0D96
:101B90006091CC02669570E04BE050E083E191E00B
:101BA0000E94C02D892B19F01092D20202C00E940F
:101BB000CC2281E08093C90220E04091CF02609165
:101BC000CE028091CD020C94C0210895ECECF2E09D
:101BD00080818160808360E086950C94AB0D61E02C
:101BE0000C94AB0DECECF2E08081816080838695F3
:101BF0000C94EF0D8091CC028695815009F484E21B
:101C000061E00C94AB0D8091CC0286958F5F85329C
:101C100008F081E061E00C94AB0DECECF2E083E0C5
:101C2000808311828FEF828383831482608171812C
:101C3000828193810C946D0DBF92CF92DF92EF92CF
:101C4000FF920F931F93CF93DF93E82EF62EE901B7
:101C5000E42FF0E0611106C0E856FB4FE491BE2E80
:101C60008E2F73C0262F30E0E856FB4FE491FE2FF5
:101C7000CE2ED12C46E0849FC00111240FEF10E03E
:101C8000B8010E94592C4BEA4603D001479FB00D82
:101C90001124AE0DB11DAE0DB11D8A2F880FA80FF6
:101CA000C801821B930BC89EA001C99E500DD89EEF
:101CB000500D1124B52EAF9DC0011124892F9927F5
:101CC0007801E81AF90AC701C89E7001C99EF00C94
:101CD000D89EF00C1124C8018A1B9109DC01A29F37
:101CE000C001A39F900DB29F900D1124892F9927B9
:101CF000081B190BC09E9001C19E300DD09E300D67
:101D00001124832F6230710591F04CF46115710537
:101D1000E1F061307105B9F48E2FEF2D16C06430FB
:101D2000710569F044F06630710579F00CC08E2FB2
:101D3000E52FB32E0AC0E52FBF2E8F2D06C0852FAD
:101D4000BE2EE32F02C0852FBF2CE9838883BA8281
:101D50001B82DF91CF911F910F91FF90EF90DF9049
:101D6000CF90BF900895CF93DF9300D000D0CDB730
:101D7000DEB79091CC0290FF0AC09E012F5F3F4FCB
:101D80000E941C0E4B8169818A810E9469210F90FB
:101D90000F900F900F90DF91CF91089560919C026A
:101DA0008CE090E00C94172CCF93DF9326E0729F89
:101DB000F001112444E5849FE00DF11D1124E60F8C
:101DC000F11DEE0FFF1FE05BFE4FC591D491CE01D8
:101DD000C238D10569F1B0F4C133D10509F475C039
:101DE00048F4C932D10509F469C0CA32D10509F4F1
:101DF00073C085C0C533D10509F459C0C933D105B5
:101E0000B9F07DC0C33ED10571F138F4C03ED105B3
:101E1000B1F0C23ED10511F172C0C63ED105B9F193
:101E2000C73ED105C9F1C43ED10509F068C024C040
:101E30004091B20240FD5DC041FD5BC060C0209199
:101E4000B20220FD50C02091B30220FF54C1809106
:101E5000B20284FD4EC183EE90E04DC12091B202EA
:101E600022FF49C1F4CF8091B20282FD3FC0809130
:101E7000B30280FD3EC0EBCF2091B30221FF3BC1F6
:101E80008091B20284FD35C187EE90E034C120918B
:101E9000B20223FF30C1F4CF8091B20283FD2CC087
:101EA0008091B30281FFECCF84EE90E024C12091B9
:101EB000B20225FF20C189E290E01DC12091B2024B
:101EC00025FF19C185E390E016C12091B20226FFDB
:101ED00012C18AE290E00FC12091B20226FF0BC12D
:101EE00081E390E008C189E390E005C182EE90E0D3
:101EF00002C180EE90E0FFC086EE90E0FCC0C1150C
:101F000052E5D50708F074C0C11521E5D20728F0C5
:101F10009C2F8827816F906AEEC0C83ED10570F56E
:101F2000C03ED10508F0E7C0C83AD105B8F4C53ABB
:101F3000D10550F08C2F855AE82FF0E0E05EFE4F7F
:101F4000808190E09064D7C0C130D10509F4D3C03E
:101F500008F4CFC0249708F4CCC0CDC0CF3BD10546
:101F600008F0C7C08C2F885AE82FF0E0EE0FFF1F53
:101F7000ED5DFE4F808191819464BDC0C11540E24A
:101F8000D40760F4C11551E0D50708F0B4C0C03FD4
:101F9000D10508F4AEC0CE019065ADC0C11580E496
:101FA000D80708F4A6C0C11590E5D90720F4CE01E2
:101FB0009F70906AA0C04C2F437081E090E002C0F7
:101FC000880F991F4A95E2F79C68AE01F4E0569598
:101FD0004795FA95E1F74370942B2C2F2F70269597
:101FE000269550E2259F90011124822B932B83C0CC
:101FF000C11526E5D207E8F5C11545E5D40748F037
:102000008C2F0E94320C8F7190E0982F882790625D
:1020100072C0C11554E5D50728F09C2F8827846F1E
:10202000906A69C08C2F86958695AE0143705527BE
:10203000C115D34578F490E2899F9001112481E085
:1020400090E002C0880F991F4A95E2F7822B932BEC
:102050009C6851C090E2899F9001112481E090E03A
:1020600002C0880F991F4A95E2F7822B932B9A683A
:1020700042C0C1152AE5D20780F5C11549E5D4074C
:1020800018F18C2F8F700E94320C9E0194E03695CF
:1020900027959A95E1F72F7030E0322F222730698B
:1020A000A901482B0FC0CE0190568115904208F52A
:1020B0008D2F8F710E94320C9E01332730628F71F9
:1020C000A901582BCA0117C0C11558E5D50788F0DA
:1020D0009C2F8827806F906A0EC0C1158BE5D807AA
:1020E00040F0C1159CE5D907F0F6CE01992790661E
:1020F00002C080E090E0DF91CF91089580E290E00F
:1021000090930801809307018091680281110EC0AD
:102110000E944D2B81E0809368022FEF83ED90E3C6
:10212000215080409040E1F700C0000064E670E07C
:1021300080E40E94532B9093080180930701892B20
:1021400009F04EC064E670E080E00E94AA2B9093F4
:10215000080180930701892B09F042C064E670E012
:1021600080E00E94AA2B9093080180930701892B9D
:10217000B9F564E670E08FE30E94AA2B9093080102
:1021800080930701892B61F50E94FF2B64E670E0C4
:1021900080E40E94532B9093080180930701892BC0
:1021A000F9F464E670E08CE00E94AA2B9093080199
:1021B00080930701892BA1F464E670E080E00E941F
:1021C000AA2B9093080180930701892B49F464E6B8
:1021D00070E08FE30E94AA2B90930801809307017F
:1021E0000E94FF2B809107010895CF93DF935698AB
:1021F0005E9825982D9826982E9827982F98C8E8AD
:10220000D0E08FEF90E099838883AAE8B0E0119640
:102210009C938E93ECE8F0E091838083259A2D9A2D
:102220002FEF80E792E0215080409040E1F700C01E
:102230000000269A2E9A2FEF80E792E021508040EE
:102240009040E1F700C00000279A2F9A2FEF80E717
:1022500092E0215080409040E1F700C000002598B6
:102260002D982FEF80E792E0215080409040E1F7D9
:1022700000C0000026982E982FEF80E792E02150B2
:1022800080409040E1F700C0000027982F9880918F
:10229000A00287702FEF829FC0011124959587952A
:1022A0009595879599279983888311969C938E930A
:1022B0009183808356985E9825982D9826982E981D
:1022C00027982F98DF91CF910895EF92FF920F9367
:1022D0001F93CF93DF938091CC0280FF06C0C6EF9F
:1022E000D2E0DE0140E050E00EC080E090E0FC0172
:1022F000EA50FD4F118210821282138204968C33B1
:102300009105A9F7ECCFFA01EA50FD4F92812C918B
:102310003181822F921708F4892F381708F4832F00
:102320008383381B3183281B2C93981B92834C5F2B
:102330005F4F14964C33510531F70E944D2B64E6E4
:1023400070E084E80E94532B00E010E0C8018A503E
:102350009D4F7C0164E670E0FC0180810E94AA2B05
:1023600064E670E0F70181810E94AA2B64E670E0C8
:10237000F70182810E94AA2B64E670E0F701838155
:102380000E94AA2B0C5F1F4F0C331105F9F60E9417
:10239000FF2B579A8BB18F779BB190682FB7F8942A
:1023A000F3E0C233DF0789F0399148E09BB90000C0
:1023B00000C037FF8BB9330F000000C000C000C061
:1023C0008BB900C04A9591F7EBCF2FBF8FE391E017
:1023D0000197F1F700C00000DF91CF911F910F919D
:1023E000FF90EF900895ECECF2E080818E7F808387
:1023F00060817181828193810E946D0D1092D20261
:102400002FEF80E792E0215080409040E1F700C03C
:1024100000000C946511CF92DF92EF92FF926B0156
:102420007C010E94AD2556985E9825982D98269897
:102430002E9827982F98482F50E0FA013197E730CF
:10244000F105E0F4E757FF4F0C94812C259A2D9A63
:102450001BC0269A2E9A27C0279A2F9A33C0259AF6
:102460002D9A269A2E9A3FC0259A2D9A04C0259A15
:102470002D9A269A2E9A279A2F9A35C0823099F053
:10248000833001F1813079F580915C0281114FC078
:102490000E94E60D60E081E00E94AB0D20E04FEF6E
:1024A0006FEF80E01DC080915C02811140C00E94EE
:1024B000E60D60E081E00E94AB0D20E04FEF6FEF92
:1024C0008BE20EC080915C02811131C00E94E60D4A
:1024D00060E081E00E94AB0D20E04FEF6FEF86E1FE
:1024E0000E94C02124C080915C02811120C088E03C
:1024F00090E00E940B2C6093CC027093CD028093ED
:10250000CE029093CF0260FF10C00E94F20D809126
:10251000CC0286950E94EF0D4091CF026091CE02D1
:102520008091CD020E945C2202C00E94F311C7017B
:10253000B601FF90EF90DF90CF90089584B1807F37
:1025400084B985B1807F85B98AB1837F8AB98BB11F
:10255000837F8BB93E984698089580B38C7080BB7A
:1025600081B3836F81BB08959F92AF92BF92CF9248
:10257000DF92EF92FF920F931F93CF93DF9380919F
:10258000070190910801892B91F0809167028F5F7C
:102590008093670281110BC00E947E1090E090939F
:1025A000080180930701892B11F40E94F51004EAB9
:1025B00012E02BEAE22E22E0F22E6801C0E0912C1C
:1025C00097E0A92EAC0E8C2F0E94B70C8A2D0E948A
:1025D000B70C8C2F0E940B0DF6019081981721F0FB
:1025E0008083BB24B39401C0B12C8A2D0E940B0DB3
:1025F000F7019081981719F0808381E001C080E095
:10260000B82A9B280E949E12CF5FFFEFCF1ADF0AE5
:102610002FEFE21AF20AC73099F60E947A246AEF85
:1026200070E00E94592C9C01682F809163028823DE
:10263000E9F110926302E0919A02F0919B02DF01AE
:102640001E9690E07BEF8AEFE82EF12C80818B3F85
:10265000A9F0482F50E0681728F0E901C41BD50BFA
:10266000AE0106C06701C41AD50AA601420F531F66
:102670004E31510514F0708301C091E03196EA1794
:10268000FB0721F790936302911002C0911110C0D3
:1026900010926202A0919A02B0919B029091630203
:1026A000E8EBF2E080E03EE03E0F0FC09110F0CF8B
:1026B000809162028111ECCF2091F202809165023B
:1026C00090916602211118C056C0E80129918E012F
:1026D0004081421741F04C914B3F21F46C93208391
:1026E00091E001C081E0119631963E13EECF9093B8
:1026F000630280936202E0CF892B31F425982D98F4
:1027000026982E9827982F988091650290916602BE
:102710009170892B79F480916402882319F02698AE
:102720002E9802C0269A2E9A9091640281E0892701
:10273000809364028091650290916602813098478F
:1027400080F01092F2026091EC027091ED028091A3
:10275000EE029091EF020E940B121092660210920C
:1027600065028091650290916602019690936602DF
:102770008093650210C0892B71F01092660210924E
:1027800065026091EC027091ED028091EE029091F1
:10279000EF020E940B12892DDF91CF911F910F91B3
:1027A000FF90EF90DF90CF90BF90AF909F900895F3
:1027B0008091920287FF11C08091E80082FD05C0E0
:1027C000809190028111F8CF11C08091E8008B7741
:1027D0000BC080919002882349F08091E80080FF2F
:1027E000F8CF8091E8008E778093E8000895982FC5
:1027F000973058F59093E900981739F07091EC00F4
:102800002091ED005091F00003C0242F762F50E06E
:1028100021FF19C03091EB003E7F3093EB003091E7
:10282000ED003D7F3093ED003091EB00316030934F
:10283000EB007093EC002093ED005093F00020919A
:10284000EE0027FF07C09F5FD3CF8F708093E90012
:1028500081E0089580E008952091980230919902D6
:102860002617370748F06115710539F42091E80003
:102870002E772093E80001C0B901FC0120E061152A
:10288000710591F180919002882309F440C0853050
:1028900009F43FC08091E80083FD3DC08091E800CD
:1028A00082FD2FC08091E80080FFE9CF2091F300E6
:1028B0008091F20090E0922B6115710559F08830FB
:1028C000910540F424912093F100319661507109F3
:1028D0000196F2CF21E0089709F020E08091E8000E
:1028E0008E778093E800CBCF2111CCCF0AC08091A6
:1028F0009002882361F0853061F08091E80083FDCB
:102900000AC08091E80082FFF2CF80E0089582E063
:10291000089583E0089581E0089520919802309110
:1029200099022617370748F06115710539F420918F
:10293000E8002E772093E80001C0B90140E061155E
:102940007105A9F120919002222309F443C025309A
:1029500009F442C02091E80023FD40C02091E80026
:1029600022FD32C02091E80020FFE9CF4091F30022
:102970002091F20030E0342BFC01CF01611571058C
:1029800059F02830310540F481918093F100615075
:1029900071092F5F3F4FF1CF41E02830310509F039
:1029A00040E02091E8002E772093E800C8CF411145
:1029B000C9CF0AC080919002882361F0853061F010
:1029C0008091E80083FD0AC08091E80082FFF2CF89
:1029D00080E0089582E0089583E0089581E00895FD
:1029E0001F93CF93DF93CDB7DEB7AA970FB6F894B6
:1029F000DEBF0FBECDBFE2E9F2E088E08E0F90911E
:102A0000F10091938E13FBCF809193028930B9F13D
:102A100050F4823009F4A5C0833009F45FC08130DE
:102A200009F0EEC00CC08B3009F470C008F488C007
:102A3000823409F4AEC0853409F4C5C0E1C0809188
:102A40009202813A09F0DCC08091E800877F809390
:102A5000E8008091960290919702892B21F460E220
:102A60008EE692E003C060E080E090E070E00E94BB
:102A70008D148091E8008B778093E800C1C080912D
:102A80009202813209F0BCC0809196029091970227
:102A9000029708F0B5C08091E800877F8093E80036
:102AA0008091E80082FD05C0809190028111F8CFED
:102AB000A7C02091F3008091F20090E0922B029742
:102AC00029F48091F1008B7F813021F48091F10015
:102AD00080936D028091E8008B7758C080919202BC
:102AE000813A09F08DC08091960290919702892BCE
:102AF00009F086C08091E800877F8093E80080918C
:102B0000E80080FFFCCF809106013BC080919202DB
:102B1000813209F075C08091960290919702892BBD
:102B200009F06EC08091E800877F8093E8000E94E2
:102B3000D81380919402809306010E94072A60C0F6
:102B400080919202813209F05BC08091E800877F1A
:102B50008093E8000E94D8138091950280936C02C4
:102B60004FC080919202813A09F04AC08091E800FA
:102B7000877F8093E8008091E80080FFFCCF809100
:102B80006C028093F1008091E8008E778093E800DA
:102B90002FC080919202803C99F58091960290918D
:102BA0009702029741F58091940290919502892BAA
:102BB00011F58091E800877F8093E8006BE170E079
:102BC0008AE496E013C080919202803CC9F480911F
:102BD000960290919702079771F48091E800877FA1
:102BE0008093E80062EB70E088E995E00E942C1485
:102BF0000E94D81305C08091EB0080628093EB00A7
:102C00008091E80083FFA2C180919202909193028B
:102C1000492F50E04A30510508F098C1FA01E057B9
:102C2000FF4F0C94812C803821F0823809F08EC13E
:102C300008C080918E0290918F02992389F0826062
:102C40000FC0809196028F70873008F07FC180930B
:102C5000E9008091EB0085FB882780F91092E9005C
:102C60009091E800977F9093E8008093F100109294
:102C7000F10036C1282F2D7F09F068C1882319F093
:102C8000823061F063C180919402813009F05EC1AD
:102C9000933009F080E080938F022EC080919402DF
:102CA00081112AC0809196028F702FEF280F263055
:102CB00008F04CC18093E9002091EB0020FF1CC07C
:102CC000933021F48091EB00806214C09091EB006E
:102CD00090619093EB0021E030E0A90102C0440F25
:102CE000551F8A95E2F74093EA001092EA0080911E
:102CF000EB0088608093EB001092E9008091E8007F
:102D0000877FF1C0811122C1109194021F778091B9
:102D1000E3008078812B8093E3008091E800877F37
:102D20008093E8000E94D8138091E80080FFFCCFD8
:102D30008091E30080688093E300111102C082E07B
:102D400001C083E08093900201C18058823008F076
:102D5000FDC080919402909195028C3D53E09507BF
:102D600079F583E08A838AE289834FB7F894DE019C
:102D7000139620E03EE051E2E32FF0E0509357003D
:102D8000E49120FF03C0E295EF703F5FEF708E2F5C
:102D900090E0EA3010F0C79601C0C0968D939D93E5
:102DA0002F5F243149F74FBF8091E800877F8093E0
:102DB000E8006AE270E0CE0101960E948D147EC0A8
:102DC0004091960250919702292F332723303105E5
:102DD00011F16CF42130310509F4C7C022303105FE
:102DE00009F0B4C062E570E086E697E060C0213289
:102DF000310509F43EC02232310509F447C02F30B5
:102E0000310509F0A3C0E8EFF7E0E4916E2F70E020
:102E100086EF97E048C0992781309105D1F05CF4A6
:102E2000892B09F093C0E2EFF7E0E4916E2F70E098
:102E300082EF97E038C08230910599F0039709F04E
:102E400085C0EAECF7E0E4916E2F70E08AEC97E041
:102E50002AC0E8EEF7E0E4916E2F70E088EE97E08C
:102E600022C0E0EDF7E0E4916E2F70E080ED97E096
:102E70001AC04115510509F47DC04130510509F0D2
:102E800065C069E070E081E997E011C04115510526
:102E900009F475C04130510509F058C060EC70E08C
:102EA00086E696E004C06115710509F44FC02091D3
:102EB000E800277F2093E8000E942C148091E8000E
:102EC0008B778093E80042C0803809F03FC0809142
:102ED000E800877F8093E800809191028093F10061
:102EE0008091E8008E778093E8000E94D8132EC06E
:102EF00081112CC010919402123040F58091E800AD
:102F0000877F8093E800109391020E94D8131111DB
:102F100006C08091E30087FD02C081E001C084E02B
:102F20008093900242E061EC81E00E94F71342E25C
:102F300061EC82E00E94F71342E361EC83E00E94BF
:102F4000F71342E360EC84E00E94F7138091E800FD
:102F500083FF1AC08091E800877F8093E80080910A
:102F6000EB0080628093EB000FC062E170E088EBC1
:102F700097E09DCF69E070E088E797E098CF60E444
:102F800070E086E297E093CFAA960FB6F894DEBF82
:102F90000FBECDBFDF91CF911F9108951F920F9269
:102FA0000FB60F9211242F933F934F935F936F931C
:102FB0007F938F939F93AF93BF93CF93DF93EF93C1
:102FC000FF93C091E900CF708091EC00D82FD170B1
:102FD00080FDD0E81092E9008091F000877F809317
:102FE000F00078940E94F0141092E9008091F000B3
:102FF00088608093F000CD2BCF70C093E900FF91E3
:10300000EF91DF91CF91BF91AF919F918F917F9180
:103010006F915F914F913F912F910F900FBE0F9045
:103020001F901895E8EDF0E080818E7F80831092EC
:10303000E2001092DA001092E100A0EEB0E08C9174
:1030400081608C9380818F77808319BCA7EDB0E07D
:103050008C918E7F8C9380818F7E80831092690209
:103060000895CF92DF92EF92FF920F931F93CF9329
:10307000DF93C8EDD0E088818F7E8883E7EDF0E0B4
:1030800080818160808384E082BF81E080936902D7
:1030900088818E7F888302EE10E0F8011082109202
:1030A000DA0081EEC82ED12CF601108288818F774C
:1030B000888388818068888388818F7D888319BC14
:1030C000109290021092910210928F0210928E0232
:1030D00090EEE92EF12CF70180818B7F808388812F
:1030E0008160888342E060E080E00E94F713F6018F
:1030F00080818E7F8083F8018081816080838081E0
:1031000088608083F70180818E7F808388818061E1
:103110008883DF91CF911F910F91FF90EF90DF9007
:10312000CF9008951F920F920FB60F9211242F93F4
:103130003F934F935F936F937F938F939F93AF933F
:10314000BF93EF93FF938091E10082FF09C08091CC
:10315000E20082FF05C08091E1008B7F8093E10057
:103160008091DA0080FF2AC08091D80080FF26C0BD
:103170008091DA008E7F8093DA008091D90080FF01
:1031800018C080E189BD82E189BD09B400FEFDCF90
:1031900081E0809390028091690281110FC00E94AA
:1031A00012180E9431188091E20084608093E2003E
:1031B00005C019BC10929002109269028091E10042
:1031C00080FF17C08091E20080FF13C08091E20071
:1031D0008E7F8093E2008091E20080618093E20024
:1031E0008091D80080628093D80019BC85E08093DC
:1031F00090028091E10084FF3BC08091E20084FF57
:1032000037C080E189BD82E189BD09B400FEFDCFF0
:103210008091D8008F7D8093D8008091E1008F7ECF
:103220008093E1008091E2008F7E8093E2008091A4
:10323000E20081608093E20080919102882311F086
:1032400084E007C08091E30087FD02C081E001C0F7
:1032500083E0809390020E94072A0E9446211092E8
:103260006B0280916A0281110E94E60D0E94CC22BD
:103270008091E10083FF27C08091E20083FF23C09B
:103280008091E100877F8093E10082E0809390024B
:10329000109291028091E1008E7F8093E1008091F5
:1032A000E2008E7F8093E2008091E2008061809353
:1032B000E20042E060E080E00E94F7138091F000BD
:1032C00088608093F000FF91EF91BF91AF919F9143
:1032D0008F917F916F915F914F913F912F910F90BF
:1032E0000FBE0F901F9018952091E4003091E500DB
:1032F00095E64091EC00842F817040FF22C08091C0
:10330000E80080FD1CC080919002882391F08530F8
:1033100091F08091EB0085FD10C04091E400509148
:10332000E5004217530729F39A01915011F784E001
:10333000089582E0089583E0089581E0089580E093
:1033400008954091E80042FFDECF0895CF92DF92CA
:10335000FF920F931F93CF93DF931F92CDB7DEB7EA
:10336000F82E8B0199830E947419998181111CC0D8
:10337000CF2CD92E01151105B1F08091E80085FD03
:103380000AC08091E8008E778093E8000E9474194B
:10339000882381F309C0F60181916F018093F100C8
:1033A00001501109E7CF80E00F90DF91CF911F917D
:1033B0000F91FF90DF90CF9008958091900284301C
:1033C00011F081E0089582E00895CF93DF9300D05B
:1033D0001F92CDB7DEB790919002943019F5898392
:1033E0007B836A8382E08093E9008FEF9091E8000D
:1033F000815095FD06C095ED9A95F1F70000811179
:10340000F5CF8091E80085FF0DC040E050E063E01B
:1034100070E0CE0101960E94A6198091E8008E7797
:103420008093E8000F900F900F90DF91CF91089557
:10343000CF93DF93EC010E94DD19823011F08430CC
:1034400031F4BE0184E0DF91CF910C94E519DF9156
:10345000CF910895BC016058710983E00C94E5197F
:10346000CF93DF93EC010E94DD19823011F084309C
:10347000F9F482E08093E9009FEF8091E800915099
:1034800085FD06C085ED8A95F1F700009111F5CF15
:103490008091E80085FF0CC040E050E066E070E0FD
:1034A000CE010E94A6198091E8008E778093E800F3
:1034B000DF91CF910895CF93DF93EC010E94DD1946
:1034C000823011F08430D9F580910601882339F0DB
:1034D0008091B20287FF03C060E282E002C068E030
:1034E00081E08093E9008FEF9091E800815095FD95
:1034F00006C095ED9A95F1F700008111F5CF809106
:10350000E80085FF1CC080910601811105C040E0E4
:1035100050E068E070E003C070E040E050E0CE01B1
:103520000E94A6198091E8008E778093E80080E2DF
:10353000FE01AEE6B2E001900D928A95E1F7DF91CF
:10354000CF910895CF93DF93CDB7DEB7CB55D10997
:103550000FB6F894DEBF0FBECDBF84B7877F84BFA0
:103560000FB6F894A8958091600088618093600000
:10357000109260000FBE90E080E80FB6F894809340
:103580006100909361000FBE85B7806885BF85B7E5
:10359000806885BF0E9412180E9431188091E20055
:1035A00084608093E2007894809190028823A1F057
:1035B0001091E9001F709091EC00892F817090FDAF
:1035C00080E8182B1092E9008091E80083FD0E94AA
:1035D000F0141F701093E90082E084BD93E095BD64
:1035E0009AEF97BD80936E000E947E1090E09093BA
:1035F0000801809307010E949E120E94AD12A4EA66
:10360000B2E0E8EBF2E06EE0D62EDE0E11921D92F3
:10361000DE12FCCF8EE090E00E94932C80939A0201
:1036200090939B02FC010E962BEF2193E817F9076C
:10363000E1F780E090E00E94112C8F3E9E4F11F048
:103640000E9439258CE090E00E94032C90E0A0E0DD
:10365000B0E080939C0290939D02A0939E02B09351
:103660009F0289EA8093800089E0809381002498FA
:103670002C983F988AB18F7C8AB96E98479A8BB103
:1036800080638BB9769A8FE090E00E940B2C609358
:10369000A0027093A1028093A2029093A30267708C
:1036A0003FEF639FB00111247595679575956795F8
:1036B0007727709389006093880070938B006093E4
:1036C0008A0070938D0060938C000E94F51080E05A
:1036D00090E00E94112C8F3E9E4F11F00E943925E0
:1036E00082E090E00E94032C8093DD020E94282556
:1036F0009093B3028093B20283E090E00E94032C87
:10370000682F70E080E090E00E94CE278091B402A4
:10371000811136C080E090E00E94112C8F3E9E4FB8
:1037200021F00E9439250E940D0E88E090E00E9451
:103730000B2C6093CC027093CD028093CE029093B9
:10374000CF026E7F71F40E940D0E88E090E00E941F
:103750000B2C6093CC027093CD028093CE02909399
:10376000CF020E945A0D1092D2028091CC0280FFAB
:1037700004C060E086950E94AB0D81E08093B402A6
:103780006091EC027091ED028091EE029091EF0257
:103790000E940B1289E091E09093B6028093B502EB
:1037A00041E4E42EF12CEC0EFD1EF2E0EF0EF11CD4
:1037B00080919002853009F065C08091900284303C
:1037C00009F441C01092B70220E488E190E00FB6FE
:1037D000F894A895809360000FBE2093600010922B
:1037E000D20280916B02811117C081E080936B023D
:1037F0008091CC02982F917090936A028E7F809373
:10380000CC022FEF30E742E0215030404040E1F75A
:1038100000C000000E94651183B7817F846083BF70
:1038200083B7816083BF7894889583B78E7F83BF89
:103830000FB6F894A895809160008861809360002D
:10384000109260000FBE80918F02882309F4B0CFE0
:103850000E947E1090E090930801809307010E94DF
:103860009E120E94AD12E8EBF2E01192DE12FDCF43
:103870000E94B412E8EBF2E08191811149C2DE129C
:10388000FBCF96CF0E94B412EEEDF2E0A8EBB2E0CF
:1038900000E010E0302F2D9191919227A1F180E06E
:1038A000CC24C3944C2D492351F161968FAF61977D
:1038B00062963FAF62972C2181E009F480E0639625
:1038C0008FAF63970E947A248160782F65969FAFAF
:1038D0008EAF659761964FAD619762965FAD6297C7
:1038E00063966FAD639765968FAD65970E9446208E
:1038F000F801E252FD4F8081C826C0822AC08F5F46
:10390000CC0C863079F60F5F1F4F0E30110509F091
:10391000C1CF8FEF66968FAF669767968FAF679729
:1039200068961FAE68970E947A248160782F6A9605
:103930009FAF8EAF6A9766964FAD669767965FADFD
:10394000679768966FAD68976A968FAD6A970E9481
:1039500046208091D202882309F4A0C08091D10230
:10396000E091CC02E695E81BE093C802823049F46E
:10397000F0E0E35CF74FE4910E2F10E022E330E239
:1039800049C0863049F4F0E0E65CF74FE4910E2F31
:1039900010E022E230E23EC0893051F4E695F0E0DA
:1039A000E95CF74FE4910E2F10E02EEA3EE132C0C1
:1039B0008F3051F4E695F0E0EC5CF74FE4910E2F78
:1039C00010E023EA3FE126C0853149F4F0E0EF5CE6
:1039D000F74FE4910E2F10E025E43FE11BC0883142
:1039E00081F0833239F4EFE2F8E0059114912EE78B
:1039F00031E210C0843251F404EF11E028ED3EE1D1
:103A000009C008EE13E020E13FE104C000ED17E03B
:103A10002DEA3EE18091C9028823E9F01092C902A3
:103A20006B962FAF6B976C963FAF6C970E947A2482
:103A3000A80140955095840F951F9093C7028093DD
:103A4000C6021092CB021092CA026C963FAD6C97E0
:103A50006B962FAD6B978091C6029091C7026B96C3
:103A60002FAF6B976C963FAF6C970E9450246B966C
:103A70002FAD6B976C963FAD6C978017910770F0E8
:103A8000E091C602F091C7020E0F1F1F1093C702EC
:103A90000093C60286EC92E0F90109958091DA0262
:103AA0009091DB020E9450249C019091D9029923AD
:103AB00021F02431310508F478C08091D5021091AD
:103AC000D60281110BC0111144C12091D7022111DE
:103AD00040C12091D80221113CC167C09F3F19F01D
:103AE0009F5F9093D902181624F40E94A22380931A
:103AF000D5028091D50287FF05C00E94A22381953F
:103B00008093D502111624F40E94A2238093D6023A
:103B10008091D60287FF05C00E94A22381958093E1
:103B2000D6023091D5023323E1F02091D602222330
:103B3000C1F045EB3403C0011124892F990F990B73
:103B4000009709F481E08093D50235EB2303C0018F
:103B50001124892F990F990B009709F481E0809324
:103B6000D6028091D702181624F40E9482238093F3
:103B7000D7028091D70287FF05C00E9482238195DA
:103B80008093D7028091D802181624F40E948223D1
:103B90008093D8028091D80287FF05C00E948223BB
:103BA00081958093D8020E9486241091DC020E94A5
:103BB0004621181721F00E9446218093DC02809153
:103BC0009002843009F0F4CD8093E9008091E80000
:103BD00082FFEECD8091E80085FF24C00E94741919
:103BE000882311F091E01FC000E410E0CE0101969F
:103BF0005C018091E80085FD0AC08091E8008B7728
:103C00008093E8000E947419882341F0EBCF8091E3
:103C1000F100F50181935F010150110901151105B2
:103C200041F7E0CF90E08091E8008B778093E80047
:103C3000992309F4BDCD1981111115C08091F202AB
:103C4000882361F11092F20281E08093F1022296C2
:103C50001FAE229723961FAE23978EEF24968FAF29
:103C6000249763E070C01130C9F422961FAE2297EA
:103C700023961FAF23978CE0E1E5F1E0D701019097
:103C80000D928A95E1F78EEF60968FAF60976FE0A7
:103C9000CE018F5B9F4F0E94E5228ACD8091F10279
:103CA0008823A1F1123019F0133091F047C06091D0
:103CB000EC027091ED028091EE029091EF020E9471
:103CC000AD2522961FAE229723961FAF239715C0CE
:103CD0008A81813039F040F0823081F581E0809333
:103CE000F00202C01092F00222961FAE229783E0EB
:103CF00023968FAF23978091F00224968FAF24975D
:103D00008EEF25968FAF259764E01DC08FEF17C00B
:103D100080E189BD82E189BD09B400FEFDCF8091BB
:103D2000D8008F7D8093D8008091E00082608093DE
:103D3000E0008091E00081FDFCCF3ACD81E0229649
:103D40008FAF229761E0CE018F5B9F4F0E94E522EB
:103D50002FCD9F3F09F0C4CECCCE0895EF92FF92B5
:103D60001F93CF93DF93EC0186EFE82E82E0F82ECD
:103D700010E08C8197014091CF026091CE02810FBB
:103D80000E941C0E1F5E84E0E80EF11C1F3F89F7A5
:103D90000E9465118A819C8180FF02C09F5F01C0E3
:103DA00091509C83DF91CF911F91FF90EF900895E8
:103DB000EF92FF920F931F93CF93DF937C01C6EF97
:103DC000D2E000E010E0F7018481073011051CF417
:103DD000882339F002C0811104C09E014091CF02B6
:103DE00002C09E0140E06091CE028091CD020E940F
:103DF0001C0E0F5F1F4F24960F30110521F70E94F4
:103E00006511F701248130E02F5F3F4F2170332788
:103E10002483DF91CF911F910F91FF90EF90089530
:103E2000EF92FF920F931F93CF93DF93EC012C81BE
:103E30003D812F5F3F4F217033273D832C8386EFD9
:103E4000E82E82E0F82E10E005E5812F86954C8162
:103E50005D81480F511D842F817097014091CF02E1
:103E60006091CE02809F802D11240E941C0E1F5F46
:103E700084E0E80EF11C1F3041F7DF91CF911F91D4
:103E80000F91FF90EF900C9465110F931F93CF93B8
:103E9000DF9380E090E0FC01EA50FD4F1182108238
:103EA0001282138204968C339105A9F7C0E0D0E00A
:103EB0000FE010E0CE01B8010E946D2CFC01809152
:103EC000F402082E000C990BEE0FFF1FEE0FFF1FE0
:103ED000C817D907A4F080911F01082E000C990B78
:103EE0008C179D0764F09F012A503D4F4091CF02EF
:103EF0006091CE028091CD020E941C0E06C0EA5055
:103F0000FD4F11821082128213822196CF30D1058B
:103F100089F60E94651180911E019091F402980F1C
:103F20009093F40220911F01280F20931F01121675
:103F300014F49E301CF0819580931E01DF91CF9187
:103F40001F910F9108959F92AF92BF92CF92DF92EF
:103F5000EF92FF920F931F93CF93DF93FC01828127
:103F600080FF03C0BB24BA9402C0BB24B39426EFE5
:103F7000E22E22E0F22E09EF12E0C0E0D0E03FE0B6
:103F8000932EF80132971082F7011082F8013197D1
:103F90001082F801108294E0C92ED12CA12C8091BE
:103FA000F3028A0D80312CF0692D0E944B2C892F51
:103FB00002C087FD815F082E000C990BC817D90736
:103FC00091F48091CF028C9DA0018D9D500D112404
:103FD000559547955595479597016091CE028091EB
:103FE000CD020E941C0EAB0CF1E0CF1AD108B9F63D
:103FF000219684E0E80EF11C0C5F1F4FCF30D105F5
:1040000009F0BFCF0E9465118091F30291E0B912CF
:1040100006C0811102C08EE007C0815005C090E04B
:104020000196BE010E946D2C8093F302DF91CF9127
:104030001F910F91FF90EF90DF90CF90BF90AF90C6
:104040009F900895CF93DF93EC01ECECF2E0438175
:1040500062818C810E94B30E8C818F5F8C83DF9193
:10406000CF910895CF93DF93EC01EC81F0E0EA5B10
:10407000F74F4491ECECF2E0628181810E94B30E33
:104080008C818F5F8C83DF91CF910895EF92FF92A7
:104090000F931F93CF93DF93CDB7DEB767970FB61C
:1040A000F894DEBF0FBECDBF4B8B5C8B6D8B7E8BD0
:1040B0008F8B0E891F8901151105C1F15F3F11F426
:1040C0004F3FA1F1E42EF12CA1E0B0E0042E01C09D
:1040D000AA0F0A94EAF7852F90E0662319F0209141
:1040E000AC0306C09C01285C3C4FF90120812A23C7
:1040F0002223A9F046E0489F9001499F300D1124EA
:10410000F701E20FF31FEE0FFF1FEE57FE4F408146
:104110005181FC01E85CFC4F9081A92B06C0FC0199
:10412000E85CFC4FA0958081A823A08386E0FE0177
:104130003D96DF01982F1D929A95E9F74D875E878E
:104140006F87198B088BDE01179601900D928A9567
:10415000E1F7CE0107960E943D28811137C086E025
:10416000FE013796DE01119601900D928A95E1F7D6
:10417000FF81E8856A857B856115710539F1EF3F1F
:1041800011F4FF3F19F12091B30330E0C90101960A
:10419000877099274091E40350E08417950779F1DF
:1041A000F983EA837D836C8396E0929FD001939F8D
:1041B000B00D1124AC54BC4FFE01319601900D920C
:1041C0009A95E1F78093B3030E94D82716E0809177
:1041D000E4039091B303891701F1189FC0011124E2
:1041E0008C549C4F0E943D288823B9F08091E403B1
:1041F00090E00196877099278093E403E8CF0E94AE
:10420000072A1092B3031092E403EDEAF3E086E08C
:10421000DF011D928A95E9F7D9CF67960FB6F8941A
:10422000DEBF0FBECDBFDF91CF911F910F91FF90E9
:10423000EF9008952091360330913703821793074A
:1042400071F09093370380933603E091B502F091BB
:10425000B602309721F00084F185E02D099408958D
:1042600020913403309135038217930771F09093B6
:10427000350380933403E091B502F091B602309794
:1042800021F00680F781E02D09940895E091B502B0
:10429000F091B602309721F00190F081E02D099461
:1042A00080E008959091CC0290FF04C096959817F5
:1042B00040F003C0811105C090E0961710F40C94F3
:1042C000030E0C94EF0D882311F0FA0101C0FB01DD
:1042D00009949091CC0290FF10C020E030E0F901E9
:1042E000EA50FD4F81836083428313822C5F3F4FEE
:1042F0002C333105A1F70C94651108950F931F938A
:10430000CF93DF9300D000D0CDB7DEB78C01809182
:10431000F50281110AC09E012F5F3F4F4FEF6FEFF3
:104320000E941C0E8A818093F502F80184818130FD
:1043300051F028F0823061F44091F5020AC080917A
:10434000F50240E007C06091F50240E080E003C064
:1043500040E080E060E00E946921F801248130E0C3
:10436000C901019663E070E00E946D2C84830F9078
:104370000F900F900F90DF91CF911F910F910895A3
:104380005F926F927F928F929F92AF92BF92CF92E5
:10439000DF92EF92FF920F931F93CF93DF9300D0A2
:1043A00000D0CDB7DEB7182F762E042F622E909155
:1043B000CC0290FF6DC0E92FE695AE2FB0E0A35A76
:1043C000BE4F8C918093D1029E7F923061F49E010A
:1043D0002F5F3F4F812F0E941C0E4B8169818A8184
:1043E0000E94692143C0823019F40091CF023EC07F
:1043F000863019F41091CD0239C08930D9F3893152
:10440000A9F5E9518E2F8170582EE695F0E0EF5B0B
:10441000F74FA590B49086EFC82E82E0D82EE12CFD
:10442000F12CBB249FE0892E912CEA9CC001EB9CCF
:10443000900DFA9C900D1124B4010E94592C812FEB
:10444000511002C0860F01C0861B9601402F672DB8
:104450000E941C0E8FEFE81AF80A84E0C80ED11CE7
:104460008FE0E816F10409F70E9465111093CD0260
:104470007092CE020093CF02662051F06091CC0280
:104480007091CD028091CE029091CF020E946D0D6D
:104490000F900F900F900F90DF91CF911F910F9180
:1044A000FF90EF90DF90CF90BF90AF909F908F9054
:1044B0007F906F905F90089521E00C94C0210F933E
:1044C0001F93CF93DF93C62FD42F022FFC0182813D
:1044D0008823C9F060935E020E947A24909333038C
:1044E0008093320380E28C0F883008F050C0C77090
:1044F00081E001C0880FCA95EAF7DF91CF911F9143
:104500000F910C943C2A10915E02161330C08091DA
:104510003203909133030E945024883C910538F572
:10452000C0E2CD0F1D17B9F080E2810F883040F452
:10453000177081E001C0880F1A95EAF70E94312AAE
:10454000C83048F481E09D2F977001C0880F9A957C
:10455000EAF70E943C2A802F0E94462AC830B8F40D
:10456000D77081E001C0880FDA95EAF70AC080E2CF
:104570008C0F883060F4C77081E001C0880FCA9545
:10458000EAF7DF91CF911F910F910C94312ADF91BF
:10459000CF911F910F9108956091CC02669570E0C4
:1045A0004BE050E083E191E00E94C02D892B19F48B
:1045B00081E08093D2020E947A249093C702809374
:1045C000C602089580916D020895209190022430D2
:1045D00099F423E02093E90070E040E050E00E946D
:1045E000A619882321F01092F1021092F202809114
:1045F000E8008E778093E8000895803F39F4809139
:10460000D60287FF6CC01092D60269C0813F29F4A0
:104610008091D6021816BCF362C09091D502823FF9
:1046200029F497FF5CC01092D50259C0833F19F45A
:104630001916CCF354C0893F41F48091D702181663
:104640000CF04DC01092D7024AC08A3F29F48091E5
:10465000D70287FF44C0F6CF8B3F39F48091D80250
:1046600087FF3DC01092D8023AC08C3F29F4809158
:10467000D8021816BCF333C0843F21F48091D402D1
:104680008E7F17C0853F21F48091D4028D7F11C0A9
:10469000863F21F48091D4028B7F0BC0873F21F4A9
:1046A0008091D402877F05C0883F31F48091D40285
:1046B0008F7E8093D40213C08D3F21F48091AA0392
:1046C0008E7F0BC08E3F21F48091AA038D7F05C0A1
:1046D0008F3F29F48091AA038B7F8093AA03809156
:1046E000D50281110EC08091D60281110AC080913D
:1046F000D702811106C08091D802811102C01092A8
:10470000D90208958091AA0380FD18C081FD14C0CC
:1047100082FD16C08091D902882381F0803580F413
:1047200025E0829FC001112460E570E00E946D2C9D
:10473000862F672B19F005C082E0089581E0089567
:1047400085E008958091AA0380FD14C081FD14C006
:1047500082FD16C08091D902882381F0843180F4D3
:1047600023E2829FC001112464E170E00E946D2C5D
:10477000862F089588E0089581E1089585E00895E1
:1047800083E20895803F21F40E94A223819504C012
:10479000813F29F40E94A2238093D6020895823F8C
:1047A00021F40E94A223819504C0833F29F40E9432
:1047B000A2238093D5020895893F19F40E94822391
:1047C00005C08A3F31F40E94822381958093D702ED
:1047D00008958B3F21F40E948223819504C08C3F71
:1047E00029F40E9482238093D8020895843F21F403
:1047F0008091D402816017C0853F21F48091D4025A
:10480000826011C0863F21F48091D40284600BC085
:10481000873F21F48091D402886005C0883F31F43D
:104820008091D40280618093D40208958D3F21F459
:104830008091AA0381600BC08E3F21F48091AA036E
:10484000826005C08F3F29F48091AA038460809321
:10485000AA03089578941F920F920FB60F92112415
:104860008F939F93AF93BF938091A6039091A703DB
:10487000A091A803B091A9030196A11DB11D809339
:10488000A6039093A703A093A803B093A903BF9195
:10489000AF919F918F910F900FBE0F901F90189521
:1048A000CF92DF92EF92FF920F931F932FB7F8945E
:1048B0004091A6035091A7036091A8037091A903AA
:1048C0002FBF6A017B01EE24FF248C0120E030E041
:1048D000C016D106E206F30610F4415051099A01C0
:1048E000281B390BC9011F910F91FF90EF90DF90AA
:1048F000CF9008952FB7F8948091A6039091A703C5
:10490000A091A803B091A9032FBF0895E091B5022B
:10491000F091B602309749F082E08093D302048090
:10492000F581E02D83ED92E009950E947A24909321
:10493000DB028093DA0208951F920F920FB60F9256
:1049400011248F939F93AF93BF938091B7028111EE
:1049500013C08091A6039091A703A091A803B091E2
:10496000A9034196A11DB11D8093A6039093A703AF
:10497000A093A803B093A903BF91AF919F918F918A
:104980000F900FBE0F901F901895209106012223C3
:1049900021F02091B20227FD04C0FC013296089656
:1049A00019C0262F2695269526952E31C0F4FC0198
:1049B000E20FF11D677081E090E001C0880F6A95F9
:1049C000EAF7809592818923828308953196E817CA
:1049D000F90729F020812613F9CF1082F7CF089527
:1049E00020910601222321F02091B20227FD05C06B
:1049F000FC0132962FEF30E019C0262F2695269520
:104A000026952E3120F5FC01E20FF11D677081E043
:104A100090E001C0880F6A95EAF79281892B828322
:104A200008952F3F39F03F5F363041F041914613F2
:104A3000F8CF0DC04111F7CF232FF5CF2F3F39F01D
:104A4000FC01E20FF11D27FDFA9562830895089598
:104A5000CF9384E090E00E94032CC82F81E290E085
:104A60000E94032C2C2F30E0A901582BCA01CF91B2
:104A700008956FEE7EEF80E090E00E94352C60E0BC
:104A800082E090E00E94172C60E083E090E00E94BA
:104A9000172C1092A2031092A3031092A403109259
:104AA000A50360E084E090E00E94172C60E081E2C2
:104AB00090E00E94172C60E085E090E00E94172CA7
:104AC00060E086E090E00E94172C6FEF87E090E0B6
:104AD0000E94172C40E050E0BA0188E090E00E946C
:104AE000292C60E08DE090E00E94172C40E050E01F
:104AF000BA0188E190E00E94292C60E087E190E013
:104B00000E94172C40E050E0BA018CE190E00E9436
:104B1000292C60E080E290E00E94172C1092A00205
:104B20001092A1021092A2021092A30284E080616E
:104B30008093A0024091A0025091A1026091A20234
:104B40007091A3028FE090E00E94292C40E050E099
:104B5000BA0183E190E00C94292CCF92DF92EF927E
:104B6000FF926C01EE24FF24C114D104E104F1048E
:104B700021F0C701B60120E101C020E0C72ED82EE8
:104B8000E92EFF24C114D104E104F10419F0285FD7
:104B9000C701B6016B017C0154E0F694E794D79409
:104BA000C7945A95D1F7C114D104E104F10419F066
:104BB0002C5FC701B6016B017C0142E0F694E794DB
:104BC000D794C7944A95D1F7C114D104E104F104F4
:104BD00019F02E5FC701B601DC01CB01B695A79590
:104BE00097958795892B8A2B8B2B09F02F5F822F26
:104BF000FF90EF90DF90CF9008958091A1038111F5
:104C00001092A103089590919F038091A003892B96
:104C100020919E03982F922B909346038091A1039D
:104C20008823D9F0892B809346038091060188233D
:104C300031F08091B20287FF02C08EE101C086E0B0
:104C4000E8E4F3E090E0815028F021912223D9F3A9
:104C50009F5FF9CF91110E94FD25E091B502F0917F
:104C6000B6023097A9F080910601882359F080910F
:104C7000B20287FF07C0809146038093470385E017
:104C8000809346030280F381E02D86E493E009944B
:104C90000895BF92CF92DF92EF92FF920F931F93EE
:104CA000CF93DF938C01C090A203D090A303E09038
:104CB000A403F090A5038091EC029091ED02A091E5
:104CC000EE02B091EF02C82AD92AEA2AFB2ACFE1E4
:104CD000D0E0D701C6010C2E04C0B695A7959795D4
:104CE00087950A94D2F780FF07C0BC2EB8018C2F9D
:104CF0000E94D40E019719F4219758F7B12C8B2DEF
:104D0000DF91CF911F910F91FF90EF90DF90CF90A7
:104D1000BF900895CF93DF93EC010E944926BE0116
:104D20000E94D40EDF91CF910895292F220F920F68
:104D3000990F890F682F669566956695982F9770DD
:104D400085E0689FB001112440E050E080E0FA0166
:104D5000E60FF71FEA59FC4F208130E0092E02C010
:104D6000369527950A94E2F721703327042E01C067
:104D7000220F0A94EAF7822B4F5F5F4F45305105AF
:104D800031F70895292F220F920F990F890FA82F1D
:104D9000A695A695A695877051E001C0550F8A95F6
:104DA000EAF785E0A89FD001112420E030E070E010
:104DB000F901EA0FFB1FEA59FC4F4081CB01022E9B
:104DC00002C0969587950A94E2F78170992781959C
:104DD00084278523842780832F5F3F4F253031052B
:104DE00039F708950F931F9341E050E060E070E0C1
:104DF00004C0440F551F661F771F8A95D2F7409550
:104E00005095609570958091EC029091ED02A09183
:104E1000EE02B091EF028A019B01082319232A2395
:104E20003B23C901B8011F910F910C949327209146
:104E30009D038095822380939D03982F977079F42A
:104E400030E0482F082E000C550B2417350739F099
:104E50008595859585950E94F22610929D0308956B
:104E60000F931F9341E050E060E070E004C0440FF6
:104E7000551F661F771F8A95D2F78091EC0290919B
:104E8000ED02A091EE02B091EF028A019B01082B86
:104E9000192B2A2B3B2BC901B8011F910F910C94A0
:104EA00093270E948A26292F2F7092959F70E92FB1
:104EB000F0E03297EE30F105B8F4E656FF4F0C946F
:104EC000812C803F99F018F4883E70F40FC0843F25
:104ED00059F40CC0883E50F0813F31F407C0822F56
:104EE000869586958695089580E0089581E00895D9
:104EF00010929F0310929E030E940326E3EDF2E0BE
:104F000086E0DF011D928A95E9F71092D90210928E
:104F1000AA030E94862480E090E00E94302180E075
:104F200090E00C941A21CF92DF92EF92FF92CF93F0
:104F3000DF9300D000D0CDB7DEB70E940B126B011B
:104F40007C018091F002882321F08091F10281118F
:104F500015C0C092EC02D092ED02E092EE02F09207
:104F6000EF020E9478270F900F900F900F90DF9123
:104F7000CF91FF90EF90DF90CF900895198282E05B
:104F80008A83C701B6010E94AD258B838EEF8C8387
:104F900064E0CE0101960E94E522DBCF6093A2037C
:104FA0007093A3038093A4039093A5030C94782794
:104FB0008091E4039091B303891719F08F5F877094
:104FC000FBCF08958091B20382958F7009F054C091
:104FD0008091AF03882309F44FC08091E403A0912E
:104FE000B3036091AD037091AE034091B003509153
:104FF000B103B6E08A1709F43FC090E041155105AE
:10500000C1F17F3F11F46F3FA1F1B89FF001B99F4B
:10501000F00D1124EC54FC4F218172132AC0208121
:10502000621327C02281211124C0238134812417D7
:10503000350710F421503109241B350B283C31056C
:10504000C0F42091B2032F7020612093B20326E0B8
:10505000289FF001299FF00D1124E754FC4F808117
:105060008F70806180838DEA93E00E94C2040C946B
:10507000D82701968770BECF0895BF92CF92DF9256
:10508000EF92FF920F931F93CF93DF93CDB7DEB7CD
:1050900061970FB6F894DEBF0FBECDBF8C0185E0DF
:1050A000F801DE011D9601900D928A95E1F7D80175
:1050B0003C9111962C9111971296EC9012971396A1
:1050C000CD90DC9014975091AD036091AE03809128
:1050D000B0039091B103009709F44FC16F3F19F4E9
:1050E0005F3F09F44AC1B090AF03BB2009F4ECC0A4
:1050F0004091B203C816D90628F0F601E81BF90B57
:10510000CF0104C0809590958C0D9D1DFF24F394D4
:10511000883C910548F0F12C407F09F09FC08DEA52
:1051200093E00E94C20421C1842F807F09F044C013
:10513000621312C0531310C0E1100EC04F704061D3
:105140004093B2038DEA93E00E94C2048091B203BF
:10515000D80115968C932EC0CD2819F12F3F11F44C
:105160003F3FF9F0FE2CE1101CC08091E403409118
:10517000B30356E0841709F458C090E0589FF0013B
:10518000599FF00D1124EC54FC4F6181261306C089
:105190006081361303C06281611103C0019687707C
:1051A000E9CFFE2CEE2009F421C18091B203816089
:1051B0008093B203F12C1AC162130AC0531308C0C2
:1051C000E11006C08091B203D80115968C93B0C04F
:1051D0003D872E878D859E850E9451278823D1F19A
:1051E000EE20C1F12091B203822F82958F7090E062
:1051F000029774F08091AD039091AE0398878F83EE
:105200001986DB86CA862C87CE0107960E94C204C7
:1052100086E0F801ADEAB3E001900D928A95E1F7DE
:105220000E94E227FF24F394E1C03D872E878D85FD
:105230009E850E948A26292F22952F7030E02230E9
:1052400031050CF0C7C09F7009F0C1C0805E883086
:1052500008F4CCC0C8010E94C204E4CF621314C099
:10526000531312C0E11010C08091B203F80185837E
:10527000C8010E94C20486E0EDEAF3E0DF011D925E
:105280008A95E9F7FB2CB2C03D872E878D859E85D8
:105290000E9451278823F1F2EE20E1F22091B2031F
:1052A000822F82958F7090E002970CF4B1CF80919D
:1052B000AD039091AE039A8389831B82DD82CC82F9
:1052C0002E83CE010196A2CFC816D90638F0C81A8F
:1052D000D90AB8ECCB16D10450F007C08095909550
:1052E0008C0D9D1D883C910510F0F12C3EC0FE2CCC
:1052F000EE2009F4AFCF621327C0531325C02091CD
:10530000B20320FD18C0822F82958F70482F50E085
:105310004115510581F0F80125834F30510541F0C9
:105320008F5F982F9295907F822F8F70892B858326
:10533000C8010E94C20486E0F801ADEAB3E0019022
:105340000D928A95E1F752C03D872E878D859E8507
:105350000E94512781115CCF8091B20381608093BC
:10536000B203C8010E94C20441C0EDEAF3E086E046
:10537000DF011D928A95E9F739C0EE2009F46ACF62
:105380003D872E878D859E850E945127F82E882384
:1053900009F460CF86E0F801ADEAB3E001900D9228
:1053A0008A95E1F78091AD039091AE030E948A2621
:1053B00092959F70963041F48091AC0391E08927DB
:1053C0008093AC039093AB030E94E2270FC081113E
:1053D0003DCF0CC0243031050CF03CCF9F7009F458
:1053E00035CFF8019581907F09F030CF8F2D6196F0
:1053F0000FB6F894DEBF0FBECDBFDF91CF911F91E6
:105400000F91FF90EF90DF90CF90BF900895109292
:10541000A00380910601882331F08091B20287FFBA
:1054200002C08EE101C086E0E8E4F3E0DF011D92F6
:105430008A95E9F70C947827882341F0809590911C
:105440009F03892380939F030C9403260895882348
:1054500039F090919F03892B80939F030C9403262E
:105460000895882341F080959091A003892380932B
:10547000A0030C9403260895882339F09091A0038B
:10548000892B8093A0030C9403260895CF93C82FF3
:105490000E94C02AC93349F42FEF87EE93E02150D0
:1054A00080409040E1F700C000008C2FCF910C9419
:1054B000592A882309F463C0823869F40E9446217E
:1054C00081FF5DC069E386E493E00E94F0240E94BE
:1054D000032669E30EC0833891F40E94462180FFC1
:1054E0004EC063E586E493E00E94F0240E94032608
:1054F00063E586E493E00E94C5240C940326843877
:1055000069F40E94462182FF3AC067E486E493E092
:105510000E94F0240E94032667E4EBCF9CEF980FD3
:10552000913A10F4682FE5CF90E2980F983088F404
:10553000877021E030E0A90102C0440F551F8A9511
:10554000E2F7CA0180959091A00389238093A0037C
:10555000D4CF9BE5980F933020F480E090E00C943A
:10556000302198E5980F973120F480E090E00C947A
:105570001A21803F20F00E94FD220C948624089579
:10558000882309F489C08238B1F40E94462181FD44
:1055900083C069E386E493E00E94F0240E9403261E
:1055A0002FEF41EE54E0215040405040E1F700C061
:1055B000000069E317C08338D9F40E94462180FDBA
:1055C0006BC063E586E493E00E94F0240E9403260A
:1055D0008FEF91EE24E0815090402040E1F700C031
:1055E000000063E586E493E00E94C5240C94032642
:1055F0008438B1F40E94462182FD4EC067E486E4FF
:1056000093E00E94F0240E9403264FEF51EE84E0C5
:10561000415050408040E1F700C0000067E4E2CF15
:105620009CEF980F913A30F4682F86E493E00E9443
:10563000F024DCCF90E2980F983080F4877021E05E
:1056400030E0A90102C0440F551F8A95E2F7CA0154
:105650009091A003892B8093A003C8CFEBE5E80FBE
:10566000E33038F4F0E0E65DFD4F808190E00C948B
:105670003021E8E5E80FE73148F4F0E0EE0FFF1FD6
:10568000E35DFD4F808191810C941A21803F20F0D1
:105690000E94C2230C94862408951092B9008CE0D5
:1056A0008093B8000895EF92FF920F931F93CF93CA
:1056B000DF93182FEB011092BC0084EA8093BC00AA
:1056C0000E947A247C019091BC0097FD0EC0CF3FD0
:1056D0008FEFD807C1F30E947A248E199F098C1787
:1056E0009D0788F38EEF9FEF2EC09091B900987FB1
:1056F000983041F09091B900987F903119F08FEF78
:105700009FEF21C01093BB0084E88093BC000E94EF
:105710007A248C019091BC0097FD0CC0CF3F8FEF95
:10572000D807C1F30E947A24801B910B8C179D0728
:1057300088F3D8CF8091B900887F883111F0803408
:10574000F1F680E090E0DF91CF911F910F91FF90F3
:10575000EF9008950F931F93CF93DF93EB01809306
:10576000BB0084E88093BC000E947A248C01909155
:10577000BC0097FD0EC0CF3F8FEFD807C1F30E944A
:105780007A24801B910B8C179D0788F38EEF9FEF77
:105790000CC02091B900287F81E090E0283211F4FC
:1057A00080E090E0919581959109DF91CF911F91D3
:1057B0000F9108950F931F93CF93DF93EC0184E82B
:1057C0008093BC000E947A248C019091BC0097FDCC
:1057D0000EC0CF3F8FEFD807C1F30E947A24801B01
:1057E000910B8C179D0788F38EEF9FEF03C080917C
:1057F000BB0090E0DF91CF911F910F91089584E954
:105800008093BC000895F999FECF92BD81BDF89AAE
:10581000992780B50895A6E1B0E044E050E00C94EB
:105820003D2CA8E1B0E042E050E00C943D2C262F46
:10583000F999FECF92BD81BDF89A019700B4021686
:1058400039F01FBA20BD0FB6F894FA9AF99A0FBE34
:1058500008950396272F0E94182C0E94172C252F9D
:105860000E94182C242F0C94182C0196272F0E948C
:10587000182C0C94172CDC01CB01FC01F999FECFFC
:1058800006C0F2BDE1BDF89A319600B40D924150C8
:105890005040B8F7089587FB082E062687FD8195AE
:1058A00067FD61950E94872C0EF4919507FC819508
:1058B0000895AA1BBB1B51E107C0AA1FBB1FA61757
:1058C000B70710F0A61BB70B881F991F5A95A9F7A9
:1058D00080959095BC01CD01089597FB072E16F495
:1058E000009407D077FD09D00E94592C07FC05D001
:1058F0003EF4909581959F4F0895709561957F4FE7
:105900000895EE0FFF1F0590F491E02D0994991B67
:1059100079E004C0991F961708F0961B881F7A95A6
:10592000C9F780950895CF93DF938230910510F4E5
:1059300082E090E0E091E703F091E80320E030E0BE
:10594000C0E0D0E0309711F14081518148175907EC
:10595000C0F04817590761F482819381209719F0AC
:105960009B838A832BC09093E8038093E70326C030
:105970002115310519F04217530718F49A01BE0199
:10598000DF01EF010280F381E02DDCCF211531052D
:1059900009F1281B390B2430310590F412968D91B2
:1059A0009C9113976115710521F0FB01938382830C
:1059B00004C09093E8038093E703FD01329644C04E
:1059C000FD01E20FF31F81939193225031092D9332
:1059D0003C933AC02091E5033091E603232B41F438
:1059E00020910201309103013093E6032093E503F7
:1059F00020910001309101012115310541F42DB7AD
:105A00003EB74091040150910501241B350BE091F4
:105A1000E503F091E603E217F307A0F42E1B3F0B1A
:105A20002817390778F0AC014E5F5F4F2417350710
:105A300048F04E0F5F1F5093E6034093E5038193B8
:105A4000919302C0E0E0F0E0CF01DF91CF910895A3
:105A50000F931F93CF93DF93009709F48CC0FC0141
:105A60003297138212820091E7031091E803011527
:105A7000110581F420813181820F931F2091E5036C
:105A80003091E6032817390779F5F093E603E093A0
:105A9000E50371C0D80140E050E0AE17BF0750F4F5
:105AA00012962D913C911397AD012115310509F105
:105AB000D901F3CF9D01DA013383228360817181A3
:105AC000860F971F8217930769F4EC0128813981AB
:105AD000260F371F2E5F3F4F318320838A819B81A2
