:100000000C9483040C94A0040C94A0040C94A004FD
:100010000C94A0040C94A0040C94A0040C94A004D0
:100020000C94A0040C94A0040C9453240C948F23DF
:100030000C94B31C0C94A0040C94A0040C94A00485
:100040000C94A0040C94A0040C94A0040C94A004A0
:100050000C94A0040C94411C0C94A0040C94A004D7
:100060000C94A0040C94A0040C94A0040C94A00480
:100070000C94A0040C94A0040C94A0040C94A00470
:100080000C94A0040C94A0040C94A0040C94A00460
:100090000C94A0040C94A0040C94A0040C94A00450
:1000A0000C94A0040C94A0040C94A0040206D705A0
:1000B000050511053605440552055E056C057A05F2
:1000C000880596058E0790079B0792079407960769
:1000D00098079A079D079F07A107AC07A307A507E5
:1000E000A707A907AB07AE073D0B3D0B770B770BB7
:1000F000CF0BED0BEE0D470E2F0C470E2C0D2C0DDC
:10010000390D390D390D390D390D390D390D390DBF
:10011000390D390D390D390D390D390D390D390DAF
:10012000460D6D0D740D7B0D920DE512E812EB126C
:10013000EE12F112F412F712F91EFC1EFF1E021F3E
:10014000071F0C1F111F211F4E1F591F641F6F1FF8
:100150007A1F851FA021C7216723C72167230F228C
:100160003222672330234323732973298629862962
:100170007C2986298629862973297329812986293C
:100180008629812907634236B79BD8A71A39685652
:1001900018AEBAAB558C1D3CB7CC5763BD6DEDFDA9
:1001A000753EF6177231BF000000803F05A84CCDA8
:1001B000B2D44EB93836A9020C50B9918688083CA1
:1001C000A6AAAA2ABE000000803F2B022B0029000D
:1001D0003162025500001E00140004001D6101552B
:1001E00006531F001A0016001B000455035420007C
:1001F00008000700060008550354210015000900F7
:1002000019000154A800220017000A000500000090
:10021000AA0022002B04000043000000010023007C
:100220003D04000042000000010023001C000B0000
:1002300011000000A900240018000D001000025455
:10024000A80025000C000E00360002552C442600A4
:1002500012000F0037002D002B002700130028008C
:1002600038712E000651340234002A0033720F55C3
:100270000000010001000100010001000000010078
:1002800044001E02640201000100010045001F023B
:10029000320201000100010068002002000001009C
:1002A00001000100690021020000010001000100BD
:1002B0006A002202000000000100010001000000AD
:1002C0000100000001000100010000000100000029
:1002D000010001006B002402000000000100010089
:1002E0006C00230235020401010001006D002502AB
:1002F0002F020100010001006E0026023002010001
:10030000010001006F002702000001000100010050
:1003100001000100010001000000010001000100D6
:1003200001000100000001003A001E00640001000D
:10033000010001003B001F0032000100010001002C
:100340003C00200000000100010001003D002100F0
:1003500000000401010001003E0022000000000036
:100360000100010001000000010000000100010087
:100370000100000001000000010001003F00230017
:1003800000000000010001004000240035000100D1
:1003900001000100410025002F00010001000100C3
:1003A0004200260030000100010001004300270048
:1003B0000000010001000100010001000100010036
:1003C0000000010001000100010001000000010027
:1003D000350008554901010001000100145504557C
:1003E00049020100010001000F5502554A000100B9
:1003F00001000100075501554D00000001000100FA
:100400001550000000000000010001000100000084
:1004100001000000010001000100000001000000D7
:100420000100010000005000000000000100010078
:10043000070151004E0000000100010018015200A8
:100440004B0001002B00010049004F004700010054
:100450002B000100490001003900010001000100EA
:1004600001004C000100010000000100010001003A
:1004700001000100000001004604F600FB0001003D
:10048000010001004600F200FC000100F400010040
:10049000F000F100F9000100F4000100A800F300F1
:1004A000FA00F50001000100A900AA00A700000061
:1004B0000100010001000000010000000100010036
:1004C000010000000100000001000100A600000082
:1004D000A7000000010001000000F2004E00000033
:1004E00001000100F000F1004B00010001000100DB
:1004F0000000F30000000100010001000000010005
:10050000010066000100010001000100010001007E
:10051000000029002B00E100E000105000001E0048
:10052000140004001D00E20001001F001A00160064
:100530001B003D002C0020000800070006003D00C5
:100540002C002100150009001900105001002200A4
:1005500017000A0005000000010023002B00000026
:100560002B000000010034002B0000002B000000D5
:10057000010023001C000B001100000001002400FA
:1005800018000D0010001050010025000C000E0096
:10059000360031000100260012000F003700500025
:1005A000E3002700130033005200510001001050F7
:1005B0002A00280038004F00000010500100010000
:1005C0000100010000000100F25CF75C0100010085
:1005D00001000100F35CF85C010001000100010072
:1005E000F45CF95C0100010001000100F55CFA5CBB
:1005F0000100010001000100F65CFB5C010000004D
:1006000001000100010000000100000001000100E4
:1006100001000000010000000100010001000100D4
:100620000100000001000100C55CC25CC95C010062
:1006300001000100C65CC35CCA5C0100010001004E
:100640000100F05C01000100010001000100010057
:100650000100010001001050010001000100010033
:100660000000000000000001010101010101010181
:100670000202020202020202020303030303030353
:10068000030404040404040505050505060606061E
:100690000607070707080808080909090A0A0A0AD5
:1006A0000B0B0B0C0C0C0D0D0D0E0E0F0F0F101075
:1006B00011111112121313141415151616171718F9
:1006C0001819191A1A1B1C1C1D1D1E1F1F20202162
:1006D00022222324252526272728292A2B2B2C2DA7
:1006E0002E2F2F30313233343536363738393A3BC6
:1006F0003C3D3E3F4041424344464748494A4B4CBB
:100700004D4F50515253555657585A5B5C5E5F607F
:100710006263646667696A6C6D6E70717374767813
:10072000797B7C7E8081838486888A8B8D8F919271
:100730009496989A9B9D9FA1A3A5A7A9ABADAFB195
:10074000B3B5B7B9BBBDBFC1C4C6C8CACCCFD1D37E
:10075000D6D8DADCDFE1E4E6E8EBEDF0F2F5F7FA23
:10076000FCFF6801F000B40078005A00050109029E
:10077000A10185020901A10005091901290515003A
:10078000250195057501810295017503810105011A
:10079000093009311581257F9502750881060938D0
:1007A0001581257F950175088106050C0A3802150B
:1007B00081257F950175088106C0C005010980A1CA
:1007C0000185031601002603001A81002A830075A3
:1007D0001095018100C0050C0901A10185041601D5
:1007E00000269C021A01002A9C02751095018100C6
:1007F000C005010906A1018505050719E029E715CE
:100800000025019508750181020508190129059542
:1008100005750191029501750391010507190029DC
:10082000EF1500250195F075018102C0050109064B
:10083000A101050719E029E71500250195087501B3
:1008400081029501750881010508190129059505A1
:10085000750191029501750391010507190029FFA2
:10086000150026FF00950675088100C009023B00AF
:10087000020100A0FA09040000010301010009219E
:10088000110100012240000705810308000A090444
:100890000100010300000009211101000122C00034
:1008A0000705820320000A1201100100000008ED74
:1008B000FE071301000102030104033000000016CB
:1008C000034500720067006F0044006F007800204D
:1008D0000045005A00000016034500720067006FD3
:1008E0000044006F007800200045005A000000041A
:1008F00003090400047F3F1F643214643214783CFF
:100900001E1E140A050011241FBECFEFDAE0DEBF61
:10091000CDBF11E0A0E0B1E0E0E2F4E602C0059056
:100920000D92AE3EB107D9F723E0AEEEB1E001C0C3
:100930001D92A237B207E1F70E9423260C940E32D3
:100940000C9400004F925F926F927F928F929F92D1
:10095000AF92BF92CF92DF92EF92FF920F931F93CD
:10096000CF93DF93CDB7DEB727970FB6F894DEBFEE
:100970000FBECDBFFC01F080118183819481892B52
:1009800011F40C94AB0E1F3F31F444244A94F41438
:1009900011F40C94AB0E6F0185E0DE01119601900D
:1009A0000D928A95E1F7D60112962C9189819A8150
:1009B000222349F00E94F51D082F682F89819A8112
:1009C0000E946E1E03C00E94411E082FB6E01B9FAE
:1009D000F001112414E5019FE00DF11D1124EF0D2C
:1009E000F11DEE0FFF1FE653FE4F05911491F80124
:1009F000E05FFC45D60112968C91EC30F10508F0D1
:100A0000A3C0EA5AFF4F0C94CE30882311F40C9403
:100A1000AB0E0E94F01581E00E94ED154DEC60E0F8
:100A20003EC0882311F40C94AB0E0E94F01581E0B7
:100A30000E94ED154BEB6CE58DE290E027960FB62A
:100A4000F894DEBF0FBECDBFDF91CF911F910F9104
:100A5000FF90EF90DF90CF90BF90AF909F908F90DE
:100A60007F906F905F904F900C947715882311F4CE
:100A70000C94AB0E0E94F01581E00E94ED154FEF33
:100A80006FEF86E290E0DACF882311F40C94AB0E7E
:100A90000E94F01581E00E94ED154FEF6FEF80E0AE
:100AA00090E0CCCF882311F40C94AB0E0E94F0158B
:100AB00081E00E94ED1549E867ECF1CF882311F43D
:100AC0000C94AB0E0E94F01581E00E94ED154FEFE3
:100AD0006FEF84E291E0B2CF882311F40C94AB0E57
:100AE0000E94F01581E00E94ED1540E86FEF8CE266
:100AF00091E0A4CF882311F40C94AB0E0E94F01562
:100B000081E00E94ED154DEB6FEF88E790E096CF06
:100B1000882311F40C94AB0E0E94F01581E00E9422
:100B2000ED154FEF6DED88EB90E088CF882311F441
:100B30000C94AB0E0E94F01581E00E94ED154FEF72
:100B40006FEF80EF90E07ACF882309F461C0033E15
:100B5000BCE51B0709F4B1C008F0A5C0013EFCE5E7
:100B60001F0709F09AC010921F030E941E160C3C2A
:100B7000BCE51B0709F41CC108F44FC1043DECE5BA
:100B80001E0709F4E6C378F1093DECE51E0709F4F8
:100B900040C408F4A8C40D3D9CE5190709F40FC52D
:100BA0000E3DACE51A0709F013C5F60182818823D2
:100BB00011F40C94AB0E27960FB6F894DEBF0FBE5F
:100BC000CDBFDF91CF911F910F91FF90EF90DF90FC
:100BD000CF90BF90AF909F908F907F906F905F90DD
:100BE0004F900C944A1D003D2CE5120709F4BFC339
:100BF00008F0DCC30E3C8CE5180749F108F0C9C3C6
:100C0000F6018281882311F40C94AB0E81E02DC093
:100C1000013020E8120708F4AACF0C3CFCE51F07BE
:100C200009F4C6C008F426C2043D2CE5120709F4F5
:100C300090C308F0E9C3003D8CE5180709F497C399
:100C400008F0D6C30E3CACE51A0709F09EC3D601E6
:100C500012968C91882311F40C94AB0E0E946214AE
:100C60008250833008F418C182E027960FB6F894BA
:100C7000DEBF0FBECDBFDF91CF911F910F91FF90CF
:100C8000EF90DF90CF90BF90AF909F908F907F902C
:100C90006F905F904F900C94ED15023E2CE512077B
:100CA00091F481E00DC0043E3CE5130741F0053EA0
:100CB0008CE5180741F484E003C082E001C083E0C2
:100CC00080931F0352CF013090E8190708F44FCFEB
:100CD0007801E894F7F88091EE028093EE0110928B
:100CE000EE0280911F03813071F048F08230D9F01C
:100CF0008430F9F486EE0E94F32B88E118C082EE6E
:100D00000E94FB2B16C080EE0E94FB2B81EE0E94FE
:100D1000FB2B88E10E94F32B81EE0E94932B80EE47
:100D20000E94932B06C082EE0E94FB2B87E50E9457
:100D3000F32BAFE3BCE91197F1F700C000009CE092
:100D4000A92EB12CC7010A2C02C0969587950A944A
:100D5000E2F7282F2F7041F0822F90E02A3010F414
:100D60004D9604C0069702C087E290E00E94F32BE4
:100D7000B4E0AB1AB108ECEFAE16EFEFBE0611F718
:100D800080911F03813039F040F0823031F084309F
:100D900051F488E206C08CE204C082EE0E94932BDC
:100DA00002C00E94F32B8091EE018093EE02DFCE11
:100DB000D60112968C91882309F4CDC780916803DF
:100DC00090E0019797FF02C080E090E084309105A9
:100DD00014F083E090E08093680360916403709165
:100DE0006503809166039091670327960FB6F89488
:100DF000DEBF0FBECDBFDF91CF911F910F91FF904E
:100E0000EF90DF90CF90BF90AF909F908F907F90AA
:100E10006F905F904F900C94A114043CFCE51F0769
:100E200011F5D60112968C91882309F494C780910C
:100E3000EE02827289F527960FB6F894DEBF0FBED8
:100E4000CDBFDF91CF911F910F91FF90EF90DF9079
:100E5000CF90BF90AF909F908F907F906F905F905A
:100E60004F900C94F915053C2CE5120708F08FC142
:100E700005313CE5130740F1023CBCE51B0709F4D2
:100E800009C108F4EDC0F6018281882309F463C723
:100E90008091EE02827279F627960FB6F894DEBF43
:100EA0000FBECDBFDF91CF911F910F91FF90EF90BB
:100EB000DF90CF90BF90AF909F908F907F906F907A
:100EC0005F904F900C94031602308CE5180708F4DD
:100ED0006EC0D60112968C91882309F486C30E94B5
:100EE0003F1D811102C00E944A1D84E090E00E94D3
:100EF000152D90E09093320380933103F801E35075
:100F0000FC45E231F10530F4EE59FF4F8091310399
:100F10000C94CE3080913103816027C0826025C05F
:100F2000846023C0806121C080621FC080641DC0B6
:100F300080681BC08460886018C08E7F16C08D7F5B
:100F400014C08B7F12C08F7E10C08F7D0EC08F7B30
:100F50000CC08F770AC08B7F877F07C087FB222753
:100F600020F991E0922790FB87F9809331036091FB
:100F7000310384E090E00E94292D1092EE02279622
:100F80000FB6F894DEBF0FBECDBFDF91CF911F919A
:100F90000F91FF90EF90DF90CF90BF90AF909F9018
:100FA0008F907F906F905F904F900C946F2B0115F6
:100FB0009CE5190709F045C0D60112968C9188234B
:100FC00009F4C9C61092EE020E946F2BBFEFE4E352
:100FD000FCE0B150E040F040E1F700C00000F894C0
:100FE00081E08093E00080E28093D8001092C900F5
:100FF0008FE19EE40197F1F700C000001DBA109246
:1010000068001CBC10BE1FBA10927A0010926E00CD
:1010100010926F0010927100109272001092C9002D
:101020001092BC0014B817B81AB81DB810BA1092B4
:10103000BC0015B818B81BB81EB811BA0C94003F04
:101040008AC601301C4581F4D60112968C91882302
:1010500009F481C680914F03816080934F037BC662
:1010600006311C4509F459C081E08093F401809356
:10107000F501BBC2043C3CE5130709F4D2CE08F0ED
:10108000DAC005319CE5190708F440C6023CFCE5CE
:101090001F07D1F5D60112968C91882309F45BC6FF
:1010A0008091640380FF18C027960FB6F894DEBFC6
:1010B0000FBECDBFDF91CF911F910F91FF90EF90A9
:1010C000DF90CF90BF90AF909F908F907F906F9068
:1010D0005F904F900C947A1527960FB6F894DEBF68
:1010E0000FBECDBFDF91CF911F910F91FF90EF9079
:1010F000DF90CF90BF90AF909F908F907F906F9038
:101100005F904F900C94F015033C2CE5120708F00B
:10111000BACE06311C4509F0A7CF9091EE02D60158
:1011200012968C91882381F09A7A81E009F480E00C
:101130008093EF01811102C069E201C065E38CE494
:1011400092E00E94071D0BC08091EF01811102C047
:1011500069E201C065E38CE492E00E94DC1C279602
:101160000FB6F894DEBF0FBECDBFDF91CF911F91B8
:101170000F91FF90EF90DF90CF90BF90AF909F9036
:101180008F907F906F905F904F900C94A91D083CBA
:101190002CE51207B9F4D60112968C91882309F434
:1011A000DAC580916403881F8827881F90916503A2
:1011B000392F330F97FB992790F921E0409167036E
:1011C00060E020C0093C3CE5130708F07DC0063C08
:1011D0008CE51807D9F108F462C0F60182818823F2
:1011E00009F4B9C580916403881F8827881F9091EE
:1011F0006503392F330F97FB992790F921E0409130
:1012000067036FEF832B27960FB6F894DEBF0FBEF0
:10121000CDBFDF91CF911F910F91FF90EF90DF90A5
:10122000CF90BF90AF909F908F907F906F905F9086
:101230004F900C94BD14083C8CE5180709F4ABCF13
:1012400008F078C0063CACE51A0729F5D6011296DD
:101250008C91882309F47FC520916403221F2227E3
:10126000221F30916503432F440F842F822B37FBBD
:10127000992790F98C3091051CF4845A9E4F01C037
:101280000C9768E671E00E94BA3021E04091670354
:1012900060916603B8CF073C1C4508F09ECFF6016D
:1012A0008281882309F457C520916403221F2227D5
:1012B000221F30916503432F440F842F822B37FB6D
:1012C000992790F90C96DDCF0A3CACE51A07F9F4A2
:1012D000D60112968C91882309F43DC5409167038D
:1012E000842F90E00C9714F04C5001C040E08091A6
:1012F0006403881F8827881F90916503392F330F57
:1013000097FB992790F921E0609166037BCF0B3C16
:101310001C45A8F4F6018281882309F41CC540917C
:101320006703842F90E0843F910514F4445FDFCF7E
:101330004FEFDDCF0A3CECE51E0751F258F3F60102
:101340008281882309F407C58091680390E00196A3
:101350003DCDD60112968C91882309F4FCC40E94DD
:1013600062148951893008F497CD89E17ECCD60189
:1013700012968C91882309F4EEC40E94621489505D
:10138000853008F489CD89E070CC0F3C1C4508F409
:1013900037CCF6018281882309F4DDC40E946214EF
:1013A0008650823008F478CD86E05FCC023DACE513
:1013B0001A0771F4D60112968C91882309F4CBC4D4
:1013C0000E9462148551823008F466CD85E14DCCCF
:1013D000033D1C4590F4F6018281882309F4BBC4C7
:1013E0000E9462148F50853008F456CD8FE03DCCBA
:1013F000023DECE51E07F1F270F3F60182818823CD
:1014000009F4A9C488E131CC093D2CE5120709F0A3
:10141000CCC0F6018281882309F11092F5010E9467
:10142000911C9093F3018093F20180E227960FB60E
:10143000F894DEBF0FBECDBFDF91CF911F910F910A
:10144000FF90EF90DF90CF90BF90AF909F908F90E4
:101450007F906F905F904F900C94892B8091F50155
:101460008823C9F080E227960FB6F894DEBF0FBE3E
:10147000CDBFDF91CF911F910F91FF90EF90DF9043
:10148000CF90BF90AF909F908F907F906F905F9024
:101490004F900C94822B8091F2019091F3010E9465
:1014A000671C883C9105F0F680E20E94822B88E25E
:1014B0000E94FB2B88E227960FB6F894DEBF0FBE82
:1014C000CDBFDF91CF911F910F91FF90EF90DF90F3
:1014D000CF90BF90AF909F908F907F906F905F90D4
:1014E0004F900C94932B073D2CE5120761F5F60104
:1014F0008281882351F01092F4010E94911C9093F4
:10150000F1018093F00182E091CF8091EE0285FF9E
:1015100005C081E08093F4018093F5018091F4018E
:1015200081110FC08091F0019091F1010E94671C20
:10153000883C910530F486E20E94FB2B86E20E94F3
:10154000932B82E090CF083D3CE5130718F1D601BC
:1015500012968C91811161CF8091EE0281FF05C0BE
:1015600081E08093F4018093F5018091F501811170
:1015700079CF8091F2019091F3010E94671C883C21
:10158000910508F06FCF87E20E94FB2B87E20E9453
:10159000932B68CF053D1C4509F066CDF60182818D
:1015A000882309F4D8C383E260CB0A3D3CE51307E6
:1015B00008F4BAC30D3DBCE51B0709F0C1C3F60131
:1015C0008281882309F4C7C382E080936B03C3C37D
:1015D0000C3D1C4509F048CDD60112968C9188230C
:1015E00009F4B9C310926B03B6C3F601828100817E
:1015F0001181882349F0C8010E94F51DF82E682F3B
:10160000C8010E946E1E04C0C8010E94411EF82E2F
:10161000B8018F2D0E9424168C01282FF601958188
:1016200092959F70F280F1101092E2028091E00298
:10163000877099F0FF2089F080E2800F883068F091
:1016400082E02F839E830E94C41F8091E0028770F6
:10165000EE24E3942F819E818111E12CA12EA2948E
:101660008FE0A822B12CFCE0AF16B10408F00FC344
:10167000F501EC58FF4F0C94CE30812F807F1F7006
:10168000882311F01295107FFF20B9F0112309F47F
:101690008FC280E2800F883010F0211106C0909137
:1016A000EE02192B1093EE0205C09091E202192B65
:1016B0001093E2020E94A91D7BC2802F2F830E94FB
:1016C000932B2F81112309F4E2C2005E083010F041
:1016D000211104C0812F0E94A21D06C01095909177
:1016E000E20219231093E2020E94A91DD0C2312FF9
:1016F000307F812F8F70303211F08295807F2223CE
:1017000019F02130D9F143C0FF2009F19923C9F024
:10171000913051F49091E302182F192B911709F48D
:10172000B6C21093E302B3C2923059F48E830E9482
:101730009C1D9091DF028E81891731F08093DF022A
:1017400003C09091E302892B0E94892BA0C29923A8
:1017500099F0913071F49091EE02982309F497C2B8
:101760008E830E94EF1D0E949C1D8E810E94822B01
:101770008EC2923009F48BC28E83F5CFFF2021F008
:10178000923008F084C2E0CF911181C2EFCFFF20E8
:1017900019F09923C9F20CC2992341F31BC2812F7E
:1017A00086958695837090E0009719F0019759F01F
:1017B0006EC2FF2019F0C801937002C080E090E073
:1017C0000E94401472C2FF2019F0C801937002C039
:1017D00080E090E00E942A1468C2FF20F9F0053FE3
:1017E00051F0063F71F0043FA9F48091F601909109
:1017F000F70181600BC08091F6019091F701826042
:1018000005C08091F6019091F70184609093F701F3
:101810008093F601802F0E94D91B1EC0053F51F016
:10182000063F71F0043FA9F48091F6019091F70111
:101830008E7F0BC08091F6019091F7018D7F05C0DE
:101840008091F6019091F7018B7F9093F70180933F
:10185000F601802F0E94141B0E949D1C26C2812F1E
:10186000837009F079C0F1101EC2802F8295869591
:101870008770880F880F402F4F7050E060E070E055
:101880004A015B01082E04C0880C991CAA1CBB1CD1
:101890000A94D2F704FF14C04FE050E060E070E01B
:1018A0002A013B0104C0440C551C661C771C8A9518
:1018B000D2F7B301A201409550956095709503C091
:1018C00040E050E0BA01169516951370812F90E014
:1018D0000091E4021091E5022091E6023091E702C6
:1018E00082309105A9F083309105E9F0019759F014
:1018F000482959296A297B29CB01BA016023712320
:101900008223932326C0802A912AA22AB32A1BC0AD
:10191000482959296A297B29CB01BA0160277127F7
:101920008227932716C0CB01BA016023712382233B
:1019300093230E94FE1F4091E4025091E5026091C2
:10194000E6027091E702CB01BA01682979298A2958
:101950009B290E94FE1FA7C1FF2019F0812F8170D3
:1019600001C08695882309F49EC1802F82958695B3
:101970008770880F880F402F4F7050E060E070E054
:101980004A015B01082E04C0880C991CAA1CBB1CD0
:101990000A94D2F704FF14C04FE050E060E070E01A
:1019A0002A013B0104C0440C551C661C771C8A9517
:1019B000D2F7B301A201409550956095709503C090
:1019C00040E050E0BA01169516951370812F90E013
:1019D0000091DB021091DC022091DD023091DE02E9
:1019E00082309105A9F083309105E9F0019759F013
:1019F000482959296A297B29CB01BA01602371231F
:101A00008223932326C0802A912AA22AB32A1BC0AC
:101A1000482959296A297B29CB01BA0160277127F6
:101A20008227932716C0CB01BA016023712382233A
:101A300093230E949E1E4091DB025091DC02609134
:101A4000DD027091DE02CB01BA01682979298A2969
:101A50009B290E949E1E27C1402F50E0FA01E05EA4
:101A6000F109E531F10508F09EC0E058FF4F0C94F4
:101A7000CE300F70812F8F71FF2021F00E94DD1F6B
:101A8000802F62CE0E949F1F802F70CEFF2009F111
:101A90009111FDC01F7181E090E0A0E0B0E0AC01C9
:101AA000BD0104C0440F551F661F771F1A95D2F75A
:101AB0008091DB029091DC02A091DD02B091DE0208
:101AC0008A019B01082719272A273B27C901B8014A
:101AD00026C0923008F0DBC0DDCFFF2039F0812F27
:101AE0008F710E94DD1FD3C0FF20C9F3812F8F713A
:101AF0000E949F1FCCC0FF2079F01F7181E090E011
:101B0000A0E0B0E0BC01CD0104C0660F771F881FC4
:101B1000991F1A95D2F703C060E070E0CB010E94D4
:101B20009E1EB5C0FF2011F18091DF029E830E94AE
:101B3000A21D8091E00287709E81843039F410925A
:101B4000E002812F8F710E949F1FDEC0923008F04B
:101B5000DBC01F71812F0E94DD1F28E0129FC00192
:101B6000112483608093E002812F16C02091EE0241
:101B70008091DF02822B8093EE02923080F01092EF
:101B8000E0020E94EF1D812F8F7198E0899F9001E4
:101B9000112424602093E0020E94DD1FB5C081E083
:101BA0000E94C41FB1C0FF2039F0992309F497CFD8
:101BB000802F0E94FB2B6BC0992309F497CF093328
:101BC00049F4AFEFB7EEE3E0A150B040E040E1F7F9
:101BD00000C00000802F0E94932B59C0223FB1F01B
:101BE00028F4203F49F0213FF9F028C0243FB9F004
:101BF00058F0253F71F022C0FF2009F456C09091A3
:101C00006D0381E0892708C081E0F826F0926D031A
:101C10004CC0F1104AC081E080936D0346C0F110C2
:101C200044C010926D0341C0FF2029F080916C03E5
:101C3000882329F329C0992311F337C080916C03BD
:101C40009923C1F0882341F090916D0381E08927A9
:101C500080936D0310926C03802FFF2019F00E9477
:101C6000FB2B23C00E94932B86E0D6011D928A9500
:101C7000E9F71BC08823C9F0F11017C090916D03DC
:101C800081E0892780936D0310926C030EC0B8E049
:101C9000AB16B10441F04CF0FAE0AF1AB10802E023
:101CA000A016B10410F40E945614EE2009F453C09B
:101CB0008091E00280FD4FC0D60112961C9285955E
:101CC000859585950E94DD1FC6010E94A204809122
:101CD000E00285958595859527960FB6F894DEBF29
:101CE0000FBECDBFDF91CF911F910F91FF90EF906D
:101CF000DF90CF90BF90AF909F908F907F906F902C
:101D00005F904F900C949F1FE12CCDCF0230ACE53B
:101D10001A0708F0DEC80115BCE51B07E1F0013029
:101D20001C4509F491C9A0C9073D8CE5180709F4C1
:101D3000DECB08F00CCC053D1C4509F42FCC94C932
:101D40000E3DECE51E0711F40C94D5050C3D1C4529
:101D500009F08AC941CC27960FB6F894DEBF0FBEB2
:101D6000CDBFDF91CF911F910F91FF90EF90DF904A
:101D7000CF90BF90AF909F908F907F906F905F902B
:101D80004F9008950895EF92FF920F931F93CF9372
:101D9000DF93E901662309F44BC0242F30E0EFEF15
:101DA000F0E0E61BF109B901E69F9001E79F300DD5
:101DB000F69F300D1124232F8B01031B11095CE3C7
:101DC000E52EF12CB7010E94A630FB01BC01069F55
:101DD000C001079F900D169F900D1124B7010E941E
:101DE000A630E230F105B1F040F4309779F0319748
:101DF00011F5832F242F461B21C0E430F105A1F0FB
:101E000068F03597C1F4842F861B18C0832F262FC6
:101E1000230F14C0862F830FE42F03C0E42FE61B8B
:101E2000842F432F2E2F0AC0842F462F430F06C026
:101E3000842F242F03C080E020E040E0E42FF0E076
:101E4000EE59F94F4491E22FF0E0EE59F94F949199
:101E5000E82FF0E0EE59F94FE49149839883EA8343
:101E6000DF91CF911F910F91FF90EF900895909186
:101E7000310392FF0DC0282F2871283019F4877F75
:101E8000846006C0282F2471243011F48B7F886071
:101E900093FF0DC0282F2871283119F4877E8461A3
:101EA00006C0282F2471243111F48B7E886194FDA3
:101EB000877E0895882319F05198599A02C0519A43
:101EC00059985098589A95E09A95F1F70000509AD1
:101ED000589895E09A95F1F70000882311F0519AEF
:101EE000599885E08A95F1F700000895CF93DF9324
:101EF000D82FC8E08D2F80780E945A0FDD0FC15077
:101F0000C9F780E00E945A0F85E08A95F1F700003A
:101F100085E08A95F1F7000080E0DF91CF91089588
:101F2000AF92BF92CF92DF92EF92FF920F931F93E7
:101F3000CF93DF931F92CDB7DEB7F82E8B01CFB6CC
:101F4000D090BC00F8942091BC002B7F2093BC0063
:101F50002BB12C7F2BB95098589A5198599A85E0FB
:101F60008A95F1F700002AB12C7F2AB9E5E0EA95BD
:101F7000F1F70000519A5998F5E0FA95F1F7000051
:101F8000509A589885E08A95F1F7000084E8998383
:101F90000E94760FAF2C9981B92E000F111F000FF0
:101FA000111F0A0D1B1D7501E016F10631F0F70136
:101FB00081917F010E94760FF7CF5098589AF5E0F3
:101FC000FA95F1F700005198599A85E08A95F1F752
:101FD0000000CFBED092BC00579A8BB18F779BB1D7
:101FE00090682FB7F894A016B10699F0F5013191D9
:101FF0005F0148E09BB9000000C037FF8BB9330F89
:10200000000000C000C000C08BB900C04A9591F725
:10201000EACF2FBF0F90DF91CF911F910F91FF90CB
:10202000EF90DF90CF90BF90AF90089580916403C0
:1020300080FF06C06FE070E08EEF91E00C94900F8F
:1020400080E090E0FC01E250FE4F1182108212828B
:1020500004968C339105B1F7EDCFEF92FF920F9379
:102060001F93CF93DF937C01CEEFD1E000E010E02F
:10207000F701848130916403909165030730110565
:102080001CF4882381F002C081110DC0832F881FAA
:102090008827881F592F550F97FB992790F99E0184
:1020A000409167030BC0832F881F8827881F592FF3
:1020B000550F97FB992790F99E0140E060916603C8
:1020C000852B0E94C30E0F5F1F4F24960F30110502
:1020D00079F60E941610F701848190E001968170D4
:1020E00099278483DF91CF911F910F91FF90EF90FB
:1020F0000895EF92FF920F931F93CF93DF93EC011C
:102100002C813D812F5F3F4F217033273D832C83EE
:102110008EEFE82E81E0F82E10E008E7812F8695FB
:10212000EC81FD81E80FF11DCF01817099279701A6
:102130004091670360916603FC010E9FC0010F9FF1
:10214000900D11240E94C30E1F5FF4E0EF0EF11CEE
:102150001F3021F7DF91CF911F910F91FF90EF90EA
:102160000C9416100F931F93CF93DF9380E090E0B1
:10217000FC01E250FE4F11821082128204968C33D1
:102180009105B1F7C0E0D0E00FE010E0CE01B8015A
:102190000E94BA30FC018091FC01082E000C990BC2
:1021A000EE0FFF1FEE0FFF1FC817D907FCF080913D
:1021B0001201082E000C990B8C179D07BCF09F0193
:1021C00022503E4F80916403881F8827881F90917A
:1021D0006503592F550F97FB992790F94091670395
:1021E00060916603852B0E94C30E05C0E250FE4F2E
:1021F0001182108212822196CF30D10539F60E94C9
:102200001610809111019091FC01980F9093FC01A0
:1022100020911201280F20931201121614F49E30FF
:102220001CF0819580931101DF91CF911F910F9147
:102230000895AF92BF92CF92DF92EF92FF920F93E9
:102240001F93CF93DF93FC01828180FF03C0BB24E7
:10225000BA9402C0BB24B3942EEFE22E21E0F22EFA
:1022600000E012E0C0E0D0E0F80131971082F70101
:102270001082F801108294E0C92ED12CA12C8091FB
:10228000FB018A0D87FD815F082E000C990BC81792
:10229000D907E9F4809167038C9DA0018D9D500DB5
:1022A0001124559547955595479580916403881F4E
:1022B0008827881F90916503592F550F97FB992701
:1022C00090F9970160916603852B0E94C30EAB0CB9
:1022D000F1E0CF1AD10899F6219684E0E80EF11CBE
:1022E0000C5F1F4FCF30D10509F0BECF0E941610F2
:1022F0008091FB0191E0B91206C0811102C08EE00D
:1023000007C0815005C090E00196BE010E94BA301E
:102310008093FB01DF91CF911F910F91FF90EF9080
:10232000DF90CF90BF90AF900895CF92DF92EF9261
:10233000FF920F931F93CF93DF93EC018EEFE82E64
:1023400081E0F82E00E010E098E6C92EDD24D39459
:102350008C819D81800F911FB6010E94BA30970138
:1023600040916703609166030E94C30E085E1F4F91
:1023700084E0E80EF11C083681E0180749F70E9456
:1023800016108A812C813D8180FF06C0C90101960B
:10239000B8010E94BA3005C0121613062CF087E669
:1023A00091E09D838C8304C0215031093D832C83AF
:1023B000DF91CF911F910F91FF90EF90DF90CF9021
:1023C00008959091640390FF0FC020E030E0F90180
:1023D000E250FE4F8183608342832C5F3F4F2C335A
:1023E0003105A9F70C94161008950F931F93CF93FE
:1023F000DF9300D000D0CDB7DEB78C018091FD0116
:1024000081110CC09E012F5F3F4F4FEF6FEF80E0B7
:1024100090E00E94C30E8A818093FD01F8018481BF
:10242000813051F028F0823061F44091FD010AC002
:102430008091FD0140E007C06091FD0140E080E037
:1024400003C040E080E060E00E94E111F8012481D7
:1024500030E0C901019663E070E00E94BA308483E5
:102460000F900F900F900F90DF91CF911F910F91D0
:102470000895CF93DF9300D000D0CDB7DEB7209181
:10248000640320FF0AC09E012F5F3F4F0E94C30ECE
:102490004B8169818A810E94E1110F900F900F900A
:1024A0000F90DF91CF910895CF93DF93EC01E4E695
:1024B000F3E0438162818C819D810E9439128C817D
:1024C0009D81019668E671E00E94BA309D838C83FD
:1024D000DF91CF910895CF93DF93EC016C8170E091
:1024E00080E090E00E94A72E20E030E04FE753E428
:1024F0000E94CA2D2BED3FE049E450E40E94D02F0A
:102500000E943D300E94442E2BE43AE34EE25FE30A
:102510000E945D2D20EF3BEF48ED52E40E94D02F4A
:102520000E94762E462FE4E6F3E08081881F8827FC
:10253000881F90916503292F220F97FB992790F907
:102540006281822B0E9439122C8130E02F5F3F4F35
:102550002C83DF91CF910895CF93E82F873058F5E2
:102560008091140190911501892B09F042C0CE2F62
:1025700080E40E9439209093150180931401892BE7
:10258000B1F482E10E94122090931501809314010E
:10259000892B69F481E090E001C0880FCA95EAF7C1
:1025A00080950E941220909315018093140184E974
:1025B0008093BC001EC090E0FC013797E730F10526
:1025C000C0F4EB56FF4F0C94CE30209A289811C0DF
:1025D000219A29980EC0229A2A980BC0239A2B98E8
:1025E00008C0529A5A9805C0539A5B9802C03E9A06
:1025F0004698CF910895CF93DF93873008F047C076
:102600008091140190911501892B09F049C080E453
:102610000E9439209093150180931401892B11F0A9
:1026200080E031C083E10E941220909315018093D5
:102630001401892BA9F781E40E9439209093150198
:1026400080931401892B61F784E88093BC000E9479
:10265000911CEC019091BC0097FD0EC00E94911C52
:102660008C1B9D0B84369105A8F38EEF9FEF909302
:10267000150180931401D4CF8091BB0080951092F6
:1026800015011092140194E99093BC000AC09FB107
:102690008FB1807F869586959370892B809501C038
:1026A00080E0DF91CF910895EF92FF920F931F93F7
:1026B000CF93DF93CDB7DEB767970FB6F894DEBF41
:1026C0000FBECDBF4B8B5C8B6D8B7E8B8F8B0E8942
:1026D0001F8901151105C1F15F3F11F44F3FA1F1B1
:1026E000E42EF12CA1E0B0E0042E01C0AA0F0A9460
:1026F000EAF7852F90E0662319F020916D0306C05C
:102700009C01225C3D4FF90120812A232223A9F05C
:1027100046E0489F9001499F300D1124F701E20FD8
:10272000F31FEE0FFF1FEB5BFE4F40815181FC0159
:10273000E25CFD4F9081A92B06C0FC01E25CFD4FDD
:10274000A0958081A823A08386E0FE013D96DF014D
:10275000982F1D929A95E9F74D875E876F87198BA1
:10276000088BDE01179601900D928A95E1F7CE0154
:1027700007960E948A29811137C086E0FE013796AC
:10278000DE01119601900D928A95E1F7FF81E885AF
:102790006A857B856115710539F1EF3F11F4FF3FC3
:1027A00019F12091720230E0C901019687709927D2
:1027B0004091A30250E08417950779F1F983EA83E9
:1027C0007D836C8396E0929FD001939FB00D11247E
:1027D000AD58BD4FFE01319601900D929A95E1F7EB
:1027E000809372020E94082016E08091A3029091CB
:1027F0007202891711F1189FC00111248D589D4F45
:102800000E948A298823C9F08091A30290E0019652
:10281000877099278093A302E8CF1092EE020E945E
:102820006F2B109272021092A302ECE6F2E086E0A7
:10283000DF011D928A95E9F7D7CF67960FB6F89416
:10284000DEBF0FBECDBFDF91CF911F910F91FF90E3
:10285000EF90089520913C0230913D02821793073A
:1028600071F090933D0280933C02E0913403F0912B
:102870003503309721F00084F185E02D0994089507
:1028800020913A0230913B028217930771F09093A6
:102890003B0280933A02E0913403F0913503309784
:1028A00021F00680F781E02D09940895E09134032A
:1028B000F0913503309721F00190F081E02D0994DB
:1028C00080E008958091640380FF03C086958F7334
:1028D000089580E0089580916403282F26952F7332
:1028E00030E02115310519F48178826005C0253268
:1028F000310524F081788864809364033091640307
:10290000432F441F4427441F20916503522F550F26
:10291000852F842B27FB992790F9893641E094076E
:102920007CF068E671E00E94BA3080FB37F93093A2
:10293000640386952078822B90FB87F9809365034A
:102940000895CF93DF9300D000D0CDB7DEB7AB01B1
:10295000BC0149835A836B837C830E946B14498139
:102960005A816B817C8188E090E00F900F900F90EE
:102970000F90DF91CF910C943B2D5F926F927F92DD
:102980008F929F92AF92BF92CF92DF92EF92FF927F
:102990000F931F93CF93DF9300D000D0CDB7DEB756
:1029A0008C01E62EF42E522E8091640380FF8BC0A2
:1029B000E82FE695EF73AE2FB0E0A05EBE4F9C917E
:1029C00090936903282F2E77223061F49E012F5FA8
:1029D0003F4FC8010E94C30E4B8169818A810E94CA
:1029E000E11151C0923019F4F09067034CC0963059
:1029F00069F4881F8827881F90916503292F220F6B
:102A0000022F082B97FB112710F93DC0993089F34D
:102A10009931C9F5E951E0FD02C021E001C02FEF75
:102A2000E695F0E0EE0FFF1FEE59F84F8591949177
:102A30006FE070E00E94A63026034001279F900CB3
:102A40001124580188E9A81A8EEFB80A9EEFC92E02
:102A500091E0D92E28E6622E77247394C501B30144
:102A60000E94A63096014F2D6E2D0E94C30EA80C19
:102A7000B91C84E0C80ED11C8AE3C81682E0D806CF
:102A800069F70E9416108091640300FB87F9809318
:102A90006403902F9695809165038078892B10FBB5
:102AA00087F980936503E0926603F09267035520EF
:102AB00051F0609164037091650380916603909179
:102AC00067030E94A1140F900F900F900F90DF9159
:102AD000CF911F910F91FF90EF90DF90CF90BF901B
:102AE000AF909F908F907F906F905F90089521E0BE
:102AF0000C94BD14E4E6F3E080818E7F80836081D6
:102B00007181828193810E94A11410926A032FEF38
:102B100080E792E0215080409040E1F700C0000043
:102B20000C9416109091640390FF4AC09178811123
:102B300002C0926007C0853210F0986403C08F73A2
:102B4000880F982B90936403662351F0609164037F
:102B50007091650380916603909167030E94A114B0
:102B60006091640366956F7370E04BE050E086E01F
:102B700091E00E940132892B19F010926A0309C07A
:102B800081E080936A030E94911C90935F0380937D
:102B90005E0381E08093610380916403881F88272E
:102BA000881F90916503392F330F97FB992790F970
:102BB00020E04091670360916603832B0C94BD1461
:102BC000089560E00C949215E4E6F3E08081816062
:102BD000808386958F730C94E11561E00C949215B7
:102BE000E4E6F3E080818160808386958F730C94A6
:102BF000ED158091640386958F73815009F484E20A
:102C000061E00C9492158091640386958F738F5FB9
:102C1000853208F081E061E00C949215E4E6F3E07F
:102C200083E08083109265038FEF82838383148215
:102C300060817181828193810C94A11460911F0342
:102C40008CE090E00C94292DCF93DF9326E0729FC7
:102C5000F001112434E5839FE00DF11D1124E60FEE
:102C6000F11DEE0FFF1FE653FE4FC591D491CE012B
:102C7000C238D10549F1B0F4C133D10509F464C0BB
:102C800048F4C932D10509F458C0CA32D10509F453
:102C900062C068C0C533D10509F448C0C933D10545
:102CA00099F060C0C33ED10541F138F4C03ED10572
:102CB00091F0C23ED105B1F055C0C63ED10521F11B
:102CC000C73ED10561F14EC02091310320FD14C2F1
:102CD00021FD12C213C22091310320FF0FC289E3EC
:102CE00090E00CC22091310322FF08C28091310391
:102CF00084FDB4C183EE90E001C28091310382FF74
:102D0000F5CF82EE90E0FAC12091310323FFF6C1A6
:102D10008091310384FDA2C187EE90E0EFC18091E4
:102D2000310383FFF5CF86EE90E0E8C120913103B7
:102D300025FFE4C189E290E0E1C12091310325FF44
:102D4000DDC185E390E0DAC12091310326FFD6C1D1
:102D50008AE290E0D3C12091310326FFCFC181E305
:102D600090E0CCC1C11520E5D20708F047C0C115DD
:102D700030E4D30708F034C1C83ED10518F5C03E91
:102D8000D10508F0BBC1C83AD10570F4C53AD105E8
:102D900008F0B0C0C130D10509F4B0C108F45EC17B
:102DA000249708F45BC1AAC1CF3BD10508F4ADC09C
:102DB000C03CD10508F452C1FE01EE0FFF1FEE51D9
:102DC000FB4F02C1C11520E2D20760F4C11531E00A
:102DD000D30708F093C1C03FD10508F43FC1CE012D
:102DE00090658CC1C11580E3D80708F0F0C0FE01E2
:102DF000FF70EE0FFF1FEE59F94FE6C0C11595E5C4
:102E0000D90708F044C0C11524E5D20708F000C175
:102E1000C11532E5D30710F5C11581E5D80708F0D3
:102E2000E3C02C2F237081E090E002C0880F991F2F
:102E30002A95E2F79C689E0174E0369527957A956D
:102E4000E1F72370922BEC2FEF70E695E69530E2D8
:102E5000E39FF00111248E2B9F2B50C18C2F869560
:102E60008695AE0143705527C115D34508F0C1C002
:102E700090E2899F9001112481E090E002C0880FC8
:102E8000991F4A95E2F7822B932B9C6837C1C11595
:102E90002AE5D207A0F4C11539E5D30708F0C6C06A
:102EA000C11586E5D80708F4B8C0C11598E5D9075B
:102EB00008F4D4C09C2F8827806F906A1FC1C11569
:102EC0002BE5D20708F4CAC0CE01C1153CE5D307F3
:102ED00008F4C1C090568115904208F0BFC08D2FF4
:102EE0008F710E94370FFE01FF27F0628F719F01E3
:102EF000382BAFC0C53AD10509F4B3C0C63AD105E5
:102F000009F0B2C082E890E4F9C0C83AD10509F4EA
:102F1000AEC0C93AD10509F4ADC0CA3AD10509F429
:102F2000ACC0CB3AD10509F4ABC0CC3AD10509F419
:102F3000AAC0CB3BD10509F4A9C0CC3BD10509F40B
:102F4000A8C0CD3AD10509F4A7C0C03BD10509F40A
:102F5000A6C0CE3AD10509F4A5C0CF3AD10509F4EF
:102F6000A4C0C13BD10509F4A3C0C23BD10509F4FB
:102F7000A2C0C33BD10509F4A1C0C43BD10509F4EB
:102F8000A0C0C53BD10509F49FC0C63BD10509F4DB
:102F90009EC0C73BD10509F49DC0C83BD10509F4CB
:102FA0009CC0C93BD10509F49BC0CD3BD10509F4B8
:102FB0009AC0CE3BD10509F499C0CA3BD10509F4AA
:102FC00098C080E094E49AC08591949197C09E0146
:102FD0003327C901D3FF02C0986C90C0906C8EC09B
:102FE000CE019F70906A8AC09C2F8827816F906A5B
:102FF00085C090E2899F9001112481E090E002C099
:10300000880F991F4A95E2F7822B932B9A6876C016
:103010009C2F8827846F906A71C08C2F0E94370F75
:103020008F7190E0982F8827906268C08C2F8F70E6
:103030000E94370FFE0194E0F695E7959A95E1F727
:10304000EF70F0E0FE2FEE27F06A8F70806E9F0128
:10305000282BC90153C09927906650C080E090E0AA
:103060004DC081E890E44AC083E890E447C082EE16
:1030700094E444C089EE94E441C08AEE94E43EC0F6
:1030800085EB94E43BC086EB94E438C083EB94E496
:1030900035C084EB94E432C087EB94E42FC08CEC11
:1030A00094E42CC08DEC94E429C083E895E426C018
:1030B0008AE895E423C082E995E420C084E995E498
:1030C0001DC081E296E41AC083E296E417C084E250
:1030D00096E414C085E296E411C086E296E40EC040
:1030E00087E296E40BC08FE694E408C080E794E49E
:1030F00005C08AE296E402C080EE90E0DF91CF91B5
:10310000089580E290E090931501809314018091DE
:10311000FA01811111C01092B9008CE08093B800BF
:1031200081E08093FA012FEF83ED90E321508040FE
:103130009040E1F700C0000080E40E9439209093A5
:10314000150180931401892B09F040C080E00E9492
:1031500012209093150180931401892BB9F580E01A
:103160000E9412209093150180931401892B71F510
:103170008FE30E9412209093150180931401892BF4
:1031800029F584E98093BC0080E40E943920909363
:10319000150180931401892BC9F48CE00E94122040
:1031A0009093150180931401892B81F480E00E9493
:1031B00012209093150180931401892B39F48FE329
:1031C0000E941220909315018093140184E980934A
:1031D000BC0080911401089556985E9825982D980A
:1031E00026982E9827982F988FEF90E0909389003B
:1031F0008093880090938B0080938A0090938D0039
:1032000080938C00259A2D9A2FEF80E792E0215031
:1032100080409040E1F700C00000269A2E9A2FEFE0
:1032200080E792E0215080409040E1F700C000002C
:10323000279A2F9A2FEF80E792E02150804090400C
:10324000E1F700C0000025982D982FEF80E792E06D
:10325000215080409040E1F700C0000026982E9851
:103260002FEF80E792E0215080409040E1F700C0CE
:10327000000027982F9856985E9825982D982698A4
:103280002E9827982F98089584B1807F84B985B1AE
:10329000807F85B98AB1837F8AB98BB1837F8BB9EF
:1032A0003E984698089580B38C7080BB81B3836F3D
:1032B00081BB0895AF92BF92CF92DF92EF92FF92BF
:1032C0000F931F93CF93DF93809114019091150179
:1032D000892B91F08091F9018F5F8093F901811121
:1032E0000BC00E94811890E0909315018093140107
:1032F000892B11F40E94EC1803E213E04AE2E42E59
:1033000043E0F42E6801C0E0B12C37E0A32EAC0EF0
:103310008C2F0E94AC128A2D0E94AC128C2F0E941E
:10332000FB12D6019C91981719F08C93D1E001C043
:10333000D0E08A2D0E94FB12F7019081981719F0B6
:10334000808381E001C080E0D82BBD2A0E9444190F
:10335000CF5FFFEFCF1ADF0A6FEFE61AF60AC7302A
:10336000A1F60E94911C6AEF70E00E94A630782FAF
:103370006091F801662381F11092F801E0911D033C
:10338000F0911E03DF01AC5ABF4FF12C2BEFE22E60
:10339000CAEFD0E0AF014A5F5F4F20812B3F99F029
:1033A000C22ED12C721720F09C012C193D0905C0AA
:1033B0009E012C193D09280F391F2530310514F0C5
:1033C000E08201C0F62E3196E417F50731F7EA17CF
:1033D000FB0701F7F092F801BB20A1F140911D031A
:1033E00050911E036091F801E7E3F3E0EE24E394CB
:1033F000F12C9EE0D92EDE0ED8019D918D018081A9
:103400009827DA0120E030E0E701022E01C0CC0F5E
:103410000A94EAF7CC2EC92241F0CC90DBEFBD2E06
:10342000CB1003C07C938C2761E011962F5F3F4F38
:103430002630310549F74A5F5F4F8193DE12DCCFBA
:103440006093F80181E0DF91CF911F910F91FF9080
:10345000EF90DF90CF90BF90AF9008958091F002F1
:103460000895CF93DF9300D01F92CDB7DEB72091A0
:103470001303243031F523E02983805891099B837D
:103480008A8382E08093E9008FEF9091E800815079
:1034900095FD06C095ED9A95F1F700008111F5CFE5
:1034A0008091E80085FF0DC040E050E063E070E0EF
:1034B000CE0101960E9483208091E8008E77809350
:1034C000E8000F900F900F90DF91CF9108950F9328
:1034D0001F93CF93DF9300D01F92CDB7DEB78C013F
:1034E0000E941726823011F0843021F584E0898310
:1034F0001B830A8382E08093E9008FEF9091E800BC
:10350000815095FD06C095ED9A95F1F70000811167
:10351000F5CF8091E80085FF0DC040E050E063E00A
:1035200070E0CE0101960E9483208091E8008E77A2
:103530008093E8000F900F900F90DF91CF911F9133
:103540000F910895CF93DF93EC010E9417268230EC
:1035500011F08430F9F482E08093E9009FEF8091CC
:10356000E800915085FD06C085ED8A95F1F70000D1
:103570009111F5CF8091E80085FF0CC040E050E04C
:1035800066E070E0CE010E9483208091E8008E7793
:103590008093E800DF91CF910895CF93DF93EC0102
:1035A0000E941726823011F08430D9F580911301E2
:1035B000882339F08091310387FF03C060E282E005
:1035C00002C068E081E08093E9008FEF9091E8000D
:1035D000815095FD06C095ED9A95F1F70000811197
:1035E000F5CF8091E80085FF1CC080911301811107
:1035F00005C040E050E068E070E003C070E040E0EB
:1036000050E0CE010E9483208091E8008E77809365
:10361000E80080E2FE01A1EFB2E001900D928A95F0
:10362000E1F7DF91CF910895803F39F4809148030D
:1036300087FF6CC01092480369C0813F29F48091D4
:1036400048031816BCF362C090914703823F29F4E7
:1036500097FF5CC01092470359C0833F19F41916B5
:10366000CCF354C0893F41F48091490318160CF003
:103670004DC0109249034AC08A3F29F48091490302
:1036800087FF44C0F6CF8B3F39F480914A0387FF10
:103690003DC010924A033AC08C3F29F480914A03FE
:1036A0001816BCF333C0843F21F4809146038E7F0B
:1036B00017C0853F21F4809146038D7F11C0863F5E
:1036C00021F4809146038B7F0BC0873F21F48091CA
:1036D0004603877F05C0883F31F4809146038F7E83
:1036E0008093460313C08D3F21F48091EC028E7FBE
:1036F0000BC08E3F21F48091EC028D7F05C08F3F7F
:1037000029F48091EC028B7F8093EC028091470337
:1037100081110EC08091480381110AC08091490334
:10372000811106C080914A03811102C010924B039F
:1037300008958091EC0280FD18C081FD14C082FDC7
:1037400016C080914B03882381F0803580F425E0FA
:10375000829FC001112460E570E00E94BA30862F7C
:10376000672B19F005C082E0089581E0089585E097
:1037700008958091EC0280FD14C081FD14C082FD8B
:1037800016C080914B03882381F0843180F423E2BA
:10379000829FC001112464E170E00E94BA30862F3C
:1037A000089588E0089581E1089585E0089583E211
:1037B0000895803F21F40E94B91B819504C0813F88
:1037C00029F40E94B91B809348030895823F21F495
:1037D0000E94B91B819504C0833F29F40E94B91B44
:1037E000809347030895893F19F40E94991B05C0EF
:1037F0008A3F31F40E94991B819580934903089573
:103800008B3F21F40E94991B819504C08C3F29F4C1
:103810000E94991B80934A030895843F21F480916C
:103820004603816017C0853F21F480914603826082
:1038300011C0863F21F48091460384600BC0873F0E
:1038400021F480914603886005C0883F31F480915F
:10385000460380618093460308958D3F21F4809153
:10386000EC0281600BC08E3F21F48091EC028260FB
:1038700005C08F3F29F48091EC0284608093EC02B4
:10388000089578941F920F920FB60F9211248F9380
:103890009F93AF93BF938091E8029091E902A0912A
:1038A000EA02B091EB020196A11DB11D8093E802DE
:1038B0009093E902A093EA02B093EB02BF91AF911B
:1038C0009F918F910F900FBE0F901F901895CF92E0
:1038D000DF92EF92FF920F931F932FB7F8944091CE
:1038E000E8025091E9026091EA027091EB022FBF69
:1038F0006A017B01EE24FF248C0120E030E0C01639
:10390000D106E206F30610F4415051099A01281B32
:10391000390BC9011F910F91FF90EF90DF90CF906D
:1039200008952FB7F8948091E8029091E902A09150
:10393000EA02B091EB022FBF0895E0913403F091B9
:103940003503309749F082E0809345030480F58188
:10395000E02D85E493E009950E94911C90934D031E
:1039600080934C0308951F920F920FB60F9211246B
:103970008F939F93AF93BF9380913603811113C0B0
:103980008091E8029091E902A091EA02B091EB02E5
:103990004196A11DB11D8093E8029093E902A09386
:1039A000EA02B093EB02BF91AF919F918F910F907C
:1039B0000FBE0F901F90189520911301222321F024
:1039C0002091310327FD04C0FC013296089619C0EE
:1039D000262F2695269526952E31C0F4FC01E20F60
:1039E000F11D677081E090E001C0880F6A95EAF7E9
:1039F000809592818923828308953196E817F9078B
:103A000029F020812613F9CF1082F7CF0895209155
:103A10001301222321F02091310327FD05C0FC0171
:103A200032962FEF30E019C0262F26952695269541
:103A30002E3120F5FC01E20FF11D677081E090E06E
:103A400001C0880F6A95EAF79281892B82830895D5
:103A50002F3F39F03F5F363041F041914613F8CFA8
:103A60000DC04111F7CF232FF5CF2F3F39F0FC01C7
:103A7000E20FF11D27FDFA9562830895089580E015
:103A800090E00E94232D21E08D3E9E4F09F020E022
:103A9000822F08956DEE7EEF80E090E00E94472D2A
:103AA00060E082E090E00E94292D60E083E090E0F9
:103AB0000E94292D1092E4021092E5021092E60273
:103AC0001092E70260E084E090E00E94292D60E01F
:103AD00085E090E00E94292D60E086E090E00E9461
:103AE000292D6FEF87E090E00E94292D40E050E003
:103AF000BA0188E090E00E943B2D60E08DE090E00C
:103B00000E94292D40E050E0BA0188E190E00E9437
:103B10003B2D60E087E190E00E94292D40E050E0DD
:103B2000BA018FE090E00E943B2D40E050E0BA01E6
:103B300083E190E00C943B2D8091E302811110927F
:103B4000E302089580959091EE0289238093EE021E
:103B500008959091E2028091EE02892B2091E1027A
:103B6000982F922B90934C028091E3028823D9F0F6
:103B7000892B80934C0280911301882331F080912E
:103B8000310387FF02C08EE101C086E0EEE4F2E07F
:103B900090E0815028F021912223D9F39F5FF9CF43
:103BA00091110E949C1DE0913403F09135033097F0
:103BB000A9F080911301882359F08091310387FF88
:103BC00007C080914C0280934D0285E080934C02A7
:103BD0000280F381E02D8CE492E0099408958091B5
:103BE000DF0281111092DF020895BF92CF92DF921F
:103BF000EF92FF920F931F93CF93DF938C01C090AE
:103C0000E402D090E502E090E602F090E7028091B5
:103C1000DB029091DC02A091DD02B091DE02C82AA5
:103C2000D92AEA2AFB2ACFE1D0E0D701C6010C2E1F
:103C300004C0B695A795979587950A94D2F780FF0B
:103C400007C0BC2EB8018C2F0E942416019719F4CE
:103C5000219758F7B12C8B2DDF91CF911F910F91A8
:103C6000FF90EF90DF90CF90BF900895CF93DF93B8
:103C7000EC010E94F51DBE010E942416DF91CF9138
:103C80000895292F220F920F990F890F682F66959B
:103C900066956695982F977085E0689FB00111240E
:103CA00040E050E080E0FA01E60FF71FEC55FD4FD1
:103CB000208130E0092E02C0369527950A94E2F75C
:103CC00021703327042E01C0220F0A94EAF7822BB9
:103CD0004F5F5F4F4530510531F70895292F220F6F
:103CE000920F990F890FA82FA695A695A695877074
:103CF00051E001C0550F8A95EAF785E0A89FD001F1
:103D0000112420E030E070E0F901EA0FFB1FEC55D0
:103D1000FD4F4081CB01022E02C0969587950A94F3
:103D2000E2F78170992781958427852384278083F2
:103D30002F5F3F4F2530310539F70895CF92DF923D
:103D4000EF92FF926B017C01AA27BB270097A10588
:103D5000B10511F0E0E103C0D701C601E0E0492F51
:103D60005A2F6B2F7727411551056105710519F001
:103D7000E85FDB01CA01AC01BD01F4E0769567950F
:103D800057954795FA95D1F741155105610571058C
:103D900019F0EC5FDB01CA01AC01BD0132E07695A0
:103DA0006795579547953A95D1F7411551056105A6
:103DB000710519F0EE5FDB01CA01B695A7959795DD
:103DC0008795892B8A2B8B2B09F0EF5F56985E988D
:103DD00025982D9826982E9827982F988E2F90E02A
:103DE000FC013197E730F10518F5E456FF4F0C94CC
:103DF000CE30259A2D9A52C0269A2E9A5AC0279ACA
:103E00002F9A62C0259A2D9A269A2E9A68C0259AD2
:103E10002D9A279A2F9A6EC0269A2E9A279A2F9A11
:103E200074C0259A2D9A269A2E9A279A2F9A79C08D
:103E30008730910508F075C0FC01ED55FF4F0C94DB
:103E4000CE3088E090E00E941D2D60936403709353
:103E50006503809366039093670360FF1CC00E9414
:103E6000F0158091640386958F730E94ED15809103
:103E70006403881F8827881F90916503292F220FCC
:103E800097FB992790F94091670360916603822B15
:103E90000E94771546C00E947A1543C00E94E4151F
:103EA00081E00E94E11520E04FEF6FEF84E291E0A6
:103EB00036C00E94E41581E00E94E11520E04FEF3A
:103EC0006FEF84EB90E02BC00E94E41581E00E942C
:103ED000E11520E04FEF6FEF88EE90E020C00E94E8
:103EE000E41581E00E94E11520E04BEB6CE58DE2EA
:103EF00090E015C00E94E41581E00E94E11520E0E9
:103F00004FEF6FEF80E090E00AC00E94E41581E07F
:103F10000E94E11520E04FEF6FEF86E290E00E94F3
:103F2000BD14C092DB02D092DC02E092DD02F0927E
:103F3000DE02FF90EF90DF90CF900C94542B0F9304
:103F40001F9341E050E060E070E004C0440F551F53
:103F5000661F771F8A95D2F74095509560957095AA
:103F60008091DB029091DC02A091DD02B091DE0233
:103F70008A019B01082319232A233B23C901B80185
:103F80001F910F910C949E1E2091E0028095822338
:103F90008093E002982F977079F430E0482F082E34
:103FA000000C550B2417350739F0859585958595B7
:103FB0000E949F1F1092E00208950F931F9341E00B
:103FC00050E060E070E004C0440F551F661F771F8B
:103FD0008A95D2F78091DB029091DC02A091DD02FC
:103FE000B091DE028A019B01082B192B2A2B3B2B57
:103FF000C901B8011F910F910C949E1E6093E402B9
:104000007093E5028093E6029093E7020C94542BA0
:104010008091A30290917202891719F08F5F8770C7
:10402000FBCF0895CF93DF938093BB0084E8809308
:10403000BC000E94911CEC019091BC0097FD0AC04D
:104040000E94911C8C1B9D0B84369105A8F38EEF6A
:104050009FEF0CC02091B900287F81E090E02832CA
:1040600011F480E090E0919581959109DF91CF91D5
:1040700008950F931F93CF93DF93C82F1092BC0026
:1040800084EA8093BC000E94911C8C019091BC003A
:1040900097FD0AC00E94911C801B910B84369105EC
:1040A000A8F38EEF9FEF2AC09091B900987F9830C7
:1040B00041F09091B900987F903119F08FEF9FEF08
:1040C0001DC0C093BB0084E88093BC000E94911C7B
:1040D000EC019091BC0097FD08C00E94911C8C1BC4
:1040E0009D0B84369105A8F3DCCF8091B900887FC1
:1040F000883111F0803411F780E090E0DF91CF91AA
:104100001F910F910895CF92DF92FF920F931F930B
:10411000CF93DF931F92CDB7DEB7F82E8B01998333
:104120000E942E25998181111CC0CF2CD92E0115FA
:104130001105B1F08091E80085FD0AC08091E8008A
:104140008E778093E8000E942E25882381F309C092
:10415000F60181916F018093F10001501109E7CFC1
:1041600080E00F90DF91CF911F910F91FF90DF9032
:10417000CF9008951F93CF93DF93CDB7DEB7AA9763
:104180000FB6F894DEBF0FBECDBFE5E1F3E088E0E7
:104190008E0F9091F10091938E13FBCF80911603B7
:1041A000833009F460C030F4813071F0823009F45A
:1041B0009CC0B3C08A3009F488C08B3009F46BC04E
:1041C000893009F0AAC020C080911503813A09F016
:1041D000A4C08091E800877F8093E8008091190354
:1041E00090911A03892B21F460E281EF92E003C0E1
:1041F00060E080E090E070E00E94B4258091E800EB
:104200008B778093E80089C080911503813209F093
:1042100084C08091190390911A03029708F07DC021
:104220008091E800877F8093E8008091E80082FD1C
:1042300005C0809113038111F8CF6FC02091F30066
:104240008091F20090E0922B029729F48091F10086
:104250008B7F813021F48091F1008093F002809176
:10426000E8008B7756C080911503813A09F055C05C
:104270008091190390911A03892B09F04EC0809107
:10428000E800877F8093E8008091E80080FFFCCF02
:104290008091130139C0809115038132F1F580912D
:1042A000190390911A03892BC1F58091E800877F4B
:1042B0008093E8000E94602580911703809313018A
:1042C0001092EE020E946F2B28C08091150381325C
:1042D00021F58091E800877F8093E8000E946025A7
:1042E000809118038093EF0218C080911503813AE2
:1042F000A1F48091E800877F8093E8008091E80036
:1043000080FFFCCF8091EF028093F1008091E80064
:104310008E778093E8000E9460258091E80083FFFB
:10432000D6C18091150390911603492F50E04A3071
:10433000510508F0CCC1FA01E655FF4F0C94CE3080
:10434000803821F0823809F0C2C108C08091110381
:1043500090911203992389F082600FC08091190314
:104360008F70873008F0B3C18093E9008091EB0033
:1043700085FB882780F91092E9009091E800977FEB
:104380009093E8008093F1001092F10074C1282FFF
:104390002D7F09F09CC1882319F0823061F097C10C
:1043A00080911703813009F092C1933009F080E0C9
:1043B000809312032EC08091170381112AC080912F
:1043C00019038F702FEF280F263008F080C18093DB
:1043D000E9002091EB0020FF1CC0933021F4809174
:1043E000EB00806214C09091EB0090619093EB0021
:1043F00021E030E0A90102C0440F551F8A95E2F781
:104400004093EA001092EA008091EB00886080936C
:10441000EB001092E9008091E800877F2FC18111A5
:1044200056C1109117031F778091E3008078812B8C
:104430008093E3008091E800877F8093E8000E94EA
:1044400060258091E80080FFFCCF8091E3008068C8
:104450008093E300111102C082E001C083E08093E9
:10446000130335C18058823008F031C180911703A1
:10447000909118038C3D53E0950779F583E08A838A
:104480008AE289834FB7F894DE01139620E03EE07C
:1044900051E2E32FF0E050935700E49120FF03C076
:1044A000E295EF703F5FEF708E2F90E0EA3010F0F2
:1044B000C79601C0C0968D939D932F5F243149F715
:1044C0004FBF8091E800877F8093E8006AE270E048
:1044D000CE0101960E94B425BDC0409119035091B0
:1044E0001A03292F332723303105B9F06CF421301A
:1044F000310509F4FBC02230310509F0E8C08BE337
:1045000090E0ECE6F8E054C02132310509F433C004
:104510002232310509F43CC0DAC099278130910577
:10452000D1F05CF4892B09F0D2C0EFEEF8E0E49111
:104530008E2F90E0EFEEF8E038C08230910599F0D0
:10454000039709F0C4C0E9EBF8E0E4918E2F90E006
:10455000E9EBF8E02AC0E7EDF8E0E4918E2F90E077
:10456000E7EDF8E022C0EFEBF8E0E4918E2F90E069
:10457000EFEBF8E01AC04115510509F4BCC0413019
:10458000510509F0A4C089E090E0E7E9F8E010C027
:104590004115510509F4B4C04130510509F097C0E7
:1045A00080EC90E0ECE6F7E003C0009709F48FC0E0
:1045B0002091E800277F2093E80020911B03309191
:1045C0001C032817390708F4C90140E0009789F156
:1045D00020911303222309F43DC02530D9F1209105
:1045E000E80023FD37C02091E80022FD2FC0209174
:1045F000E80020FFEBCF4091F3002091F20030E083
:10460000342B009759F02830310540F44491409301
:10461000F100319601972F5F3F4FF3CF41E02830F3
:10462000310509F040E02091E8002E772093E80062
:10463000CDCF4111CDCF0AC080911303882351F013
:10464000853041F08091E80083FD04C08091E8004E
:1046500082FFF2CF8091E8008B778093E80037C02B
:104660008038A9F58091E800877F8093E8008091E9
:1046700014038093F1008091E8008E778093E80026
:104680000E94602524C0811122C0109117031230AE
:10469000F0F48091E800877F8093E8001093140382
:1046A0000E946025111106C08091E30087FD02C0C1
:1046B00081E001C084E08093130342E061EC81E07B
:1046C0000E947F2542E261EC82E00E947F2580917A
:1046D000E80083FF1AC08091E800877F8093E8009C
:1046E0008091EB0080628093EB000FC082E190E04C
:1046F000E7EAF8E05DCF89E090E0EEE7F8E058CF38
:1047000080E490E0ECE2F8E053CFAA960FB6F8947C
:10471000DEBF0FBECDBFDF91CF911F9108951F92D5
:104720000F920FB60F9211242F933F934F935F93E5
:104730006F937F938F939F93AF93BF93CF93DF93A9
:10474000EF93FF93C091E900CF708091EC00D82FD8
:10475000D17080FDD0E81092E9008091F000877F51
:104760008093F00078940E94BA201092E900809122
:10477000F00088608093F000CD2BCF70C093E900EB
:10478000FF91EF91DF91CF91BF91AF919F918F9169
:104790007F916F915F914F913F912F910F900FBE3D
:1047A0000F901F901895E8EDF0E080818E7F808358
:1047B0001092E2001092DA001092E100A0EEB0E058
:1047C0008C9181608C9380818F77808319BCA7ED59
:1047D000B0E08C918E7F8C9380818F7E808310924D
:1047E000ED020895CF92DF92EF92FF920F931F9305
:1047F000CF93DF93C8EDD0E088818F7E8883E7ED8B
:10480000F0E080818160808384E082BF81E08093DA
:10481000ED0288818E7F888302EE10E0F80110821D
:104820001092DA0081EEC82ED12CF6011082888118
:104830008F77888388818068888388818F7D88834B
:1048400019BC1092130310921403109212031092C9
:10485000110390EEE92EF12CF70180818B7F80838C
:1048600088818160888342E060E080E00E947F254B
:10487000F60180818E7F8083F80180818160808352
:10488000808188608083F70180818E7F808388812A
:1048900080618883DF91CF911F910F91FF90EF90FE
:1048A000DF90CF9008951F920F920FB60F921124B0
:1048B0002F933F934F935F936F937F938F939F9328
:1048C000AF93BF93EF93FF938091E10082FF09C004
:1048D0008091E20082FF05C08091E1008B7F809390
:1048E000E1008091DA0080FF2AC08091D80080FF2B
:1048F00026C08091DA008E7F8093DA008091D90003
:1049000080FF18C080E189BD82E189BD09B400FE45
:10491000FDCF81E0809313038091ED0281110FC0E0
:104920000E94D3230E94F2238091E200846080934E
:10493000E20005C019BC109213031092ED028091A1
:10494000E10080FF17C08091E20080FF13C08091DA
:10495000E2008E7F8093E2008091E200806180938C
:10496000E2008091D80080628093D80019BC85E075
:10497000809313038091E10084FF34C08091E200B2
:1049800084FF30C080E189BD82E189BD09B400FEA9
:10499000FDCF8091D8008F7D8093D8008091E10079
:1049A0008F7E8093E1008091E2008F7E8093E20011
:1049B0008091E20081608093E2008091140388235B
:1049C00011F084E007C08091E30087FD02C081E020
:1049D00001C083E0809313031092EE020E946F2BBC
:1049E0000E9456148091E10083FF27C08091E2006D
:1049F00083FF23C08091E100877F8093E10082E004
:104A000080931303109214038091E1008E7F8093B2
:104A1000E1008091E2008E7F8093E2008091E200CD
:104A200080618093E20042E060E080E00E947F25A8
:104A30008091F00088608093F000FF91EF91BF912A
:104A4000AF919F918F917F916F915F914F913F9126
:104A50002F910F900FBE0F901F9018952091E4009A
:104A60003091E50095E64091EC00842F817040FF85
:104A700022C08091E80080FD1CC080911303882330
:104A800091F0853091F08091EB0085FD10C0409150
:104A9000E4005091E5004217530729F39A01915021
:104AA00011F784E0089582E0089583E0089581E09D
:104AB000089580E008954091E80042FFDECF089518
:104AC0008091150387FF11C08091E80082FD05C029
:104AD000809113038111F8CF11C08091E8008B778A
:104AE0000BC080911303882349F08091E80080FF78
:104AF000F8CF8091E8008E778093E8000895982F92
:104B0000973058F59093E900981739F07091EC00C0
:104B10002091ED005091F00003C0242F762F50E03B
:104B200021FF19C03091EB003E7F3093EB003091B4
:104B3000ED003D7F3093ED003091EB00316030931C
:104B4000EB007093EC002093ED005093F000209167
:104B5000EE0027FF07C09F5FD3CF8F708093E900DF
:104B600081E0089580E0089520911B0330911C039B
:104B70002617370748F06115710539F42091E800D0
:104B80002E772093E80001C0B90140E0611571055E
:104B9000A9F120911303222309F443C0253009F41D
:104BA00042C02091E80023FD40C02091E80022FD92
:104BB00032C02091E80020FFE9CF4091F30020911E
:104BC000F20030E0342BFC01CF016115710559F082
:104BD0002830310540F481918093F10061507109D2
:104BE0002F5F3F4FF1CF41E02830310509F040E021
:104BF0002091E8002E772093E800C8CF4111C9CF5B
:104C00000AC080911303882361F0853061F08091A0
:104C1000E80083FD0AC08091E80082FFF2CF80E0C7
:104C2000089582E0089583E0089581E008958091D9
:104C30006B03811107C080911303843011F081E070
:104C4000089582E00895CF93DF93CDB7DEB72C9718
:104C50000FB6F894DEBF0FBECDBF84B7877F84BF89
:104C60000FB6F894A89580916000886180936000E9
:104C7000109260000FBE80E8809361001092610086
:104C800085B7806885BF85B7806885BF0E94D323BC
:104C90000E94F2238091E20084608093E200789485
:104CA000809113038823A1F01091E9001F70909167
:104CB000EC00892F817090FD80E8182B1092E9009C
:104CC0008091E80083FD0E94BA201F701093E900D4
:104CD00082E084BD93E095BD9AEF97BD80936E000E
:104CE0000E94811890E090931501809314010E9416
:104CF00044190E945319A3E2B3E0E7E3F3E09EE016
:104D0000D92EDE0E11921D92DE12FCCF84E590E0CA
:104D10000E94D430AC0190931E0380931D0320E0C9
:104D200030E08BEFFA01E20FF31F90E081939F5F79
:104D30009630E1F72A5F3F4F2435310599F70E94FD
:104D40003F1D811102C00E944A1D8CE090E00E942C
:104D5000152D90E0A0E0B0E080931F039093200316
:104D6000A0932103B093220389EA8093800089E015
:104D70008093810024982C983F988AB18F7C8AB9BF
:104D80006E98479A8BB180638BB9769A0E94EC1823
:104D90000E943F1D811102C00E944A1D82E090E0E6
:104DA0000E94152D80934F0384E090E00E94152D02
:104DB00090E0909332038093310383E090E00E946F
:104DC000152D682F70E080E090E00E94FE1F80911A
:104DD0003303811138C080914F03816080934F036A
:104DE0000E943F1D811104C00E944A1D0E940E16A0
:104DF00088E090E00E941D2D60936403709365032A
:104E000080936603909367036E7771F40E940E1689
:104E100088E090E00E941D2D609364037093650309
:104E200080936603909367030E946B1410926A0349
:104E30008091640380FF04C086958F730E94E11502
:104E400081E08093330386E191E090933503809372
:104E5000340383EFE82E88E0F82E80911303853029
:104E600009F047C080911303843021F1109236037A
:104E700020E488E190E00FB6F894A8958093600054
:104E80000FBE2093600083B7817F846083BF83B7A8
:104E9000816083BF7894889583B78E7F83BF0FB678
:104EA000F894A895809160008861809360001092CA
:104EB00060000FBE80911203882309F4CECF0E94B8
:104EC000811890E090931501809314010E94441979
:104ED0000E945319E7E3F3E01192DE12FDCF0E9426
:104EE0005A19E7E3F3E08191811178C1DE12FBCF1B
:104EF000B4CF0E945A19E0E5F3E0A7E3B3E000E085
:104F000010E0302F2D9141914227B9F180E090E0DF
:104F100050E0682F5A01082E02C0B594A7940A9455
:104F2000E2F7A0FE26C089833A8381E090E05C012D
:104F300002C0AA0CBB1C6A95E2F7822F90E08A217E
:104F40009B2121E0892B09F420E02B830E94911CF6
:104F50008160782F9D838C8349815A816B818D81FB
:104F60000E945413F801E05BFC4F8081A826A082C8
:104F70001AC001968630910561F60F5F1F4F0E3003
:104F8000110509F0BECF8FEF8E838F8318860E94A4
:104F9000911C8160782F9A8789874E815F8168850F
:104FA0008A850E94541380914C0390914D030E9476
:104FB000671C9C0190914B03992321F0243131050A
:104FC00008F46BC0809147031091480381110BC016
:104FD00011111AC120914903211116C120914A03D0
:104FE000211112C15AC09F3F19F09F5F90934B034C
:104FF000181624F40E94B91B80934703809147033D
:1050000087FF05C00E94B91B819580934703111645
:1050100024F40E94B91B809348038091480387FFC2
:1050200005C00E94B91B81958093480340914703B6
:10503000442379F030914803332359F025EB4203A0
:10504000A0011124509347033203C001112490930F
:10505000480380914903181624F40E94991B8093F9
:1050600049038091490387FF05C00E94991B8195E0
:105070008093490380914A03181624F40E94991BD7
:1050800080934A0380914A0387FF05C00E94991BC1
:10509000819580934A030E949D1C10914E030E94AB
:1050A0005614181721F00E94561480934E038091D5
:1050B0006A03882309F4D1CE80916903E0916403E7
:1050C000E695EF73E81BE0936003823049F4F0E06B
:1050D000EF5FF64FE4910E2F10E02BE632E148C06F
:1050E000863049F4F0E0E250F74FE4910E2F10E0E3
:1050F00024E532E13DC0893051F4E695F0E0E55019
:10510000F74FE4910E2F10E025E931E131C08F30E7
:1051100051F4E695F0E0E850F74FE4910E2F10E0DF
:1051200029E131E125C0853149F4F0E0EB50F74F3A
:10513000E4910E2F10E022EB30E11AC0883179F0B3
:10514000833231F4F7010591149125EF31E110C05C
:10515000843251F404EF11E02DE230E109C008EE91
:1051600013E029E730E104C000ED17E022EC3EE057
:10517000809161038823A9F0109261032B873C87FB
:105180000E94911CA80140955095840F951F909303
:105190005F0380935E0310926303109262033C8569
:1051A0002B8580915E0390915F032B873C870E9443
:1051B000671C2B853C858017910708F44ECEE09143
:1051C0005E03F0915F030E0F1F1F10935F030093A8
:1051D0005E038EE593E0F90109953FCE80E189BD3C
:1051E00082E189BD09B400FEFDCF8091D8008F7D9A
:1051F0008093D8008091E00082608093E0008091ED
:10520000E00081FDFCCF29CE9F3F09F0EECEF6CE27
:105210008091710282958F7009F054C080916E0266
:10522000882309F44FC08091A302A091720260917B
:105230006C0270916D0240916F0250917002B6E065
:105240008A1709F43FC090E041155105C1F17F3F35
:1052500011F46F3FA1F1B89FF001B99FF00D112437
:10526000ED58FD4F218172132AC02081621327C09F
:105270002281211124C0238134812417350710F4A1
:1052800021503109241B350B283C3105C0F42091F5
:1052900071022F7020612093710226E0289FF00197
:1052A000299FF00D1124E858FD4F80818F70806197
:1052B00080838CE692E00E94A2040C940820019660
:1052C0008770BECF08950E94361E292F2F709295A9
:1052D0009F70E92FF0E03297EE30F105B8F4EC540E
:1052E000FF4F0C94CE30803F99F018F4803E70F45C
:1052F0000FC0843F59F40CC0803E50F0813F31F420
:1053000007C0822F869586958695089580E008953A
:1053100081E00895BF92CF92DF92EF92FF920F93B8
:105320001F93CF93DF93CDB7DEB761970FB6F89495
:10533000DEBF0FBECDBF8C0185E0F801DE011D96FA
:1053400001900D928A95E1F7D8013C9111962C912C
:1053500011971296EC9012971396CD90DC901497BB
:1053600050916C0260916D0280916F029091700279
:10537000009709F44FC16F3F19F45F3F09F44AC128
:10538000B0906E02BB2009F4ECC040917102C816C7
:10539000D90628F0F601E81BF90BCF0104C080956F
:1053A00090958C0D9D1DFF24F394883C910548F049
:1053B000F12C407F09F09FC08CE692E00E94A2048D
:1053C00021C1842F807F09F044C0621312C053139F
:1053D00010C0E1100EC04F704061409371028CE626
:1053E00092E00E94A20480917102D80115968C93DC
:1053F0002EC0CD2819F12F3F11F43F3FF9F0FE2CBC
:10540000E1101CC08091A3024091720256E0841703
:1054100009F458C090E0589FF001599FF00D1124F5
:10542000ED58FD4F6181261306C06081361303C01D
:105430006281611103C001968770E9CFFE2CEE20D6
:1054400009F421C180917102816080937102F12C75
:105450001AC162130AC0531308C0E11006C080913C
:105460007102D80115968C93B0C03D872E878D852B
:105470009E850E9463298823D1F1EE20C1F12091FD
:105480007102822F82958F7090E0029774F0809164
:105490006C0290916D0298878F831986DB86CA868D
:1054A0002C87CE0107960E94A20486E0F801ACE6A4
:1054B000B2E001900D928A95E1F70E940829FF243D
:1054C000F394E1C03D872E878D859E850E94361E10
:1054D000292F22952F7030E0223031050CF0C7C003
:1054E0009F7009F0C1C0805E883008F4CCC0C8014C
:1054F0000E94A204E4CF621314C0531312C0E1103F
:1055000010C080917102F8018583C8010E94A20435
:1055100086E0ECE6F2E0DF011D928A95E9F7FB2CCC
:10552000B2C03D872E878D859E850E946329882382
:10553000F1F2EE20E1F220917102822F82958F70BC
:1055400090E002970CF4B1CF80916C0290916D02C3
:105550009A8389831B82DD82CC822E83CE010196C1
:10556000A2CFC816D90638F0C81AD90AB8ECCB169B
:10557000D10450F007C0809590958C0D9D1D883CFE
:10558000910510F0F12C3EC0FE2CEE2009F4AFCFB7
:10559000621327C0531325C02091710220FD18C04B
:1055A000822F82958F70482F50E04115510581F070
:1055B000F80125834F30510541F08F5F982F929568
:1055C000907F822F8F70892B8583C8010E94A2044F
:1055D00086E0F801ACE6B2E001900D928A95E1F721
:1055E00052C03D872E878D859E850E94632981113B
:1055F0005CCF80917102816080937102C8010E942A
:10560000A20441C0ECE6F2E086E0DF011D928A953B
:10561000E9F739C0EE2009F46ACF3D872E878D85E2
:105620009E850E946329F82E882309F460CF86E0C6
:10563000F801ACE6B2E001900D928A95E1F7809115
:105640006C0290916D020E94361E92959F7096306A
:1056500041F480916D0391E0892780936D039093CD
:105660006C030E9408290FC081113DCF0CC024306B
:1056700031050CF03CCF9F7009F435CFF8019581CE
:10568000907F09F030CF8F2D61960FB6F894DEBF72
:105690000FBECDBFDF91CF911F910F91FF90EF9083
:1056A000DF90CF90BF9008951092E2021092E10235
:1056B0000E94A91DE5E4F3E086E0DF011D928A95D2
:1056C000E9F710924B031092EC020E949D1C80E0BF
:1056D00090E00E94401480E090E00C942A148091A5
:1056E0001301882331F08091310387FF02C08EE1DE
:1056F00001C086E0EEE4F2E0DF011D928A95E9F751
:105700000C94542B882321F00E94A21D0C94A91DF7
:105710000895882339F09091EE02892B8093EE0250
:105720000C94A91D0895882309F45CC0823869F49B
:105730000E94561481FF56C069E38CE492E00E94F7
:10574000071D0E94A91D69E30EC0833891F40E94D1
:10575000561480FF47C063E58CE492E00E94071D69
:105760000E94A91D63E58CE492E00E94DC1C0C946D
:10577000A91D843869F40E94561482FF33C067E47F
:105780008CE492E00E94071D0E94A91D67E4EBCF04
:105790009CEF980F913A10F4682FE5CF90E2980FA4
:1057A000983050F4877091E001C0990F8A95EAF71C
:1057B000892F0E94A21DDBCF9BE5980F933020F428
:1057C00080E090E00C94401498E5980F973120F415
:1057D00080E090E00C942A14803F20F00E94141B7B
:1057E0000C949D1C0895CF93C82F0E94FB2B8C2FE7
:1057F000CF910C94932B882309F416C18238B1F40D
:105800000E94561481FD10C169E38CE492E00E946D
:10581000071D0E94A91D2FEF41EE54E0215040408A
:105820005040E1F700C0000069E317C08338D9F4A5
:105830000E94561480FDF8C063E58CE492E00E945B
:10584000071D0E94A91D8FEF91EE24E0815090402A
:105850002040E1F700C0000063E58CE492E00E9484
:10586000DC1C0C94A91D8438B1F40E94561482FDEE
:10587000DBC067E48CE492E00E94071D0E94A91D32
:105880004FEF51EE84E0415050408040E1F700C0BE
:10589000000067E4E2CF9CEF980F913A30F4682F54
:1058A0008CE492E00E94071DDCCF90E2980F9830C4
:1058B00080F4877021E030E0A90102C0440F551F39
:1058C0008A95E2F7CA019091EE02892B8093EE024D
:1058D000C8CF9BE5980F933070F4853A29F0863A4B
:1058E00031F083E890E005C081E890E002C082E8F2
:1058F00090E00C94401498E5980F973108F08EC012
:10590000883A09F445C0893A09F445C08A3A09F44D
:1059100045C08B3A09F445C08C3A09F445C08B3B2D
:1059200009F445C08C3B09F445C08D3A09F445C0E3
:10593000803B09F445C08E3A09F445C08F3A09F41A
:1059400045C0813B09F445C0823B09F445C0833B17
:1059500009F445C0843B09F445C0853B09F445C0C2
:10596000863B09F445C0873B09F445C0883B09F4F0
:1059700045C0893B09F445C08D3B09F445C08E3BC9
:1059800009F445C08A3B09F445C080E090E044C07A
:1059900082EE90E041C089EE90E03EC08AEE90E059
:1059A0003BC085EB90E038C086EB90E035C083EBE0
:1059B00090E032C084EB90E02FC087EB90E02CC0E9
:1059C0008CEC90E029C08DEC90E026C083E891E05B
:1059D00023C08AE891E020C082E991E01DC084E9FB
:1059E00091E01AC081E292E017C083E292E014C015
:1059F00084E292E011C085E292E00EC086E292E07D
:105A00000BC087E292E008C08FE690E005C080E717
:105A100090E002C08AE292E00C942A14803F20F0C9
:105A20000E94D91B0C949D1C0895F999FECF92BD3C
:105A300081BDF89A992780B50895A6E1B0E044E0C9
:105A400050E00C944F2DA8E1B0E042E050E00C94FF
:105A50004F2D262FF999FECF92BD81BDF89A01975F
:105A600000B4021639F01FBA20BD0FB6F894FA9AA6
:105A7000F99A0FBE08950396272F0E942A2D0E949F
:105A8000292D252F0E942A2D242F0C942A2D019692
:105A9000272F0E942A2D0C94292DDC01CB01FC011B
:105AA000F999FECF06C0F2BDE1BDF89A319600B477
:105AB0000D9241505040B8F708955058BB27AA277F
:105AC0000E94752D0C94202F0E94122F38F00E94F6
:105AD000192F20F039F49F3F19F426F40C94E82E86
