:100000000C9482040C949F040C949F040C949F0401
:100010000C949F040C949F040C949F040C949F04D4
:100020000C949F040C949F040C945D230C949922CF
:100030000C94972A0C949F040C949F040C949F0496
:100040000C949F040C949F040C949F040C949F04A4
:100050000C949F040C94252A0C949F040C949F04E8
:100060000C949F040C949F040C949F040C949F0484
:100070000C949F040C949F040C949F040C949F0474
:100080000C949F040C949F040C949F040C949F0464
:100090000C949F040C949F040C949F040C949F0454
:1000A0000C949F040C949F040C949F04D2050405A7
:1000B00010053505430551055D056B057905870577
:1000C00095055F0761076C076307650767076907A1
:1000D0006B076E07700772077D077407760778074E
:1000E0007A077C077F072E0B2E0B680B680BC70B5C
:1000F000E50BDA0D330E270C330E240D240D310DD4
:10010000310D310D310D310D310D310D310D310DFF
:10011000310D310D310D310D310D310D310D3E0DE2
:10012000650D6C0D730D8A0DDB12DE12E112E41207
:10013000E712EA12ED12F71AF71A0A1B0A1B001B44
:100140000A1B0A1B0A1BF71AF71A051B0A1B0A1BB4
:10015000051BC61BC91BCC1BCF1BD41BD91BDE1B0D
:10016000EE1B1B1C261C311C311C3C1C471CAA20EE
:10017000D1207122D120712219213C2171223A22F1
:100180004D2207634236B79BD8A71A39685618AE76
:10019000BAAB558C1D3CB7CC5763BD6DEDFD753EBC
:1001A000F6177231BF000000803F05A84CCDB2D4D5
:1001B0004EB93836A9020C50B9918688083CA6AAD7
:1001C000AA2ABE000000803F01002B042974394494
:1001D000646F00000100140004001D61E10106537A
:1001E00001001A0016001B00E20003541801080069
:1001F00007620600E30003540701150009611900B6
:1002000001540100010017000A0005000000045815
:1002100001000100000043000000010001003D0456
:10022000000042000000010001001C000B00110052
:1002300000000458080118000D711000025401005C
:100240001C010C000E723600E7002C0001001200A9
:100250000F003700E2002C00010013002A00387163
:10026000E511065101004C0533024744326F00008E
:100270000100010001000100010000000100440034
:100280001E023402E0000100010045001F02350299
:1002900001004C020100680020022D0201004C0206
:1002A0000100690021022E020100010001006A0024
:1002B0002202000000000100010001000000010016
:1002C0000000010001000100000001000000010029
:1002D00001006B00240200000000010001006C001E
:1002E000230233026500010001006D002502360281
:1002F00001004C0201006E002602370201004C0290
:1003000001006F0027023102E4000100010001003A
:1003100001000100010000000100010001000100D6
:100320000100000001003A001E00346101000100DC
:1003300001003B001F00350001004C0001003C00A3
:1003400020622D0001004C0001003D0021612E00C3
:100350006500010001003E002200000000000100D5
:100360000100010000000100000001000100010087
:10037000000001000000010001003F002300000018
:100380000000010001004000247133000100010061
:10039000010041002562010001004C000100420003
:1003A0002600010001004C000100430027003171CC
:1003B0000100010001000100010001000100000036
:1003C0000100010001000100010000000100000027
:1003D000E000E0000100010001000000E100E10098
:1003E0000100010001000000E3004A0001000100DB
:1003F0000100000049644D0001000100010015509A
:1004000000000000000001000100010000000100E8
:1004100000000100010001000000010000000100D7
:1004200001000000000000000000010001000000C9
:1004300050004E00010001000100520051004B002D
:1004400001002B00010000004F00280201002B00DA
:10045000010028032800280101000100010001001B
:100460000100010001000000010001000100010085
:100470000100000001004604F500460001000100F3
:100480000100F500F200F900010001000100F00098
:10049000F100F600010001000100A800F300FA00DD
:1004A000A60001000100A900AA00F400000001005C
:1004B0000100010000000100000001000100010036
:1004C00000000100000001000100A900AA00F400E2
:1004D000000001000100A800F200FA00A7000100DE
:1004E0000100F000F100F600010001000100F5003C
:1004F000F300F900010001000100160AF5004600B2
:1005000001000100010001000100010001000000E4
:1005100029002B00E100E000105000001E00140034
:1005200004001D00E20001001F001A0016001B005D
:100530003D002C0020000800070006003D002C00B4
:1005400021001500090019001050010022001700B9
:100550000A0005000000010023002B0000002B0012
:100560000000010034002B0000002B0000000100FF
:1005700023001C000B0011000000010024001800E3
:100580000D0010001050010025000C000E00360078
:1005900031000100260012000F0037005000E30078
:1005A00027001300330052005100010010502A00B0
:1005B000280038004F000000105001000100010029
:1005C000010000000100F15CF65C01000100010087
:1005D0000100F25CF75C0100010001000100F35C26
:1005E000F85C0100010001000100F45CF95C01000D
:1005F000010001000100F55CFA5C0100000001004F
:1006000001000100000001000000010001000100E4
:1006100000000100000001000100010001000100D4
:10062000000001000100C55CC25CC95C0100010062
:100630000100C65CC35CCA5C01000100010001004E
:10064000F05C010001000100010001000100010057
:100650000100010010500100010001000100000034
:10066000000000000001010101010101010102027D
:100670000202020202020203030303030303030450
:100680000404040404050505050506060606060718
:10069000070707080808080909090A0A0A0A0B0BCC
:1006A0000B0C0C0C0D0D0D0E0E0F0F0F1010111169
:1006B00011121213131414151516161717181819EA
:1006C000191A1A1B1C1C1D1D1E1F1F20202122224F
:1006D0002324252526272728292A2B2B2C2D2E2F8E
:1006E0002F30313233343536363738393A3B3C3DAA
:1006F0003E3F4041424344464748494A4B4C4D4F98
:1007000050515253555657585A5B5C5E5F60626356
:10071000646667696A6C6D6E707173747678797BE4
:100720007C7E8081838486888A8B8D8F919294963B
:10073000989A9B9D9FA1A3A5A7A9ABADAFB1B3B557
:10074000B7B9BBBDBFC1C4C6C8CACCCFD1D3D6D838
:10075000DADCDFE1E4E6E8EBEDF0F2F5F7FAFCFFD6
:100760006801F000B40078005A0005010902A101F7
:1007700085020901A10005091901290515002501B6
:100780009505750181029501750381010501093007
:1007900009311581257F9502750881060938158173
:1007A000257F950175088106050C0A3802158125FB
:1007B0007F950175088106C0C005010980A10185EA
:1007C000031601002603001A81002A830075109584
:1007D000018100C0050C0901A10185041601002654
:1007E0009C021A01002A9C02751095018100C00527
:1007F000010906A1018505050719E029E71500256E
:1008000001950875018102050819012905950575ED
:100810000191029501750391010507190029EF1552
:1008200000250195F075018102C005010906A101AD
:10083000050719E029E715002501950875018102D2
:1008400095017508810105081901290595057501AE
:1008500091029501750391010507190029FF150003
:1008600026FF00950675088100C009023B000201C1
:1008700000A0FA090400000103010100092111018F
:1008800000012240000705810308000A0904010055
:10089000010300000009211101000122C000070529
:1008A000820320000A1201100100000008EDFE077B
:1008B0001301000102030104033000000016034588
:1008C00000720067006F0044006F00780020004550
:1008D000005A00000016034500720067006F0044D4
:1008E000006F007800200045005A00000004030952
:1008F0000400047F3F1F643214643214783C1E1ECF
:10090000140A050011241FBECFEFDAE0DEBFCDBF11
:1009100011E0A0E0B1E0EAEEF4E602C005900D922D
:10092000AE3EB107D9F723E0AEEEB1E001C01D92B3
:10093000A637B207E1F70E942D250C9473320C9470
:1009400000004F925F926F927F928F929F92AF9230
:10095000BF92CF92DF92EF92FF920F931F93CF93AC
:10096000DF93CDB7DEB727970FB6F894DEBF0FBE83
:10097000CDBFFC01F080118183819481892B11F41A
:100980000C94A10E1F3F31F444244A94F41411F442
:100990000C94A10E6F0185E0DE01119601900D927D
:1009A0008A95E1F7D60112962C9189819A812223AA
:1009B00049F00E949B1A082F682F89819A810E9412
:1009C0003B1B03C00E940E1B082FB6E01B9FF001CB
:1009D000112414E5019FE00DF11D1124EF0DF11D0F
:1009E000EE0FFF1FE853FE4F05911491F801E05FF1
:1009F000FC45D60112968C91EB30F10508F0A3C0AE
:100A0000EA5AFF4F0C943331882311F40C94A10E51
:100A10000E94191681E00E9416164DEC60E03EC05F
:100A2000882311F40C94A10E0E94191681E00E94F3
:100A300016164BEB6CE58DE290E027960FB6F89416
:100A4000DEBF0FBECDBFDF91CF911F910F91FF9001
:100A5000EF90DF90CF90BF90AF909F908F907F905E
:100A60006F905F904F900C94A015882311F40C9414
:100A7000A10E0E94191681E00E9416164FEF6FEF2B
:100A800086E290E0DACF882311F40C94A10E0E9444
:100A9000191681E00E9416164FEF6FEF80E090E08C
:100AA000CCCF882311F40C94A10E0E94191681E07A
:100AB0000E94161649E867ECF1CF882311F40C94D4
:100AC000A10E0E94191681E00E9416164FEF6FEFDB
:100AD00084E291E0B2CF882311F40C94A10E0E941D
:100AE000191681E00E94161640E86FEF8CE291E043
:100AF000A4CF882311F40C94A10E0E94191681E052
:100B00000E9416164DEB6FEF88E790E096CF882392
:100B100011F40C94A10E0E94191681E00E94161681
:100B20004FEF6DED88EB90E088CF882311F40C94A3
:100B3000A10E0E94191681E00E9416164FEF6FEF6A
:100B400080EF90E07ACF882399F1033EBCE51B0744
:100B500009F483C008F077C0013EFCE51F0709F0E7
:100B60006CC01092F4020E9447160C3CBCE51B07B7
:100B700009F4EEC008F422C1043DECE51E0709F4B7
:100B8000B9C308F012C4003D2CE5120709F4C0C334
:100B900008F0DDC30E3C8CE5180749F108F0CAC324
:100BA000F6018281882311F40C94A10E81E02DC0FE
:100BB000013020E81207C8F20C3CFCE51F0709F4DD
:100BC000C7C008F428C2043D2CE5120709F492C3FB
:100BD00010F00C94800E003D8CE5180709F498C3C2
:100BE00008F0D7C30E3CACE51A0709F09FC3D60145
:100BF00012968C91882311F40C94A10E0E948B14F0
:100C00008250833008F419C182E027960FB6F89419
:100C1000DEBF0FBECDBFDF91CF911F910F91FF902F
:100C2000EF90DF90CF90BF90AF909F908F907F908C
:100C30006F905F904F900C941616023E2CE51207B1
:100C400091F481E00DC0043E3CE5130741F0053E00
:100C50008CE5180741F484E003C082E001C083E022
:100C60008093F40280CF013090E8190708F47DCF1B
:100C70007801E894F7F88091C3028093EE01109216
:100C8000C3028091F402813071F048F08230D9F0D3
:100C90008430F9F486EE0E94141F88E118C082EEB9
:100CA0000E94602C16C080EE0E94602C81EE0E9493
:100CB000602C88E10E94141F81EE0E94002C80EEBF
:100CC0000E94002C06C082EE0E94602C87E50E94E4
:100CD000141FAFE3BCE91197F1F700C000009CE0DE
:100CE000A92EB12CC7010A2C02C0969587950A94AB
:100CF000E2F7282F2F7041F0822F90E02A3010F475
:100D00004D9604C0069702C087E290E00E94141F2F
:100D1000B4E0AB1AB108ECEFAE16EFEFBE0611F778
:100D20008091F402813039F040F0823031F084302B
:100D300051F488E206C08CE204C082EE0E94002CCE
:100D400002C00E94141F8091EE018093C3020DCF58
:100D5000D60112968C91882311F40C94A10E8091E7
:100D60003D0390E0019797FF02C080E090E084305F
:100D7000910514F083E090E080933D036091390386
:100D800070913A0380913B0390913C0327960FB6F4
:100D9000F894DEBF0FBECDBFDF91CF911F910F91B1
:100DA000FF90EF90DF90CF90BF90AF909F908F908B
:100DB0007F906F905F904F900C94CA14043CFCE5B8
:100DC0001F0711F5D60112968C91882309F4B9C733
:100DD0008091C302827289F527960FB6F894DEBF20
:100DE0000FBECDBFDF91CF911F910F91FF90EF907C
:100DF000DF90CF90BF90AF909F908F907F906F903B
:100E00005F904F900C942216053C2CE5120708F0D9
:100E10008FC105313CE5130740F1023CBCE51B07DF
:100E200009F409C108F4EDC0F6018281882309F4B0
:100E300088C78091C302827279F627960FB6F8941C
:100E4000DEBF0FBECDBFDF91CF911F910F91FF90FD
:100E5000EF90DF90CF90BF90AF909F908F907F905A
:100E60006F905F904F900C942C1602308CE5180711
:100E700008F46EC0D60112968C91882309F4A6C39B
:100E80000E94232B811102C00E942E2B84E090E04F
:100E90000E947A2D90E09093070380930603F80157
:100EA000E350FC45E231F10530F4EF59FF4F8091FA
:100EB00006030C94333180910603816027C0826061
:100EC00025C0846023C0806121C080621FC080640F
:100ED0001DC080681BC08460886018C08E7F16C0EB
:100EE0008D7F14C08B7F12C08F7E10C08F7D0EC08F
:100EF0008F7B0CC08F770AC08B7F877F07C087FBF3
:100F0000222720F991E0922790FB87F9809306032E
:100F10006091060384E090E00E948E2D1092C3023F
:100F200027960FB6F894DEBF0FBECDBFDF91CF91ED
:100F30001F910F91FF90EF90DF90CF90BF90AF90F7
:100F40009F908F907F906F905F904F900C94F01EC9
:100F500001159CE5190709F045C0D60112968C9140
:100F6000882309F4EEC61092C3020E94F01EBFEF60
:100F7000E4E3FCE0B150E040F040E1F700C00000E5
:100F8000F89481E08093E00080E28093D800109292
:100F9000C9008FE19EE40197F1F700C000001DBA7F
:100FA000109268001CBC10BE1FBA10927A001092FA
:100FB0006E0010926F0010927100109272001092E9
:100FC000C9001092BC0014B817B81AB81DB810BAEE
:100FD0001092BC0015B818B81BB81EB811BA0C9402
:100FE000003FAFC601301C4581F4D60112968C91AA
:100FF000882309F4A6C6809124038160809324038A
:10100000A0C606311C4509F459C081E08093F40163
:101010008093F501DBC2043C3CE5130709F4D2CE12
:1010200008F0DAC005319CE5190708F45BC6023CFC
:10103000FCE51F07D1F5D60112968C91882309F49F
:1010400080C68091390380FF18C027960FB6F894A8
:10105000DEBF0FBECDBFDF91CF911F910F91FF90EB
:10106000EF90DF90CF90BF90AF909F908F907F9048
:101070006F905F904F900C94A31527960FB6F8943D
:10108000DEBF0FBECDBFDF91CF911F910F91FF90BB
:10109000EF90DF90CF90BF90AF909F908F907F9018
:1010A0006F905F904F900C941916033C2CE512073B
:1010B00008F0BACE06311C4509F0A7CF9091C302C3
:1010C000D60112968C91882381F09A7A81E009F4F6
:1010D00080E08093EF01811102C069E201C065E305
:1010E00081E493E00E94EB2A0BC08091EF01811113
:1010F00002C069E201C065E381E493E00E94C02A76
:1011000027960FB6F894DEBF0FBECDBFDF91CF910B
:101110001F910F91FF90EF90DF90CF90BF90AF9015
:101120009F908F907F906F905F904F900C94922B38
:10113000083C2CE51207B9F4D60112968C9188234D
:1011400009F4FFC580913903881F8827881F909173
:101150003A03392F330F97FB992790F921E04091FB
:101160003C0360E020C0093C3CE5130708F07DC06B
:10117000063C8CE51807D9F108F462C0F6018281BB
:10118000882309F4DEC580913903881F8827881FCA
:1011900090913A03392F330F97FB992790F921E06B
:1011A00040913C036FEF832B27960FB6F894DEBF78
:1011B0000FBECDBFDF91CF911F910F91FF90EF90A8
:1011C000DF90CF90BF90AF909F908F907F906F9067
:1011D0005F904F900C94E614083C8CE5180709F4D6
:1011E000ABCF08F078C0063CACE51A0729F5D6016C
:1011F00012968C91882309F4A4C520913903221FEB
:101200002227221F30913A03432F440F842F822B31
:1012100037FB992790F98C3091051CF4845A9E4F26
:1012200001C00C9768E671E00E941F3121E04091F7
:101230003C0360913B03B8CF073C1C4508F09ECFB0
:10124000F6018281882309F47CC520913903221F8D
:101250002227221F30913A03432F440F842F822BE1
:1012600037FB992790F90C96DDCF0A3CACE51A07BD
:10127000F9F4D60112968C91882309F462C5409145
:101280003C03842F90E00C9714F04C5001C040E0D8
:1012900080913903881F8827881F90913A03392F3E
:1012A000330F97FB992790F921E060913B037BCFA7
:1012B0000B3C1C45A8F4F6018281882309F441C542
:1012C00040913C03842F90E0843F910514F4445FE7
:1012D000DFCF4FEFDDCF0A3CECE51E0751F258F3AC
:1012E000F6018281882309F42CC580913D0390E0AA
:1012F00001963DCDD60112968C91882309F421C523
:101300000E948B148951893008F497CD89E17DCCF6
:10131000D60112968C91882309F413C50E948B1470
:101320008950853008F489CD89E06FCC0F3C1C458D
:1013300008F436CCF6018281882309F402C50E94A4
:101340008B148650823008F478CD86E05ECC023D66
:10135000ACE51A0771F4D60112968C91882309F432
:10136000F0C40E948B148551823008F466CD85E16B
:101370004CCC033D1C4590F4F6018281882309F48E
:10138000E0C40E948B148F50853008F456CD8FE056
:101390003CCC023DECE51E07F1F270F3F6018281D0
:1013A000882309F4CEC488E130CC093DECE51E0762
:1013B00009F06AC0F6018281882309F11092F501D3
:1013C0000E94752A9093F3018093F20180E22796A0
:1013D0000FB6F894DEBF0FBECDBFDF91CF911F9146
:1013E0000F91FF90EF90DF90CF90BF90AF909F90C4
:1013F0008F907F906F905F904F900C940A1F809118
:10140000F5018823C9F080E227960FB6F894DEBF75
:101410000FBECDBFDF91CF911F910F91FF90EF9045
:10142000DF90CF90BF90AF909F908F907F906F9004
:101430005F904F900C94031F8091F2019091F30103
:101440000E944B2A8A3F9105F0F680E20E94031F1A
:1014500088E20E94602C88E227960FB6F894DEBFDF
:101460000FBECDBFDF91CF911F910F91FF90EF90F5
:10147000DF90CF90BF90AF909F908F907F906F90B4
:101480005F904F900C94002C0A3DFCE51F0708F07C
:1014900062C0073D2CE5120761F5F60182818823C1
:1014A00051F01092F4010E94752A9093F1018093FB
:1014B000F00182E08CCF8091C30285FF05C081E0FE
:1014C0008093F4018093F5018091F40181110FC0A4
:1014D0008091F0019091F1010E944B2A8A3F910581
:1014E00030F486E20E94602C86E20E94002C82E0AA
:1014F0008BCF083D3CE5130718F1D60112968C916D
:1015000081115CCF8091C30281FF05C081E080938F
:10151000F4018093F5018091F501811174CF8091E0
:10152000F2019091F3010E944B2A8A3F910508F045
:101530006ACF87E20E94602C87E20E94002C63CF72
:10154000053D1C4509F061CDF6018281882309F42F
:10155000F8C383E25ACB0D3D9CE5190749F4F60127
:101560008281882309F4EDC382E080934003E9C3BC
:101570000E3DACE51A07E9F4F6018281882309F4EF
:10158000E0C327960FB6F894DEBF0FBECDBFDF9144
:10159000CF911F910F91FF90EF90DF90CF90BF9070
:1015A000AF909F908F907F906F905F904F900C9432
:1015B0002E2B0C3D1C4509F028CDD60112968C919E
:1015C000882309F4BEC310924003BBC3F601828195
:1015D00000811181882349F0C8010E949B1AF82ECE
:1015E000682FC8010E943B1B04C0C8010E940E1B4B
:1015F000F82EB8018F2D0E944D168C01282FF60170
:10160000958192959F70F280F11010926503809100
:101610006303877099F0FF2089F080E2800F8830A3
:1016200068F082E02F839E830E94E72B8091630302
:101630008770EE24E3942F819E818111E12CA12EED
:10164000A2948FE0A822B12CFCE0AF16B10408F000
:101650000AC3F501ED58FF4F0C943331812F807F81
:101660001F70882311F01295107FFF20B9F011230D
:1016700009F48AC280E2800F883010F0211106C080
:101680009091C302192B1093C30205C0909165037A
:10169000192B109365030E94922B76C2802F2F8303
:1016A0000E94002C2F81112309F4DDC2005E083056
:1016B00010F0211104C0812F0E948B2B06C01095C1
:1016C000909165031923109365030E94922BCBC25E
:1016D000312F307F812F8F70303211F08295807FD3
:1016E000222321F0213009F441C049C0FF2039F103
:1016F0009923F9F0913081F490916803182F192BF8
:10170000911709F4B0C20E94752A909367038093E1
:10171000660310936803A7C2923059F48E830E9427
:10172000802B9091C1028E81891731F08093C10284
:1017300003C090916803892B0E940A1F94C29923C9
:1017400099F0913071F49091C302982309F48BC2FF
:101750008E830E94951A0E94802B8E810E94031F07
:1017600082C2923009F47FC28E83F5CFFF2021F030
:10177000923008F078C2E0CF911175C2EFCFFF2010
:1017800019F09923C9F200C2992341F30FC2812FA6
:1017900086958695837090E0009719F0019759F02F
:1017A00062C2FF2019F0C801937002C080E090E08F
:1017B0000E94691466C2FF2019F0C801937002C02C
:1017C00080E090E00E9453145CC2FF20F9F0053FD6
:1017D00051F0063F71F0043FA9F48091F601909119
:1017E000F70181600BC08091F6019091F701826052
:1017F00005C08091F6019091F70184609093F70104
:101800008093F601802F0E94BD291EC0053F51F034
:10181000063F71F0043FA9F48091F6019091F70121
:101820008E7F0BC08091F6019091F7018D7F05C0EE
:101830008091F6019091F7018B7F9093F70180934F
:10184000F601802F0E94F8280E94812A1AC2812F57
:10185000837009F079C0F11012C2802F82958695AD
:101860008770880F880F402F4F7050E060E070E065
:101870004A015B01082E04C0880C991CAA1CBB1CE1
:101880000A94D2F704FF14C04FE050E060E070E02B
:101890002A013B0104C0440C551C661C771C8A9528
:1018A000D2F7B301A201409550956095709503C0A1
:1018B00040E050E0BA01169516951370812F90E024
:1018C0000091690310916A0320916B0330916C03BE
:1018D00082309105A9F083309105E9F0019759F024
:1018E000482959296A297B29CB01BA016023712330
:1018F0008223932326C0802A912AA22AB32A1BC0BE
:10190000482959296A297B29CB01BA016027712707
:101910008227932716C0CB01BA016023712382234B
:1019200093230E94B71C4091690350916A03609110
:101930006B0370916C03CB01BA01682979298A295C
:101940009B290E94B71C9BC1FF2019F0812F817039
:1019500001C08695882309F492C1802F82958695CF
:101960008770880F880F402F4F7050E060E070E064
:101970004A015B01082E04C0880C991CAA1CBB1CE0
:101980000A94D2F704FF14C04FE050E060E070E02A
:101990002A013B0104C0440C551C661C771C8A9527
:1019A000D2F7B301A201409550956095709503C0A0
:1019B00040E050E0BA01169516951370812F90E023
:1019C0000091BD021091BE022091BF023091C00271
:1019D00082309105A9F083309105E9F0019759F023
:1019E000482959296A297B29CB01BA01602371232F
:1019F0008223932326C0802A912AA22AB32A1BC0BD
:101A0000482959296A297B29CB01BA016027712706
:101A10008227932716C0CB01BA016023712382234A
:101A200093230E946B1B4091BD025091BE026091B6
:101A3000BF027091C002CB01BA01682979298A29B5
:101A40009B290E946B1B1BC1402F50E0FA01E05EF6
:101A5000F109E531F10508F092C0E158FF4F0C940F
:101A600033310F70812F8F71FF2021F00E94861C6F
:101A7000802F62CE0E94611C802F70CEFF2009F162
:101A80009111F1C01F7181E090E0A0E0B0E0AC01E5
:101A9000BD0104C0440F551F661F771F1A95D2F76A
:101AA0008091BD029091BE02A091BF02B091C00290
:101AB0008A019B01082719272A273B27C901B8015A
:101AC00026C0923008F0CFC0DDCFFF2039F0812F43
:101AD0008F710E94861CC7C0FF20C9F3812F8F71B0
:101AE0000E94611CC0C0FF2079F01F7181E090E06E
:101AF000A0E0B0E0BC01CD0104C0660F771F881FD5
:101B0000991F1A95D2F703C060E070E0CB010E94E4
:101B10006B1BA9C0FF20E1F08091C1029E830E944F
:101B20008B2B8091630387709E81843039F40E94EF
:101B3000E02B812F8F710E94611CD2C0923008F07F
:101B4000CFC01F71812F0E94861C63E0812F10C0BF
:101B50002091C3028091C102822B8093C3029230F4
:101B600050F00E94E02B0E94951A64E0812F8F7143
:101B70000E94A71CB5C081E00E94E72BB1C0FF20E6
:101B800039F0992309F4A3CF802F0E94602C6BC0F9
:101B9000992309F4A3CF093349F41FEF27EE33E06B
:101BA000115020403040E1F700C00000802F0E941B
:101BB000002C59C0223FB1F028F4203F49F0213FCA
:101BC000F9F028C0243FB9F058F0253F71F022C049
:101BD000FF2009F456C090914D0281E0892708C08A
:101BE00081E0F826F0924D024CC0F1104AC081E02D
:101BF00080934D0246C0F11044C010924D0241C086
:101C0000FF2029F080914C02882329F329C09923D1
:101C100011F337C080914C029923C1F0882341F021
:101C200090914D0281E0892780934D0210924C02E1
:101C3000802FFF2019F00E94602C23C00E94002CEE
:101C400086E0D6011D928A95E9F71BC08823C9F06A
:101C5000F11017C090914D0281E0892780934D02C9
:101C600010924C020EC0B8E0AB16B10441F04CF03B
:101C7000FAE0AF1AB10802E0A016B10410F40E9415
:101C80007F14EE2009F45DC08091630380FD59C08C
:101C9000D60112961C928595859585950E94861C85
:101CA000C6010E94A1048091630385958595859561
:101CB00027960FB6F894DEBF0FBECDBFDF91CF9150
:101CC0001F910F91FF90EF90DF90CF90BF90AF905A
:101CD0009F908F907F906F905F904F900C94611CBD
:101CE000E12CCDCF0230ACE51A0708F0C3C80115CE
:101CF000BCE51B0731F101301C4509F476C985C9E3
:101D0000093D2CE5120709F455CB60F4073D8CE53D
:101D1000180709F4C2CB08F0F0CB053D1C4509F4C7
:101D200013CC73C90D3DBCE51B0709F418CC0E3D5F
:101D3000ECE51E0709F420CC0C3D1C4509F065C9F3
:101D40003CCC27960FB6F894DEBF0FBECDBFDF9117
:101D5000CF911F910F91FF90EF90DF90CF90BF90A8
:101D6000AF909F908F907F906F905F904F9008956D
:101D70000895EF92FF920F931F93CF93DF93E901A2
:101D8000662309F44BC0242F30E0EFEFF0E0E61BB0
:101D9000F109B901E69F9001E79F300DF69F300DE4
:101DA0001124232F8B01031B11095CE3E52EF12C79
:101DB000B7010E940B31FB01BC01069FC001079FC8
:101DC000900D169F900D1124B7010E940B31E23047
:101DD000F105B1F040F4309779F0319711F5832F88
:101DE000242F461B21C0E430F105A1F068F035979F
:101DF000C1F4842F861B18C0832F262F230F14C0F5
:101E0000862F830FE42F03C0E42FE61B842F432F7C
:101E10002E2F0AC0842F462F430F06C0842F242F55
:101E200003C080E020E040E0E42FF0E0E05AF94F0A
:101E30004491E22FF0E0E05AF94F9491E82FF0E05E
:101E4000E05AF94FE49149839883EA83DF91CF9177
:101E50001F910F91FF90EF9008959091060392FFCC
:101E60000DC0282F2871283019F4877F846006C0A0
:101E7000282F2471243011F48B7F886093FF0DC0CC
:101E8000282F2871283119F4877E846106C0282FF5
:101E90002471243111F48B7E886194FD877E08952E
:101EA000882319F05198599A02C0519A599850981C
:101EB000589A95E09A95F1F70000509A589895E055
:101EC0009A95F1F70000882311F0519A599885E00E
:101ED0008A95F1F700000895CF93DF93D82FC8E0DB
:101EE0008D2F80780E94500FDD0FC150C9F780E020
:101EF0000E94500F85E08A95F1F7000085E08A95F1
:101F0000F1F7000080E0DF91CF910895AF92BF928A
:101F1000CF92DF92EF92FF920F931F93CF93DF93B5
:101F20001F92CDB7DEB7F82E8B01CFB6D090BC0094
:101F3000F8942091BC002B7F2093BC002BB12C7F08
:101F40002BB95098589A5198599A85E08A95F1F78B
:101F500000002AB12C7F2AB9E5E0EA95F1F70000EC
:101F6000519A5998F5E0FA95F1F70000509A58986F
:101F700085E08A95F1F7000084E899830E946C0F50
:101F8000AF2C9981B92E000F111F000F111F0A0DE0
:101F90001B1D7501E016F10631F0F70181917F01FB
:101FA0000E946C0FF7CF5098589AF5E0FA95F1F728
:101FB00000005198599A85E08A95F1F70000CFBE4C
:101FC000D092BC00579A8BB18F779BB190682FB796
:101FD000F894A016B10699F0F50131915F0148E03F
:101FE0009BB9000000C037FF8BB9330F000000C061
:101FF00000C000C08BB900C04A9591F7EACF2FBF4F
:102000000F90DF91CF911F910F91FF90EF90DF9094
:10201000CF90BF90AF9008958091390380FF06C0A4
:102020006FE070E08EEF91E00C94860F80E090E01E
:10203000FC01E250FE4F11821082128204968C3312
:102040009105B1F7EDCFEF92FF920F931F93CF93CE
:10205000DF937C01CEEFD1E000E010E0F701848156
:102060003091390390913A03073011051CF488230D
:1020700081F002C081110DC0832F881F8827881F1F
:10208000592F550F97FB992790F99E0140913C03DA
:102090000BC0832F881F8827881F592F550F97FB48
:1020A000992790F99E0140E060913B03852B0E94A7
:1020B000B90E0F5F1F4F24960F30110579F60E945D
:1020C0000C10F701848190E0019681709927848338
:1020D000DF91CF911F910F91FF90EF900895EF92B4
:1020E000FF920F931F93CF93DF93EC012C813D81DF
:1020F0002F5F3F4F217033273D832C838EEFE82ED7
:1021000081E0F82E10E008E7812F8695EC81FD81B3
:10211000E80FF11DCF0181709927970140913C0391
:1021200060913B03FC010E9FC0010F9F900D112495
:102130000E94B90E1F5FF4E0EF0EF11C1F3021F773
:10214000DF91CF911F910F91FF90EF900C940C10A5
:102150000F931F93CF93DF9380E090E0FC01E25058
:10216000FE4F11821082128204968C339105B1F7D2
:10217000C0E0D0E00FE010E0CE01B8010E941F31B6
:10218000FC018091FC01082E000C990BEE0FFF1F43
:10219000EE0FFF1FC817D907FCF080911201082E1F
:1021A000000C990B8C179D07BCF09F0122503E4FED
:1021B00080913903881F8827881F90913A03592FEF
:1021C000550F97FB992790F940913C0360913B0391
:1021D000852B0E94B90E05C0E250FE4F118210827D
:1021E00012822196CF30D10539F60E940C108091D1
:1021F00011019091FC01980F9093FC012091120124
:10220000280F20931201121614F49E301CF08195B1
:1022100080931101DF91CF911F910F910895AF929B
:10222000BF92CF92DF92EF92FF920F931F93CF93C3
:10223000DF93FC01828180FF03C0BB24BA9402C0FB
:10224000BB24B3942EEFE22E21E0F22E00E012E048
:10225000C0E0D0E0F80131971082F7011082F80158
:10226000108294E0C92ED12CA12C8091FB018A0D03
:1022700087FD815F082E000C990BC817D907E9F478
:1022800080913C038C9DA0018D9D500D112455958E
:1022900047955595479580913903881F8827881F52
:1022A00090913A03592F550F97FB992790F9970171
:1022B00060913B03852B0E94B90EAB0CF1E0CF1A65
:1022C000D10899F6219684E0E80EF11C0C5F1F4FAF
:1022D000CF30D10509F0BECF0E940C108091FB01D8
:1022E00091E0B91206C0811102C08EE007C0815092
:1022F00005C090E00196BE010E941F318093FB0152
:10230000DF91CF911F910F91FF90EF90DF90CF90D1
:10231000BF90AF900895CF92DF92EF92FF920F930C
:102320001F93CF93DF93EC018EEFE82E81E0F82E20
:1023300000E010E098E6C92EDD24D3948C819D81C5
:10234000800F911FB6010E941F31970140913C03FD
:1023500060913B030E94B90E085E1F4F84E0E80EB7
:10236000F11C083681E0180749F70E940C108A8199
:102370002C813D8180FF06C0C9010196B8010E94F1
:102380001F3105C0121613062CF087E691E09D83DD
:102390008C8304C0215031093D832C83DF91CF9180
:1023A0001F910F91FF90EF90DF90CF900895909143
:1023B000390390FF0FC020E030E0F901E250FE4FFA
:1023C0008183608342832C5F3F4F2C333105A9F713
:1023D0000C940C1008950F931F93CF93DF9300D0AC
:1023E00000D0CDB7DEB78C018091FD0181110CC00A
:1023F0009E012F5F3F4F4FEF6FEF80E090E00E9414
:10240000B90E8A818093FD01F8018481813051F0F9
:1024100028F0823061F44091FD010AC08091FD01F5
:1024200040E007C06091FD0140E080E003C040E073
:1024300080E060E00E94D711F801248130E0C901FA
:10244000019663E070E00E941F3184830F900F902B
:102450000F900F90DF91CF911F910F910895CF931F
:10246000DF9300D000D0CDB7DEB72091390320FF35
:102470000AC09E012F5F3F4F0E94B90E4B816981B8
:102480008A810E94D7110F900F900F900F90DF91CB
:10249000CF910895CF93DF93EC01E9E3F3E043811B
:1024A00062818C819D810E942F128C819D81019679
:1024B00068E671E00E941F319D838C83DF91CF918C
:1024C0000895CF93DF93EC016C8170E080E090E0A1
:1024D0000E940C2F20E030E04FE753E40E942F2EA3
:1024E0002BED3FE049E450E40E9435300E94A230D9
:1024F0000E94A92E2BE43AE34EE25FE30E94C22D34
:1025000020EF3BEF48ED52E40E9435300E94DB2E75
:10251000462FE9E3F3E08081881F8827881F909188
:102520003A03292F220F97FB992790F96281822B7A
:102530000E942F122C8130E02F5F3F4F2C83DF91C0
:10254000CF910895CF93E82F873058F580911401EB
:1025500090911501892B09F042C0CE2F80E40E9492
:10256000431F9093150180931401892BB1F482E1EC
:102570000E941C1F9093150180931401892B69F40C
:1025800081E090E001C0880FCA95EAF780950E942B
:102590001C1F909315018093140184E98093BC0063
:1025A0001EC090E0FC013797E730F105C0F4EC560F
:1025B000FF4F0C943331209A289811C0219A299802
:1025C0000EC0229A2A980BC0239A2B9808C0529AC0
:1025D0005A9805C0539A5B9802C03E9A4698CF918C
:1025E0000895CF93DF93873008F047C0809114019E
:1025F00090911501892B09F049C080E40E94431F86
:102600009093150180931401892B11F080E031C063
:1026100083E10E941C1F9093150180931401892B64
:10262000A9F781E40E94431F909315018093140140
:10263000892B61F784E88093BC000E94752AEC0125
:102640009091BC0097FD0EC00E94752A8C1B9D0BBB
:1026500084369105A8F38EEF9FEF90931501809338
:102660001401D4CF8091BB00809510921501109277
:10267000140194E99093BC000AC09FB18FB1807F90
:10268000869586959370892B809501C080E0DF91B7
:10269000CF910895DF92EF92FF920F931F93CF9304
:1026A000DF93CDB7DEB767970FB6F894DEBF0FBEE6
:1026B000CDBFF42E4B8BD52E5C8BE62E6D8B7E8B97
:1026C0008F8B0E891F8901151105B9F12FEF521358
:1026D00002C0421791F1EF2DF0E041E050E00F2CE5
:1026E00001C0440F0A94EAF78D2D90E0EE2019F016
:1026F00020914D0205C0DC01A25CBD4F2C9124232A
:102700002223A1F056E0589F9001599F300D1124CB
:10271000E20FF31FEE0FFF1FEB5BFE4FF080D18047
:10272000FC01E25CFD4F9081492B06C0FC01E25C9C
:10273000FD4F4095808148234083FE013D9686E011
:10274000DF011D928A95E9F70E94752A20916103A5
:10275000309162038217930798F00E94752A2091A6
:10276000610330916203821B930B80399140A8F082
:102770008091630382FD11C082E00E94E72B0DC0AF
:102780000E94752A20916103309162032095309553
:10279000820F931F8039914058F70E94721A81115D
:1027A0000E94802BFD86DE86EF86198B088B86E0E3
:1027B000FE013D96DE01179601900D928A95E1F794
:1027C000CE0107960E94261D811136C086E0FE01CB
:1027D0003796DE01119601900D928A95E1F77F817F
:1027E0006885EA85FB85309739F16F3F11F47F3FAB
:1027F00019F12091540230E0C901019687709927A0
:102800004091850250E08417950779F179836A83B6
:10281000FD83EC8396E0929FD001939FB00D11242D
:10282000AB5ABD4FFE01319601900D929A95E1F79A
:10283000809354020E94C11C16E080918502909101
:102840005402891711F1189FC00111248B5A9D4F12
:102850000E94261D8823C9F08091850290E0019690
:102860008770992780938502E8CF1092C3020E9457
:10287000F01E1092540210928502EEE4F2E086E01F
:10288000DF011D928A95E9F7D7CF67960FB6F894C6
:10289000DEBF0FBECDBFDF91CF911F910F91FF9093
:1028A000EF90DF90089520913C0230913D02821715
:1028B000930771F090933D0280933C02E0910903ED
:1028C000F0910A03309721F00084F185E02D0994FE
:1028D000089520913A0230913B028217930771F0DC
:1028E00090933B0280933A02E0910903F0910A032E
:1028F000309721F00680F781E02D09940895E0914A
:102900000903F0910A03309721F00190F081E02D46
:10291000099480E008958091390380FF03C0869573
:102920008F73089580E0089580913903282F2695AC
:102930002F7330E02115310519F48178826005C0CC
:102940002532310524F081788864809339033091F1
:102950003903432F441F4427441F20913A03522F29
:10296000550F852F842B27FB992790F9893641E055
:1029700094077CF068E671E00E941F3180FB37F914
:102980003093390386952078822B90FB87F98093CA
:102990003A030895CF93DF9300D000D0CDB7DEB7D0
:1029A000AB01BC0149835A836B837C830E949414DE
:1029B00049815A816B817C8188E090E00F900F9073
:1029C0000F900F90DF91CF910C94A02D5F926F929A
:1029D0007F928F929F92AF92BF92CF92DF92EF92AF
:1029E000FF920F931F93CF93DF9300D000D0CDB70A
:1029F000DEB78C01E62EF42E522E8091390380FF33
:102A00008BC0E82FE695EF73AE2FB0E0A05EBE4F0F
:102A10009C9190933E03282F2E77223061F49E01E3
:102A20002F5F3F4FC8010E94B90E4B8169818A8197
:102A30000E94D71151C0923019F4F0903C034CC061
:102A4000963069F4881F8827881F90913A03292FB0
:102A5000220F022F082B97FB112710F93DC0993048
:102A600089F39931C9F5E951E0FD02C021E001C0C7
:102A70002FEFE695F0E0EE0FFF1FE05AF84F85913B
:102A800094916FE070E00E940B3126034001279F74
:102A9000900C1124580188E9A81A8EEFB80A9EEF0D
:102AA000C92E91E0D92E28E6622E77247394C501B1
:102AB000B3010E940B3196014F2D6E2D0E94B90E6D
:102AC000A80CB91C84E0C80ED11C8AE3C81682E0A9
:102AD000D80669F70E940C108091390300FB87F932
:102AE00080933903902F969580913A038078892BB3
:102AF00010FB87F980933A03E0923B03F0923C038A
:102B0000552051F06091390370913A0380913B0355
:102B100090913C030E94CA140F900F900F900F9059
:102B2000DF91CF911F910F91FF90EF90DF90CF90A9
:102B3000BF90AF909F908F907F906F905F9008951F
:102B400021E00C94E614E9E3F3E080818E7F80833A
:102B500060817181828193810E94CA1410923F0327
:102B60002FEF80E792E0215080409040E1F700C0D5
:102B700000000C940C109091390390FF4AC091789A
:102B8000811102C0926007C0853210F0986403C0C2
:102B90008F73880F982B90933903662351F06091BF
:102BA000390370913A0380913B0390913C030E945A
:102BB000CA146091390366956F7370E04BE050E082
:102BC00086E091E00E946632892B19F010923F0353
:102BD00009C081E080933F030E94752A90933403DB
:102BE0008093330381E08093360380913903881FFB
:102BF0008827881F90913A03392F330F97FB992725
:102C000090F920E040913C0360913B03832B0C94AE
:102C1000E614089560E00C94BB15E9E3F3E08081CD
:102C20008160808386958F730C940A1661E00C9402
:102C3000BB15E9E3F3E080818160808386958F7323
:102C40000C9416168091390386958F73815009F480
:102C500084E261E00C94BB158091390386958F73F3
:102C60008F5F853208F081E061E00C94BB15E9E3E9
:102C7000F3E083E0808310923A038FEF82838383B3
:102C8000148260817181828193810C94CA14609155
:102C9000F4028CE090E00C948E2DCF93DF9326E02D
:102CA000729FF001112434E5839FE00DF11D112482
:102CB000E60FF11DEE0FFF1FE853FE4FC591D491B3
:102CC000CE01C238D10549F1B0F4C133D10509F4C0
:102CD00064C048F4C932D10509F458C0CA32D105DC
:102CE00009F462C068C0C533D10509F448C0C933CE
:102CF000D10599F060C0C33ED10541F138F4C03E22
:102D0000D10591F0C23ED105B1F055C0C63ED10506
:102D100021F1C73ED10561F14EC02091060320FD8F
:102D200014C221FD12C213C22091060320FF0FC25C
:102D300089E390E00CC22091060322FF08C2809133
:102D4000060384FDB4C183EE90E001C280910603C6
:102D500082FFF5CF82EE90E0FAC12091060323FFB7
:102D6000F6C18091060384FDA2C187EE90E0EFC119
:102D70008091060383FFF5CF86EE90E0E8C12091B5
:102D8000060325FFE4C189E290E0E1C1209106033A
:102D900025FFDDC185E390E0DAC12091060326FF1F
:102DA000D6C18AE290E0D3C12091060326FFCFC1AD
:102DB00081E390E0CCC1C11520E5D20708F047C0FF
:102DC000C11530E4D30708F034C1C83ED10518F569
:102DD000C03ED10508F0BBC1C83AD10570F4C53A70
:102DE000D10508F0B0C0C130D10509F4B0C108F474
:102DF0005EC1249708F45BC1AAC1CF3BD10508F49A
:102E0000ADC0C03CD10508F452C1FE01EE0FFF1F5A
:102E1000E052FB4F02C1C11520E2D20760F4C11598
:102E200031E0D30708F093C1C03FD10508F43FC19A
:102E3000CE0190658CC1C11580E3D80708F0F0C0C1
:102E4000FE01FF70EE0FFF1FE05AF94FE6C0C115FB
:102E500095E5D90708F044C0C11524E5D20708F06C
:102E600000C1C11532E5D30710F5C11581E5D807BA
:102E700008F0E3C02C2F237081E090E002C0880F9F
:102E8000991F2A95E2F79C689E0174E03695279574
:102E90007A95E1F72370922BEC2FEF70E695E6958B
:102EA00030E2E39FF00111248E2B9F2B50C18C2F19
:102EB00086958695AE0143705527C115D34508F018
:102EC000C1C090E2899F9001112481E090E002C08E
:102ED000880F991F4A95E2F7822B932B9C6837C184
:102EE000C1152AE5D207A0F4C11539E5D30708F0CA
:102EF000C6C0C11586E5D80708F4B8C0C11598E565
:102F0000D90708F4D4C09C2F8827806F906A1FC10E
:102F1000C1152BE5D20708F4CAC0CE01C1153CE5A6
:102F2000D30708F4C1C090568115904208F0BFC085
:102F30008D2F8F710E942D0FFE01FF27F0628F7180
:102F40009F01382BAFC0C53AD10509F4B3C0C63ACA
:102F5000D10509F0B2C082E890E4F9C0C83AD105C1
:102F600009F4AEC0C93AD10509F4ADC0CA3AD105D9
:102F700009F4ACC0CB3AD10509F4ABC0CC3AD105C9
:102F800009F4AAC0CB3BD10509F4A9C0CC3BD105BB
:102F900009F4A8C0CD3AD10509F4A7C0C03BD105BA
:102FA00009F4A6C0CE3AD10509F4A5C0CF3AD1059F
:102FB00009F4A4C0C13BD10509F4A3C0C23BD105AB
:102FC00009F4A2C0C33BD10509F4A1C0C43BD1059B
:102FD00009F4A0C0C53BD10509F49FC0C63BD1058B
:102FE00009F49EC0C73BD10509F49DC0C83BD1057B
:102FF00009F49CC0C93BD10509F49BC0CD3BD10568
:1030000009F49AC0CE3BD10509F499C0CA3BD10559
:1030100009F498C080E094E49AC08591949197C097
:103020009E013327C901D3FF02C0986C90C0906CF9
:103030008EC0CE019F70906A8AC09C2F8827816FB6
:10304000906A85C090E2899F9001112481E090E010
:1030500002C0880F991F4A95E2F7822B932B9A683A
:1030600076C09C2F8827846F906A71C08C2F0E9435
:103070002D0F8F7190E0982F8827906268C08C2F59
:103080008F700E942D0FFE0194E0F695E7959A95BA
:10309000E1F7EF70F0E0FE2FEE27F06A8F70806EA0
:1030A0009F01282BC90153C09927906650C080E02A
:1030B00090E04DC081E890E44AC083E890E447C0C6
:1030C00082EE94E444C089EE94E441C08AEE94E434
:1030D0003EC085EB94E43BC086EB94E438C083EBC0
:1030E00094E435C084EB94E432C087EB94E42FC0C1
:1030F0008CEC94E42CC08DEC94E429C083E895E436
:1031000026C08AE895E423C082E995E420C084E9DA
:1031100095E41DC081E296E41AC083E296E417C0EC
:1031200084E296E414C085E296E411C086E296E457
:103130000EC087E296E40BC08FE694E408C080E7F7
:1031400094E405C08AE296E402C080EE90E0DF914C
:10315000CF91089580E290E090931501809314013F
:103160008091FA01811111C01092B9008CE0809316
:10317000B80081E08093FA012FEF83ED90E32150B6
:1031800080409040E1F700C0000080E40E94431FAF
:103190009093150180931401892B09F040C080E0C1
:1031A0000E941C1F9093150180931401892BB9F57F
:1031B00080E00E941C1F9093150180931401892BBD
:1031C00071F58FE30E941C1F9093150180931401E9
:1031D000892B29F584E98093BC0080E40E94431F79
:1031E0009093150180931401892BC9F48CE00E94FF
:1031F0001C1F9093150180931401892B81F480E0AA
:103200000E941C1F9093150180931401892B39F49F
:103210008FE30E941C1F909315018093140184E991
:103220008093BC0080911401089556985E9825986B
:103230002D9826982E9827982F988FEF90E09093AE
:1032400089008093880090938B0080938A009093EC
:103250008D0080938C00259A2D9A2FEF80E792E0C5
:10326000215080409040E1F700C00000269A2E9A3D
:103270002FEF80E792E0215080409040E1F700C0BE
:103280000000279A2F9A2FEF80E792E0215080408C
:103290009040E1F700C0000025982D982FEF80E7BF
:1032A00092E0215080409040E1F700C00000269855
:1032B0002E982FEF80E792E0215080409040E1F778
:1032C00000C0000027982F9856985E9825982D9852
:1032D00026982E9827982F98089584B1807F84B9D6
:1032E00085B1807F85B98AB1837F8AB98BB1837FAD
:1032F0008BB93E984698089580B38C7080BB81B39B
:10330000836F81BB0895AF92BF92CF92DF92EF920D
:10331000FF920F931F93CF93DF93809114019091AD
:103320001501892B91F08091F9018F5F8093F9014C
:1033300081110BC00E94AA1890E090931501809310
:103340001401892B11F40E94151908EF12E04FEFB8
:10335000E42E42E0F42E6801C0E0B12C37E0A32E49
:10336000AC0E8C2F0E94A2128A2D0E94A2128C2FCA
:103370000E94F112D6019C91981719F08C93D1E01C
:1033800001C0D0E08A2D0E94F112F70190819817B8
:1033900019F0808381E001C080E0D82BBD2A0E9413
:1033A0006D19CF5FFFEFCF1ADF0A6FEFE61AF60A4B
:1033B000C730A1F60E94752A6AEF70E00E940B31B7
:1033C000782F6091F801662381F11092F801E09165
:1033D000F202F091F302DF01AC5ABF4FF12C2BEF58
:1033E000E22ECAEFD0E0AF014A5F5F4F20812B3F52
:1033F00099F0C22ED12C721720F09C012C193D0996
:1034000005C09E012C193D09280F391F25303105B3
:1034100014F0E08201C0F62E3196E417F50731F77B
:10342000EA17FB0701F7F092F801BB20A1F14091E8
:10343000F2025091F3026091F801ECE0F3E0EE2427
:10344000E394F12C9EE0D92EDE0ED8019D918D01E2
:1034500080819827DA0120E030E0E701022E01C0E8
:10346000CC0F0A94EAF7CC2EC92241F0CC90DBEFC6
:10347000BD2ECB1003C07C938C2761E011962F5F8B
:103480003F4F2630310549F74A5F5F4F8193DE1287
:10349000DCCF6093F80181E0DF91CF911F910F9114
:1034A000FF90EF90DF90CF90BF90AF900895109273
:1034B0006503109264030E94922BEAE1F3E086E038
:1034C000DF011D928A95E9F7109220031092710393
:1034D0000E94812A80E090E00E94691480E090E0E0
:1034E0000C9453140E94752A20916603309167034F
:1034F0008217930750F00E94752A2091660330913D
:103500006703821B930B9C010AC00E94752A2091BD
:1035100066033091670320953095280F391F81E0AD
:103520002039314008F480E008958091C102811172
:103530001092C1020895BF92CF92DF92EF92FF9254
:103540000F931F93CF93DF938C01C0906903D090AA
:103550006A03E0906B03F0906C038091BD02909140
:10356000BE02A091BF02B091C002C82AD92AEA2A9D
:10357000FB2ACFE1D0E0D701C6010C2E04C0B695DE
:10358000A795979587950A94D2F780FF07C0BC2E20
:10359000B8018C2F0E944D16019719F4219758F706
:1035A000B12C8B2DDF91CF911F910F91FF90EF9058
:1035B000DF90CF90BF900895CF93DF93EC010E94EE
:1035C0009B1ABE010E944D16DF91CF9108950E9473
:1035D000DC1A292F2F7092959F70E92FF0E0329717
:1035E000EE30F105B8F4E556FF4F0C943331803FCF
:1035F00099F018F4803E70F40FC0843F59F40CC069
:10360000803E50F0813F31F407C0822F8695869529
:103610008695089580E0089581E00895292F220F6E
:10362000920F990F890F682F669566956695982F6A
:10363000977085E0689FB001112440E050E080E081
:10364000FA01E60FF71FEA57FD4F208130E0092EFF
:1036500002C0369527950A94E2F721703327042E8D
:1036600001C0220F0A94EAF7822B4F5F5F4F45306B
:10367000510531F70895292F220F920F990F890FC5
:10368000A82FA695A695A695877051E001C0550F65
:103690008A95EAF785E0A89FD001112420E030E068
:1036A00070E0F901EA0FFB1FEA57FD4F4081CB01A3
:1036B000022E02C0969587950A94E2F781709927A9
:1036C000819584278523842780832F5F3F4F253072
:1036D000310539F70895CF92DF92EF92FF926B0197
:1036E0007C01AA27BB270097A105B10511F0E0E1F5
:1036F00003C0D701C601E0E0492F5A2F6B2F77276F
:10370000411551056105710519F0E85FDB01CA013A
:10371000AC01BD01F4E07695679557954795FA950C
:10372000D1F7411551056105710519F0EC5FDB0119
:10373000CA01AC01BD0132E0769567955795479572
:103740003A95D1F7411551056105710519F0EE5F04
:10375000DB01CA01B695A79597958795892B8A2B8A
:103760008B2B09F0EF5F56985E9825982D98269838
:103770002E9827982F988E2F90E0FC013197E730F4
:10378000F10518F5E755FF4F0C943331259A2D9A22
:1037900052C0269A2E9A5AC0279A2F9A62C0259A0A
:1037A0002D9A269A2E9A5DC0259A2D9A279A2F9A9D
:1037B00063C0269A2E9A279A2F9A69C0259A2D9A25
:1037C000269A2E9A279A2F9A6EC08730910508F074
:1037D0006AC0FC01E055FF4F0C94333188E090E063
:1037E0000E94822D6093390370933A0380933B03C8
:1037F00090933C0360FF1CC00E941916809139030E
:1038000086958F730E94161680913903881F88272A
:10381000881F90913A03292F220F97FB992790F93F
:1038200040913C0360913B03822B0E94A0153BC05A
:103830000E94A31538C00E940D1681E00E940A164E
:1038400020E04FEF6FEF84E291E02BC00E940D1655
:1038500081E00E940A1620E04FEF6FEF84EB90E0CA
:1038600020C00E940D1681E00E940A1620E04BEB5A
:103870006CE58DE290E015C00E940D1681E00E947B
:103880000A1620E04FEF6FEF80E090E00AC00E9440
:103890000D1681E00E940A1620E04FEF6FEF86E2DE
:1038A00090E00E94E614C092BD02D092BE02E09267
:1038B000BF02F092C002FF90EF90DF90CF900C9487
:1038C000571A0F931F9341E050E060E070E004C08E
:1038D000440F551F661F771F8A95D2F74095509564
:1038E000609570958091BD029091BE02A091BF023B
:1038F000B091C0028A019B01082319232A233B238C
:10390000C901B8011F910F910C946B1B0F931F936A
:1039100041E050E060E070E004C0440F551F661FB6
:10392000771F8A95D2F78091BD029091BE02A09137
:10393000BF02B091C0028A019B01082B192B2A2BD0
:103940003B2BC901B8011F910F910C946B1B98E0A0
:10395000899F90011124262B209363030E94861CCB
:103960000E94752A90936203809361030895609387
:10397000690370936A0380936B0390936C030C94B8
:10398000571A8091850290915402891719F08F5F20
:103990008770FBCF08958091530282958F7009F054
:1039A00054C080915002882309F44FC08091850251
:1039B000A091540260914E0270914F0240915102C9
:1039C00050915202B6E08A1709F43FC090E04115C9
:1039D0005105C1F17F3F11F46F3FA1F1B89FF00194
:1039E000B99FF00D1124EB5AFD4F218172132AC0AB
:1039F0002081621327C02281211124C023813481B8
:103A00002417350710F421503109241B350B2A3FA8
:103A10003105C0F4209153022F702061209353028E
:103A200026E0289FF001299FF00D1124E65AFD4F52
:103A300080818F70806180838EE492E00E94A10477
:103A40000C94C11C01968770BECF0895BF92CF928F
:103A5000DF92EF92FF920F931F93CF93DF93CDB737
:103A6000DEB761970FB6F894DEBF0FBECDBF8C01F5
:103A700085E0F801DE011D9601900D928A95E1F72F
:103A8000D8013C9111962C9111971296EC901297B7
:103A90001396CD90DC90149750914E0260914F0296
:103AA0008091510290915202009709F44FC16F3FEB
:103AB00019F45F3F09F44AC1B0905002BB2009F4E9
:103AC000ECC040915302C816D90628F0F601E81B55
:103AD000F90BCF0104C0809590958C0D9D1DFF249E
:103AE000F3948A3F910548F0F12C407F09F09FC084
:103AF0008EE492E00E94A10421C1842F807F09F00E
:103B000044C0621312C0531310C0E1100EC04F70B6
:103B10004061409353028EE492E00E94A1048091A0
:103B20005302D80115968C932EC0CD2819F12F3F42
:103B300011F43F3FF9F0FE2CE1101CC0809185028A
:103B40004091540256E0841709F458C090E0589F01
:103B5000F001599FF00D1124EB5AFD4F618126139E
:103B600006C06081361303C06281611103C00196F3
:103B70008770E9CFFE2CEE2009F421C18091530219
:103B8000816080935302F12C1AC162130AC053134F
:103B900008C0E11006C080915302D80115968C939D
:103BA000B0C03D872E878D859E850E94E71A8823A9
:103BB000D1F1EE20C1F120915302822F82958F70B6
:103BC00090E0029774F080914E0290914F02988796
:103BD0008F831986DB86CA862C87CE0107960E94C2
:103BE000A10486E0F801AEE4B2E001900D928A955E
:103BF000E1F70E94CB1CFF24F394E1C03D872E87A0
:103C00008D859E850E94DC1A292F22952F7030E029
:103C1000223031050CF0C7C09F7009F0C1C0805E32
:103C2000883008F4CCC0C8010E94A104E4CF62131C
:103C300014C0531312C0E11010C080915302F80158
:103C40008583C8010E94A10486E0EEE4F2E0DF0172
:103C50001D928A95E9F7FB2CB2C03D872E878D8592
:103C60009E850E94E71A8823F1F2EE20E1F220916E
:103C70005302822F82958F7090E002970CF4B1CF9F
:103C800080914E0290914F029A8389831B82DD823C
:103C9000CC822E83CE010196A2CFC816D90638F069
:103CA000C81AD90ABAEFCB16D10450F007C08095D4
:103CB00090958C0D9D1D8A3F910510F0F12C3EC012
:103CC000FE2CEE2009F4AFCF621327C0531325C09A
:103CD0002091530220FD18C0822F82958F70482FAB
:103CE00050E04115510581F0F80125834F30510511
:103CF00041F08F5F982F9295907F822F8F70892B44
:103D00008583C8010E94A10486E0F801AEE4B2E018
:103D100001900D928A95E1F752C03D872E878D85DF
:103D20009E850E94E71A81115CCF809153028160C9
:103D300080935302C8010E94A10441C0EEE4F2E066
:103D400086E0DF011D928A95E9F739C0EE2009F47B
:103D50006ACF3D872E878D859E850E94E71AF82EB3
:103D6000882309F460CF86E0F801AEE4B2E0019068
:103D70000D928A95E1F780914E0290914F020E9438
:103D8000DC1A92959F70963041F480914D0291E03B
:103D9000892780934D0290934C020E94CB1C0FC048
:103DA00081113DCF0CC0243031050CF03CCF9F7009
:103DB00009F435CFF8019581907F09F030CF8F2D30
:103DC00061960FB6F894DEBF0FBECDBFDF91CF91E5
:103DD0001F910F91FF90EF90DF90CF90BF900895CB
:103DE00080911301882331F08091060387FF02C080
:103DF0008EE101C086E0E3E4F3E0DF011D928A95E5
:103E0000E9F70C94571A882321F00E948B2B0C940D
:103E1000922B0895882339F09091C302892B8093C7
:103E2000C3020C94922B0895CF93C82F0E94602C4C
:103E30008C2FCF910C94002CCF93DF938093BB00F9
:103E400084E88093BC000E94752AEC019091BC002C
:103E500097FD0AC00E94752A8C1B9D0B8436910524
:103E6000A8F38EEF9FEF0CC02091B900287F81E06E
:103E700090E0283211F480E090E0919581959109CD
:103E8000DF91CF9108950F931F93CF93DF93C82FA6
:103E90001092BC0084EA8093BC000E94752A8C01B9
:103EA0009091BC0097FD0AC00E94752A801B910B5F
:103EB00084369105A8F38EEF9FEF2AC09091B90048
:103EC000987F983041F09091B900987F903119F027
:103ED0008FEF9FEF1DC0C093BB0084E88093BC00B0
:103EE0000E94752AEC019091BC0097FD08C00E94C9
:103EF000752A8C1B9D0B84369105A8F3DCCF80912D
:103F0000B900887F883111F0803411F780E090E0AB
:103F1000DF91CF911F910F910895CF92DF92FF9281
:103F20000F931F93CF93DF931F92CDB7DEB7F82E79
:103F30008B0199830E943824998181111CC0CF2C58
:103F4000D92E01151105B1F08091E80085FD0AC058
:103F50008091E8008E778093E8000E9438248823BF
:103F600081F309C0F60181916F018093F100015046
:103F70001109E7CF80E00F90DF91CF911F910F9152
:103F8000FF90DF90CF9008951F93CF93DF93CDB72D
:103F9000DEB7AA970FB6F894DEBF0FBECDBFEAEE2C
:103FA000F2E088E08E0F9091F10091938E13FBCF99
:103FB0008091EB02833009F460C030F4813071F0FD
:103FC000823009F49CC0B3C08A3009F488C08B30B9
:103FD00009F46BC0893009F0AAC020C08091EA02C0
:103FE000813A09F0A4C08091E800877F8093E800BF
:103FF0008091EE029091EF02892B21F460E286EC31
:1040000092E003C060E080E090E070E00E94BE2497
:104010008091E8008B778093E80089C08091EA0264
:10402000813209F084C08091EE029091EF020297F4
:1040300008F07DC08091E800877F8093E800809140
:10404000E80082FD05C08091E8028111F8CF6FC0C1
:104050002091F3008091F20090E0922B029729F4D6
:104060008091F1008B7F813021F48091F100809369
:10407000C5028091E8008B7756C08091EA02813AB0
:1040800009F055C08091EE029091EF02892B09F062
:104090004EC08091E800877F8093E8008091E8001F
:1040A00080FFFCCF8091130139C08091EA028132F8
:1040B000F1F58091EE029091EF02892BC1F580918C
:1040C000E800877F8093E8000E946A248091EC02D8
:1040D000809313011092C3020E94F01E28C08091A9
:1040E000EA02813221F58091E800877F8093E80021
:1040F0000E946A248091ED028093C40218C08091CE
:10410000EA02813AA1F48091E800877F8093E80079
:104110008091E80080FFFCCF8091C4028093F10081
:104120008091E8008E778093E8000E946A24809155
:10413000E80083FFD6C18091EA029091EB02492FFB
:1041400050E04A30510508F0CCC1FA01E954FF4F64
:104150000C943331803821F0823809F0C2C108C094
:104160008091E6029091E702992389F082600FC066
:104170008091EE028F70873008F0B3C18093E90020
:104180008091EB0085FB882780F91092E9009091DF
:10419000E800977F9093E8008093F1001092F1007F
:1041A00074C1282F2D7F09F09CC1882319F082301B
:1041B00061F097C18091EC02813009F092C1933097
:1041C00009F080E08093E7022EC08091EC0281111B
:1041D0002AC08091EE028F702FEF280F263008F052
:1041E00080C18093E9002091EB0020FF1CC0933038
:1041F00021F48091EB00806214C09091EB009061FB
:104200009093EB0021E030E0A90102C0440F551F5C
:104210008A95E2F74093EA001092EA008091EB0061
:1042200088608093EB001092E9008091E800877F1E
:104230002FC1811156C11091EC021F778091E300CC
:104240008078812B8093E3008091E800877F8093C2
:10425000E8000E946A248091E80080FFFCCF8091F2
:10426000E30080688093E300111102C082E001C086
:1042700083E08093E80235C18058823008F031C174
:104280008091EC029091ED028C3D53E0950779F519
:1042900083E08A838AE289834FB7F894DE0113961C
:1042A00020E03EE051E2E32FF0E050935700E4912C
:1042B00020FF03C0E295EF703F5FEF708E2F90E01C
:1042C000EA3010F0C79601C0C0968D939D932F5F82
:1042D000243149F74FBF8091E800877F8093E80041
:1042E0006AE270E0CE0101960E94BE24BDC04091FA
:1042F000EE025091EF02292F332723303105B9F018
:104300006CF42130310509F4FBC02230310509F08D
:10431000E8C08BE390E0EAE6F8E054C021323105D2
:1043200009F433C02232310509F43CC0DAC09927C0
:1043300081309105D1F05CF4892B09F0D2C0EDEE0B
:10434000F8E0E4918E2F90E0EDEEF8E038C0823096
:10435000910599F0039709F0C4C0E7EBF8E0E49108
:104360008E2F90E0E7EBF8E02AC0E5EDF8E0E4916D
:104370008E2F90E0E5EDF8E022C0EDEBF8E0E4915F
:104380008E2F90E0EDEBF8E01AC04115510509F4CD
:10439000BCC04130510509F0A4C089E090E0E5E9D6
:1043A000F8E010C04115510509F4B4C04130510581
:1043B00009F097C080EC90E0EAE6F7E003C00097D0
:1043C00009F48FC02091E800277F2093E800209116
:1043D000F0023091F1022817390708F4C90140E0D2
:1043E000009789F12091E802222309F43DC025308D
:1043F000D9F12091E80023FD37C02091E80022FD8B
:104400002FC02091E80020FFEBCF4091F3002091D6
:10441000F20030E0342B009759F02830310540F499
:1044200044914093F100319601972F5F3F4FF3CFB6
:1044300041E02830310509F040E02091E8002E7776
:104440002093E800CDCF4111CDCF0AC08091E80282
:10445000882351F0853041F08091E80083FD04C04D
:104460008091E80082FFF2CF8091E8008B77809303
:10447000E80037C08038A9F58091E800877F8093F5
:10448000E8008091E9028093F1008091E8008E7746
:104490008093E8000E946A2424C0811122C01091F8
:1044A000EC021230F0F48091E800877F8093E800FE
:1044B0001093E9020E946A24111106C08091E30062
:1044C00087FD02C081E001C084E08093E80242E001
:1044D00061EC81E00E94892442E261EC82E00E946A
:1044E00089248091E80083FF1AC08091E800877FCB
:1044F0008093E8008091EB0080628093EB000FC016
:1045000082E190E0E5EAF8E05DCF89E090E0ECE759
:10451000F8E058CF80E490E0EAE2F8E053CFAA96C2
:104520000FB6F894DEBF0FBECDBFDF91CF911F91C4
:1045300008951F920F920FB60F9211242F933F935D
:104540004F935F936F937F938F939F93AF93BF939B
:10455000CF93DF93EF93FF93C091E900CF708091E9
:10456000EC00D82FD17080FDD0E81092E900809146
:10457000F000877F8093F00078940E94C41F10920F
:10458000E9008091F00088608093F000CD2BCF701F
:10459000C093E900FF91EF91DF91CF91BF91AF916F
:1045A0009F918F917F916F915F914F913F912F914B
:1045B0000F900FBE0F901F901895E8EDF0E08081EE
:1045C0008E7F80831092E2001092DA001092E10058
:1045D000A0EEB0E08C9181608C9380818F77808396
:1045E00019BCA7EDB0E08C918E7F8C9380818F7E7B
:1045F00080831092C2020895CF92DF92EF92FF92D1
:104600000F931F93CF93DF93C8EDD0E088818F7E07
:104610008883E7EDF0E080818160808384E082BF61
:1046200081E08093C20288818E7F888302EE10E051
:10463000F80110821092DA0081EEC82ED12CF6011A
:10464000108288818F7788838881806888838881B9
:104650008F7D888319BC1092E8021092E9021092B3
:10466000E7021092E60290EEE92EF12CF70180812C
:104670008B7F808388818160888342E060E080E076
:104680000E948924F60180818E7F8083F8018081D9
:1046900081608083808188608083F70180818E7F44
:1046A0008083888180618883DF91CF911F910F91F2
:1046B000FF90EF90DF90CF9008951F920F920FB66A
:1046C0000F9211242F933F934F935F936F937F9398
:1046D0008F939F93AF93BF93EF93FF938091E100EC
:1046E00082FF09C08091E20082FF05C08091E10055
:1046F0008B7F8093E1008091DA0080FF2AC0809157
:10470000D80080FF26C08091DA008E7F8093DA0087
:104710008091D90080FF18C080E189BD82E189BD08
:1047200009B400FEFDCF81E08093E8028091C202CF
:1047300081110FC00E94DD220E94FC228091E200C4
:1047400084608093E20005C019BC1092E8021092C8
:10475000C2028091E10080FF17C08091E20080FFDB
:1047600013C08091E2008E7F8093E2008091E2008E
:1047700080618093E2008091D80080628093D800AD
:1047800019BC85E08093E8028091E10084FF34C089
:104790008091E20084FF30C080E189BD82E189BD63
:1047A00009B400FEFDCF8091D8008F7D8093D800A2
:1047B0008091E1008F7E8093E1008091E2008F7E06
:1047C0008093E2008091E20081608093E20080911A
:1047D000E902882311F084E007C08091E30087FD9F
:1047E00002C081E001C083E08093E8021092C3021E
:1047F0000E94F01E0E947F148091E10083FF27C079
:104800008091E20083FF23C08091E100877F809345
:10481000E10082E08093E8021092E9028091E100D9
:104820008E7F8093E1008091E2008E7F8093E20092
:104830008091E20080618093E20042E060E080E0ED
:104840000E9489248091F00088608093F000FF919D
:10485000EF91BF91AF919F918F917F916F915F91F8
:104860004F913F912F910F900FBE0F901F90189571
:104870002091E4003091E50095E64091EC00842F12
:10488000817040FF22C08091E80080FD1CC08091B3
:10489000E802882391F0853091F08091EB0085FD4E
:1048A00010C04091E4005091E5004217530729F3EE
:1048B0009A01915011F784E0089582E0089583E011
:1048C000089581E0089580E008954091E80042FF56
:1048D000DECF08958091EA0287FF11C08091E80041
:1048E00082FD05C08091E8028111F8CF11C080914E
:1048F000E8008B770BC08091E802882349F0809113
:10490000E80080FFF8CF8091E8008E778093E80080
:104910000895982F973058F59093E900981739F03B
:104920007091EC002091ED005091F00003C0242F15
:10493000762F50E021FF19C03091EB003E7F30937D
:10494000EB003091ED003D7F3093ED003091EB00B6
:1049500031603093EB007093EC002093ED005093A6
:10496000F0002091EE0027FF07C09F5FD3CF8F702C
:104970008093E90081E0089580E008952091F0029D
:104980003091F1022617370748F06115710539F4A7
:104990002091E8002E772093E80001C0B90140E0A3
:1049A00061157105A9F12091E802222309F443C0A1
:1049B000253009F442C02091E80023FD40C0209139
:1049C000E80022FD32C02091E80020FFE9CF4091AD
:1049D000F3002091F20030E0342BFC01CF0161158F
:1049E000710559F02830310540F481918093F10030
:1049F000615071092F5F3F4FF1CF41E02830310501
:104A000009F040E02091E8002E772093E800C8CF1D
:104A10004111C9CF0AC08091E802882361F0853036
:104A200061F08091E80083FD0AC08091E80082FF78
:104A3000F2CF80E0089582E0089583E0089581E058
:104A4000089580914003811107C08091E80284306D
:104A500011F081E0089582E00895CF93DF93CDB700
:104A6000DEB72C970FB6F894DEBF0FBECDBF84B76C
:104A7000877F84BF0FB6F894A89580916000886105
:104A800080936000109260000FBE80E88093610008
:104A90001092610085B7806885BF85B7806885BF43
:104AA0000E94DD220E94FC228091E20084608093BB
:104AB000E20078948091E8028823A1F01091E90047
:104AC0001F709091EC00892F817090FD80E8182B69
:104AD0001092E9008091E80083FD0E94C41F1F70BE
:104AE0001093E90082E084BD93E095BD9AEF97BDF5
:104AF00080936E000E94AA1890E090931501809315
:104B000014010E946D190E947C19A8EFB2E0ECE03C
:104B1000F3E09EE0D92EDE0E11921D92DE12FCCF44
:104B200084E590E00E943931AC019093F3028093C8
:104B3000F20220E030E08BEFFA01E20FF31F90E089
:104B400081939F5F9630E1F72A5F3F4F243531050F
:104B500099F70E94232B811102C00E942E2B8CE01A
:104B600090E00E947A2D90E0A0E0B0E08093F40203
:104B70009093F502A093F602B093F70289EA80932E
:104B8000800089E08093810024982C983F988AB116
:104B90008F7C8AB96E98479A8BB180638BB9769A6D
:104BA0000E9415190E94232B811102C00E942E2BF6
:104BB00082E090E00E947A2D8093240384E090E0CC
:104BC0000E947A2D90E0909307038093060383E080
:104BD00090E00E947A2D682F70E080E090E00E94C3
:104BE000B71C80910803811138C080912403816033
:104BF000809324030E94232B811104C00E942E2B3A
:104C00000E94371688E090E00E94822D609339035D
:104C100070933A0380933B0390933C036E7771F457
:104C20000E94371688E090E00E94822D609339033D
:104C300070933A0380933B0390933C030E94941437
:104C400010923F038091390380FF04C086958F73D3
:104C50000E940A1681E08093080386E191E0909318
:104C60000A038093090381EFE82E88E0F82E8091F3
:104C7000E802853009F047C08091E802843021F1D4
:104C800010920B0320E488E190E00FB6F894A89509
:104C9000809360000FBE2093600083B7817F8460A3
:104CA00083BF83B7816083BF7894889583B78E7FF5
:104CB00083BF0FB6F894A8958091600088618093B7
:104CC0006000109260000FBE8091E702882309F413
:104CD000CECF0E94AA1890E0909315018093140102
:104CE0000E946D190E947C19ECE0F3E01192DE1233
:104CF000FDCF0E948319ECE0F3E08191811178C12E
:104D0000DE12FBCFB4CF0E948319E5E2F3E0ACE002
:104D1000B3E000E010E0302F2D9141914227B9F12E
:104D200080E090E050E0682F5A01082E02C0B59450
:104D3000A7940A94E2F7A0FE26C089833A8381E013
:104D400090E05C0102C0AA0CBB1C6A95E2F7822FBE
:104D500090E08A219B2121E0892B09F420E02B831C
:104D60000E94752A8160782F9D838C8349815A81A6
:104D70006B818D810E944A13F801EB5DFC4F8081AD
:104D8000A826A0821AC001968630910561F60F5FB1
:104D90001F4F0E30110509F0BECF8FEF8E838F832A
:104DA00018860E94752A8160782F9A8789874E819C
:104DB0005F8168858A850E944A13809121039091C2
:104DC00022030E944B2A9C0190912003992321F0F9
:104DD0002431310508F46BC080911C0310911D0330
:104DE00081110BC011111AC120911E03211116C18E
:104DF00020911F03211112C15AC09F3F19F09F5FDC
:104E000090932003181624F40E949D2980931C037C
:104E100080911C0387FF05C00E949D298195809386
:104E20001C03111624F40E949D2980931D03809178
:104E30001D0387FF05C00E949D29819580931D0356
:104E400040911C03442379F030911D03332359F022
:104E500025EB4203A001112450931C033203C0012F
:104E6000112490931D0380911E03181624F40E94B0
:104E70007D2980931E0380911E0387FF05C00E9439
:104E80007D29819580931E0380911F03181624F4B9
:104E90000E947D2980931F0380911F0387FF05C017
:104EA0000E947D29819580931F030E94812A109181
:104EB00023030E947F14181721F00E947F1480930F
:104EC000230380913F03882309F4D1CE80913E03D0
:104ED000E0913903E695EF73E81BE09335038230E8
:104EE00049F4F0E0E150F74FE4910E2F10E021E695
:104EF00032E148C0863049F4F0E0E450F74FE491E5
:104F00000E2F10E02AE432E13DC0893051F4E695DD
:104F1000F0E0E750F74FE4910E2F10E02BE831E17D
:104F200031C08F3051F4E695F0E0EA50F74FE4914C
:104F30000E2F10E02FE031E125C0853149F4F0E07B
:104F4000ED50F74FE4910E2F10E028EA30E11AC03F
:104F5000883179F0833231F4F701059114912BEE09
:104F600031E110C0843251F404EF11E023E230E16A
:104F700009C008EE13E02FE630E104C000ED17E0B1
:104F800028EB3EE0809136038823A9F01092360387
:104F90002B873C870E94752AA80140955095840F65
:104FA000951F90933403809333031092380310922B
:104FB00037033C852B8580913303909134032B87F5
:104FC0003C870E944B2A2B853C858017910708F46B
:104FD0004ECEE0913303F09134030E0F1F1F109358
:104FE00034030093330383E393E0F90109953FCE43
:104FF00080E189BD82E189BD09B400FEFDCF8091C9
:10500000D8008F7D8093D8008091E00082608093EB
:10501000E0008091E00081FDFCCF29CE9F3F09F0A8
:10502000EECEF6CE8091C5020895CF93DF9300D0E7
:105030001F92CDB7DEB72091E802243031F523E08E
:105040002983805891099B838A8382E08093E900B9
:105050008FEF9091E800815095FD06C095ED9A95EF
:10506000F1F700008111F5CF8091E80085FF0DC0B8
:1050700040E050E063E070E0CE0101960E948D1F99
:105080008091E8008E778093E8000F900F900F904A
:10509000DF91CF9108950F931F93CF93DF9300D0AB
:1050A0001F92CDB7DEB78C010E942125823011F00E
:1050B000843021F584E089831B830A8382E0809316
:1050C000E9008FEF9091E800815095FD06C095EDC5
:1050D0009A95F1F700008111F5CF8091E80085FFE6
:1050E0000DC040E050E063E070E0CE0101960E9408
:1050F0008D1F8091E8008E778093E8000F900F90CD
:105100000F90DF91CF911F910F910895CF93DF936F
:10511000EC010E942125823011F08430F9F482E004
:105120008093E9009FEF8091E800915085FD06C0D3
:1051300085ED8A95F1F700009111F5CF8091E80097
:1051400085FF0CC040E050E066E070E0CE010E94B8
:105150008D1F8091E8008E778093E800DF91CF91DA
:105160000895CF93DF93EC010E942125823011F046
:105170008430D9F580911301882339F0809106039A
:1051800087FF03C060E282E002C068E081E08093B4
:10519000E9008FEF9091E800815095FD06C095EDF4
:1051A0009A95F1F700008111F5CF8091E80085FF15
:1051B0001CC080911301811105C040E050E068E0FF
:1051C00070E003C070E040E050E0CE010E948D1F0F
:1051D0008091E8008E778093E80080E2FE01A6ECE3
:1051E000B2E001900D928A95E1F7DF91CF91089599
:1051F000803F39F480911D0387FF6CC010921D031E
:1052000069C0813F29F480911D031816BCF362C068
:1052100090911C03823F29F497FF5CC010921C03FD
:1052200059C0833F19F41916CCF354C0893F41F497
:1052300080911E0318160CF04DC010921E034AC038
:105240008A3F29F480911E0387FF44C0F6CF8B3F2D
:1052500039F480911F0387FF3DC010921F033AC0AD
:105260008C3F29F480911F031816BCF333C0843F90
:1052700021F480911B038E7F17C0853F21F480911C
:105280001B038D7F11C0863F21F480911B038B7F10
:105290000BC0873F21F480911B03877F05C0883FA7
:1052A00031F480911B038F7E80931B0313C08D3FCD
:1052B00021F4809171038E7F0BC08E3F21F4809189
:1052C00071038D7F05C08F3F29F4809171038B7F1F
:1052D0008093710380911C0381110EC080911D0386
:1052E00081110AC080911E03811106C080911F03A5
:1052F000811102C01092200308958091710380FDF6
:1053000018C081FD14C082FD16C08091200388233F
:1053100081F0803580F425E0829FC001112460E592
:1053200070E00E941F31862F672B19F005C082E0C4
:10533000089581E0089585E008958091710380FDCE
:1053400014C081FD14C082FD16C080912003882303
:1053500081F0843180F423E2829FC001112464E152
:1053600070E00E941F31862F089588E0089581E142
:10537000089585E0089583E20895803F21F40E9416
:105380009D29819504C0813F29F40E949D29809325
:105390001D030895823F21F40E949D29819504C038
:1053A000833F29F40E949D2980931C030895893F1F
:1053B00019F40E947D2905C08A3F31F40E947D299D
:1053C000819580931E0308958B3F21F40E947D29CF
:1053D000819504C08C3F29F40E947D2980931F038E
:1053E0000895843F21F480911B03816017C0853F9D
:1053F00021F480911B03826011C0863F21F48091CB
:105400001B0384600BC0873F21F480911B038860DD
:1054100005C0883F31F480911B03806180931B039A
:1054200008958D3F21F48091710381600BC08E3F00
:1054300021F480917103826005C08F3F29F480912F
:105440007103846080937103089578941F920F9282
:105450000FB60F9211248F939F93AF93BF938091B8
:105460006D0390916E03A0916F03B091700301964C
:10547000A11DB11D80936D0390936E03A0936F03E4
:10548000B0937003BF91AF919F918F910F900FBE1A
:105490000F901F901895CF92DF92EF92FF920F938B
:1054A0001F932FB7F89440916D0350916E03609154
:1054B0006F03709170032FBF6A017B01EE24FF24FC
:1054C0008C0120E030E0C016D106E206F30610F4AD
:1054D000415051099A01281B390BC9011F910F91A5
:1054E000FF90EF90DF90CF9008952FB7F8948091C0
:1054F0006D0390916E03A0916F03B09170032FBF65
:105500000895E0910903F0910A03309749F082E091
:1055100080931A030480F581E02D8AE193E00995D8
:105520000E94752A909322038093210308951F926D
:105530000F920FB60F9211248F939F93AF93BF9347
:1055400080910B03811113C080916D0390916E03C4
:10555000A0916F03B09170034196A11DB11D80937E
:105560006D0390936E03A0936F03B0937003BF918C
:10557000AF919F918F910F900FBE0F901F90189534
:1055800020911301222321F02091060327FD04C05E
:10559000FC013296089619C0262F26952695269549
:1055A0002E31C0F4FC01E20FF11D677081E090E044
:1055B00001C0880F6A95EAF78095928189238283DA
:1055C00008953196E817F90729F020812613F9CFBD
:1055D0001082F7CF089520911301222321F020910A
:1055E000060327FD05C0FC0132962FEF30E019C0FD
:1055F000262F2695269526952E3120F5FC01E20FC3
:10560000F11D677081E090E001C0880F6A95EAF7AC
:105610009281892B828308952F3F39F03F5F363086
:1056200041F041914613F8CF0DC04111F7CF232F20
:10563000F5CF2F3F39F0FC01E20FF11D27FDFA9560
:1056400062830895089580E090E00E94882D21E013
:105650008D3E9E4F09F020E0822F08956DEE7EEF83
:1056600080E090E00E94AC2D60E082E090E00E943B
:105670008E2D60E083E090E00E948E2D10926903F1
:1056800010926A0310926B0310926C0360E084E046
:1056900090E00E948E2D60E085E090E00E948E2DCB
:1056A00060E086E090E00E948E2D6FEF87E090E052
:1056B0000E948E2D40E050E0BA0188E090E00E9408
:1056C000A02D60E08DE090E00E948E2D40E050E043
:1056D000BA0188E190E00E94A02D60E087E190E0AF
:1056E0000E948E2D40E050E0BA018FE090E00E94D1
:1056F000A02D40E050E0BA0183E190E00C94A02D91
:1057000080916803882331F0109268031092670338
:1057100010926603089580959091C3028923809327
:10572000C3020895909165038091C302892B9091E3
:105730006403892B8093410380916803882321F1BE
:105740000E94721A81110E94802B909168038091AF
:105750004103892B8093410380911301882331F009
:105760008091060387FF02C08EE101C086E0E3E47A
:10577000F3E090E0815028F021912223D9F39F5F3C
:10578000F9CF91110E94802BE0910903F0910A0357
:105790003097A9F080911301882359F08091060376
:1057A00087FF07C0809141038093420385E0809387
:1057B00041030280F381E02D81E493E00994089590
:1057C0001092630310926203109261030895209176
:1057D00063038095822380936303982F977079F4F5
:1057E00030E0482F082E000C550B2417350739F0F0
:1057F0008595859585950E94611C0C94E02B0895F4
:10580000882309F45CC0823869F40E947F1481FF08
:1058100056C069E381E493E00E94EB2A0E94922B38
:1058200069E30EC0833891F40E947F1480FF47C063
:1058300063E581E493E00E94EB2A0E94922B63E5EA
:1058400081E493E00E94C02A0C94922B843869F47E
:105850000E947F1482FF33C067E481E493E00E94DA
:10586000EB2A0E94922B67E4EBCF9CEF980F913AC2
:1058700010F4682FE5CF90E2980F983050F48770BD
:1058800091E001C0990F8A95EAF7892F0E948B2B2E
:10589000DBCF9BE5980F933020F480E090E00C94F0
:1058A000691498E5980F973120F480E090E00C940B
:1058B0005314803F20F00E94F8280C94812A089508
:1058C000882309F416C18238B1F40E947F1481FD47
:1058D00010C169E381E493E00E94EB2A0E94922BBD
:1058E0002FEF41EE54E0215040405040E1F700C01E
:1058F000000069E317C08338D9F40E947F1480FD4B
:10590000F8C063E581E493E00E94EB2A0E94922BA9
:105910008FEF91EE24E0815090402040E1F700C0ED
:10592000000063E581E493E00E94C02A0C94922B6E
:105930008438B1F40E947F1482FDDBC067E481E407
:1059400093E00E94EB2A0E94922B4FEF51EE84E0ED
:10595000415050408040E1F700C0000067E4E2CFD2
:105960009CEF980F913A30F4682F81E493E00E9405
:10597000EB2ADCCF90E2980F983080F4877021E01A
:1059800030E0A90102C0440F551F8A95E2F7CA0111
:105990009091C302892B8093C302C8CF9BE5980FD7
:1059A000933070F4853A29F0863A31F083E890E03C
:1059B00005C081E890E002C082E890E00C94691490
:1059C00098E5980F973108F08EC0883A09F445C0E1
:1059D000893A09F445C08A3A09F445C08B3A09F47A
:1059E00045C08C3A09F445C08B3B09F445C08C3B5B
:1059F00009F445C08D3A09F445C0803B09F445C01F
:105A00008E3A09F445C08F3A09F445C0813B09F448
:105A100045C0823B09F445C0833B09F445C0843B43
:105A200009F445C0853B09F445C0863B09F445C0EF
:105A3000873B09F445C0883B09F445C0893B09F41C
:105A400045C08D3B09F445C08E3B09F445C08A3BF7
:105A500009F445C080E090E044C082EE90E041C08F
:105A600089EE90E03EC08AEE90E03BC085EB90E08E
:105A700038C086EB90E035C083EB90E032C084EB19
:105A800090E02FC087EB90E02CC08CEC90E029C018
:105A90008DEC90E026C083E891E023C08AE891E095
:105AA00020C082E991E01DC084E991E01AC081E242
:105AB00092E017C083E292E014C084E292E011C049
:105AC00085E292E00EC086E292E00BC087E292E0AF
:105AD00008C08FE690E005C080E790E002C08AE24F
