:100000000C9483040C94A0040C94A0040C94A004FD
:100010000C94A0040C94A0040C94A0040C94A004D0
:100020000C94A0040C94A0040C94E91E0C94251EBE
:100030000C94C0170C94A0040C94A0040C94A0047D
:100040000C94A0040C94A0040C94A0040C94A004A0
:100050000C94A0040C944E170C94A0040C94A004CF
:100060000C94A0040C94A0040C94A0040C94A00480
:100070000C94A0040C94A0040C94A0040C94A00470
:100080000C94A0040C94A0040C94A0040C94A00460
:100090000C94A0040C94A0040C94A0040C94A00450
:1000A0000C94A0040C94A0040C94A004F505000585
:1000B000D8050C05190539054605530560056C057D
:1000C000790586059305A607A807B307AA07AC0715
:1000D000AE07B007B207B507B707B907C407BB0734
:1000E000BD07BF07C107C307C607570A570A950AC6
:1000F000950AD10AF10AC30C1C0D330B1C0D200C00
:10010000200C2D0C2D0C2D0C2D0C2D0C2D0C2D0C34
:100110002D0C2D0C2D0C2D0C2D0C2D0C2D0C2D0C17
:100120002D0C3E0C660C6B0C720C8A0C100E130E10
:10013000160E190E1C0E1F0E220E091A0C1A161A74
:100140000F1A141A1B1A191A361C5D1CFD1D5D1C92
:10015000FD1DA51CC81CFD1DC61DD91DC227C2271B
:10016000D527D527CB27D527D527D527C227C227DF
:10017000D027D527D527D0271E002B6429613162CF
:10018000A87400001E003400040033004A454900F2
:100190001F003600120014004D00025120003700ED
:1001A00008000D004B0065682100130018000E00C8
:1001B0004E00260222001C000C001B0000002F0035
:1001C00022002D000000AA000000055823002E0088
:1001D0000000A900000011502300090007000500DD
:1001E0000000300024000A000B001000510027021C
:1001F0002500060017001A0052002C4226001500A8
:100200001100190050002A0027000F0016001D00E1
:100210004F004C0027002A642871387235740000A2
:1002200001000100010001000100000001001400B4
:1002300001001D000100010001001A0016001B0052
:100240000100010001000800070006000100010094
:10025000010015000900190001000100010017004C
:100260000A0005000000010001000100000001007B
:10027000000001000100010000000100000010501A
:1002800001001C000B00110000000100010018001B
:100290000D0001000100010001000C000E003600FD
:1002A00001000100010012000F00370001000100F1
:1002B00001001300330038000100010001000100BB
:1002C00001003472010000000100010001006462BD
:1002D00001000000010042003E003A002602010039
:1002E000010043003F003B002702010001004400E1
:1002F00040003C002F0001000100450041003D008E
:100300003000010001003200390046000000010009
:1003100001000100000001000000010001000100D7
:1003200000000100000001000100470053004800E8
:10033000000001000100240021001E002700010030
:100340000100250022001F002700010001002600F7
:10035000230020006300010001002E002D00230275
:100360005800010001004C640100497201000000C6
:1003700029002B00E100E000E00000001E00140056
:1003800004001D00E2003B001F001A0016001B00C5
:100390003D003A0020000800070006003D002C0048
:1003A00021001500090019002B00AA0022001700E7
:1003B0000A000500000001002300AA0000002B0035
:1003C000000001003400A90000002B000000010023
:1003D00023001C000B001100000001002400180085
:1003E0000D0010000000A90025000C000E003600D2
:1003F00031000100260012000F00370050000100FC
:1004000027001300337152005100010001002A003F
:10041000287238714F00000029002B00E100E00035
:10042000E00000001E00140004001D00E2000100B6
:100430001F001A0016001B00130001002000080016
:10044000070006000100010021001500100019003E
:100450000100AA00220017000A00050000000100A8
:100460003A003C0000003B00000001003E003F005D
:10047000000040000000010023001C000B001100E0
:100480000000010024005F005E0059006200A90026
:10049000250060005D005A00620001002600610036
:1004A0005E005B0063000100270046002D712E00F6
:1004B0005800010001002A00287238710100000074
:1004C0000100010001000100A6000000FA5CFF5CD1
:1004D0000100010001000100FB5C005D1250F75CAF
:1004E00012500100FC5C015D1350C35C135001000D
:1004F000FD5C025D1450C25C14500100FE5C035DA3
:1005000010501050000001000100C95C0000CA5CDE
:10051000000001000100C55C0000C65C0000010095
:100520000100A900AA00A800000001000100FA00D3
:10053000F200FB00F50001000100F000F100FC00FA
:10054000F600F4000100F900F30049020100F40094
:100550000100E200E5004901010001000100010085
:1005600001000100A50000000000000000000000E4
:100570000000010101010101010101020202020268
:100580000202020303030303030304040404040537
:1005900005050505060606060607070707080808F5
:1005A000080909090A0A0A0B0B0B0C0C0C0D0D0D9E
:1005B0000E0E0E0F0F10101011111212131314142F
:1005C000151516161717181819191A1A1B1C1C1DA1
:1005D0001D1E1F1F202121222323242525262728F5
:1005E00028292A2B2C2C2D2E2F3031313233343523
:1005F000363738393A3B3C3D3E3F40414243444523
:10060000464748494B4C4D4E4F50525354555758FE
:10061000595A5C5D5E606163646567686A6B6C6EA5
:100620006F7172747677797A7C7D7F818284868718
:10063000898B8D8E9092949597999B9D9FA1A2A452
:10064000A6A8AAACAEB0B2B4B6B9BBBDBFC1C3C553
:10065000C8CACCCED0D3D5D7DADCDEE1E3E6E8EA0F
:10066000EDEFF2F4F7F9FCFFFFAA7F554005010911
:1006700002A10185020901A1000509190129051539
:10068000002501950575018102950175038101051C
:1006900001093009311581257F9502750881060908
:1006A000381581257F950175088106050C0A3802E9
:1006B0001581257F950175088106C0C00501098057
:1006C000A10185031601002603001A81002A830078
:1006D000751095018100C0050C0901A10185041662
:1006E0000100269C021A01002A9C027510950181C6
:1006F00000C005010906A1018505050719E029E7E4
:1007000015002501950875018102050819012905C3
:100710009505750191029501750391010507190071
:1007200029EF1500250195F075018102C005010929
:1007300006A101050719E029E715002501950875AF
:1007400001810295017508810105081901290595A6
:10075000057501910295017503910105071900299D
:10076000FF150026FF00950675088100C009023BB1
:1007700000020100A0FA09040000010301010009C0
:1007800021110100012240000705810308000A0928
:10079000040100010300000009211101000122C031
:1007A000000705820320000A120110010000000862
:1007B000EDFE0713010001020301040330000000F5
:1007C00016034500720067006F0044006F00780058
:1007D000200045005A000000160345007200670023
:1007E0006F0044006F007800200045005A000000B0
:1007F0000403090400047F3F1F6432146432147838
:100800003C1E1E140A052223252628292A2C2D2FBA
:100810003032333536383A3B3D3E40424345474916
:100820004A4C4E5051535557595A5C5E606264664B
:1008300068696B6D6F71737577797B7D7F81838557
:1008400087898A8C8E90929496989A9C9E9FA1A359
:10085000A5A7A8AAACAEAFB1B3B4B6B8B9BBBCBE7D
:10086000BFC1C2C3C5C6C7C9CACBCCCDCED0D1D2F9
:10087000D2D3D4D5D6D7D7D8D9D9DADADBDBDBDCFB
:10088000DCDCDCDCDDDDDDDDDCDCDCDCDCDBDBDBA7
:10089000DADAD9D9D8D7D7D6D5D4D3D2D2D1D0CE07
:1008A000CDCCCBCAC9C7C6C5C3C2C1BFBEBCBBB90C
:1008B000B8B6B4B3B1AFAEACAAA8A7A5A3A19F9E8A
:1008C0009C9A98969492908E8C8A89878583817F52
:1008D0007D7B79777573716F6D6B69686664626033
:1008E0005E5C5A5957555351504E4C4A49474543FF
:1008F00042403E3D3B3A3836353332302F2D2C2A9C
:1009000029282625232211241FBECFEFDAE0DEBFDF
:10091000CDBF11E0A0E0B1E0E4ECFBE502C0059042
:100920000D92AE3EB107D9F723E0AEEEB1E001C0C3
:100930001D92A237B207E1F70E94C2200C94E02D6D
:100940000C9400008F929F92AF92BF92CF92DF9251
:10095000EF92FF920F931F93CF93DF93CDB7DEB744
:1009600028970FB6F894DEBF0FBECDBFFC01F08014
:10097000118183819481892B11F40C947D0D1F3F8B
:1009800029F40FEFF01611F40C947D0D6F0185E042
:10099000DE01119601900D928A95E1F7D60112962B
:1009A0002C9189819A81222349F00E940119082FF4
:1009B000682F89819A810E947A1903C00E944D197B
:1009C000082FB6E01B9FF001112414E5019FE00DF4
:1009D000F11D1124EF0DF11DEE0FFF1FE858FE4F22
:1009E00005911491F801E75FFC45D60112968C91B0
:1009F000ED30F10508F0A3C0EA5AFF4F0C94A02C8B
:100A0000882311F40C947D0D90914F0281E0892789
:100A100080934F020C947D0D882311F40C947D0D6E
:100A20000E940C1181E00E9409114FEF6FEF81EDE0
:100A30000CC0882311F40C947D0D0E940C1181E0F0
:100A40000E94091140E86FEF87ED28960FB6F894E1
:100A5000DEBF0FBECDBFDF91CF911F910F91FF90F1
:100A6000EF90DF90CF90BF90AF909F908F900C94BD
:100A7000C010882311F40C947D0D0E940C1181E0AC
:100A80000E9409114DEB6FEF86E5DFCF882311F44B
:100A90000C947D0D0E940C1181E00E9409114FEF12
:100AA0006DED84E8D2CF882311F40C947D0D0E9463
:100AB0000C1181E00E9409114FEF6FEF8CEAC5CF56
:100AC000882311F40C947D0D0E940C1181E00E948A
:100AD00009114DEC60E025C0882311F40C947D0DC4
:100AE0000E940C1181E00E9409114BEB6CE580E241
:100AF000ACCF882311F40C947D0D0E940C1181E081
:100B00000E9409114FEF6FEF8BE19FCF882311F403
:100B10000C947D0D0E940C1181E00E9409114FEF91
:100B20006FEF80E092CF882311F40C947D0D0E942A
:100B30000C1181E00E94091149E867ECF2CF88238B
:100B400081F0033EBCE51B0709F493C008F086C0A2
:100B5000013EFCE51F0709F07AC01092CC020E940A
:100B6000271117FFFAC0D60112968C91811187C008
:100B70000A3CBCE51B0709F446C108F469C1013D04
:100B8000BCE51B0709F45FC350F1053DBCE51B073D
:100B900009F4D4C308F4D9C30D3D3CE5130709F4A7
:100BA0000CC40E3D8CE5180709F010C4F6018281D3
:100BB000882309F4A2C728960FB6F894DEBF0FBEAB
:100BC000CDBFDF91CF911F910F91FF90EF90DF90FC
:100BD000CF90BF90AF909F908F900C9457180D3C82
:100BE000FCE51F0739F4F6018281882309F485C7E3
:100BF00081E019C00E3C2CE5120708F431C30F3C0C
:100C00009CE5190709F477C308F086C3D60112964C
:100C10008C91882309F471C70E940B0F8250833096
:100C200008F451C182E028960FB6F894DEBF0FBEDB
:100C3000CDBFDF91CF911F910F91FF90EF90DF908B
:100C4000CF90BF90AF909F908F900C940911023E6F
:100C50002CE5120709F085CF81E00EC0043E3CE58B
:100C6000130749F0053E8CE5180709F07ACF84E0B8
:100C700003C082E001C083E08093CC0270CF8091FA
:100C80009B028093EE0110929B028091CC028130F6
:100C900071F048F08230D1F08430F1F486EE0E9499
:100CA0004D2A88E117C082EE0E94602A15C083ECAD
:100CB0009DE00E940E1B88E10E94602A88E10E944C
:100CC000E62983EB9DE00E940E1B06C082EE0E9487
:100CD000602A87E50E944D2AEFE3FCE93197F1F79E
:100CE00000C000007801E894F7F85CE0A52EB12C74
:100CF000C7010A2C02C0969587950A94E2F7282F1F
:100D00002F7041F0822F90E02A3010F44D9604C0ED
:100D1000069702C087E290E00E944D2AF4E0AF1AE5
:100D2000B1082CEFA2162FEFB20611F78091CC027A
:100D3000813039F040F0823031F0843051F488E273
:100D400006C08CE204C082EE0E94E62902C00E9426
:100D50004D2A8091EE0180939B02003F3CE51307F2
:100D6000B1F180F4083D9CE51907C9F0093DACE5F7
:100D70001A07C9F1073DBCE51B07C1F526E241EEA4
:100D800061EE10C0023FECE51E0749F120F1033F80
:100D90002CE5120759F527E245EE66EE03C027E27F
:100DA00045EE65EEC60128960FB6F894DEBF0FBE7D
:100DB000CDBFDF91CF911F910F91FF90EF90DF900A
:100DC000CF90BF90AF909F908F900C94D42626E246
:100DD00041EE60EEE7CF27E245EE64EEE3CF26E298
:100DE00041EE62EEDFCF28E241E0DBCFD601129682
:100DF0008C91882319F01092EF01BACE0A3CFCE5E1
:100E00001F0709F0B0C1D60112968C91882309F40E
:100E100074C6409114032CE0421B08F440E021E02A
:100E2000609113038091120328960FB6F894DEBFE9
:100E30000FBECDBFDF91CF911F910F91FF90EF902B
:100E4000DF90CF90BF90AF909F908F900C94241024
:100E5000033CFCE51F07E9F4F6018281882309F4CD
:100E60004CC680919B02827271F128960FB6F8945D
:100E7000DEBF0FBECDBFDF91CF911F910F91FF90CD
:100E8000EF90DF90CF90BF90AF909F908F900C9499
:100E90001411043C2CE5120750F1063CFCE51F0739
:100EA00009F472C108F091C1043C3CE5130709F054
:100EB0007AC1D60112968C91882309F41EC68091BE
:100EC0009B02827291F228960FB6F894DEBF0FBE95
:100ED000CDBFDF91CF911F910F91FF90EF90DF90E9
:100EE000CF90BF90AF909F908F900C941D110531C3
:100EF0003CE5130708F0C8C002308CE5180708F479
:100F00006AC0D60112968C91882309F46BC20E94A4
:100F10004C18811102C00E94571884E090E00E9492
:100F2000302C90E09093DF028093DE02F801E350D2
:100F3000FC45E231F10530F4ED59FF4F8091DE02BE
:100F40000C94A02C8091DE02816027C0826025C0B5
:100F5000846023C0806121C080621FC080641DC086
:100F600080681BC08460886018C08E7F16C08D7F2B
:100F700014C08B7F12C08F7E10C08F7D0EC08F7B00
:100F80000CC08F770AC08B7F877F07C087FB222723
:100F900020F991E0922790FB87F98093DE0260911F
:100FA000DE0284E090E00E94442C10929B0228967E
:100FB0000FB6F894DEBF0FBECDBFDF91CF911F916A
:100FC0000F91FF90EF90DF90CF90BF90AF909F90E8
:100FD0008F900C94BE2901159CE5190709F044C0B7
:100FE000F6018281882309F488C510929B020E9431
:100FF000BE29FFEF04E31CE0F15000401040E1F790
:1010000000C00000F89481E08093E00080E28093CB
:10101000D8001092C9008FE19EE40197F1F700C05B
:1010200000001DBA109268001CBC10BE1FBA1092BE
:101030007A0010926E0010926F0010927100109260
:1010400072001092C9001092BC0014B817B81AB8F8
:101050001DB810BA1092BC0015B818B81BB81EB84D
:1010600011BA0C94003F49C501301C4509F0BAC1C2
:10107000D60112968C91882309F43FC58091FC0219
:1010800081608093FC0239C50631BCE51B07A9F5D8
:1010900090919B02F6018281882381F09A7A81E007
:1010A00009F480E08093F001811102C069E201C07F
:1010B00065E387EF91E00E9414180BC08091F00166
:1010C000811102C069E201C065E387EF91E00E94EF
:1010D000E91728960FB6F894DEBF0FBECDBFDF919B
:1010E000CF911F910F91FF90EF90DF90CF90BF9025
:1010F000AF909F908F900C94BB18023C1C4509F058
:1011000071C1D60112968C91882309F4F6C480919E
:10111000110380FF14C028960FB6F894DEBF0FBEEF
:10112000CDBFDF91CF911F910F91FF90EF90DF9096
:10113000CF90BF90AF909F908F900C94420F2896C5
:101140000FB6F894DEBF0FBECDBFDF91CF911F91D8
:101150000F91FF90EF90DF90CF90BF90AF909F9056
:101160008F900C940C110B3C2CE5120708F066C014
:10117000033C3CE5130709F46FCE08F444C1063C78
:101180003CE5130709F044C0D60112968C918823E0
:1011900009F4B3C48091120321E0409114036091DB
:1011A00013038C5041CE053C1C4509F01BC1F601D0
:1011B0008281882309F4A1C48091120321E0409127
:1011C000140360911303845F2FCE083C9CE519073C
:1011D00081F4D60112968C91882309F48EC4609113
:1011E00013032FEF621B08F460E021E04091140329
:1011F00019CE093C1C45B0F4F6018281882309F41C
:101200007CC4609113032FEF620F08F46FEFEDCFF2
:10121000073C8CE5180708F452C4083CBCE51B07E2
:10122000C1F250F3F6018281882309F466C440912B
:1012300014032CE0420F08F44FEFF1CD013DFCE523
:101240001F0709F049C0F6018281882309F455C4BB
:101250000E940B0F8F50853008F435CE8FE0E3CC21
:101260000B3C3CE5130759F4F6018281882309F40D
:1012700044C480911503833098F48F5F0FC00C3CF9
:101280001C4509F0AFC0D60112968C91882309F451
:1012900034C480911503882319F08150809315037D
:1012A00060911103709112038091130390911403C4
:1012B00028960FB6F894DEBF0FBECDBFDF91CF9159
:1012C0001F910F91FF90EF90DF90CF90BF90AF9064
:1012D0009F908F900C94260F023D2CE5120750F53D
:1012E0000D3C3CE5130709F47ECC08F4F2C30F3C37
:1012F000BCE51B0769F4F6018281882309F4FDC36C
:101300000E940B0F8650823008F4DDCD86E08BCC36
:10131000003D1C4508F47ACCD60112968C918823A6
:1013200009F4EBC30E940B0F8950853008F4CBCD34
:1013300089E079CC053DFCE51F0719F5F6018281AE
:10134000882309F4DAC383E26ECC033DFCE51F0772
:1013500039F4F6018281882309F4CFC388E163CC94
:10136000043D1C45B8F4D60112968C91882309F4EB
:10137000C4C30E940B0F8551823008F4A4CD85E1CF
:1013800052CC063D2CE5120798F4033D3CE51307CB
:1013900001F348F3D60112968C91882309F4ADC36A
:1013A0000E940B0F8951893008F48DCD89E13BCC27
:1013B0000D3D9CE5190709F096C3F601828188234B
:1013C00009F49BC382E08093180397C30C3D1C452E
:1013D00049F4D60112968C91882309F48EC3109299
:1013E00018038BC3D60112968C9112970D911C9104
:1013F0008823F9F0C8010E940119F82E682FC8014E
:101400000E947A191AC005319CE5190708F04DC3EE
:101410000230ACE51A0708F074CD0115BCE51B07D6
:1014200009F4DECD01301C4509F422CEF60100811D
:101430001181C8010E944D19F82EB8018F2D0E940C
:101440002D11182F382FD60115962C91159722950E
:101450002F7012960C91011110928D0280918B02C7
:101460008770A9F0002399F080E2810F883078F02E
:1014700082E02F8338879E830E94C01A80918B025E
:101480008770EE24E3942F8138859E818111E12CB1
:10149000A92EA2944FE0A422B12CBCE0AB16B1045B
:1014A00008F0CAC2F501EB58FF4F0C94A02C892F0D
:1014B000807F9F70F92E882319F0F29480EFF82234
:1014C0000023B9F0FF2009F448C280E2810F883080
:1014D00010F0311106C090919B02F92AF0929B0204
:1014E00005C090918D02F92AF0928D020E94BB18DE
:1014F00034C2812F38870E94E6293885FF2009F4FD
:101500009BC2105EF094183010F0311106C090911B
:101510009B02F922F0929B0205C090918D02F92264
:10152000F0928D020E94BB1887C2492F407F892FFD
:101530008F70403211F08295807F332319F0313063
:10154000E9F025C0002381F030918E02222351F072
:10155000213041F4982F932B391709F46DC29093E1
:101560008E026AC2832B81C1222319F0213009F433
:1015700063C28E830E94B5188E817DC1002321F045
:10158000223008F059C271C1211156C274C1002322
:1015900021F0222309F469C1E0C1222309F46BC1BF
:1015A000EEC1292F26952695237030E021153105AF
:1015B00021F02130310559F03FC2002319F0812F6D
:1015C000937002C080E090E00E94982643C20023FE
:1015D00019F0812F937002C080E090E00E94822673
:1015E00039C20023F9F0153F51F0163F71F0143F56
:1015F000A9F48091F1019091F20181600BC080917A
:10160000F1019091F201826005C08091F101909109
:10161000F20184609093F2018093F101812F0E9486
:10162000E6161EC0153F51F0163F71F0143FA9F4A5
:101630008091F1019091F2018E7F0BC08091F101B8
:101640009091F2018D7F05C08091F1019091F2019E
:101650008B7F9093F2018093F101812F0E942116DC
:101660000E94AA17F7C1892F837009F071C0011178
:10167000EFC1812F829586958770880F880F412F43
:101680004F7050E060E070E04A015B01082E04C03A
:10169000880C991CAA1CBB1C0A94D2F714FF12C018
:1016A0000FE010E020E030E004C0000F111F221F07
:1016B000331F8A95D2F7B901A801409550956095DE
:1016C000709503C040E050E0BA01969596959370EE
:1016D000892F90E082309105E9F08330910579F10E
:1016E00000918F021091900220919102309192020C
:1016F000019759F0482959296A297B29CB01BA0158
:10170000602371238223932320C0802A912AA22A56
:10171000B32A15C0482959296A297B2980918F024B
:1017200090919002A0919102B09192028A019B0146
:10173000082719272A273B27C901B80106C0CB0172
:10174000BA01682979298A299B290E94FA1A80C13D
:10175000002319F0892F817001C08695882309F430
:1017600077C1812F829586958770880F880F412FCA
:101770004F7050E060E070E04A015B01082E04C049
:10178000880C991CAA1CBB1C0A94D2F714FF12C027
:101790000FE010E020E030E004C0000F111F221F16
:1017A000331F8A95D2F7B901A801409550956095ED
:1017B000709503C040E050E0BA01969596959370FD
:1017C000892F90E082309105E9F08330910579F11D
:1017D00000918702109188022091890230918A023B
:1017E000019759F0482959296A297B29CB01BA0167
:1017F000602371238223932320C0802A912AA22A66
:10180000B32A15C0482959296A297B298091870262
:1018100090918802A0918902B0918A028A019B016D
:10182000082719272A273B27C901B80106C0CB0181
:10183000BA01682979298A299B290E94AA1908C115
:10184000412F50E0FA01E05EF109E531F10508F0C1
:101850007FC0EF57FF4F0C94A02C1F70892F8F7102
:10186000002331F00E94D91A812F0E94DC29E4C0A4
:101870000E949B1A812F0E94D129DEC0002311F102
:101880002111DAC0292F2F7181E090E0A0E0B0E0B3
:10189000AC01BD0104C0440F551F661F771F2A9578
:1018A000D2F78091870290918802A0918902B0912D
:1018B0008A028A019B01082719272A273B27C90189
:1018C000B80125C0223008F0B7C0DCCF002329F0D2
:1018D000892F8F712EC00023D9F3892F8F710E9419
:1018E0009B1AAAC0002381F0292F2F7181E090E07C
:1018F000A0E0B0E0BC01CD0104C0660F771F881FD7
:10190000991F2A95D2F703C060E070E0CB010E94D6
:10191000AA1992C0002381F0192F1F71812F0E94F4
:10192000D91A28E0129FC0011124836080938B0292
:10193000812F0E94D91A80C081E02F830E94C01A93
:101940002F81223008F478C082E00E94C01A74C04F
:10195000002339F0222309F4BBCF812F0E94602A93
:101960006BC0222309F4B9CF193349F43FEF87EE56
:1019700093E0315080409040E1F700C00000812F9B
:101980000E94E62959C0323FB1F028F4303F49F0B7
:10199000313FF9F028C0343FB9F058F0353F71F0CD
:1019A00022C0002309F456C090916D0381E089277D
:1019B00008C081E0082700936D034CC001114AC0A4
:1019C00081E080936D0346C0011144C010926D0305
:1019D00041C0002329F080916C03882329F329C09A
:1019E000222311F337C080916C032223C1F0882396
:1019F00041F090916D0381E0892780936D031092EF
:101A00006C03812F002319F00E94602A23C00E94DA
:101A1000E62986E0D6011D928A95E9F71BC0882346
:101A2000C9F0011117C090916D0381E0892780935F
:101A30006D0310926C030EC0B8E0AB16B10441F018
:101A40004CF0FAE0AF1AB10802E0A016B10410F4AD
:101A50000E94AE26EE2009F450C080918B0280FDDA
:101A60004CC0D60112961C928595859585950E944D
:101A7000D91AC6010E94A20480918B028595859592
:101A8000859528960FB6F894DEBF0FBECDBFDF91C7
:101A9000CF911F910F91FF90EF90DF90CF90BF906B
:101AA000AF909F908F900C949B1A0631FCE51F0716
:101AB00009F4EECA023C1C4509F423CBB7CC043C24
:101AC0009CE5190709F4F5C9053C1C4509F46FCBE1
:101AD000ADCC0B3C9CE5190709F4C6CB0C3C1C456E
:101AE00009F4D1CBA3CC0E3DACE51A0709F45EC8CE
:101AF0000C3D1C4509F09ACC6CCC28960FB6F89496
:101B0000DEBF0FBECDBFDF91CF911F910F91FF9030
:101B1000EF90DF90CF90BF90AF909F908F900895FF
:101B20009091DE0292FF0DC0282F2871283019F401
:101B3000877F846006C0282F2471243011F48B7FA6
:101B4000886093FF0DC0282F2871283119F4877EF3
:101B5000846106C0282F2471243111F48B7E8861A2
:101B600094FD877E0895282F277081E090E001C0C2
:101B7000880F2A95EAF7809590918D0289238093AA
:101B80008D020C94BB18282F277081E090E001C0D3
:101B9000880F2A95EAF790918D02892B80938D0208
:101BA0000C94BB18CF93E82F873080F58091070104
:101BB00090910801892B09F047C0CE2F64E670E0B0
:101BC00080E40E94802B9093080180930701892B69
:101BD000D1F464E670E082E10E94D72B9093080173
:101BE00080930701892B79F481E090E001C0880F90
:101BF000CA95EAF764E670E080950E94D72B90932F
:101C0000080180930701CF910C942C2C90E0FC01EB
:101C10003797E730F105C0F4EA56FF4F0C94A02C3B
:101C2000209A289811C0219A29980EC0229A2A98A1
:101C30000BC0239A2B9808C0529A5A9805C0539A01
:101C40005B9802C03E9A4698CF910895CF93873013
:101C500008F03FC08091070190910801892B09F09D
:101C600041C064E670E080E40E94802B90930801FC
:101C700080930701892B11F0C0E027C064E670E073
:101C800083E10E94D72B9093080180930701892B51
:101C900099F764E670E081E40E94802B909308013C
:101CA00080930701892B41F784E690E00E94072C7E
:101CB00097FF05C09093080180930701DDCFC82FDF
:101CC000C09510920801109207010E942C2C8C2FB5
:101CD0000AC09FB18FB1807F869586959370892BBE
:101CE000809501C080E0CF910895EF92FF920F930D
:101CF0001F93CF93DF938091110380FF2EC0EFB627
:101D0000F090BC00F8948091BC008B7F8093BC0065
:101D10008BB18C7F8BB95098589A5198599A35E06D
:101D20003A95F1F700008AB18C7F8AB985E08A95EF
:101D3000F1F70000519A5998E5E0EA95F1F70000B3
:101D4000509A5898F5E0FA95F1F7000084E80E945F
:101D5000BA26CCE1D3E08E010DC080E090E0FC011A
:101D6000E45EFC4F11821082128204968C3391053E
:101D7000B1F7C5CFF3E008351F0731F0F8018191C5
:101D80008F010E94BA26F6CF5098589A35E03A95BE
:101D9000F1F700005198599A85E08A95F1F7000013
:101DA000EFBEF092BC00579A8BB18F779BB19068D1
:101DB0002FB7F894E3E0C835DE0789F0399148E0A1
:101DC0009BB9000000C037FF8BB9330F000000C083
:101DD00000C000C08BB900C04A9591F7EBCF2FBF70
:101DE000DF91CF911F910F91FF90EF900895909107
:101DF000110390FF0FC020E030E0F901E45EFC4FDA
:101E00008183608342832C5F3F4F2C333105A9F7D8
:101E10000C94750E08958091110380FF02C0869581
:101E2000089580E0089580911103282F269530E0D1
:101E30002115310519F48170826005C02532310504
:101E400024F081708864809311030895CF93DF9309
:101E500000D000D0CDB7DEB7AB01BC0149835A83B7
:101E60006B837C830E94130F49815A816B817C8133
:101E700088E090E00F900F900F900F90DF91CF913E
:101E80000C94562CE1E1F3E080818E7F80836081A9
:101E90007181828193810E94260F109217032FEF88
:101EA00080E792E0215080409040E1F700C00000C0
:101EB0000C94750EE1E1F3E083E0808311828FEFF3
:101EC00082838383148260817181828193810C94E7
:101ED000260FAF92BF92CF92DF92EF92FF920F93B5
:101EE0001F93CF93DF93D82EC62EE901E42FF0E0A5
:101EF000611106C0E859FA4F4491E42F842F7BC04A
:101F0000E62EF12C26E0829FC00111240FEF10E095
:101F1000B8010E94782C5BEA56039001579F300D60
:101F200011242D0D311D2D0D311D822F880F280FED
:101F3000C8018E199F098E9FD0018F9FB00D9E9F63
:101F4000B00D11249B2F2C9D60011124CD2CDD247C
:101F50005801AC18BD08AE9E6001AF9ED00CBE9E6D
:101F6000D00C11245801A21AB108AE9C9001AF9C6C
:101F7000300DBE9C300D1124232F3327021B130B71
:101F80000E9F90010F9F300D1E9F300D1124832F47
:101F90006230710591F04CF461157105E9F0613022
:101FA0007105C1F4842F4D2D17C06430710571F097
:101FB00044F06630710581F00DC0842F4B2F932FB4
:101FC0000BC0E42F4B2F9E2F8D2D06C08B2F942FEF
:101FD000432F02C08B2F9D2DE42FF0E0E859FA4FDC
:101FE0004491E82FF0E0E859FA4F8491E92FF0E0AE
:101FF000E859FA4FE49149838883EA83DF91CF91CE
:102000001F910F91FF90EF90DF90CF90BF90AF9016
:102010000895CF93DF9300D000D0CDB7DEB7909175
:10202000110390FF0AC09E012F5F3F4F0E94690F6E
:102030004B8169818A810E94F70E0F900F900F905B
:102040000F90DF91CF9108955F926F927F928F9260
:102050009F92AF92BF92CF92DF92EF92FF920F9337
:102060001F93CF93DF9300D000D0CDB7DEB7182FEA
:10207000762E042F622E9091110390FF6DC0E92FF0
:10208000E695AE2FB0E0A05EBE4F8C918093160314
:102090009E7F923061F49E012F5F3F4F812F0E94FF
:1020A000690F4B8169818A810E94F70E43C082309B
:1020B00019F4009114033EC0863019F410911203F4
:1020C00039C08930D9F38931A9F5E9518E2F817052
:1020D000582EE695F0E0E859F94FA590B4908CE1C0
:1020E000C82E83E0D82EE12CF12CBB249FE0892E52
:1020F000912CEA9CC001EB9C900DFA9C900D112450
:10210000B4010E94782C812F511002C0860F01C0AB
:10211000861B9601402F672D0E94690F8FEFE81AEA
:10212000F80A84E0C80ED11C8FE0E816F10409F724
:102130000E94750E10931203709213030093140300
:10214000662051F060911103709112038091130386
:10215000909114030E94260F0F900F900F900F90F4
:10216000DF91CF911F910F91FF90EF90DF90CF9073
:10217000BF90AF909F908F907F906F905F900895E9
:1021800021E00C9424109091110390FF36C09170BF
:10219000811102C0926006C0853210F0986402C0BE
:1021A000880F982B90931103662351F060911103CF
:1021B0007091120380911303909114030E94260FD3
:1021C00060911103669570E04BE050E083E191E08F
:1021D0000E94D32D892B19F01092170302C00E9480
:1021E000412781E080930E0320E040911403609129
:1021F0001303809112030C942410089560E00C9452
:10220000C310E1E1F3E080818160808386950C94C6
:10221000FE1061E00C94C310E1E1F3E08081816085
:10222000808386950C9409118091110386958150C5
:1022300009F484E261E00C94C31080911103869547
:102240008F5F853208F081E061E00C94C3106091EB
:10225000CC028CE090E00C94442CCF93DF9326E0EA
:10226000729FF001112434E5839FE00DF11D1124CC
:10227000E60FF11DEE0FFF1FE858FE4FC591D491F8
:10228000CE01C238D10549F1B0F4C133D10509F40A
:1022900064C048F4C932D10509F458C0CA32D10526
:1022A00009F462C068C0C533D10509F448C0C93318
:1022B000D10599F060C0C33ED10541F138F4C03E6C
:1022C000D10591F0C23ED105B1F055C0C63ED10551
:1022D00021F1C73ED10561F14EC02091DE0220FD03
:1022E00014C221FD12C213C22091DE0220FF0FC2D0
:1022F00089E390E00CC22091DE0222FF08C28091A7
:10230000DE0284FDB4C183EE90E001C28091DE0262
:1023100082FFF5CF82EE90E0FAC12091DE0223FF2A
:10232000F6C18091DE0284FDA2C187EE90E0EFC18C
:102330008091DE0283FFF5CF86EE90E0E8C1209128
:10234000DE0225FFE4C189E290E0E1C12091DE02D6
:1023500025FFDDC185E390E0DAC12091DE0226FF92
:10236000D6C18AE290E0D3C12091DE0226FFCFC120
:1023700081E390E0CCC1C11520E5D20708F047C049
:10238000C11530E4D30708F034C1C83ED10518F5B3
:10239000C03ED10508F0BBC1C83AD10570F4C53ABA
:1023A000D10508F0B0C0C130D10509F4B0C108F4BE
:1023B0005EC1249708F45BC1AAC1CF3BD10508F4E4
:1023C000ADC0C03CD10508F452C1FE01EE0FFF1FA5
:1023D000E851FC4F02C1C11520E2D20760F4C115DB
:1023E00031E0D30708F093C1C03FD10508F43FC1E5
:1023F000CE0190658CC1C11580E3D80708F0F0C00C
:10240000FE01FF70EE0FFF1FE859FA4FE6C0C1153D
:1024100095E5D90708F044C0C11524E5D20708F0B6
:1024200000C1C11532E5D30710F5C11581E5D80704
:1024300008F0E3C02C2F237081E090E002C0880FE9
:10244000991F2A95E2F79C689E0174E036952795BE
:102450007A95E1F72370922BEC2FEF70E695E695D5
:1024600030E2E39FF00111248E2B9F2B50C18C2F63
:1024700086958695AE0143705527C115D34508F062
:10248000C1C090E2899F9001112481E090E002C0D8
:10249000880F991F4A95E2F7822B932B9C6837C1CE
:1024A000C1152AE5D207A0F4C11539E5D30708F014
:1024B000C6C0C11586E5D80708F4B8C0C11598E5AF
:1024C000D90708F4D4C09C2F8827806F906A1FC159
:1024D000C1152BE5D20708F4CAC0CE01C1153CE5F1
:1024E000D30708F4C1C090568115904208F0BFC0D0
:1024F0008D2F8F710E94900DFE01FF27F0628F716A
:102500009F01382BAFC0C53AD10509F4B3C0C63A14
:10251000D10509F0B2C082E890E4F9C0C83AD1050B
:1025200009F4AEC0C93AD10509F4ADC0CA3AD10523
:1025300009F4ACC0CB3AD10509F4ABC0CC3AD10513
:1025400009F4AAC0CB3BD10509F4A9C0CC3BD10505
:1025500009F4A8C0CD3AD10509F4A7C0C03BD10504
:1025600009F4A6C0CE3AD10509F4A5C0CF3AD105E9
:1025700009F4A4C0C13BD10509F4A3C0C23BD105F5
:1025800009F4A2C0C33BD10509F4A1C0C43BD105E5
:1025900009F4A0C0C53BD10509F49FC0C63BD105D5
:1025A00009F49EC0C73BD10509F49DC0C83BD105C5
:1025B00009F49CC0C93BD10509F49BC0CD3BD105B2
:1025C00009F49AC0CE3BD10509F499C0CA3BD105A4
:1025D00009F498C080E094E49AC08591949197C0E2
:1025E0009E013327C901D3FF02C0986C90C0906C44
:1025F0008EC0CE019F70906A8AC09C2F8827816F01
:10260000906A85C090E2899F9001112481E090E05A
:1026100002C0880F991F4A95E2F7822B932B9A6884
:1026200076C09C2F8827846F906A71C08C2F0E947F
:10263000900D8F7190E0982F8827906268C08C2F42
:102640008F700E94900DFE0194E0F695E7959A95A3
:10265000E1F7EF70F0E0FE2FEE27F06A8F70806EEA
:102660009F01282BC90153C09927906650C080E074
:1026700090E04DC081E890E44AC083E890E447C010
:1026800082EE94E444C089EE94E441C08AEE94E47E
:102690003EC085EB94E43BC086EB94E438C083EB0A
:1026A00094E435C084EB94E432C087EB94E42FC00B
:1026B0008CEC94E42CC08DEC94E429C083E895E480
:1026C00026C08AE895E423C082E995E420C084E925
:1026D00095E41DC081E296E41AC083E296E417C037
:1026E00084E296E414C085E296E411C086E296E4A2
:1026F0000EC087E296E40BC08FE694E408C080E742
:1027000094E405C08AE296E402C080EE90E0DF9196
:10271000CF91089580E290E09093080180930701A3
:102720008091F60181110EC00E947A2B81E0809386
:10273000F6012FEF83ED90E3215080409040E1F7C8
:1027400000C0000064E670E080E40E94802B90935B
:10275000080180930701892B09F04EC064E670E000
:1027600080E00E94D72B9093080180930701892B6A
:1027700009F042C064E670E080E00E94D72B90939D
:10278000080180930701892BB9F564E670E08FE3B7
:102790000E94D72B9093080180930701892B61F544
:1027A0000E942C2C64E670E080E40E94802B9093C1
:1027B000080180930701892BF9F464E670E08CE04E
:1027C0000E94D72B9093080180930701892BA1F4D5
:1027D00064E670E080E00E94D72B9093080180931C
:1027E0000701892B49F464E670E08FE30E94D72B40
:1027F00090930801809307010E942C2C809107017F
:10280000089556985E9825982D9826982E98279882
:102810002F988FEF90E09093890080938800909399
:102820008B0080938A0090938D0080938C00259A72
:102830002D9A2FEF80E792E0215080409040E1F701
:1028400000C00000269A2E9A2FEF80E792E02150D8
:1028500080409040E1F700C00000279A2F9A2FEFA8
:1028600080E792E0215080409040E1F700C00000F6
:1028700025982D982FEF80E792E0215080409040DE
:10288000E1F700C0000026982E982FEF80E792E035
:10289000215080409040E1F700C0000027982F9819
:1028A00056985E9825982D9826982E9827982F98B8
:1028B000089584B1807F84B985B1807F85B98AB15C
:1028C000837F8AB98BB1837F8BB93E9846980895F0
:1028D00080B38C7080BB81B3836F81BB08959F925E
:1028E000AF92BF92CF92DF92EF92FF920F931F931E
:1028F000CF93DF938091070190910801892B91F08C
:102900008091F5018F5F8093F50181110BC00E94CA
:102910008A1390E09093080180930701892B11F4AA
:102920000E94011400ED12E027EDE22E22E0F22ECB
:102930006801C0E0912C97E0A92EAC0E8C2F0E946C
:10294000D20D8A2D0E94D20D8C2F0E94260EF601E8
:102950009081981721F08083BB24B39401C0B12CDF
:102960008A2D0E94260EF7019081981719F0808316
:1029700081E001C080E0B82A9B280E945914CF5FF3
:10298000FFEFCF1ADF0A8FEFE81AF80AC73099F67F
:102990000E949E176AEF70E00E94782C9C01682FBD
:1029A0008091F4018823E9F11092F401E091CA02C8
:1029B000F091CB02DF011E9690E07BEF8AEFE82ECC
:1029C000F12C80818B3FA9F0482F50E0681728F048
:1029D000E901C41BD50BAE0106C06701C41AD50AB4
:1029E000A601420F531F4E31510514F0708301C0F0
:1029F00091E03196EA17FB0721F79093F4019110CB
:102A000002C0911110C01092F301A091CA02B091BE
:102A1000CB029091F401E4EEF2E080E03EE03E0F64
:102A200007C09110F0CF8091F3018111ECCF16C057
:102A3000E80129918E014081421741F04C914B3FB2
:102A400021F46C93208391E001C081E011963196CE
:102A50003E13EECF9093F4018093F301892DDF9123
:102A6000CF911F910F91FF90EF90DF90CF90BF908B
:102A7000AF909F90089580919D020895CF93DF932A
:102A800000D01F92CDB7DEB72091C002243031F5BF
:102A900023E02983805891099B838A8382E0809375
:102AA000E9008FEF9091E800815095FD06C095ED0B
:102AB0009A95F1F700008111F5CF8091E80085FF2C
:102AC0000DC040E050E063E070E0CE0101960E944E
:102AD000191B8091E8008E778093E8000F900F908B
:102AE0000F90DF91CF9108950F931F93CF93DF93B2
:102AF00000D01F92CDB7DEB78C010E94B620823085
:102B000011F0843021F584E089831B830A8382E0FD
:102B10008093E9008FEF9091E800815095FD06C009
:102B200095ED9A95F1F700008111F5CF8091E800BD
:102B300085FF0DC040E050E063E070E0CE010196FB
:102B40000E94191B8091E8008E778093E8000F9017
:102B50000F900F90DF91CF911F910F910895CF9318
:102B6000DF93EC010E94B620823011F08430F9F43A
:102B700082E08093E9009FEF8091E800915085FD0D
:102B800006C085ED8A95F1F700009111F5CF80918F
:102B9000E80085FF0CC040E050E066E070E0CE0148
:102BA0000E94191B8091E8008E778093E800DF91E6
:102BB000CF910895CF93DF93EC010E94B62082302D
:102BC00011F08430D9F580910601882339F0809185
:102BD000DE0287FF03C060E282E002C068E081E0BD
:102BE0008093E9008FEF9091E800815095FD06C039
:102BF00095ED9A95F1F700008111F5CF8091E800ED
:102C000085FF1CC080910601811105C040E050E0A5
:102C100068E070E003C070E040E050E0CE010E9448
:102C2000191B8091E8008E778093E80080E2FE0116
:102C3000AEE9B2E001900D928A95E1F7DF91CF9174
:102C40000895803F39F48091F50287FF6CC010929F
:102C5000F50269C0813F29F48091F5021816BCF392
:102C600062C09091F402823F29F497FF5CC01092F9
:102C7000F40259C0833F19F41916CCF354C0893FAC
:102C800041F48091F60218160CF04DC01092F60235
:102C90004AC08A3F29F48091F60287FF44C0F6CFEC
:102CA0008B3F39F48091F70287FF3DC01092F70205
:102CB0003AC08C3F29F48091F7021816BCF333C058
:102CC000843F21F48091F3028E7F17C0853F21F469
:102CD0008091F3028D7F11C0863F21F48091F30231
:102CE0008B7F0BC0873F21F48091F302877F05C063
:102CF000883F31F48091F3028F7E8093F30213C0FA
:102D00008D3F21F4809197028E7F0BC08E3F21F47E
:102D1000809197028D7F05C08F3F29F480919702A3
:102D20008B7F809397028091F40281110EC0809175
:102D3000F50281110AC08091F602811106C08091CE
:102D4000F702811102C01092F80208958091970253
:102D500080FD18C081FD14C082FD16C08091F8026C
:102D6000882381F0803580F425E0829FC001112402
:102D700060E570E00E948C2C862F672B19F005C04F
:102D800082E0089581E0089585E00895809197029A
:102D900080FD14C081FD14C082FD16C08091F80230
:102DA000882381F0843180F423E2829FC0011124C2
:102DB00064E170E00E948C2C862F089588E00895CD
:102DC00081E1089585E0089583E20895803F21F42C
:102DD0000E94C616819504C0813F29F40E94C61640
:102DE0008093F5020895823F21F40E94C6168195D2
:102DF00004C0833F29F40E94C6168093F40208950C
:102E0000893F19F40E94A61605C08A3F31F40E943A
:102E1000A61681958093F60208958B3F21F40E94B7
:102E2000A616819504C08C3F29F40E94A6168093B3
:102E3000F7020895843F21F48091F302816017C066
:102E4000853F21F48091F302826011C0863F21F416
:102E50008091F30284600BC0873F21F48091F302DC
:102E6000886005C0883F31F48091F30280618093CF
:102E7000F30208958D3F21F48091970281600BC089
:102E80008E3F21F480919702826005C08F3F29F424
:102E900080919702846080939702089578941F929E
:102EA0000F920FB60F9211248F939F93AF93BF93FE
:102EB0008091930290919402A0919502B091960214
:102EC0000196A11DB11D8093930290939402A0934B
:102ED0009502B0939602BF91AF919F918F910F9001
:102EE0000FBE0F901F901895CF92DF92EF92FF9236
:102EF0000F931F932FB7F89440919302509194022F
:102F000060919502709196022FBF6A017B01EE24B9
:102F1000FF248C0120E030E0C016D106E206F30663
:102F200010F4415051099A01281B390BC9011F9116
:102F30000F91FF90EF90DF90CF9008952FB7F89406
:102F40008091930290919402A0919502B091960283
:102F50002FBF0895E091E102F091E202309749F02D
:102F600082E08093F2020480F581E02D82EF92E00E
:102F700009950E949E179093FA028093F902089592
:102F80001F920F920FB60F9211248F939F93AF93BE
:102F9000BF938091E302811113C0809193029091BD
:102FA0009402A0919502B09196024196A11DB11D87
:102FB0008093930290939402A0939502B09396020B
:102FC000BF91AF919F918F910F900FBE0F901F9067
:102FD000189520910601222321F02091DE0227FD81
:102FE00004C0FC013296089619C0262F2695269516
:102FF00026952E31C0F4FC01E20FF11D677081E0CF
:1030000090E001C0880F6A95EAF780959281892344
:10301000828308953196E817F90729F02081261355
:10302000F9CF1082F7CF089520910601222321F0D5
:103030002091DE0227FD05C0FC0132962FEF30E023
:1030400019C0262F2695269526952E3120F5FC01B0
:10305000E20FF11D677081E090E001C0880F6A9572
:10306000EAF79281892B828308952F3F39F03F5FE1
:10307000363041F041914613F8CF0DC04111F7CFE2
:10308000232FF5CF2F3F39F0FC01E20FF11D27FD73
:10309000FA9562830895089580E090E00E943E2CA6
:1030A00021E08D3E9E4F09F020E0822F08956DEEC5
:1030B0007EEF80E090E00E94622C60E082E090E091
:1030C0000E94442C60E083E090E00E94442C109227
:1030D0008F0210929002109291021092920260E080
:1030E00084E090E00E94442C60E085E090E00E9443
:1030F000442C60E086E090E00E94442C6FEF87E073
:1031000090E00E94442C40E050E0BA0188E090E05A
:103110000E94562C60E08DE090E00E94442C40E03C
:1031200050E0BA0188E190E00E94562C60E087E10F
:1031300090E00E94442C40E050E0BA018CE190E025
:103140000E94562C60E080E290E00E94442C40E017
:1031500050E0BA018FE090E00E94562C40E050E031
:10316000BA0183E190E00C94562C80918E0281117B
:1031700010928E02089590918D0280919B02892B6E
:1031800020918C02982F922B9093F70180918E02C0
:103190008823D9F0892B8093F70180910601882339
:1031A00031F08091DE0287FF02C08EE101C086E02F
:1031B000E9EFF1E090E0815028F021912223D9F34A
:1031C0009F5FF9CF91110E94B518E091E102F09153
:1031D000E2023097A9F080910601882359F080918E
:1031E000DE0287FF07C08091F7018093F80185E038
:1031F0008093F7010280F381E02D87EF91E009943D
:103200000895BF92CF92DF92EF92FF920F931F9398
:10321000CF93DF938C01C0908F02D0909002E0900A
:103220009102F09092028091870290918802A09181
:103230008902B0918A02C82AD92AEA2AFB2ACFE158
:10324000D0E0D701C6010C2E04C0B695A79597957E
:1032500087950A94D2F780FF07C0BC2EB8018C2F47
:103260000E942D11019719F4219758F7B12C8B2D3D
:10327000DF91CF911F910F91FF90EF90DF90CF9052
:10328000BF900895CF93DF93EC010E940119BE0116
:103290000E942D11DF91CF910895292F220F920FB7
:1032A000990F890F682F669566956695982F977088
:1032B00085E0689FB001112440E050E080E0FA0111
:1032C000E60FF71FE05BFD4F208130E0092E02C0C2
:1032D000369527950A94E2F721703327042E01C012
:1032E000220F0A94EAF7822B4F5F5F4F453051055A
:1032F00031F70895292F220F920F990F890FA82FC8
:10330000A695A695A695877051E001C0550F8A95A0
:10331000EAF785E0A89FD001112420E030E070E0BA
:10332000F901EA0FFB1FE05BFD4F4081CB01022E4C
:1033300002C0969587950A94E2F781709927819546
:1033400084278523842780832F5F3F4F25303105D5
:1033500039F70895CF92DF92EF92FF920F931F9368
:103360006B017C01AC01662777274115510561058A
:10337000710511F080E103C0B701A60180E0052FBF
:10338000162F272F3327011511052105310519F0B7
:10339000885FB901A8018A019B01F4E03695279561
:1033A00017950795FA95D1F70115110521053105F6
:1033B00019F08C5FB901A8018A019B01E2E0369502
:1033C000279517950795EA95D1F701151105210560
:1033D000310519F08E5FB901A8017695679557956B
:1033E0004795452B462B472B09F08F5F56985E98E3
:1033F00025982D9826982E9827982F98482F50E09A
:10340000FA013197E730F105D8F4E356FF4F0C94F9
:10341000A02C259A2D9A2FC0269A2E9A3AC0259A2A
:103420002D9A269A2E9A53C0259A2D9A279A2F9A2A
:103430003EC0259A2D9A269A2E9A279A2F9A47C0EF
:10344000823039F128F4882341F08130A1F03FC067
:10345000833069F1853059F13AC080914F02811172
:103460005AC00E94011181E00E94FE1020E04FEF3F
:103470006FEF86E129C080914F0281114CC00E94FC
:10348000011181E00E94FE1020E04FEF6FEF80E01D
:103490001BC080914F0281113EC00E94011181E04A
:1034A0000E94FE1020E04FEF6FEF89E30DC0809186
:1034B0004F02811130C00E94011181E00E94FE1074
:1034C00020E04FEF6FEF80E50E94241024C0809130
:1034D0004F02811120C088E090E00E94382C609358
:1034E000110370931203809313039093140360FFEE
:1034F00010C00E940C118091110386950E94091141
:103500004091140360911303809112030E94C01034
:1035100002C00E94420FC0928702D0928802E092BD
:103520008902F0928A021F910F91FF90EF90DF9035
:10353000CF900C94A3290F931F9341E050E060E0DB
:1035400070E004C0440F551F661F771F8A95D2F79D
:103550004095509560957095809187029091880272
:10356000A0918902B0918A028A019B010823192344
:103570002A233B23C901B8011F910F910C94AA196A
:1035800020918B028095822380938B02982F9770D5
:1035900079F430E0482F082E000C550B241735071E
:1035A00039F08595859585950E949B1A10928B021E
:1035B00008950F931F9341E050E060E070E004C075
:1035C000440F551F661F771F8A95D2F78091870297
:1035D00090918802A0918902B0918A028A019B0190
:1035E000082B192B2A2B3B2BC901B8011F910F91D6
:1035F0000C94AA1960938F027093900280939102A9
:10360000909392020C94A32980914E0290911D02F6
:10361000891719F08F5F8770FBCF0895CF93DF93E1
:10362000EC0180EEFE01099581EEFE01DF91CF9164
:103630000994CF92DF92FF920F931F93CF93DF9362
:103640001F92CDB7DEB7F82E8B0199830E94CD1F54
:10365000998181111CC0CF2CD92E01151105B1F013
:103660008091E80085FD0AC08091E8008E77809304
:10367000E8000E94CD1F882381F309C0F6018191E3
:103680006F018093F10001501109E7CF80E00F90A6
:10369000DF91CF911F910F91FF90DF90CF90089510
:1036A0001F93CF93DF93CDB7DEB7AA970FB6F894E9
:1036B000DEBF0FBECDBFE2ECF2E088E08E0F90914E
:1036C000F10091938E13FBCF8091C302833009F4F4
:1036D00060C030F4813071F0823009F49CC0B3C016
:1036E0008A3009F488C08B3009F46BC0893009F046
:1036F000AAC020C08091C202813A09F0A4C0809182
:10370000E800877F8093E8008091C6029091C7020D
:10371000892B21F460E28EE992E003C060E080E052
:1037200090E070E00E9453208091E8008B778093B6
:10373000E80089C08091C202813209F084C0809182
:10374000C6029091C702029708F07DC08091E80000
:10375000877F8093E8008091E80082FD05C080911A
:10376000C0028111F8CF6FC02091F3008091F20068
:1037700090E0922B029729F48091F1008B7F8130A9
:1037800021F48091F10080939D028091E8008B7775
:1037900056C08091C202813A09F055C08091C6029C
:1037A0009091C702892B09F04EC08091E800877F75
:1037B0008093E8008091E80080FFFCCF80910601B3
:1037C00039C08091C2028132F1F58091C602909198
:1037D000C702892BC1F58091E800877F8093E800BC
:1037E0000E94FF1F8091C4028093060110929B02E9
:1037F0000E94BE2928C08091C202813221F58091A9
:10380000E800877F8093E8000E94FF1F8091C50237
:1038100080939C0218C08091C202813AA1F48091E9
:10382000E800877F8093E8008091E80080FFFCCF6C
:1038300080919C028093F1008091E8008E778093C4
:10384000E8000E94FF1F8091E80083FFD6C18091AD
:10385000C2029091C302492F50E04A30510508F04E
:10386000CCC1FA01EC55FF4F0C94A02C803821F00C
:10387000823809F0C2C108C08091BE029091BF0297
:10388000992389F082600FC08091C6028F708730C3
:1038900008F0B3C18093E9008091EB0085FB882795
:1038A00080F91092E9009091E800977F9093E800EA
:1038B0008093F1001092F10074C1282F2D7F09F040
:1038C0009CC1882319F0823061F097C18091C402B5
:1038D000813009F092C1933009F080E08093BF02FB
:1038E0002EC08091C40281112AC08091C6028F70BF
:1038F0002FEF280F263008F080C18093E900209137
:10390000EB0020FF1CC0933021F48091EB0080621B
:1039100014C09091EB0090619093EB0021E030E0B7
:10392000A90102C0440F551F8A95E2F74093EA00AF
:103930001092EA008091EB0088608093EB00109277
:10394000E9008091E800877F2FC1811156C1109155
:10395000C4021F778091E3008078812B8093E3007D
:103960008091E800877F8093E8000E94FF1F80918C
:10397000E80080FFFCCF8091E30080688093E30043
:10398000111102C082E001C083E08093C00235C102
:103990008058823008F031C18091C4029091C502F4
:1039A0008C3D53E0950779F583E08A838AE2898329
:1039B0004FB7F894DE01139620E03EE051E2E32F8A
:1039C000F0E050935700E49120FF03C0E295EF70C0
:1039D0003F5FEF708E2F90E0EA3010F0C79601C085
:1039E000C0968D939D932F5F243149F74FBF8091EF
:1039F000E800877F8093E8006AE270E0CE010196DC
:103A00000E945320BDC04091C6025091C702292F89
:103A1000332723303105B9F06CF42130310509F436
:103A2000FBC02230310509F0E8C08BE390E0EDE601
:103A3000F7E054C02132310509F433C02232310598
:103A400009F43CC0DAC0992781309105D1F05CF4CB
:103A5000892B09F0D2C0E0EFF7E0E4918E2F90E0DF
:103A6000E0EFF7E038C08230910599F0039709F054
:103A7000C4C0EAEBF7E0E4918E2F90E0EAEBF7E0C8
:103A80002AC0E8EDF7E0E4918E2F90E0E8EDF7E052
:103A900022C0E0ECF7E0E4918E2F90E0E0ECF7E05C
:103AA0001AC04115510509F4BCC04130510509F057
:103AB000A4C089E090E0E8E9F7E010C041155105A5
:103AC00009F4B4C04130510509F097C080EC90E092
:103AD000EDE6F6E003C0009709F48FC02091E800FE
:103AE000277F2093E8002091C8023091C90228174F
:103AF000390708F4C90140E0009789F12091C0021C
:103B0000222309F43DC02530D9F12091E80023FD9E
:103B100037C02091E80022FD2FC02091E80020FF4F
:103B2000EBCF4091F3002091F20030E0342B00976E
:103B300059F02830310540F444914093F10031961A
:103B400001972F5F3F4FF3CF41E02830310509F057
:103B500040E02091E8002E772093E800CDCF41117E
:103B6000CDCF0AC08091C002882351F0853041F04A
:103B70008091E80083FD04C08091E80082FFF2CFCD
:103B80008091E8008B778093E80037C08038A9F5F2
:103B90008091E800877F8093E8008091C102809344
:103BA000F1008091E8008E778093E8000E94FF1F6B
:103BB00024C0811122C01091C4021230F0F480910F
:103BC000E800877F8093E8001093C1020E94FF1FE6
:103BD000111106C08091E30087FD02C081E001C0A1
:103BE00084E08093C00242E061EC81E00E941E20EC
:103BF00042E261EC82E00E941E208091E80083FF97
:103C00001AC08091E800877F8093E8008091EB00E4
:103C100080628093EB000FC082E190E0E8EAF7E079
:103C20005DCF89E090E0EFE7F7E058CF80E490E0E7
:103C3000EDE2F7E053CFAA960FB6F894DEBF0FBEC1
:103C4000CDBFDF91CF911F9108951F920F920FB6B4
:103C50000F9211242F933F934F935F936F937F9312
:103C60008F939F93AF93BF93CF93DF93EF93FF9384
:103C7000C091E900CF708091EC00D82FD17080FD09
:103C8000D0E81092E9008091F000877F8093F000E7
:103C900078940E94501B1092E9008091F000886097
:103CA0008093F000CD2BCF70C093E900FF91EF918E
:103CB000DF91CF91BF91AF919F918F917F916F9144
:103CC0005F914F913F912F910F900FBE0F901F90DA
:103CD0001895E8EDF0E080818E7F80831092E200FD
:103CE0001092DA001092E100A0EEB0E08C918160B9
:103CF0008C9380818F77808319BCA7EDB0E08C9185
:103D00008E7F8C9380818F7E80831092980208959D
:103D1000CF92DF92EF92FF920F931F93CF93DF9397
:103D2000C8EDD0E088818F7E8883E7EDF0E0808168
:103D30008160808384E082BF81E0809398028881E3
:103D40008E7F888302EE10E0F80110821092DA0074
:103D500081EEC82ED12CF601108288818F7788835E
:103D600088818068888388818F7D888319BC1092C0
:103D7000C0021092C1021092BF021092BE0290EED9
:103D8000E92EF12CF70180818B7F8083888181600F
:103D9000888342E060E080E00E941E20F60180817E
:103DA0008E7F8083F801808181608083808188603C
:103DB0008083F70180818E7F808388818061888302
:103DC000DF91CF911F910F91FF90EF90DF90CF90F7
:103DD00008951F920F920FB60F9211242F933F93C5
:103DE0004F935F936F937F938F939F93AF93BF9303
:103DF000EF93FF938091E10082FF09C08091E20080
:103E000082FF05C08091E1008B7F8093E10080916B
:103E1000DA0080FF2AC08091D80080FF26C0809100
:103E2000DA008E7F8093DA008091D90080FF18C07D
:103E300080E189BD82E189BD09B400FEFDCF81E04A
:103E40008093C0028091980281110FC00E94691E68
:103E50000E94881E8091E20084608093E20005C089
:103E600019BC1092C002109298028091E10080FF6C
:103E700017C08091E20080FF13C08091E2008E7F26
:103E80008093E2008091E20080618093E200809163
:103E9000D80080628093D80019BC85E08093C0026E
:103EA0008091E10084FF3DC08091E20084FF39C031
:103EB00080E189BD82E189BD09B400FEFDCF80911A
:103EC000D8008F7D8093D8008091E1008F7E809311
:103ED000E1008091E2008F7E8093E2008091E20019
:103EE00081608093E2008091C102882311F084E018
:103EF00007C08091E30087FD02C081E001C083E03C
:103F00008093C00210929B020E94BE290E94AE269E
:103F100010929A028091990281110E9401110E94CF
:103F200041278091E10083FF27C08091E20083FF59
:103F300023C08091E100877F8093E10082E080933D
:103F4000C0021092C1028091E1008E7F8093E10057
:103F50008091E2008E7F8093E2008091E200806198
:103F60008093E20042E060E080E00E941E208091A9
:103F7000F00088608093F000FF91EF91BF91AF91C6
:103F80009F918F917F916F915F914F913F912F9171
:103F90000F900FBE0F901F9018952091E400309164
:103FA000E50095E64091EC00842F817040FF22C02F
:103FB0008091E80080FD1CC08091C002882391F0B0
:103FC000853091F08091EB0085FD10C04091E400B8
:103FD0005091E5004217530729F39A01915011F7C8
:103FE00084E0089582E0089583E0089581E00895D3
:103FF00080E008954091E80042FFDECF089580916F
:10400000C20287FF11C08091E80082FD05C0809147
:10401000C0028111F8CF11C08091E8008B770BC0EE
:104020008091C002882349F08091E80080FFF8CF9A
:104030008091E8008E778093E8000895982F97305C
:1040400058F59093E900981739F07091EC002091A1
:10405000ED005091F00003C0242F762F50E021FF97
:1040600019C03091EB003E7F3093EB003091ED00B2
:104070003D7F3093ED003091EB0031603093EB00E9
:104080007093EC002093ED005093F0002091EE002F
:1040900027FF07C09F5FD3CF8F708093E90081E037
:1040A000089580E008952091C8023091C902261732
:1040B000370748F06115710539F42091E8002E7733
:1040C0002093E80001C0B90140E061157105A9F134
:1040D0002091C002222309F443C0253009F442C0D4
:1040E0002091E80023FD40C02091E80022FD32C06D
:1040F0002091E80020FFE9CF4091F3002091F200E9
:1041000030E0342BFC01CF016115710559F02830E6
:10411000310540F481918093F100615071092F5F66
:104120003F4FF1CF41E02830310509F040E02091C8
:10413000E8002E772093E800C8CF4111C9CF0AC00C
:104140008091C002882361F0853061F08091E800A1
:1041500083FD0AC08091E80082FFF2CF80E00895DD
:1041600082E0089583E0089581E008958091180326
:10417000811107C08091C002843011F081E0089560
:1041800082E00895CF93DF93CDB7DEB72C970FB6BB
:10419000F894DEBF0FBECDBF84B7877F84BF0FB654
:1041A000F894A895809160008861809360001092D7
:1041B00060000FBE80E8809361001092610085B7B7
:1041C000806885BF85B7806885BF0E94691E0E9490
:1041D000881E8091E20084608093E2007894809150
:1041E000C0028823A1F01091E9001F709091EC00AB
:1041F000892F817090FD80E8182B1092E900809142
:10420000E80083FD0E94501B1F701093E90082E0BC
:1042100084BD93E095BD9AEF97BD80936E000E9498
:104220008A1390E090930801809307010E9459142B
:104230000E946814A0EDB2E0E4EEF2E05EE0D52E5C
:10424000DE0E11921D92DE12FCCF8EE090E00E94F5
:10425000A62C8093CA029093CB02FC010E962BEF02
:104260002193E817F907E1F70E944C18811102C069
:104270000E9457188CE090E00E94302C90E0A0E063
:10428000B0E08093CC029093CD02A093CE02B09385
:10429000CF0289EA8093800089E08093810024988E
:1042A0002C983F988AB18F7C8AB96E98479A8BB1C7
:1042B00080638BB9769A0E9401140E944C18811178
:1042C00002C00E94571882E090E00E94302C809338
:1042D000FC0284E090E00E94302C90E09093DF029A
:1042E0008093DE0283E090E00E94302C682F70E023
:1042F00080E090E00E94FA1A8091E002811137C0BC
:104300008091FC0281608093FC020E944C18811114
:1043100004C00E9457180E945A0F88E090E00E9443
:10432000382C6093110370931203809313039093BE
:1043300014036E7F71F40E945A0F88E090E00E948F
:10434000382C60931103709312038093130390939E
:1043500014030E94130F109217038091110380FF22
:1043600003C086950E94FE1081E08093E00289E000
:1043700091E09093E2028093E10244EFE42E47E063
:10438000F42E8091C002853009F065C08091C00292
:10439000843009F441C01092E30220E488E190E007
:1043A0000FB6F894A895809360000FBE209360002C
:1043B0001092170380919A02811117C081E08093B7
:1043C0009A0280911103982F9170909399028E7F99
:1043D000809311032FEF30E742E0215030404040FE
:1043E000E1F700C000000E94750E83B7817F8460F2
:1043F00083BF83B7816083BF7894889583B78E7FAE
:1044000083BF0FB6F894A89580916000886180936F
:104410006000109260000FBE8091BF02882309F4F3
:10442000B0CF0E948A1390E0909308018093070117
:104430000E9459140E946814E4EEF2E01192DE1218
:10444000FDCF0E946F14E4EEF2E08191811184C1EE
:10445000DE12FBCF96CF0E946F14EDEFF2E0A4EED8
:10446000B2E000E010E0302F2D9141914227B9F1E8
:1044700080E090E050E0682F5A01082E02C0B59409
:10448000A7940A94E2F7A0FE26C089833A8381E0CC
:1044900090E05C0102C0AA0CBB1C6A95E2F7822F77
:1044A00090E08A219B2121E0892B09F420E02B83D5
:1044B0000E949E178160782F9D838C8349815A8149
:1044C0006B818D810E94AC25F801E350FD4F808106
:1044D000A826A0821AC001968630910561F60F5F6A
:1044E0001F4F0E30110509F0BECF8FEF8E838F83E3
:1044F00018860E949E178160782F9A8789874E813F
:104500005F8168858A850E94AC258091F90290912F
:10451000FA020E9474179C019091F802992321F0ED
:104520002431310508F478C08091F4021091F5022D
:1045300081110BC0111126C12091F602211122C157
:104540002091F70221111EC167C09F3F19F09F5FA4
:104550009093F802181624F40E94C6168093F40271
:104560008091F40287FF05C00E94C6168195809352
:10457000F402111624F40E94C6168093F50280916D
:10458000F50287FF05C00E94C61681958093F5024B
:104590003091F4023323E1F02091F5022223C1F09F
:1045A00045EB3403C0011124892F990F990B009713
:1045B00009F481E08093F40235EB2303C001112458
:1045C000892F990F990B009709F481E08093F502E8
:1045D0008091F602181624F40E94A6168093F60223
:1045E0008091F60287FF05C00E94A61681958093F0
:1045F000F6028091F702181624F40E94A616809302
:10460000F7028091F70287FF05C00E94A6168195E8
:104610008093F7020E94AA171091FB020E94AE2617
:10462000181721F00E94AE268093FB028091170399
:10463000882309F4A6CE80911603E0911103E69534
:10464000E81BE0930D03823049F4F0E0EE5FF74F92
:10465000E4910E2F10E028E935E248C0863049F495
:10466000F0E0E150F84FE4910E2F10E028E835E239
:104670003DC0893051F4E695F0E0E450F84FE49104
:104680000E2F10E02CE135E231C08F3051F4E69569
:10469000F0E0E750F84FE4910E2F10E02CEA34E2FE
:1046A00025C0853149F4F0E0EA50F84FE4910E2F2F
:1046B00010E020E534E21AC0883179F0833231F419
:1046C000F7010591149126E435E210C0843251F4CB
:1046D00004EF11E023EE33E209C008EE13E02BE112
:1046E00034E204C000ED17E026EC33E280910E03C3
:1046F0008823A9F010920E032B873C870E949E17F7
:10470000A80140955095840F951F90930C038093BA
:104710000B031092100310920F033C852B858091A0
:104720000B0390910C032B873C870E9474172B85F9
:104730003C858017910708F424CEE0910B03F0919B
:104740000C030E0F1F1F10930C0300930B038BE041
:1047500093E0F901099515CE80E189BD82E189BD1B
:1047600009B400FEFDCF8091D8008F7D8093D800E2
:104770008091E00082608093E0008091E00081FD04
:10478000FCCFFFCD9F3F09F0E2CEEACE089588230B
:1047900019F05198599A02C0519A59985098589ABC
:1047A00095E09A95F1F70000509A589895E09A95FF
:1047B000F1F70000882311F0519A599885E08A9505
:1047C000F1F700000895EF92FF920F931F93CF939C
:1047D000DF937C01CCE1D3E000E010E0F7018481BD
:1047E000073011051CF4882339F002C0811104C080
:1047F0009E014091140302C09E0140E060911303AA
:10480000809112030E94690F0F5F1F4F24960F3093
:10481000110521F70E94750EF701248130E02F5F0A
:104820003F4F217033272483DF91CF911F910F9148
:10483000FF90EF900895EF92FF920F931F93CF9305
:10484000DF93EC012C813D812F5F3F4F2170332797
:104850003D832C838CE1E82E83E0F82E10E005E503
:10486000812F86954C815D81480F511D842F817069
:1048700097014091140360911303809F802D1124B0
:104880000E94690F1F5F84E0E80EF11C1F3041F7A2
:10489000DF91CF911F910F91FF90EF900C94750EC7
:1048A0000F931F93CF93DF9380E090E0FC01E45ED1
:1048B000FC4F11821082128204968C339105B1F75D
:1048C000C0E0D0E00FE010E0CE01B8010E948C2CD7
:1048D000FC0180911A03082E000C990BEE0FFF1FAC
:1048E000EE0FFF1FC817D907A4F080911F01082EF3
:1048F000000C990B8C179D0764F09F01245E3C4FC0
:104900004091140360911303809112030E94690F78
:1049100005C0E45EFC4F1182108212822196CF30D6
:10492000D10591F60E94750E80911E0190911A0397
:10493000980F90931A0320911F01280F20931F01B5
:10494000121614F49E301CF0819580931E01DF91A5
:10495000CF911F910F910895AF92BF92CF92DF92A6
:10496000EF92FF920F931F93CF93DF93FC0182810D
:1049700080FF03C0BB24BA9402C0BB24B3942CE1D3
:10498000E22E23E0F22E0EE113E0C0E0D0E0F801C9
:1049900031971082F7011082F801108294E0C92E3D
:1049A000D12CA12C809119038A0D87FD815F082EDF
:1049B000000C990BC817D90791F4809114038C9DB2
:1049C000A0018D9D500D11245595479555954795FE
:1049D000970160911303809112030E94690FAB0C41
:1049E000F1E0CF1AD108F1F6219684E0E80EF11C2F
:1049F0000C5F1F4FCF30D10551F60E94750E80918C
:104A0000190391E0B91206C0811102C08EE007C0FF
:104A1000815005C090E00196BE010E948C2C8093CD
:104A20001903DF91CF911F910F91FF90EF90DF90CD
:104A3000CF90BF90AF900895EF92FF921F93CF93C6
:104A4000DF93EC018CE1E82E83E0F82E10E08C81FE
:104A500097014091140360911303810F0E94690F25
:104A60001F5E84E0E80EF11C1F3F89F70E94750E5F
:104A70008A819C8180FF02C09F5F01C091509C830E
:104A8000DF91CF911F91FF90EF9008950F931F93A7
:104A9000CF93DF9300D000D0CDB7DEB78C018091EB
:104AA0001B0381110AC09E012F5F3F4F4FEF6FEF35
:104AB0000E94690F8A8180931B03F80184818130F1
:104AC00051F028F0823061F440911B030AC08091BC
:104AD0001B0340E007C060911B0340E080E003C07F
:104AE00040E080E060E00E94F70EF801248130E0B1
:104AF000C901019663E070E00E948C2C84830F90C2
:104B00000F900F900F90DF91CF911F910F9108950B
:104B1000CF93DF93EC01E1E1F3E0438162818C818B
:104B20000E9409108C818F5F8C83DF91CF91089553
:104B3000CF93DF93EC01EC81F0E0EA5FF74F449113
:104B4000E1E1F3E0628181810E9409108C818F5F35
:104B50008C83DF91CF910895EF92FF920F931F9373
:104B6000CF93DF93CDB7DEB767970FB6F894DEBF6C
:104B70000FBECDBF4B8B5C8B6D8B7E8B8F8B0E896D
:104B80001F8901151105C1F15F3F11F44F3FA1F1DC
:104B9000E42EF12CA1E0B0E0042E01C0AA0F0A948B
:104BA000EAF7852F90E0662319F020916D0306C087
:104BB0009C01225A3C4FF90120812A232223A9F08B
:104BC00046E0489F9001499F300D1124F701E20F04
:104BD000F31FEE0FFF1FEB5BFE4F40815181FC0185
:104BE000E25AFC4F9081A92B06C0FC01E25AFC4F0F
:104BF000A0958081A823A08386E0FE013D96DF0179
:104C0000982F1D929A95E9F74D875E876F87198BCC
:104C1000088BDE01179601900D928A95E1F7CE017F
:104C200007960E94D927811137C086E0FE0137968A
:104C3000DE01119601900D928A95E1F7FF81E885DA
:104C40006A857B856115710539F1EF3F11F4FF3FEE
:104C500019F120911D0230E0C90101968770992752
:104C600040914E0250E08417950779F1F983EA8369
:104C70007D836C8396E0929FD001939FB00D1124A9
:104C8000A25EBD4FFE01319601900D929A95E1F71B
:104C900080931D020E94041B16E080914E029091A9
:104CA0001D02891711F1189FC0011124825E9D4FCA
:104CB0000E94D9278823C9F080914E0290E0019686
:104CC0008770992780934E02E8CF10929B020E9432
:104CD000BE2910921D0210924E02E7E1F2E086E03A
:104CE000DF011D928A95E9F7D7CF67960FB6F89442
:104CF000DEBF0FBECDBFDF91CF911F910F91FF900F
:104D0000EF90089520915C0330915D038217930723
:104D100071F090935D0380935C03E091E102F09168
:104D2000E202309721F00084F185E02D0994089586
:104D300020915A0330915B038217930771F090938F
:104D40005B0380935A03E091E102F091E202309715
:104D500021F00680F781E02D09940895E091E102A9
:104D6000F091E202309721F00190F081E02D09945A
:104D700080E00895CF93DF93D82FC8E08D2F8078FF
:104D80000E94C723DD0FC150C9F780E00E94C723EE
:104D900085E08A95F1F7000085E08A95F1F700003B
:104DA00080E0DF91CF9108950F931F93CF93DF930E
:104DB000C62FD42F022FFC0182818823C9F0609373
:104DC000EF010E949E17909359038093580380E24D
:104DD0008C0F883008F050C0C77081E001C0880F88
:104DE000CA95EAF7DF91CF911F910F910C94DC29BE
:104DF0001091EF01161330C0809158039091590320
:104E00000E947417883C910538F5C0E2CD0F1D173C
:104E1000B9F080E2810F883040F4177081E001C062
:104E2000880F1A95EAF70E94D129C83048F481E02A
:104E30009D2F977001C0880F9A95EAF70E94DC2990
:104E4000802F0E944D2AC830B8F4D77081E001C08D
:104E5000880FDA95EAF70AC080E28C0F883060F498
:104E6000C77081E001C0880FCA95EAF7DF91CF9142
:104E70001F910F910C94D129DF91CF911F910F9128
:104E8000089560911103669570E04BE050E083E176
:104E900091E00E94D32D892B19F481E080931703B0
:104EA0000E949E1790930C0380930B0308958091AA
:104EB0001C0282958F7009F054C0809119028823DA
:104EC00009F44FC080914E02A0911D02609117021B
:104ED0007091180240911A0250911B02B6E08A1795
:104EE00009F43FC090E041155105C1F17F3F11F435
:104EF0006F3FA1F1B89FF001B99FF00D1124E25E60
:104F0000FD4F218172132AC02081621327C02281A4
:104F1000211124C0238134812417350710F4215036
:104F20003109241B350B283C3105C0F420911C02AB
:104F30002F70206120931C0226E0289FF001299FFA
:104F4000F00D1124ED5DFD4F80818F7080618083B5
:104F500087E192E00E94A2040C94041B01968770E2
:104F6000BECF08950E944219292F2F7092959F70ED
:104F7000E92FF0E03297EE30F105B8F4E255FF4F3B
:104F80000C94A02C803F99F018F4803E70F40FC070
:104F9000843F59F40CC0803E50F0813F31F407C08B
:104FA000822F869586958695089580E0089581E004
:104FB0000895BF92CF92DF92EF92FF920F931F93CB
:104FC000CF93DF93CDB7DEB761970FB6F894DEBF0E
:104FD0000FBECDBF8C0185E0F801DE011D9601906A
:104FE0000D928A95E1F7D8013C9111962C91119779
:104FF0001296EC9012971396CD90DC9014975091E6
:1050000017026091180280911A0290911B0200977A
:1050100009F44FC16F3F19F45F3F09F44AC1B090E2
:105020001902BB2009F4ECC040911C02C816D90635
:1050300028F0F601E81BF90BCF0104C0809590958C
:105040008C0D9D1DFF24F394883C910548F0F12CB4
:10505000407F09F09FC087E192E00E94A20421C135
:10506000842F807F09F044C0621312C0531310C014
:10507000E1100EC04F70406140931C0287E192E046
:105080000E94A20480911C02D80115968C932EC018
:10509000CD2819F12F3F11F43F3FF9F0FE2CE1101C
:1050A0001CC080914E0240911D0256E0841709F405
:1050B00058C090E0589FF001599FF00D1124E25E16
:1050C000FD4F6181261306C06081361303C06281E3
:1050D000611103C001968770E9CFFE2CEE2009F420
:1050E00021C180911C02816080931C02F12C1AC1A5
:1050F00062130AC0531308C0E11006C080911C025D
:10510000D80115968C93B0C03D872E878D859E85DE
:105110000E94B2278823D1F1EE20C1F120911C0218
:10512000822F82958F7090E0029774F08091170221
:105130009091180298878F831986DB86CA862C8700
:10514000CE0107960E94A20486E0F801A7E1B2E032
:1051500001900D928A95E1F70E945727FF24F3945E
:10516000E1C03D872E878D859E850E944219292F9B
:1051700022952F7030E0223031050CF0C7C09F70AF
:1051800009F0C1C0805E883008F4CCC0C8010E941C
:10519000A204E4CF621314C0531312C0E11010C074
:1051A00080911C02F8018583C8010E94A20486E058
:1051B000E7E1F2E0DF011D928A95E9F7FB2CB2C02E
:1051C0003D872E878D859E850E94B2278823F1F228
:1051D000EE20E1F220911C02822F82958F7090E0E8
:1051E00002970CF4B1CF80911702909118029A8324
:1051F00089831B82DD82CC822E83CE010196A2CFD1
:10520000C816D90638F0C81AD90AB8ECCB16D1049A
:1052100050F007C0809590958C0D9D1D883C9105A0
:1052200010F0F12C3EC0FE2CEE2009F4AFCF62133B
:1052300027C0531325C020911C0220FD18C0822FC7
:1052400082958F70482F50E04115510581F0F8018B
:1052500025834F30510541F08F5F982F9295907FB5
:10526000822F8F70892B8583C8010E94A20486E05B
:10527000F801A7E1B2E001900D928A95E1F752C0E2
:105280003D872E878D859E850E94B22781115CCF38
:1052900080911C02816080931C02C8010E94A204BC
:1052A00041C0E7E1F2E086E0DF011D928A95E9F76F
:1052B00039C0EE2009F46ACF3D872E878D859E8503
:1052C0000E94B227F82E882309F460CF86E0F80107
:1052D000A7E1B2E001900D928A95E1F78091170263
:1052E000909118020E94421992959F70963041F455
:1052F00080916D0391E0892780936D0390936C03F7
:105300000E9457270FC081113DCF0CC024303105BA
:105310000CF03CCF9F7009F435CFF8019581907F58
:1053200009F030CF8F2D61960FB6F894DEBF0FBE17
:10533000CDBFDF91CF911F910F91FF90EF90DF9044
:10534000CF90BF90089510928D0210928C020E940F
:10535000BB18E2EFF2E086E0DF011D928A95E9F7E3
:105360001092F802109297020E94AA1780E090E033
:105370000E94982680E090E00C948226809106019D
:10538000882331F08091DE0287FF02C08EE101C0E8
:1053900086E0E9EFF1E0DF011D928A95E9F70C94D0
:1053A000A329882341F0809590919B0289238093C3
:1053B0009B020C94BB180895882339F090919B02AE
:1053C000892B80939B020C94BB180895882309F4C1
:1053D00063C0823869F40E94AE2681FF5DC069E334
:1053E00087EF91E00E9414180E94BB1869E30EC079
:1053F000833891F40E94AE2680FF4EC063E587EFAC
:1054000091E00E9414180E94BB1863E587EF91E0B9
:105410000E94E9170C94BB18843869F40E94AE26E8
:1054200082FF3AC067E487EF91E00E9414180E945F
:10543000BB1867E4EBCF9CEF980F913A10F4682FFC
:10544000E5CF90E2980F983088F4877021E030E043
:10545000A90102C0440F551F8A95E2F7CA01809541
:1054600090919B02892380939B02D4CF9BE5980F58
:10547000933020F480E090E00C94982698E5980F03
:10548000973120F480E090E00C948226803F20F059
:105490000E9421160C94AA170895CF93C82F0E943A
:1054A000602AC93349F42FEF87EE93E02150804002
:1054B0009040E1F700C000008C2FCF910C94E629BA
:1054C000882309F416C18238B1F40E94AE2681FD0A
:1054D00010C169E387EF91E00E9414180E94BB1885
:1054E0002FEF41EE54E0215040405040E1F700C022
:1054F000000069E317C08338D9F40E94AE2680FD0E
:10550000F8C063E587EF91E00E9414180E94BB1871
:105510008FEF91EE24E0815090402040E1F700C0F1
:10552000000063E587EF91E00E94E9170C94BB1837
:105530008438B1F40E94AE2682FDDBC067E487EFB9
:1055400091E00E9414180E94BB184FEF51EE84E0C6
:10555000415050408040E1F700C0000067E4E2CFD6
:105560009CEF980F913A30F4682F87EF91E00E94FA
:105570001418DCCF90E2980F983080F4877021E007
:1055800030E0A90102C0440F551F8A95E2F7CA0115
:1055900090919B02892B80939B02C8CF9BE5980F2B
:1055A000933070F4853A29F0863A31F083E890E040
:1055B00005C081E890E002C082E890E00C94982653
:1055C00098E5980F973108F08EC0883A09F445C0E5
:1055D000893A09F445C08A3A09F445C08B3A09F47E
:1055E00045C08C3A09F445C08B3B09F445C08C3B5F
:1055F00009F445C08D3A09F445C0803B09F445C023
:105600008E3A09F445C08F3A09F445C0813B09F44C
:1056100045C0823B09F445C0833B09F445C0843B47
:1056200009F445C0853B09F445C0863B09F445C0F3
:10563000873B09F445C0883B09F445C0893B09F420
:1056400045C08D3B09F445C08E3B09F445C08A3BFB
:1056500009F445C080E090E044C082EE90E041C093
:1056600089EE90E03EC08AEE90E03BC085EB90E092
:1056700038C086EB90E035C083EB90E032C084EB1D
:1056800090E02FC087EB90E02CC08CEC90E029C01C
:105690008DEC90E026C083E891E023C08AE891E099
:1056A00020C082E991E01DC084E991E01AC081E246
:1056B00092E017C083E292E014C084E292E011C04D
:1056C00085E292E00EC086E292E00BC087E292E0B3
:1056D00008C08FE690E005C080E790E002C08AE253
:1056E00092E00C948226803F20F00E94E6160C94F3
:1056F000AA1708951092B9008CE08093B80008951D
:10570000EF92FF920F931F93CF93DF93182FEB012C
:105710001092BC0084EA8093BC000E949E177C011A
:105720009091BC0097FD0EC0CF3F8FEFD807C1F31B
:105730000E949E178E199F098C179D0788F38EEF84
:105740009FEF2EC09091B900987F983041F09091D2
:10575000B900987F903119F08FEF9FEF21C010931F
:10576000BB0084E88093BC000E949E178C0190913E
:10577000BC0097FD0CC0CF3F8FEFD807C1F30E944C
:105780009E17801B910B8C179D0788F3D8CF8091B3
:10579000B900887F883111F08034F1F680E090E024
:1057A000DF91CF911F910F91FF90EF9008950F938C
:1057B0001F93CF93DF93EB018093BB0084E880932A
:1057C000BC000E949E178C019091BC0097FD0EC0FA
:1057D000CF3F8FEFD807C1F30E949E17801B910B1C
:1057E0008C179D0788F38EEF9FEF0CC02091B900B6
:1057F000287F81E090E0283211F480E090E09195DC
:1058000081959109DF91CF911F910F9108950F9389
:105810001F93CF93DF93EC0184E88093BC000E9438
:105820009E178C019091BC0097FD0EC0CF3F8FEF6B
:10583000D807C1F30E949E17801B910B8C179D0700
:1058400088F38EEF9FEF03C08091BB0090E0DF9163
:10585000CF911F910F91089584E98093BC00089522
:10586000F999FECF92BD81BDF89A992780B5089528
:10587000A6E1B0E044E050E00C946A2CA8E1B0E06E
:1058800042E050E00C946A2C262FF999FECF92BD8D
:1058900081BDF89A019700B4021639F01FBA20BDF5
:1058A0000FB6F894FA9AF99A0FBE08950396272F27
:1058B0000E94452C0E94442C252F0E94452C242F09
:1058C0000C94452C0196272F0E94452C0C94442CB7
:1058D000DC01CB01FC01F999FECF06C0F2BDE1BDB0
:1058E000F89A319600B40D9241505040B8F708959F
:1058F000AA1BBB1B51E107C0AA1FBB1FA617B707F6
:1059000010F0A61BB70B881F991F5A95A9F7809511
:105910009095BC01CD01089597FB072E16F40094D5
:1059200007D077FD09D00E94782C07FC05D03EF403
:10593000909581959F4F0895709561957F4F08953B
:10594000EE0FFF1F0590F491E02D0994CF93DF93A4
:105950008230910510F482E090E0E0917003F091C4
:10596000710320E030E0C0E0D0E0309711F14081D9
:10597000518148175907C0F04817590761F48281CF
:105980009381209719F09B838A832BC09093710396
:105990008093700326C02115310519F04217530773
:1059A00018F49A01BE01DF01EF010280F381E02DBE
:1059B000DCCF2115310509F1281B390B24303105C5
:1059C00090F412968D919C9113976115710521F0B9
:1059D000FB019383828304C09093710380937003CF
:1059E000FD01329644C0FD01E20FF31F81939193B4
:1059F000225031092D933C933AC020916E0330918F
:105A00006F03232B41F42091020130910301309365
:105A10006F0320936E032091000130910101211545
:105A2000310541F42DB73EB7409104015091050175
:105A3000241B350BE0916E03F0916F03E217F3071F
:105A4000A0F42E1B3F0B2817390778F0AC014E5FEE
:105A50005F4F2417350748F04E0F5F1F50936F03B9
:105A600040936E038193919302C0E0E0F0E0CF0198
:105A7000DF91CF9108950F931F93CF93DF930097FA
:105A800009F48CC0FC0132971382128200917003DA
:105A9000109171030115110581F420813181820F6C
:105AA000931F20916E0330916F032817390779F502
:105AB000F0936F03E0936E0371C0D80140E050E0B3
:105AC000AE17BF0750F412962D913C911397AD017C
:105AD0002115310509F1D901F3CF9D01DA01338395
